:020000040800F2
:100000003815002025010008910100089101000821
:100010009101000891010008910100080000000012
:100020000000000000000000000000006D13000848
:10003000910100080000000071140008AD140008D0
:100040009101000891010008910100089101000848
:100050009101000891010008910100089101000838
:100060009101000891010008910100089101000828
:100070009101000891010008910100089101000818
:1000800091010008910100089101000800000000A2
:1000900000000000000000000000000091010008C6
:1000A00091010008910100089101000891010008E8
:1000B00091010008910100089101000891010008D8
:1000C00091010008910100089101000891010008C8
:1000D00091010008910100089101000891010008B8
:1000E0009101000891010008910100080000000042
:1000F0000000000000000000000000000000000000
:1001000000000000000000000000000000000000EF
:1001100000000000000000009101000891010008AB
:100120005FF808F180B582B000AF41F67823C0F6E1
:1001300000037B6040F20003C2F200033B600BE06F
:100140007B681A683B681A603B6803F104033B60F4
:100150007B6803F104037B603A6840F22003C2F23B
:1001600000039A42ECD3084808494FF00002884245
:10017000B8BF40F8042BFADB00F00EF800F022FACA
:1001800007F10807BD4680BD20000020381100207F
:1001900080B400AFFEE700BF80B500AF4FF48053DE
:1001A000C4F202034FF48052C4F20202126842F019
:1001B00001021A604FF48052C4F202024FF48053DD
:1001C000C4F202035B6819464FF00003CFF6FF0349
:1001D00001EA030353604FF48053C4F202034FF467
:1001E0008052C4F20202126822F0847222F4803239
:1001F0001A604FF48053C4F202034FF48052C4F2E9
:100200000202126822F480221A604FF48053C4F272
:1002100002034FF48052C4F20202526822F4FE023A
:100220005A604FF48053C4F202034FF41F029A60E5
:100230004FF48053C4F202034FF00002DA6200F080
:1002400009F84FF46D43CEF200034FF000629A605C
:1002500080BD00BF80B500AF00F002F880BD00BFD8
:1002600080B483B000AF4FF000037B604FF0000319
:100270003B604FF48053C4F202034FF48052C4F247
:100280000202126842F480321A604FF48053C4F2C2
:1002900002031B6803F400333B607B6803F1010336
:1002A0007B603B68002B03D17B68B3F5A06FECD17A
:1002B0004FF48053C4F202031B6803F40033002B95
:1002C00003D04FF001033B6002E04FF000033B60BE
:1002D0003B68012B6DD14FF48053C4F202034FF4FD
:1002E0008052C4F2020252685A604FF48053C4F242
:1002F00002034FF48052C4F2020252685A604FF473
:100300008053C4F202034FF48052C4F202025268D6
:100310005A604FF48053C4F202034FF48052C4F287
:100320000202526822F47C125A604FF48053C4F2E5
:1003300002034FF48052C4F20202526842F498124F
:100340005A604FF48053C4F202034FF48052C4F257
:100350000202126842F080721A6000BF4FF48053AC
:10036000C4F202031B6803F00073002BF6D04FF4B5
:100370008053C4F202034FF48052C4F20202526866
:1003800022F003025A604FF48053C4F202034FF488
:100390008052C4F20202526842F002025A6000BF68
:1003A0004FF48053C4F202035B6803F00C03082B84
:1003B000F6D107F10C07BD4680BC704780B489B008
:1003C00000AF786039604FF00003FB614FF000032D
:1003D0003B614FF00003BB614FF00003FB604FF047
:1003E00000037B614FF00003BB603B68DB7803F0E8
:1003F0000F03FB613B68DB7803F01003002B05D093
:100400003B689B78FA6942EA0303FB613B681B88FF
:1004100003F0FF03002B51D07B681B687B614FF01A
:100420000003BB6144E0BB694FF0010202FA03F331
:10043000FB603B681B881A46FB6802EA03033B61CA
:100440003A69FB689A422FD1BB694FEA8303FB608C
:10045000FB684FF00F0202FA03F3BB60BB686FEA60
:1004600003037A6902EA03037B61FB68FA6902FA13
:1004700003F37A6942EA03037B613B68DB78282B4C
:1004800007D1BB694FF0010202FA03F27B685A619F
:100490000AE03B68DB78482B06D1BB694FF00102CC
:1004A00002FA03F27B681A61BB6903F10103BB61C5
:1004B000BB69072BB7D97B687A691A603B681B88D0
:1004C000FF2B56D97B685B687B614FF00003BB61F3
:1004D00049E0BB6903F108034FF0010202FA03F39C
:1004E000FB603B681B881A46FB6802EA03033B611A
:1004F0003A69FB689A4232D1BB694FEA8303FB60D9
:10050000FB684FF00F0202FA03F3BB60BB686FEAAF
:1005100003037A6902EA03037B61FB68FA6902FA62
:1005200003F37A6942EA03037B613B68DB78282B9B
:1005300008D1BB6903F108034FF0010202FA03F28C
:100540007B685A613B68DB78482B08D1BB6903F1B3
:1005500008034FF0010202FA03F27B681A61BB69DB
:1005600003F10103BB61BB69072BB2D97B687A69D0
:100570005A6007F12407BD4680BC704780B483B041
:1005800000AF78600B467B807A887B681A6107F140
:100590000C07BD4680BC704780B483B000AF786064
:1005A0000B467B807A887B685A6107F10C07BD4651
:1005B00080BC704780B483B000AF07F10C07BD4624
:1005C00080BC704780B500AFFFF7E6FDFFF7F2FF94
:1005D00000F08EFD00F01AFAFEE700BF80B489B08B
:1005E00000AF78604FF00003FB614FF00003BB6188
:1005F0004FF000037B614FF000033B614FF00003BD
:10060000FB604FF48053C4F202035B6803F00C03F9
:10061000FB61FB69042B0AD0082B0FD0002B47D1BC
:100620007A684FF49053C0F27A03136047E07A6817
:100630004FF49053C0F27A03136040E04FF48053BC
:10064000C4F202035B6803F47013BB614FF4805380
:10065000C4F202035B6803F480337B61BB694FEA39
:10066000934303F10203BB617B69002B09D1BA6993
:100670004FF41063C0F23D0303FB02F27B681A6083
:100680001DE04FF48053C4F20203DB6A03F00F0352
:1006900003F10103FB604FF49053C0F27A03FA6850
:1006A000B3FBF2F3BA6902FB03F27B681A6006E05F
:1006B0007A684FF49053C0F27A03136000BF4FF48E
:1006C0008053C4F202035B6803F0F003FB61FB6933
:1006D0004FEA1313FB6140F20003C2F20003FA6910
:1006E0009B181B78DBB23B617B681A683B6922FA76
:1006F00003F27B685A604FF48053C4F202035B68D4
:1007000003F4E063FB61FB694FEA1323FB6140F2F2
:100710000003C2F20003FA699B181B78DBB23B614D
:100720007B685A683B6922FA03F27B689A604FF44F
:100730008053C4F202035B6803F46053FB61FB69FE
:100740004FEAD323FB6140F20003C2F20003FA69CF
:100750009B181B78DBB23B617B685A683B6922FAC5
:1007600003F27B68DA604FF48053C4F202035B68E3
:1007700003F44043FB61FB694FEA9333FB6140F2B2
:100780001003C2F20003FA699B181B78DBB23B61CD
:100790007B68DA683B69B2FBF3F27B681A6107F1A8
:1007A0002407BD4680BC704780B483B000AF78603A
:1007B0000B46FB70FB78002B0ED04FF48053C4F235
:1007C00002034FF48052C4F20202926911467A6821
:1007D00041EA02029A610FE04FF48053C4F202032F
:1007E0004FF48052C4F20202926911467A686FEAAD
:1007F000020201EA02029A6107F10C07BD4680BCC1
:10080000704700BF80B483B000AF78600B46FB70C8
:10081000FB78002B0ED04FF48053C4F202034FF448
:100820008052C4F20202D26911467A6841EA020299
:10083000DA610FE04FF48053C4F202034FF48052A8
:10084000C4F20202D26911467A686FEA020201EA32
:100850000202DA6107F10C07BD4680BC704700BF99
:1008600080B58AB002AFF860B9603B601346FB8088
:10087000FB881846396B00F0F1FBB861BB69002BAF
:1008800000F0A680BB691A6BFB8803F1FF334FEAC7
:100890008303D3187B617B6923F007037B61FB88AB
:1008A0000093B869B968BA6A7B6B00F0FBFA7869A3
:1008B000F9683A6800F02AFD03461A46BB691A60D7
:1008C000FB6A002B02D0FB6ABA691A6000F09EFD39
:1008D00040F2F803C2F200031B6803F1010240F288
:1008E000F803C2F200031A6040F22003C2F20003D0
:1008F0001B68002B0FD140F22003C2F20003BA693B
:100900001A6040F2F803C2F200031B68012B18D1F1
:1009100000F006FB15E040F20813C2F200031B686A
:10092000002B0ED140F22003C2F200031B68DA6AEA
:10093000BB6A9A4205D840F22003C2F20003BA69AA
:100940001A60BB69DA6A40F20013C2F200031B6846
:100950009A4206D9BB69DA6A40F20013C2F2000378
:100960001A6040F21C13C2F200031B6803F101027B
:1009700040F21C13C2F200031A60BB69DA6A40F24B
:100980000413C2F200031B689A4206D9BB69DA6AF3
:1009900040F20413C2F200031A60BB69DA6A13461C
:1009A0004FEA83039B184FEA83031A4640F224035D
:1009B000C2F20003D218BB6903F1040310461946C2
:1009C00000F050FC4FF00103FB6100F035FD02E048
:1009D0004FF0FF33FB61FB69012B11D140F208138B
:1009E000C2F200031B68002B0AD040F22003C2F2BF
:1009F00000031B68DA6ABB6A9A4201D200F0FAFC73
:100A0000FB69184607F12007BD4680BD80B586B05A
:100A100004AF41F66C23C0F600034FF000020092D1
:100A20004FF0000201924FF0000202924FF00002DC
:100A3000039240F68160C0F6000019464FF0800234
:100A40004FF00003FFF70CFF78607B68012B13D198
:100A50004FF0BF0080F3118840F20813C2F2000388
:100A60004FF001021A6040F2FC03C2F200034FF0A3
:100A700000021A6000F094FC07F10807BD4680BD33
:100A800080B400AF40F20C13C2F200031B6803F104
:100A9000010240F20C13C2F200031A60BD4680BC92
:100AA000704700BF90B583B000AF4FF000037B608C
:100AB00000F0ACFC40F20C13C2F200031B6803F11F
:100AC000FF3240F20C13C2F200031A6040F20C1322
:100AD000C2F200031B68002B40F0868040F2F8034E
:100AE000C2F200031B68002B7ED04FF000033B6076
:100AF0003DE040F2B803C2F20003DB68DB681C464D
:100B000004F11803184600F0D7FB04F1040318465B
:100B100000F0D2FBE26A40F20413C2F200031B6849
:100B20009A4205D9E26A40F20413C2F200031A6045
:100B3000E26A13464FEA83039B184FEA83031A467F
:100B400040F22403C2F20003D21804F10403104659
:100B5000194600F087FBE26A40F22003C2F200036C
:100B60001B68DB6A9A4202D34FF001033B6040F2FC
:100B7000B803C2F200031B68002BBAD140F2101375
:100B8000C2F200031B68002B18D00DE000F034F80F
:100B900040F21013C2F200031B6803F1FF3240F26F
:100BA0001013C2F200031A6040F21013C2F20003E5
:100BB0001B68002BEAD14FF001033B603B68012B1F
:100BC00006D040F21413C2F200031B68012B0BD1B4
:100BD0004FF001037B6040F21413C2F200034FF0A8
:100BE00000021A6000F006FC00F026FC7B68184644
:100BF00007F10C07BD4690BD80B584B000AF40F250
:100C00000C13C2F200031B68002B40F0C08040F2BE
:100C1000FC03C2F200031B6803F1010240F2FC0373
:100C2000C2F200031A6040F2FC03C2F200031B6828
:100C3000002B40D140F2B003C2F200031B68FB60FE
:100C400040F2B403C2F200031A6840F2B003C2F2E9
:100C500000031A6040F2B403C2F20003FA681A609B
:100C600040F21813C2F200031B6803F1010240F2C4
:100C70001813C2F200031A6040F2B003C2F200037C
:100C80001B681B68002B07D140F21403C2F200035B
:100C90004FF0FF321A600EE040F2B003C2F20003E0
:100CA0001B68DB68DB68BB60BB685A6840F21403F2
:100CB000C2F200031A6040F2FC03C2F200031A6899
:100CC00040F21403C2F200031B689A426BD340F255
:100CD000B003C2F200031B681B68002B07D140F26F
:100CE0001403C2F200034FF0FF321A605BE040F2DF
:100CF000B003C2F200031B68DB68DB68BB60BB6843
:100D00005B687B6040F2FC03C2F200031A687B68F8
:100D10009A4206D240F21403C2F200037A681A60C3
:100D200041E0BB6803F10403184600F0C5FABB6854
:100D30009B6A002B05D0BB6803F11803184600F02E
:100D4000BBFABB68DA6A40F20413C2F200031B6804
:100D50009A4206D9BB68DA6A40F20413C2F2000371
:100D60001A60BB68DA6A13464FEA83039B184FEA9E
:100D700083031A4640F22403C2F20003D218BB6870
:100D800003F104031046194600F06CFA9FE740F2A5
:100D90001013C2F200031B6803F1010240F21013AA
:100DA000C2F200031A6007F11007BD4680BD00BF04
:100DB00080B483B000AF40F20C13C2F200031B6892
:100DC000002B14D040F21413C2F200034FF00102C2
:100DD0001A604FE040F20413C2F200031B6803F1F3
:100DE000FF3240F20413C2F200031A6000E000BFB9
:100DF00040F20413C2F200031A6813464FEA830359
:100E00009B184FEA83031A4640F22403C2F2000300
:100E1000D3181B68002BDDD040F20413C2F200038C
:100E20001A6813464FEA83039B184FEA83031A4656
:100E300040F22403C2F20003D3187B607B685B6836
:100E40005B681A467B685A607B685A687B6803F166
:100E500008039A4205D17B685B685B681A467B6829
:100E60005A607B685B68DB681A4640F22003C2F276
:100E700000031A6007F10C07BD4680BC704700BF35
:100E800080B582B000AF786000E000BF00F09AF853
:100E900040F22403C2F200031B68012BF5D900F0D5
:100EA000A9FAF3E780B584B000AFF860B9607A6062
:100EB0003B60FB6803F134031A46BB6810461946D1
:100EC0004FF0100200F094FDFB684FF0000283F831
:100ED00043207B68042B02D94FF004037B60FB683E
:100EE0007A68DA62FB687A685A64FB6803F1040383
:100EF000184600F0A9F9FB6803F11803184600F042
:100F0000A3F9FB68FA681A617B68C3F10502FB6804
:100F10009A61FB68FA685A6207F11007BD4680BD06
:100F200080B582B000AF4FF000037B6013E07A68B9
:100F300013464FEA83039B184FEA83031A4640F295
:100F40002403C2F20003D318184600F059F97B6855
:100F500003F101037B607B68042BE8D940F2880031
:100F6000C2F2000000F04CF940F29C00C2F2000016
:100F700000F046F940F2B800C2F2000000F040F97B
:100F800040F2CC00C2F2000000F03AF940F2E40076
:100F9000C2F2000000F034F940F2B003C2F20003E4
:100FA00040F28802C2F200021A6040F2B403C2F2B8
:100FB000000340F29C02C2F200021A6007F1080727
:100FC000BD4680BD80B582B000AF40F2E003C2F202
:100FD00000031B68002B3CD0FFF752FD40F2CC030E
:100FE000C2F200031B68002B14BF002301237B60A7
:100FF000FFF758FD7B68002B2BD100F007FA40F279
:10100000CC03C2F20003DB68DB683B603B6803F1A2
:101010000403184600F050F940F2F803C2F200034E
:101020001B6803F1FF3240F2F803C2F200031A60BA
:1010300040F2E003C2F200031B6803F1FF3240F20A
:10104000E003C2F200031A6000F0F6F9386800F01D
:101050003FF807F10807BD4680BD00BF80B584B0EA
:1010600000AF03463960FB804FF0480000F04AFBB8
:101070000346FB60FB68002B23D03B68002B07D1A5
:10108000FB884FEA8303184600F03CFB034600E070
:101090003B68FA681363FB681B6B002B06D1F8688A
:1010A00000F008FC4FF00003FB600AE0FB681A6BDD
:1010B000FB884FEA830310464FF0A5011A4600F063
:1010C0003DFCFB68184607F11007BD4680BD00BF18
:1010D00080B582B000AF78607B681B6B184600F06B
:1010E000E9FB786800F0E6FB07F10807BD4680BD24
:1010F00080B586B000AF4FF400104FF00101FFF74C
:1011000081FB4FF008004FF00101FFF74DFB4FF05E
:10111000B003BB824FF00303BB754FF01003FB75A8
:1011200007F114034FF44060C4F201001946FFF7C1
:1011300045F94FF44060C4F201004FF0B001FFF7F1
:101140002BFA4FF0050000F043F84FF44060C4F272
:1011500001004FF01001FFF711FA4FF0C003BB82FE
:101160004FF00303BB754FF01C03FB7507F114032D
:101170004FF44060C4F201001946FFF71FF94FF029
:1011800000033B814BF6FF737B814FF00003BB8173
:101190004FF48063FB814FF480433B8248F2A063AD
:1011A000C0F201037B604FF4A840C4F200004FF08E
:1011B000010100F087FA07F104034FF4A840C4F2DC
:1011C0000000194600F0A2F907F11807BD4680BDDE
:1011D00080B485B000AF78607B6845F6C05202FBF2
:1011E00003F3FB6003E0FB6803F1FF33FB60FB6884
:1011F000002BF8D107F11407BD4680BC704700BF33
:1012000080B483B000AF78607B6803F108031A46AE
:101210007B685A607B684FF0FF329A607B6803F10D
:1012200008031A467B68DA607B6803F108031A46F4
:101230007B681A617B684FF000021A6007F10C07A7
:10124000BD4680BC704700BF80B483B000AF7860FB
:101250007B684FF000021A6107F10C07BD4680BCA5
:10126000704700BF80B485B000AF786039607B689C
:101270005B68FB60FB685B681A463B685A607B688A
:101280005A683B689A60FB685B683A689A603A689B
:10129000FB685A603A687B685A603B687A681A61F2
:1012A0007B681B6803F101027B681A6007F1140771
:1012B000BD4680BC704700BF80B485B000AF786089
:1012C0007B685B687A6892689A607B689B687A68DA
:1012D00052685A607B681B69FB60FB685A687B68D0
:1012E0009A4203D17B689A68FB685A607B684FF02A
:1012F00000021A61FB681B6803F1FF32FB681A6089
:1013000007F11407BD4680BC704700BF80B485B0AC
:1013100000AFF860B9607A60FB68A3F10403FB607A
:10132000FB684FF080721A60FB68A3F10403FB6056
:10133000BA68FB681A60FB68A3F10403FB60FB68F2
:101340004FF000021A60FB68A3F11403FB607A6897
:10135000FB681A60FB68A3F12003FB60FB6818467A
:1013600007F11407BD4680BC704700BF064B1968E3
:101370000868B0E8F00F80F309884FF0000080F3B0
:1013800011884EF00D0E70472000002003480068C1
:10139000006880F3088862B600DF00BF08ED00E057
:1013A00080B500AF4EF62053CEF200034EF6205229
:1013B000CEF20002126842F47F021A604EF6205309
:1013C000CEF200034EF62052CEF20002126842F036
:1013D0007F421A6000F086F840F21803C2F2000360
:1013E0004FF000021A60FFF7D1FF4FF000031846DC
:1013F00080BD00BF80B400AF4EF60453CEF20003B0
:101400004FF080521A60BD4680BC704780B400AF78
:101410004FF0BF0080F3118840F21803C2F20003BE
:101420001B6803F1010240F21803C2F200031A60C4
:10143000BD4680BC704700BF80B400AF40F21803C7
:10144000C2F200031B6803F1FF3240F21803C2F23C
:1014500000031A6040F21803C2F200031B68002B5D
:1014600003D14FF0000080F31188BD4680BC704767
:10147000EFF309800C4B1A6820E9F00F10602DE99A
:1014800008404FF0BF0080F31188FFF791FC4FF048
:10149000000080F31188BDE8084019680868B0E8CA
:1014A000F00F80F3098870472000002080B582B0DB
:1014B00000AF4EF60453CEF200034FF080521A6094
:1014C0004FF000037B604FF0BF0080F31188FFF7FF
:1014D00093FB4FF0000080F3118807F10807BD4629
:1014E00080BD00BF80B400AF4EF21403CEF2000303
:1014F00045F6BF521A604EF21003CEF200034FF0D1
:1015000007021A60BD4680BC704700BF80B58AB034
:1015100000AF786039604FF00003FB844FF00003A8
:101520007B844FF00403BB844FF49053C0F27A03E2
:10153000FB617B689B88FB84FB8C23F03F03FB846F
:1015400007F108031846FFF749F83B69FB61FA69A0
:101550004DF68363C4F21B33A3FB02134FEA93439C
:101560007B84FA8C7B8C42EA0303FB847B68FA8CD5
:101570009A807B681B889BB223F001039AB27B6838
:101580001A804FF00003FB843B681A6848F2A0639E
:10159000C0F201039A4219D83B681B684FEA430323
:1015A000FA69B2FBF3F3BB84BB8C032B02D84FF078
:1015B0000403BB84FA8CBB8C42EA0303FB847B8C60
:1015C00003F101039AB27B681A844CE03B68DA8825
:1015D0004BF6FF739A420AD13B681A6813464FEAEA
:1015E00043039B18FA69B2FBF3F3BB8410E03B683A
:1015F0001A6813464FEA83039B184FEA83029B182D
:10160000FA69B2FBF3F3BB84BB8C43F48043BB8425
:10161000BB8C4FEA03534FEA1353002B03D1BB8C0F
:1016200043F00103BB84BA8CFB8C42EA03039BB2F8
:101630006FEA43436FEA5343FB847B8C4FF496720B
:1016400002FB03F244F6D353C1F2620383FB02139D
:101650004FEAA3114FEAE273CB1A9BB203F10103E5
:101660009AB27B681A847B68FA8C9A837B681B88A1
:101670009BB243F001039AB27B681A807B681B8897
:10168000FB84FB8C23F4806323F00A03FB843B6818
:101690009A883B685B8942EA03039AB2FB8C42EA70
:1016A0000303FB847B68FA8C1A803B689A893B6849
:1016B0001B8942EA03039AB27B681A8107F1280763
:1016C000BD4680BD80B483B000AF78600B46FB7030
:1016D000FB78002B08D07B681B889BB243F001038A
:1016E0009AB27B681A8007E07B681B889BB223F064
:1016F00001039AB27B681A8007F10C07BD4680BCD3
:10170000704700BF80B58AB000AF78604FF000032B
:10171000FB61FFF7B5F941F23013C2F200031B6819
:10172000002B33D140F22012C2F2000241F220130A
:10173000C2F200031A6041F22013C2F200034FF01C
:1017400000025A6041F22813C2F200034FF48052A3
:101750005A6041F22813C2F200034FF000021A60EF
:1017600040F22013C2F200037B617B694FF4805288
:101770005A607A6941F22813C2F20003136041F201
:101780003013C2F200034FF001021A607B68002B95
:1017900012D041F67423C0F600031B887A68D31870
:1017A0007B607B6803F00703002B05D07B6823F088
:1017B000070303F108037B607B68002B72D07A6813
:1017C00040F6FF739A426DD841F22013C2F2000333
:1017D0003B6241F22013C2F200031B687B6204E00B
:1017E0007B6A3B627B6A1B687B627B6A5A687B68A8
:1017F0009A4203D27B6A1B68002BF1D17A6A41F2CC
:101800002813C2F200039A424CD03B6A1A6841F690
:101810007423C0F600031B88D318FB617B6A1A6827
:101820003B6A1A607B6A5A687B68D21A41F6742355
:10183000C0F600031B884FEA43039A4225D97A6A0F
:101840007B68D3183B617B6A5A687B68D21A3B6914
:101850005A607B6A7A685A603B695B68FB6041F258
:101860002013C2F20003BB6102E0BB691B68BB61CD
:10187000BB691B685A68FB689A42F6D3BB691A6851
:101880003B691A60BB693A691A6040F21C03C2F2F4
:1018900000031A687B6A5B68D21A40F21C03C2F22A
:1018A00000031A60FFF7FEF8FB69184607F12807E6
:1018B000BD4680BD80B586B000AF78607B683B6177
:1018C0007B68002B35D041F67423C0F600031B88DB
:1018D000C3F100033A69D3183B613B69FB60FFF732
:1018E000CFF8FB685B68BB6041F22013C2F20003D3
:1018F0007B6102E07B691B687B617B691B685A68BE
:10190000BB689A42F6D37B691A68FB681A607B69E8
:10191000FA681A60FB685A6840F21C03C2F20003BE
:101920001B68D21840F21C03C2F200031A60FFF7D2
:10193000B9F807F11807BD4680BD00BF032AC9B238
:1019400070B408D82AB10346121803F8011B934259
:10195000FBD170BC70478218044601E004F8011BFB
:1019600014F0030FFAD14FF0013303FB01F31FE032
:1019700044F8403C44F83C3C44F8383C44F8343C9F
:1019800044F8303C44F82C3C44F8283C44F8243CCF
:1019900044F8203C44F81C3C44F8183C44F8143CFF
:1019A00044F8103C44F80C3C44F8083C44F8043C2F
:1019B000161B254640343F2EDADC2C4607E044F85F
:1019C000103C44F80C3C44F8083C44F8043C161B1A
:1019D000254610340F2EF2DC01E045F8043B541B81
:1019E000032CFADC01E005F8011B9542FBD3B0E7BC
:1019F00041EA000313F0030F034670B414BF00253F
:101A00000125032A94BF002505F001050C46064672
:101A1000CDB9B2B10D783446531E04F8015B55B10F
:101A2000B21C73B111F8015F1446013B02F8015C6E
:101A30000132002DF5D123B10022013B04F8012B26
:101A4000FBD170BC7047214654F8045BA5F1013608
:101A500026EA050616F0803F05D1043A43F8045BF8
:101A6000032A2146EFD81E46D3E700BF49444C4520
:061A700000000000100060
:101A7800000000000102030401020304060708092C
:101A880002040608FFFFFFFFAAAAAAAA0010000086
:0400000508000000EF
:00000001FF
