:020000040800F2
:10000000FC270020053200087D3200087D32000800
:100010007D3200087D3200087D32000800000000BB
:10002000000000000000000000000000195300085C
:100030007D32000800000000355400088554000897
:100040007D3200080D5900087D3200087D3200081D
:100050007D3200087D3200087D3200087D320008C4
:100060007D3200087D3200087D3200087D320008B4
:100070007D3200087D3200087D3200087D320008A4
:100080007D3200087D3200087D3200087D32000894
:100090007D3200087D3200087D3200087D32000884
:1000A0007D320008193600087D3200087D320008D4
:1000B0007D320008A53500087D3200087D32000839
:1000C0007D3200087D3200087D3200087D32000854
:1000D0007D3200087D3200087D32000819180008C2
:1000E0007D3200087D3200087D3200087D32000834
:1000F0007D3200087D3200087D3200087D32000824
:100100007D3200087D3200087D3200087D32000813
:100110007D3200087D3200087D3200087D32000803
:100120007D3200087D3200087D3200087D320008F3
:100130007D3200087D3200087D3200087D320008E3
:100140007D3200087D3200087D3200087D320008D3
:100150007D3200087D3200087D3200087D320008C3
:100160007D3200087D3200087D3200087D320008B3
:100170007D3200087D3200087D3200087D320008A3
:100180007D3200087D32000890B58DB000AF7860F8
:100190004FF0000387F82F304FF0000387F82E3020
:1001A0004FF0000387F82D304FF0000387F82A3016
:1001B0004FF0000387F82C304FF0000387F82B3006
:1001C00007F108034FF000021A6003F104034FF037
:1001D00000021A6003F104034FF000021A6003F1F9
:1001E00004034FF000021A6003F104034FF0000211
:1001F0001A6003F104034FF000021A6003F10403D4
:100200004FF000021A6003F104034FF000021A607D
:1002100003F104037B681B783A2B40F0A8847B68C9
:1002200003F101031B7887F82A3097F82A30962BC0
:1002300000F29F844FF0000387F82F3017E097F803
:100240002F1041F6A452C2F200020B464FEA4303BC
:100250005B184FEAC303D31803F148034FF00002C1
:100260009A7097F82F3003F1010387F82F3097F831
:100270002F30012BE3D905F0ABF84FF0020387F8DC
:100280002F3036E197F82F307A68D3181B785B2B24
:1002900002D05D2B05D04EE04FF0010387F82D30E2
:1002A00021E197F82C1041F6A452C2F200020B464D
:1002B0004FEA43035B184FEAC303D31803F13C032F
:1002C0001B88012B1AD197F82B3007F13001CB187E
:1002D0004FF0000203F8282C97F82C2013464FEA21
:1002E00043039B184FEAC3031A46884BD21807F101
:1002F00008031046194600F041FC13E097F82C2043
:1003000013464FEA43039B184FEAC3031A467F4B39
:10031000D11807F1080297F82B30084611461A4603
:1003200000F0F2FF4FF0000387F82D304FF000038C
:1003300087F82B30D7E097F82D30012B40F0D38091
:1003400097F82F3003F1FF337A68D3181B785B2BB3
:1003500040F0B58097F82F307A68D3181B782A2B95
:1003600040F08F804FF0000387F82E307AE097F846
:100370002E1097F82F3003F101037A68D3181B78F9
:1003800003F00F039BB243F420639BB298B241F693
:10039000A452C2F200020B464FEA43035B184FEA35
:1003A000C303D31803F1400302461A8097F82E10B6
:1003B00041F6A452C2F200020B464FEA43035B1817
:1003C0004FEAC303D31803F138031B88012B43D82A
:1003D00097F82E1041F6A452C2F200020B464FEAE3
:1003E00043035B184FEAC303D31803F13A031B8896
:1003F000194697F82E0041F6A452C2F200020346B5
:100400004FEA43031B184FEAC303D31803F1380321
:100410001B881C4697F82E0041F6A452C2F2000237
:1004200003464FEA43031B184FEAC303D31803F1F3
:100430004003188841F6A452C2F200020B464FEA6C
:10044000C3035B1A4FEA83031B1903F127034FEA27
:100450004303D31802465A8097F82E3003F1010364
:1004600087F82E3097F82E30012B80D997F82F304F
:1004700003F1020387F82F304FF0000387F82D3087
:1004800031E097F82F307A68D3181B7887F82C3032
:1004900097F82C30012B25D897F82C1041F6A45250
:1004A000C2F200020B464FEA43035B184FEAC30354
:1004B000D31803F148034FF001029A7013E097F844
:1004C0002B3097F82F2079688A18127807F13001BD
:1004D000CB1803F8282C97F82B3003F1010387F889
:1004E0002B3000E000BF97F82F3003F1010387F8AD
:1004F0002F3097F82F2097F82A309A42FFF4C2AE97
:100500004FF0000387F82F3028E300BFDC1D0020E8
:1005100097F82F1041F6A452C2F200020B464FEAA0
:1005200043035B184FEAC303D31803F148039B78D6
:10053000002B40F00D8397F82F1041F6A452C2F221
:1005400000020B464FEA43035B184FEAC303D3187C
:1005500003F138031B88012B00F2FA8297F82F1061
:1005600041F6A452C2F200020B464FEA43035B1865
:100570004FEAC303D31803F13A031B88194697F8CF
:100580002F0041F6A452C2F2000203464FEA430391
:100590001B184FEAC303D31803F138031B881C460A
:1005A00097F82F0041F6A452C2F2000203464FEA28
:1005B00043031B184FEAC303D31803F146031888FB
:1005C00041F6A452C2F200020B464FEAC3035B1A83
:1005D0004FEA83031B194FEA4303D31802465A809C
:1005E00097F82F1041F6A452C2F200020B464FEAD0
:1005F00043035B184FEAC303D31803F13A031B8884
:10060000194697F82F0041F6A452C2F200020346A1
:100610004FEA43031B184FEAC303D31803F138030F
:100620001B881C4697F82F0041F6A452C2F2000224
:1006300003464FEA43031B184FEAC303D31803F1E1
:100640004803188841F6A452C2F200020B464FEA52
:10065000C3035B1A4FEA83031B1903F10D034FEA2F
:100660004303D31802465A8097F82F1041F6A4523C
:10067000C2F200020B464FEA43035B184FEAC30382
:10068000D31803F13A031B88194697F82F0041F657
:10069000A452C2F2000203464FEA43031B184FEA7A
:1006A000C303D31803F138031B881C4697F82F00A7
:1006B00041F6A452C2F2000203464FEA43031B185C
:1006C0004FEAC303D31803F14403188841F6A45238
:1006D000C2F200020B464FEAC3035B1A4FEA8303E0
:1006E0001B1903F11A034FEA4303D31802465A8039
:1006F00097F82F1041F6A452C2F200020B464FEABF
:1007000043035B184FEAC303D31803F13A031B8872
:10071000194697F82F0041F6A452C2F20002034690
:100720004FEA43031B184FEAC303D31803F13803FE
:100730001B881C4697F82F0041F6A452C2F2000213
:1007400003464FEA43031B184FEAC303D31803F1D0
:100750004003188841F6A452C2F200020B464FEA49
:10076000C3035B1A4FEA83031B1903F127034FEA04
:100770004303D31802465A8097F82F1041F6A4522B
:10078000C2F200020B464FEA43035B184FEAC30371
:10079000D31803F13A031B88194697F82F0041F646
:1007A000A452C2F2000203464FEA43031B184FEA69
:1007B000C303D31803F138031B881C4697F82F0096
:1007C00041F6A452C2F2000203464FEA43031B184B
:1007D0004FEAC303D31803F14203188841F6A45229
:1007E000C2F200020B464FEAC3035B1A4FEA8303CF
:1007F0001B1903F134034FEA4303D31802465A800E
:1008000097F82F1041F6A452C2F200020B464FEAAD
:1008100043035B184FEAC303D31803F13A031B8861
:10082000194697F82F0041F6A452C2F2000203467F
:100830004FEA43031B184FEAC303D31803F13803ED
:100840001B88184641F6A452C2F200020B464FEA3A
:10085000C3035B1A4FEA83031B1803F141034FEAFA
:100860004303D3184FF480725A8097F82F1041F643
:10087000A452C2F200020B464FEA43035B184FEA50
:10088000C303D31803F13A031B88194697F82F00C6
:1008900041F6A452C2F2000203464FEA43031B187A
:1008A0004FEAC303D31803F138031B88184641F6F7
:1008B000A452C2F200020B464FEAC3035B1A4FEA8E
:1008C00083031B1803F14E034FEA4303D3184FF47D
:1008D00000725A8097F82F1041F6A452C2F200021B
:1008E0000B464FEA43035B184FEAC303D31803F1E7
:1008F0003A031B88194697F82F0041F6A452C2F21A
:10090000000203464FEA43031B184FEAC303D31800
:1009100003F138031B88184641F6A452C2F20002C4
:100920000B464FEAC3035B1A4FEA83031B1803F11C
:100930005B034FEA4303D3184FF440725A8097F891
:100940002F1041F6A452C2F200020B464FEA4303B5
:100950005B184FEAC303D31803F13A031B88194607
:1009600097F82F0041F6A452C2F2000203464FEA64
:1009700043031B184FEAC303D31803F138031B8842
:10098000184641F6A452C2F200020B464FEAC303D6
:100990005B1A4FEA83031B1803F168034FEA430312
:1009A000D3184FF480625A8097F82F1041F6A45262
:1009B000C2F200020B464FEA43035B184FEAC3033F
:1009C000D31803F13A031B88194697F82F0041F614
:1009D000A452C2F2000203464FEA43031B184FEA37
:1009E000C303D31803F138031B88184641F6A452F9
:1009F000C2F200020B464FEAC3035B1A4FEA8303BD
:100A00001B1803F175034FEA4303D3184FF4A06298
:100A10005A8097F82F1041F6A452C2F200020B46FA
:100A20004FEA43035B184FEAC303D31803F13A03B9
:100A30001B88194697F82F0041F6A452C2F2000213
:100A400003464FEA43031B184FEAC303D31803F1CD
:100A500038031B88184641F6A452C2F200020B4626
:100A60004FEAC3035B1A4FEA83031B1803F18203A7
:100A70004FEA4303D3184FF4C0625A8097F82F10FF
:100A800041F6A452C2F200020B464FEA43035B1840
:100A90004FEAC303D31803F13A031B88194697F8AA
:100AA0002F0041F6A452C2F2000203464FEA43036C
:100AB0001B184FEAC303D31803F138031B881846E9
:100AC00041F6A452C2F200020B464FEAC3035B1A7E
:100AD0004FEA83031B1803F18F034FEA4303D31834
:100AE0004FF4E0625A8097F82F1041F6A452C2F2F8
:100AF00000020B464FEA43035B184FEAC303D318C7
:100B000003F13A031B88194697F82F0041F6A452C7
:100B1000C2F2000203464FEA43031B184FEAC30325
:100B2000D31803F138031B88184641F6A452C2F2C9
:100B300000020B464FEAC3035B1A4FEA83031B18FC
:100B400003F19C034FEA4303D3184FF400625A8029
:100B500097F82F3003F1010387F82F3097F82F30E3
:100B6000012B7FF6D5AC04F049FC00BF02E000BFCA
:100B700000E000BF07F13407BD4690BDF0B585B079
:100B800000AF786039604FF00003FB734FF0000353
:100B9000BB734FF000037B734FF000033B737B6824
:100BA0001B88022B02D94FF00003A8E3386804F039
:100BB000EBFF03463B737B685B8819467B681B88A9
:100BC0001C467B68D88941F6A452C2F200020B464B
:100BD0004FEAC3035B1A4FEA83031B194FEA43032F
:100BE000D31802465A807B685B8819467B681B884D
:100BF0001C467B68188A41F6A452C2F200020B46DA
:100C00004FEAC3035B1A4FEA83031B1903F10D0379
:100C10004FEA4303D31802465A807B685B88194623
:100C20007B681B881C467B68988941F6A452C2F2F7
:100C300000020B464FEAC3035B1A4FEA83031B19FA
:100C400003F11A034FEA4303D31802465A807B6824
:100C50005B8819467B681B881C467B68188941F6AF
:100C6000A452C2F200020B464FEAC3035B1A4FEADA
:100C700083031B1903F127034FEA4303D3180246EA
:100C80005A807B685B8819467B681B881C467B689A
:100C9000588941F6A452C2F200020B464FEAC30340
:100CA0005B1A4FEA83031B1903F134034FEA430332
:100CB000D31802465A807B685B8819467B681B887C
:100CC000184641F6A452C2F200020B464FEAC30393
:100CD0005B1A4FEA83031B1803F141034FEA4303F6
:100CE000D3184FF480725A807B685B8819467B6802
:100CF0001B88184641F6A452C2F200020B464FEA86
:100D0000C3035B1A4FEA83031B1803F14E034FEA38
:100D10004303D3184FF400725A807B685B881946EE
:100D20007B681B88184641F6A452C2F200020B46AB
:100D30004FEAC3035B1A4FEA83031B1803F15B03FB
:100D40004FEA4303D3184FF440725A807B685B88A4
:100D500019467B681B88184641F6A452C2F200026D
:100D60000B464FEAC3035B1A4FEA83031B1803F1D8
:100D700068034FEA4303D3184FF480625A807B68BC
:100D80005B8819467B681B88184641F6A452C2F25C
:100D900000020B464FEAC3035B1A4FEA83031B189A
:100DA00003F175034FEA4303D3184FF4A0625A804E
:100DB0007B685B8819467B681B88184641F6A452FD
:100DC000C2F200020B464FEAC3035B1A4FEA8303E9
:100DD0001B1803F182034FEA4303D3184FF4C06298
:100DE0005A807B685B8819467B681B88184641F6E9
:100DF000A452C2F200020B464FEAC3035B1A4FEA49
:100E000083031B1803F18F034FEA4303D3184FF4F6
:100E1000E0625A807B685B8819467B681B881846AD
:100E200041F6A452C2F200020B464FEAC3035B1A1A
:100E30004FEA83031B1803F19C034FEA4303D318C3
:100E40004FF400625A807B7B03F105037B7397F9B3
:100E50000C300A2B02DD4FF00A033B733B7B03F19E
:100E6000FF33DBB2FB7342E297F90F303A68D318D5
:100E70001B782F2B40F2A38097F90F303A68D318D4
:100E80001B78392B00F29B8097F90F303A68D31802
:100E90001B78A3F1300245F66443C0F600039B18AB
:100EA000DB7FFB72FB7A23F06003FB7297F90F3054
:100EB0003A68D3181B78A3F1300245F66443C0F6B4
:100EC00000039B18DB7F4FEA4313DBB203F06003A0
:100ED000DAB2FB7A42EA0303DBB2FB72FB7A23F05D
:100EE0000303FB7297F90F303A68D3181B78A3F10C
:100EF000300245F66443C0F600039B18DB7F4FEADF
:100F00005313DBB2DBB203F00303DAB2FB7A42EA3B
:100F10000303DBB2FB727B685B881C46787B7B68D3
:100F20001B881E467B685B881D467A7B7B681B8816
:100F30009C4641F6A451C2F2000113464FEA430316
:100F40009B184FEA83039B182A464FEAC202521BA2
:100F50004FEA82029B1863444FEA4303CB185B8835
:100F60009AB2FB7A99B27B7BA3F104039BB24FEA5E
:100F700003239BB29BB241EA03039BB242EA030301
:100F80009BB29DB241F6A451C2F2000103464FEA62
:100F900043031B184FEA83031B1822464FEAC20281
:100FA000121B4FEA82029B189B194FEA4303CB188E
:100FB0002A465A807B7B03F101037B7393E197F907
:100FC0000F303A68D3181B782E2B40F0DD8097F94C
:100FD0000F2097F90C3003F1FF339A4280F293808F
:100FE00097F90F3003F101033A68D3181B782E2BC1
:100FF00048D17B685B881C467B7B03F101007B68E2
:101000001B881E467B685B881D467B7B03F10102C3
:101010007B681B889C4641F6A451C2F2000113462E
:101020004FEA43039B184FEA83039B182A464FEA73
:10103000C202521B4FEA82029B1863444FEA4303E9
:10104000CB185B8843F080039DB241F6A451C2F2F5
:10105000000103464FEA43031B184FEA83031B18A2
:1010600022464FEAC202121B4FEA82029B189B19CA
:101070004FEA4303CB182A465A807B7B03F10103D6
:101080007B7330E17B685B881C46787B7B681B88C0
:101090001E467B685B881D467A7B7B681B889C4666
:1010A00041F6A451C2F2000113464FEA43039B18D4
:1010B0004FEA83039B182A464FEAC202521B4FEAAB
:1010C00082029B1863444FEA4303CB185B8843F0CA
:1010D00080039DB241F6A451C2F2000103464FEADB
:1010E00043031B184FEA83031B1822464FEAC20230
:1010F000121B4FEA82029B189B194FEA4303CB183D
:101100002A465A80EFE07B685B881C46787B7B68C8
:101110001B881E467B685B881D467A7B7B681B8824
:101120009C4641F6A451C2F2000113464FEA430324
:101130009B184FEA83039B182A464FEAC202521BB0
:101140004FEA82029B1863444FEA4303CB185B8843
:1011500043F080039DB241F6A451C2F20001034660
:101160004FEA43031B184FEA83031B1822464FEA3A
:10117000C202121B4FEA82029B189B194FEA4303DB
:10118000CB182A465A80AEE04FF00A03BB739EE0AC
:1011900097F90F303A68D3181A7897F90E1045F678
:1011A0006443C0F600035B5C9A4240F08C8097F980
:1011B0000E2045F66443C0F600039B18DB7FBB722C
:1011C000BB7A23F06003BB7297F90E2045F66443A7
:1011D000C0F600039B18DB7F4FEA4313DBB203F03A
:1011E0006003DAB2BB7A42EA0303DBB2BB72BB7ABA
:1011F00023F00303BB7297F90E2045F66443C0F653
:1012000000039B18DB7F4FEA5313DBB2DBB203F022
:101210000303DAB2BB7A42EA0303DBB2BB727B6838
:101220005B881C46787B7B681B881E467B685B88D6
:101230001D467A7B7B681B889C4641F6A451C2F20E
:10124000000113464FEA43039B184FEA83039B18A0
:101250002A464FEAC202521B4FEA82029B1863449D
:101260004FEA4303CB185B889AB2BB7A99B27B7B77
:10127000A3F104039BB24FEA03239BB29BB241EA62
:1012800003039BB242EA03039BB29DB241F6A45111
:10129000C2F2000103464FEA43031B184FEA8303DF
:1012A0001B1822464FEAC202121B4FEA82029B1809
:1012B0009B194FEA4303CB182A465A807B7B03F1E4
:1012C00001037B7308E0BB7B03F10103BB7397F958
:1012D0000E301E2B7FF75CAF7A7B7B68DB8803F1D7
:1012E00005039A4209DCFB7B03F1FF33FB7397F99B
:1012F0000F30002BBFF6B8AD00E000BF7B7B184677
:1013000007F11407BD46F0BD80B487B000AFF860A8
:10131000B9601346FB714FF00003FB75FB681B8837
:10132000022B68D8BB681A78FB681A75BB6803F192
:1013300001031A78FB685A75BB6803F102031A7837
:10134000FB689A75BB6803F103031A78FB68DA75CA
:10135000FB79042B51D1FB685B7D1F2B07D9FB6800
:101360005B7DFF2B03D0FB684FF01F025A75FB68B3
:101370009B7D1F2B07D9FB689B7DFF2B03D0FB6850
:101380004FF01F029A75FB68DB7D1F2B07D9FB68A6
:10139000DB7DFF2B03D0FB684FF01F02DA75FB6883
:1013A0001B7D022B03D9FB684FF002021A75FB6804
:1013B0001B7D012B0CD0022B13D0002B1ED1FB6800
:1013C0004FF00002DA74FB684FF000021A7515E066
:1013D000FB684FF00102DA74FB684FF000021A75E7
:1013E0000CE0FB684FF00002DA74FB684FF001027A
:1013F0001A7500BF02E000BF00E000BF07F11C0744
:10140000BD4680BC704700BF80B58AB000AF786031
:1014100039604FF000037B624FF000033B624FF0F6
:101420000003FB614FF00003BB617B681B8A9BB22A
:101430007B627B6A23F440537B623B68DB887A6A79
:1014400042EA03037B627B6A9AB27B681A827B68FA
:101450009B899BB27B627B6A23F4B05323F00C031D
:101460007B623B689A883B681B8942EA03039AB215
:101470003B685B8942EA03039BB27A6A42EA030350
:101480007B627B6A9AB27B689A817B689B8A9BB2FB
:101490007B627B6A23F440737B623B689B897A6A38
:1014A00042EA03037B627B6A9AB27B689A8207F105
:1014B0000803184601F030FF7A684FF48053C4F2F5
:1014C00001039A4206D07A684FF4A053C4F2010394
:1014D0009A4202D17B693B6201E03B693B627B68D7
:1014E0009B899BB29BB21BB2002B0FDA3A6A134660
:1014F0004FEA83039B184FEA83029A183B681B68E4
:101500004FEA4303B2FBF3F3FB610EE03A6A134682
:101510004FEA83039B184FEA83029A183B681B68C3
:101520004FEA8303B2FBF3F3FB61FA6948F21F53FE
:10153000C5F2EB13A3FB02134FEA53134FEA031355
:101540007B627B6A4FEA13134FF0640202FB03F3E2
:10155000FA69D31ABB617B689B899BB29BB21BB2B1
:10156000002B13DABB694FEAC30303F1320248F2DE
:101570001F53C5F2EB13A3FB02134FEA531303F0FF
:1015800007037A6A42EA03037B6212E0BB694FEA0F
:10159000031303F1320248F21F53C5F2EB13A3FB0E
:1015A00002134FEA531303F00F037A6A42EA03036C
:1015B0007B627B6A9AB27B681A8107F12807BD4675
:1015C00080BD00BF80B483B000AF78600B46FB7075
:1015D000FB78002B08D07B689B899BB243F40053B7
:1015E0009AB27B689A8107E07B689B899BB223F45F
:1015F00000539AB27B689A8107F10C07BD4680BC04
:10160000704700BF80B487B000AF786013460A46C9
:101610007A807B704FF000033B614FF00003FB606A
:101620004FF00003BB604FF000037B617B687B6180
:101630007B88DBB24FEA5313DBB23B617B8803F05C
:101640001F03FB60FB684FF0010202FA03F3BB606B
:101650003B69012B04D17B6903F10C037B610BE037
:101660003B69022B04D17B6903F110037B6103E02A
:101670007B6903F114037B617B78002B07D07B69C6
:101680007A691168BA6841EA02021A6008E07B6967
:101690007A691168BA686FEA020201EA02021A6006
:1016A00007F11C07BD4680BC704700BF80B483B003
:1016B00000AF78600B467B807B886FEA03039AB2A9
:1016C0007B681A8007F10C07BD4680BC704700BFDD
:1016D00080B487B000AF78600B467B804FF000038A
:1016E000FB604FF000037B614FF00003BB604FF0E5
:1016F0000003FB747B88DBB24FEA5313DBB2BB60A1
:101700007B8803F01F037B617B694FF0010202FAC3
:1017100003F37B61BB68012B07D17B689B899BB27C
:101720007A6902EA03037B6111E0BB68022B07D1EF
:101730007B681B8A9BB27A6902EA03037B6106E03D
:101740007B689B8A9BB27A6902EA03037B617B8890
:101750004FEA13239BB2FB60FB684FF0010202FAD1
:1017600003F3FB607B681B889BB2FA6802EA030301
:10177000FB607B69002B06D0FB68002B03D04FF089
:101780000103FB7402E04FF00003FB74FB7C18467E
:1017900007F11C07BD4680BC704700BF80B485B010
:1017A00000AF78600B467B804FF00003FB814FF069
:1017B0000003BB817B884FEA1323FB81FB894FF039
:1017C000010202FA03F3BB81BB896FEA03039AB2F9
:1017D0007B681A8007F11407BD4680BC704700BFC4
:1017E00080B483B000AF0346FB714FF46143CEF287
:1017F000000397F907204FEA5212F97901F01F010F
:101800004FF0010000FA01F143F8221007F10C0734
:10181000BD4680BC704700BF80B500AF40F2740386
:10182000C2F200034FF000021A604FF49040C4F27D
:10183000000040F22551FFF74BFF0346002B00F05C
:10184000E6814FF49040C4F2000040F22551FFF7CA
:10185000A5FF4FF49043C4F200039B889BB2DAB219
:1018600040F24703C2F200031A7040F24803C2F28A
:1018700000031B78002B02D0012B73D0C7E140F28C
:101880004703C2F200031B783A2B06D141F68D5371
:10189000C2F200034FF000021A7041F68D53C2F2FB
:1018A00000031B78194640F24703C2F200031A787E
:1018B00041F6A453C2F200035B1883F82E2141F6CF
:1018C0008D53C2F200031B7803F10103DAB241F633
:1018D0008D53C2F200031A7041F68D53C2F2000319
:1018E0001B78012B40F28C8141F6A453C2F2000315
:1018F00093F82F311A4641F68D53C2F200031B783C
:10190000A3F102039A4240F07D814FF49040C4F26B
:10191000000040F225514FF00002FFF773FE41F640
:101920009C53C2F200031B6818464FF0000140F2BE
:101930007402C2F200024FF0000303F069FA40F2B1
:101940007403C2F200031B68002B00F05D8140F2BB
:101950007403C2F200031B68002B00F0578103F0F0
:101960002BFD54E140F24703C2F200031B78292B00
:101970002AD0D72B02D0002B7ED0ABE041F6885383
:10198000C2F200031A6841F68D53C2F200031B78BD
:10199000D21840F24703C2F200031B78137041F6DD
:1019A0008D53C2F200031B7803F10103DAB241F652
:1019B0008D53C2F200031A7041F6A153C2F2000324
:1019C0004FF001021A70B1E041F6A153C2F20003D8
:1019D0001B78012B2AD141F68853C2F200031B6801
:1019E0004FF000021A7041F68853C2F200031B68E0
:1019F00003F101034FF0D7021A7041F68853C2F287
:101A000000031B6803F102034FF029021A7041F62C
:101A1000A253C2F200034FF001021A7041F68D5337
:101A2000C2F200034FF003021A701DE041F6885322
:101A3000C2F200031A6841F68D53C2F200031B780C
:101A4000D21840F24703C2F200031B78137041F62C
:101A50008D53C2F200031B7803F10103DAB241F6A1
:101A60008D53C2F200031A7041F6A153C2F2000373
:101A70004FF000021A7059E041F6A153C2F2000380
:101A80001B78012B07D141F6A153C2F200034FF09E
:101A900000021A704AE041F68853C2F200031A6845
:101AA00041F68D53C2F200031B78D21840F247036F
:101AB000C2F200031B78137041F68D53C2F200038B
:101AC0001B7803F10103DAB241F68D53C2F2000331
:101AD0001A702BE041F6A253C2F200031B78002BD0
:101AE00024D041F68853C2F200031A6841F68D53A0
:101AF000C2F200031B78D21840F24703C2F200037F
:101B00001B78137041F68D53C2F200031B7803F16A
:101B10000103DAB241F68D53C2F200031A7041F6A6
:101B2000A153C2F200034FF000021A7041F68D5328
:101B3000C2F200031B78062B47D941F68D53C2F23F
:101B400000031B781A4640F27003C2F200031B78B0
:101B500003F106039A425AD14FF49040C4F20000B8
:101B600040F225514FF00002FFF74CFD41F69C5327
:101B7000C2F200031B6818464FF0000140F27402E5
:101B8000C2F200024FF0000303F042F940F2740386
:101B9000C2F200031B68002B08D040F27403C2F2AB
:101BA00000031B68002B01D003F006FC41F6A15393
:101BB000C2F200034FF000021A7041F6A253C2F2C3
:101BC00000034FF000021A7021E041F68D53C2F27B
:101BD00000031B78062B1AD141F68853C2F200038A
:101BE0001A6841F68D53C2F200031B7803F1FF33EC
:101BF000D3181A7840F27003C2F200031A7006E09C
:101C000000BF04E000BF02E000BF00E000BF4FF4EF
:101C10009040C4F2000040F22661FFF759FD0346F0
:101C2000002B00F0BF804FF49040C4F2000040F25F
:101C30002661FFF7B3FD41F68C53C2F200031A7818
:101C400041F69553C2F200031B789A426FD241F6D7
:101C50008C53C2F200031B78022B1ED84FF4904322
:101C6000C4F2000341F69852C2F20002116841F634
:101C70008C52C2F2000212788A1812789A8041F6C9
:101C80008C53C2F200031B7803F10103DAB241F670
:101C90008C53C2F200031A7084E041F6A153C2F2E1
:101CA00000031B78002B33D141F69853C2F2000396
:101CB0001A6841F68C53C2F200031B78D3181B78C4
:101CC000D72B06D141F6A153C2F200034FF0010217
:101CD0001A704FF49043C4F2000341F69852C2F2D6
:101CE0000002116841F68C52C2F2000212788A1882
:101CF00012789A8041F68C53C2F200031B7803F1EC
:101D00000103DAB241F68C53C2F200031A7049E0C3
:101D10004FF49043C4F200034FF000029A8041F662
:101D2000A153C2F200034FF000021A703AE041F6EC
:101D30008C53C2F200034FF000021A7041F68D532B
:101D4000C2F200034FF000021A7041F6A153C2F232
:101D500000034FF000021A704FF49040C4F20000EC
:101D600040F225514FF00102FFF74CFC4FF4806325
:101D7000C4F202034FF48062C4F20202528B92B2A8
:101D800042F0020292B25A834FF48063C4F202031B
:101D90004FF48062C4F20202528B92B242F004020B
:101DA00092B25A8340F27403C2F200031B68002B04
:101DB00001D003F001FB80BD80B58EB004AF0346B7
:101DC000FB714FF480204FF0010101F0BDFB4FF09B
:101DD00002004FF0010101F089FB4FF440633B62C8
:101DE0004FF0020387F824304FF0020387F82530C4
:101DF0004FF0000387F826304FF0010387F82730B3
:101E000007F120034FF48060C4F20200194602F08B
:101E1000F1FB4FF48060C4F202004FF00A014FF072
:101E2000070202F093FC4FF48060C4F202004FF00E
:101E30000B014FF0070202F089FC4FF461433B6154
:101E40004FF00003BB824FF00003FB824FF0000312
:101E50003B834FF00003BB834FF00C037B8307F100
:101E600010034FF49040C4F200001946FFF7CCFA7B
:101E70004FF006033B624FF0010387F824304FF028
:101E8000000387F826304FF0000387F827304FF023
:101E9000020387F8253007F120034FF48060C4F275
:101EA0000200194602F0A6FB4FF49040C4F2000075
:101EB0004FF45871FFF7FAFB4FF49040C4F2000062
:101EC00040F226614FF00102FFF79CFB4FF4904077
:101ED000C4F2000040F225514FF00102FFF792FBDF
:101EE0004FF49040C4F200004FF00101FFF76AFB8D
:101EF0004FF4407003F0BAFB4FF027033B734FF0F1
:101F00000E037B734FF00003BB734FF00103FB73B1
:101F100007F10C03184603F0BDFB4FF02700FFF755
:101F20005FFC4FF48063C4F202034FF48062C4F29A
:101F30000202528B92B242F0020292B25A834FF4E2
:101F40008063C4F202034FF48062C4F20202528B37
:101F500092B242F0040292B25A8341F6A053C2F206
:101F600000034FF000021A7041F69453C2F20003CE
:101F70004FF000021A7041F69853C2F200033C4A37
:101F80001A6041F68853C2F20003394A1A6003F01E
:101F9000B3FA41F68D53C2F200034FF000021A70FB
:101FA00041F68C53C2F200034FF000021A7041F662
:101FB0009553C2F200034FF000021A7041F6A1538C
:101FC000C2F200034FF000021A7041F6A253C2F2AF
:101FD00000034FF000021A70FB79002B44D145F644
:101FE000B063C0F600034FF0010200924FF0000210
:101FF00001924FF0000202924FF00002039242F66B
:102000004570C0F6000019464FF080024FF0000303
:1020100001F046FB41F69473C2F200034FF0000258
:102020001A774FF001004FF000014FF0030202F069
:10203000FBFD024641F69C53C2F200031A6041F6D2
:102040009C53C2F200031B68002B0DD041F69C5339
:10205000C2F200031B6818464FF000014FF0000267
:102060004FF0000302F028FE07F12807BD4680BDAF
:10207000121E002090B583B000AF4FF00003FB713B
:1020800041F69853C2F200031B684FF000021A7029
:1020900041F69853C2F200031B6803F101034FF0AD
:1020A000D7021A7041F69853C2F200031B6803F17D
:1020B00002034FF029021A7041F69853C2F200034E
:1020C0001B6803F1030240F24403C2F200031B78D1
:1020D000137041F69853C2F200031B6803F1040326
:1020E0004FF002021A7041F69853C2F200031B68C7
:1020F00003F1060240F24603C2F200031B7813709C
:102100004FF00003FB7123E0FB79132B10D841F64D
:102110009853C2F200031A68FB7903F10703D2183F
:10212000F97940F20003C2F200035B5C13700BE02C
:1021300041F69853C2F200031A68FB7903F10703D2
:10214000D3184FF000021A70FB7903F10103FB7101
:10215000FB79132BD8D94FF00003FB7116E0FB7904
:10216000072B0FD841F69853C2F200031A68FB7987
:1021700003F11B03D218F97940F23C03C2F20003C9
:102180005B5C1370FB7903F10103FB71FB79042B9A
:10219000E5D941F69853C2F200031B6803F120030E
:1021A0004FF002021A704FF00003FB7140E041F65D
:1021B0009853C2F200031A68FB794FEA430303F114
:1021C0002103D018F97941F6C472C2F200020B461D
:1021D0004FEAC3035B1A4FEA8303D3181B794FEA14
:1021E0000313DCB2F97941F6C472C2F200020B4665
:1021F0004FEAC3035B1A4FEA8303D3185B79DBB260
:10220000224642EA0303DBB2DBB2037041F6985385
:10221000C2F200031A68FB7903F111034FEA43038A
:10222000D3184FF000021A70FB7903F10103FB7120
:10223000FB79012BBBD94FF00003FB7113E041F692
:102240009853C2F200031A68FB7903F12503D218F0
:10225000F97940F21403C2F200035B5C1370FB795E
:1022600003F10103FB7140F24503C2F200031B7846
:10227000FA799A42E3D341F69853C2F200031B68FD
:1022800003F1050240F24503C2F200031B7803F19B
:102290002003DBB2137041F69853C2F200031A68B0
:1022A00040F24503C2F200031B7803F12503D41862
:1022B00041F69853C2F200031B6803F1010240F299
:1022C0004503C2F200031B7803F12403DBB210467E
:1022D000194600F053FF0346237040F24503C2F253
:1022E00000031B7803F12603DBB2184607F10C0745
:1022F000BD4690BD80B400AF4FF000031846BD4608
:1023000080BC704780B400AF4FF000031846BD4654
:1023100080BC704780B400AF4FF000031846BD4644
:1023200080BC704780B582B000AF4FF00003FB71F6
:102330004FF000037B714FF000033B714FF000033F
:10234000BB7181E041F68853C2F200031A68FB7941
:1023500003F10603D3181B78012B6FD841F688537D
:10236000C2F200031A68FB7903F10703D3181B7844
:102370004FEA1313DBB203F00F03042B02D0082B38
:102380001DD061E041F68853C2F200031A68FB7960
:1023900003F10703D3181B7803F00F03012B04D0BC
:1023A000022B07D0002B07D04EE0FB7903F103038B
:1023B000FB7102E000BF00E000BF00BF44E04FF04F
:1023C0000003BB7119E0B97941F68853C2F20003EA
:1023D0001A68FB7903F10800BB79C31803F1010304
:1023E000D3181A7841F6A453C2F200035B1883F89D
:1023F0002E21BB7903F10103BB7141F68853C2F270
:1024000000031A68FB7903F10803D3181B78BA7923
:102410009A42D8D31848FDF7B7FE41F68853C2F266
:1024200000031A68FB7903F10803D3181A78FB79C3
:10243000D318DBB203F10303FB7105E04FF0010099
:1024400000F042FC034612E0FA7941F68853C2F2EA
:1024500000031B6803F105031B7803F1FF339A4265
:10246000FFF670AF4FF0000000F02EFC0346184658
:1024700007F10807BD4680BDD21E002080B400AF22
:102480004FF000031846BD4680BC704780B400AFD3
:102490004FF000031846BD4680BC704780B400AFC3
:1024A0004FF000031846BD4680BC704780B400AFB3
:1024B0004FF000031846BD4680BC704780B500AFA2
:1024C00040F24603C2F200034FF040021A704FF090
:1024D000000000F0F9FB0346184680BD90B583B0BC
:1024E00000AF4FF00003FB714FF00003BB7141F6EA
:1024F0009853C2F200031B684FF000021A7041F6B5
:102500009853C2F200031B6803F101034FF0D70296
:102510001A7041F69853C2F200031B6803F10203DC
:102520004FF029021A7041F69853C2F200031B685B
:1025300003F1030240F24403C2F200031B7813705C
:1025400041F69853C2F200031B6803F104034FF0F5
:1025500015021A7041F69853C2F200031B6803F18A
:10256000060240F24603C2F200031B7813704FF0DC
:102570000003BB7175E341F69853C2F200031A6879
:10258000FB7903F10703D318BA791A70FB7903F1C9
:102590000103FB7141F69853C2F200031A68FB79FC
:1025A00003F10703D018B97941F6C472C2F20002F0
:1025B0000B464FEAC3035B1A4FEA8303D3181B7918
:1025C0004FEA0313DCB2B97941F6C472C2F20002D9
:1025D0000B464FEAC3035B1A4FEA8303D3185B79B8
:1025E000DBB2224642EA0303DBB2DBB20370FB79C3
:1025F00003F10103FB71B97941F6C472C2F2000222
:102600000B464FEAC3035B1A4FEA8303D3181B79C7
:10261000012B00F00282022B00F0AE82002B40F072
:102620001C83B97941F6C472C2F200020B464FEA2C
:10263000C3035B1A4FEA8303D3185B79032B00F2C1
:10264000078301A252F823F059260008FB2700084F
:10265000FD270008FF270008B97941F6C472C2F2CD
:1026600000020B464FEAC3035B1A4FEA8303D318F9
:1026700003F110031B78002B44D041F69853C2F2AB
:1026800000031A68FB7903F10703D018B97941F602
:10269000C472C2F200020B464FEAC3035B1A4FEA50
:1026A0008303D31803F10C031B6803F47F434FEA41
:1026B0001323DBB20370FB7903F10103FB7141F6D5
:1026C0009853C2F200031A68FB7903F10703D0188C
:1026D000B97941F6C472C2F200020B464FEAC30355
:1026E0005B1A4FEA8303D31803F10C031B6803F44E
:1026F0007F034FEA1343DBB20370FB7903F101035D
:10270000FB7143E041F69853C2F200031A68FB796B
:1027100003F10703D018B97941F6C472C2F200027E
:102720000B464FEAC3035B1A4FEA8303D31803F146
:1027300008031B6803F47F434FEA1323DBB20370E3
:10274000FB7903F10103FB7141F69853C2F20003D8
:102750001A68FB7903F10703D018B97941F6C472FE
:10276000C2F200020B464FEAC3035B1A4FEA83032F
:10277000D31803F108031B6803F47F034FEA1343E4
:10278000DBB20370FB7903F10103FB7141F698534F
:10279000C2F200031A68FB7903F10703D018B97974
:1027A00041F6C472C2F200020B464FEAC3035B1A41
:1027B0004FEA8303D3189B790370FB7903F101037C
:1027C000FB7141F69853C2F200031A68FB7903F1DA
:1027D0000703D018B97941F6C472C2F200020B4661
:1027E0004FEAC3035B1A4FEA8303D318DB79037004
:1027F000FB7903F10103FB710EE10DE10CE1B97905
:1028000041F6C472C2F200020B464FEAC3035B1AE0
:102810004FEA8303D31803F110031B78002B62D017
:1028200041F69853C2F200031A68FB7903F10703DB
:10283000D018B97941F6C472C2F200020B464FEAD1
:10284000C3035B1A4FEA8303D31803F10C031B681D
:10285000DBB20370FB7903F10103FB7141F698537E
:10286000C2F200031A68FB7903F10703D018B979A3
:1028700041F6C472C2F200020B464FEAC3035B1A70
:102880004FEA8303D31803F10C031B6803F47F435F
:102890004FEA1323DBB20370FB7903F10103FB71F1
:1028A00041F69853C2F200031A68FB7903F107035B
:1028B000D018B97941F6C472C2F200020B464FEA51
:1028C000C3035B1A4FEA8303D31803F10C031B689D
:1028D00003F47F034FEA1343DBB20370FB7903F188
:1028E0000103FB7161E041F69853C2F200031A68DC
:1028F000FB7903F10703D018B97941F6C472C2F22B
:1029000000020B464FEAC3035B1A4FEA8303D31856
:1029100003F108031B68DBB20370FB7903F10103C9
:10292000FB7141F69853C2F200031A68FB7903F178
:102930000703D018B97941F6C472C2F200020B46FF
:102940004FEAC3035B1A4FEA8303D31803F108036A
:102950001B6803F47F434FEA1323DBB20370FB7958
:1029600003F10103FB7141F69853C2F200031A68A8
:10297000FB7903F10703D018B97941F6C472C2F2AA
:1029800000020B464FEAC3035B1A4FEA8303D318D6
:1029900003F108031B6803F47F034FEA1343DBB220
:1029A0000370FB7903F10103FB7141F69853C2F206
:1029B00000031A68FB7903F10703D018B97941F6CF
:1029C000C472C2F200020B464FEAC3035B1A4FEA1D
:1029D0008303D3189B790370FB7903F10103FB7127
:1029E00041F69853C2F200031A68FB7903F107031A
:1029F000D018B97941F6C472C2F200020B464FEA10
:102A0000C3035B1A4FEA8303D318DB790370FB79A6
:102A100003F10103FB7100BF1FE1B97941F6C472F4
:102A2000C2F200020B464FEAC3035B1A4FEA83036C
:102A3000D3185B79002B40F00D8141F69853C2F218
:102A400000031A68FB7903F10703D018B97941F63E
:102A5000C472C2F200020B464FEAC3035B1A4FEA8C
:102A60008303D31803F108031B68DBB20370FB79FF
:102A700003F10103FB7141F69853C2F200031A6897
:102A8000FB7903F10703D018B97941F6C472C2F299
:102A900000020B464FEAC3035B1A4FEA8303D318C5
:102AA00003F108031B6803F47F434FEA1323DBB2EF
:102AB0000370FB7903F10103FB7141F69853C2F2F5
:102AC00000031A68FB7903F10703D018B97941F6BE
:102AD000C472C2F200020B464FEAC3035B1A4FEA0C
:102AE0008303D31803F108031B6803F47F034FEA41
:102AF0001343DBB20370FB7903F10103FB7141F671
:102B00009853C2F200031A68FB7903F10703D01847
:102B1000B97941F6C472C2F200020B464FEAC30310
:102B20005B1A4FEA8303D31803F108031B684FEACB
:102B30001363DBB20370FB7903F10103FB7141F610
:102B40009853C2F200031A68FB7903F10703D01807
:102B5000B97941F6C472C2F200020B464FEAC303D0
:102B60005B1A4FEA8303D3189B790370FB7903F157
:102B70000103FB7100BF70E0B97941F6C472C2F283
:102B800000020B464FEAC3035B1A4FEA8303D318D4
:102B90005B79012B60D141F69853C2F200031A68A9
:102BA000FB7903F10703D018B97941F6C472C2F278
:102BB00000020B464FEAC3035B1A4FEA8303D318A4
:102BC00003F108031B68DBB20370FB7903F1010317
:102BD000FB7141F69853C2F200031A68FB7903F1C6
:102BE0000703D018B97941F6C472C2F200020B464D
:102BF0004FEAC3035B1A4FEA8303D31803F10803B8
:102C00001B6803F47F434FEA1323DBB20370FB79A5
:102C100003F10103FB7141F69853C2F200031A68F5
:102C2000FB7903F10703D018B97941F6C472C2F2F7
:102C300000020B464FEAC3035B1A4FEA8303D31823
:102C40009B790370FB7903F10103FB7100BF04E082
:102C500000BF02E000BF00E000BFBB7903F1010349
:102C6000BB71BB79012B7FF686AC41F69853C2F25B
:102C700000031B6803F10503FA7902F10202D2B2E4
:102C80001A7041F69853C2F200031A68FB7903F1F7
:102C90000703D41841F69853C2F200031B6803F1EE
:102CA0000102FB7903F10603DBB21046194600F07E
:102CB00065FA03462370FB7903F10803DBB218467B
:102CC00007F10C07BD4690BD90B583B000AF034639
:102CD000FB7141F69853C2F200031B684FF00002EB
:102CE0001A7041F69853C2F200031B6803F1010306
:102CF0004FF0D7021A7041F69853C2F200031B68D6
:102D000003F102034FF029021A7041F69853C2F200
:102D100000031B6803F1030240F24403C2F2000304
:102D20001B78137041F69853C2F200031B6803F13D
:102D3000070241F68853C2F200031B6803F1040343
:102D40001B78137041F69853C2F200031B6803F11D
:102D500004034FF0FF021A7041F69853C2F20003C9
:102D60001B6803F1060240F24603C2F200031B781F
:102D7000137041F69853C2F200031B6803F1080375
:102D8000FA791A7041F69853C2F200031B6803F1F6
:102D900005034FF004021A7041F69853C2F2000383
:102DA0001B6803F1090441F69853C2F200031B6843
:102DB00018464FF0090100F0E1F9034623704FF087
:102DC0000A03184607F10C07BD4690BD80B500AF59
:102DD00041F68853C2F200031B6803F104031B7819
:102DE00003F1FF33132B00F2998001A252F823F074
:102DF000412E00081D2F0008552E00081D2F000829
:102E0000692E00081D2F00087D2E00081D2F0008C8
:102E1000912E0008A52E00081D2F0008B92E0008CD
:102E20001D2F0008CD2E00081D2F0008E12E0008E0
:102E30001D2F0008F52E00081D2F0008092F00087F
:102E4000FFF718F903461A4641F69553C2F20003FC
:102E50001A7075E0FFF74EFA03461A4641F695538D
:102E6000C2F200031A706BE0FFF74CFA03461A46F1
:102E700041F69553C2F200031A7061E0FFF74AFA77
:102E800003461A4641F69553C2F200031A7057E002
:102E9000FFF748FA03461A4641F69553C2F200037B
:102EA0001A704DE0FFF7EAFA03461A4641F69553C9
:102EB000C2F200031A7043E0FFF7E8FA03461A462D
:102EC00041F69553C2F200031A7039E0FFF7E6FAB3
:102ED00003461A4641F69553C2F200031A702FE0DA
:102EE000FFF7E4FA03461A4641F69553C2F200038F
:102EF0001A7025E0FFF7E2FA03461A4641F69553A9
:102F0000C2F200031A701BE0FFF7E8FA03461A4604
:102F100041F69553C2F200031A7011E041F6945342
:102F2000C2F200034FF001021A704FF00600FFF7E3
:102F3000CBFE03461A4641F69553C2F200031A70BF
:102F400080BD00BF80B584B000AF786041F6947357
:102F5000C2F200034FF001021A7741F69473C2F2F5
:102F600000034FF001021A7741F69C53C2F20003AE
:102F70001B68002B00F0F78041F69C53C2F200035F
:102F80001B6818464FF0000142F210724FF0000328
:102F900001F0A4FF0346012B40F0D18041F6947369
:102FA000C2F200034FF000021A7740F24803C2F267
:102FB00000031B78002B02D0012B15D0B2E06E4825
:102FC000FDF7E2F841F68D53C2F200034FF0000224
:102FD0001A704FF49040C4F2000040F225514FF0B7
:102FE0000102FEF70FFB9DE041F68853C2F2000399
:102FF0001A6841F68D53C2F200031B7803F1FF33C8
:10300000D3181B78FB7341F68C53C2F200034FF0C8
:1030100000021A7041F68853C2F200031A6841F6A2
:103020008D53C2F200031B7803F1FF33DBB210466D
:10303000194600F0A3F80346FA7B9A4260D141F6A4
:103040008853C2F200031B6803F103031A7840F2AD
:103050004403C2F200031B789A4251D1FFF7B6FE37
:1030600041F68C53C2F200034FF000021A7041F691
:103070008D53C2F200034FF000021A7041F6A153C3
:10308000C2F200034FF000021A704FF48063C4F2E2
:1030900002034FF48062C4F20202128B92B242F039
:1030A000020292B21A834FF48063C4F202034FF417
:1030B0008062C4F20202128B92B242F0040292B217
:1030C0001A834FF49043C4F2000341F69852C2F2BF
:1030D0000002116841F68C52C2F2000212788A187E
:1030E00012789A8041F68C53C2F200031B7803F1E8
:1030F0000103DAB241F68C53C2F200031A7011E0F8
:1031000041F6A053C2F200034FF001021A704FF4CF
:103110009040C4F2000040F225514FF00102FEF74A
:1031200071FA00BF41F69473C2F200039B6903F188
:10313000010241F69473C2F200039A6113E045F66E
:10314000B050C0F60000FDF71FF84FF0C80000F0C7
:10315000F7FB45F6B040C0F60000FDF715F84FF05C
:103160000100FEF729FE41F69473C2F200034FF00E
:1031700001021A77F1E600BFD21E002080B487B0AA
:1031800000AF78600B46FB704FF00003FB757B6867
:103190003B61FB78FB732BE03B691A78FB7D82EA8D
:1031A0000303FB753B6903F101033B61FB7D03F006
:1031B0000103DBB2002B02D04FF0800301E04FF09F
:1031C0000003FA7D4FEA5202D2B2D1B21A460B4640
:1031D00042EA0303DBB2FB75FB7D5BB2002B03DA33
:1031E000FB7D83F03C03FB75FB7B03F1FF33FB733B
:1031F000FB7B002BD0D1FB7D184607F11C07BD4699
:1032000080BC704780B582B000AF45F6DC63C0F685
:1032100000037B6040F20003C2F200033B600BE05E
:103220007B681A683B681A603B6803F104033B60E3
:103230007B6803F104037B603A6840F26C03C2F2DE
:1032400000039A42ECD30A480A494FF00002884230
:10325000B8BF40F8042BFADBDFF81C00016841F42A
:103260007001016000F01EF807F10807BD4680BD3F
:1032700070000020FC1F002088ED00E080B400AF4B
:10328000FEE700BF80B582B000AF78604FF000006D
:10329000FEF792FD4FF0000000F0F2FA07F1080788
:1032A000BD4680BD80B584B004AF01F069FB45F632
:1032B000B863C0F600034FF0010200924FF0000225
:1032C00001924FF0000202924FF00002039243F28B
:1032D0008520C0F6000019464FF080024FF0000331
:1032E00000F0DEF900F05AFBFEE700BF80B400AF4B
:1032F000FEE700BF80B483B000AF78603960FEE7BE
:1033000080B582B000AF02F095FA03467B607B681F
:1033100007F10807BD4680BD80B489B000AF786072
:103320004FF00003BB614FF000037B614FF00003DF
:10333000FB614FF002033B614FF00003FB604FF075
:103340000203BB604FF46053C4F202039B6803F0B6
:103350000C03BB61BB69042B0AD0082B0FD0002BD8
:1033600064D17A684FF41053C0F2F403136064E040
:103370007A684FF49053C0F27A0313605DE04FF423
:103380006053C4F202035B6803F480034FEA935373
:10339000FB604FF46053C4F202035B6803F03F0329
:1033A000BB60FB68002B16D04FF49053C0F27A0339
:1033B000BA68B3FBF2F24FF46053C4F202035B68E5
:1033C000194647F6C07301EA03034FEA931303FB60
:1033D00002F3FB6115E04FF41053C0F2F403BA6836
:1033E000B3FBF2F24FF46053C4F202035B68194678
:1033F00047F6C07301EA03034FEA931303FB02F39A
:10340000FB614FF46053C4F202035B6803F4403382
:103410004FEA134303F101034FEA43033B61FA69A7
:103420003B69B2FBF3F27B681A6006E07A684FF4FE
:103430001053C0F2F403136000BF4FF46053C4F2A2
:1034400002039B6803F0F003BB61BB694FEA1313EF
:10345000BB6140F24C03C2F20003BA699B181B78AF
:10346000DBB27B617B681A687B6922FA03F27B68B6
:103470005A604FF46053C4F202039B6803F4E053B4
:10348000BB61BB694FEA9323BB6140F24C03C2F2BC
:103490000003BA699B181B78DBB27B617B685A68B2
:1034A0007B6922FA03F27B689A604FF46053C4F29E
:1034B00002039B6803F46043BB61BB694FEA53336B
:1034C000BB6140F24C03C2F20003BA699B181B783F
:1034D000DBB27B617B685A687B6922FA03F27B6806
:1034E000DA6007F12407BD4680BC704780B483B022
:1034F00000AF78600B46FB70FB78002B0ED04FF4CA
:103500006053C4F202034FF46052C4F20202126B21
:1035100011467A6841EA02021A630FE04FF46053E1
:10352000C4F202034FF46052C4F20202126B11465D
:103530007A686FEA020201EA02021A6307F10C07D5
:10354000BD4680BC704700BF80B483B000AF7860D8
:103550000B46FB70FB78002B0ED04FF46053C4F287
:1035600002034FF46052C4F20202126C11467A68F0
:1035700041EA02021A640FE04FF46053C4F20203FE
:103580004FF46052C4F20202126C11467A686FEA7C
:10359000020201EA02021A6407F10C07BD4680BC70
:1035A000704700BF80B500AF4FF48060C4F20000E8
:1035B0004FF0010102F04CF90346002B2AD04FF4E2
:1035C0008060C4F200004FF0010102F073F94FF483
:1035D0008063C4F200031B889BB203F01003002B2E
:1035E0000CD040F25C03C2F200031B68A3F58032EA
:1035F00040F25C03C2F200031A600BE040F25C038D
:10360000C2F200031B6803F5803240F25C03C2F291
:1036100000031A6080BD00BF80B500AF4FF000000E
:10362000C4F201004FF0010102F012F90346002B31
:1036300035D04FF00000C4F201004FF0010102F05C
:1036400039F94FF00003C4F201031B889BB203F069
:103650001003002B0CD040F26003C2F200031B6881
:1036600003F1FF3240F26003C2F200031A600BE084
:1036700040F26003C2F200031B6803F1010240F252
:103680006003C2F200031A604FF00003C4F20103AA
:103690005B6A1A4640F27803C2F200031A6080BDEA
:1036A00080B58AB002AFF860B9603B601346FB801A
:1036B000FB68002B04D14FF0500080F31188FEE727
:1036C000BB6A042B04D94FF0500080F31188FEE749
:1036D000FB881846396B00F077FEB861BB69002B98
:1036E00000F0B080BB691A6BFB8803F1FF334FEA2F
:1036F0008303D3187B617B6923F007037B617B69BC
:1037000003F00703002B04D04FF0500080F3118822
:10371000FEE7FB880093B869B968BA6A7B6B00F072
:1037200031FD7869F9683A6801F0BEFD03461A4632
:10373000BB691A60FB6A002B02D0FB6ABA691A6087
:1037400001F046FE40F25413C2F200031B6803F17D
:10375000010240F25413C2F200031A6040F27C03EB
:10376000C2F200031B68002B0FD140F27C03C2F2AF
:103770000003BA691A6040F25413C2F200031B68D6
:10378000012B18D100F03CFD15E040F26413C2F2A9
:1037900000031B68002B0ED140F27C03C2F2000331
:1037A0001B68DA6ABB6A9A4205D840F27C03C2F20F
:1037B0000003BA691A60BB69DA6A40F25C13C2F2AC
:1037C00000031B689A4206D9BB69DA6A40F25C13AF
:1037D000C2F200031A6040F27813C2F200031B68C1
:1037E00003F1010240F27813C2F200031A60BB69D0
:1037F000DA6A40F26013C2F200031B689A4206D9EB
:10380000BB69DA6A40F26013C2F200031A60BB6956
:10381000DA6A13464FEA83039B184FEA83031A467A
:1038200040F28003C2F20003D218BB6903F1040323
:103830001046194601F014F84FF00103FB6101F046
:10384000DDFD02E04FF0FF33FB61FB69012B11D17D
:1038500040F26413C2F200031B68002B0AD040F24E
:103860007C03C2F200031B68DA6ABB6A9A4201D287
:1038700001F0A2FDFB69184607F12007BD4680BD97
:1038800080B584B000AF786001F0A2FD40F27C0307
:10389000C2F200031B687A689A4202D14FF000031B
:1038A0007B607B68002B05D140F27C03C2F20003F1
:1038B0001B6800E07B68FB60FB6803F104031846AB
:1038C00001F034F8FB689B6A002B05D0FB6803F11C
:1038D0001803184601F02AF8FB6803F1040340F2CC
:1038E0002810C2F20000194600F0BAFF40F23C1363
:1038F000C2F200031B6803F1010240F23C13C2F262
:1039000000031A6040F27813C2F200031B6803F14F
:10391000010240F27813C2F200031A6001F06EFD5A
:1039200040F26413C2F200031B68002B04D07B68D2
:10393000002B01D101F040FD07F11007BD4680BD0D
:1039400080B584B000AF78604FF00003FB607B6807
:10395000002B19D000F064F840F25813C2F20003B3
:103960001A687B68D318BB6040F27C03C2F2000384
:103970001B6803F10403184600F0D8FFB86800F094
:10398000DDFC00F05FF8F860FB68002B01D101F06E
:1039900013FD07F11007BD4680BD00BF80B586B09E
:1039A00004AF45F6C063C0F600034FF0000200927A
:1039B0004FF0000201924FF0000202924FF000021D
:1039C000039244F26110C0F6000019464FF046021F
:1039D0004FF00003FFF764FE78607B68012B13D182
:1039E0004FF0500080F3118840F26413C2F20003DC
:1039F0004FF001021A6040F25813C2F200034FF078
:103A000000021A6001F0A0FC7B68002B04D14FF08B
:103A1000500080F31188FEE707F10807BD4680BD1E
:103A200080B400AF40F26813C2F200031B6803F1D8
:103A3000010240F26813C2F200031A60BD4680BC66
:103A4000704700BF90B583B000AF4FF000037B60BC
:103A500040F26813C2F200031B68002B04D14FF040
:103A6000500080F31188FEE701F0B2FC40F26813C9
:103A7000C2F200031B6803F1FF3240F26813C2F286
:103A800000031A6040F26813C2F200031B68002BA7
:103A900040F0868040F25413C2F200031B68002BF2
:103AA0007ED04FF000033B603DE040F21413C2F2C1
:103AB0000003DB68DB681C4604F11803184600F0BD
:103AC00035FF04F10403184600F030FFE26A40F2CB
:103AD0006013C2F200031B689A4205D9E26A40F201
:103AE0006013C2F200031A60E26A13464FEA8303CE
:103AF0009B184FEA83031A4640F28003C2F2000388
:103B0000D21804F104031046194600F0A9FEE26A37
:103B100040F27C03C2F200031B68DB6A9A4202D3C4
:103B20004FF001033B6040F21413C2F200031B6824
:103B3000002BBAD140F26C13C2F200031B68002BB9
:103B400018D00DE000F034F840F26C13C2F200031C
:103B50001B6803F1FF3240F26C13C2F200031A60DB
:103B600040F26C13C2F200031B68002BEAD14FF045
:103B700001033B603B68012B06D040F27013C2F298
:103B800000031B68012B0BD14FF001037B6040F257
:103B90007013C2F200034FF000021A6001F00CFC37
:103BA00001F02CFC7B68184607F10C07BD4690BD60
:103BB00080B584B000AF40F26813C2F200031B6806
:103BC000002B40F0CD8040F25813C2F200031B6876
:103BD00003F1010240F25813C2F200031A6040F2EE
:103BE0005813C2F200031B68002B4DD140F20C1396
:103BF000C2F200031B681B68002B04D04FF050007A
:103C000080F31188FEE740F20C13C2F200031B6838
:103C1000FB6040F21013C2F200031A6840F20C136A
:103C2000C2F200031A6040F21013C2F20003FA68F5
:103C30001A6040F27413C2F200031B6803F1010220
:103C400040F27413C2F200031A6040F20C13C2F285
:103C500000031B681B68002B07D140F26403C2F20B
:103C600000034FF0FF321A600EE040F20C13C2F274
:103C700000031B68DB68DB68BB60BB685A6840F206
:103C80006403C2F200031A6040F25813C2F2000348
:103C90001A6840F26403C2F200031B689A426BD3B5
:103CA00040F20C13C2F200031B681B68002B07D103
:103CB00040F26403C2F200034FF0FF321A605BE08F
:103CC00040F20C13C2F200031B68DB68DB68BB60C8
:103CD000BB685B687B6040F25813C2F200031A684D
:103CE0007B689A4206D240F26403C2F200037A680B
:103CF0001A6041E0BB6803F10403184600F016FEA9
:103D0000BB689B6A002B05D0BB6803F118031846FB
:103D100000F00CFEBB68DA6A40F26013C2F20003E6
:103D20001B689A4206D9BB68DA6A40F26013C2F295
:103D300000031A60BB68DA6A13464FEA83039B18D4
:103D40004FEA83031A4640F28003C2F20003D218FE
:103D5000BB6803F104031046194600F081FD9FE79C
:103D600040F26C13C2F200031B6803F1010240F23F
:103D70006C13C2F200031A6007F11007BD4680BD44
:103D800080B582B000AF40F26813C2F200031B6836
:103D9000002B07D040F27013C2F200034FF0010273
:103DA0001A609CE040F27C03C2F200031B681A68B0
:103DB00040F27C03C2F200031B681B6B9A420FD8CF
:103DC00040F27C03C2F200031A6840F27C03C2F2A4
:103DD00000031B6803F1340310461946FFF78AFA03
:103DE00040F27C03C2F200031B681B6B184645F6C9
:103DF000C861C0F600014FF0140201F097FD0346C0
:103E0000002B29D040F27C03C2F200031A6840F272
:103E10007C03C2F200031B6803F134031046194609
:103E2000FFF768FA19E040F26013C2F200031B6862
:103E3000002B04D14FF0500080F31188FEE740F2D0
:103E40006013C2F200031B6803F1FF3240F26013FB
:103E5000C2F200031A6000E000BF40F26013C2F239
:103E600000031A6813464FEA83039B184FEA830343
:103E70001A4640F28003C2F20003D3181B68002BDD
:103E8000D1D040F26013C2F200031A6813464FEA21
:103E900083039B184FEA83031A4640F28003C2F261
:103EA0000003D3187B607B685B685B681A467B689D
:103EB0005A607B685A687B6803F108039A4205D10F
:103EC0007B685B685B681A467B685A607B685B68E6
:103ED000DB681A4640F27C03C2F200031A6007F165
:103EE0000807BD4680BD00BF80B584B000AF7860D4
:103EF00039607B68002B04D14FF0500080F31188AB
:103F0000FEE740F27C03C2F200031B6803F11803D2
:103F10007868194600F0CEFC40F27C03C2F2000340
:103F20001B6803F10403184600F000FD3B68B3F181
:103F3000FF3F0ED140F27C03C2F200031B6803F185
:103F4000040340F24010C2F20000194600F088FC61
:103F50000AE040F25813C2F200031A683B68D31813
:103F6000FB60F86800F0EAF907F11007BD4680BD74
:103F700080B584B000AF78607B68DB68DB68BB60CD
:103F8000BB68002B04D14FF0500080F31188FEE78E
:103F9000BB6803F11803184600F0C8FC40F2681330
:103FA000C2F200031B68002B2BD1BB6803F1040392
:103FB000184600F0BBFCBB68DA6A40F26013C2F23C
:103FC00000031B689A4206D9BB68DA6A40F26013A4
:103FD000C2F200031A60BB68DA6A13464FEA830331
:103FE0009B184FEA83031A4640F28003C2F2000393
:103FF000D218BB6803F104031046194600F030FCE8
:1040000009E0BB6803F1180340F21410C2F200008B
:10401000194600F025FCBB68DA6A40F27C03C2F264
:1040200000031B68DB6A9A4203D34FF00103FB6075
:1040300002E04FF00003FB60FB68184607F1100731
:10404000BD4680BD80B483B000AF78607B68002B34
:1040500004D14FF0500080F31188FEE740F2741352
:10406000C2F200031A687B681A6040F25813C2F269
:1040700000031A687B685A6007F10C07BD4680BCD4
:10408000704700BF80B584B000AF786039607B684E
:10409000002B04D14FF0500080F31188FEE73B68FD
:1040A000002B04D14FF0500080F31188FEE701F09F
:1040B0008FF93B681B68B3F1FF3F03D14FF000035A
:1040C000FB6038E07B681A6840F27413C2F20003A8
:1040D0001B689A420CD07B685A6840F25813C2F2AF
:1040E00000031B689A4203D84FF00103FB6022E0F3
:1040F00040F25813C2F200031A687B685B68D21A58
:104100003B681B689A4213D23B681A687B685968FF
:1041100040F25813C2F200031B68CB1AD2183B6856
:104120001A607868FFF78EFF4FF00003FB6002E033
:104130004FF00103FB6001F061F9FB68184607F1DD
:104140001007BD4680BD00BF80B400AF40F27013C1
:10415000C2F200034FF001021A60BD4680BC7047F6
:1041600080B582B000AF786000F09CF840F2800328
:10417000C2F200031B68012B01D901F01DF9FFF702
:10418000BFF8F1E780B584B000AFF860B9607A603D
:104190003B60FB6803F134031A46BB6810461946BE
:1041A0004FF00A0201F020FDFB684FF0000283F897
:1041B0003D207B68042B02D94FF004037B60FB6831
:1041C0007A68DA62FB687A681A64FB6803F10403B0
:1041D000184600F037FBFB6803F11803184600F09F
:1041E00031FBFB68FA681A617B68C3F10502FB6862
:1041F0009A61FB68FA685A6207F11007BD4680BDF4
:1042000080B582B000AF4FF000037B6013E07A68A6
:1042100013464FEA83039B184FEA83031A4640F282
:104220008003C2F20003D318184600F0E7FA7B6857
:1042300003F101037B607B68042BE8D940F2E400C2
:10424000C2F2000000F0DAFA40F2F800C2F2000018
:1042500000F0D4FA40F21410C2F2000000F0CEFADE
:1042600040F22810C2F2000000F0C8FA40F24010FC
:10427000C2F2000000F0C2FA40F20C13C2F20003D6
:1042800040F2E402C2F200021A6040F21013C2F2DD
:10429000000340F2F802C2F200021A6007F10807B8
:1042A000BD4680BD80B582B000AF40F23C13C2F283
:1042B00000031B68002B3CD0FFF7B2FB40F2281331
:1042C000C2F200031B68002B14BF002301237B6094
:1042D000FFF7B8FB7B68002B2BD101F079F840F297
:1042E0002813C2F20003DB68DB683B603B6803F124
:1042F0000403184600F01AFB40F25413C2F2000304
:104300001B6803F1FF3240F25413C2F200031A603B
:1043100040F23C13C2F200031B6803F1FF3240F28B
:104320003C13C2F200031A6001F068F8386800F02C
:1043300085F807F10807BD4680BD00BF80B582B093
:1043400000AF786040F27C03C2F200031B687A6819
:104350005A6040F25813C2F200031B687A689A420E
:1043600010D240F21013C2F200031A6840F27C032C
:10437000C2F200031B6803F104031046194600F063
:1043800099FA1DE040F20C13C2F200031A6840F2E1
:104390007C03C2F200031B6803F1040310461946B4
:1043A00000F088FA40F26403C2F200031B687A68E6
:1043B0009A4205D240F26403C2F200037A681A609E
:1043C00007F10807BD4680BD80B584B000AF034645
:1043D0003960FB804FF0440001F0D0F90346FB60E8
:1043E000FB68002B23D03B68002B07D1FB884FEAEA
:1043F0008303184601F0C2F9034600E03B68FA68FF
:104400001363FB681B6B002B06D1F86801F008FAF8
:104410004FF00003FB600AE0FB681A6BFB884FEA71
:10442000830310464FF0A5011A4601F053FBFB68C9
:10443000184607F11007BD4680BD00BF80B582B0A9
:1044400000AF78607B681B6B184601F0E9F978686B
:1044500001F0E6F907F10807BD4680BD80B483B0DE
:1044600000AF40F27C03C2F200031B687B607B68F4
:10447000184607F10C07BD4680BC704780B584B074
:1044800000AF78607B68FB607B68002B04D14FF045
:10449000500080F31188FEE7FB68DA6A40F27C0383
:1044A000C2F200031B68DB6A9A4257D240F27C03D7
:1044B000C2F200031B68DB6AC3F10502FB689A6164
:1044C000FB685969FB68DA6A13464FEA83039B1855
:1044D0004FEA83031A4640F28003C2F20003D31866
:1044E000994233D1FB6803F10403184600F01EFA29
:1044F00040F27C03C2F200031B68DA6AFB68DA62EE
:10450000FB68DA6A40F26013C2F200031B689A4249
:1045100006D9FB68DA6A40F26013C2F200031A603F
:10452000FB68DA6A13464FEA83039B184FEA83035A
:104530001A4640F28003C2F20003D218FB6803F16E
:1045400004031046194600F08BF907E040F27C03A3
:10455000C2F200031B68DA6AFB68DA6207F110072F
:10456000BD4680BD80B584B000AF78607B68FB60DD
:104570007B68002B3AD0FB68DA6AFB681B6C9A42B6
:1045800034D0FB6803F10403184600F0CFF9FB6850
:104590001A6CFB68DA62FB68DB6AC3F10502FB6830
:1045A0009A61FB68DA6A40F26013C2F200031B688A
:1045B0009A4206D9FB68DA6A40F26013C2F200033D
:1045C0001A60FB68DA6A13464FEA83039B184FEAC6
:1045D00083031A4640F28003C2F20003D218FB683C
:1045E00003F104031046194600F03AF907F11007E9
:1045F000BD4680BD80B487B000AF786039604FF0B1
:1046000000037B614FF000033B614FF00003FB6050
:104610004FF000037B618FE07B694FF0010202FAEB
:1046200003F33B613B681A683B6902EA0303FB60E2
:10463000FA683B699A427BD17B681B681A467B69A2
:104640004FEA43034FF0030101FA03F36FEA030358
:104650001A407B681A607B681B681A463B681B79A6
:1046600019467B694FEA430301FA03F31A437B6857
:104670001A603B681B79012B03D03B681B79022B26
:1046800038D17B689B681A467B694FEA43034FF039
:10469000030101FA03F36FEA03031A407B689A608F
:1046A0007B689B681A463B685B7919467B694FEAD1
:1046B000430301FA03F31A437B689A607B685B68E3
:1046C0001A467B699BB24FF0010101FA03F36FEACE
:1046D00003031A407B685A607B685B681A463B6834
:1046E0009B7919467B699BB201FA03F39BB21A438B
:1046F0007B685A607B68DB681A467B699BB24FEA2D
:1047000043034FF0030101FA03F36FEA03031A4076
:104710007B68DA607B68DB681A463B68DB791946A0
:104720007B694FEA430301FA03F31A437B68DA60BB
:104730007B6903F101037B617B690F2B7FF66CAF13
:1047400007F11C07BD4680BC704700BF80B485B030
:1047500000AF786013460A467A807B704FF0000302
:10476000FB604FF00003BB607A787B8803F007039F
:104770004FEA830302FA03F3FB607B884FEAD3031B
:104780009BB21A467B884FEAD3039BB219467B68DB
:1047900001F1080153F8213019467B8803F0070323
:1047A0004FEA83034FF00F0000FA03F36FEA0303AD
:1047B00019407B6802F1080243F822107B884FEA17
:1047C000D3039BB21A467B6802F1080253F82230E9
:1047D0001A46FB6842EA0303BB607B884FEAD303B7
:1047E0009BB21A467B6802F10802B96843F82210AE
:1047F00007F11407BD4680BC704700BF80B483B08A
:1048000000AF78607B6803F108031A467B685A6042
:104810007B684FF0FF329A607B6803F108031A4609
:104820007B68DA607B6803F108031A467B681A61CB
:104830007B684FF000021A6007F10C07BD4680BC90
:10484000704700BF80B483B000AF78607B684FF0E2
:1048500000021A6107F10C07BD4680BC704700BF1B
:1048600080B485B000AF786039607B685B68FB60BE
:10487000FB685B681A463B685A607B685A683B680D
:104880009A60FB685B683A689A603A68FB685A60AD
:104890003A687B685A603B687A681A617B681B6873
:1048A00003F101027B681A6007F11407BD4680BC62
:1048B000704700BF80B485B000AF786039603B6856
:1048C0001B68BB60BB68B3F1FF3F03D17B681B690A
:1048D000FB600EE07B6803F10803FB6002E0FB680D
:1048E0005B68FB60FB685B681B681A46BB689A42A2
:1048F000F5D9FB685B681A463B685A603B685B68A1
:104900003A689A603B68FA689A603A68FB685A604D
:104910003B687A681A617B681B6803F101027B6857
:104920001A6007F11407BD4680BC704780B485B09B
:1049300000AF78607B685B687A6892689A607B6891
:104940009B687A6852685A607B681B69FB60FB68E9
:104950005A687B689A4203D17B689A68FB685A6000
:104960007B684FF000021A61FB681B6803F1FF329D
:10497000FB681A6007F11407BD4680BC704700BF92
:1049800080B500AF4FF46053C4F202034FF460529D
:10499000C4F20202126842F001021A604FF460533E
:1049A000C4F202034FF000029A604FF46053C4F265
:1049B00002034FF46052C4F20202126822F08472C1
:1049C00022F480321A604FF46053C4F2020343F2BF
:1049D0001002C2F200425A604FF46053C4F2020364
:1049E0004FF46052C4F20202126822F480221A606C
:1049F0004FF46053C4F202034FF00002DA6000F09B
:104A000009F84FF46D43CEF200034FF000629A6054
:104A100080BD00BF80B483B000AF4FF000037B6067
:104A20004FF000033B604FF46053C4F202034FF4B5
:104A30006052C4F20202126842F480321A604FF4EB
:104A40006053C4F202031B6803F400333B607B68CD
:104A500003F101037B603B68002B03D17B68B3F556
:104A6000A06FECD14FF46053C4F202031B6803F44F
:104A70000033002B03D04FF001033B6002E04FF006
:104A800000033B603B68012B69D14FF46053C4F2D3
:104A900002034FF46052C4F2020292689A604FF42B
:104AA0006053C4F202034FF46052C4F202029268EF
:104AB00042F400429A604FF46053C4F202034FF490
:104AC0006052C4F20202926842F4A0529A604FF41B
:104AD0006053C4F2020343F20402C0F643025A6078
:104AE0004FF46053C4F202034FF46052C4F2020266
:104AF000126842F080721A6000BF4FF46053C4F233
:104B000002031B6803F00073002BF6D04FF47053C0
:104B1000C4F2020340F201721A604FF46053C4F20F
:104B200002034FF46052C4F20202926822F00302C0
:104B30009A604FF46053C4F202034FF46052C4F21F
:104B40000202926842F002029A6000BF4FF4605382
:104B5000C4F202039B6803F00C03082BF6D107F1A3
:104B60000C07BD4680BC704780B582B000AF78604E
:104B700039607B68002B04D14FF0500080F311881E
:104B8000FEE700F025FC7B681A687B68DB6B7968C0
:104B9000096C01FB03F3D2187B685A607B684FF005
:104BA00000029A637B681A687B689A607B681A685F
:104BB0007B68DB6B03F1FF337968096C01FB03F35E
:104BC000D2187B68DA607B684FF0FF325A647B68EA
:104BD0004FF0FF329A643B68002B0FD17B681B6952
:104BE000002B17D07B6803F110031846FFF7C0F9BC
:104BF0000346012B0ED100F0DFFB0BE07B6803F1D5
:104C000010031846FFF7FAFD7B6803F124031846EA
:104C1000FFF7F4FD00F0F2FB4FF00103184607F137
:104C20000807BD4680BD00BF80B588B000AFF86002
:104C3000B9601346FB714FF00003FB61FB68002B6A
:104C40002BD04FF04C0000F099FD0346BB61BB69CF
:104C5000002B22D0FB68BA6802FB03F303F10103C7
:104C60007B61786900F08AFD03461A46BB691A60C9
:104C7000BB691B68002B0DD0BB69FA68DA63BB699E
:104C8000BA681A64B8694FF00101FFF76DFFBB699C
:104C9000FB6102E0B86900F0C3FDFB69002B04D1A1
:104CA0004FF0500080F31188FEE7FB69184607F1CA
:104CB0002007BD4680BD00BF80B588B000AFF8605A
:104CC000B9607A603B604FF00003FB61FB68002B2A
:104CD00004D14FF0500080F31188FEE7BB68002B31
:104CE00003D1FB681B6C002B02D14FF0010301E0E4
:104CF0004FF00003002B05D14FF0500080F31188D6
:104D0000FEE700BF00F064FBFB689B6B1A46FB6884
:104D1000DB6B9A4218D2F868B9683A6800F0BCF9BF
:104D2000FB685B6A002B0AD0FB6803F1240318467A
:104D3000FFF71EF90346012B01D100F03DFB00F007
:104D40005DFB4FF001035DE07B68002B04D100F0B8
:104D500055FB4FF0000355E0FB69002B07D107F12D
:104D600014031846FFF76EF94FF00103FB6100F0E2
:104D700045FBFEF755FE00F02BFBFB685B6CB3F1C7
:104D8000FF3F03D1FB684FF000025A64FB689B6C45
:104D9000B3F1FF3F03D1FB684FF000029A6400F0CB
:104DA0002DFB07F1140207F1040310461946FFF723
:104DB00069F90346002B1ED1F86800F05DFA03463E
:104DC000002B12D0FB6803F110027B6810461946D5
:104DD000FFF78AF8F86800F0E9F9FEF733FE0346BA
:104DE000002B8ED100F0E8FA8CE7F86800F0DEF9CD
:104DF000FEF728FE86E7F86800F0D8F9FEF722FEF5
:104E00004FF00003184607F12007BD4680BD00BFE4
:104E100080B586B000AFF860B9607A603B60FB682F
:104E2000002B04D14FF0500080F31188FEE7BB68DF
:104E3000002B03D1FB681B6C002B02D14FF0010348
:104E400001E04FF00003002B04D14FF0500080F33D
:104E50001188FEE74FF000033B614FF0500080F3F4
:104E60001188FB689B6B1A46FB68DB6B9A4228D261
:104E7000F868B9683A6800F00FF9FB689B6CB3F109
:104E8000FF3F14D1FB685B6A002B16D0FB6803F16F
:104E900024031846FFF76CF80346002B0DD07B68FF
:104EA000002B0AD07B684FF001021A6005E0FB6816
:104EB0009B6C03F10102FB689A644FF001037B6174
:104EC00002E04FF000037B614FF0000080F3118897
:104ED0007B69184607F11807BD4680BD80B588B0CC
:104EE00000AFF860B9607A603B604FF00003FB618F
:104EF000FB68002B04D14FF0500080F31188FEE7CF
:104F0000BB68002B03D1FB681B6C002B02D14FF058
:104F1000010301E04FF00003002B05D14FF05000DA
:104F200080F31188FEE700BF00F052FAFB689B6B2C
:104F3000002B40D0FB68DB68BB61F868B96800F003
:104F40000DF93B68002B1FD1FB689B6B03F1FF320F
:104F5000FB689A63FB681B68002B05D1FFF77EFA9C
:104F600003461A46FB685A60FB681B69002B1DD07C
:104F7000FB6803F110031846FEF7FAFF0346012B06
:104F800014D100F019FA11E0FB68BA69DA60FB6825
:104F90005B6A002B0AD0FB6803F124031846FEF776
:104FA000E7FF0346002B01D000F006FA00F026FAD6
:104FB0004FF001036BE07B68002B04D100F01EFA78
:104FC0004FF0000363E0FB69002B07D107F11003EA
:104FD0001846FFF737F84FF00103FB6100F00EFAB7
:104FE000FEF71EFD00F0F4F9FB685B6CB3F1FF3FC8
:104FF00003D1FB684FF000025A64FB689B6CB3F16D
:10500000FF3F03D1FB684FF000029A6400F0F6F90D
:1050100007F1100207F1040310461946FFF732F8B2
:105020000346002B2CD1F86800F010F90346002B42
:1050300020D0FB681B68002B08D100F0C9F9FB6881
:105040005B681846FFF71AFA00F0D8F9FB6803F11D
:1050500024027B6810461946FEF746FFF86800F008
:10506000A5F8FEF7EFFC0346002B7FF45CAF00F0E1
:10507000A3F959E7F86800F099F8FEF7E3FC53E765
:10508000F86800F093F8FEF7DDFC4FF000031846D7
:1050900007F12007BD4680BD80B584B000AFF86041
:1050A000B9607A60FB681B6C002B0DD1FB681B6834
:1050B000002B48D1FB685B681846FFF753FAFB6882
:1050C0004FF000025A603EE07B68002B1AD1FB686B
:1050D0009A68FB681B6C1046B9681A4600F052FCCF
:1050E000FB689A68FB681B6CD218FB689A60FB68C7
:1050F0009A68FB685B689A4225D3FB681A68FB686C
:105100009A6020E0FB68DA68FB681B6C1046B9689F
:105110001A4600F037FCFB68DA68FB681B6CC3F1C9
:105120000003D218FB68DA60FB68DA68FB681B686A
:105130009A4208D2FB685A68FB681B6CC3F10003F3
:10514000D218FB68DA60FB689B6B03F10102FB6815
:105150009A6307F11007BD4680BD00BF80B582B0DD
:1051600000AF786039607B681B68002B19D07B68C2
:10517000DA687B681B6CD2187B68DA607B68DA6857
:105180007B685B689A4203D37B681A687B68DA6045
:105190007B68DA687B681B6C386811461A4600F039
:1051A000F1FB07F10807BD4680BD00BF80B582B0A6
:1051B00000AF786000F00CF914E07B685B6A002BAC
:1051C00015D07B6803F124031846FEF7D1FE034691
:1051D000002B01D0FEF7B8FF7B689B6C03F1FF3218
:1051E0007B689A647B689B6C002BE6DC00E000BF68
:1051F0007B684FF0FF329A6400F000F900F0E8F8A5
:1052000014E07B681B69002B15D07B6803F1100349
:105210001846FEF7ADFE0346002B01D0FEF794FFC3
:105220007B685B6C03F1FF327B685A647B685B6C64
:10523000002BE6DC00E000BF7B684FF0FF325A64D1
:1052400000F0DCF807F10807BD4680BD80B584B0EA
:1052500000AF786000F0BCF87B689B6B002B14BF3C
:1052600000230123FB6000F0C9F8FB68184607F132
:105270001007BD4680BD00BF80B584B000AF786028
:1052800000F0A6F87B689B6B1A467B68DB6B9A4242
:1052900014BF00230123FB6000F0B0F8FB68184640
:1052A00007F11007BD4680BD80B485B000AFF8603F
:1052B000B9607A60FB68A3F10403FB60FB684FF000
:1052C00080721A60FB68A3F10403FB60BA68FB6894
:1052D0001A60FB68A3F10403FB60FB684FF0000257
:1052E0001A60FB68A3F11403FB607A68FB681A601C
:1052F000FB68A3F10403FB60FB686FF002021A6015
:10530000FB68A3F12003FB60FB68184607F1140754
:10531000BD4680BC704700BF054B19680868B0E8FF
:10532000F04F80F309884FF0000080F31188704738
:105330007C00002003480068006880F3088862B69B
:1053400000DF00BF08ED00E080B500AF4EF620534F
:10535000CEF200034EF62052CEF20002126842F462
:1053600070021A604EF62053CEF200034EF6205221
:10537000CEF20002126842F070421A6000F09EF80D
:1053800040F26803C2F200034FF000021A6000F01E
:10539000A9F84EF63473CEF200034EF63472CEF214
:1053A0000002126842F040421A60FFF7C3FF4FF05C
:1053B0000003184680BD00BF80B400AF4EF6045312
:1053C000CEF200034FF080521A60BD4680BC704799
:1053D00080B400AF4FF0500080F3118840F26803B2
:1053E000C2F200031B6803F1010240F26803C2F23B
:1053F00000031A60BD4680BC704700BF80B400AF98
:1054000040F26803C2F200031B6803F1FF3240F26E
:105410006803C2F200031A6040F26803C2F200039C
:105420001B68002B03D14FF0000080F31188BD46AC
:1054300080BC7047EFF30980114B1A681EF0100F03
:1054400008BF20ED108A20E9F04F10602DE90840D8
:105450004FF0500080F31188FEF792FC4FF00000EF
:1054600080F31188BDE8084019680868B0E8F04F7B
:105470001EF0100F08BFB0EC108A80F30988704747
:105480007C00002080B582B000AF4EF60453CEF20F
:1054900000034FF080521A604FF000037B604FF022
:1054A000500080F31188FEF783FB4FF0000080F37B
:1054B000118807F10807BD4680BD00BF80B400AF6A
:1054C0004EF21403CEF200034BF67F321A604EF216
:1054D0001003CEF200034FF007021A60BD4680BCF5
:1054E000704700BFDFF80C00016841F470010160F3
:1054F0007047000088ED00E080B400AF41F6C4734F
:10550000C2F200034FF000021A7041F6C473C2F2F7
:1055100000034FF008021A7141F6C473C2F200038F
:105520004FF00F025A7141F6C473C2F200034FF0FC
:1055300040029A7141F6C473C2F200034FF00602B2
:10554000DA7141F6C473C2F200034FF000029A60B0
:1055500041F6C473C2F200034FF00B02DA6041F669
:10556000C473C2F200034FF000021A7441F6C47310
:10557000C2F200034FF001021A7741F6C473C2F27F
:1055800000034FF0040283F8202041F6C473C2F2F6
:1055900000034FF0010283F8212041F6C473C2F2E8
:1055A00000034FF0400283F8222041F6C473C2F298
:1055B00000034FF0060283F8232041F6C473C2F2C1
:1055C00000034FF000025A6241F6C473C2F20003B6
:1055D0004FF00B029A6241F6C473C2F200034FF01F
:1055E000000283F82C20BD4680BC704780B485B093
:1055F00000AF78604FF00003FB734FF00003BB6017
:105600004FF47053C4F201031B681A467B6802EA28
:105610000303BB604FF47053C4F201035B691A4685
:105620007B6802EA0303002B06D0BB68002B03D083
:105630004FF00103FB7302E04FF00003FB73FB7BB1
:10564000184607F11407BD4680BC704780B483B08C
:1056500000AF78604FF47053C4F201037A685A6166
:1056600007F10C07BD4680BC704700BF80B483B013
:1056700000AF78604FF46D43CEF200037A6842F0D9
:10568000BE6242F42022DA6007F10C07BD4680BCFE
:10569000704700BF80B485B000AF78604FF0000362
:1056A000FB734FF00003BB734FF00F037B737B68FA
:1056B000DB78002B47D04FF46D43CEF20003DB685C
:1056C0006FEA030303F4E0634FEA1323FB73FB7BEE
:1056D000C3F10403BB737A7BFB7B42FA03F37B7356
:1056E0007B685B781A46BB7B02FA03F3FB737B682B
:1056F0009A787B7B02EA0303DAB2FB7B42EA03037C
:10570000FB73FB7B4FEA0313FB734FF46143CEF251
:1057100000037A6812789B18FA7B83F800234FF411
:105720006143CEF200037A6812784FEA5212D2B285
:105730007968097801F01F014FF0010000FA01F1CA
:1057400043F8221014E04FF46143CEF200037A686C
:1057500012784FEA5212D2B27968097801F01F012B
:105760004FF0010000FA01F102F1200243F822108B
:1057700007F11407BD4680BC704700BF80B584B0F8
:1057800000AF78604FF00003FB607B6803F0070315
:10579000002B05D07B6823F0070303F108037B602F
:1057A000FEF73EF941F68053C2F200031A687B68A7
:1057B000D21841F6FF339A4224D841F68053C2F200
:1057C00000031A687B68D21841F68053C2F20003C6
:1057D0001B689A4216D941F68053C2F200031A6838
:1057E00040F28013C2F20003D318FB6041F68053ED
:1057F000C2F200031A687B68D21841F68053C2F2E5
:1058000000031A60FEF71EF9FB68002B01D1FDF7BB
:105810006DFDFB68184607F11007BD4680BD00BF4F
:1058200080B483B000AF786007F10C07BD4680BC40
:10583000704700BF80B400AF41F68053C2F200034E
:105840001B68C3F5E0531846BD4680BC704700BFD7
:1058500080B485B000AF78600B467B804FF00003CA
:10586000FB734FF00003BB814FF000037B817B682B
:105870001B8A9AB27B8802EA0303BB817B689B89FF
:105880009AB27B8802EA03037B81BB89002B06D096
:105890007B89002B03D04FF00103FB7302E04FF034
:1058A0000003FB73FB7B184607F11407BD4680BC61
:1058B000704700BF80B483B000AF78600B467B8038
:1058C0007B886FEA03039AB27B681A8207F10C07A0
:1058D000BD4680BC704700BF80B400AFBFF34F8FA0
:1058E0004FF46D42CEF200024FF46D43CEF200034E
:1058F000DB6803F4E0614FF00403C0F2FA5341EABD
:105900000303D360BFF34F8FFEE700BF80B500AF46
:105910004FF48030FFF76AFE0346002B05D0FFF7F7
:10592000DBFF4FF48030FFF791FE80BD032A70B497
:1059300004460D4612D941EA000313F0030F0FD1BC
:105940000B46044651F8045B50F8046BAE4204D198
:10595000043A0446032A0B46F2D81D46104672B19B
:1059600021782B78994209D1501E2A4638B114F873
:10597000011F013812F8013F9942F7D0C81A70BCD4
:10598000704700BF032A2DE9F00109D82AB100238E
:10599000CC5CC45401339342FAD1BDE8F0017047A6
:1059A0000B468218014603E02478013301F8014BCD
:1059B00011F0030F1C46F7D113F003055DD06E42C2
:1059C000C5F1040CED009B594FEACC0C08E00434FF
:1059D000A7593B4607FA0CF748EA070741F8047B4A
:1059E000571A23FA05F8032FF1DC03E014F8013B02
:1059F00001F8013B8A42F9D8CFE753F8404C41F80F
:105A0000404C53F83C4C41F83C4C53F8384C41F86E
:105A1000384C53F8344C41F8344C53F8304C41F87E
:105A2000304C53F82C4C41F82C4C53F8284C41F88E
:105A3000284C53F8244C41F8244C53F8204C41F89E
:105A4000204C53F81C4C41F81C4C53F8184C41F8AE
:105A5000184C53F8144C41F8144C53F8104C41F8BE
:105A6000104C53F80C4C41F80C4C53F8084C41F8CE
:105A7000084C53F8044C41F8044C561A1D460C4689
:105A8000403340313F2EB8DC2B460FE053F8101C5A
:105A900044F8101C53F80C1C44F80C1C53F8081C58
:105AA00044F8081C53F8041C44F8041C161B1D463B
:105AB00010330F2E214604F11004E7DC2B4602E0E0
:105AC000246841F8044B551A1C46032D03F10403C6
:105AD000F6DC8FE7032AC9B270B408D82AB10346AE
