:020000040800F2
:10000000241F0020851C0008ED1C0008ED1C0008C2
:10001000ED1C0008ED1C0008ED1C000800000000AD
:10002000000000000000000000000000D166000891
:10003000ED1C000800000000ED6700083D680008A6
:10004000ED1C00081D7A0008ED1C0008ED1C0008DE
:10005000ED1C0008ED1C0008ED1C0008ED1C00085C
:10006000ED1C0008ED1C0008ED1C0008ED1C00084C
:10007000ED1C0008ED1C0008ED1C0008ED1C00083C
:10008000ED1C0008ED1C0008ED1C0008ED1C00082C
:10009000ED1C0008ED1C0008ED1C0008A90F00086D
:1000A000ED1C000865230008ED1C0008ED1C00088D
:1000B000ED1C0008ED1C0008ED1C0008ED1C0008FC
:1000C000ED1C0008ED1C0008ED1C0008ED1C0008EC
:1000D000ED1C0008ED1C0008ED1C0008ED1C0008DC
:1000E000ED1C0008ED1C0008ED1C0008ED1C0008CC
:1000F000ED1C0008ED1C0008ED1C0008ED1C0008BC
:10010000ED1C0008ED1C0008ED1C0008ED1C0008AB
:10011000ED1C0008ED1C0008ED1C0008ED1C00089B
:10012000ED1C0008ED1C0008ED1C0008ED1C00088B
:10013000ED1C0008ED1C0008ED1C0008ED1C00087B
:10014000ED1C0008ED1C0008ED1C0008ED1C00086B
:10015000ED1C0008ED1C0008ED1C0008ED1C00085B
:10016000ED1C0008ED1C0008ED1C0008ED1C00084B
:10017000ED1C0008ED1C0008ED1C0008ED1C00083B
:10018000ED1C0008ED1C000890B484B000AF0246DE
:100190000B46FA71BB714FF00003FB60BB7903F0B3
:1001A00003034FEA83034FF00F0202FA03F3FB60ED
:1001B0004FF46053C4F20103BA794FEA9202D2B20B
:1001C00010464FF46052C4F20102B9794FEA91012E
:1001D000C9B201F1020152F821201146FA686FEA12
:1001E0000202114000F1020243F822104FF4605362
:1001F000C4F20103BA794FEA9202D2B210464FF428
:100200006052C4F20102B9794FEA9101C9B201F119
:10021000020152F821201146FC79BA7902F003025A
:100220004FEA820204FA02F2114300F1020243F89B
:10023000221007F11007BD4690BC7047F0B587B09B
:1002400000AF03463960FB714FF00003FB754FF0C0
:100250000003BB754FF000037B754FF000033B7547
:10026000FB794FF0160202FB03F2054BD3183B61FA
:100270003B691B88022B05D94FF00003E8E300BF60
:1002800074160020386808F0C9F903463B7541F23E
:100290002473C2F200031B6818464FF000014FF0B0
:1002A000FF324FF0000305F0DBFF0346012B40F067
:1002B000CE833B695B8819463B691B883A69D089C4
:1002C00041F23862C2F200024FF01A0404FB03F458
:1002D0000B464FEA03135B1A4FEA4303E318D318A4
:1002E00003F1020302461A803B695B8819463B69A9
:1002F0001B883A69108A41F23862C2F200024FF05C
:100300001A0404FB03F40B464FEA03135B1A4FEA8B
:100310004303E318D31803F1040302461A803B6930
:100320005B8819463B691B883A69908941F23862BB
:10033000C2F200024FF01A0404FB03F40B464FEA2A
:1003400003135B1A4FEA4303E318D31803F10603C0
:1003500002461A803B695B8819463B691B883A69EB
:10036000108941F23862C2F200024FF01A0404FB15
:1003700003F40B464FEA03135B1A4FEA4303E318F7
:10038000D31803F1080302461A803B695B881946BB
:100390003B691B883A69508941F23862C2F2000217
:1003A0004FF01A0404FB03F40B464FEA03135B1AE5
:1003B0004FEA4303E318D31803F10A0302461A80F5
:1003C0003B695B8819463B691B8841F23862C2F27F
:1003D00000024FF01A0000FB03F00B464FEA031334
:1003E0005B1A4FEA4303C318D31803F10C034FF40D
:1003F00080721A803B695B8819463B691B8841F211
:100400003862C2F200024FF01A0000FB03F00B4604
:100410004FEA03135B1A4FEA4303C318D31803F1DF
:100420000E034FF400721A803B695B8819463B69E2
:100430001B8841F23862C2F200024FF01A0000FB42
:1004400003F00B464FEA03135B1A4FEA4303C3184A
:10045000D31803F110034FF440721A803B695B8894
:1004600019463B691B8841F23862C2F200024FF024
:100470001A0000FB03F00B464FEA03135B1A4FEA26
:100480004303C318D31803F112034FF480621A8098
:100490003B695B8819463B691B8841F23862C2F2AE
:1004A00000024FF01A0000FB03F00B464FEA031363
:1004B0005B1A4FEA4303C318D31803F114034FF434
:1004C000A0621A803B695B8819463B691B8841F230
:1004D0003862C2F200024FF01A0000FB03F00B4634
:1004E0004FEA03135B1A4FEA4303C318D31803F10F
:1004F00016034FF4C0621A803B695B8819463B695A
:100500001B8841F23862C2F200024FF01A0000FB71
:1005100003F00B464FEA03135B1A4FEA4303C31879
:10052000D31803F118034FF4E0621A803B695B882B
:1005300019463B691B8841F23862C2F200024FF053
:100540001A0000FB03F00B464FEA03135B1A4FEA55
:100550004303C318D31803F11A034FF400621A803F
:100560007B7D03F105037B7597F914300A2B02DDBF
:100570004FF00A033B754FF00003FB7550E297F90B
:1005800017303A68D3181B782F2B65D997F9173095
:100590003A68D3181B78392B5ED897F917303A6828
:1005A000D3181B78A3F1300248F2F863C0F60003B9
:1005B0009B18DB7FFB733B695B881C463B691B8890
:1005C00018467E7D3B695B881D463B691B881A4641
:1005D00097F815E041F23861C2F2000113464FEA84
:1005E00043039B184FEA83039B182A464FEA0212E3
:1005F000521B9B1873444FEA4303CB185B889AB293
:10060000FB7B99B27B7DA3F104039BB24FEA0323EA
:100610009BB29BB241EA03039BB242EA03039BB243
:100620009DB241F23861C2F2000103464FEA430332
:100630001B184FEA83031B1822464FEA0212121BB3
:100640009B189B194FEA4303CB182A465A807B7D9F
:1006500003F101037B75DFE197F917303A68D3188E
:100660001B782E2B40F05D8197F91730002B41D17C
:100670003B695B881C463B691B8818467E7D3B694D
:100680005B881D463B691B881A4697F815E041F2C6
:100690003861C2F2000113464FEA43039B184FEA48
:1006A00083039B182A464FEA0212521B9B1873447D
:1006B0004FEA4303CB185B8843F080039DB241F2BD
:1006C0003861C2F2000103464FEA43031B184FEAA8
:1006D00083031B1822464FEA0212121B9B189B1918
:1006E0004FEA4303CB182A465A807B7D03F101036E
:1006F0007B7591E197F9172097F9143003F1FF33D7
:100700009A4280F2CD8097F9173003F101033A68DD
:10071000D3181B782E2B40F082803B695B881C46E7
:100720003B691B8818467E7D3B695B881D463B699B
:100730001B881A4697F815E041F23861C2F20001B1
:1007400013464FEA43039B184FEA83039B182A463C
:100750004FEA0212521B9B1873444FEA4303CB1813
:100760005B8843F080039DB241F23861C2F2000120
:1007700003464FEA43031B184FEA83031B18224624
:100780004FEA0212121B9B189B194FEA4303CB1826
:100790002A465A803B695B881C463B691B88184681
:1007A0007B7D03F1FF363B695B881D463B691B88F7
:1007B0001A467B7D03F1FF3E41F23861C2F200012F
:1007C00013464FEA43039B184FEA83039B182A46BC
:1007D0004FEA0212521B9B1873444FEA4303CB1893
:1007E0005B8843F080039DB241F23861C2F20001A0
:1007F00003464FEA43031B184FEA83031B182246A4
:100800004FEA0212121B9B189B194FEA4303CB18A5
:100810002A465A807B7D03F101037B75FCE03B692E
:100820005B881C463B691B8818467B7D03F1FF36BD
:100830003B695B881D463B691B881A467B7D03F13B
:10084000FF3E41F23861C2F2000113464FEA430312
:100850009B184FEA83039B182A464FEA0212521B49
:100860009B1873444FEA4303CB185B8843F0800323
:100870009DB241F23861C2F2000103464FEA4303E0
:100880001B184FEA83031B1822464FEA0212121B61
:100890009B189B194FEA4303CB182A465A80BBE0AA
:1008A0003B695B881C463B691B8818467B7D03F1CE
:1008B000FF363B695B881D463B691B881A467B7D7A
:1008C00003F1FF3E41F23861C2F2000113464FEAE4
:1008D00043039B184FEA83039B182A464FEA0212F0
:1008E000521B9B1873444FEA4303CB185B8843F0B9
:1008F00080039DB241F23861C2F2000103464FEA23
:1009000043031B184FEA83031B1822464FEA0212C7
:10091000121B9B189B194FEA4303CB182A465A8097
:100920007AE04FF00A03BB756BE097F917303A682D
:10093000D3181A7897F9161048F2F863C0F6000336
:100940005B5C9A4259D197F9162048F2F863C0F6D9
:1009500000039B18DB7FBB733B695B881C463B69CC
:100960001B8818467E7D3B695B881D463B691B885A
:100970001A4697F815E041F23861C2F200011346B9
:100980004FEA43039B184FEA83039B182A464FEA1A
:100990000212521B9B1873444FEA4303CB185B8827
:1009A0009AB2BB7B99B27B7DA3F104039BB24FEA61
:1009B00003239BB29BB241EA03039BB242EA0303C7
:1009C0009BB29DB241F23861C2F2000103464FEA88
:1009D00043031B184FEA83031B1822464FEA0212F7
:1009E000121B9B189B194FEA4303CB182A465A80C7
:1009F0007B7D03F101037B7507E0BB7D03F1010300
:100A0000BB7597F916301E2B8FDD7A7D3B69DB882D
:100A100003F105039A420BDCFB7D03F10103FB7537
:100A200097F9172097F914309A42FFF6A8AD00E025
:100A300000BF41F22473C2F200031B6818464FF056
:100A400000014FF000024FF0000305F0F7FA7B7D44
:100A5000184607F11C07BD46F0BD00BF80B586B043
:100A600004AF4FF002004FF0010101F0FDFA4FF02A
:100A700004033B604FF000037B714FF001033B71B7
:100A80004FF00003BB714FF00003FB713B464FF486
:100A90008060C4F20200194604F0F8FE4FF480634F
:100AA000C4F202034FF004025A8348F23873C0F6CE
:100AB00000034FF00102009241F21462C2F2000200
:100AC00001924FF0000202924FF00002039240F6B2
:100AD0000D30C0F6000019464FF040024FF0000301
:100AE00001F036FE41F21463C2F200031B6818469F
:100AF00001F04CFF41F2A063C2F200034FF001028B
:100B00001A7707F10807BD4680BD00BF80B582B0E7
:100B100000AF786041F21063C2F200031B78012B32
:100B200040F0CC8041F21063C2F200035B78042BEA
:100B300000F2C08001A252F823F000BF510B000860
:100B4000850B0008E50B0008710C0008810C0008FB
:100B50004FF48063C4F202034FF004021A834FF093
:100B6000C80001F0E5FE4FF48063C4F202034FF0C9
:100B700004025A8341F21063C2F200034FF00002F4
:100B80001A709BE04FF48063C4F202034FF004023A
:100B90001A834FF0640001F0CBFE4FF48063C4F27F
:100BA00002034FF004025A834FF0640001F0C0FECC
:100BB0004FF48063C4F202034FF004021A834FF033
:100BC000640001F0B5FE4FF48063C4F202034FF0FD
:100BD00004025A8341F21063C2F200034FF0000294
:100BE0001A706BE04FF48063C4F202034FF004020A
:100BF0001A834FF0320001F09BFE4FF48063C4F281
:100C000002034FF004025A834FF0320001F090FECD
:100C10004FF48063C4F202034FF004021A834FF0D2
:100C2000320001F085FE4FF48063C4F202034FF0FE
:100C300004025A834FF0320001F07AFE4FF48063D1
:100C4000C4F202034FF004021A834FF0320001F0A5
:100C50006FFE4FF48063C4F202034FF004025A8324
:100C600041F21063C2F200034FF000021A7025E057
:100C70004FF48063C4F202034FF004021A831DE0B4
:100C80004FF48063C4F202034FF004021A834FF45E
:100C90007A7001F04DFE4FF48063C4F202034FF00E
:100CA00004025A8341F21063C2F200034FF00002C3
:100CB0001A7003E04FF4FA7001F03AFE41F2A063BB
:100CC000C2F200039B6903F1010241F2A063C2F288
:100CD00000039A6141F21463C2F200031B681846D4
:100CE00001F054FE41F2A063C2F200034FF0010292
:100CF0001A770FE780B582B000AF13460246FA714B
:100D00000A46BA717B71BB7903F00103DBB2002B99
:100D100022D041F21063C2F200031B78002B3FD1B6
:100D20007B79002B08D141F21463C2F200031B68E7
:100D3000184601F0BBFE07E041F21463C2F2000363
:100D40001B68184601F010FF41F21063C2F2000365
:100D50004FF001021A7023E041F21063C2F2000367
:100D60001B78012B0ED141F21463C2F200031B6801
:100D7000184601F00BFE41F21063C2F200034FF07F
:100D800000021A7041F2A063C2F200034FF00102A8
:100D90001A774FF48063C4F202034FF004025A83BF
:100DA000FB7903F00703DAB241F21063C2F20003E9
:100DB0005A7007F10807BD4680BD00BF80B58AB0F4
:100DC00004AF4FF001004FF0010101F04DF94FF475
:100DD00080404FF0010101F0A3F94FF0C1033B61E6
:100DE0004FF000033B754FF00103FB7507F1100353
:100DF0004FF00000C4F20200194604F047FD4FF026
:100E000000004FF00001FFF7BFF94FF00103BB6096
:100E10004FF000033B734FF00C037B734FF0010363
:100E2000BB7307F10803184605F0CEFD4FF0000034
:100E30004FF00601FFF7A8F94FF04003BB604FF0F9
:100E400000033B734FF00C037B734FF00103BB7344
:100E500007F10803184605F0B7FD4FF000004FF00A
:100E60000701FFF791F94FF08003BB604FF00003DB
:100E70003B734FF00C037B734FF00103BB7307F11F
:100E80000803184605F0A0FD4FF017033B714FF023
:100E900001037B714FF00103BB714FF00103FB7144
:100EA00007F10403184606F063F948F24073C0F6F0
:100EB00000034FF0010200924FF0000201924FF048
:100EC000000202924FF00002039240F6E960C0F681
:100ED000000019464FF040024FF0000301F038FCCB
:100EE00007F11807BD4680BD80B582B000AF7860BD
:100EF0004FF00000C4F202004FF0010104F072FD57
:100F00000346002B06D14FF004004FF0000100F023
:100F10008DFC0BE04FF47053C4F201034FF4705298
:100F2000C4F20102126842F001021A604FF00000A0
:100F3000C4F202004FF0400104F054FD0346002BC0
:100F400007D141F21863C2F200034FF00202DA77D0
:100F500025E04FF00000C4F202004FF0800104F0E1
:100F600041FD0346002B07D141F21863C2F2000392
:100F70004FF00102DA7712E041F21863C2F2000387
:100F80004FF00002DA774FF47053C4F201034FF4CC
:100F90007052C4F20102126842F0C0021A604FF0AF
:100FA000640001F0C5FCA3E780B500AF4FF040003E
:100FB00005F0B6FD0346002B15D04FF0400005F0BC
:100FC000DFFD4FF002004FF0010100F02FFC4FF465
:100FD0007053C4F201034FF47052C4F2010212685C
:100FE00022F040021A604FF0800005F099FD0346A0
:100FF000002B15D04FF0800005F0C2FD4FF003002C
:101000004FF0010100F012FC4FF47053C4F20103E1
:101010004FF47052C4F20102126822F080021A608A
:1010200080BD00BF80B483B000AF0346FB714FF0BA
:101030002003C4F20E23FA791A6007F10C07BD46AB
:1010400080BC704780B485B000AF78604FF000037B
:10105000FB604FF4E043C4F200031B68FB60FB68D5
:1010600023F0E003FB60FA687B6842EA0303FB605D
:101070004FF4E043C4F20003FA681A6007F1140762
:10108000BD4680BC704700BF80B483B000AF03464C
:10109000FB714FF01003C4F20E23FA791A6007F1C6
:1010A0000C07BD4680BC704780B483B000AF0346D8
:1010B000FB714FF0A403C4F20E23FA791A6007F112
:1010C0000C07BD4680BC704780B582B000AF4FF0C2
:1010D00004004FF0010100F0C7FF4FF00F033B6029
:1010E0004FF000037B714FF001033B714FF00003A1
:1010F000BB714FF00203FB713B464FF40060C4F23A
:101100000200194604F0C2FB4FF40063C4F202036C
:101110004FF00F025A8341F21863C2F200034FF4FA
:101120008042C4F202021A6041F21863C2F2000364
:101130004FF000021A7741F21863C2F200034FF039
:1011400000029A7741F21863C2F200034FF00002E6
:101150005A7741F21863C2F200031B681A6A41F21F
:101160001863C2F200035A6041F21863C2F200032E
:101170004FF000021A7541F21863C2F200034FF0FB
:1011800000029A6141F21863C2F200034FF00002BC
:10119000DA7707F10807BD4680BD00BF80B584B08F
:1011A00000AF78604FF0000000F0E8FA41F21863F9
:1011B000C2F200031B7F002B40F0D98041F218637C
:1011C000C2F200035B7F002B40F0D18041F2186334
:1011D000C2F200035B687A68D31AFB60FB68002BDD
:1011E00010DDFB68184600F091FC03461A4641F2F8
:1011F0001863C2F200031B68DB8B9A4213D84FF0CE
:101200000203B6E0FB68184600F080FC03461A466D
:1012100041F21863C2F200031B689B8B9A4202D80A
:101220004FF00203A5E0FB68002B03DAFB68C3F173
:101230000003FB60FB68184600F068FC03461A4692
:1012400041F21863C2F200031B685B8B9A4204D917
:101250004FF0010000F092FA03E04FF0000000F0C0
:101260008DFA41F21863C2F200035A687B689A4211
:1012700036D941F21863C2F20003DB7F022B02D1A0
:101280004FF0020375E041F21863C2F200037A687E
:101290009A6041F21863C2F200031B68DB8B1846A8
:1012A00000F0EEFB02467B68D21841F21863C2F2EE
:1012B00000031A6141F21863C2F200031B685B8BE2
:1012C000184600F0DDFB02467B68D21841F2186335
:1012D000C2F20003DA604FF0010000F077FA35E067
:1012E00041F21863C2F20003DB7F012B02D14FF001
:1012F00002033EE041F21863C2F200037A689A608A
:1013000041F21863C2F200031B689B8B184600F081
:10131000B7FB03467A68D21A41F21863C2F200039F
:101320001A6141F21863C2F200031B685B8B184616
:1013300000F0A6FB03467A68D21A41F21863C2F2A3
:101340000003DA604FF0000000F040FA41F2186349
:10135000C2F200034FF000029A7741F21863C2F222
:1013600000034FF003021A774FF0000301E04FF043
:101370000103184607F11007BD4680BD90B585B042
:1013800000AF02460B46FA71BB804FF0000000F040
:10139000F5F941F21863C2F200031B7F002B40F005
:1013A000E58141F21863C2F200035B7F002B40F03D
:1013B000DD81FB79032B00F2D68101A252F823F0E4
:1013C000D1130008D7130008D5140008C915000868
:1013D0004FF00003CCE141F21863C2F20003DB7F5F
:1013E000022B02D14FF00203C2E141F21863C2F2B4
:1013F00000035B68184600F0CFFB03461A46BB8823
:10140000D318FB8141F21863C2F200035B681846EF
:1014100000F0C2FB03461A46BB88D3189BB218469D
:1014200000F0FAFB024641F21863C2F200039A6030
:1014300041F21863C2F200039C6841F21863C2F2E1
:1014400000031B68DB8B184600F01AFB0346E21A08
:1014500041F21863C2F200031A6141F21863C2F24A
:1014600000039C6841F21863C2F200031B685B8BA7
:10147000184600F005FB0346E21A41F21863C2F277
:101480000003DA6041F21863C2F200034FF0000279
:101490009A7741F21863C2F200034FF001021A7703
:1014A000B7F9042041F21863C2F200031B685B8B9A
:1014B0009A4204DD4FF0010000F060F903E04FF0C4
:1014C000000000F05BF94FF0000000F07FF94FF0F2
:1014D00000034DE141F21863C2F20003DB7F012BF0
:1014E00002D14FF0020343E1B7F90430002B03DAD5
:1014F000BB88C3F10003BB8041F21863C2F2000352
:101500005B68184600F048FB03461A46BB88D31AAE
:101510009BB2184600F080FB024641F21863C2F20B
:1015200000039A6041F21863C2F200039C6841F222
:101530001863C2F200031B689B8B184600F0A0FAE8
:101540000346E21841F21863C2F200031A6141F245
:101550001863C2F200039C6841F21863C2F20003F0
:101560001B685B8B184600F08BFA0346E21841F2C9
:101570001863C2F20003DA6041F21863C2F200039A
:101580004FF000029A7741F21863C2F200034FF065
:1015900002021A77B7F9042041F21863C2F200037D
:1015A0001B685B8B9A4204DD4FF0010000F0E6F807
:1015B00003E04FF0000000F0E1F84FF0010000F010
:1015C00005F94FF00003D3E0BC8841F21863C2F282
:1015D00000035B68184600F0DFFA0346E31A9BB28B
:1015E000BB81B7F90C30002B55DB41F21863C2F216
:1015F0000003DB7F022B02D14FF00203B8E0BB886F
:10160000184600F009FB024641F21863C2F20003DB
:101610009A6041F21863C2F200039C6841F21863B9
:10162000C2F200031B68DB8B184600F029FA034660
:10163000E21A41F21863C2F200031A6141F2186320
:10164000C2F200039C6841F21863C2F200031B68F7
:101650005B8B184600F014FA0346E21A41F2186355
:10166000C2F20003DA60B7F90C2041F21863C2F24B
:1016700000031B685B8B9A4204DD4FF0010000F011
:101680007DF803E04FF0000000F078F84FF0000024
:1016900000F09CF856E041F21863C2F20003DB7FD1
:1016A000012B02D14FF0020362E0BB88184600F024
:1016B000B3FA024641F21863C2F200039A6041F2A3
:1016C0001863C2F200039C6841F21863C2F200037F
:1016D0001B689B8B184600F0D3F90346E21841F2D1
:1016E0001863C2F200031A6141F21863C2F20003E8
:1016F0009C6841F21863C2F200031B685B8B1846BA
:1017000000F0BEF90346E21841F21863C2F200038A
:10171000DA60B7F90C30C3F1000241F21863C2F28B
:1017200000031B685B8B9A4204DD4FF0010000F060
:1017300025F803E04FF0000000F020F84FF0010022
:1017400000F044F841F21863C2F200034FF00002C7
:101750009A7741F21863C2F200034FF003021A773E
:101760004FF0000304E04FF0020301E04FF00103EB
:10177000184607F11407BD4690BD00BF80B483B082
:1017800000AF0346FB71FB79002B02D0012B0AD07E
:1017900013E04FF40063C4F202034FF008021A830F
:1017A0004FF000030BE04FF40063C4F202034FF06C
:1017B00008025A834FF0000301E04FF0020318467D
:1017C00007F10C07BD4680BC704700BF80B483B0F2
:1017D00000AF0346FB71FB79002B02D0012B0FD029
:1017E0001DE04FF40063C4F202034FF002025A837B
:1017F0004FF40063C4F202034FF001021A830EE0BB
:101800004FF40063C4F202034FF002021A834FF454
:101810000063C4F202034FF001025A8300BF18466E
:1018200007F10C07BD4680BC704700BF80B584B08F
:1018300000AF02460B46FA71BB71FB7903F1FF332F
:10184000062B00F2AA8001A252F823F04F190008DB
:1018500097180008C5180008F31800086918000850
:10186000211900087D1900084FF40063C4F2020337
:101870004FF003025A83BB794FF002004FF0010191
:101880001A46FFF737FA41F21863C2F200034FF02D
:1018900000025A7790E04FF40063C4F202034FF065
:1018A0000B025A83BB794FF004004FF001011A4636
:1018B000FFF720FA41F21863C2F200034FF0020270
:1018C0005A7779E04FF40063C4F202034FF00B0241
:1018D0005A83BB794FF004004FF001011A46FFF71D
:1018E00009FA41F21863C2F200034FF002025A777C
:1018F00062E04FF40063C4F202034FF00B025A831C
:10190000BB794FF004004FF001011A46FFF7F2F9DE
:1019100041F21863C2F200034FF002025A774BE023
:101920004FF40063C4F202034FF00B025A83BB79F9
:101930004FF004004FF001011A46FFF7DBF941F2C6
:101940001863C2F200034FF002025A7734E04FF4FA
:101950000063C4F202034FF00B025A83BB794FF0CD
:1019600004004FF001011A46FFF7C4F941F2186371
:10197000C2F200034FF002025A771DE04FF40063F9
:10198000C4F202034FF00B025A8341F21863C2F211
:1019900000034FF000025A770EE04FF40063C4F2E8
:1019A00002034FF00B025A8341F21863C2F20003A4
:1019B0004FF002025A7700BF4FF00103FB73BB796F
:1019C000002B0FD141F22073C2F200031A6807F115
:1019D0000F03104619464FF000024FF0000304F0C9
:1019E0002DFB12E04FF00003BB6041F22073C2F206
:1019F0000003196807F1080307F10F0208461146B2
:101A00001A464FF0000304F0C5FB41F21863C2F21E
:101A10000003FA799A7741F21863C2F200034FF09B
:101A200000021A77184607F11007BD4680BD00BFB7
:101A300080B483B000AF44F24023C0F20F037B6058
:101A40004FF40063C4F202034FF004021A8300BF94
:101A50007B68002B0CBF00230123DBB27A6802F104
:101A6000FF327A60002BF3D14FF40063C4F202031B
:101A70004FF004025A8307F10C07BD4680BC704743
:101A8000B0B582B000AF0346FB80FB8818464FF02C
:101A9000000141F21863C2F200031B68DB681C46B8
:101AA0004FF0000541F21863C2F200031B685B6847
:101AB0001A464FF00003A21A65EB030302FB01F480
:101AC00000FB03F56419A0FB0223E418234641F24E
:101AD0001861C2F2000109680989084641F21861DB
:101AE000C2F2000109680988411A0C464FEAE17503
:101AF0001046194622462B4605F0A0FF02460B462B
:101B00001346184607F10807BD46B0BDF0B583B0CF
:101B100000AF78607B6818464FF0000141F218630F
:101B2000C2F200031B681B891C464FF0000541F2FE
:101B30001863C2F200031B681E8833461A464FF032
:101B40000003A21A65EB030302FB01F400FB03F59B
:101B50006419A0FB0223E418234641F21861C2F283
:101B600000010968C86841F21861C2F20001096801
:101B70004968411A0C464FF00005104619462246A6
:101B80002B4605F05BFF02460B4693B2184607F161
:101B90000C07BD46F0BD00BF90B583B000AF7860C4
:101BA00041F21863C2F200031B685A697B689A42CB
:101BB00016D841F21863C2F200031B681C8A41F276
:101BC0001863C2F200031B685B697A68D31A03F1D9
:101BD00001031846FFF79AFF0346E3189BB216E08D
:101BE00041F21863C2F200031B681C8A41F21863B9
:101BF000C2F200031B685A697B68D31A1846FFF7C4
:101C000085FF0346E31A9BB203F1FF339BB21846EC
:101C100007F10C07BD4690BD90B585B000AF0346F7
:101C2000FB8041F21863C2F200031B681B8AFA882A
:101C3000D31A9BB2FB81B7F90E30002B0CDB41F2BB
:101C40001863C2F200031B685C69FB891846FFF742
:101C500017FF0346E3180FE041F21863C2F20003D6
:101C60001B685C69FB89C3F100039BB29BB21846F9
:101C7000FFF706FF0346E31A184607F11407BD46AF
:101C800090BD00BF80B582B000AF48F2C073C0F60F
:101C900000037B6040F20003C2F200033B600BE0F4
:101CA0007B681A683B681A603B6803F104033B6079
:101CB0007B6803F104037B603A6840F2E403C2F2FC
:101CC00000039A42ECD3074807494FF000028842CC
:101CD000B8BF40F8042BFADB00F0A0F907F10807C1
:101CE000BD4680BDE80000202817002080B400AF6A
:101CF000FEE700BF80B500AF4FF480204FF0010138
:101D000000F0B2F94FF080504FF0010100F0DAF925
:101D100080BD00BF80B586B000AFF860B9601346E3
:101D2000FB714FF00003FB754FF00100FFF77AF9EC
:101D30004FF00100FFF7B8F94FF00003FB750BE01F
:101D4000FA68FB7DD318B968FA7D8A1812781A7080
:101D5000FB7D03F10103FB75FA7DFB799A42EFD31A
:101D60004FF00000FFF75EF907F11807BD4680BD90
:101D700080B483B000AF0346FB804FF44053C4F2FD
:101D80000003FA881A6007F10C07BD4680BC704753
:101D900080B483B000AF0346FB714FF44053C4F2EC
:101DA0000003FA795A6007F10C07BD4680BC704702
:101DB00080B483B000AF0346FB804FF44053C4F2BD
:101DC0000003FA889A6007F10C07BD4680BC704793
:101DD00080B400AF4FF44053C4F200034AF6AA2285
:101DE0001A60BD4680BC704780B400AF4FF44053CA
:101DF000C4F200034CF6CC421A60BD4680BC70476A
:101E000080B483B000AF4FF00003FB714FF00003CC
:101E1000BB7140F2E803C2F200031B7803F1010337
:101E2000DAB240F2E803C2F200031A7040F2E803AB
:101E3000C2F200031B78022B1AD84FF00003FB718B
:101E400012E0FA7941F23863C2F200034FF0160152
:101E500001FB02F29B1803F148034FF000021A72D3
:101E6000FB7903F10103FB71FB79012BE9D9A6E0B2
:101E700040F2E803C2F200031B78052B06D940F2BA
:101E8000E803C2F200034FF000021A7040F2E803C8
:101E9000C2F200031B78032B40F090804FF0000348
:101EA000FB7186E0FA7941F23863C2F200034FF029
:101EB000160101FB02F29B1803F14803DB79002BAA
:101EC0000ED0FA7941F23863C2F200034FF01601E6
:101ED00001FB02F29B1803F148035B7A002B1ED131
:101EE000FA7941F23863C2F200034FF0160101FBA8
:101EF00002F29B1803F148034FF000025A72FA797C
:101F000041F23863C2F200034FF0160101FB02F206
:101F10009B1803F148034FF000021A7245E0FA796A
:101F200041F23863C2F200034FF0160101FB02F2E6
:101F30009B1803F148035B7AFF2B1CD0FA7941F21E
:101F40003863C2F200034FF0160101FB02F15B1887
:101F500003F148035B7A03F1FF33D9B241F23863EE
:101F6000C2F200034FF0160000FB02F29B1803F1CF
:101F700048030A465A72F979FA7941F23863C2F293
:101F800000034FF0160000FB02F29B1803F1480318
:101F9000DA7941F23863C2F200034FF0160000FB19
:101FA00001F15B1803F148031A72FB7903F1010395
:101FB000FB71FB79012B7FF675AF00E000BF07F1E5
:101FC0000C07BD4680BC704780B483B000AF134699
:101FD0000246FA710A46BA717B71FA7941F23863A6
:101FE000C2F200034FF0160101FB02F29B1803F14D
:101FF0004803BA79DA71FA7941F23863C2F2000320
:102000004FF0160101FB02F29B1803F148037A79A5
:102010005A7207F10C07BD4680BC704780B500AF0F
:1020200003F01AFE05F0BAFCFFF764FEFFF74CF868
:1020300000F01CFAFEF7C2FE00F08AF901F044FC41
:10204000FEF70CFD02F00CF800F0DAFA00F0FEFDED
:10205000FEE700BF80B400AFFEE700BF80B483B0EE
:1020600000AF78603960FEE780B483B000AF78607D
:102070000B46FB70FB78002B0ED04FF46053C4F27C
:1020800002034FF46052C4F20202126B11467A68E6
:1020900041EA02021A630FE04FF46053C4F20203F4
:1020A0004FF46052C4F20202126B11467A686FEA72
:1020B000020201EA02021A6307F10C07BD4680BC66
:1020C000704700BF80B483B000AF78600B46FB70F0
:1020D000FB78002B0ED04FF46053C4F202034FF490
:1020E0006052C4F20202126C11467A6841EA02029E
:1020F0001A640FE04FF46053C4F202034FF46052CD
:10210000C4F20202126C11467A686FEA020201EA16
:1021100002021A6407F10C07BD4680BC704700BF7D
:1021200080B483B000AF78600B46FB70FB78002B67
:102130000ED04FF46053C4F202034FF46052C4F265
:102140000202526C11467A6841EA02025A640FE0B8
:102150004FF46053C4F202034FF46052C4F202021F
:10216000526C11467A686FEA020201EA02025A646E
:1021700007F10C07BD4680BC704700BF80B400AFBC
:1021800041F23863C2F200034FF002021A7041F2CA
:102190003863C2F200034FF00002DA8741F238637D
:1021A000C2F200034FF000029A8741F23863C2F294
:1021B00000034FF00102A3F8402041F23863C2F25D
:1021C00000034FF00502A3F8422041F23863C2F247
:1021D000000340F60922A3F8442041F23863C2F21A
:1021E00000034FF41062A3F8462041F23863C2F2B4
:1021F0000003B3F8423003F1FF339BB29BB243F4C8
:1022000030639BB29AB241F23863C2F20003A3F882
:10221000482041F23863C2F2000340F60142A3F8BD
:102220004A2041F23863C2F200034FF47062A3F80F
:102230004C2041F23863C2F200034FF0000283F8F1
:102240004F2041F23863C2F2000393F84F2041F26D
:102250003863C2F2000383F8502041F23863C2F2BF
:1022600000034FF0000283F8512041F23863C2F2BC
:1022700000034FF00102A3F8542041F23863C2F288
:1022800000034FF00002A3F8522041F23863C2F27B
:1022900000034FF00102A3F8562041F23863C2F266
:1022A00000034FF00502A3F8582041F23863C2F250
:1022B000000340F60922A3F85A2041F23863C2F223
:1022C00000034FF41062A3F85C2041F23863C2F2BD
:1022D0000003B3F8583003F1FF339BB29BB243F4D1
:1022E00030639BB29AB241F23863C2F20003A3F8A2
:1022F0005E2041F23863C2F2000340F60142A3F8C7
:10230000602041F23863C2F200034FF47062A3F818
:10231000622041F23863C2F200034FF0000283F8FA
:10232000652041F23863C2F2000393F8652041F260
:102330003863C2F2000383F8662041F23863C2F2C8
:1023400000034FF0000283F86720BD4680BC704751
:1023500080B500AFFFF712FF04F022FC4FF000033E
:10236000184680BD80B582B000AF4FF00003C4F2C4
:1023700001034FF6FE721A824FF00003C4F201030C
:102380001B889BB203F01003002B0CD041F21863A2
:10239000C2F200035B6803F1FF3241F21863C2F23C
:1023A00000035A600BE041F21863C2F200035B685D
:1023B00003F1010241F21863C2F200035A6041F2D4
:1023C0001863C2F200035B7F002B4BD141F218630C
:1023D000C2F200039B7F002B44D141F21863C2F28A
:1023E00000031B7F002B3DD041F21863C2F20003B3
:1023F0005A6841F21863C2F20003DB689A4203D1C3
:102400004FF00000FFF7BAF941F21863C2F200037F
:102410005A6841F21863C2F200031B699A4221D143
:102420004FF40063C4F202034FF003025A834FF0EB
:1024300005004FF00101FFF7F9F941F21863C2F20C
:1024400000035B687B6041F21863C2F200031B6803
:1024500003F1200207F10403104619464FF004026D
:10246000FFF758FC07F10807BD4680BD80B58AB06C
:1024700000AF4FF001004FF00101FFF7F5FD4FF005
:1024800001004FF00101FFF74BFE07F11C03184656
:1024900004F0BAFF4FF001033B624FF00003BB832F
:1024A0004FF00003BB844FF01003FB8307F11C03C4
:1024B0004FF00000C4F20100194604F029FF4FF06C
:1024C0000000C4F201004FF003014FF00A024FF088
:1024D0000A0305F0C9F84FF00003C4F201034FF0FE
:1024E00022021A844FF00000C4F201004FF00101F3
:1024F0004FF0010205F092F84FF00000C4F2010025
:102500004FF0010104F09EFF4FF4407004F01CFEF8
:102510004FF01D033B764FF00F037B764FF00E0319
:10252000BB764FF00103FB7607F11803184604F061
:102530001FFE4FF019033B7607F11803184604F00D
:1025400017FE4FF00003BB814FF00F03BB8207F172
:102550000C034FF00000C4F20100194604F092FF92
:1025600007F10C034FF48060C4F20000194604F038
:1025700089FF4FF00403BB814FF00F03BB8207F1CB
:102580000C034FF00000C4F20100194604F07AFF7A
:102590004FF440737B604FF002033B724FF0010336
:1025A000FB724FF00003BB724FF000037B7207F128
:1025B00004034FF00000C4F20200194603F066F96C
:1025C0004FF00000C4F202004FF008014FF001028A
:1025D00003F028FA4FF00000C4F202004FF00901A6
:1025E0004FF0010203F01EFA4FF00003C4F20103A2
:1025F0004FF000025A6207F12807BD4680BD00BFB8
:1026000080B586B004AF4FF00003FB710EE0FB799C
:1026100041F2A062C2F200024FEAC303D3184FF0A6
:1026200001021A71FB7903F10103FB71FB79032BA2
:10263000EDD945F25550FFF79BFB4FF00600FFF731
:10264000A7FB40F27120FFF7B3FBFFF7C1FBFFF7D9
:10265000CBFB48F24C73C0F600034FF0010200922E
:102660004FF0000201924FF0000202924FF0000280
:10267000039242F29160C0F6000019464FF040020A
:102680004FF0000300F064F807F10807BD4680BD75
:1026900080B582B000AF786041F2A063C2F200035F
:1026A0001B68002B06D141F2A063C2F200031B7924
:1026B000012B2BD141F2A063C2F200039B68002BD7
:1026C00006D141F2A063C2F200031B7B012B1DD196
:1026D00041F2A063C2F200031B69002B06D141F254
:1026E000A063C2F200031B7D012B0FD141F2A06356
:1026F000C2F200039B69002B06D141F2A063C2F233
:1027000000031B7F012B01D1FFF762FB41F2A063A5
:10271000C2F200034FF000021A6041F2A063C2F25D
:1027200000034FF000029A6041F2A063C2F200037E
:102730004FF000021A6141F2A063C2F200034FF0B1
:1027400000029A614FF4FA7000F0F2F8A4E700BFBB
:1027500080B58AB002AFF860B9603B601346FB8079
:10276000FB68002B04D14FF0500080F31188FEE786
:10277000BB6A042B04D94FF0500080F31188FEE7A8
:10278000FB881846396B00F077FFB861BB69002BF6
:1027900000F0B080BB691A6BFB8803F1FF334FEA8E
:1027A0008303D3187B617B6923F007037B617B691B
:1027B00003F00703002B04D04FF0500080F3118882
:1027C000FEE7FB880093B869B968BA6A7B6B00F0D2
:1027D00031FE7869F9683A6803F042FF03461A4609
:1027E000BB691A60FB6A002B02D0FB6ABA691A60E7
:1027F00003F0CAFF40F2C413C2F200031B6803F1E6
:10280000010240F2C413C2F200031A6040F2EC036A
:10281000C2F200031B68002B0FD140F2EC03C2F29E
:102820000003BA691A6040F2C413C2F200031B68C5
:10283000012B18D100F03CFE15E040F2D413C2F297
:1028400000031B68002B0ED140F2EC03C2F2000320
:102850001B68DA6ABB6A9A4205D840F2EC03C2F2FE
:102860000003BA691A60BB69DA6A40F2CC13C2F29B
:1028700000031B689A4206D9BB69DA6A40F2CC139E
:10288000C2F200031A6040F2E813C2F200031B68B0
:1028900003F1010240F2E813C2F200031A60BB69BF
:1028A000DA6A40F2D013C2F200031B689A4206D9DA
:1028B000BB69DA6A40F2D013C2F200031A60BB6946
:1028C000DA6A13464FEA83039B184FEA83031A46DA
:1028D00040F2F003C2F20003D218BB6903F1040313
:1028E0001046194603F028F94FF00103FB6103F08D
:1028F00061FF02E04FF0FF33FB61FB69012B11D157
:1029000040F2D413C2F200031B68002B0AD040F23D
:10291000EC03C2F200031B68DA6ABB6A9A4201D276
:1029200003F026FFFB69184607F12007BD4680BD6E
:1029300080B584B000AF78604FF00003FB607B6827
:10294000002B19D000F0C4F940F2C813C2F2000302
:102950001A687B68D318BB6040F2EC03C2F2000334
:102960001B6803F10403184603F04CF9B86800F043
:102970003DFE00F0BFF9F860FB68002B01D103F0C9
:10298000F7FE07F11007BD4680BD00BF80B584B0DB
:1029900000AF786003F0F8FE40F2EC03C2F20003EF
:1029A0001B687A689A4202D14FF000037B607B6813
:1029B000002B05D140F2EC03C2F200031B6800E0DB
:1029C0007B68FB60FB6803F10403184603F01AF907
:1029D000FB689B6A002B05D0FB6803F118031846BF
:1029E00003F010F9FB6803F1040340F2B010C2F2E7
:1029F0000000194603F0A0F803F0DCFE7B68002B12
:102A000020D140F2D413C2F200031B68002B02D085
:102A100003F0AEFE16E040F2B013C2F200031B68F2
:102A20001A4640F2C413C2F200031B689A4207D14F
:102A300040F2EC03C2F200034FF000021A6001E022
:102A400000F0F6FA07F11007BD4680BD80B485B0EE
:102A500000AF78604FF00003FB607B68BB607B6871
:102A6000002B04D14FF0500080F31188FEE7BB68C3
:102A70005A6940F2B013C2F200039A420ED1BB6809
:102A80009A6A40F28413C2F200039A4206D0BB68ED
:102A90009B6A002B02D14FF00103FB60FB681846D4
:102AA00007F11407BD4680BC704700BF80B584B0F5
:102AB00000AF78607B68002B04D14FF0500080F3AA
:102AC0001188FEE77B68FB60FB68002B48D040F272
:102AD000EC03C2F200031B68FA689A4240D003F08C
:102AE00053FEF868FFF7B2FF0346012B36D1FB68AF
:102AF00003F10403184603F085F8FB68DA6A40F234
:102B0000D013C2F200031B689A4206D9FB68DA6A46
:102B100040F2D013C2F200031A60FB68DA6A13466F
:102B20004FEA83039B184FEA83031A4640F2F003EF
:102B3000C2F20003D218FB6803F1040310461946E1
:102B400002F0FAFFFB68DA6A40F2EC03C2F200031B
:102B50001B68DB6A9A4201D303F00AFE03F02AFEE7
:102B600007F11007BD4680BD80B586B000AF786024
:102B70004FF000037B617B68002B04D14FF05000C5
:102B800080F31188FEE77B683B614FF00003FB6038
:102B90004FF0500080F311883869FFF757FF034664
:102BA000012B49D140F2D813C2F200031B68002B5D
:102BB00038D13B69DA6A40F2EC03C2F200031B68C9
:102BC000DB6A9A4234BF002301237B613B6903F136
:102BD0000403184603F016F83B69DA6A40F2D01392
:102BE000C2F200031B689A4206D93B69DA6A40F2D6
:102BF000D013C2F200031A603B69DA6A13464FEA47
:102C000083039B184FEA83031A4640F2F003C2F293
:102C10000003D2183B6903F104031046194602F081
:102C20008BFF09E03B6903F1180340F28410C2F204
:102C30000000194602F080FF4FF0000080F3118879
:102C40007B69184607F11807BD4680BD80B586B080
:102C500004AF48F25473C0F600034FF00002009234
:102C60004FF0000201924FF0000202924FF000027A
:102C7000039243F21140C0F6000019464FF046029D
:102C80004FF00003FFF764FD78607B68012B13D1E0
:102C90004FF0500080F3118840F2D413C2F20003C9
:102CA0004FF001021A6040F2C813C2F200034FF065
:102CB00000021A6003F024FD7B68002B04D14FF062
:102CC000500080F31188FEE707F10807BD4680BD7C
:102CD00080B400AF40F2D813C2F200031B6803F1C6
:102CE000010240F2D813C2F200031A60BD4680BC54
:102CF000704700BF90B583B000AF4FF000037B601A
:102D000040F2D813C2F200031B68002B04D14FF02D
:102D1000500080F31188FEE703F036FD40F2D8132F
:102D2000C2F200031B6803F1FF3240F2D813C2F273
:102D300000031A6040F2D813C2F200031B68002B94
:102D400040F0868040F2C413C2F200031B68002BDF
:102D50007ED04FF000033B603DE040F28413C2F2AE
:102D60000003DB68DB681C4604F11803184602F018
:102D700049FF04F10403184602F044FFE26A40F2FE
:102D8000D013C2F200031B689A4205D9E26A40F2EE
:102D9000D013C2F200031A60E26A13464FEA8303BB
:102DA0009B184FEA83031A4640F2F003C2F2000375
:102DB000D21804F104031046194602F0BDFEE26A7F
:102DC00040F2EC03C2F200031B68DB6A9A4202D3B2
:102DD0004FF001033B6040F28413C2F200031B6812
:102DE000002BBAD140F2DC13C2F200031B68002BA7
:102DF00018D00DE000F034F840F2DC13C2F200030A
:102E00001B6803F1FF3240F2DC13C2F200031A60C8
:102E100040F2DC13C2F200031B68002BEAD14FF032
:102E200001033B603B68012B06D040F2E013C2F285
:102E300000031B68012B0BD14FF001037B6040F2B4
:102E4000E013C2F200034FF000021A6003F090FC9E
:102E500003F0B0FC7B68184607F10C07BD4690BD37
:102E600080B584B000AF40F2D813C2F200031B68F3
:102E7000002B40F0CD8040F2C813C2F200031B6863
:102E800003F1010240F2C813C2F200031A6040F2DB
:102E9000C813C2F200031B68002B4DD140F27C1313
:102EA000C2F200031B681B68002B04D04FF05000D7
:102EB00080F31188FEE740F27C13C2F200031B6826
:102EC000FB6040F28013C2F200031A6840F27C13E8
:102ED000C2F200031A6040F28013C2F20003FA68E3
:102EE0001A6040F2E413C2F200031B6803F101020E
:102EF00040F2E413C2F200031A6040F27C13C2F203
:102F000000031B681B68002B07D140F20003C2F2CC
:102F100000034FF0FF321A600EE040F27C13C2F261
:102F200000031B68DB68DB68BB60BB685A6840F263
:102F30000003C2F200031A6040F2C813C2F2000399
:102F40001A6840F20003C2F200031B689A426BD376
:102F500040F27C13C2F200031B681B68002B07D1F0
:102F600040F20003C2F200034FF0FF321A605BE050
:102F700040F27C13C2F200031B68DB68DB68BB60B5
:102F8000BB685B687B6040F2C813C2F200031A683A
:102F90007B689A4206D240F20003C2F200037A68CC
:102FA0001A6041E0BB6803F10403184602F02AFEF0
:102FB000BB689B6A002B05D0BB6803F11803184659
:102FC00002F020FEBB68DA6A40F2D013C2F20003BE
:102FD0001B689A4206D9BB68DA6A40F2D013C2F283
:102FE00000031A60BB68DA6A13464FEA83039B1832
:102FF0004FEA83031A4640F2F003C2F20003D218EC
:10300000BB6803F104031046194602F095FD9FE7E3
:1030100040F2DC13C2F200031B6803F1010240F22C
:10302000DC13C2F200031A6007F11007BD4680BD31
:1030300080B582B000AF40F2D813C2F200031B6823
:10304000002B07D040F2E013C2F200034FF0010260
:103050001A609CE040F2EC03C2F200031B681A689D
:1030600040F2EC03C2F200031B681B6B9A420FD8BC
:1030700040F2EC03C2F200031A6840F2EC03C2F221
:1030800000031B6803F1340310461946FEF7E6FF00
:1030900040F2EC03C2F200031B681B6B184648F2B7
:1030A0005C71C0F600014FF0140205F089F9034687
:1030B000002B29D040F2EC03C2F200031A6840F260
:1030C000EC03C2F200031B6803F1340310461946F7
:1030D000FEF7C4FF19E040F2D013C2F200031B68F0
:1030E000002B04D14FF0500080F31188FEE740F22E
:1030F000D013C2F200031B6803F1FF3240F2D01379
:10310000C2F200031A6000E000BF40F2D013C2F226
:1031100000031A6813464FEA83039B184FEA8303A0
:103120001A4640F2F003C2F20003D3181B68002BCA
:10313000D1D040F2D013C2F200031A6813464FEA0E
:1031400083039B184FEA83031A4640F2F003C2F24E
:103150000003D3187B607B685B685B681A467B68FA
:103160005A607B685A687B6803F108039A4205D16C
:103170007B685B685B681A467B685A607B685B6843
:10318000DB681A4640F2EC03C2F200031A6007F152
:103190000807BD4680BD00BF80B584B000AF786031
:1031A00039607B68002B04D14FF0500080F3118808
:1031B000FEE740F2EC03C2F200031B6803F11803C0
:1031C0007868194602F0E2FC40F2EC03C2F2000318
:1031D0001B6803F10403184602F014FD3B68B3F1C9
:1031E000FF3F0ED140F2EC03C2F200031B6803F173
:1031F000040340F2B010C2F20000194602F09CFC39
:103200000AE040F2C813C2F200031A683B68D31800
:10321000FB60F86800F0EAF907F11007BD4680BDD1
:1032200080B584B000AF78607B68DB68DB68BB602A
:10323000BB68002B04D14FF0500080F31188FEE7EB
:10324000BB6803F11803184602F0DCFC40F2D81307
:10325000C2F200031B68002B2BD1BB6803F10403EF
:10326000184602F0CFFCBB68DA6A40F2D013C2F213
:1032700000031B689A4206D9BB68DA6A40F2D01391
:10328000C2F200031A60BB68DA6A13464FEA83038E
:103290009B184FEA83031A4640F2F003C2F2000380
:1032A000D218BB6803F104031046194602F044FC2F
:1032B00009E0BB6803F1180340F28410C2F2000079
:1032C000194602F039FCBB68DA6A40F2EC03C2F23C
:1032D00000031B68DB6A9A4203D34FF00103FB60D3
:1032E00002E04FF00003FB60FB68184607F110078F
:1032F000BD4680BD80B483B000AF78607B68002B92
:1033000004D14FF0500080F31188FEE740F2E4133F
:10331000C2F200031A687B681A6040F2C813C2F256
:1033200000031A687B685A6007F10C07BD4680BC31
:10333000704700BF80B584B000AF786039607B68AB
:10334000002B04D14FF0500080F31188FEE73B685A
:10335000002B04D14FF0500080F31188FEE703F0FA
:1033600013FA3B681B68B3F1FF3F03D14FF0000332
:10337000FB6038E07B681A6840F2E413C2F2000395
:103380001B689A420CD07B685A6840F2C813C2F29C
:1033900000031B689A4203D84FF00103FB6022E050
:1033A00040F2C813C2F200031A687B685B68D21A45
:1033B0003B681B689A4213D23B681A687B6859685D
:1033C00040F2C813C2F200031B68CB1AD2183B6844
:1033D0001A607868FFF78EFF4FF00003FB6002E091
:1033E0004FF00103FB6003F0E5F9FB68184607F1B5
:1033F0001007BD4680BD00BF80B400AF40F2E013AF
:10340000C2F200034FF001021A60BD4680BC704753
:1034100080B582B000AF786000E000BF00F09AF89D
:1034200040F2F003C2F200031B68012BF5D903F050
:103430009FF9F3E780B584B000AFF860B9607A60B7
:103440003B60FB6803F134031A46BB68104619461B
:103450004FF00A0205F012F9FB684FF0000283F802
:103460003D207B68042B02D94FF004037B60FB688E
:103470007A68DA62FB687A681A64FB6803F104030D
:10348000184602F04BFBFB6803F11803184602F0E4
:1034900045FBFB68FA681A617B68C3F10502FB68AB
:1034A0009A61FB68FA685A6207F11007BD4680BD51
:1034B00080B582B000AF4FF000037B6013E07A6804
:1034C00013464FEA83039B184FEA83031A4640F2E0
:1034D000F003C2F20003D318184602F0FBFA7B682F
:1034E00003F101037B607B68042BE8D940F25410A0
:1034F000C2F2000002F0EEFA40F26810C2F20000E0
:1035000002F0E8FA40F28410C2F2000002F0E2FA9F
:1035100040F29810C2F2000002F0DCFA40F2B01063
:10352000C2F2000002F0D6FA40F27C13C2F20003AD
:1035300040F25412C2F200021A6040F28013C2F24A
:10354000000340F26812C2F200021A6007F1080795
:10355000BD4680BD80B582B000AF40F2AC13C2F270
:1035600000031B68002B3CD0FFF7B2FB40F298131E
:10357000C2F200031B68002B14BF002301237B60F1
:10358000FFF7B8FB7B68002B2BD103F0FDF840F26E
:103590009813C2F20003DB68DB683B603B6803F111
:1035A0000403184602F02EFB40F2C413C2F20003DB
:1035B0001B6803F1FF3240F2C413C2F200031A6029
:1035C00040F2AC13C2F200031B6803F1FF3240F279
:1035D000AC13C2F200031A6003F0ECF8386800F094
:1035E00085F807F10807BD4680BD00BF80B582B0F1
:1035F00000AF786040F2EC03C2F200031B687A6807
:103600005A6040F2C813C2F200031B687A689A42FB
:1036100010D240F28013C2F200031A6840F2EC03A9
:10362000C2F200031B6803F104031046194602F0BE
:10363000ADFA1DE040F27C13C2F200031A6840F2BA
:10364000EC03C2F200031B6803F1040310461946A1
:1036500002F09CFA40F20003C2F200031B687A6891
:103660009A4205D240F20003C2F200037A681A605F
:1036700007F10807BD4680BD80B584B000AF0346A2
:103680003960FB804FF0440003F0E6FD0346FB6029
:10369000FB68002B23D03B68002B07D1FB884FEA47
:1036A0008303184603F0D8FD034600E03B68FA6840
:1036B0001363FB681B6B002B06D1F86803F01EFE3A
:1036C0004FF00003FB600AE0FB681A6BFB884FEACF
:1036D000830310464FF0A5011A4604F045FFFB682E
:1036E000184607F11007BD4680BD00BF80B582B007
:1036F00000AF78607B681B6B184603F0FFFD7868AD
:1037000003F0FCFD07F10807BD4680BD80B483B01F
:1037100000AF40F2EC03C2F200031B687B607B68E1
:10372000184607F10C07BD4680BC704780B584B0D1
:1037300000AF78607B68FB607B68002B04D14FF0A2
:10374000500080F31188FEE7FB68DA6A40F2EC0370
:10375000C2F200031B68DB6A9A4257D240F2EC03C4
:10376000C2F200031B68DB6AC3F10502FB689A61C1
:10377000FB685969FB68DA6A13464FEA83039B18B2
:103780004FEA83031A4640F2F003C2F20003D31853
:10379000994233D1FB6803F10403184602F032FA70
:1037A00040F2EC03C2F200031B68DA6AFB68DA62DB
:1037B000FB68DA6A40F2D013C2F200031B689A4237
:1037C00006D9FB68DA6A40F2D013C2F200031A602D
:1037D000FB68DA6A13464FEA83039B184FEA8303B8
:1037E0001A4640F2F003C2F20003D218FB6803F15C
:1037F00004031046194602F09FF907E040F2EC037B
:10380000C2F200031B68DA6AFB68DA6207F110078C
:10381000BD4680BD80B584B000AF78607B68FB603A
:103820007B68002B3AD0FB68DA6AFB681B6C9A4213
:1038300034D0FB6803F10403184602F0E3F9FB6897
:103840001A6CFB68DA62FB68DB6AC3F10502FB688D
:103850009A61FB68DA6A40F2D013C2F200031B6877
:103860009A4206D9FB68DA6A40F2D013C2F200032A
:103870001A60FB68DA6A13464FEA83039B184FEA23
:1038800083031A4640F2F003C2F20003D218FB6829
:1038900003F104031046194602F04EF907F1100730
:1038A000BD4680BD80B483B000AF0346FB8003E01B
:1038B000FB8803F1FF33FB80FB88002BF8D107F175
:1038C0000C07BD4680BC704780B586B004AF4FF092
:1038D00005004FF00101FEF7C7FB4FF470633B603A
:1038E0004FF000037B714FF001033B714FF0010378
:1038F000BB714FF00003FB713B464FF40060C4F214
:103900000200194601F0C2FF4FF41C433B604FF028
:1039100000037B714FF000033B714FF00103FB711B
:103920003B464FF00000C4F20200194601F0AEFF22
:103930004FF40063C4F202034FF470621A8341F241
:10394000A063C2F200034FF001021A754FF00200AB
:103950004FF001014FF0000202F0D2FA024641F2AC
:10396000C063C2F200031A6048F27073C0F600032D
:103970004FF0010200924FF0000201924FF000025E
:1039800002924FF00002039243F6A910C0F6000025
:1039900019464FF040024FF00003FEF7D9FE07F141
:1039A0000807BD4680BD00BF80B586B000AF786017
:1039B0004FF00003BB754FF000037B754FF0000321
:1039C000FB754FF000037B824FF41C437B8241F276
:1039D000A063C2F200034FF000021A7500F090F8E5
:1039E0000346FB734FF00A00FEF7A2FF00F088F8D1
:1039F00003467B74FB7BFF2B2FD0FB7B7A7C9A42A8
:103A00006CD1FB7BBB73FB7D132B04D8FB7D03F1D7
:103A10000103FB7562E0FB7D142B5FD14FF01503B2
:103A2000FB75FB7B03F11003DBB2FB7341F2C06358
:103A3000C2F200031B68002B50D041F2C063C2F2F7
:103A400000031A6807F10F03104619464FF00002F1
:103A50004FF0000302F0F2FA40E0FB7D002B19D09A
:103A6000FB7D132B16D841F2C063C2F200031B6822
:103A7000002B2DD041F2C063C2F200031A6807F197
:103A80000E03104619464FF000024FF0000302F0FB
:103A9000D5FA1DE0FB7D152B1AD1BB7B03F120036A
:103AA000DBB2BB7341F2C063C2F200031B68002BA0
:103AB0000ED041F2C063C2F200031A6807F10E0390
:103AC000104619464FF000024FF0000302F0B6FA1C
:103AD0004FF0FF033B744FF00003FB7541F2A0630E
:103AE000C2F200031B6903F1010241F2A063C2F2BA
:103AF00000031A614FF03200FEF71AFF6EE700BFB5
:103B000080B582B000AF4FF00003FB714FF00003AF
:103B1000BB804FF41C43BB804FF40063C4F202032C
:103B20004FF470621A834FF00003FB71FEE0FB79E3
:103B3000032B00F2F78001A252F823F04D3B00085E
:103B4000C33B0008393C0008AF3C00084FF4006359
:103B5000C4F202034FF480725A834FF00A00FFF759
:103B6000A1FE4FF00003C4F202031B697B804FF4F7
:103B70000063C4F202034FF470621A837B886FEA19
:103B80000302BB8802EA0303B3F5006F10D0B3F55C
:103B9000006F03DCB3F5806F07D0C3E0B3F5805F3F
:103BA00009D0B3F5004F09D0BCE04FF00103C3E0EA
:103BB0004FF00203C0E04FF00303BDE04FF00A03F3
:103BC000BAE04FF40063C4F202034FF400725A8368
:103BD0004FF00A00FFF766FE4FF00003C4F2020345
:103BE0001B697B804FF40063C4F202034FF47062E0
:103BF0001A837B886FEA0302BB8802EA0303B3F5EA
:103C0000006F10D0B3F5006F03DCB3F5806F07D001
:103C100088E0B3F5805F09D0B3F5004F09D081E0AB
:103C20004FF0040388E04FF0050385E04FF00603F2
:103C300082E04FF00B037FE04FF40063C4F2020315
:103C40004FF480625A834FF00A00FFF72BFE4FF0CB
:103C50000003C4F202031B697B804FF40063C4F2CB
:103C600002034FF470621A837B886FEA0302BB88F9
:103C700002EA0303B3F5006F10D0B3F5006F03DC65
:103C8000B3F5806F07D04DE0B3F5805F09D0B3F591
:103C9000004F09D046E04FF007034DE04FF0080316
:103CA0004AE04FF0090347E04FF00C0344E04FF4C3
:103CB0000063C4F202034FF400625A834FF00A001B
:103CC000FFF7F0FD4FF00003C4F202031B697B8095
:103CD0004FF40063C4F202034FF470621A837B88CE
:103CE0006FEA0302BB8802EA0303B3F5006F10D04A
:103CF000B3F5006F03DCB3F5806F07D012E0B3F5C6
:103D0000805F09D0B3F5004F09D00BE04FF00D03F1
:103D100012E04FF000030FE04FF00F030CE04FF004
:103D20000E0309E0FB7903F10103FB71FB79032B1F
:103D30007FF6FDAE4FF0FF03184607F10807BD46BA
:103D400080BD00BF80B483B000AF78607A6840F275
:103D5000F013C2F200039A4206D041F21C73C2F281
:103D600000037A681A6000E000BF07F10C07BD4647
:103D700080BC704780B582B000AF41F21C73C2F2C4
:103D800000031B689B687B607A6840F2F013C2F204
:103D900000039A4206D141F20470C2F2000001F021
:103DA00059FA35E141F21C73C2F200031B6803F1BA
:103DB00011034FF000001946FCF740FA41F21C7362
:103DC000C2F200031B681B7CA3F10203062B00F266
:103DD0001E8101A252F823F0F53D0008033E0008C1
:103DE000113E00081F3E00089B3E0008173F0008D8
:103DF000933F000841F20470C2F2000001F02AFA79
:103E000006E141F20470C2F2000001F023FAFFE083
:103E100041F20470C2F2000001F01CFAF8E041F235
:103E20001863C2F200031B681B8B9BB21BB21846BF
:103E300041F20471C2F200014FF0000241F27073CE
:103E400001F026FB0346012B1ED141F20470C2F2A1
:103E5000000001F0FFF94FF001004FF0FF014FF0BB
:103E60000202FEF7B1F84FF002004FF001014FF0EF
:103E70000002FCF73FFF4FF001004FF0FF014FF051
:103E80000202FEF7A1F8C3E041F20470C2F20000A2
:103E90004FF0010101F0F4F9BAE041F21863C2F207
:103EA00000031B685B8B9BB21BB2184641F2047186
:103EB000C2F200014FF0000241F2707301F0E8FA23
:103EC0000346012B1ED141F20470C2F2000001F042
:103ED000C1F94FF001004FF0FF014FF00202FEF771
:103EE00073F84FF002004FF001014FF00002FCF7B1
:103EF00001FF4FF001004FF0FF014FF00202FEF70B
:103F000063F885E041F20470C2F200004FF0010155
:103F100001F0B6F97CE041F21863C2F200031B68BD
:103F20009B8B9BB21BB2184641F20471C2F2000196
:103F30004FF0000241F2707301F0AAFA0346012B20
:103F40001ED141F20470C2F2000001F083F94FF07B
:103F500001004FF0FF014FF00202FEF735F84FF07D
:103F600002004FF001014FF00002FCF7C3FE4FF0DA
:103F700001004FF0FF014FF00202FEF725F847E085
:103F800041F20470C2F200004FF0010101F078F933
:103F90003EE041F21863C2F200031B68DB8B9BB268
:103FA0001BB2184641F20471C2F200014FF0000248
:103FB00041F2707301F06CFA0346012B1ED141F2FD
:103FC0000470C2F2000001F045F94FF001004FF01B
:103FD000FF014FF00202FDF7F7FF4FF002004FF034
:103FE00001014FF00002FCF785FE4FF001004FF099
:103FF000FF014FF00202FDF7E7FF09E041F2047014
:10400000C2F200004FF0010101F03AF900E000BFF8
:104010004FF00003184607F10807BD4680BD00BFFA
:1040200080B500AF41F21C73C2F2000340F20402FB
:10403000C2F200021A6041F20473C2F200034FF0B0
:1040400000021A7241F20473C2F200034FF0200220
:104050005A72FFF78FFE4FF00003184680BD00BF75
:1040600080B584B004AF4FF002004FF001014FF073
:10407000000201F045FF024641F22073C2F2000344
:104080001A6048F27C73C0F600034FF00102009200
:104090004FF0000201924FF0000202924FF0000236
:1040A000039244F62170C0F6000019464FF08002DA
:1040B0004FF00003FEF74CFB41F2A063C2F2000395
:1040C0004FF001021A73BD4680BD00BF80B500AF3E
:1040D00041F21C73C2F200031B689B681846FFF78D
:1040E00031FEFFF747FE80BD80B500AF41F21C7383
:1040F000C2F200031B68DB681846FFF723FEFFF7D8
:1041000039FE80BD80B500AF41F21C73C2F20003DE
:104110001B681B681846FFF715FEFFF72BFE80BDD6
:1041200090B58DB002AF78600B46FB7041F218631A
:10413000C2F200031B7F002B16D0FB780C2B03D0A0
:10414000FB781C2B40F0E3864FF001004FF000019C
:10415000FDF76CFB4FF004004FF001014FF000023F
:10416000FCF7C8FD00F0D8BE41F21863C2F20003AC
:104170005B7F022B35D1FB781C2B40F0CA8641F2C5
:104180000470C2F2000001F065F841F21863C2F257
:1041900000039B7FA3F10203042B10D801A252F865
:1041A00023F000BFBF410008BF410008B94100082B
:1041B000BF410008BF410008FDF73AFC00E000BF26
:1041C00041F21863C2F200034FF000025A774FF039
:1041D00000004FF001014FF00002FCF78BFD00F0F2
:1041E0009BBE41F21863C2F200031B7D012B47D135
:1041F000FB780B2B22D141F21863C2F200034FF07F
:1042000000021A7541F21863C2F200039B69184656
:10421000FCF7C4FF0346002B08D04FF002004FF01C
:1042200001014FF00002FCF765FD07E04FF00000D0
:104230004FF001014FF00002FCF75CFDFB781C2BF6
:1042400040F0698641F20470C2F2000001F002F809
:1042500041F21863C2F200034FF000025A7741F2B4
:104260001863C2F200034FF000021A754FF001000C
:104270004FF001014FF00002FCF73CFD00F04CBE96
:104280007B681B7C03F1FF33072B00F2458601A2FC
:1042900052F823F0B542000819490008FB4900080C
:1042A000DF4A0008BB4B00088B4C00085B4D000840
:1042B0002B4E0008FB78A3F10B03242B00F219838B
:1042C00001A252F823F000BFE3460008F3480008BB
:1042D000F3480008F3480008F3480008F3480008D2
:1042E000F3480008F3480008F3480008F3480008C2
:1042F000F3480008F3480008F3480008F3480008B2
:10430000F34800085D430008834800087343000831
:10431000E7470008E143000817480008F348000891
:10432000F3480008F3480008F3480008F348000881
:10433000F3480008F3480008F3480008F348000871
:10434000F3480008F3480008F3480008F348000861
:1043500047480008F348000865480008FFF7C4FE16
:104360004FF004004FF001014FF00002FCF7C2FCD7
:10437000D1E241F20470C2F2000000F06BFF41F2A2
:104380001863C2F200035B7F022B19D141F218635C
:10439000C2F200039B7FA3F10203042B0FD801A2FA
:1043A00052F823F0BF430008BF430008B943000898
:1043B000BF430008BF430008FDF73AFB00E000BF21
:1043C00041F21863C2F200034FF000025A774FF037
:1043D00000004FF001014FF00002FCF78BFC9AE265
:1043E0004FF00003BB8241F20473C2F200035B7A18
:1043F0002B2B05D02D2B7ED0202B00F0F0806FE1F1
:1044000007F1140341F20470C2F2000019464EF69F
:104410009002CFF6FF7241F2707300F0C7FF0346BF
:10442000002B5FD141F21863C2F200035B681846AB
:10443000FDF7B2FB03461A46BB8A1BB2D21841F203
:1044400070739A4210DD4FF002004FF001014FF0FF
:104450000002FCF74FFC4FF001004FF0FF014FF05E
:104460000202FDF7B1FD3BE141F21863C2F2000325
:104470001B68DB8B1A46BB8A1BB29A4210DB4FF0DB
:1044800002004FF001014FF00002FCF733FC4FF047
:1044900001004FF0FF014FF00202FDF795FD1FE113
:1044A000BB8A1BB24FF001001946FCF767FF0346B9
:1044B000002B0ED04FF006004FF00001FDF7B6F9CB
:1044C0004FF002004FF001014FF00002FCF712FC28
:1044D00010E04FF000004FF001014FF00002FCF738
:1044E00009FC07E04FF002004FF001014FF000021D
:1044F000FCF700FCF4E007F1140341F20470C2F28F
:10450000000019464EF69002CFF6FF7241F270732A
:1045100000F04CFF0346002B58D141F21863C2F261
:1045200000035B681846FDF737FB03469BB21AB2DF
:10453000BB8A1BB2D318002B10DA4FF002004FF0E9
:1045400001014FF00002FCF7D5FB4FF001004FF0E6
:10455000FF014FF00202FDF737FDC1E041F21863A1
:10456000C2F200031B689B8B1A46BB8A1BB2C3F1C5
:1045700000039A4210DB4FF002004FF001014FF0B0
:104580000002FCF7B7FB4FF001004FF0FF014FF0C6
:104590000202FDF719FDA3E0BB8A1BB24FF0020037
:1045A0001946FCF7EBFE0346002B06D04FF0060041
:1045B0004FF00001FDF73AF910E04FF000004FF026
:1045C00001014FF00002FCF795FB07E04FF00200FD
:1045D0004FF001014FF00002FCF78CFB80E007F187
:1045E000140341F20470C2F2000019464EF6900224
:1045F000CFF6FF7241F2707300F0D8FE0346002B35
:1046000065D1BB8A9CB241F21863C2F200035B68B9
:104610001846FDF7C1FA0346E31A9BB2FB84B7F9CB
:104620002630002B1BDB41F21863C2F200031B682B
:10463000DB8B1A46B7F926309A422EDB4FF0020088
:104640004FF001014FF00002FCF754FB4FF0010066
:104650004FF0FF014FF00202FDF7B6FC40E041F2DF
:104660001863C2F200031B689B8B1A46B7F9263009
:10467000C3F100039A4210DB4FF002004FF001013A
:104680004FF00002FCF736FB4FF001004FF0FF0146
:104690004FF00202FDF798FC22E0BB8A1BB24FF0FC
:1046A00003001946FCF76AFE0346002B06D04FF0C4
:1046B00006004FF00001FDF7B9F810E04FF00000E0
:1046C0004FF001014FF00002FCF714FB07E04FF040
:1046D00002004FF001014FF00002FCF70BFB00BF9E
:1046E00019E141F21863C2F200031B7D002B02D0D6
:1046F000012B4BD06EE041F21863C2F200031B683D
:104700001B8B1846FDF788FA386241F21863C2F233
:1047100000035A683B6A9A4208D34FF002004FF0F8
:1047200001014FF00002FCF7E5FA2EE041F21863B8
:10473000C2F200034FF001021A7541F21863C2F28F
:1047400000035A6841F21863C2F200039A61386AA2
:10475000FCF724FD0346002B0FD04FF002004FF072
:1047600001014FF00002FCF7C5FA41F21863C2F2F2
:1047700000034FF000021A7507E04FF000004FF001
:1047800001014FF00002FCF7B5FA2BE041F218638B
:10479000C2F200034FF000021A7541F21863C2F230
:1047A00000039B691846FCF7F9FC0346002B08D070
:1047B0004FF002004FF001014FF00002FCF79AFAAF
:1047C00007E04FF000004FF001014FF00002FCF74E
:1047D00091FA07E041F21863C2F200034FF00002C1
:1047E0001A7500BF97E041F21863C2F20003DB7F45
:1047F000012B0FD04FF00100FCF7C0FF4FF001007C
:10480000FCF7E4FF4FF000004FF001014FF0000211
:10481000FCF770FA7FE041F21863C2F20003DB7F1D
:10482000022B0FD04FF00100FCF7A8FF4FF0000063
:10483000FCF7CCFF4FF000004FF001014FF00002F9
:10484000FCF758FA67E04FF007004FF00001FCF763
:10485000EDFF4FF001004FF001014FF00002FCF7B7
:1048600049FA58E04FF007004FF00001FCF7DEFF77
:104870004FF001004FF001014FF00002FCF73AFA4F
:1048800049E041F21863C2F200035B681846FDF785
:1048900083F903467B827A8A41F270739A4217D871
:1048A00041F21863C2F200031B6803F1180207F11A
:1048B0001203104619464FF00202FDF72BFA4FF093
:1048C00001004FF001014FF00002FCF713FA0FE076
:1048D0004FF002004FF001014FF00002FCF70AFA1E
:1048E0004FF001004FF0FF014FF00202FDF76CFBAB
:1048F00011E0FB7841F27072009218464FF003010C
:1049000041F20472C2F200024EF69003CFF6FF733A
:1049100000F044FE00BFFFE2FB781C2B04D01E2BEE
:1049200018D00A2B0BD055E0FFF7D0FB4FF0040056
:104930004FF001014FF00002FCF7DCF95CE0FFF7FB
:10494000E1FB4FF000004FF001014FF00002FCF7D7
:10495000D1F951E007F1180341F20470C2F20000EE
:1049600019464EF69002CFF6FF7241F2707300F0D6
:104970001DFD0346002B1CD141F21863C2F2000357
:104980005B68FB6141F21863C2F200031B681A46C0
:1049900007F11803104619464FF00802FDF7BAF95F
:1049A0004FF001004FF001014FF00002FCF7A2F9B7
:1049B0000FE04FF002004FF001014FF00002FCF752
:1049C00099F94FF001004FF0FF014FF00202FDF79F
:1049D000FBFA11E0FB7841F27072009218464FF03A
:1049E000010141F20472C2F200024EF69003CFF6CA
:1049F000FF7300F0D3FD00BF8EE2FB781C2B04D0C8
:104A00001E2B18D00A2B0BD056E0FFF75FFB4FF0A0
:104A100004004FF001014FF00002FCF76BF95DE07C
:104A2000FFF770FB4FF000004FF001014FF0000264
:104A3000FCF760F952E007F1180341F20470C2F28A
:104A4000000019464EF69002CFF6FF7241F27073E5
:104A500000F0ACFC0346002B1DD141F21863C2F2FA
:104A600000035B68FB6141F21863C2F200031B683C
:104A700003F1080207F11803104619464FF0080227
:104A8000FDF748F94FF001004FF001014FF000022F
:104A9000FCF730F90FE04FF002004FF001014FF04A
:104AA0000002FCF727F94FF001004FF0FF014FF033
:104AB0000202FDF789FA11E0FB7841F27072009270
:104AC00018464FF0010141F20472C2F200024EF6A4
:104AD0009003CFF6FF7300F061FD00BF1CE2FB788E
:104AE0001C2B04D01E2B18D00A2B0BD054E0FFF740
:104AF000EDFA4FF004004FF001014FF00002FCF717
:104B0000F9F859E0FFF7FEFA4FF000004FF001010D
:104B10004FF00002FCF7EEF84EE007F1180341F207
:104B20000470C2F2000019464FF0000241F27073A7
:104B300000F03CFC0346002B1DD141F21863C2F289
:104B400000035B68FB6141F21863C2F200031B685B
:104B500003F1100207F11803104619464FF008023E
:104B6000FDF7D8F84FF001004FF001014FF00002BF
:104B7000FCF7C0F80FE04FF002004FF001014FF0DA
:104B80000002FCF7B7F84FF001004FF0FF014FF0C3
:104B90000202FDF719FA0FE0FB7841F27072009201
:104BA00018464FF0010141F20472C2F200024FF0C8
:104BB000000300F0F3FC00BFAEE1FB781C2B04D037
:104BC0001E2B18D00A2B0BD04EE0FFF77FFA4FF0C8
:104BD00004004FF001014FF00002FCF78BF853E0A6
:104BE000FFF790FA4FF000004FF001014FF0000284
:104BF000FCF780F848E007F1160341F20470C2F2B6
:104C0000000019464FF0000241F2707300F0CEFB35
:104C10000346002B17D141F21863C2F200031B6850
:104C200003F1180207F11603104619464FF002026D
:104C3000FDF770F84FF001004FF001014FF0000256
:104C4000FCF758F80FE04FF002004FF001014FF071
:104C50000002FCF74FF84FF001004FF0FF014FF05A
:104C60000202FDF7B1F90FE0FB7841F27072009299
:104C700018464FF0010141F20472C2F200024FF0F7
:104C8000000300F08BFC00BF46E1FB781C2B04D036
:104C90001E2B18D00A2B0BD04EE0FFF717FA4FF05F
:104CA00004004FF001014FF00002FCF723F853E03D
:104CB000FFF728FA4FF000004FF001014FF000021B
:104CC000FCF718F848E007F1160341F20470C2F24D
:104CD000000019464FF0000241F2707300F066FBCD
:104CE0000346002B17D141F21863C2F200031B6880
:104CF00003F11A0207F11603104619464FF002029B
:104D0000FDF708F84FF001004FF001014FF00002ED
:104D1000FBF7F0FF0FE04FF002004FF001014FF002
:104D20000002FBF7E7FF4FF001004FF0FF014FF0EB
:104D30000202FDF749F90FE0FB7841F27072009230
:104D400018464FF0010141F20472C2F200024FF026
:104D5000000300F023FC00BFDEE0FB781C2B04D036
:104D60001E2B18D00A2B0BD04EE0FFF7AFF94FF0F7
:104D700004004FF001014FF00002FBF7BBFF53E0CE
:104D8000FFF7C0F94FF000004FF001014FF00002B3
:104D9000FBF7B0FF48E007F1100341F20470C2F2E4
:104DA000000019464FF0000241F2707300F0FEFA65
:104DB0000346002B17D141F21863C2F200031B68AF
:104DC00003F11C0207F11003104619464FF00202CE
:104DD000FCF7A0FF4FF001004FF001014FF000027F
:104DE000FBF788FF0FE04FF002004FF001014FF09A
:104DF0000002FBF77FFF4FF001004FF0FF014FF083
:104E00000202FDF7E1F80FE0FB7841F270720092C8
:104E100018464FF0010141F20472C2F200024FF055
:104E2000000300F0BBFB00BF76E0FB781C2B04D036
:104E30001E2B21D00A2B0BD057E0FFF747F94FF07C
:104E400004004FF001014FF00002FBF753FF5CE05C
:104E500041F21C73C2F2000340F21C02C2F20002D3
:104E60001A60FEF787FF4FF000004FF001014FF08E
:104E70000002FBF73FFF48E007F10E0341F2047028
:104E8000C2F2000019464FF0000241F2707300F0C8
:104E90008DFA0346002B17D141F21863C2F20003CA
:104EA0001B6803F11E0207F10E03104619464FF06E
:104EB0000202FCF72FFF4FF001004FF001014FF00D
:104EC0000002FBF717FF20E04FF002004FF0010156
:104ED0004FF00002FBF70EFF4FF001004FF0FF0113
:104EE0004FF00202FDF770F80FE0FB7841F27072AC
:104EF000009218464FF0010141F20472C2F2000222
:104F00004FF0000300F04AFB00BF00BF04E000BF09
:104F100002E000BF00E000BF07F12C07BD4690BDD6
:104F200080B584B000AF78604FF00003FB73FFF7EB
:104F300077F841F2A063C2F200034FF000021A7347
:104F400041F2C063C2F200031B68002B27D041F27C
:104F5000C063C2F200031B68184601F05FFA034603
:104F6000002B1CD041F2C063C2F200031A6807F1A3
:104F70000C03104619464FF00A024FF0000301F0EF
:104F80006FF90346002B0AD041F21C73C2F20003F2
:104F90001A68BB89DBB210461946FFF7C1F841F227
:104FA0002073C2F200031B68002B25D041F220734E
:104FB000C2F200031B68184601F030FA0346002BCA
:104FC0001AD041F22073C2F200031A6807F10B03F2
:104FD000104619464FF00A024FF0000301F040F965
:104FE0000346002B08D0FB7A012B05D141F2047057
:104FF000C2F2000000F02EF9FB7B03F10103FB730A
:1050000041F21C73C2F200031B681B7C012B40F0B1
:105010001081FB7B092B40F20C814FF00003FB73E6
:1050200041F21863C2F200035B7F002B40F0D9808D
:1050300041F21863C2F200035B681846FCF7ACFD4E
:1050400003469BB21BB2184641F21071C2F2000136
:105050004FF0000241F2707300F01AFA41F2107042
:10506000C2F200004FF0000100F00AF941F21863AB
:10507000C2F200031B7F022B29D0032B54D0012B3B
:1050800040F0D68041F21863C2F200039A6841F200
:105090001863C2F200035B68D31A1846FCF736FDAA
:1050A00003469BB21BB2184641F21071C2F20001D6
:1050B0004FF0000241F2707300F0EAF941F2107013
:1050C000C2F200004FF0010100F0DAF8B1E041F265
:1050D0001863C2F200035A6841F21863C2F2000377
:1050E0009B68D31A1846FCF711FD03469BB21BB20E
:1050F000184641F21071C2F200014FF0000241F275
:10510000707300F0C5F941F21073C2F200034FF062
:105110002D025A7241F21070C2F200004FF00101EC
:1051200000F0AEF800BF84E041F21863C2F2000361
:105130009A6841F21863C2F200035B689A4224D372
:1051400041F21863C2F200039A6841F21863C2F296
:1051500000035B68D31A1846FCF7D8FC03469BB2E1
:105160001BB2184641F21071C2F200014FF000026A
:1051700041F2707300F08CF941F21070C2F200003D
:105180004FF0010100F07CF853E041F21863C2F2E5
:1051900000035A6841F21863C2F200039B68D31AF5
:1051A0001846FCF7B3FC03469BB21BB2184641F20B
:1051B0001071C2F200014FF0000241F2707300F072
:1051C00067F941F21073C2F200034FF02D025A72D8
:1051D00041F21070C2F200004FF0010100F050F8EF
:1051E00027E041F21863C2F200035B7F022B20D15B
:1051F00041F21863C2F200039B7F022B06D041F2FA
:105200001863C2F200039B7F032B08D14FF000000C
:1052100048F28471C0F60001FBF710F809E04FF086
:10522000000048F28C71C0F60001FBF707F800E0BF
:1052300000BF41F2A063C2F200039B6803F10102C8
:1052400041F2A063C2F200039A604FF00A00FDF73A
:105250006FFB75E680B582B000AF78607B684FF079
:1052600000021A727B684FF020025A7278684FF081
:10527000010100F005F807F10807BD4680BD00BF39
:1052800080B586B000AF78600B46FB7048F2A47220
:10529000C0F6000207F10C0392E80300186003F166
:1052A0000403198003F102034FEA11421A704FF010
:1052B0000003FB744FF00003FB754FF00003BB7558
:1052C0007B681B7A002B24D17B685B7A2D2B08D15D
:1052D000FB78184648F29471C0F60001FAF7AEFF69
:1052E00014E07B685B7A2B2B08D1FB78184648F2D8
:1052F0009C71C0F60001FAF7A1FF07E0FB781846A1
:1053000048F2A471C0F60001FAF798FF4FF00003CD
:1053100047E07B681B7A042B41D84FF00503BB752F
:105320007B681B7A03F1FF33DBB2FB751AE097F958
:10533000163097F9172079688A5C07F11801CB18A5
:1053400003F80C2CBB7D03F1FF33BB7597F91630C6
:10535000042B03D1BB7D03F1FF33BB75FB7D03F150
:10536000FF33FB7597F91730002BE0DA7B685B7A27
:105370002D2B03D14FF02D033B7306E07B685B7A46
:105380002B2B02D14FF02E033B73FA7807F10C035D
:1053900010461946FAF752FF4FF0000301E04FF0B4
:1053A0000103184607F11807BD4680BD80B487B0D9
:1053B00000AFF860B960FA80BB804FF00003FB8259
:1053C0004FF000037B754FF001037B82FB681B7A73
:1053D000002B06D1BB684FF000021A804FF000038B
:1053E00050E0FB681B7A03F1FF33DBB27B7529E0E9
:1053F00097F91530FA68D35C2F2B05D997F915303A
:10540000FA68D35C392B02D94FF001033AE097F9DF
:105410001530FA68D35CA3F130039BB27A8A02FBA1
:1054200003F39AB2FB8AD3189BB2FB827B8A1A469B
:105430004FEA8202D3184FEA43037B827B7D03F15C
:10544000FF337B7597F91530002BD1DAFB685B7A57
:105450002D2B03D1FB8AC3F10003FB82BB68FA8AC0
:105460001A80B7F91620B7F906309A4205DBB7F96A
:105470001620B7F904309A4202DD4FF0010301E033
:105480004FF00003184607F11C07BD4680BC70476B
:1054900080B487B000AFB9600146F981FA80BB8063
:1054A0004FF00003FB75B7F90E20B7F904309A42AC
:1054B00005DCB7F90E20B7F906309A420DDAB7F9D4
:1054C0000E20B7F904309A4202DDBB88FB8101E06F
:1054D000FB88FB814FF00103FB75B7F90E30002B01
:1054E00008DABB684FF02D025A72FB89C3F1000342
:1054F000FB8103E0BB684FF020025A72BB684FF09B
:1055000000021A724FF47A73BB824FF00003FB74EF
:1055100033E0B7F90E20BB8A92FBF3F3BB74BB7C7C
:10552000092B17D8BB7C002B02D1FB7C002B11D0A0
:10553000BB681B7ABA7C02F13002D1B2BA68D1548E
:10554000BB681B7A03F10103DAB2BB681A724FF031
:105550000103FB74B7F90E30BA8A93FBF2F102FB38
:1055600001F29B1AFB81BA8A4CF6CD43CCF6CC43B0
:10557000A3FB02134FEAD303BB82BB8A002BC8D123
:10558000FB7D002B02D04FF0010301E04FF0000340
:10559000184607F11C07BD4680BC704780B586B031
:1055A00000AFBA600246FA730A46BA73FB80FB7B0F
:1055B000092B09D9FB7B0C2B06D0FB7B0D2B03D0D1
:1055C000FB7B0F2B40F05481FB7B0C2B1DD1BB6868
:1055D0001B7A002B00F04E81BB681B7A002B06D093
:1055E000BB681B7A03F1FF33DAB2BB681A72B86882
:1055F0004FF00101FFF744FE4FF000004FF00101B2
:105600004FF00002FBF776FB3BE1FB7B0D2B02D05A
:105610000F2B18D02FE0BB7B03F00203002B00F010
:105620002B81BB684FF02D025A72B8684FF0010110
:10563000FFF726FE4FF000004FF001014FF000028F
:10564000FBF758FB1DE1BB7B03F00203002B00F0CE
:105650001581BB684FF02B025A72B8684FF00101F8
:10566000FFF70EFE4FF000004FF001014FF0000277
:10567000FBF740FB05E1BB681B7A032B10D94FF009
:1056800002004FF001014FF00002FBF733FB4FF037
:1056900001004FF0FF014FF00202FCF795FCF0E033
:1056A000FB7B092B00F2B38001A252F823F000BF6C
:1056B000D9560008015700081F5700083D57000839
:1056C0005B5700087957000897570008B55700083E
:1056D000D3570008F1570008BB681B7A002B00F075
:1056E000CF80BB681B7ABA684FF03001D1544FF0BD
:1056F00000004FF001014FF00002FBF7FBFA87E0DA
:10570000BB681B7ABA684FF03101D1544FF00000EA
:105710004FF001014FF00002FBF7ECFA78E0BB68B4
:105720001B7ABA684FF03201D1544FF000004FF0AD
:1057300001014FF00002FBF7DDFA69E0BB681B7A5C
:10574000BA684FF03301D1544FF000004FF001011F
:105750004FF00002FBF7CEFA5AE0BB681B7ABA683A
:105760004FF03401D1544FF000004FF001014FF0E1
:105770000002FBF7BFFA4BE0BB681B7ABA684FF038
:105780003501D1544FF000004FF001014FF00002FD
:10579000FBF7B0FA3CE0BB681B7ABA684FF0360101
:1057A000D1544FF000004FF001014FF00002FBF721
:1057B000A1FA2DE0BB681B7ABA684FF03701D154CB
:1057C0004FF000004FF001014FF00002FBF792FA9A
:1057D0001EE0BB681B7ABA684FF03801D1544FF015
:1057E00000004FF001014FF00002FBF783FA0FE0D9
:1057F000BB681B7ABA684FF03901D1544FF00000F2
:105800004FF001014FF00002FBF774FA00E000BF17
:10581000BB681B7A03F10103DAB2BB681A7207F1A5
:105820001601B7F90620B7F92030B868FFF7BEFDBA
:105830000346012B16D1BB681B7A03F1FF33DAB2A2
:10584000BB681A724FF002004FF001014FF00002E6
:10585000FBF750FA4FF001004FF0FF014FF002024A
:10586000FCF7B2FBB8684FF00101FFF709FD08E053
:1058700000BF06E000BF04E000BF02E000BF00E0A0
:1058800000BF07F11807BD4680BD00BF80B487B0D8
:1058900000AF786039604FF000037B614FF0000388
:1058A0003B614FF00003FB604FF000037B618FE032
:1058B0007B694FF0010202FA03F33B613B681A680F
:1058C0003B6902EA0303FB60FA683B699A427BD1B9
:1058D0007B681B681A467B694FEA43034FF003015C
:1058E00001FA03F36FEA03031A407B681A607B68CE
:1058F0001B681A463B681B7919467B694FEA4303CC
:1059000001FA03F31A437B681A603B681B79012B89
:1059100003D03B681B79022B38D17B689B681A4601
:105920007B694FEA43034FF0030101FA03F36FEA87
:1059300003031A407B689A607B689B681A463B6841
:105940005B7919467B694FEA430301FA03F31A4373
:105950007B689A607B685B681A467B699BB24FF0F4
:10596000010101FA03F36FEA03031A407B685A60EE
:105970007B685B681A463B689B7919467B699BB2DA
:1059800001FA03F39BB21A437B685A607B68DB68B9
:105990001A467B699BB24FEA43034FF0030101FAB9
:1059A00003F36FEA03031A407B68DA607B68DB6805
:1059B0001A463B68DB7919467B694FEA430301FAD3
:1059C00003F31A437B68DA607B6903F101037B61AF
:1059D0007B690F2B7FF66CAF07F11C07BD4680BCBF
:1059E000704700BF80B485B000AF78600B467B8005
:1059F0004FF00003FB737B681B691A467B8802EA41
:105A00000303002B03D04FF00103FB7302E04FF0C0
:105A10000003FB73FB7B184607F11407BD4680BCEF
:105A2000704700BF80B485B000AF786013460A4667
:105A30007A807B704FF00003FB604FF00003BB6087
:105A40007A787B8803F007034FEA830302FA03F3B3
:105A5000FB607B884FEAD3039BB21A467B884FEAF0
:105A6000D3039BB219467B6801F1080153F821303A
:105A700019467B8803F007034FEA83034FF00F00BA
:105A800000FA03F36FEA030319407B6802F108028E
:105A900043F822107B884FEAD3039BB21A467B68F7
:105AA00002F1080253F822301A46FB6842EA030367
:105AB000BB607B884FEAD3039BB21A467B6802F136
:105AC0000802B96843F8221007F11407BD4680BCEC
:105AD000704700BF80B483B000AF78607B6803F18B
