:020000040800F2
:1000000034270020791A0008E11A0008E11A0008D4
:10001000E11A0008E11A0008E11A000800000000D7
:10002000000000000000000000000000795E0008F1
:10003000E11A000800000000955F0008E55F000875
:10004000E11A0008C5710008E11A0008E11A000869
:10005000E11A0008E11A0008E11A0008E11A000894
:10006000E11A0008E11A0008E11A0008E11A000884
:10007000E11A0008E11A0008E11A0008E11A000874
:10008000E11A0008E11A0008E11A0008E11A000864
:10009000E11A0008E11A0008E11A00080D10000832
:1000A000E11A000859210008E11A0008E11A0008C5
:1000B000E11A0008E11A0008E11A0008E11A000834
:1000C000E11A0008E11A0008E11A0008E11A000824
:1000D000E11A0008E11A0008E11A0008E11A000814
:1000E000E11A0008E11A0008E11A0008E11A000804
:1000F000E11A0008E11A0008E11A0008E11A0008F4
:10010000E11A0008E11A0008E11A0008E11A0008E3
:10011000E11A0008E11A0008E11A0008E11A0008D3
:10012000E11A0008E11A0008E11A0008E11A0008C3
:10013000E11A0008E11A0008E11A0008E11A0008B3
:10014000E11A0008E11A0008E11A0008E11A0008A3
:10015000E11A0008E11A0008E11A0008E11A000893
:10016000E11A0008E11A0008E11A0008E11A000883
:10017000E11A0008E11A0008E11A0008E11A000873
:10018000E11A0008E11A000890B484B000AF0246FA
:100190000B46FA71BB714FF00003FB60BB7903F0B3
:1001A00003034FEA83034FF00F0202FA03F3FB60ED
:1001B0004FF46053C4F20103BA794FEA9202D2B20B
:1001C00010464FF46052C4F20102B9794FEA91012E
:1001D000C9B201F1020152F821201146FA686FEA12
:1001E0000202114000F1020243F822104FF4605362
:1001F000C4F20103BA794FEA9202D2B210464FF428
:100200006052C4F20102B9794FEA9101C9B201F119
:10021000020152F821201146FC79BA7902F003025A
:100220004FEA820204FA02F2114300F1020243F89B
:10023000221007F11007BD4690BC7047F0B587B09B
:1002400000AF03463960FB714FF00003FB754FF0C0
:100250000003BB754FF000037B754FF000033B7547
:10026000FB794FF0160202FB03F2054BD3183B61FA
:100270003B691B88022B05D94FF00003E8E300BF60
:100280007C1E0020386807F0C5FD03463B7541F62B
:100290003473C2F200031B6818464FF000014FF0A0
:1002A000FF324FF0000305F0AFFB0346012B40F097
:1002B000CE833B695B8819463B691B883A69D089C4
:1002C00041F64062C2F200024FF01A0404FB03F44C
:1002D0000B464FEA03135B1A4FEA4303E318D318A4
:1002E00003F1020302461A803B695B8819463B69A9
:1002F0001B883A69108A41F64062C2F200024FF050
:100300001A0404FB03F40B464FEA03135B1A4FEA8B
:100310004303E318D31803F1040302461A803B6930
:100320005B8819463B691B883A69908941F64062AF
:10033000C2F200024FF01A0404FB03F40B464FEA2A
:1003400003135B1A4FEA4303E318D31803F10603C0
:1003500002461A803B695B8819463B691B883A69EB
:10036000108941F64062C2F200024FF01A0404FB09
:1003700003F40B464FEA03135B1A4FEA4303E318F7
:10038000D31803F1080302461A803B695B881946BB
:100390003B691B883A69508941F64062C2F200020B
:1003A0004FF01A0404FB03F40B464FEA03135B1AE5
:1003B0004FEA4303E318D31803F10A0302461A80F5
:1003C0003B695B8819463B691B8841F64062C2F273
:1003D00000024FF01A0000FB03F00B464FEA031334
:1003E0005B1A4FEA4303C318D31803F10C034FF40D
:1003F00080721A803B695B8819463B691B8841F60D
:100400004062C2F200024FF01A0000FB03F00B46FC
:100410004FEA03135B1A4FEA4303C318D31803F1DF
:100420000E034FF400721A803B695B8819463B69E2
:100430001B8841F64062C2F200024FF01A0000FB36
:1004400003F00B464FEA03135B1A4FEA4303C3184A
:10045000D31803F110034FF440721A803B695B8894
:1004600019463B691B8841F64062C2F200024FF018
:100470001A0000FB03F00B464FEA03135B1A4FEA26
:100480004303C318D31803F112034FF480621A8098
:100490003B695B8819463B691B8841F64062C2F2A2
:1004A00000024FF01A0000FB03F00B464FEA031363
:1004B0005B1A4FEA4303C318D31803F114034FF434
:1004C000A0621A803B695B8819463B691B8841F62C
:1004D0004062C2F200024FF01A0000FB03F00B462C
:1004E0004FEA03135B1A4FEA4303C318D31803F10F
:1004F00016034FF4C0621A803B695B8819463B695A
:100500001B8841F64062C2F200024FF01A0000FB65
:1005100003F00B464FEA03135B1A4FEA4303C31879
:10052000D31803F118034FF4E0621A803B695B882B
:1005300019463B691B8841F64062C2F200024FF047
:100540001A0000FB03F00B464FEA03135B1A4FEA55
:100550004303C318D31803F11A034FF400621A803F
:100560007B7D03F105037B7597F914300A2B02DDBF
:100570004FF00A033B754FF00003FB7550E297F90B
:1005800017303A68D3181B782F2B65D997F9173095
:100590003A68D3181B78392B5ED897F917303A6828
:1005A000D3181B78A3F1300247F6D863C0F60003D6
:1005B0009B18DB7FFB733B695B881C463B691B8890
:1005C00018467E7D3B695B881D463B691B881A4641
:1005D00097F815E041F64061C2F2000113464FEA78
:1005E00043039B184FEA83039B182A464FEA0212E3
:1005F000521B9B1873444FEA4303CB185B889AB293
:10060000FB7B99B27B7DA3F104039BB24FEA0323EA
:100610009BB29BB241EA03039BB242EA03039BB243
:100620009DB241F64061C2F2000103464FEA430326
:100630001B184FEA83031B1822464FEA0212121BB3
:100640009B189B194FEA4303CB182A465A807B7D9F
:1006500003F101037B75DFE197F917303A68D3188E
:100660001B782E2B40F05D8197F91730002B41D17C
:100670003B695B881C463B691B8818467E7D3B694D
:100680005B881D463B691B881A4697F815E041F6C2
:100690004061C2F2000113464FEA43039B184FEA40
:1006A00083039B182A464FEA0212521B9B1873447D
:1006B0004FEA4303CB185B8843F080039DB241F6B9
:1006C0004061C2F2000103464FEA43031B184FEAA0
:1006D00083031B1822464FEA0212121B9B189B1918
:1006E0004FEA4303CB182A465A807B7D03F101036E
:1006F0007B7591E197F9172097F9143003F1FF33D7
:100700009A4280F2CD8097F9173003F101033A68DD
:10071000D3181B782E2B40F082803B695B881C46E7
:100720003B691B8818467E7D3B695B881D463B699B
:100730001B881A4697F815E041F64061C2F20001A5
:1007400013464FEA43039B184FEA83039B182A463C
:100750004FEA0212521B9B1873444FEA4303CB1813
:100760005B8843F080039DB241F64061C2F2000114
:1007700003464FEA43031B184FEA83031B18224624
:100780004FEA0212121B9B189B194FEA4303CB1826
:100790002A465A803B695B881C463B691B88184681
:1007A0007B7D03F1FF363B695B881D463B691B88F7
:1007B0001A467B7D03F1FF3E41F64061C2F2000123
:1007C00013464FEA43039B184FEA83039B182A46BC
:1007D0004FEA0212521B9B1873444FEA4303CB1893
:1007E0005B8843F080039DB241F64061C2F2000194
:1007F00003464FEA43031B184FEA83031B182246A4
:100800004FEA0212121B9B189B194FEA4303CB18A5
:100810002A465A807B7D03F101037B75FCE03B692E
:100820005B881C463B691B8818467B7D03F1FF36BD
:100830003B695B881D463B691B881A467B7D03F13B
:10084000FF3E41F64061C2F2000113464FEA430306
:100850009B184FEA83039B182A464FEA0212521B49
:100860009B1873444FEA4303CB185B8843F0800323
:100870009DB241F64061C2F2000103464FEA4303D4
:100880001B184FEA83031B1822464FEA0212121B61
:100890009B189B194FEA4303CB182A465A80BBE0AA
:1008A0003B695B881C463B691B8818467B7D03F1CE
:1008B000FF363B695B881D463B691B881A467B7D7A
:1008C00003F1FF3E41F64061C2F2000113464FEAD8
:1008D00043039B184FEA83039B182A464FEA0212F0
:1008E000521B9B1873444FEA4303CB185B8843F0B9
:1008F00080039DB241F64061C2F2000103464FEA17
:1009000043031B184FEA83031B1822464FEA0212C7
:10091000121B9B189B194FEA4303CB182A465A8097
:100920007AE04FF00A03BB756BE097F917303A682D
:10093000D3181A7897F9161047F6D863C0F6000353
:100940005B5C9A4259D197F9162047F6D863C0F6F6
:1009500000039B18DB7FBB733B695B881C463B69CC
:100960001B8818467E7D3B695B881D463B691B885A
:100970001A4697F815E041F64061C2F200011346AD
:100980004FEA43039B184FEA83039B182A464FEA1A
:100990000212521B9B1873444FEA4303CB185B8827
:1009A0009AB2BB7B99B27B7DA3F104039BB24FEA61
:1009B00003239BB29BB241EA03039BB242EA0303C7
:1009C0009BB29DB241F64061C2F2000103464FEA7C
:1009D00043031B184FEA83031B1822464FEA0212F7
:1009E000121B9B189B194FEA4303CB182A465A80C7
:1009F0007B7D03F101037B7507E0BB7D03F1010300
:100A0000BB7597F916301E2B8FDD7A7D3B69DB882D
:100A100003F105039A420BDCFB7D03F10103FB7537
:100A200097F9172097F914309A42FFF6A8AD00E025
:100A300000BF41F63473C2F200031B6818464FF042
:100A400000014FF000024FF0000304F0CBFE7B7D6D
:100A5000184607F11C07BD46F0BD00BF80B586B043
:100A600004AF4FF002004FF0010101F0F7F94FF031
:100A700004033B604FF000037B714FF001033B71B7
:100A80004FF00003BB714FF00003FB713B464FF486
:100A90008060C4F20200194604F0CCFA4FF480637F
:100AA000C4F202034FF004025A834FF001004FF0EA
:100AB00000014FF0030204F0F7FD024641F6206307
:100AC000C2F200031A6041F62063C2F200031B6801
:100AD000002B0DD041F62063C2F200031B681846BC
:100AE0004FF000014FF000024FF0000304F07AFED7
:100AF00047F61873C0F600034FF00102009241F66A
:100B00001C62C2F2000201924FF0000202924FF00A
:100B10000002039240F64130C0F6000019464FF043
:100B200080024FF0000301F0DBFC41F6A863C2F243
:100B300000034FF001021A7707F10807BD4680BD98
:100B400080B582B000AF786041F62063C2F2000346
:100B50001B6818464FF000014FF0FF324FF00003C2
:100B600004F052FF41F61863C2F200031B78012B18
:100B700040F0CC8041F61863C2F200035B78042B8E
:100B800000F2C08001A252F823F000BFA10B0008C0
:100B9000D50B0008350C0008C10C0008D10C00086A
:100BA0004FF48063C4F202034FF004021A834FF043
:100BB000C80001F085FD4FF48063C4F202034FF0DA
:100BC00004025A8341F61863C2F200034FF0000298
:100BD0001A709BE04FF48063C4F202034FF00402EA
:100BE0001A834FF0640001F06BFD4FF48063C4F290
:100BF00002034FF004025A834FF0640001F060FDDD
:100C00004FF48063C4F202034FF004021A834FF0E2
:100C1000640001F055FD4FF48063C4F202034FF00D
:100C200004025A8341F61863C2F200034FF0000237
:100C30001A706BE04FF48063C4F202034FF00402B9
:100C40001A834FF0320001F03BFD4FF48063C4F291
:100C500002034FF004025A834FF0320001F030FDDE
:100C60004FF48063C4F202034FF004021A834FF082
:100C7000320001F025FD4FF48063C4F202034FF00F
:100C800004025A834FF0320001F01AFD4FF48063E2
:100C9000C4F202034FF004021A834FF0320001F055
:100CA0000FFD4FF48063C4F202034FF004025A8335
:100CB00041F61863C2F200034FF000021A7025E0FB
:100CC0004FF48063C4F202034FF004021A831DE064
:100CD0004FF48063C4F202034FF004021A834FF40E
:100CE0007A7001F0EDFC4FF48063C4F202034FF020
:100CF00004025A8341F61863C2F200034FF0000267
:100D00001A7003E04FF4FA7001F0DAFC41F6A863C0
:100D1000C2F200039B6903F1010241F6A863C2F22B
:100D200000039A6141F6A863C2F200034FF001028A
:100D30001A7709E780B582B000AF13460246FA7110
:100D40000A46BA717B71BB7903F00103DBB2002B59
:100D500047D041F61863C2F200031B78002B5CD128
:100D60007B79002B0ED141F62063C2F200031B6891
:100D700018464FF000014FF000024FF0000304F05E
:100D800031FD26E040F2E803C2F200034FF000021A
:100D90001A6041F62063C2F200031B6818464FF048
:100DA000000140F2E802C2F200024FF0000304F03A
:100DB000C5FD40F2E803C2F200031B68012B08D115
:100DC00040F2E803C2F200031B68002B01D005F0DB
:100DD000A3F841F61863C2F200034FF001021A7043
:100DE0001BE041F61863C2F200031B78012B06D109
:100DF00041F61863C2F200034FF000021A7041F688
:100E0000A863C2F200034FF001021A774FF4806327
:100E1000C4F202034FF004025A83FB7903F0070384
:100E2000DAB241F61863C2F200035A7007F10807FC
:100E3000BD4680BD80B58AB004AF4FF001004FF0D1
:100E4000010101F00BF84FF480404FF0010101F077
:100E500061F84FF0C1033B614FF000033B754FF069
:100E60000103FB7507F110033A48194604F0E2F854
:100E70004FF000004FF00001FFF786F94FF001033B
:100E8000BB604FF000033B734FF00C037B734FF0DC
:100E90000103BB7307F10803184605F069F94FF029
:100EA00000004FF00601FFF76FF94FF04003BB6001
:100EB0004FF000033B734FF00C037B734FF00103C3
:100EC000BB7307F10803184605F052F94FF0000014
:100ED0004FF00701FFF758F94FF08003BB604FF068
:100EE00000033B734FF00C037B734FF00103BB73A4
:100EF00007F10803184605F03BF94FF4407005F080
:100F0000F7FC4FF017033B714FF00E037B714FF06E
:100F10000003BB714FF00103FB7107F10403184696
:100F200005F0FAFC4FF0010300934FF0000301932A
:100F30004FF0000302934FF0000303930648074964
:100F40004FF080024FF0000301F0CAFA07F11807D2
:100F5000BD4680BD00000240610F0008207F0008F0
:100F600080B582B000AF7860244B4FF0000283F868
:100F7000242023484FF0010104F008F90346002B18
:100F800006D14FF004004FF0000100F083FB05E0B4
:100F90001C4B1C4A126842F001021A6018484FF0BC
:100FA000400104F0F3F80346002B04D1164B4FF038
:100FB0000202DA7616E012484FF0800104F0E6F8FB
:100FC0000346002B04D1104B4FF00102DA7609E002
:100FD0000D4B4FF00002DA760A4B0A4A126842F0D3
:100FE000C0021A60054B1B6A03F10102034B1A622F
:100FF0004FF0640001F064FBBBE700BFA81E0020B7
:1010000000000240003C0140241E002080B500AFDB
:101010004FF0400005F058F90346002B0FD04FF079
:10102000400005F081F9124B114A126822F040028B
:101030001A604FF002004FF0010100F02BFB4FF05F
:10104000800005F041F90346002B0FD04FF08000DF
:1010500005F06AF9064B064A126822F080021A600F
:101060004FF003004FF0010100F014FB80BD00BF02
:10107000003C014080B483B000AF0346FB714FF0E9
:101080002003C4F20E23FA791A6007F10C07BD465B
:1010900080BC704780B485B000AF78604FF000032B
:1010A000FB604FF4E043C4F200031B68FB60FB6885
:1010B00023F0E003FB60FA687B6842EA0303FB600D
:1010C0004FF4E043C4F20003FA681A6007F1140712
:1010D000BD4680BC704700BF80B483B000AF0346FC
:1010E000FB714FF01003C4F20E23FA791A6007F176
:1010F0000C07BD4680BC704780B483B000AF034688
:10110000FB714FF0A403C4F20E23FA791A6007F1C1
:101110000C07BD4680BC704780B582B000AF4FF071
:1011200004004FF0010100F099FE4FF00F033B6007
:101130004FF000037B714FF001033B714FF0000350
:10114000BB714FF00203FB713B461648194603F092
:1011500071FF144B4FF00F025A83134B134A1A605E
:10116000114B4FF000021A760F4B4FF000029A76A7
:101170000D4B4FF000025A760B4B1B681A6A0A4B54
:101180005A60094B4FF000021A75074B4FF00002EE
:10119000DA82054B4FF00002DA7607F10807BD4608
:1011A00080BD00BF00080240241E00200040024015
:1011B00080B584B000AF78604FF0000000F020FAF6
:1011C000544B1B7E002B40F09D80524B5B7E002BCE
:1011D00040F098804F4B5B687A68D31AFB60FB68DD
:1011E000002B0DDDFB68184600F0AAFB03461A46EB
:1011F000484B1B68DB8B9A4210D84FF0020383E008
:10120000FB68184600F09CFB03461A46414B1B68DE
:101210009B8B9A4202D84FF0020375E0FB68002BCB
:1012200003DAFB68C3F10003FB60FB68184600F0BB
:1012300087FB03461A46374B1B685B8B9A4204D9DF
:101240004FF0010000F0DCF903E04FF0000000F087
:10125000D7F9304B5A687B689A4224D92D4BDB7EF4
:10126000022B02D14FF002034EE02A4B7A689A60BB
:10127000284B1B689B8B184600F02AFB02467B68B4
:10128000D218244B1A61234B1B685B8B184600F065
:101290001FFB02467B68D2181E4BDA604FF001003C
:1012A00000F0D2F923E01B4BDB7E012B02D14FF083
:1012B000020329E0174B7A689A60164B1B68DB8B98
:1012C000184600F005FB03467A68D21A114B1A61E2
:1012D000104B1B685B8B184600F0FAFA03467A68DD
:1012E000D21A0C4BDA604FF0000000F0ADF9094B58
:1012F0004FF000029A76074B4FF003021A764FF038
:10130000000301E04FF00103184607F11007BD4646
:1013100080BD00BF241E002090B585B000AF0246FE
:101320000B46FA71BB804FF0000000F069F98D4B5D
:101330001B7E002B40F05B818A4B5B7E002B40F0D4
:101340005681FB79032B00F24F8101A252F823F062
:10135000611300086713000817140008C51400087B
:101360004FF0000345E17F4BDB7E022B02D14FF0B3
:1013700002033EE17B4B5B68184600F01BFB034613
:101380001A46BB88D318FB81764B5B68184600F081
:1013900011FB03461A46BB88D3189BB2184600F0CF
:1013A0003DFB02466F4B9A606E4B9C686D4B1B6811
:1013B000DB8B184600F08CFA0346E21A694B1A617F
:1013C000684B9C68674B1B685B8B184600F080FA83
:1013D0000346E21A634BDA60624B4FF000029A76E2
:1013E000604B4FF001021A76B7F904205D4B1B6881
:1013F0005B8B9A4204DD4FF0010000F001F903E03D
:101400004FF0000000F0FCF84FF0000000F01CF975
:101410004FF00003EDE0534BDB7E012B02D14FF088
:101420000203E6E0B7F90430002B04DABB88C3F10D
:1014300000039BB2BB804B4B5B68184600F0BAFAC6
:1014400003461A46BB88D31A9BB2184600F0E6FA48
:101450000246444B9A60434B9C68424B1B689B8BF3
:10146000184600F035FA0346E2183E4B1A613D4B30
:101470009C683C4B1B685B8B184600F029FA0346BE
:10148000E218384BDA60374B4FF000029A76354B52
:101490004FF002021A76B7F90420324B1B685B8BBF
:1014A0009A4204DD4FF0010000F0AAF803E04FF08B
:1014B000000000F0A5F84FF0010000F0C5F84FF073
:1014C000000396E0BC88274B5B68184600F072FA70
:1014D0000346E31A9BB2BB81B7F90C30002B3ADB11
:1014E000204BDB7E022B02D14FF0020381E0BB8850
:1014F000184600F093FA02461A4B9A60194B9C6802
:10150000184B1B68DB8B184600F0E2F90346E21A21
:10151000144B1A61134B9C68124B1B685B8B18466B
:1015200000F0D6F90346E21A0E4BDA60B7F90C2048
:101530000C4B1B685B8B9A4204DD4FF0010000F0FE
:101540005FF803E04FF0000000F05AF84FF00000A1
:1015500000F07AF83DE0034BDB7E012B04D14FF025
:10156000020346E0241E0020BB88184600F056FA0D
:101570000246224B9A60214B9C68204B1B689B8B38
:10158000184600F0A5F90346E2181C4B1A611B4BE4
:101590009C681A4B1B685B8B184600F099F9034650
:1015A000E218164BDA60B7F90C30C3F10002134BA6
:1015B0001B685B8B9A4204DD4FF0010000F020F8BD
:1015C00003E04FF0000000F01BF84FF0010000F0C6
:1015D0003BF80A4B4FF000029A76084B4FF003029B
:1015E0001A764FF0000304E04FF0020301E04FF0E1
:1015F0000103184607F11407BD4690BD241E0020C4
:1016000080B483B000AF0346FB71FB79002B02D09E
:10161000012B07D00DE00B4B4FF008021A834FF05F
:10162000000308E0074B4FF008025A834FF0000315
:1016300001E04FF00203184607F10C07BD4680BCDD
:10164000704700BF0008024080B483B000AF03467B
:10165000FB71FB79002B02D0012B09D011E00C4B60
:101660004FF002025A830A4B4FF001021A8309E03D
:10167000074B4FF002021A83054B4FF001025A83C9
:1016800000E000BF184607F10C07BD4680BC70475C
:101690000008024080B584B000AF02460B46FA71E4
:1016A000BB71FB7903F1FF33062B00F2AA8001A284
:1016B00052F823F0BF170008171700084117000859
:1016C0006B170008D116000895170008E9170008E5
:1016D0006A4B4FF003025A83BB794FF002004FF080
:1016E00001011A46FFF726FB654B4FF000025A76C0
:1016F000634B1B7D032B04D1614B4FF001021A7524
:101700008CE05F4B1B7D022B40F088805C4B4FF0E0
:1017100000021A7582E0594B4FF00B025A83BB79D5
:101720004FF004004FF001011A46FFF703FB544B42
:101730004FF002025A76524B4FF000021A756EE0DB
:101740004E4B4FF00B025A83BB794FF004004FF021
:1017500001011A46FFF7EEFA494B4FF002025A76A2
:10176000474B4FF000021A7559E0444B4FF00B0203
:101770005A83BB794FF004004FF001011A46FFF77E
:10178000D9FA3F4B4FF002025A763D4B4FF0000220
:101790001A7544E0394B4FF00B025A83BB794FF076
:1017A00004004FF001011A46FFF7C4FA344B4FF022
:1017B00002025A76324B4FF000021A752FE02F4B7F
:1017C0004FF00B025A83BB794FF004004FF0010138
:1017D0001A46FFF7AFFA2A4B4FF002025A76284B0F
:1017E0004FF000021A751AE0244B4FF00B025A8397
:1017F000234B4FF000025A76214B4FF000021A752E
:101800000DE01E4B4FF00B025A831D4B4FF00202AE
:101810005A761B4B4FF000021A7500E000BF4FF0E4
:101820000103FB73BB79002B0CD1164B1A6807F12F
:101830000F03104619464FF000024FF0000303F06B
:10184000D1FF0FE04FF00003BB600E4B196807F1AA
:101850000F0207F10803084611461A464FF000032D
:1018600004F06CF8064BFA799A76054B4FF00002BB
:101870001A76184607F11007BD4680BD00080240E1
:10188000241E0020301F002080B483B000AF0E4B18
:101890007B600E4B4FF004021A8300BF7B68002B65
:1018A0000CBF00230123DBB27A6802F1FF327A60B9
:1018B000002BF3D1054B4FF004025A8307F10C07BC
:1018C000BD4680BC704700BF40420F000008024088
:1018D000F0B583B000AF0346FB80FA884FF00003F9
:1018E00016490968C9680C464FF000051349096894
:1018F0004E6830464FF00001201A65EB010100FBF5
:1019000003F502FB01F42C19A2FB00016318194630
:101910000A4B1B681B891A46084B1B681B88D41A84
:1019200022464FEAE27305F05DFC02460B46134681
:10193000184607F10C07BD46F0BD00BF241E00206D
:10194000F0B583B000AF786079680A464FF00003C5
:101950001749096809898CB24FF0000514490968D4
:101960000E88B0B24FF00001201A65EB010100FBB8
:1019700003F502FB01F42C19A2FB0023E1180B462E
:101980000B490968C8680A4909684968411A0C4640
:101990004FF000051046194622462B4605F022FC62
:1019A00002460B4693B2184607F10C07BD46F0BD40
:1019B000241E002090B583B000AF7860164B1B68E2
:1019C0005A697B689A4210D8134B1B681C8A124BC9
:1019D0001B685B697A68D31A03F101031846FFF7A5
:1019E000AFFF0346E3189BB210E00B4B1B681C8A49
:1019F000094B1B685A697B68D31A1846FFF7A0FF8A
:101A00000346E31A9BB203F1FF339BB2184607F17A
:101A10000C07BD4690BD00BF241E002090B585B0C8
:101A200000AF0346FB80134B1B681B8AFA88D31A4E
:101A30009BB2FB81B7F90E30002B09DB0D4B1B6805
:101A40005C69FB891846FFF743FF0346E3180BE088
:101A5000084B1B685C69FB89C3F100039BB2184605
:101A6000FFF736FF0346E31A184607F11407BD4691
:101A700090BD00BF241E002080B582B000AF47F6A5
:101A8000A873C0F600037B6040F20003C2F20003BB
:101A90003B600BE07B681A683B681A603B6803F1A7
:101AA00004033B607B6803F104037B603A6840F207
:101AB000E403C2F200039A42ECD3074807494FF00F
:101AC00000028842B8BF40F8042BFADB00F0A0F90E
:101AD00007F10807BD4680BDE8000020381F002040
:101AE00080B400AFFEE700BF80B500AF4FF48020A8
:101AF0004FF0010100F0B2F94FF080504FF00101BA
:101B000000F0DAF980BD00BF80B586B000AFF860A4
:101B1000B9601346FB714FF00003FB754FF00100F5
:101B2000FFF7A8FA4FF00100FFF7E6FA4FF00003C5
:101B3000FB750BE0FA68FB7DD318B968FA7D8A184B
:101B400012781A70FB7D03F10103FB75FA7DFB79B6
:101B50009A42EFD34FF00000FFF78CFA07F1180715
:101B6000BD4680BD80B483B000AF0346FB804FF418
:101B70004053C4F20003FA881A6007F10C07BD460F
:101B800080BC704780B483B000AF0346FB714FF454
:101B90004053C4F20003FA795A6007F10C07BD46BE
:101BA00080BC704780B483B000AF0346FB804FF425
:101BB0004053C4F20003FA889A6007F10C07BD464F
:101BC00080BC704780B400AF4FF44053C4F20003B0
:101BD0004AF6AA221A60BD4680BC704780B400AFA6
:101BE0004FF44053C4F200034CF6CC421A60BD4699
:101BF00080BC704780B483B000AF4FF00003FB712E
:101C00004FF00003BB7140F2EC03C2F200031B78FB
:101C100003F10103DAB240F2EC03C2F200031A70DE
:101C200040F2EC03C2F200031B78022B1AD84FF0EB
:101C30000003FB7112E0FA7941F64063C2F200033F
:101C40004FF0160101FB02F29B1803F148034FF01D
:101C500000021A72FB7903F10103FB71FB79012B7E
:101C6000E9D9A6E040F2EC03C2F200031B78052B91
:101C700006D940F2EC03C2F200034FF000021A70E2
:101C800040F2EC03C2F200031B78032B40F090807B
:101C90004FF00003FB7186E0FA7941F64063C2F22F
:101CA00000034FF0160101FB02F29B1803F14803F9
:101CB000DB79002B0ED0FA7941F64063C2F20003C3
:101CC0004FF0160101FB02F29B1803F148035B7A07
:101CD000002B1ED1FA7941F64063C2F200034FF0A7
:101CE000160101FB02F29B1803F148034FF00002BA
:101CF0005A72FA7941F64063C2F200034FF01601BE
:101D000001FB02F29B1803F148034FF000021A7224
:101D100045E0FA7941F64063C2F200034FF0160144
:101D200001FB02F29B1803F148035B7AFF2B1CD0E6
:101D3000FA7941F64063C2F200034FF0160101FB4D
:101D400002F15B1803F148035B7A03F1FF33D9B268
:101D500041F64063C2F200034FF0160000FB02F2AE
:101D60009B1803F148030A465A72F979FA7941F649
:101D70004063C2F200034FF0160000FB02F29B1812
:101D800003F14803DA7941F64063C2F200034FF0F1
:101D9000160000FB01F15B1803F148031A72FB798E
:101DA00003F10103FB71FB79012B7FF675AF00E0B6
:101DB00000BF07F10C07BD4680BC704780B483B0FC
:101DC00000AF13460246FA710A46BA717B71FA797E
:101DD00041F64063C2F200034FF0160101FB02F22C
:101DE0009B1803F14803BA79DA71FA7941F6406336
:101DF000C2F200034FF0160101FB02F29B1803F13F
:101E000048037A795A7207F10C07BD4680BC7047C7
:101E100080B500AF03F0F4FA05F094F9FFF764FE23
:101E2000FFF77AF900F0F2F9FFF704F800F08AF909
:101E300001F0B2FAFEF712FE01F032FE00F092FA63
:101E400000F06CFCFEE700BF80B400AFFEE700BF0F
:101E500080B483B000AF78603960FEE780B483B0AF
:101E600000AF78600B46FB70FB78002B0ED04FF470
:101E70006053C4F202034FF46052C4F20202126BC8
:101E800011467A6841EA02021A630FE04FF4605388
:101E9000C4F202034FF46052C4F20202126B114604
:101EA0007A686FEA020201EA02021A6307F10C077C
:101EB000BD4680BC704700BF80B483B000AF78607F
:101EC0000B46FB70FB78002B0ED04FF46053C4F22E
:101ED00002034FF46052C4F20202126C11467A6897
:101EE00041EA02021A640FE04FF46053C4F20203A5
:101EF0004FF46052C4F20202126C11467A686FEA23
:101F0000020201EA02021A6407F10C07BD4680BC16
:101F1000704700BF80B483B000AF78600B46FB70A1
:101F2000FB78002B0ED04FF46053C4F202034FF441
:101F30006052C4F20202526C11467A6841EA02020F
:101F40005A640FE04FF46053C4F202034FF460523E
:101F5000C4F20202526C11467A686FEA020201EA88
:101F600002025A6407F10C07BD4680BC704700BFEF
:101F700080B400AF41F64063C2F200034FF00202AA
:101F80001A7041F64063C2F200034FF00002DA8794
:101F900041F64063C2F200034FF000029A8741F617
:101FA0004063C2F200034FF00102A3F8402041F663
:101FB0004063C2F200034FF00502A3F8422041F64D
:101FC0004063C2F2000340F60922A3F8442041F620
:101FD0004063C2F200034FF41062A3F8462041F6BA
:101FE0004063C2F20003B3F8423003F1FF339BB207
:101FF0009BB243F430639BB29AB241F64063C2F2A3
:102000000003A3F8482041F64063C2F2000340F603
:102010000142A3F84A2041F64063C2F200034FF4A4
:102020007062A3F84C2041F64063C2F200034FF007
:10203000000283F84F2041F64063C2F2000393F898
:102040004F2041F64063C2F2000383F8502041F66E
:102050004063C2F200034FF0000283F8512041F6C2
:102060004063C2F200034FF00102A3F8542041F68E
:102070004063C2F200034FF00002A3F8522041F681
:102080004063C2F200034FF00102A3F8562041F66C
:102090004063C2F200034FF00502A3F8582041F656
:1020A0004063C2F2000340F60922A3F85A2041F629
:1020B0004063C2F200034FF41062A3F85C2041F6C3
:1020C0004063C2F20003B3F8583003F1FF339BB210
:1020D0009BB243F430639BB29AB241F64063C2F2C2
:1020E0000003A3F85E2041F64063C2F2000340F60D
:1020F0000142A3F8602041F64063C2F200034FF4AE
:102100007062A3F8622041F64063C2F200034FF010
:10211000000283F8652041F64063C2F2000393F8A1
:10212000652041F64063C2F2000383F8662041F661
:102130004063C2F200034FF0000283F86720BD46FF
:1021400080BC704780B500AFFFF712FF04F0FCF8C9
:102150004FF00003184680BD80B582B000AF284B19
:102160004FF6FE721A82264B1B889BB203F01003B7
:10217000002B06D0234B5B6803F1FF32214B5A60E2
:1021800005E0204B5B6803F101021E4B5A601D4BBA
:102190005B7E002B30D11B4B9B7E002B2CD1194B2F
:1021A0001B7E002B28D0174B5A68164BDB689A42CF
:1021B00003D14FF00000FFF723FA124B5A68114B7E
:1021C0001B699A4218D1104B4FF003025A834FF00B
:1021D00005004FF00101FFF75DFA0A4B5B687B6079
:1021E000084B1B6803F1200207F10403104619464F
:1021F0004FF00402FFF788FC07F10807BD4680BDD9
:1022000000000140241E00200008024080B58AB072
:1022100000AF4FF001004FF00101FFF71FFE4FF03C
:1022200001004FF00101FFF775FE07F11C0318468E
:1022300004F0BEFC4FF001033B624FF00003BB8390
:102240004FF00003BB844FF01003FB8307F11C0326
:102250004148194604F030FC3F484FF003014FF06D
:102260000A024FF00A0304F0D3FD3B4B4FF0220269
:102270001A8439484FF001014FF0010204F0A2FD29
:1022800035484FF0010104F0B1FC4FF4407004F008
:102290002FFB4FF01D033B764FF00D037B764FF085
:1022A0000003BB764FF00103FB7607F118031846D5
:1022B00004F032FB4FF019033B7607F11803184680
:1022C00004F02AFB4FF00003BB814FF00F03BB82E9
:1022D00007F10C032048194604F0A8FC07F10C0391
:1022E0001E48194604F0A2FC4FF00403BB814FF0D6
:1022F0000F03BB8207F10C031748194604F096FC44
:102300004FF440737B604FF002033B724FF00103C8
:10231000FB724FF00003BB724FF000037B7207F1BA
:1023200004030F48194602F085FE0D484FF00801DE
:102330004FF0010202F04AFF09484FF009014FF047
:10234000010202F043FF044B4FF000025A6207F112
:102350002807BD4680BD00BF0000014000040040CA
:102360000000024080B586B004AF4FF00003FB715F
:102370000EE0FB7941F6A862C2F200024FEAC30305
:10238000D3184FF001021A71FB7903F10103FB71BD
:10239000FB79042BEDD945F25550FFF7E3FB4FF0E5
:1023A0000600FFF7EFFB40F27120FFF7FBFBFFF7A2
:1023B00009FCFFF713FC47F62C73C0F600034FF03F
:1023C000010200924FF0000201924FF000020292CF
:1023D0004FF00002039242F2F530C0F600001946B9
:1023E0004FF040024FF0000300F07AF807F10807C1
:1023F000BD4680BD80B582B000AF786041F6A8636D
:10240000C2F200031B68002B06D141F6A863C2F29A
:1024100000031B79012B3AD141F6A863C2F20003F5
:102420009B68002B06D141F6A863C2F200031B7B18
:10243000012B2CD141F6A863C2F200031B69002BCB
:1024400006D141F6A863C2F200031B7D012B1ED109
:1024500041F6A863C2F200039B69002B06D141F646
:10246000A863C2F200031B7F012B10D141F6A863C1
:10247000C2F200031B6A002B07D141F6A863C2F227
:10248000000393F82430012B01D1FFF79BFB41F6A9
:10249000A863C2F200034FF000021A6041F6A8637D
:1024A000C2F200034FF000029A6041F6A863C2F244
:1024B00000034FF000021A6141F6A863C2F2000364
:1024C0004FF000029A6141F6A863C2F200034FF098
:1024D00000021A624FF4FA7000F0F2F88EE700BFC3
:1024E00080B58AB002AFF860B9603B601346FB80EC
:1024F000FB68002B04D14FF0500080F31188FEE7F9
:10250000BB6A042B04D94FF0500080F31188FEE71A
:10251000FB881846396B00F017FEB861BB69002BC9
:1025200000F0B080BB691A6BFB8803F1FF334FEA00
:102530008303D3187B617B6923F007037B617B698D
:1025400003F00703002B04D04FF0500080F31188F4
:10255000FEE7FB880093B869B968BA6A7B6B00F044
:10256000D1FC7869F9683A6803F04EFC03461A46D4
:10257000BB691A60FB6A002B02D0FB6ABA691A6059
:1025800003F0D6FC40F2C813C2F200031B6803F14B
:10259000010240F2C813C2F200031A6040F2F003D5
:1025A000C2F200031B68002B0FD140F2F003C2F20D
:1025B0000003BA691A6040F2C813C2F200031B6834
:1025C000012B18D100F0DCFC15E040F2D813C2F268
:1025D00000031B68002B0ED140F2F003C2F200038F
:1025E0001B68DA6ABB6A9A4205D840F2F003C2F26D
:1025F0000003BA691A60BB69DA6A40F2D013C2F20A
:1026000000031B689A4206D9BB69DA6A40F2D0130C
:10261000C2F200031A6040F2EC13C2F200031B681E
:1026200003F1010240F2EC13C2F200031A60BB692D
:10263000DA6A40F2D413C2F200031B689A4206D948
:10264000BB69DA6A40F2D413C2F200031A60BB69B4
:10265000DA6A13464FEA83039B184FEA83031A464C
:1026600040F2F403C2F20003D218BB6903F1040381
:102670001046194602F034FE4FF00103FB6103F0EF
:102680006DFC02E04FF0FF33FB61FB69012B11D1C0
:1026900040F2D813C2F200031B68002B0AD040F2AC
:1026A000F003C2F200031B68DA6ABB6A9A4201D2E5
:1026B00003F032FCFB69184607F12007BD4680BDD8
:1026C00080B584B000AF78604FF00003FB607B689A
:1026D000002B19D000F064F840F2CC13C2F20003D2
:1026E0001A687B68D318BB6040F2F003C2F20003A3
:1026F0001B6803F10403184602F058FEB86800F0A6
:10270000DDFC00F05FF8F860FB68002B01D103F0FE
:1027100003FC07F11007BD4680BD00BF80B586B041
:1027200004AF47F63473C0F600034FF00002009286
:102730004FF0000201924FF0000202924FF00002AF
:10274000039242F6E160C0F6000019464FF04602DF
:102750004FF00003FFF7C4FE78607B68012B13D1B4
:102760004FF0500080F3118840F2D813C2F20003FA
:102770004FF001021A6040F2CC13C2F200034FF096
:1027800000021A6003F090FB7B68002B04D14FF02D
:10279000500080F31188FEE707F10807BD4680BDB1
:1027A00080B400AF40F2DC13C2F200031B6803F1F7
:1027B000010240F2DC13C2F200031A60BD4680BC85
:1027C000704700BF90B583B000AF4FF000037B604F
:1027D00040F2DC13C2F200031B68002B04D14FF05F
:1027E000500080F31188FEE703F0A2FB40F2DC13F7
:1027F000C2F200031B6803F1FF3240F2DC13C2F2A5
:1028000000031A6040F2DC13C2F200031B68002BC5
:1028100040F0868040F2C813C2F200031B68002B10
:102820007ED04FF000033B603DE040F28813C2F2DF
:102830000003DB68DB681C4604F11803184602F04D
:10284000B5FD04F10403184602F0B0FDE26A40F25F
:10285000D413C2F200031B689A4205D9E26A40F21F
:10286000D413C2F200031A60E26A13464FEA8303EC
:102870009B184FEA83031A4640F2F403C2F20003A6
:10288000D21804F104031046194602F029FDE26A49
:1028900040F2F003C2F200031B68DB6A9A4202D3E3
:1028A0004FF001033B6040F28813C2F200031B6843
:1028B000002BBAD140F2E013C2F200031B68002BD8
:1028C00018D00DE000F034F840F2E013C2F200033B
:1028D0001B6803F1FF3240F2E013C2F200031A60FA
:1028E00040F2E013C2F200031B68002BEAD14FF064
:1028F00001033B603B68012B06D040F2E413C2F2B7
:1029000000031B68012B0BD14FF001037B6040F2E9
:10291000E413C2F200034FF000021A6003F0FCFA65
:1029200003F01CFB7B68184607F10C07BD4690BD01
:1029300080B584B000AF40F2DC13C2F200031B6824
:10294000002B40F0CD8040F2CC13C2F200031B6894
:1029500003F1010240F2CC13C2F200031A6040F20C
:10296000CC13C2F200031B68002B4DD140F2801340
:10297000C2F200031B681B68002B04D04FF050000C
:1029800080F31188FEE740F28013C2F200031B6857
:10299000FB6040F28413C2F200031A6840F2801315
:1029A000C2F200031A6040F28413C2F20003FA6814
:1029B0001A6040F2E813C2F200031B6803F101023F
:1029C00040F2E813C2F200031A6040F28013C2F230
:1029D00000031B681B68002B07D140F20003C2F202
:1029E00000034FF0FF321A600EE040F28013C2F293
:1029F00000031B68DB68DB68BB60BB685A6840F299
:102A00000003C2F200031A6040F2CC13C2F20003CA
:102A10001A6840F20003C2F200031B689A426BD3AB
:102A200040F28013C2F200031B681B68002B07D121
:102A300040F20003C2F200034FF0FF321A605BE085
:102A400040F28013C2F200031B68DB68DB68BB60E6
:102A5000BB685B687B6040F2CC13C2F200031A686B
:102A60007B689A4206D240F20003C2F200037A6801
:102A70001A6041E0BB6803F10403184602F096FCBB
:102A8000BB689B6A002B05D0BB6803F1180318468E
:102A900002F08CFCBB68DA6A40F2D413C2F2000385
:102AA0001B689A4206D9BB68DA6A40F2D413C2F2B4
:102AB00000031A60BB68DA6A13464FEA83039B1867
:102AC0004FEA83031A4640F2F403C2F20003D2181D
:102AD000BB6803F104031046194602F001FC9FE7AE
:102AE00040F2E013C2F200031B6803F1010240F25E
:102AF000E013C2F200031A6007F11007BD4680BD63
:102B000080B582B000AF40F2DC13C2F200031B6854
:102B1000002B07D040F2E413C2F200034FF0010291
:102B20001A609CE040F2F003C2F200031B681A68CE
:102B300040F2F003C2F200031B681B6B9A420FD8ED
:102B400040F2F003C2F200031A6840F2F003C2F24E
:102B500000031B6803F1340310461946FFF778F9A8
:102B600040F2F003C2F200031B681B6B184647F6E5
:102B70003C71C0F600014FF0140204F0F9FF034667
:102B8000002B29D040F2F003C2F200031A6840F291
:102B9000F003C2F200031B6803F134031046194628
:102BA000FFF756F919E040F2D413C2F200031B6894
:102BB000002B04D14FF0500080F31188FEE740F263
:102BC000D413C2F200031B6803F1FF3240F2D413A6
:102BD000C2F200031A6000E000BF40F2D413C2F258
:102BE00000031A6813464FEA83039B184FEA8303D6
:102BF0001A4640F2F403C2F20003D3181B68002BFC
:102C0000D1D040F2D413C2F200031A6813464FEA3F
:102C100083039B184FEA83031A4640F2F403C2F27F
:102C20000003D3187B607B685B685B681A467B682F
:102C30005A607B685A687B6803F108039A4205D1A1
:102C40007B685B685B681A467B685A607B685B6878
:102C5000DB681A4640F2F003C2F200031A6007F183
:102C60000807BD4680BD00BF80B584B000AF786066
:102C700039607B68002B04D14FF0500080F311883D
:102C8000FEE740F2F003C2F200031B6803F11803F1
:102C90007868194602F04EFB40F2F003C2F20003DE
:102CA0001B6803F10403184602F080FB3B68B3F194
:102CB000FF3F0ED140F2F003C2F200031B6803F1A4
:102CC000040340F2B410C2F20000194602F008FBFF
:102CD0000AE040F2CC13C2F200031A683B68D31832
:102CE000FB60F86800F0EAF907F11007BD4680BD07
:102CF00080B584B000AF78607B68DB68DB68BB6060
:102D0000BB68002B04D14FF0500080F31188FEE720
:102D1000BB6803F11803184602F048FB40F2DC13CD
:102D2000C2F200031B68002B2BD1BB6803F1040324
:102D3000184602F03BFBBB68DA6A40F2D413C2F2D9
:102D400000031B689A4206D9BB68DA6A40F2D413C2
:102D5000C2F200031A60BB68DA6A13464FEA8303C3
:102D60009B184FEA83031A4640F2F403C2F20003B1
:102D7000D218BB6803F104031046194602F0B0FAFA
:102D800009E0BB6803F1180340F28810C2F20000AA
:102D9000194602F0A5FABB68DA6A40F2F003C2F203
:102DA00000031B68DB6A9A4203D34FF00103FB6008
:102DB00002E04FF00003FB60FB68184607F11007C4
:102DC000BD4680BD80B483B000AF78607B68002BC7
:102DD00004D14FF0500080F31188FEE740F2E81371
:102DE000C2F200031A687B681A6040F2CC13C2F288
:102DF00000031A687B685A6007F10C07BD4680BC67
:102E0000704700BF80B584B000AF786039607B68E0
:102E1000002B04D14FF0500080F31188FEE73B688F
:102E2000002B04D14FF0500080F31188FEE703F02F
:102E30007FF83B681B68B3F1FF3F03D14FF00003FD
:102E4000FB6038E07B681A6840F2E813C2F20003C6
:102E50001B689A420CD07B685A6840F2CC13C2F2CD
:102E600000031B689A4203D84FF00103FB6022E085
:102E700040F2CC13C2F200031A687B685B68D21A76
:102E80003B681B689A4213D23B681A687B68596892
:102E900040F2CC13C2F200031B68CB1AD2183B6875
:102EA0001A607868FFF78EFF4FF00003FB6002E0C6
:102EB0004FF00103FB6003F051F8FB68184607F17F
:102EC0001007BD4680BD00BF80B400AF40F2E413E0
:102ED000C2F200034FF001021A60BD4680BC704789
:102EE00080B582B000AF786000E000BF00F09AF8D3
:102EF00040F2F403C2F200031B68012BF5D903F082
:102F00000BF8F3E780B584B000AFF860B9607A6081
:102F10003B60FB6803F134031A46BB681046194650
:102F20004FF00A0204F0A6FFFB684FF0000283F89E
:102F30003D207B68042B02D94FF004037B60FB68C3
:102F40007A68DA62FB687A681A64FB6803F1040342
:102F5000184602F0B7F9FB6803F11803184602F0AF
:102F6000B1F9FB68FA681A617B68C3F10502FB6876
:102F70009A61FB68FA685A6207F11007BD4680BD86
:102F800080B582B000AF4FF000037B6013E07A6839
:102F900013464FEA83039B184FEA83031A4640F215
:102FA000F403C2F20003D318184602F067F97B68F5
:102FB00003F101037B607B68042BE8D940F25810D1
:102FC000C2F2000002F05AF940F26C10C2F20000A6
:102FD00002F054F940F28810C2F2000002F04EF9FB
:102FE00040F29C10C2F2000002F048F940F2B41026
:102FF000C2F2000002F042F940F28013C2F2000374
:1030000040F25812C2F200021A6040F28413C2F277
:10301000000340F26C12C2F200021A6007F10807C6
:10302000BD4680BD80B582B000AF40F2B013C2F2A1
:1030300000031B68002B3CD0FFF7B2FB40F29C134F
:10304000C2F200031B68002B14BF002301237B6026
:10305000FFF7B8FB7B68002B2BD102F069FF40F231
:103060009C13C2F20003DB68DB683B603B6803F142
:103070000403184602F09AF940F2C813C2F20003A2
:103080001B6803F1FF3240F2C813C2F200031A605A
:1030900040F2B013C2F200031B6803F1FF3240F2AA
:1030A000B013C2F200031A6002F058FF386800F053
:1030B00085F807F10807BD4680BD00BF80B582B026
:1030C00000AF786040F2F003C2F200031B687A6838
:1030D0005A6040F2CC13C2F200031B687A689A422D
:1030E00010D240F28413C2F200031A6840F2F003D7
:1030F000C2F200031B6803F104031046194602F0F4
:1031000019F91DE040F28013C2F200031A6840F280
:10311000F003C2F200031B6803F1040310461946D2
:1031200002F008F940F20003C2F200031B687A685B
:103130009A4205D240F20003C2F200037A681A6094
:1031400007F10807BD4680BD80B584B000AF0346D7
:103150003960FB804FF0440003F052FC0346FB60F3
:10316000FB68002B23D03B68002B07D1FB884FEA7C
:103170008303184603F044FC034600E03B68FA680A
:103180001363FB681B6B002B06D1F86803F08AFC05
:103190004FF00003FB600AE0FB681A6BFB884FEA04
:1031A000830310464FF0A5011A4604F0CDFDFB68DD
:1031B000184607F11007BD4680BD00BF80B582B03C
:1031C00000AF78607B681B6B184603F06BFC786877
:1031D00003F068FC07F10807BD4680BD80B483B0EA
:1031E00000AF40F2F003C2F200031B687B607B6813
:1031F000184607F10C07BD4680BC704780B584B007
:1032000000AF78607B68FB607B68002B04D14FF0D7
:10321000500080F31188FEE7FB68DA6A40F2F003A1
:10322000C2F200031B68DB6A9A4257D240F2F003F5
:10323000C2F200031B68DB6AC3F10502FB689A61F6
:10324000FB685969FB68DA6A13464FEA83039B18E7
:103250004FEA83031A4640F2F403C2F20003D31884
:10326000994233D1FB6803F10403184602F09EF83B
:1032700040F2F003C2F200031B68DA6AFB68DA620C
:10328000FB68DA6A40F2D413C2F200031B689A4268
:1032900006D9FB68DA6A40F2D413C2F200031A605E
:1032A000FB68DA6A13464FEA83039B184FEA8303ED
:1032B0001A4640F2F403C2F20003D218FB6803F18D
:1032C00004031046194602F00BF807E040F2F00341
:1032D000C2F200031B68DA6AFB68DA6207F11007C2
:1032E000BD4680BD80B584B000AF78607B68FB6070
:1032F0007B68002B3AD0FB68DA6AFB681B6C9A4249
:1033000034D0FB6803F10403184602F04FF8FB6861
:103310001A6CFB68DA62FB68DB6AC3F10502FB68C2
:103320009A61FB68DA6A40F2D413C2F200031B68A8
:103330009A4206D9FB68DA6A40F2D413C2F200035B
:103340001A60FB68DA6A13464FEA83039B184FEA58
:1033500083031A4640F2F403C2F20003D218FB685A
:1033600003F104031046194601F0BAFF07F11007F4
:10337000BD4680BD80B483B000AF0346FB8003E050
:10338000FB8803F1FF33FB80FB88002BF8D107F1AA
:103390000C07BD4680BC704780B586B004AF4FF0C7
:1033A00005004FF00101FEF759FD4FF470633B60DB
:1033B0004FF000037B714FF001033B714FF00103AD
:1033C000BB714FF00003FB713B464FF40060C4F249
:1033D0000200194601F02EFE4FF41C433B604FF0F3
:1033E00000037B714FF000033B714FF00103FB7151
:1033F0003B464FF00000C4F20200194601F01AFEED
:103400004FF40063C4F202034FF470621A8341F672
:10341000A863C2F200034FF001021A754FF00200D8
:103420004FF001014FF0000202F03EF9024641F672
:10343000D063C2F200031A6047F65073C0F600036F
:103440004FF0010200924FF0000201924FF0000293
:1034500002924FF00002039243F27940C0F600005E
:1034600019464FF040024FF00003FFF739F807F11B
:103470000807BD4680BD00BF80B586B000AF78604C
:103480004FF00003BB754FF000037B754FF0000356
:10349000FB754FF000037B824FF41C437B8241F6A7
:1034A000A863C2F200034FF000021A7500F090F812
:1034B0000346FB734FF00A00FFF702F900F088F8AB
:1034C00003467B74FB7BFF2B2FD0FB7B7A7C9A42DD
:1034D0006CD1FB7BBB73FB7D132B04D8FB7D03F10D
:1034E0000103FB7562E0FB7D142B5FD14FF01503E8
:1034F000FB75FB7B03F11003DBB2FB7341F6D0637A
:10350000C2F200031B68002B50D041F6D063C2F218
:1035100000031A6807F10F03104619464FF0000226
:103520004FF0000302F05EF940E0FB7D002B19D064
:10353000FB7D132B16D841F6D063C2F200031B6843
:10354000002B2DD041F6D063C2F200031A6807F1B8
:103550000E03104619464FF000024FF0000302F030
:1035600041F91DE0FB7D152B1AD1BB7B03F1200334
:10357000DBB2BB7341F6D063C2F200031B68002BC1
:103580000ED041F6D063C2F200031A6807F10E03B1
:10359000104619464FF000024FF0000302F022F9E6
:1035A0004FF0FF033B744FF00003FB7541F6A86337
:1035B000C2F200031B6903F1010241F6A863C2F2E3
:1035C00000031A614FF03200FFF77AF86EE700BF90
:1035D00080B582B000AF4FF00003FB714FF00003E5
:1035E000BB804FF41C43BB804FF40063C4F2020362
:1035F0004FF470621A834FF00003FB71FEE0FB7919
:10360000032B00F2F78001A252F823F01D360008C8
:1036100093360008093700087F3700084FF400632D
:10362000C4F202034FF480725A834FF00A00FFF78E
:10363000A1FE4FF00003C4F202031B697B804FF42C
:103640000063C4F202034FF470621A837B886FEA4E
:103650000302BB8802EA0303B3F5006F10D0B3F591
:10366000006F03DCB3F5806F07D0C3E0B3F5805F74
:1036700009D0B3F5004F09D0BCE04FF00103C3E01F
:103680004FF00203C0E04FF00303BDE04FF00A0328
:10369000BAE04FF40063C4F202034FF400725A839D
:1036A0004FF00A00FFF766FE4FF00003C4F202037A
:1036B0001B697B804FF40063C4F202034FF4706215
:1036C0001A837B886FEA0302BB8802EA0303B3F51F
:1036D000006F10D0B3F5006F03DCB3F5806F07D037
:1036E00088E0B3F5805F09D0B3F5004F09D081E0E1
:1036F0004FF0040388E04FF0050385E04FF0060328
:1037000082E04FF00B037FE04FF40063C4F202034A
:103710004FF480625A834FF00A00FFF72BFE4FF000
:103720000003C4F202031B697B804FF40063C4F200
:1037300002034FF470621A837B886FEA0302BB882E
:1037400002EA0303B3F5006F10D0B3F5006F03DC9A
:10375000B3F5806F07D04DE0B3F5805F09D0B3F5C6
:10376000004F09D046E04FF007034DE04FF008034B
:103770004AE04FF0090347E04FF00C0344E04FF4F8
:103780000063C4F202034FF400625A834FF00A0050
:10379000FFF7F0FD4FF00003C4F202031B697B80CA
:1037A0004FF40063C4F202034FF470621A837B8803
:1037B0006FEA0302BB8802EA0303B3F5006F10D07F
:1037C000B3F5006F03DCB3F5806F07D012E0B3F5FB
:1037D000805F09D0B3F5004F09D00BE04FF00D0327
:1037E00012E04FF000030FE04FF00F030CE04FF03A
:1037F0000E0309E0FB7903F10103FB71FB79032B55
:103800007FF6FDAE4FF0FF03184607F10807BD46EF
:1038100080BD00BF80B483B000AF78607A68064B8B
:103820009A4203D0054B7A681A6000E000BF07F1A6
:103830000C07BD4680BC7047F40100202C1F0020FF
:1038400080B582B000AF854B1B689B687B607A684F
:10385000834B9A4203D1834801F0DEF8F7E07F4BB7
:103860001B6803F111034FF000001946FCF7E6FC5A
:103870007A4B1B681B7CA3F10203062B00F2E68047
:1038800001A252F823F000BFA5380008AD380008A7
:10389000B5380008BD38000821390008853900080E
:1038A000E93900086F4801F0B7F8D0E06D4801F041
:1038B000B3F8CCE06B4801F0AFF8C8E06A4B1B6886
:1038C0001B8B9BB21BB2184666494FF0000241F2B7
:1038D000707301F0BBF90346012B1BD1614801F065
:1038E0009BF84FF001004FF0FF014FF00202FEF78E
:1038F00065FA4FF002004FF001014FF00002FDF7B2
:1039000019FA4FF001004FF0FF014FF00202FEF7ED
:1039100055FA9CE053484FF0010101F093F896E00E
:10392000514B1B685B8B9BB21BB218464D494FF045
:10393000000241F2707301F089F90346012B1BD19B
:10394000484801F069F84FF001004FF0FF014FF0D7
:103950000202FEF733FA4FF002004FF001014FF080
:103960000002FDF7E7F94FF001004FF0FF014FF0C3
:103970000202FEF723FA6AE03A484FF0010101F033
:1039800061F864E0384B1B689B8B9BB21BB21846F6
:1039900034494FF0000241F2707301F057F90346C9
:1039A000012B1BD12F4801F037F84FF001004FF0E9
:1039B000FF014FF00202FEF701FA4FF002004FF054
:1039C00001014FF00002FDF7B5F94FF001004FF093
:1039D000FF014FF00202FEF7F1F938E021484FF005
:1039E000010101F02FF832E01F4B1B68DB8B9BB20B
:1039F0001BB218461B494FF0000241F2707301F0F0
:103A000025F90346012B1BD1164801F005F84FF0AC
:103A100001004FF0FF014FF00202FEF7CFF94FF027
:103A200002004FF001014FF00002FDF783F94FF063
:103A300001004FF0FF014FF00202FEF7BFF906E070
:103A400008484FF0010100F0FDFF00E000BF4FF01B
:103A50000003184607F10807BD4680BD2C1F002053
:103A6000F4010020141F0020241E002080B500AFA8
:103A7000084B094A1A60094B4FF000021A72074BB3
:103A80004FF020025A72FFF7DBFE4FF0000318469A
:103A900080BD00BF2C1F002004000020141F002048
:103AA00080B584B004AF4FF002004FF001014FF039
:103AB000000201F0F9FD02460D4B1A604FF00103C0
:103AC00000934FF0000301934FF0000302934FF077
:103AD00000030393074808494FF080024FF00003AA
:103AE000FEF7FEFC054B4FF001021A73BD4680BD88
:103AF000301F0020A54700085C7F0008A81E00209A
:103B000080B500AF044B1B689B681846FFF782FE28
:103B1000FFF796FE80BD00BF2C1F002080B500AFD0
:103B2000044B1B68DB681846FFF774FEFFF788FE3E
:103B300080BD00BF2C1F002080B500AF044B1B6868
:103B40001B681846FFF766FEFFF77AFE80BD00BFD0
:103B50002C1F002090B58DB002AF78600B46FB7033
:103B6000C54B1B7E002B16D0FB780C2B03D0FB78AB
:103B70001C2B40F00A864FF001004FF00001FDF7CA
:103B800089FD4FF004004FF001014FF00002FDF7F6
:103B9000D1F800F0FABDB84B5B7E022B2CD1FB783C
:103BA0001C2B40F0F285B54800F036FFB24B9B7EEF
:103BB000A3F10203042B10D801A252F823F000BF96
:103BC000DB3B0008DB3B0008D53B0008DB3B000883
:103BD000DB3B0008FDF758FE00E000BFA64B4FF0AE
:103BE00000025A764FF000004FF001014FF0000242
:103BF000FDF7A0F800F0C9BD9F4B1B7D012B07D03E
:103C00009D4B1B7D032B03D09B4B1B7D022B3CD17B
:103C1000FB780B2B20D1984B4FF002021A75964B74
:103C2000DB8A9BB21BB24FF003001946FDF774FB11
:103C30000346002B08D04FF002004FF001014FF077
:103C40000002FDF777F807E04FF000004FF00101A8
:103C50004FF00002FDF76EF8FB781C2B40F09585C5
:103C6000864800F0D9FE844B4FF000025A76824B12
:103C70004FF000021A754FF001004FF001014FF0B4
:103C80000002FDF757F800F080BD7B681B7C03F154
:103C9000FF33072B00F2798501A252F823F000BF11
:103CA000C13C00083D420008FB420008BB4300083D
:103CB0007F4400084B45000809460008C746000835
:103CC000FB78A3F10B03242B00F2A88201A252F887
:103CD00023F000BF934000081D4200081D42000869
:103CE0001D4200081D4200081D4200081D42000838
:103CF0001D4200081D4200081D4200081D42000828
:103D00001D4200081D4200081D4200081D42000817
:103D1000693D0008B94100087F3D00081B410008CB
:103D2000D73D0008474100081D4200081D42000819
:103D30001D4200081D4200081D4200081D420008E7
:103D40001D4200081D4200081D4200081D420008D7
:103D50001D4200081D4200081D4200087141000874
:103D60001D4200088F410008FFF7D8FE4FF0040005
:103D70004FF001014FF00002FCF7DCFF5DE23F482D
:103D800000F04AFE3C4B5B7E022B17D13A4B9B7EE8
:103D9000A3F10203042B10D801A252F823F000BFB4
:103DA000BB3D0008BB3D0008B53D0008BB3D000819
:103DB000BB3D0008FDF768FD00E000BF2E4B4FF053
:103DC00000025A764FF000004FF001014FF0000260
:103DD000FCF7B0FF31E24FF00003BB82274B5B7A68
:103DE0002B2B05D02D2B78D0202B00F0DE804EE140
:103DF00007F1140321481946214A41F2707300F07B
:103E0000B1FE0346002B5FD11B4B5B681846FDF7E4
:103E1000D1FD03461A46BB8A1BB2D21841F2707319
:103E20009A4210DD4FF002004FF001014FF0000206
:103E3000FCF780FF4FF001004FF0FF014FF002024E
:103E4000FDF7BCFF24E10C4B1B68DB8B1A46BB8AD9
:103E50001BB29A4216DB4FF002004FF001014FF007
:103E60000002FCF767FF4FF001004FF0FF014FF039
:103E70000202FDF7A3FF0BE1241E0020141F002007
:103E800090E8FFFFBB8A1BB24FF001001946FDF717
:103E900043FA0346002B0ED04FF006004FF000010E
:103EA000FDF7F8FB4FF002004FF001014FF0000268
:103EB000FCF740FFECE04FF000004FF001014FF045
:103EC0000002FCF737FFE3E04FF002004FF0010182
:103ED0004FF00002FCF72EFFDAE007F11403B348BD
:103EE0001946B34A41F2707300F03CFE0346002BC2
:103EF00052D1B04B5B681846FDF75CFD03469BB2A0
:103F00001AB2BB8A1BB2D318002B10DA4FF0020092
:103F10004FF001014FF00002FCF70CFF4FF00100E1
:103F20004FF0FF014FF00202FDF748FFB0E0A14B58
:103F30001B689B8B1A46BB8A1BB2C3F100039A42D3
:103F400010DB4FF002004FF001014FF00002FCF7D0
:103F5000F1FE4FF001004FF0FF014FF00202FDF7BC
:103F60002DFF95E0BB8A1BB24FF002001946FDF70A
:103F7000D3F90346002B06D04FF006004FF00001A6
:103F8000FDF788FB84E04FF000004FF001014FF097
:103F90000002FCF7CFFE7BE04FF002004FF0010182
:103FA0004FF00002FCF7C6FE72E007F114037F48F1
:103FB00019467F4A41F2707300F0D4FD0346002B8E
:103FC0005CD1BB8A9CB27B4B5B681846FDF7F2FC68
:103FD0000346E31A9BB2FB84B7F92630002B18DBAB
:103FE000744B1B68DB8B1A46B7F926309A422BDBE1
:103FF0004FF002004FF001014FF00002FCF79AFE73
:104000004FF001004FF0FF014FF00202FDF7D6FE26
:104010003EE0684B1B689B8B1A46B7F92630C3F10C
:1040200000039A4210DB4FF002004FF001014FF005
:104030000002FCF77FFE4FF001004FF0FF014FF050
:104040000202FDF7BBFE23E0BB8A1BB24FF0030068
:104050001946FDF761F90346002B06D04FF0060024
:104060004FF00001FDF716FB12E04FF000004FF09B
:1040700001014FF00002FCF75DFE09E04FF0020085
:104080004FF001014FF00002FCF754FE00E000BFCA
:10409000D3E0484B1B7D002B3DD1464B1B681B8B4F
:1040A0001846FDF7BBFC3862424B5A683B6A9A429D
:1040B00008D34FF002004FF001014FF00002FCF76F
:1040C00039FE29E03B4B4FF003021A75394B5B6810
:1040D0001846FDF76FFC03461A46364BDA82386AFB
:1040E000FDF766F80346002B0CD04FF002004FF0AE
:1040F00001014FF00002FCF71DFE2E4B4FF00002B5
:104100001A7509E04FF000004FF001014FF0000276
:10411000FCF710FE00E000BF8FE0264BDB7E012B9A
:1041200000F088804FF00100FDF76AFA4FF00100BF
:10413000FDF78AFA4FF000004FF001014FF0000246
:10414000FCF7F8FD76E01B4BDB7E022B74D04FF0C2
:104150000100FDF755FA4FF00000FDF775FA4FF03A
:1041600000004FF001014FF00002FCF7E3FD63E0B7
:104170004FF007004FF00001FDF78CFA4FF00100FF
:104180004FF001014FF00002FCF7D4FD55E04FF075
:1041900007004FF00001FDF77DFA4FF001004FF0EE
:1041A00001014FF00002FCF7C5FD46E0141F00209E
:1041B00090E8FFFF241E0020C04B5B681846FDF707
:1041C000F9FB03467B827A8A41F270739A4214D8D3
:1041D000BA4B1B6803F1180207F112031046194687
:1041E0004FF00202FDF790FC4FF001004FF001018B
:1041F0004FF00002FCF79EFD1FE04FF002004FF071
:1042000001014FF00002FCF795FD4FF001004FF067
:10421000FF014FF00202FDF7D1FD0EE0FB7841F205
:104220007072009218464FF00301A54AA54B00F0AA
:1042300093FD02E000BF00E000BFA6E2FB781C2B6C
:1042400004D01E2B18D00A2B0BD049E0FFF758FCE6
:104250004FF004004FF001014FF00002FCF76AFD3F
:104260004AE0FFF769FC4FF000004FF001014FF00A
:104270000002FCF75FFD3FE007F118039048194684
:10428000904A41F2707300F06DFC0346002B16D18A
:104290008A4B5B68FB61894B1B681A4607F1180360
:1042A000104619464FF00802FDF72EFC4FF00100B2
:1042B0004FF001014FF00002FCF73CFD1CE04FF015
:1042C00002004FF001014FF00002FCF733FD4FF008
:1042D00001004FF0FF014FF00202FDF76FFD0BE010
:1042E000FB7841F27072009218464FF00101744A57
:1042F000744B00F031FD00BF47E2FB781C2B04D06B
:104300001E2B18D00A2B0BD04AE0FFF7F9FB4FF019
:1043100004004FF001014FF00002FCF70BFD4BE0F1
:10432000FFF70AFC4FF000004FF001014FF00002D0
:10433000FCF700FD40E007F1180361481946614AA7
:1043400041F2707300F00EFC0346002B17D15B4B5B
:104350005B68FB61594B1B6803F1080207F1180306
:10436000104619464FF00802FDF7CEFB4FF0010052
:104370004FF001014FF00002FCF7DCFC1CE04FF0B5
:1043800002004FF001014FF00002FCF7D3FC4FF0A8
:1043900001004FF0FF014FF00202FDF70FFD0BE0AF
:1043A000FB7841F27072009218464FF00101444AC6
:1043B000444B00F0D1FC00BFE7E1FB781C2B04D09C
:1043C0001E2B18D00A2B0BD04BE0FFF799FB4FF0B8
:1043D00004004FF001014FF00002FCF7ABFC4DE090
:1043E000FFF7AAFB4FF000004FF001014FF0000271
:1043F000FCF7A0FC42E007F11803314819464FF0E2
:10440000000241F2707300F0ADFB0346002B17D1A0
:104410002A4B5B68FB61294B1B6803F1100207F113
:104420001803104619464FF00802FDF76DFB4FF0D8
:1044300001004FF001014FF00002FCF77BFC1DE092
:104440004FF002004FF001014FF00002FCF772FC48
:104450004FF001004FF0FF014FF00202FDF7AEFCFC
:104460000CE0FB7841F27072009218464FF00101A7
:10447000134A4FF0000300F06FFC00BF85E1FB78AA
:104480001C2B04D01E2B1FD00A2B0BD04FE0FFF7A4
:1044900037FB4FF004004FF001014FF00002FCF732
:1044A00049FC51E0FFF748FB4FF000004FF00101DD
:1044B0004FF00002FCF73EFC46E000BF241E002047
:1044C000141F002090E8FFFF07F11603B1481946BA
:1044D0004FF0000241F2707300F044FB0346002BE2
:1044E00014D1AD4B1B6803F1180207F116031046F7
:1044F00019464FF00202FDF707FB4FF001004FF0A5
:1045000001014FF00002FCF715FC1DE04FF0020026
:104510004FF001014FF00002FCF70CFC4FF00100DE
:104520004FF0FF014FF00202FDF748FC0CE0FB7872
:1045300041F27072009218464FF00101954A4FF017
:10454000000300F009FC00BF1FE1FB781C2B04D026
:104550001E2B18D00A2B0BD048E0FFF7D1FA4FF0F2
:1045600004004FF001014FF00002FCF7E3FB4AE0CA
:10457000FFF7E2FA4FF000004FF001014FF00002A8
:10458000FCF7D8FB3FE007F11603824819464FF0CD
:10459000000241F2707300F0E5FA0346002B14D1DB
:1045A0007D4B1B6803F11A0207F1160310461946EA
:1045B0004FF00202FDF7A8FA4FF001004FF00101A1
:1045C0004FF00002FCF7B6FB1DE04FF002004FF089
:1045D00001014FF00002FCF7ADFB4FF001004FF07E
:1045E000FF014FF00202FDF7E9FB0CE0FB7841F21E
:1045F0007072009218464FF00101664A4FF00003B6
:1046000000F0AAFB00BFC0E0FB781C2B04D01E2BDF
:1046100018D00A2B0BD048E0FFF772FA4FF00400D5
:104620004FF001014FF00002FCF784FB4AE0FFF776
:1046300083FA4FF000004FF001014FF00002FCF749
:1046400079FB3FE007F11003524819464FF0000292
:1046500041F2707300F086FA0346002B14D14E4BE2
:104660001B6803F11C0207F11003104619464FF0B6
:104670000202FDF749FA4FF001004FF001014FF03F
:104680000002FCF757FB1DE04FF002004FF0010164
:104690004FF00002FCF74EFB4FF001004FF0FF011E
:1046A0004FF00202FDF78AFB0CE0FB7841F27072DA
:1046B000009218464FF00101364A4FF0000300F017
:1046C0004BFB00BF61E0FB781C2B04D01E2B1BD0E2
:1046D0000A2B0BD04BE0FFF713FA4FF004004FF01A
:1046E00001014FF00002FCF725FB4DE02B4B2C4A5B
:1046F0001A60FFF7A5F84FF000004FF001014FF0EE
:104700000002FCF717FB3FE007F10E0321481946B2
:104710004FF0000241F2707300F024FA0346002BC0
:1047200014D11D4B1B6803F11E0207F10E03104646
:1047300019464FF00202FDF7E7F94FF001004FF084
:1047400001014FF00002FCF7F5FA1DE04FF0020006
:104750004FF001014FF00002FCF7ECFA4FF00100BE
:104760004FF0FF014FF00202FDF728FB0CE0FB7851
:1047700041F27072009218464FF00101054A4FF065
:10478000000300F0E9FA00BF00BF07F12C07BD46A7
:1047900090BD00BF141F0020241E00202C1F0020ED
:1047A0001C00002080B584B000AF78604FF000039B
:1047B000FB73FFF75BF98E4B4FF000021A738D4BC2
:1047C0001B68002B1ED08B4B1B68184601F0FAF9B2
:1047D0000346002B16D0874B1A6807F10C031046CE
:1047E00019464FF00A024FF0000301F00DF903469D
:1047F000002B07D0804B1A68BB89DBB210461946E4
:10480000FFF7A8F97D4B1B68002B1CD07B4B1B6866
:10481000184601F0D7F90346002B14D0774B1A68DD
:1048200007F10B03104619464FF00A024FF0000340
:1048300001F0EAF80346002B05D0FB7A012B02D1E8
:104840006F4800F0E9F8FB7B03F10103FB736A4B4F
:104850001B681B7C012B40F0BF80FB7B092B40F2C7
:10486000BB804FF00003FB73664B5B7E002B40F078
:104870009A80644B5B681846FDF79CF803469BB230
:104880001BB2184660494FF0000241F2707300F00D
:10489000DDF95D484FF0000100F0D4F8594B1B7E64
:1048A000022B1CD0032B37D0012B72D1554B9A68A9
:1048B000544B5B68D31A1846FDF742F803469BB287
:1048C0001BB2184650494FF0000241F2707300F0DD
:1048D000BDF94D484FF0010100F0B4F87CE0494BC0
:1048E0005A68484B9B68D31A1846FDF729F80346C7
:1048F0009BB21BB2184644494FF0000241F270735C
:1049000000F0A4F9404B4FF02D025A723E484FF090
:10491000010100F097F85FE03A4B9A68394B5B6809
:104920009A4218D3374B9A68364B5B68D31A1846AD
:10493000FDF706F803469BB21BB2184632494FF00A
:10494000000241F2707300F081F92F484FF001012D
:1049500000F078F840E02B4B5A682A4B9B68D31A3A
:104960001846FCF7EDFF03469BB21BB218462649DA
:104970004FF0000241F2707300F068F9224B4FF0E3
:104980002D025A7220484FF0010100F05BF800BF81
:1049900022E01C4B1B7D012B1DD14FF001001B4958
:1049A000FBF74CFC17E0174B5B7E022B14D1154B29
:1049B0009B7E022B03D0134B9B7E032B05D14FF024
:1049C00000001349FBF73AFC06E04FF000001149E4
:1049D000FBF734FC00E000BF054B9B6803F10102CC
:1049E000034B9A604FF00A00FDF76AFEE7E600BF4E
:1049F000A81E0020D01E00202C1F0020301F0020E9
:104A0000141F0020241E0020201F0020647F0008A7
:104A10006C7F0008747F000880B582B000AF7860BA
:104A20007B684FF000021A727B684FF020025A72C6
:104A300078684FF0010100F005F807F10807BD465E
:104A400080BD00BF80B586B000AF78600B46FB70BC
:104A5000414A07F10C0392E80300186003F10403D4
:104A6000198003F102034FEA11421A704FF000035C
:104A7000FB744FF00003FB754FF00003BB757B68C0
:104A80001B7A002B1BD17B685B7A2D2B05D1FB7821
:104A900018463249FBF7D2FB0EE07B685B7A2B2B82
:104AA00005D1FB7818462E49FBF7C8FB04E0FB78DC
:104AB00018462949FBF7C2FB4FF0000347E07B682B
:104AC0001B7A042B41D84FF00503BB757B681B7A1A
:104AD00003F1FF33DBB2FB751AE097F9163097F953
:104AE000172079688A5C07F11801CB1803F80C2CA1
:104AF000BB7D03F1FF33BB7597F91630042B03D14F
:104B0000BB7D03F1FF33BB75FB7D03F1FF33FB7509
:104B100097F91730002BE0DA7B685B7A2D2B03D1F5
:104B20004FF02D033B7306E07B685B7A2B2B02D1A1
:104B30004FF02E033B73FA7807F10C031046194629
:104B4000FBF77CFB4FF0000301E04FF00103184638
:104B500007F11807BD4680BD8C7F00087C7F0008E8
:104B6000847F000880B487B000AFF860B960FA8035
:104B7000BB804FF00003FB824FF000037B754FF0CA
:104B800001037B82FB681B7A002B06D1BB684FF0C8
:104B900000021A804FF0000351E0FB681B7A03F11A
:104BA000FF33DBB27B7529E097F91530FA68D35CE7
:104BB0002F2B05D997F91530FA68D35C392B02D918
:104BC0004FF001033BE097F91530FA68D35CA3F18D
:104BD00030039BB27A8A02FB03F39AB2FB8AD318A2
:104BE0009BB2FB827B8A1A464FEA8202D3184FEAB5
:104BF00043037B827B7D03F1FF337B7597F915308F
:104C0000002BD1DAFB685B7A2D2B04D1FB8AC3F130
:104C100000039BB2FB82BB68FA8A1A80B7F91620A0
:104C2000B7F906309A4205DBB7F91620B7F9043018
:104C30009A4202DD4FF0010301E04FF000031846F5
:104C400007F11C07BD4680BC704700BF80B487B029
:104C500000AFB9600146F981BA81FB804FF00003D3
:104C6000FB75B7F90E20B7F906309A4205DCB7F9A3
:104C70000E20B7F90C309A420DDAB7F90E20B7F9C9
:104C800006309A4202DDFB88FB8101E0BB89FB8193
:104C90004FF00103FB75B7F90E30002B09DABB6842
:104CA0004FF02D025A72FB89C3F100039BB2FB81C6
:104CB00003E0BB684FF020025A72BB684FF000025D
:104CC0001A724FF47A73BB824FF00003FB7430E02A
:104CD000B7F90E20BB8A92FBF3F3BB74BB7C092BA4
:104CE00017D8BB7C002B02D1FB7C002B11D0BB68FA
:104CF0001B7ABA7C02F13002D1B2BA68D154BB68D7
:104D00001B7A03F10103DAB2BB681A724FF0010398
:104D1000FB74B7F90E30BA8A93FBF2F102FB01F291
:104D20009B1AFB81BA8A0B4BA3FB02134FEAD303F6
:104D3000BB82BB8A002BCBD1FB7D002B02D04FF076
:104D4000010301E04FF00003184607F11C07BD46C0
:104D500080BC7047CDCCCCCC80B584B000AF3A607D
:104D60000246FA710A46BA71BB80FB79092B09D950
:104D7000FB790C2B06D0FB790D2B03D0FB790F2B85
:104D800040F05381FB790C2B1DD13B681B7A002B23
:104D900000F04B813B681B7A002B06D03B681B7AE6
:104DA00003F1FF33DAB23B681A7238684FF0010141
:104DB000FFF748FE4FF000004FF001014FF00002F6
:104DC000FBF7B8FF31E1FB790D2B02D00F2B18D088
:104DD0002FE0BB7903F00203002B00F026813B6833
:104DE0004FF02D025A7238684FF00101FFF72AFE8A
:104DF0004FF000004FF001014FF00002FBF79AFF67
:104E000013E1BB7903F00203002B00F00E813B6835
:104E10004FF02B025A7238684FF00101FFF712FE73
:104E20004FF000004FF001014FF00002FBF782FF4E
:104E3000FBE03B681B7A032B10D94FF002004FF0C8
:104E400001014FF00002FBF775FF4FF001004FF03A
:104E5000FF014FF00202FCF7B1FFE6E0FB79092BFE
:104E600000F2B38001A252F823F000BF954E000873
:104E7000BD4E0008DB4E0008F94E0008174F000831
:104E8000354F0008534F0008714F00088F4F00083E
:104E9000AD4F00083B681B7A002B00F0C6803B68D2
:104EA0001B7A3A684FF03001D1544FF000004FF0B8
:104EB00001014FF00002FBF73DFF87E03B681B7AE2
:104EC0003A684FF03101D1544FF000004FF001012A
:104ED0004FF00002FBF72EFF78E03B681B7A3A6840
:104EE0004FF03201D1544FF000004FF001014FF06C
:104EF0000002FBF71FFF69E03B681B7A3A684FF03E
:104F00003301D1544FF000004FF001014FF0000287
:104F1000FBF710FF5AE03B681B7A3A684FF0340108
:104F2000D1544FF000004FF001014FF00002FBF7A9
:104F300001FF4BE03B681B7A3A684FF03501D154D2
:104F40004FF000004FF001014FF00002FBF7F2FEBE
:104F50003CE03B681B7A3A684FF03601D1544FF081
:104F600000004FF001014FF00002FBF7E3FE2DE0DF
:104F70003B681B7A3A684FF03701D1544FF000007C
:104F80004FF001014FF00002FBF7D4FE1EE03B683A
:104F90001B7A3A684FF03801D1544FF000004FF0BF
:104FA00001014FF00002FBF7C5FE0FE03B681B7AE2
:104FB0003A684FF03901D1544FF000004FF0010131
:104FC0004FF00002FBF7B6FE00E000BF3B681B7A23
:104FD00003F10103DAB23B681A7207F10E01B7F967
:104FE0000420B7F918303868FFF7BCFD0346012BE1
:104FF00016D13B681B7A03F1FF33DAB23B681A72B1
:105000004FF002004FF001014FF00002FBF792FE5B
:105010004FF001004FF0FF014FF00202FCF7CEFE0F
:1050200038684FF00101FFF70DFD07F11007BD468D
:1050300080BD00BF80B487B000AF786039604FF0AA
:1050400000037B614FF000033B614FF00003FB6006
:105050004FF000037B618FE07B694FF0010202FAA1
:1050600003F33B613B681A683B6902EA0303FB6098
:10507000FA683B699A427BD17B681B681A467B6958
:105080004FEA43034FF0030101FA03F36FEA03030E
:105090001A407B681A607B681B681A463B681B795C
:1050A00019467B694FEA430301FA03F31A437B680D
:1050B0001A603B681B79012B03D03B681B79022BDC
:1050C00038D17B689B681A467B694FEA43034FF0EF
:1050D000030101FA03F36FEA03031A407B689A6045
:1050E0007B689B681A463B685B7919467B694FEA87
:1050F000430301FA03F31A437B689A607B685B6899
:105100001A467B699BB24FF0010101FA03F36FEA83
:1051100003031A407B685A607B685B681A463B68E9
:105120009B7919467B699BB201FA03F39BB21A4340
:105130007B685A607B68DB681A467B699BB24FEAE2
:1051400043034FF0030101FA03F36FEA03031A402C
:105150007B68DA607B68DB681A463B68DB79194656
:105160007B694FEA430301FA03F31A437B68DA6071
:105170007B6903F101037B617B690F2B7FF66CAFC9
:1051800007F11C07BD4680BC704700BF80B485B0E6
:1051900000AF78600B467B804FF00003FB737B68A9
:1051A0001B691A467B8802EA0303002B03D04FF0E9
:1051B0000103FB7302E04FF00003FB73FB7B184617
:1051C00007F11407BD4680BC704700BF80B485B0AE
:1051D00000AF786013460A467A807B704FF0000378
:1051E000FB604FF00003BB607A787B8803F0070315
:1051F0004FEA830302FA03F3FB607B884FEAD30391
:105200009BB21A467B884FEAD3039BB219467B6850
:1052100001F1080153F8213019467B8803F0070398
:105220004FEA83034FF00F0000FA03F36FEA030322
:1052300019407B6802F1080243F822107B884FEA8C
:10524000D3039BB21A467B6802F1080253F822305E
:105250001A46FB6842EA0303BB607B884FEAD3032C
:105260009BB21A467B6802F10802B96843F8221023
:1052700007F11407BD4680BC704700BF80B483B0FF
:1052800000AF78607B6803F108031A467B685A60B8
:105290007B684FF0FF329A607B6803F108031A467F
:1052A0007B68DA607B6803F108031A467B681A6141
:1052B0007B684FF000021A6007F10C07BD4680BC06
:1052C000704700BF80B483B000AF78607B684FF058
:1052D00000021A6107F10C07BD4680BC704700BF91
:1052E00080B485B000AF786039607B685B68FB6034
:1052F000FB685B681A463B685A607B685A683B6883
:105300009A60FB685B683A689A603A68FB685A6022
:105310003A687B685A603B687A681A617B681B68E8
:1053200003F101027B681A6007F11407BD4680BCD7
:10533000704700BF80B485B000AF786039603B68CB
:105340001B68BB60BB68B3F1FF3F03D17B681B697F
:10535000FB600EE07B6803F10803FB6002E0FB6882
:105360005B68FB60FB685B681B681A46BB689A4217
:10537000F5D9FB685B681A463B685A603B685B6816
:105380003A689A603B68FA689A603A68FB685A60C3
:105390003B687A681A617B681B6803F101027B68CD
:1053A0001A6007F11407BD4680BC704780B485B011
:1053B00000AF78607B685B687A6892689A607B6807
:1053C0009B687A6852685A607B681B69FB60FB685F
:1053D0005A687B689A4203D17B689A68FB685A6076
:1053E0007B684FF000021A61FB681B6803F1FF3213
:1053F000FB681A6007F11407BD4680BC704700BF08
:1054000080B500AF4FF46053C4F202034FF4605212
:10541000C4F20202126842F001021A604FF46053B3
:10542000C4F202034FF000029A604FF46053C4F2DA
:1054300002034FF46052C4F20202126822F0847236
:1054400022F480321A604FF46053C4F2020343F234
:105450001002C2F200425A604FF46053C4F20203D9
:105460004FF46052C4F20202126822F480221A60E1
:105470004FF46053C4F202034FF00002DA6000F010
:1054800009F84FF46D43CEF200034FF000629A60CA
:1054900080BD00BF80B483B000AF4FF000037B60DD
:1054A0004FF000033B604FF46053C4F202034FF42B
:1054B0006052C4F20202126842F480321A604FF461
:1054C0006053C4F202031B6803F400333B607B6843
:1054D00003F101037B603B68002B03D17B68B3F5CC
:1054E000A06FECD14FF46053C4F202031B6803F4C5
:1054F0000033002B03D04FF001033B6002E04FF07C
:1055000000033B603B68012B69D14FF46053C4F248
:1055100002034FF46052C4F2020292689A604FF4A0
:105520006053C4F202034FF46052C4F20202926864
:1055300042F400429A604FF46053C4F202034FF405
:105540006052C4F20202926842F4A0529A604FF490
:105550006053C4F2020343F20402C0F643025A60ED
:105560004FF46053C4F202034FF46052C4F20202DB
:10557000126842F080721A6000BF4FF46053C4F2A8
:1055800002031B6803F00073002BF6D04FF4705336
:10559000C4F2020340F201721A604FF46053C4F285
:1055A00002034FF46052C4F20202926822F0030236
:1055B0009A604FF46053C4F202034FF46052C4F295
:1055C0000202926842F002029A6000BF4FF46053F8
:1055D000C4F202039B6803F00C03082BF6D107F119
:1055E0000C07BD4680BC704780B582B000AF7860C4
:1055F00039607B68002B04D14FF0500080F3118894
:10560000FEE700F095FC7B681A687B68DB6B7968C5
:10561000096C01FB03F3D2187B685A607B684FF07A
:1056200000029A637B681A687B689A607B681A68D4
:105630007B68DB6B03F1FF337968096C01FB03F3D3
:10564000D2187B68DA607B684FF0FF325A647B685F
:105650004FF0FF329A643B68002B0FD17B681B69C7
:10566000002B17D07B6803F110031846FDF740FBB1
:105670000346012B0ED100F04FFC0BE07B6803F1D9
:1056800010031846FFF7FAFD7B6803F12403184660
:10569000FFF7F4FD00F062FC4FF00103184607F13C
:1056A0000807BD4680BD00BF80B588B000AFF86078
:1056B000B9601346FB714FF00003FB61FB68002BE0
:1056C0002BD04FF04C0001F09BF90346BB61BB6946
:1056D000002B22D0FB68BA6802FB03F303F101033D
:1056E0007B61786901F08CF903461A46BB691A6040
:1056F000BB691B68002B0DD0BB69FA68DA63BB6914
:10570000BA681A64B8694FF00101FFF76DFFBB6911
:10571000FB6102E0B86901F0C5F9FB69002B04D117
:105720004FF0500080F31188FEE7FB69184607F13F
:105730002007BD4680BD00BF80B584B000AF0346E2
:10574000FB714FF04C0001F05BF90346FB60FB6816
:10575000002B38D0FB684FF000025A60FB684FF016
:1057600000021A60FB684FF000029A60FB684FF07D
:105770000002DA60FB684FF000029A63FB684FF0AA
:105780000102DA63FB684FF000021A64FB684FF015
:10579000FF325A64FB684FF0FF329A64FB6803F1F2
:1057A00010031846FFF76AFDFB6803F1240318464F
:1057B000FFF764FDF8684FF000014FF000024FF072
:1057C000000300F00FF8FB68002B04D14FF05000ED
:1057D00080F31188FEE7FB68184607F11007BD4605
:1057E00080BD00BF80B588B000AFF860B9607A6056
:1057F0003B604FF00003FB61FB68002B04D14FF0CE
:10580000500080F31188FEE7BB68002B03D1FB68D2
:105810001B6C002B02D14FF0010301E04FF000039D
:10582000002B05D14FF0500080F31188FEE700BF38
:1058300000F07EFBFB689B6B1A46FB68DB6B9A42B1
:1058400018D2F868B9683A6800F0D6F9FB685B6A64
:10585000002B0AD0FB6803F124031846FDF748FA31
:105860000346012B01D100F057FB00F077FB4FF00E
:1058700001035DE07B68002B04D100F06FFB4FF06B
:10588000000355E0FB69002B07D107F1140318460C
:10589000FDF798FA4FF00103FB6100F05FFBFCF7A6
:1058A0007FFF00F045FBFB685B6CB3F1FF3F03D16A
:1058B000FB684FF000025A64FB689B6CB3F1FF3F3A
:1058C00003D1FB684FF000029A6400F047FB07F138
:1058D000140207F1040310461946FDF793FA034634
:1058E000002B1ED1F86800F077FA0346002B12D087
:1058F000FB6803F110027B6810461946FDF7B4F906
:10590000F86800F003FAFCF75DFF0346002B8ED128
:1059100000F002FB8CE7F86800F0F8F9FCF752FFA2
:1059200086E7F86800F0F2F9FCF74CFF4FF000034F
:10593000184607F12007BD4680BD00BF80B586B080
:1059400000AFF860B9607A603B60FB68002B04D15F
:105950004FF0500080F31188FEE7BB68002B03D1A5
:10596000FB681B6C002B02D14FF0010301E04FF0EC
:105970000003002B04D14FF0500080F31188FEE7A4
:105980004FF000033B614FF0500080F31188FB683B
:105990009B6B1A46FB68DB6B9A4228D2F868B968A1
:1059A0003A6800F029F9FB689B6CB3F1FF3F14D112
:1059B000FB685B6A002B16D0FB6803F124031846D2
:1059C000FDF796F90346002B0DD07B68002B0AD01B
:1059D0007B684FF001021A6005E0FB689B6C03F1E5
:1059E0000102FB689A644FF001037B6102E04FF013
:1059F00000037B614FF0000080F311887B6918463B
:105A000007F11807BD4680BD80B588B000AFF860CB
:105A1000B9607A603B604FF00003FB61FB68002BCC
:105A200004D14FF0500080F31188FEE7BB68002BD3
:105A300003D1FB681B6C002B02D14FF0010301E086
:105A40004FF00003002B05D14FF0500080F3118878
:105A5000FEE700BF00F06CFAFB689B6B002B40D0A8
:105A6000FB68DB68BB61F868B96800F027F93B6840
:105A7000002B1FD1FB689B6B03F1FF32FB689A631D
:105A8000FB681B68002B05D1FDF7A8FB03461A46EF
:105A9000FB685A60FB681B69002B1DD0FB6803F193
:105AA00010031846FDF724F90346012B14D100F02A
:105AB00033FA11E0FB68BA69DA60FB685B6A002BB5
:105AC0000AD0FB6803F124031846FDF711F90346D9
:105AD000002B01D000F020FA00F040FA4FF0010353
