:020000040800F2
:1000000034270020C51500081D1600081D1600081D
:100010001D1600081D1600081D160008000000002F
:100020000000000000000000000000000946000879
:100030001D16000800000000DD46000819470008F2
:100040001D1600080D5D00081D1600081D1600088D
:100050001D1600081D1600081D1600081D160008B4
:100060001D1600081D1600081D1600081D160008A4
:100070001D1600081D1600081D1600081D16000894
:100080001D1600081D1600081D1600081D16000884
:100090001D1600081D1600081D1600087D0C00081E
:1000A0001D160008B51A00081D1600081D160008C8
:1000B0001D1600081D1600081D1600081D16000854
:1000C0001D1600081D1600081D1600081D16000844
:1000D0001D1600081D1600081D1600081D16000834
:1000E0001D1600081D1600081D1600081D16000824
:1000F0001D1600081D1600081D1600081D16000814
:100100001D1600081D1600081D1600081D16000803
:100110001D1600081D1600081D1600081D160008F3
:100120001D1600081D1600081D1600081D160008E3
:100130001D1600081D1600081D1600081D160008D3
:100140001D1600081D1600081D1600081D160008C3
:100150001D1600081D1600081D1600081D160008B3
:100160001D1600081D1600081D1600081D160008A3
:100170001D1600081D1600081D1600081D16000893
:100180001D1600081D16000890B484B000AF034689
:100190000A46FB711346BB710023FB60BB7903F079
:1001A00003039B000F2202FA03F3FB601649BB799D
:1001B0009B08DBB21846144ABB799B08DBB20233BA
:1001C00052F82320FB68DB431A40831C41F82320AC
:1001D0000D48BB799B08DBB21C460B4ABB799B08D8
:1001E000DBB2023352F82320F979BB7903F0030321
:1001F0009B0001FA03F31A43A31C40F82320103795
:10020000BD4690BC704700BF00380140F0B587B0D4
:1002100000AF03463960FB710023FB750023BB75FB
:1002200000237B7500233B75FB79162202FB03F349
:100230003833984A134404333B613B691B88022BD3
:1002400001D9002314E3386806F03EF903463B75F4
:10025000914B1B68184600214FF0FF32002304F039
:100260005FFC0346012B40F002833B695B88184624
:100270003B691B881A463B69DC8986491A2303FBC4
:1002800002F203461B011B1A5B0013440B44224677
:100290005A803B695B8818463B691B881A463B6954
:1002A0001C8A7C491A2303FB02F203461B011B1A1A
:1002B0005B0013440B44023322465A803B695B883F
:1002C00018463B691B881A463B699C8971491A2369
:1002D00003FB02F203461B011B1A5B0013440B4491
:1002E000043322465A803B695B8818463B691B8869
:1002F0001A463B691C8967491A2303FB02F203462D
:100300001B011B1A5B0013440B44063322465A8020
:100310003B695B8818463B691B881A463B695C89C8
:100320005C491A2303FB02F203461B011B1A5B0004
:1003300013440B44083322465A803B695B881846B5
:100340003B691B881A4653491A2303FB02F20346F2
:100350001B011B1A5B0013440B440A334FF48072D9
:100360005A803B695B8818463B691B881A46494995
:100370001A2303FB02F203461B011B1A5B00134402
:100380000B440C334FF400725A803B695B8818466B
:100390003B691B881A463F491A2303FB02F20346B6
:1003A0001B011B1A5B0013440B440E334FF44072C5
:1003B0005A803B695B8818463B691B881A46354959
:1003C0001A2303FB02F203461B011B1A5B001344B2
:1003D0000B4410334FF480625A803B695B881846A7
:1003E0003B691B881A462B491A2303FB02F203467A
:1003F0001B011B1A5B0013440B4412334FF4A06221
:100400005A803B695B8818463B691B881A4621491C
:100410001A2303FB02F203461B011B1A5B00134461
:100420000B4414334FF4C0625A803B695B88184612
:100430003B691B881A4617491A2303FB02F203463D
:100440001B011B1A5B0013440B4416334FF4E0628C
:100450005A803B695B8818463B691B881A460D49E0
:100460001A2303FB02F203461B011B1A5B00134411
:100470000B4418334FF400625A807B7D05337B7543
:1004800097F914300A2B01DD0A233B750023FB7515
:10049000DEE100BF3C1E0020301F002097F917301E
:1004A0003A6813441B782F2B4ED997F917303A68C6
:1004B00013441B78392B47D897F917303A681344FF
:1004C0001B78303BAE4A1344DB7FFB733B695B8890
:1004D0001E463B691B881946787D3B695B889E46B2
:1004E0003B691B881A467C7DA64D13465B0013446E
:1004F0009B00134472461201CEEB020213442344C4
:100500005B002B445B889AB2FB7B9CB27B7D043BF7
:100510009BB21B029BB29BB223439BB213439BB281
:100520009DB2984C0B465B000B449B000B4432463B
:100530001201921B134403445B0023442A465A8051
:100540007B7D01337B757EE197F917303A68134460
:100550001B782E2B40F0108197F91730002B32D1E9
:100560003B695B881E463B691B881946787D3B6961
:100570005B889E463B691B881A467C7D814D1346ED
:100580005B0013449B00134472461201CEEB02023F
:10059000134423445B002B445B8843F080039DB2EB
:1005A000784C0B465B000B449B000B443246120117
:1005B000921B134403445B0023442A465A807B7DEC
:1005C00001337B75D7E097F9172097F91430013B79
:1005D0009A4280F29E8097F9173001333A681344AB
:1005E0001B782E2B63D13B695B881E463B691B88B9
:1005F0001946787D3B695B889E463B691B881A4695
:100600007C7D604D13465B0013449B00134472468F
:100610001201CEEB0202134423445B002B445B889F
:1006200043F080039DB2574C0B465B000B449B008C
:100630000B4432461201921B134403445B002344D3
:100640002A465A803B695B881E463B691B881946CF
:100650007B7D581E3B695B889E463B691B881A461A
:100660007B7D5C1E474D13465B0013449B00134487
:1006700072461201CEEB0202134423445B002B446A
:100680005B8843F080039DB23E4C0B465B000B44FD
:100690009B000B4432461201921B134403445B003F
:1006A00023442A465A807B7D01337B7563E03B6996
:1006B0005B881E463B691B8819467B7D581E3B693B
:1006C0005B889E463B691B881A467B7D5C1E2D4DD0
:1006D00013465B0013449B00134472461201CEEB99
:1006E0000202134423445B002B445B8843F08003E5
:1006F0009DB2244C0B465B000B449B000B443246DE
:100700001201921B134403445B0023442A465A807F
:1007100099E03B695B881E463B691B8819467B7DD7
:10072000581E3B695B889E463B691B881A467B7D49
:100730005C1E144D13465B0013449B001344724629
:100740001201CEEB0202134423445B002B445B886E
:1007500043F080039DB20B4C0B465B000B449B00A7
:100760000B4432461201921B134403445B002344A2
:100770002A465A8067E066E00A23BB7558E000BF4E
:100780008C6500083C1E002097F917303A68134426
:100790001A7897F916303849CB5C9A4243D197F9C9
:1007A0001630354A1344DB7FBB733B695B881E46BA
:1007B0003B691B881946787D3B695B889E463B698F
:1007C0001B881A467C7D2D4D13465B0013449B000D
:1007D000134472461201CEEB0202134423445B0021
:1007E0002B445B889AB2BB7B9CB27B7D043B9BB263
:1007F0001B029BB29BB223439BB213439BB29DB29D
:100800001E4C0B465B000B449B000B44324612010E
:10081000921B134403445B0023442A465A807B7D89
:1008200001337B7508E0BB7DDBB20133DBB2BB7506
:1008300097F916301E2BA7DD7A7D3B69DB880533DF
:100840009A4200DD0BE0FB7DDBB20133DBB2FB75CE
:1008500097F9172097F914309A42FFF61FAE084B0C
:100860001B68184600210022002304F05DF87B7D00
:1008700018461C37BD46F0BD8C6500083C1E0020A4
:10088000301F002080B586B004AF0220012101F0A6
:1008900025F804233B6000237B7101233B71002377
:1008A000BB710023FB713B461748194603F046FC19
:1008B000154B04225A8301200021032203F0AEFFCE
:1008C0000246124B1A60114B1B68002B07D00F4BCE
:1008D0001B68184600210022002304F025F801239C
:1008E00000930B4B019300230293002303930948C9
:1008F00009498022002301F035FA084B01221A77BA
:100900000837BD4680BD00BF000402401C1E002009
:10091000181E002021090008CC650008A41E002034
:1009200080B582B000AF7860434B1B681846002149
:100930004FF0FF32002304F0F3F8404B1B78012BFB
:1009400071D13E4B5B78042B69D801A252F823F099
:10095000650900087F090008B1090008FB090008C3
:10096000030A0008364B04221A83C82001F0C8FA93
:10097000334B04225A83314B00221A7053E0304B20
:1009800004221A83642001F0BBFA2D4B04225A83FF
:10099000642001F0B5FA2A4B04221A83642001F086
:1009A000AFFA274B04225A83244B00221A703AE0F4
:1009B000234B04221A83322001F0A2FA204B042296
:1009C0005A83322001F09CFA1D4B04221A833220F4
:1009D00001F096FA1A4B04225A83322001F090FA61
:1009E000174B04221A83322001F08AFA144B042296
:1009F0005A83124B00221A7015E0114B04221A83FD
:100A000011E00F4B04221A834FF47A7001F078FA48
:100A10000B4B04225A83094B00221A7003E04FF457
:100A2000FA7001F06DFA074B9B690133054A936137
:100A3000044B01221A7777E71C1E0020141E0020A9
:100A400000040240A41E002080B582B000AF03461F
:100A5000FB710B46BB7113467B71BB7903F001033D
:100A6000002B28D01F4B1B78002B31D17B79002B1A
:100A700008D11D4B1B68184600210022002303F0FB
:100A800053FF14E0194B00221A60174B1B681846DD
:100A90000021164A002303F0E7FF144B1B68012BCB
:100AA00005D1124B1B68002B01D003F0E3FD0D4B69
:100AB00001221A700CE00B4B1B78012B02D1094B61
:100AC00000221A700A4B01221A770A4B04225A8319
:100AD000FB7903F00703DAB2024B5A700837BD46C0
:100AE00080BD00BF141E00201C1E0020E800002056
:100AF000A41E00200004024080B58AB004AF01208B
:100B0000012100F0EBFE4FF48040012100F022FFB4
:100B1000C1233B6100233B750123FB7507F11003E3
:100B20002B48194603F00AFB00200021FFF72CFB9D
:100B30000123BB6000233B730C237B730123BB7336
:100B400007F10803184604F053FA00200621FFF7C6
:100B50001BFB4023BB6000233B730C237B730123EF
:100B6000BB7307F10803184604F042FA002007217E
:100B7000FFF70AFB8023BB6000233B730C237B73CE
:100B80000123BB7307F10803184604F031FA4FF450
:100B9000407004F0BBFC17233B710E237B710023D4
:100BA000BB710123FB713B1D184604F0C1FC0123FE
:100BB000009300230193002302930023039305482D
:100BC00005498022002301F0CDF81837BD4680BDCD
:100BD00000000240DD0B0008D465000880B584B039
:100BE00000AF78600023FB8141F2883001F088F982
:100BF0001E4B002283F824201D48012103F02CFB0A
:100C00000346002B04D10420002100F023FB05E063
:100C1000184A184B1B6843F0010313601448402125
:100C200003F01AFB0346002B03D1134B0222DA76A2
:100C300013E00F48802103F00FFB0346002B03D184
:100C40000D4B0122DA7608E00B4B0022DA76094AD6
:100C5000084B1B6843F0C0031360044B1B6A01334D
:100C6000024A1362642001F04BF9C5E7A41E00207C
:100C700000000240003C0140201E002080B500AF73
:100C8000402004F027FA0346002B0CD0402004F04B
:100C900045FA0F4A0E4B1B6823F0400313600220F5
:100CA000012100F0D7FA802004F014FA0346002B4B
:100CB0000CD0802004F032FA054A054B1B6823F063
:100CC000800313600320012100F0C4FA80BD00BF3F
:100CD000003C014080B483B000AF0346FB71044A7E
:100CE000FB7913600C37BD465DF8047B704700BF8D
:100CF00020000E4280B485B000AF78600023FB6016
:100D0000094B1B68FB60FB6823F0E003FB60FA689B
:100D10007B681343FB60044AFB6813601437BD46CD
:100D20005DF8047B704700BF0070004080B483B062
:100D300000AF0346FB71044AFB7913600C37BD46D4
:100D40005DF8047B704700BF10000E4280B483B092
:100D500000AF0346FB71044AFB7913600C37BD46B4
:100D60005DF8047B704700BFA4000E4280B582B0DE
:100D700000AF0420012100F0B1FD0F233B600023F0
:100D80007B7101233B710023BB710223FB713B4646
:100D90001148194603F0D2F90F4B0F225A830F4B1B
:100DA0000F4A1A600D4B00221A760C4B00229A76DD
:100DB0000A4B00225A76094B1B681B6A074A53608C
:100DC000064B00221A75054B0022DA82034B0022E3
:100DD000DA760837BD4680BD00080240201E00209C
:100DE0000040024080B584B000AF7860002000F081
:100DF000F1F94D4B1B7E002B40F091804A4B5B7EFE
:100E0000002B40F08C80484B5B687A68D31AFB60FB
:100E1000FB68002B0CDDFB68184600F03DFB034629
:100E20001A46414B1B68DB8B9A420ED8022377E0AF
:100E3000FB68184600F030FB03461A463A4B1B6825
:100E40009B8B9A4201D802236AE0FB68002B02DAEE
:100E5000FB685B42FB60FB68184600F01DFB034625
:100E60001A46314B1B685B8B9A4203D9012000F074
:100E7000B1F902E0002000F0ADF92B4B5A687B6815
:100E80009A4222D9284BDB7E022B01D1022347E074
:100E9000254A7B689360244B1B689B8B184600F0A7
:100EA000C1FA02467B6813441F4A13611E4B1B683C
:100EB0005B8B184600F0B6FA02467B6813441A4A68
:100EC000D360012000F0A4F921E0174BDB7E012B59
:100ED00001D1022324E0144A7B689360124B1B6803
:100EE000DB8B184600F09EFA02467B689B1A0E4A7E
:100EF00013610D4B1B685B8B184600F093FA02469A
:100F00007B689B1A084AD360002000F081F9064BE9
:100F100000229A76044B03221A76002300E0012374
:100F200018461037BD4680BD201E002090B585B004
:100F300000AF03460A46FB711346BB80002000F059
:100F400049F9A34B1B7E002B40F03C81A04B5B7EFC
:100F5000002B40F03781FB79032B00F2318101A295
:100F600052F823F0750F0008790F00081B100008D5
:100F7000B9100008002326E1954BDB7E022B01D13E
:100F8000022320E1924B5B68184600F0BFFA03464B
:100F90001A46BB881344FB818D4B5B68184600F0F2
:100FA000B5FA03461A46BB8813449BB2184600F0B4
:100FB000DDFA0246864B9A60854B9C68844B1B6821
:100FC000DB8B184600F02EFA0346E31A804A1361C1
:100FD0007F4B9C687E4B1B685B8B184600F022FAA7
:100FE0000346E31A7A4AD360794B00229A76784B0B
:100FF00001221A76B7F90430754A1268528B93426F
:1010000003DD012000F0E6F802E0002000F0E2F845
:10101000002000F0FDF80023D5E06D4BDB7E012BB6
:1010200001D10223CFE0B7F90430002B03DABB88EB
:101030005B429BB2BB80664B5B68184600F066FA69
:1010400003461A46BB88D31A9BB2184600F08EFAA4
:1010500002465F4B9A605E4B9C685D4B1B689B8BA6
:10106000184600F0DFF903462344594A1361584BF0
:101070009C68574B1B685B8B184600F0D3F90346FE
:101080002344534AD360524B00229A76504B02229B
:101090001A76B7F904304E4A1268528B934203DD38
:1010A000012000F097F802E0002000F093F8012002
:1010B00000F0AEF8002386E0BC88454B5B6818461C
:1010C00000F024FA0346E31A9BB2BB81B7F90C3057
:1010D000002B36DB3E4BDB7E022B01D1022372E07C
:1010E000BB88184600F042FA0246394B9A60384BEA
:1010F0009C68374B1B68DB8B184600F093F903465E
:10110000E31A334A1361324B9C68314B1B685B8B8B
:10111000184600F087F90346E31A2D4AD360B7F961
:101120000C302B4A1268528B934203DD012000F0F1
:1011300051F802E0002000F04DF8002000F068F8BF
:1011400036E0234BDB7E012B01D102233BE0BB8841
:10115000184600F00BFA02461D4B9A601C4B9C6827
:101160001B4B1B689B8B184600F05CF9034623441D
:10117000174A1361164B9C68154B1B685B8B18460E
:1011800000F050F903462344114AD360B7F90C30FC
:101190005B420F4A1268528B934203DD012000F03C
:1011A00019F802E0002000F015F8012000F030F8F6
:1011B000074B00229A76064B03221A76002302E0A0
:1011C000022300E0012318461437BD4690BD00BF3E
:1011D000201E002080B483B000AF0346FB71FB7972
:1011E000002B02D0012B05D009E0084B08221A83FE
:1011F000002305E0054B08225A83002300E0022368
:1012000018460C37BD465DF8047B70470008024065
:1012100080B483B000AF0346FB71FB79002B02D092
:10122000012B07D00DE00A4B02225A83084B012202
:101230001A8306E0064B02221A83054B01225A83C9
:1012400000BF18460C37BD465DF8047B704700BFF1
:101250000008024080B584B000AF03460A46FB7127
:101260001346BB71FB79013B062B00F2888001A27B
:1012700052F823F04B130008CB120008EB120008C1
:101280000B130008911200082B1300086B130008C1
:10129000544B03225A83BB79022001211A46FFF7DF
:1012A000D3FB514B00225A764F4B1B7D032B03D1AE
:1012B0004D4B01221A7507E04B4B1B7D022B03D1CE
:1012C000494B00221A7564E063E0464B0B225A83B7
:1012D000BB79042001211A46FFF7B6FB424B0222DC
:1012E0005A76414B00221A7553E03E4B0B225A832B
:1012F000BB79042001211A46FFF7A6FB3A4B0222D4
:101300005A76394B00221A7543E0364B0B225A832A
:10131000BB79042001211A46FFF796FB324B0222CB
:101320005A76314B00221A7533E02E4B0B225A832A
:10133000BB79042001211A46FFF786FB2A4B0222C3
:101340005A76294B00221A7523E0264B0B225A832A
:10135000BB79042001211A46FFF776FB224B0222BB
:101360005A76214B00221A7513E01E4B0B225A832A
:101370001D4B00225A761C4B00221A7509E0194BAE
:101380000B225A83184B02225A76174B00221A75E9
:1013900000BF0123FB73BB79002B0AD1134B1A68E2
:1013A00007F10F03104619460022002303F0BCFA90
:1013B0000DE00023BB600D4B196807F10F0207F128
:1013C0000803084611461A46002303F04DFB064A5F
:1013D000FB799376044B00221A7618461037BD46E7
:1013E00080BD00BF00080240201E00202C1F0020EE
:1013F00080B483B000AF094B7B60094B04221A8391
:1014000000BF7B685A1E7A60002BFAD1044B04227D
:101410005A830C37BD465DF8047B704740420F008D
:1014200000080240B0B582B000AF0346FB80F888E8
:101430004FF00001174B1B68DB681C464FF000059E
:10144000144B1B685B681A464FF00003A21A65EB49
:10145000030302FB01F500FB03F42C44A0FB022371
:10146000E1180B460B4909680989084609490968CA
:101470000988411A0C464FEAE4751046194622467F
:101480002B4604F053FC02460B4613461846083719
:10149000BD46B0BD201E0020B0B582B000AF786060
:1014A0007B6818464FF00001174B1B681B899CB2E4
:1014B0004FF00005144B1B681B889AB24FF00003D5
:1014C000A21A65EB030302FB01F500FB03F42C44B5
:1014D000A0FB0223E1180B460B490968C8680A49BA
:1014E00009684968411A0C464FF000051046194634
:1014F00022462B4604F01AFC02460B4693B21846CD
:101500000837BD46B0BD00BF201E002090B583B097
:1015100000AF7860144B1B685A697B689A420FD8F9
:10152000114B1B681C8A104B1B685B697A68D31AC5
:1015300001331846FFF7B0FF034623449BB20FE088
:10154000094B1B681C8A084B1B685A697B68D31AB5
:101550001846FFF7A1FF0346E31A9BB2013B9BB27B
:1015600018460C37BD4690BD201E002090B585B0B2
:1015700000AF0346FB80124B1B681B8AFA88D31A04
:101580009BB2FB81B7F90E30002B09DB0C4B1B68BB
:101590005C69FB891846FFF745FF034623440AE0D0
:1015A000074B1B685C69FB895B429BB21846FFF7DF
:1015B00039FF0346E31A18461437BD4690BD00BFF5
:1015C000201E002080B582B000AF0F4B7B600F4B18
:1015D0003B6007E03B681A1D3A607A68111D79602C
:1015E00012681A603B680A4A9342F3D309480A49D1
:1015F0004FF000028842B8BF40F8042BFADB00F03D
:1016000047F90837BD4680BD5C6600080000002031
:10161000E4000020E8000020341F002080B400AF68
:10162000FEE700BF80B500AF4FF48020012100F03D
:1016300055F94FF08050012100F06EF980BD00BFD8
:1016400080B586B000AFF860B9601346FB71002327
:10165000FB750120FFF73EFB0120FFF777FB00231E
:10166000FB750AE0FB7DFA681344FA7DB9680A4409
:1016700012781A70FB7D0133FB75FA7DFB799A4273
:10168000F0D30020FFF726FB1837BD4680BD00BF12
:1016900080B483B000AF0346FB80044AFB8813602C
:1016A0000C37BD465DF8047B704700BF003000403A
:1016B00080B483B000AF0346FB71044AFB795360EA
:1016C0000C37BD465DF8047B704700BF003000401A
:1016D00080B483B000AF0346FB80044AFB8893606C
:1016E0000C37BD465DF8047B704700BF00300040FA
:1016F00080B400AF034B4AF6AA221A60BD465DF8DB
:10170000047B70470030004080B400AF034B4CF6C0
:10171000CC421A60BD465DF8047B70470030004043
:1017200080B483B000AF0023FB710023BB71454B35
:101730001B780133DAB2434B1A70424B1B78022BF1
:1017400012D80023FB710BE0FB793F4A162101FB05
:1017500003F31344483300221A72FB790133FB71FF
:10176000FB79012BF0D968E0364B1B78052B02D9A9
:10177000344B00221A70334B1B78032B5CD10023AF
:10178000FB7156E0FB79304A162101FB03F3134449
:101790004833DB79002B09D0FB792B4A162101FB5A
:1017A00003F3134448335B7A002B12D1FB79264AAA
:1017B000162101FB03F31344483300225A72FB79CC
:1017C000214A162101FB03F31344483300221A7205
:1017D0002CE0FB791C4A162101FB03F31344483328
:1017E0005B7AFF2B11D0FB791749162202FB03F21B
:1017F0000A444832527A013AD0B2134A162101FB08
:1018000003F31344483302465A72FB79FA790E49BE
:10181000162000FB02F20A444832D0790A4A162107
:1018200001FB03F31344483302461A72FB79013378
:10183000FB71FB79012BA5D900BF0C37BD465DF8C4
:10184000047B7047EC0000203C1E002080B483B075
:1018500000AF0346FB710B46BB7113467B71FB79EE
:101860000A4A162101FB03F313444833BA79DA71AB
:10187000FB79064A162101FB03F3134448337A79B6
:101880005A720C37BD465DF8047B70473C1E002041
:1018900080B500AF02F0F6FD04F004FAFFF7C2FED7
:1018A000FFF764FA00F058F9FFF726F900F0F8F8AE
:1018B00001F02AF8FEF7E6FF01F0E6FA00F0D4F9AD
:1018C00000F046FBFEE700BF80B400AFFEE700BFBC
:1018D00080B483B000AF78603960FEE780B483B035
:1018E00000AF78600B46FB70FB78002B06D00949EF
:1018F000084B1A6B7B6813430B6306E00549054BE5
:101900001A6B7B68DB4313400B630C37BD465DF8F5
:10191000047B70470038024080B483B000AF786029
:101920000B46FB70FB78002B06D00949084B1A6C5C
:101930007B6813430B6406E00549054B1A6C7B6812
:10194000DB4313400B640C37BD465DF8047B7047E6
:101950000038024080B483B000AF78600B46FB7063
:10196000FB78002B06D00949084B5A6C7B6813435F
:101970004B6406E00549054B5A6C7B68DB4313401A
:101980004B640C37BD465DF8047B7047003802405D
:1019900080B400AF414B02221A70404B0022DA871C
:1019A0003E4B00229A873D4B0122A3F840203B4B3F
:1019B0000522A3F84220394B40F60922A3F844201F
:1019C000364B4FF41062A3F84620344BB3F8423044
:1019D000013B9BB29BB243F430639BB29AB22F4B54
:1019E000A3F848202D4B40F60142A3F84A202B4B88
:1019F0004FF47062A3F84C20284B002283F84F204C
:101A0000264B93F84F20254B83F85020234B002280
:101A100083F85120214B0122A3F854201F4B0022B0
:101A2000A3F852201D4B0122A3F856201B4B052280
:101A3000A3F85820194B40F60922A3F85A20174B57
:101A40004FF41062A3F85C20144BB3F85830013BFC
:101A50009BB29BB243F430639BB29AB20F4BA3F894
:101A60005E200E4B40F60142A3F860200B4B4FF472
:101A70007062A3F86220094B002283F86520074BAF
:101A800093F86520054B83F86620044B002283F809
:101A90006720BD465DF8047B704700BF3C1E0020F8
:101AA00080B500AFFFF774FF03F046FB0023184634
:101AB00080BD00BF80B582B000AF244B4FF6FE72F0
:101AC0001A82224B1B889BB203F01003002B05D017
:101AD0001F4B5B68013B1E4A536004E01C4B5B6874
:101AE00001331B4A53601A4B5B7E002B2AD1184BE3
:101AF0009B7E002B26D1164B1B7E002B22D0144B35
:101B00005A68134BDB689A4202D10020FFF762FB50
:101B10000F4B5A680E4B1B699A4213D10D4B03228F
:101B20005A8305200121FFF795FB094B5B687B6019
:101B3000074B1B6803F120023B1D10461946042287
:101B4000FFF77EFD0837BD4680BD00BF00000140A5
:101B5000201E00200008024080B58AB000AF01209E
:101B60000121FFF7BBFE01200121FFF7F3FE07F182
:101B70001C03184603F0ECFD01233B620023BB83EA
:101B80000023BB841023FB8307F11C033348194651
:101B900003F074FD314803210A220A2303F0FEFEFC
:101BA0002E4B22221A842D480121012203F0D2FE5D
:101BB0002A48012103F0E6FD4FF4407003F0A6FC33
:101BC0001D233B760D237B760023BB760123FB761A
:101BD00007F11803184603F0ABFC19233B7607F115
:101BE0001803184603F0A4FC0023BB810F23BB821B
:101BF00007F10C031948194603F0E4FD07F10C0343
:101C00001748194603F0DEFD0423BB810F23BB8276
:101C100007F10C031148194603F0D4FD4FF440734B
:101C20007B6002233B720123FB720023BB72002303
:101C30007B723B1D0B48194602F080FA09480821C7
:101C4000012202F023FB07480921012202F01EFBBA
:101C5000024B00225A622837BD4680BD0000014079
:101C6000000400400000024080B586B004AF0023AD
:101C7000FB7108E0FB79154ADB00134401221A715D
:101C8000FB790133FB71FB79042BF3D945F25550F5
:101C9000FFF7FEFC0620FFF70BFD40F27120FFF777
:101CA00017FDFFF725FDFFF72FFD0123009300230C
:101CB0000193002302930023039305480549402222
:101CC000002300F04FF80837BD4680BDA41E002059
:101CD000D91C0008E065000880B582B000AF7860CC
:101CE0001F4B1B68002B03D11D4B1B79012B22D1ED
:101CF0001B4B9B68002B03D1194B1B7B012B1AD16B
:101D0000174B1B69002B03D1154B1B7D012B12D1E7
:101D1000134B9B69002B03D1114B1B7F012B0AD165
:101D20000F4B1B6A002B04D10D4B93F82430012B71
:101D300001D1FFF7DDFC0A4B00221A60084B00229C
:101D40009A60074B00221A61054B00229A61044BEE
:101D500000221A624FF4FA7000F0D2F8C0E700BF18
:101D6000A41E002080B58AB002AFF860B9603B6065
:101D70001346FB80FB68002B04D14FF0500080F32A
:101D80001188FEE7BB6A042B04D94FF0500080F3A2
:101D90001188FEE7FB881846396B00F0B9FCB86182
:101DA000BB69002B00F08680BB691A6BFB8803F1CE
:101DB0008043013B9B0013447B617B6923F0070355
:101DC0007B617B6903F00703002B04D04FF05000C8
:101DD00080F31188FEE7FB880093B869B968BA6A96
:101DE0007B6B00F0B1FB7869F9683A6802F0E2FBBE
:101DF0000246BB691A60BB691B6803F00703002B2E
:101E000004D04FF0500080F31188FEE7FB6A002BEE
:101E100002D0FB6ABA691A6002F038FC314B1B68C9
:101E20000133304A1360304B1B68002B09D12E4A16
:101E3000BB6913602B4B1B68012B0FD100F0BAFB61
:101E40000CE02A4B1B68002B08D1274B1B68DA6A71
:101E5000BB6A9A4202D8244ABB691360BB69DA6A3A
:101E6000234B1B689A4203D9BB69DB6A204A136083
:101E7000204B1B6801331F4A1360BB69DA6A1E4B93
:101E80001B689A4203D9BB69DB6A1B4A1360BB69B2
:101E9000DA6A13469B0013449B00184A1A44BB6934
:101EA00004331046194602F065FA0123FB6102F083
:101EB000FFFB02E04FF0FF33FB61FB69012B0BD10D
:101EC0000A4B1B68002B07D0074B1B68DA6ABB6AFA
:101ED0009A4201D202F0CEFBFB6918462037BD467C
:101EE00080BD00BFC8010020F0000020D801002004
:101EF000D0010020EC010020D4010020F4000020DB
:101F000080B584B000AF78600023FB607B68002B55
:101F100012D000F051F80C4B1A687B681344BB6078
:101F20000A4B1B680433184602F084FAB86800F0C4
:101F3000B9FB00F04FF8F860FB68002B01D102F00C
:101F400099FB1037BD4680BDCC010020F000002079
:101F500080B586B004AF00230093002301930023D3
:101F60000293002303931048104946220023FFF7F1
:101F7000F9FE78607B68012B0BD14FF0500080F3A5
:101F800011880B4B01221A600A4B00221A6002F0E2
:101F900055FB7B68002B04D14FF0500080F3118873
:101FA000FEE70837BD4680BD29250008E865000822
:101FB000D8010020CC01002080B400AF044B1B6886
:101FC0000133034A1360BD465DF8047B704700BFD0
:101FD000DC01002090B583B000AF00237B60374B5D
:101FE0001B68002B04D14FF0500080F31188FEE7EE
:101FF00002F04CFB314B1B68013B304A13602F4B06
:102000001B68002B52D12E4B1B68002B4ED0002397
:102010003B6027E02B4BDB68DC6804F118031846B3
:1020200002F008FA231D184602F004FAE26A264B71
:102030001B689A4202D9E36A234A1360E26A134694
:102040009B0013449B00214A1A44231D1046194645
:1020500002F090F9E26A1E4B1B68DB6A9A4201D3D8
:1020600001233B60174B1B68002BD3D1194B1B6816
:10207000002B0DD006E000F031F8164B1B68013B39
:10208000144A1360134B1B68002BF4D101233B60EF
:102090003B68012B03D0104B1B68012B06D1012399
:1020A0007B600D4B00221A6002F0E4FA02F000FBA4
:1020B0007B6818460C37BD4690BD00BFDC01002090
:1020C000C801002088010020D4010020F400002075
:1020D000F0000020E0010020E401002080B584B081
:1020E00000AF454B1B68002B7DD1444B1B6801336F
:1020F000424A1360414B1B68002B2BD1404B1B689D
:102100001B68002B04D04FF0500080F31188FEE7CD
:102110003B4B1B68FB603B4B1B68394A1360394AD9
:10212000FB681360384B1B680133374A1360344B2C
:102130001B681B68002B04D1344B4FF0FF321A6030
:1021400008E02F4B1B68DB68DB68BB60BB685B6823
:102150002E4A1360294B1A682C4B1B689A4241D3B4
:10216000274B1B681B68002B04D1284B4FF0FF3214
:102170001A6037E0224B1B68DB68DB68BB60BB681A
:102180005B687B601D4B1A687B689A4203D21F4ACA
:102190007B68136026E0BB680433184602F04AF9F6
:1021A000BB689B6A002B04D0BB681833184602F04A
:1021B00041F9BB68DA6A164B1B689A4203D9BB68BF
:1021C000DB6A134A1360BB68DA6A13469B00134448
:1021D0009B00104A1A44BB6804331046194602F0AB
:1021E000C9F8BDE704E00C4B1B6801330A4A1360D1
:1021F0001037BD4680BD00BFDC010020CC010020AF
:102200008001002084010020E8010020000000205F
:10221000D4010020F4000020E001002080B582B04D
:1022200000AF344B1B68002B03D0334B01221A60E4
:102230005CE0324B1B681A68304B1B681B6B9A4280
:1022400008D82E4B1A682D4B1B683433104619469C
:10225000FFF73EFB294B1B681B6B184628491422CD
:1022600004F03CF80346002B08D0244B1A68234B9B
:102270001B68343310461946FFF72AFB0DE0214B4B
:102280001B68002B04D14FF0500080F31188FEE74B
:102290001C4B1B68013B1B4A13601A4B1A681A49F6
:1022A00013469B0013449B000B441B68002BE6D095
:1022B000144B1A6813469B0013449B00124A1344A4
:1022C0007B607B685B685A687B685A607B685A6889
:1022D0007B6808339A4204D17B685B685A687B68E4
:1022E0005A607B685B68DB68044A13600837BD4648
:1022F00080BD00BFDC010020E4010020F0000020D0
:10230000F0650008D4010020F400002080B584B0FE
:1023100000AF786039607B68002B04D14FF050002B
:1023200080F31188FEE7124B1B6818337868194652
:1023300002F048F80E4B1B680433184602F07AF896
:102340003B68B3F1FF3F07D1094B1B6804330948D1
:10235000194602F00FF807E0074B1A683B68134470
:10236000FB60F86800F09EF91037BD4680BD00BFE5
:10237000F0000020B4010020CC01002080B584B022
:1023800000AF78607B68DB68DB68BB60BB68002BF4
:1023900004D14FF0500080F31188FEE7BB6818337A
:1023A000184602F047F81C4B1B68002B1DD1BB6878
:1023B0000433184602F03EF8BB68DA6A174B1B6814
:1023C0009A4203D9BB68DB6A144A1360BB68DA6AB5
:1023D00013469B0013449B00114A1A44BB68043304
:1023E0001046194601F0C6FF05E0BB6818330D48DA
:1023F000194601F0BFFFBB68DA6A0B4B1B68DB6A4A
:102400009A4202D30123FB6001E00023FB60FB68DA
:1024100018461037BD4680BDDC010020D4010020E5
:10242000F400002088010020F000002080B483B078
:1024300000AF78607B68002B04D14FF0500080F330
:102440001188FEE7064B1A687B681A60054B1A680C
:102450007B685A600C37BD465DF8047B704700BF4F
:10246000E8010020CC01002080B584B000AF786086
:1024700039607B68002B04D14FF0500080F3118845
:10248000FEE73B68002B04D14FF0500080F3118829
:10249000FEE702F0FBF83B681B68B3F1FF3F02D197
:1024A0000023FB6029E07B681A68174B1B689A427F
:1024B00008D07B685A68154B1B689A4202D80123E2
:1024C000FB601AE0114B1A687B685B68D21A3B68A4
:1024D0001B689A420FD20D4B1A687B685B68D31A4F
:1024E0003A681268D21A3B681A607868FFF79EFF54
:1024F0000023FB6001E00123FB6002F0D9F8FB68D8
:1025000018461037BD4680BDE8010020CC010020F0
:1025100080B400AF034B01221A60BD465DF8047B16
:10252000704700BFE401002080B582B000AF786042
:1025300000F07EF8034B1B68012B01D902F09AF8DA
:10254000F6E700BFF400002080B584B000AFF8606B
:10255000B9607A603B60FB6834331846B9680A2278
:1025600003F0E0FFFB68002283F83D207B68042B2A
:1025700001D904237B60FB687A68DA62FB687A68B9
:102580001A64FB680433184601F0E8FEFB68183350
:10259000184601F0E3FEFB68FA681A617B68C3F134
:1025A0000502FB689A61FB68FA685A621037BD46FB
:1025B00080BD00BF80B582B000AF00237B600CE01F
:1025C0007A6813469B0013449B00114A1344184633
:1025D00001F0A4FE7B6801337B607B68042BEFD99C
:1025E0000C4801F09BFE0C4801F098FE0B4801F0EE
:1025F00095FE0B4801F092FE0A4801F08FFE0A4B4F
:10260000044A1A60094B044A1A600837BD4680BD67
:10261000F4000020580100206C01002088010020F7
:102620009C010020B40100208001002084010020D2
:1026300080B582B000AF184B1B68002B28D0FFF785
:10264000BBFC164B1B68002B0CBF01230023DBB225
:102650007B60FFF7BFFC7B68002B19D102F016F8F6
:102660000E4BDB68DB683B603B680433184601F0C7
:10267000E1FE0B4B1B68013B094A1360064B1B68CC
:10268000013B054A136002F013F8386800F072F855
:102690000837BD4680BD00BFB00100209C0100206E
:1026A000C801002080B582B000AF7860134B1B6872
:1026B0007A685A60124B1B687A689A4209D2114BA9
:1026C0001A680E4B1B6804331046194601F07AFE57
:1026D00010E00D4B1A68094B1B680433104619466D
:1026E00001F070FE094B1B687A689A4202D2074AD1
:1026F0007B6813600837BD4680BD00BFF000002036
:10270000CC01002084010020800100200000002076
:1027100080B584B000AF03463960FB80442002F0EE
:1027200067FFF860FB68002B1FD03B68002B06D1C9
:10273000FB889B00184602F05BFF034600E03B6805
:10274000FA681363FB681B6B002B05D1F86802F075
:102750008BFF0023FB6008E0FB681A6BFB889B0083
:102760001046A5211A4603F061FEFB681846103793
:10277000BD4680BD80B582B000AF78607B681B6BC2
:10278000184602F071FF786802F06EFF0837BD4608
:1027900080BD00BF80B483B000AF054B1B687B6079
:1027A0007B6818460C37BD465DF8047B704700BF58
:1027B000F000002080B584B000AF78607B68FB60DB
:1027C0007B68002B04D14FF0500080F31188FEE7A6
:1027D000FB68DA6A214B1B68DB6A9A423AD21F4BCC
:1027E0001B68DB6AC3F10502FB689A61FB685969E3
:1027F000FB68DA6A13469B0013449B00184A134493
:10280000994222D1FB680433184601F013FE134BA2
:102810001B68DA6AFB68DA62FB68DA6A114B1B68CC
:102820009A4203D9FB68DB6A0E4A1360FB68DA6AD6
:1028300013469B0013449B00094A1A44FB68043367
:102840001046194601F096FD04E0044B1B68DA6A55
:10285000FB68DA621037BD4680BD00BFF000002083
:10286000F4000020D401002080B584B000AF78606F
:102870007B68FB607B68002B2CD0FB68DA6AFB6806
:102880001B6C9A4226D0FB680433184601F0D2FD37
:10289000FB681A6CFB68DA62FB68DB6AC3F105024D
:1028A000FB689A61FB68DA6A0C4B1B689A4203D991
:1028B000FB68DB6A094A1360FB68DA6A13469B000F
:1028C00013449B00064A1A44FB6804331046194619
:1028D00001F050FD1037BD4680BD00BFD40100207F
:1028E000F400002080B483B000AF0346FB8002E018
:1028F000FB88013BFB80FB88002BF9D10C37BD46E0
:102900005DF8047B704700BF80B586B004AF05203A
:102910000121FEF7E3FF4FF470633B6000237B71FE
:1029200001233B710123BB710023FB713B46194816
:10293000194601F003FC4FF41C433B6000237B71FC
:1029400000233B710123FB713B461348194601F0FC
:10295000F5FB104B4FF470621A83104B01221A756D
:1029600002200121002201F059FF02460C4B1A609F
:102970000123009300230193002302930023039378
:102980000848094940220023FFF7ECF90837BD4603
:1029900080BD00BF0008024000000240A41E0020CD
:1029A000CC1E0020AD2900080466000880B586B062
:1029B00000AF78600023BB7500237B750023FB7597
:1029C00000237B824FF41C437B82374B00221A7515
:1029D00000F06EF80346FB730A20FFF791FA00F04F
:1029E00067F803467B74FB7BFF2B24D0FB7B7A7C50
:1029F0009A424FD1FB7BBB73FB7D132B03D8FB7D2E
:102A00000133FB7546E0FB7D142B43D11523FB7589
:102A1000FB7B1033DBB2FB73244B1B68002B39D0DC
:102A2000224B1A6807F10F031046194600220023B3
:102A300001F07AFF2EE0FB7D002B12D0FB7D132BE3
:102A40000FD81A4B1B68002B0AD0184B1A6807F1D5
:102A50000E03104619460022002301F065FF15E021
:102A600014E0FB7D152B11D1BB7B2033DBB2BB7394
:102A70000E4B1B68002B09D00C4B1A6807F10E0394
:102A8000104619460022002301F04EFFFF233B743D
:102A90000023FB75044B1B690133034A1361322089
:102AA000FFF72EFA94E700BFA41E0020CC1E0020E2
:102AB00080B582B000AF0023FB710023BB804FF4D0
:102AC0001C43BB80664B4FF470621A830023FB717A
:102AD000BDE0FB79032B00F2B78001A252F823F08E
:102AE000F12A0008472B00089D2B0008F32B000853
:102AF0005B4B4FF480725A830A20FFF7F3FE594B69
:102B00001B697B80564B4FF470621A837B88DA43D3
:102B1000BB881340B3F5006F0FD0B3F5006F03DC33
:102B2000B3F5806F07D08FE0B3F5805F07D0B3F5C2
:102B3000004F06D088E001238EE002238CE00323BF
:102B40008AE00A2388E0464B4FF400725A830A2039
:102B5000FFF7C8FE434B1B697B80414B4FF470620B
:102B60001A837B88DA43BB881340B3F5006F0FD01C
:102B7000B3F5006F03DCB3F5806F07D064E0B3F505
:102B8000805F07D0B3F5004F06D05DE0042363E01B
:102B9000052361E006235FE00B235DE0304B4FF43B
:102BA00080625A830A20FFF79DFE2E4B1B697B80B3
:102BB0002B4B4FF470621A837B88DA43BB88134037
:102BC000B3F5006F0FD0B3F5006F03DCB3F5806F82
:102BD00007D039E0B3F5805F07D0B3F5004F06D0DA
:102BE00032E0072338E0082336E0092334E00C23E1
:102BF00032E01B4B4FF400625A830A20FFF772FE4B
:102C0000184B1B697B80164B4FF470621A837B88CC
:102C1000DA43BB881340B3F5006F0FD0B3F5006FF4
:102C200003DCB3F5806F07D00EE0B3F5805F07D00B
:102C3000B3F5004F06D007E00D230DE000230BE0B5
:102C40000F2309E00E2307E0FB790133FB71FB79C9
:102C5000032B7FF63EAFFF2318460837BD4680BDE5
:102C6000000802400000024080B483B000AF7860EA
:102C70007B68064A934200D102E0054A7B681360F4
:102C80000C37BD465DF8047B704700BFF40100209F
:102C9000281F002080B582B000AF6C4B1B689B687A
:102CA0007B607B686A4A934203D16A4800F092FFD6
:102CB000C7E0664B1B68113300201946FDF7A6FAE2
:102CC000624B1B681B7C023B062B00F2B98001A201
:102CD00052F823F0F12C0008F92C0008012D00080F
:102CE000092D0008572D0008A52D0008F32D000818
:102CF000584800F06FFFA4E0564800F06BFFA0E0DA
:102D0000544800F067FF9CE0534B1B681B8B9BB241
:102D10001BB218464F49002241F2707301F05EF871
:102D20000346012B12D14B4800F054FF0120FF2134
:102D30000222FEF78BFD022001210022FDF784FE16
:102D40000120FF210222FEF781FD7AE041480121A6
:102D500000F052FF75E0404B1B685B8B9BB21BB2CF
:102D600018463C49002241F2707301F037F80346DF
:102D7000012B12D1374800F02DFF0120FF21022244
:102D8000FEF764FD022001210022FDF75DFE012017
:102D9000FF210222FEF75AFD53E02E48012100F0E8
:102DA0002BFF4EE02C4B1B689B8B9BB21BB2184633
:102DB0002849002241F2707301F010F80346012BFC
:102DC00012D1244800F006FF0120FF210222FEF765
:102DD0003DFD022001210022FDF736FE0120FF21EA
:102DE0000222FEF733FD2CE01A48012100F004FF17
:102DF00027E0194B1B68DB8B9BB21BB218461549A9
:102E0000002241F2707300F0E9FF0346012B12D15A
:102E1000104800F0DFFE0120FF210222FEF716FD20
:102E2000022001210022FDF70FFE0120FF210222D6
:102E3000FEF70CFD05E00748012100F0DDFE00E093
:102E400000BF002318460837BD4680BD281F00205C
:102E5000F4010020101F0020201E002080B500AFCC
:102E6000064B074A1A60074B00221A72054B2022B4
:102E70005A72FFF70FFF0023184680BD281F00205D
:102E800004000020101F002080B584B004AF022091
:102E90000121002201F0C2FC02460A4B1A60012304
:102EA0000093002301930023029300230393064819
:102EB000064980220023FEF755FF054B01221A73B5
:102EC000BD4680BD2C1F00209939000810660008FF
:102ED000A41E002080B500AF044B1B689B681846F9
:102EE000FFF7C2FEFFF7D6FE80BD00BF281F0020FF
:102EF00080B500AF044B1B68DB681846FFF7B4FED3
:102F0000FFF7C8FE80BD00BF281F002080B500AFBE
:102F1000044B1B681B681846FFF7A6FEFFF7BAFEB6
:102F200080BD00BF281F002090B58FB002AF786031
:102F30000B46FB70BE4B1B7E002B12D0FB780C2B7C
:102F400002D0FB781C2B0AD101200021FEF782F968
:102F5000042001210022FDF777FD00F012BD00F0F2
:102F600010BDB34B5B7E022B28D1FB781C2B23D1E9
:102F7000B04800F02FFEAE4B9B7E023B042B10D8D6
:102F800001A252F823F000BFA32F0008A32F0008CE
:102F90009D2F0008A32F0008A32F0008FEF728FA92
:102FA00000E000BFA24B00225A760020012100223F
:102FB000FDF74AFD00F0E5BC00F0E3BC9C4B1B7D37
:102FC000012B07D09A4B1B7D032B03D0984B1B7D05
:102FD000022B30D1FB780B2B18D1954B02221A759E
:102FE000934BDB8A9BB21BB203201946FDF79EFF71
:102FF0000346002B05D0022001210022FDF724FD0D
:1030000004E0002001210022FDF71EFDFB781C2BAF
:103010000FD1884800F0DEFD854B00225A76844BA4
:1030200000221A75012001210022FDF70DFD00F09C
:10303000A8BC00F0A6BC7B681B7C013B072B00F200
:10304000A08401A252F823F0693000082D35000851
:10305000D53500087336000811370008A937000875
:1030600041380008E5380008FB780B3B242B00F2C0
:10307000518201A252F823F09D3300081535000853
:1030800015350008153500081535000815350008F8
:1030900015350008153500081535000815350008E8
:1030A00015350008153500081535000815350008D8
:1030B000153500080D310008C53400081D31000821
:1030C000113400086B31000833340008153500084E
:1030D00015350008153500081535000815350008A8
:1030E0001535000815350008153500081535000898
:1030F0001535000815350008153500081535000888
:1031000055340008153500088D340008FFF7F0FE2F
:10311000042001210022FDF797FC06E2454800F05B
:1031200059FD434B5B7E022B16D1414B9B7E023BEC
:10313000042B10D801A252F823F000BF5731000829
:103140005731000851310008573100085731000845
:10315000FEF74EF900E000BF354B00225A76002002
:1031600001210022FDF770FCDFE10023BB83314B1E
:103170005B7A2B2B05D02D2B60D0202B00F0B0805C
:103180000BE107F11C032B4819462B4A41F27073DF
:1031900000F0B8FD0346002B44D1254B5B68184670
:1031A000FEF7B4F903461A46BB8B1BB2134441F237
:1031B000707293420ADD022001210022FDF744FCD7
:1031C0000120FF210222FEF741FBE6E0184B1B68BD
:1031D000DB8B1A46BB8B1BB29A420ADB0220012111
:1031E0000022FDF731FC0120FF210222FEF72EFB19
:1031F000D3E0BB8B1BB201201946FDF797FE0346B7
:10320000002B09D006200021FEF724F8022001211E
:103210000022FDF719FCC0E0002001210022FDF78B
:1032200013FCBAE0022001210022FDF70DFCB4E0FE
:10323000201E0020101F002090E8FFFF07F11C0354
:10324000C2481946C24A41F2707300F05BFD034662
:10325000002B3FD1BF4B5B681846FEF757F903467A
:103260009BB21AB2BB8B1BB21344002B0ADA0220AA
:1032700001210022FDF7E8FB0120FF210222FEF7D9
:10328000E5FA8AE0B34B1B689B8B1A46BB8B1BB2DB
:103290005B429A420ADB022001210022FDF7D4FBA7
:1032A0000120FF210222FEF7D1FA76E0BB8B1BB290
:1032B00002201946FDF73AFE0346002B04D00620F3
:1032C0000021FDF7C7FF68E0002001210022FDF783
:1032D000BBFB62E0022001210022FDF7B5FB5CE0B0
:1032E00007F11C0399481946994A41F2707300F09E
:1032F00009FD0346002B49D1BB8B9CB2954B5B6803
:103300001846FEF703F90346E31A9BB2FB85B7F9AB
:103310002E30002B12DB8F4B1B68DB8B1A46B7F964
:103320002E309A421EDB022001210022FDF78CFB89
:103330000120FF210222FEF789FA2EE0854B1B684F
:103340009B8B1A46B7F92E305B429A420ADB022069
:1033500001210022FDF778FB0120FF210222FEF768
:1033600075FA1AE0BB8B1BB203201946FDF7DEFD90
:103370000346002B04D006200021FDF76BFF0BE075
:10338000002001210022FDF75FFB05E00220012162
:103390000022FDF759FBFFE700BFC6E06D4B1B7D28
:1033A000002B00D033E06B4B1B681B8B1846FEF7DD
:1033B000DDF8B862674B5A68BB6A9A4205D30220AF
:1033C00001210022FDF740FB20E0624B03221A7529
:1033D000604B5B681846FEF799F803461A465D4B4A
:1033E000DA82B86AFDF7FEFC0346002B08D0022003
:1033F00001210022FDF728FB564B00221A7505E03B
:10340000002001210022FDF71FFBFFE700BF8CE039
:10341000504BDB7E012B0BD00120FDF7DBFE0120A2
:10342000FDF7F6FE002001210022FDF70DFB7CE0F8
:103430007BE0484BDB7E022B0BD00120FDF7CAFE60
:103440000020FDF7E5FE002001210022FDF7FCFA37
:103450006BE06AE007200021FDF7FCFE3D4B5B6856
:10346000BB613C4B1B6803F1200207F118031046B7
:1034700019460422FEF7E4F84FF4FA70FEF740FD17
:10348000012001210022FDF7DFFA4EE00720002194
:10349000FDF7E0FE2F4B5B687B612E4B1B6803F151
:1034A000200207F11403104619460422FEF7C8F85B
:1034B0004FF4FA70FEF724FD012001210022FDF7F0
:1034C000C3FA32E0234B5B681846FEF71FF8034649
:1034D0007B827B8A41F27072934210D81D4B1B682D
:1034E00003F1180207F11203104619460222FEF7F3
:1034F000A7F8012001210022FDF7A6FA15E002201D
:1035000001210022FDF7A0FA0120FF210222FEF78F
:103510009DF90AE0FA7841F2707300931046032196
:103520000A4A0B4B00F0D8FC00BF2AE2FB781C2BA8
:1035300004D01E2B18D00A2B0ED03FE0FFF7CAFC98
:10354000042001210022FDF77FFA42E0101F002035
:1035500090E8FFFF201E0020FFF7D8FC002001218B
:103560000022FDF771FA34E007F12003C048194644
:10357000C04A41F2707300F0C5FB0346002B12D124
:10358000BD4B5B687B62BC4B1B681A4607F120038E
:10359000104619460822FEF753F8012001210022A7
:1035A000FDF752FA15E0022001210022FDF74CFA46
:1035B0000120FF210222FEF749F90AE0FA7841F2E0
:1035C0007073009310460121A94AAA4B00F084FCB5
:1035D00000BFD6E1FB781C2B04D01E2B12D00A2B87
:1035E00008D03AE0FFF776FC042001210022FDF725
:1035F0002BFA3DE0FFF78AFC002001210022FDF7B5
:1036000023FA35E007F1200399481946994A41F217
:10361000707300F077FB0346002B13D1964B5B6869
:103620007B62954B1B6803F1080207F120031046EB
:1036300019460822FEF704F8012001210022FDF7B7
:1036400003FA15E0022001210022FDF7FDF9012017
:10365000FF210222FEF7FAF80AE0FA7841F27073CD
:10366000009310460121824A824B00F035FC00BFD6
:1036700087E1FB781C2B04D01E2B12D00A2B08D01C
:103680003AE0FFF727FC042001210022FDF7DCF9D6
:103690003DE0FFF73BFC002001210022FDF7D4F9BB
:1036A00035E007F1200372481946002241F2707399
:1036B00000F028FB0346002B13D16F4B5B687B6245
:1036C0006D4B1B6803F1100207F1200310461946E9
:1036D0000822FDF7B5FF012001210022FDF7B4F912
:1036E00015E0022001210022FDF7AEF90120FF21A3
:1036F0000222FEF7ABF80AE0FA7841F27073009309
:10370000104601215A4A002300F0E6FB00BF38E1D1
:10371000FB781C2B04D01E2B12D00A2B08D037E0CC
:10372000FFF7D8FB042001210022FDF78DF93AE0D4
:10373000FFF7ECFB002001210022FDF785F932E0C4
:1037400007F11E034A481946002241F2707300F047
:10375000D9FA0346002B10D1474B1B6803F118021E
:1037600007F11E03104619460222FDF769FF0120EA
:1037700001210022FDF768F915E002200121002255
:10378000FDF762F90120FF210222FEF75FF80AE04F
:10379000FA7841F27073009310460121344A0023F5
:1037A00000F09AFB00BFECE0FB781C2B04D01E2B32
:1037B00012D00A2B08D037E0FFF78CFB0420012140
:1037C0000022FDF741F93AE0FFF7A0FB00200121BC
:1037D0000022FDF739F932E007F11E0324481946AB
:1037E000002241F2707300F08DFA0346002B10D1D5
:1037F000214B1B6803F11A0207F11E0310461946FC
:103800000222FDF71DFF012001210022FDF71CF916
:1038100015E0022001210022FDF716F90120FF2109
:103820000222FEF713F80AE0FA7841F2707300936F
:10383000104601210E4A002300F04EFB00BFA0E01D
:10384000FB781C2B04D01E2B18D00A2B08D03DE08F
:10385000FFF740FB042001210022FDF7F5F840E0CE
:10386000FFF754FB002001210022FDF7EDF838E0BE
:10387000101F002090E8FFFF201E002007F110031A
:1038800041481946002241F2707300F03BFA0346AA
:10389000002B10D13D4B1B6803F11C0207F11003F4
:1038A000104619460222FDF7CBFE0120012100221D
:1038B000FDF7CAF815E0022001210022FDF7C4F847
:1038C0000120FF210222FDF7C1FF0AE0FA7841F250
:1038D00070730093104601212B4A002300F0FCFA7C
:1038E00000BF4EE0FB781C2B04D01E2B15D00A2BFA
:1038F00008D03AE0FFF7EEFA042001210022FDF79C
:10390000A3F83DE0224B234A1A60FFF7C3F90020D9
:1039100001210022FDF798F832E007F10E031A4862
:103920001946002241F2707300F0ECF90346002BB7
:1039300010D1164B1B6803F11E0207F10E0310464F
:1039400019460222FDF77CFE012001210022FDF72D
:103950007BF815E0022001210022FDF775F8012017
:10396000FF210222FDF772FF0AE0FA7841F270733C
:10397000009310460121044A002300F0ADFA00BF75
:1039800000BF3437BD4690BD101F0020201E002010
:10399000281F00201C00002080B584B000AF786094
:1039A0000023FB73FFF75AFA804B00221A73804BF7
:1039B0001B68002B1CD07E4B1B68184601F080F959
:1039C0000346002B14D07A4B1A6807F10C031046FB
:1039D00019460A22002301F0A3F80346002B07D062
:1039E000744B1A68BB89DBB210461946FFF79CFA84
:1039F000714B1B68002B1AD06F4B1B68184601F0E7
:103A00005FF90346002B12D06B4B1A6807F10B03CA
:103A1000104619460A22002301F082F80346002BC3
:103A200005D0FB7A012B02D1644800F0D3F8FB7B70
:103A30000133FB735F4B1B681B7C012B40F0AD8097
:103A4000FB7B092B40F2A9800023FB735C4B5B7E60
:103A5000002B40F08D805A4B5B681846FDF756FDF1
:103A600003469BB21BB218465649002241F27073BE
:103A700000F0B4F95348002100F0BEF8504B1B7E13
:103A8000022B1AD0032B32D0012B67D14C4B9A68F2
:103A90004B4B5B68D31A1846FDF7FEFC03469BB2FE
:103AA0001BB218464749002241F2707300F096F9A4
:103AB0004448012100F0A0F859E0414B5A68404BBE
:103AC0009B68D31A1846FDF7E7FC03469BB21BB26E
:103AD00018463C49002241F2707300F07FF9394BDF
:103AE0002D225A723748012100F086F83FE0344B0E
:103AF0009A68334B5B689A4216D3314B9A68304BC5
:103B00005B68D31A1846FDF7C7FC03469BB21BB28D
:103B100018462C49002241F2707300F05FF92948E1
:103B2000012100F069F822E0254B5A68244B9B687C
:103B3000D31A1846FDF7B0FC03469BB21BB21846D9
:103B40002049002241F2707300F048F91D4B2D22EC
:103B50005A721C48012100F04FF808E0184B1B7DF9
:103B6000012B1AD101201849FCF750FB15E014E095
:103B7000134B5B7E022B10D1114B9B7E022B03D08B
:103B80000F4B9B7E032B04D100201049FCF73EFB1A
:103B900003E000200E49FCF739FB044B9B6801331E
:103BA000024A93600A20FEF7ABF900E7A41E00204A
:103BB000CC1E0020281F00202C1F0020101F0020DA
:103BC000201E00201C1F0020186600082066000828
:103BD0002866000880B582B000AF78607B6800225C
:103BE0001A727B6820225A727868012100F004F86A
:103BF0000837BD4680BD00BF80B586B000AF786095
:103C00000B46FB703C4A07F10C0392E80300186076
:103C10000433198002330A0C1A700023FB7400234A
:103C2000FB750023BB757B681B7A002B1AD17B6860
:103C30005B7A2D2B05D1FB7818463049FCF7E6FA64
:103C40000EE07B685B7A2B2B05D1FB7818462C495C
:103C5000FCF7DCFA04E0FB7818462749FCF7D6FAB3
:103C6000002344E07B681B7A042B3FD80523BB75F7
:103C70007B681B7A013BDBB2FB751DE097F91630C0
:103C800097F9172079688A5C07F118010B4403F84B
:103C90000C2CBB7DDBB2013BDBB2BB7597F9163058
:103CA000042B04D1BB7DDBB2013BDBB2BB75FB7DDA
:103CB000DBB2013BDBB2FB7597F91730002BDDDA85
:103CC0007B685B7A2D2B02D12D233B7305E07B684B
:103CD0005B7A2B2B01D12E233B73FA7807F10C036F
:103CE00010461946FCF792FA002300E0012318461B
:103CF0001837BD4680BD00BF40660008306600082A
:103D00003866000880B487B000AFF860B96011462B
:103D10001A460B46FB801346BB800023FB82002320
:103D20007B7501237B82FB681B7A002B04D1BB6867
:103D300000221A8000234AE0FB681B7A013BDBB2B9
:103D40007B7526E097F91530FA68D35C2F2B05D9DF
:103D500097F91530FA68D35C392B01D9012336E085
:103D600097F91530FA68D35C303B9BB27A8A02FB34
:103D700003F39AB2FB8A13449BB2FB827B8A1A46F6
:103D8000920013445B007B827B7DDBB2013BDBB2A4
:103D90007B7597F91530002BD4DAFB685B7A2D2BF5
:103DA00003D1FB8A5B429BB2FB82BB68FA8A1A8012
:103DB000B7F91620B7F906309A4205DBB7F9162095
:103DC000B7F904309A4201DD012300E000231846D0
:103DD0001C37BD465DF8047B704700BF80B487B0D8
:103DE00000AFB96011461A460346FB810B46BB8102
:103DF0001346FB800023FB75B7F90E20B7F9063098
:103E00009A4205DCB7F90E20B7F90C309A420CDA69
:103E1000B7F90E20B7F906309A4202DDFB88FB8124
:103E200001E0BB89FB810123FB75B7F90E30002B44
:103E300007DABB682D225A72FB895B429BB2FB8179
:103E400002E0BB6820225A72BB6800221A724FF44B
:103E50007A73BB820023FB742DE0B7F90E20BB8A76
:103E600092FBF3F3BB74BB7C092B15D8BB7C002BF6
:103E700002D1FB7C002B0FD0BB681B7A1A46BB7C9F
:103E80003033D9B2BB689954BB681B7A0133DAB2BC
:103E9000BB681A720123FB74B7F90E30BA8A93FB20
:103EA000F2F102FB01F29B1AFB81BB8A094AA2FBD9
:103EB0000323DB08BB82BB8A002BCED1FB7D002B0A
:103EC00001D0012300E0002318461C37BD465DF8F1
:103ED000047B7047CDCCCCCC80B584B000AF3A60C9
:103EE0001A460346FB710B46BB711346BB80FB7938
:103EF000092B09D9FB790C2B06D0FB790D2B03D0AC
:103F0000FB790F2B00D015E1FB790C2B18D13B6806
:103F10001B7A002B13D03B681B7A002B05D03B6823
:103F20001B7A013BDAB23B681A7238680121FFF74D
:103F300063FE002001210022FCF786FDFAE0F9E093
:103F4000FB790D2B02D00F2B13D025E0BB7903F0AA
:103F50000203002B0CD03B682D225A7238680121D5
:103F6000FFF74AFE002001210022FCF76DFDE1E091
:103F7000E0E0BB7903F00203002B0CD03B682B225E
:103F80005A7238680121FFF737FE00200121002214
:103F9000FCF75AFDCEE0CDE03B681B7A032B0AD933
:103FA000022001210022FCF74FFD0120FF21022207
:103FB000FDF74CFCBEE0FB79092B00F2948001A2D6
:103FC00052F823F0ED3F00080F400008274000089A
:103FD0003F400008574000086F4000088740000835
:103FE0009F400008B7400008CF4000083B681B7A9C
:103FF000002B00D19EE03B681B7A1A463B683021BB
:104000009954002001210022FCF71EFD6CE03B6862
:104010001B7A1A463B683121995400200121002265
:10402000FCF712FD60E03B681B7A1A463B683221C0
:104030009954002001210022FCF706FD54E03B6862
:104040001B7A1A463B683321995400200121002233
:10405000FCF7FAFC48E03B681B7A1A463B683421BF
:104060009954002001210022FCF7EEFC3CE03B6863
:104070001B7A1A463B683521995400200121002201
:10408000FCF7E2FC30E03B681B7A1A463B683621BD
:104090009954002001210022FCF7D6FC24E03B6863
:1040A0001B7A1A463B6837219954002001210022CF
:1040B000FCF7CAFC18E03B681B7A1A463B683821BB
:1040C0009954002001210022FCF7BEFC0CE03B6863
:1040D0001B7A1A463B68392199540020012100229D
:1040E000FCF7B2FC00E000BF3B681B7A0133DAB298
:1040F0003B681A7207F10E01B7F90420B7F91830BE
:104100003868FFF7FFFD0346012B0FD13B681B7A90
:10411000013BDAB23B681A72022001210022FCF74F
:1041200093FC0120FF210222FDF790FB386801215A
:10413000FFF762FD1037BD4680BD00BF80B487B079
:1041400000AF7860396000237B6100233B6100236E
:10415000FB6000237B6176E07B69012202FA03F3B6
:104160003B613B681A683B691340FB60FA683B6936
:104170009A4265D17B681A687B695B001946032304
:104180008B40DB431A407B681A607B681A683B6887
:104190001B7919467B695B0001FA03F31A437B68BC
:1041A0001A603B681B79012B03D03B681B79022BFB
:1041B0002ED17B689A687B695B00194603238B408C
:1041C000DB431A407B689A607B689A683B685B793E
:1041D00019467B695B0001FA03F31A437B689A6016
:1041E0007B685A687B699BB2194601238B40DB438D
:1041F0001A407B685A607B685B683A68927911461E
:104200007A6992B201FA02F292B21A437B685A605A
:104210007B68DA687B699BB25B00032101FA03F3D8
:10422000DB431A407B68DA607B68DA683B68DB79DD
:1042300019467B695B0001FA03F31A437B68DA6075
:104240007B6901337B617B690F2B85D91C37BD46A8
:104250005DF8047B704700BF80B485B000AF786024
:104260000B467B800023FB737B681A697B881340B5
:10427000002B02D00123FB7301E00023FB73FB7BC7
:1042800018461437BD465DF8047B704780B485B08E
:1042900000AF78600B467B8013467B700023FB6089
:1042A0000023BB607B787A8802F00702920093407B
:1042B000FB607B88DB089BB218467B88DB089BB2DF
:1042C0001A467B68083253F822207B8803F00703E4
:1042D0009B0019460F238B40DB4302EA03017B68F6
:1042E00000F1080243F822107B88DB089BB21A46D3
:1042F0007B68083253F82220FB681343BB607B883D
:10430000DB089BB21A467B680832B96843F8221072
:104310001437BD465DF8047B704700BF80B483B09E
:1043200000AF78607B6803F108027B685A607B68A5
:104330004FF0FF329A607B6803F108027B68DA6015
:104340007B6803F108027B681A617B6800221A60AF
:104350000C37BD465DF8047B704700BF80B483B066
:1043600000AF78607B6800221A610C37BD465DF8AB
:10437000047B704780B485B000AF786039607B689B
:104380005B68FB60FB685A683B685A607B685A68E8
:104390003B689A60FB685B683A689A60FB683A68B9
:1043A0005A607B683A685A603B687A681A617B6831
:1043B0001B685A1C7B681A601437BD465DF8047B85
:1043C000704700BF80B485B000AF786039603B684B
:1043D0001B68BB60BB68B3F1FF3F03D17B681B69FF
:1043E000FB600CE07B680833FB6002E0FB685B6805
:1043F000FB60FB685B681A68BB689A42F6D9FB6889
:104400005A683B685A603B685B683A689A603B68E8
:10441000FA689A60FB683A685A603B687A681A6181
:104420007B681B685A1C7B681A601437BD465DF8B0
:10443000047B704780B485B000AF78607B685B68B0
:104440007A6892689A607B689B687A6852685A605A
:104450007B681B69FB60FB685A687B689A4203D1E2
:104460007B689A68FB685A607B6800221A61FB6867
:104470001B685A1EFB681A601437BD465DF8047B42
:10448000704700BF80B500AF114A114B1B6843F065
:10449000010313600E4B00229A600D4A0C4B1B68FF
:1044A00023F0847323F480331360094B094A5A6064
:1044B000074A074B1B6823F480231360044B002238
:1044C000DA6000F00BF8044B4FF000629A6080BD98
:1044D000003802401030002400ED00E080B483B0CA
:1044E00000AF00237B6000233B602F4A2E4B1B68EC
:1044F00043F4803313602C4B1B6803F400333B60A0
:104500007B6801337B603B68002B03D17B68B3F58C
:10451000A06FF0D1244B1B6803F40033002B02D0B2
:1045200001233B6001E000233B603B68012B36D157
:104530001D4A1D4B9B6893601B4A1B4B9B6843F4B1
:1045400000439360184A184B9B6843F4A053936050
:10455000154B164A5A60144A134B1B6843F080737C
:10456000136000BF104B1B6803F00073002BF9D0E1
:104570000F4B40F201721A600B4A0B4B9B6823F001
:1045800003039360084A084B9B6843F0020393605F
:1045900000BF054B9B6803F00C03082BF9D10C37C7
:1045A000BD465DF8047B7047003802400430430884
:1045B000003C024080B485B000AFF860B9607A601A
:1045C000FB68043BFB60FB684FF080721A60FB687D
:1045D000043BFB60BA68FB681A60FB68043BFB6045
:1045E000FB6800221A60FB68143BFB607A68FB687A
:1045F0001A60FB68203BFB60FB6818461437BD4619
:104600005DF8047B704700BF064B19680868B0E886
:10461000F00F80F309884FF0000080F311884EF00E
:104620000D0E7047F000002003480068006880F31A
:10463000088862B600DF00BF08ED00E080B500AF7B
:104640000A4A0A4B1B6843F470031360074A074B7E
:104650001B6843F07043136000F076F8044B0022AF
:104660001A60FFF7E1FF0023184680BD20ED00E04F
:10467000E000002080B400AF034B4FF080521A607E
:10468000BD465DF8047B704704ED00E080B400AFE8
:104690004FF0500080F31188044B1B680133034A2C
:1046A0001360BD465DF8047B704700BFE00000204A
:1046B00080B400AF084B1B68013B074A1360064BF0
:1046C0001B68002B03D14FF0000080F31188BD461A
:1046D0005DF8047B704700BFE0000020EFF3098025
:1046E0000C4B1A6820E9F00F10602DE908404FF0DC
:1046F000500080F31188FDF791FD4FF0000080F32A
:104700001188BDE8084019680868B0E8F00F80F328
:1047100009887047F000002080B582B000AF094BD7
:104720004FF080521A6000237B604FF0500080F3FE
:104730001188FDF7D3FC4FF0000080F31188083793
:10474000BD4680BD04ED00E080B400AF054B4BF6E4
:104750007F321A60044B07221A60BD465DF8047B65
:10476000704700BF14E000E010E000E080B582B0C8
:1047700000AF786039607B68002B04D14FF05000A7
:1047800080F31188FEE7FFF781FF7B681A687B687A
:10479000DB6B7968096C01FB03F31A447B685A6090
:1047A0007B6800229A637B681A687B689A607B68E2
:1047B0001A687B68DB6B013B7968096C01FB03F3CA
:1047C0001A447B68DA607B684FF0FF325A647B687A
:1047D0004FF0FF329A643B68002B0ED17B681B6957
:1047E000002B14D07B6810331846FDF7C7FD034635
:1047F000012B0CD1FFF73EFF09E07B681033184610
:10480000FFF78CFD7B6824331846FFF787FDFFF721
:104810004FFF012318460837BD4680BD80B588B0DC
:1048200000AFF860B9601346FB710023FB61FB68C1
:10483000002B26D04C2000F0DBFEB861BB69002BBA
:104840001FD0FB68BA6802FB03F301337B61786910
:1048500000F0CEFE0246BB691A60BB691B68002BE4
:104860000CD0BB69FA68DA63BB69BA681A64B869C4
:104870000121FFF77BFFBB69FB6102E0B86900F033
:10488000F3FEFB69002B04D14FF0500080F3118838
:10489000FEE7FB6918462037BD4680BD80B584B071
:1048A00000AF0346FB714C2000F0A2FEF860FB68ED
:1048B000002B2CD0FB6800225A60FB6800221A6093
:1048C000FB6800229A60FB680022DA60FB68002225
:1048D0009A63FB680122DA63FB6800221A64FB68B2
:1048E0004FF0FF325A64FB684FF0FF329A64FB6866
:1048F00010331846FFF712FDFB6824331846FFF704
:104900000DFDF86800210022002300F00DF8FB687F
:10491000002B04D14FF0500080F31188FEE7FB68B4
:1049200018461037BD4680BD80B588B000AFF8602E
:10493000B9607A603B600023FB61FB68002B04D107
:104940004FF0500080F31188FEE7BB68002B03D1C5
:10495000FB681B6C002B01D1012300E00023002B1E
:1049600004D14FF0500080F31188FEE7FFF78EFE70
:10497000FB689A6BFB68DB6B9A4216D2F868B968E1
:104980003A6800F0B5F9FB685B6A002B09D0FB6858
:1049900024331846FDF7F2FC0346012B01D1FFF743
:1049A00069FEFFF785FE012359E07B68002B03D1E8
:1049B000FFF77EFE002352E0FB69002B06D107F1D2
:1049C00014031846FDF732FD0123FB61FFF770FE6B
:1049D000FDF7F2FAFFF75AFEFB685B6CB3F1FF3F9D
:1049E00002D1FB6800225A64FB689B6CB3F1FF3F65
:1049F00002D1FB6800229A64FFF75AFE07F1140205
:104A00003B1D10461946FDF72FFD0346002B1ED116
:104A1000F86800F051FA0346002B12D0FB6803F14E
:104A200010027B6810461946FDF770FCF86800F02C
:104A3000E1F9FDF7CFFA0346002B0FD1FFF71AFE7D
:104A40000CE0F86800F0D6F9FDF7C4FA8EE7F868D4
:104A500000F0D0F9FDF7BEFA002300E086E7184623
:104A60002037BD4680BD00BF80B586B000AFF8607E
:104A7000B9607A603B60FB68002B04D14FF05000B6
:104A800080F31188FEE7BB68002B03D1FB681B6C29
:104A9000002B01D1012300E00023002B04D14FF0B3
:104AA000500080F31188FEE700233B614FF0500077
:104AB00080F31188FB689A6BFB68DB6B9A4224D207
:104AC000F868B9683A6800F013F9FB689B6CB3F1B9
:104AD000FF3F12D1FB685B6A002B13D0FB682433C5
:104AE0001846FDF74BFC0346002B0BD07B68002BD0
:104AF00008D07B6801221A6004E0FB689B6C5A1C9A
:104B0000FB689A6401237B6101E000237B614FF025
:104B1000000080F311887B6918461837BD4680BDB8
:104B200080B588B000AFF860B9607A603B60002360
:104B3000FB61FB68002B04D14FF0500080F311881B
:104B4000FEE7BB68002B03D1FB681B6C002B01D177
:104B5000012300E00023002B04D14FF0500080F32C
:104B60001188FEE7FFF792FDFB689B6B002B3BD0A3
:104B7000FB68DB68BB61F868B96800F015F93B6851
:104B8000002B1CD1FB689B6B5A1EFB689A63FB6869
:104B90001B68002B04D1FDF7FDFD0246FB685A603F
:104BA000FB681B69002B1BD0FB6810331846FDF710
:104BB000E5FB0346012B13D1FFF75CFD10E0FB681A
:104BC000BA69DA60FB685B6A002B09D0FB682433A2
:104BD0001846FDF7D3FB0346002B01D0FFF74AFD33
:104BE000FFF766FD012366E07B68002B03D1FFF72A
:104BF0005FFD00235FE0FB69002B06D107F1100386
:104C00001846FDF713FC0123FB61FFF751FDFDF78B
:104C1000D3F9FFF73BFDFB685B6CB3F1FF3F02D1BB
:104C2000FB6800225A64FB689B6CB3F1FF3F02D122
:104C3000FB6800229A64FFF73BFD07F110023B1D61
:104C400010461946FDF710FC0346002B2BD1F868DF
:104C500000F01CF90346002B1FD0FB681B68002BDB
:104C600008D1FFF713FDFB685B681846FDF7A2FD4E
:104C7000FFF71EFDFB6803F124027B68104619460E
:104C8000FDF744FBF86800F0B5F8FDF7A3F903461B
:104C9000002B0FD1FFF7EEFC0CE0F86800F0AAF84B
:104CA000FDF798F95EE7F86800F0A4F8FDF792F9CF
:104CB000002300E056E718462037BD4680BD00BF00
:104CC00080B584B000AF78607B68002B04D14FF0D2
:104CD000500080F31188FEE7FFF7D8FC7B689B6BE0
:104CE000FB60FFF7E5FCFB6818461037BD4680BD4A
:104CF00080B584B000AFF860B9607A60FB681B6C67
:104D0000002B0CD1FB681B68002B45D1FB685B684E
:104D10001846FDF7A9FDFB6800225A603CE07B685D
:104D2000002B1AD1FB689A68FB681B6C1046B968A7
:104D30001A4601F005FBFB689A68FB681B6C1A4475
:104D4000FB689A60FB689A68FB685B689A4223D3A9
:104D5000FB681A68FB689A601EE0FB68DA68FB680B
:104D60001B6C1046B9681A4601F0EAFAFB68DA686B
:104D7000FB681B6C5B421A44FB68DA60FB68DA680C
:104D8000FB681B689A4207D2FB685A68FB681B6C79
:104D90005B421A44FB68DA60FB689B6B5A1CFB6839
:104DA0009A631037BD4680BD80B582B000AF786091
:104DB00039607B681B68002B19D07B68DA687B68D8
:104DC0001B6C1A447B68DA607B68DA687B685B6816
:104DD0009A4203D37B681A687B68DA607B68DA687A
:104DE0007B681B6C386811461A4601F0A9FA08372F
:104DF000BD4680BD80B582B000AF7860FFF746FC4D
:104E000014E07B685B6A002B0FD07B682433184664
:104E1000FDF7B4FA0346002B01D0FDF779FB7B6860
:104E20009B6C5A1E7B689A6400E003E07B689B6C75
:104E3000002BE6DC7B684FF0FF329A64FFF738FC0A
:104E4000FFF724FC14E07B681B69002B0FD07B6804
:104E500010331846FDF792FA0346002B01D0FDF7F8
:104E600057FB7B685B6C5A1E7B685A6400E003E06A
:104E70007B685B6C002BE6DC7B684FF0FF325A648A
:104E8000FFF716FC0837BD4680BD00BF80B584B073
:104E900000AF7860FFF7FAFB7B689B6B002B0CBFC1
:104EA00001230023DBB2FB60FFF702FCFB6818461E
:104EB0001037BD4680BD00BF80B584B000AF7860BC
:104EC000FFF7E4FB7B689A6B7B68DB6B9A420CBF55
:104ED00001230023DBB2FB60FFF7EAFBFB68184607
:104EE0001037BD4680BD00BF80B485B000AF78608C
:104EF00039600023FB817B681B88FB81FB8903F4FD
:104F00004153FB813B681A883B685B8813439AB224
:104F10003B689B8813439AB23B68DB8813439AB281
:104F20003B681B8913439AB23B685B8913439AB26F
:104F30003B689B8913439AB23B68DB8913439AB25F
:104F4000FB891343FB817B68FA891A807B689B8B02
:104F50009BB223F400639AB27B689A833B681A8AF7
:104F60007B681A821437BD465DF8047B704700BF2A
:104F700080B483B000AF78600B46FB70FB78002BE9
:104F800008D07B681B889BB243F040039AB27B68D1
:104F90001A8007E07B681B889BB223F040039AB21B
:104FA0007B681A800C37BD465DF8047B704700BFF4
:104FB00080B483B000AF78600B46FB70FB78002BA9
:104FC00008D07B681B889BB243F400539AB27B687D
:104FD0001A8007E07B681B889BB223F400539AB2C7
:104FE0007B681A800C37BD465DF8047B704700BFB4
:104FF00080B485B000AF78600023FB60344BFB6069
:105000007B689B79002B4FD03149314B1A687B6804
:105010001B68DB4313400B602D492D4B5A687B689E
:105020001B68DB4313404B607B681B791A46FB68A7
:105030001344FB60FB68FA6811687A6812680A43D7
:105040001A602349224B9A687B681B68DB43134034
:105050008B601F491E4BDA687B681B68DB4313407B
:10506000CB607B685B79102B0ED11949184B9A687D
:105070007B681B6813438B601549154BDA687B68A6
:105080001B681343CB601DE0114BFB607B685B79B1
:105090001A46FB681344FB60FB68FA6811687A687B
:1050A00012680A431A600DE07B681B791A46FB6898
:1050B0001344FB60FB68FA6811687A681268D2438F
:1050C0000A401A601437BD465DF8047B704700BF84
:1050D000003C014080B485B000AF78600023FB73D2
:1050E0000023BB600C4B1A687B681340BB600A4B03
:1050F0005A697B681340002B05D0BB68002B02D097
:105100000123FB7301E00023FB73FB7B184614377C
:10511000BD465DF8047B7047003C014080B483B01D
:1051200000AF7860034A7B6853610C37BD465DF879
:10513000047B7047003C014080B584B004AF00F0B0
:1051400025F800F08DF8012300930023019300233C
:105150000293002303930948094980220023FCF7A6
:1051600001FE084B01221A710120FFF797FB02464E
:10517000054B1A6000231846BD4680BD5D530008EC
:1051800048660008A41E0020301F002080B588B0AB
:1051900000AF02200121FCF7A1FB4FF48050012158
:1051A000FCF7D8FB3823BB6102237B7702233B77D4
:1051B0000023BB770023FB7707F118032648194625
:1051C000FEF7BCFF4023BB6101233B770023BB7785
:1051D0000023FB7702237B7707F118031E4819464B
:1051E000FEF7ACFF1C4803210522FFF74FF81A48D1
:1051F00004210522FFF74AF8174805210522FFF789
:1052000045F80023BB804FF48273FB804FF40063AA
:105210003B8100237B810023BB814FF40073FB8122
:1052200020233B8200237B823B1D0C481946FFF75D
:105230005BFE0A480021FFF7BBFE08480121FFF78B
:1052400097FE054A044B5B8B9BB243F040039BB235
:1052500053832037BD4680BD00040240003001402A
:1052600080B588B000AF06200121FCF737FB4FF472
:1052700080400121FCF750FB4FF42043BB61022327
:105280007B7702233B770023BB770023FB7707F173
:1052900018032F481946FEF751FF4FF48043BB61B6
:1052A00002237B7702233B770023BB770023FB7726
:1052B00007F1180326481946FEF740FF4023BB615B
:1052C00001233B770023BB770023FB7702237B7707
:1052D00007F118031F481946FEF730FF1C480D213F
:1052E0000522FEF7D3FF1A480E210522FEF7CEFF56
:1052F00017480F210522FEF7C9FF0023BB804FF49A
:105300008273FB804FF400633B8100237B81002389
:10531000BB814FF40073FB8120233B8200237B82FF
:105320003B1D0D481946FFF7DFFD0B480021FFF735
:105330003FFE09480121FFF71BFE064A054B5B8B28
:105340009BB243F040039BB253832037BD4680BDE0
:1053500000040240000802400038004080B584B0DC
:1053600000AF78600023FB73614B00221A71FCF7D9
:10537000D7F9604B1B68184600214FF0FF3200231D
:10538000FFF7CEFB0346012B40F0A8800023FB7300
:1053900098E0594A584B5B8B9BB243F040039BB259
:1053A0005383564A554B5B8B9BB243F040039BB2F1
:1053B0005383FB7B042B3ED9514B93F850301A4654
:1053C000FB7B053B42FA03F303F00103002B0AD0F9
:1053D0004C4AFB7B4A495B000B445B8823F0FF038C
:1053E0009BB2938106E0474AFB7B45495B000B4437
:1053F0005B889381424B93F866301A46FB7B053BF2
:1054000042FA03F303F00103002B0BD03E4AFB7B6F
:105410003B490F335B000B445B8823F0FF039BB2D7
:10542000938117E0384AFB7B35490F335B000B440F
:105430005B88938111E0334AFB7B31495B000B446D
:105440005B889381304AFB7B2D490F335B000B4413
:105450005B88938101E0FFF70DF92A4B1B899BB212
:1054600003F08003002BF6D1274B1B899BB203F07E
:105470008003002BEFD1FFF7FDF81F4A1E4B1B8B5B
:105480009BB243F040039BB213831C4A1B4B1B8B04
:105490009BB243F040039BB21383FFF7EBF8164A2D
:1054A000154B5B8B9BB243F040039BB25383134A73
:1054B000124B5B8B9BB243F040039BB25383FB7B4D
:1054C0000133FB73FB7B0C2B7FF663AF094B1B682F
:1054D0001846002100220023FFF726FA044B1B6820
:1054E0000133034A13606420FCF70AFD3FE700BF65
:1054F000A41E0020301F00200004024000080240CB
:105500003C1E0020003001400038004080B483B0D1
:1055100000AF7860054A7B6843F0BF6343F4003313
:10552000D3600C37BD465DF8047B704700ED00E0AA
:1055300080B485B000AF78600023FB730023BB7399
:105540000F237B737B68DB78002B38D0264BDB681E
:10555000DB4303F4E0631B0AFB73FB7BC3F104032F
:10556000BB737A7BFB7B42FA03F37B737B685B78CC
:105570001A46BB7B02FA03F3FB737B689A787B7B4A
:105580001340DAB2FB7B1343FB73FB7B1B01FB7302
:10559000164A7B681B781344FA7B83F80023134A6E
:1055A0007B681B785B09DBB218467B681B7803F0CD
:1055B0001F03012101FA03F342F820300FE00B49E9
:1055C0007B681B785B09DBB218467B681B7803F0AD
:1055D0001F0301229A4000F1200341F823201437D1
:1055E000BD465DF8047B704700ED00E000E100E09F
:1055F00080B584B000AF78600023FB607B6803F067
:105600000703002B04D07B6823F0070308337B607B
:10561000FCF7D2FC124B1A687B681344B3F5E05FC9
:1056200012D20F4B1A687B681A440D4B1B689A42C2
:105630000AD90B4B1B680B4A1344FB60084B1A68D2
:105640007B681344064A1360FCF7C4FCFB68002B1C
:1056500001D1FCF739F9FB6818461037BD4680BD0B
:10566000101E00201002002080B483B000AF7860CC
:105670000C37BD465DF8047B704700BF80B485B031
:1056800000AF786039600023FB817B681B88FB8159
:105690007B68284A934213D07B68274A93420FD0F5
:1056A0007B68B3F1804F0BD07B68244A934207D0CC
:1056B0007B68234A934203D07B68224A934208D1F5
:1056C000FB8923F07003FB813B685A88FB891343F5
:1056D000FB817B681C4A93420CD07B681B4A934237
:1056E00008D0FB8923F44073FB813B681A89FB894E
:1056F0001343FB817B68FA891A803B685A687B6890
:10570000DA623B681A887B681A857B68094A93428B
:1057100003D07B68084A934204D13B689B7A9AB2D3
:105720007B681A867B6801229A821437BD465DF831
:10573000047B704700000140000401400004004069
:1057400000080040000C0040001000400014004021
:1057500080B483B000AF78607B684FF0FF325A604E
:105760007B6800221A807B6800221A817B680022F5
:105770005A807B6800229A720C37BD465DF8047B24
:10578000704700BF80B483B000AF78600B46FB70F9
:10579000FB78002B08D07B681B889BB243F0010389
:1057A0009AB27B681A8007E07B681B889BB223F063
:1057B00001039AB27B681A800C37BD465DF8047B02
:1057C000704700BF80B582B000AF786039603B6839
:1057D0001B88002B0FD13B6859883B689A883B682F
:1057E0001B89786800F026F93B68DB8878681946E1
:1057F00000F03CF836E03B681B88042B0FD13B6877
:1058000059883B689A883B681B89786800F054F98E
:105810003B68DB887868194600F044F822E03B6872
:105820001B88082B0FD13B6859883B689A883B68D6
:105830001B89786800F08CF93B68DB88786819462A
:1058400000F04EF80EE03B6859883B689A883B6848
:105850001B89786800F0C4F93B68DB8878681946D2
:1058600000F05AF80837BD4680BD00BF80B483B051
:1058700000AF78600B467B807B681B8B9BB223F06C
:105880000C039AB27B681A837B681B8B9AB27B8865
:1058900013439AB27B681A830C37BD465DF8047BCC
:1058A000704700BF80B483B000AF78600B467B8048
:1058B0007B681B8B9BB223F440639AB27B681A838C
:1058C0007B681B8B9AB27B881B029BB213439AB2F4
:1058D0007B681A830C37BD465DF8047B704700BFB8
:1058E00080B483B000AF78600B467B807B689B8B75
:1058F0009BB223F00C039AB27B689A837B689B8BE4
:105900009AB27B8813439AB27B689A830C37BD4660
:105910005DF8047B704700BF80B483B000AF78604F
:105920000B467B807B689B8B9BB223F440639AB2CF
:105930007B689A837B689B8B9AB27B881B029BB2A5
:1059400013439AB27B689A830C37BD465DF8047B9B
:10595000704700BF80B483B000AF78600B467B8097
:1059600013467B707B78002B08D07B689B899AB2AA
:105970007B8813439AB27B689A8109E07B689B8994
:105980009AB27B88DB439BB213409AB27B689A81C0
:105990000C37BD465DF8047B704700BF80B487B00C
:1059A00000AFF860084611461A4603467B810B4655
:1059B0003B811346FB800023FB820023BB82002334
:1059C0007B82FB681B89FB82FB681B8BBB82FB68AD
:1059D0001B8C7B82FB8A23F00703FB82FA8A7B897C
:1059E0001343FB82BB8A23F4407323F00303BB827F
:1059F000BB8A43F4807343F00103BB827B8A23F0AC
:105A000022037B82FB881B019AB23B8913439AB223
:105A10007B8A13437B82FB68FA8A1A81FB68BA8A05
:105A20001A83FB687A8A1A841C37BD465DF8047BAA
:105A3000704700BF80B487B000AFF86008461146D9
:105A40001A4603467B810B463B811346FB800023AD
:105A5000FB820023BB82FB681B8C9BB223F00103FB
:105A60009AB2FB681A84FB681B8BFB82FB681B8C59
:105A7000BB82FB8A23F0F303FB82FB881B019AB2F3
:105A80003B8913439AB2FB8A1343FB82BB8A23F000
:105A90000A03BB827A89BB8A13439BB243F001039A
:105AA000BB82FB68FA8A1A83FB68BA8A1A841C379D
:105AB000BD465DF8047B704780B487B000AFF860E6
:105AC000084611461A4603467B810B463B81134626
:105AD000FB800023FB820023BB8200237B82FB68C8
