:020000040800F2
:10000000FC1E0020A91000081111000811110008A1
:100010001111000811110008111100080000000062
:100020000000000000000000000000006D4A000811
:100030001111000800000000894B0008D94B00088E
:10004000111100082D5900081111000811110008A4
:100050001111000811110008410E000811110008CB
:1000600011110008111100081111000811110008E8
:1000700011110008111100081111000811110008D8
:1000800011110008111100081111000811110008C8
:10009000111100081111000811110008650E000867
:1000A00011110008F11600081111000811110008C3
:1000B0001111000811110008111100081111000898
:1000C0001111000811110008111100081111000888
:1000D0001111000811110008111100081111000878
:1000E0001111000811110008111100081111000868
:1000F0001111000811110008111100081111000858
:100100001111000811110008111100081111000847
:100110001111000811110008111100081111000837
:100120001111000811110008111100081111000827
:100130001111000811110008111100081111000817
:100140001111000811110008111100081111000807
:1001500011110008111100081111000811110008F7
:1001600011110008111100081111000811110008E7
:1001700011110008111100081111000811110008D7
:10018000111100081111000890B484B000AF0246AC
:100190000B46FA71BB714FF00003FB60BB7903F0B3
:1001A00003034FEA83034FF00F0202FA03F3FB60ED
:1001B0004FF46053C4F20103BA794FEA9202D2B20B
:1001C00010464FF46052C4F20102B9794FEA91012E
:1001D000C9B201F1020152F821201146FA686FEA12
:1001E0000202114000F1020243F822104FF4605362
:1001F000C4F20103BA794FEA9202D2B210464FF428
:100200006052C4F20102B9794FEA9101C9B201F119
:10021000020152F821201146FC79BA7902F003025A
:100220004FEA820204FA02F2114300F1020243F89B
:10023000221007F11007BD4690BC7047F0B587B09B
:1002400000AF03463960FB714FF00003FB754FF0C0
:100250000003BB754FF000037B754FF000033B7547
:10026000FB794FF0160202FB03F2054BD3183B61FA
:100270003B691B88022B05D94FF00003A2E300BFA6
:1002800048160020386805F08FFC03463B7541F2A4
:10029000F863C2F200031B6818464FF000014FF0EC
:1002A000FF324FF0000304F0A9F90346012B40F0A0
:1002B00088833B695B8819463B691B883A69D0890A
:1002C00041F20C62C2F200024FF01A0404FB03F484
:1002D0000B464FEA03135B1A4FEA4303E318D318A4
:1002E00003F1020302461A803B695B8819463B69A9
:1002F0001B883A69108A41F20C62C2F200024FF088
:100300001A0404FB03F40B464FEA03135B1A4FEA8B
:100310004303E318D31803F1040302461A803B6930
:100320005B8819463B691B883A69908941F20C62E7
:10033000C2F200024FF01A0404FB03F40B464FEA2A
:1003400003135B1A4FEA4303E318D31803F10603C0
:1003500002461A803B695B8819463B691B883A69EB
:10036000108941F20C62C2F200024FF01A0404FB41
:1003700003F40B464FEA03135B1A4FEA4303E318F7
:10038000D31803F1080302461A803B695B881946BB
:100390003B691B883A69508941F20C62C2F2000243
:1003A0004FF01A0404FB03F40B464FEA03135B1AE5
:1003B0004FEA4303E318D31803F10A0302461A80F5
:1003C0003B695B8819463B691B8841F20C62C2F2AB
:1003D00000024FF01A0000FB03F00B464FEA031334
:1003E0005B1A4FEA4303C318D31803F10C034FF40D
:1003F00080721A803B695B8819463B691B8841F211
:100400000C62C2F200024FF01A0000FB03F00B4630
:100410004FEA03135B1A4FEA4303C318D31803F1DF
:100420000E034FF400721A803B695B8819463B69E2
:100430001B8841F20C62C2F200024FF01A0000FB6E
:1004400003F00B464FEA03135B1A4FEA4303C3184A
:10045000D31803F110034FF440721A803B695B8894
:1004600019463B691B8841F20C62C2F200024FF050
:100470001A0000FB03F00B464FEA03135B1A4FEA26
:100480004303C318D31803F112034FF480621A8098
:100490003B695B8819463B691B8841F20C62C2F2DA
:1004A00000024FF01A0000FB03F00B464FEA031363
:1004B0005B1A4FEA4303C318D31803F114034FF434
:1004C000A0621A803B695B8819463B691B8841F230
:1004D0000C62C2F200024FF01A0000FB03F00B4660
:1004E0004FEA03135B1A4FEA4303C318D31803F10F
:1004F00016034FF4C0621A803B695B8819463B695A
:100500001B8841F20C62C2F200024FF01A0000FB9D
:1005100003F00B464FEA03135B1A4FEA4303C31879
:10052000D31803F118034FF4E0621A803B695B882B
:1005300019463B691B8841F20C62C2F200024FF07F
:100540001A0000FB03F00B464FEA03135B1A4FEA55
:100550004303C318D31803F11A034FF400621A803F
:100560007B7D03F105037B7597F914300A2B02DDBF
:100570004FF00A033B754FF00003FB750AE297F951
:1005800017303A68D3181B782F2B65D997F9173095
:100590003A68D3181B78392B5ED897F917303A6828
:1005A000D3181B78A3F1300245F68443C0F600034C
:1005B0009B18DB7FFB733B695B881C463B691B8890
:1005C00018467E7D3B695B881D463B691B881A4641
:1005D00097F815E041F20C61C2F2000113464FEAB0
:1005E00043039B184FEA83039B182A464FEA0212E3
:1005F000521B9B1873444FEA4303CB185B889AB293
:10060000FB7B99B27B7DA3F104039BB24FEA0323EA
:100610009BB29BB241EA03039BB242EA03039BB243
:100620009DB241F20C61C2F2000103464FEA43035E
:100630001B184FEA83031B1822464FEA0212121BB3
:100640009B189B194FEA4303CB182A465A807B7D9F
:1006500003F101037B7599E197F917303A68D318D4
:100660001B782E2B40F0178197F9172097F914303B
:1006700003F1FF339A4280F2CD8097F9173003F1EE
:1006800001033A68D3181B782E2B40F082803B6917
:100690005B881C463B691B8818467E7D3B695B88EE
:1006A0001D463B691B881A4697F815E041F20C611C
:1006B000C2F2000113464FEA43039B184FEA83033B
:1006C0009B182A464FEA0212521B9B1873444FEAAA
:1006D0004303CB185B8843F080039DB241F20C6169
:1006E000C2F2000103464FEA43031B184FEA83039B
:1006F0001B1822464FEA0212121B9B189B194FEA45
:100700004303CB182A465A803B695B881C463B69E9
:100710001B8818467B7D03F1FF363B695B881D46CD
:100720003B691B881A467B7D03F1FF3E41F20C6159
:10073000C2F2000113464FEA43039B184FEA8303BA
:100740009B182A464FEA0212521B9B1873444FEA29
:100750004303CB185B8843F080039DB241F20C61E8
:10076000C2F2000103464FEA43031B184FEA83031A
:100770001B1822464FEA0212121B9B189B194FEAC4
:100780004303CB182A465A807B7D03F101037B7516
:10079000FCE03B695B881C463B691B8818467B7DF7
:1007A00003F1FF363B695B881D463B691B881A468F
:1007B0007B7D03F1FF3E41F20C61C2F20001134662
:1007C0004FEA43039B184FEA83039B182A464FEADC
:1007D0000212521B9B1873444FEA4303CB185B88E9
:1007E00043F080039DB241F20C61C2F20001034666
:1007F0004FEA43031B184FEA83031B1822464FEAB4
:100800000212121B9B189B194FEA4303CB182A466E
:100810005A80BBE03B695B881C463B691B881846D5
:100820007B7D03F1FF363B695B881D463B691B8876
:100830001A467B7D03F1FF3E41F20C61C2F20001DA
:1008400013464FEA43039B184FEA83039B182A463B
:100850004FEA0212521B9B1873444FEA4303CB1812
:100860005B8843F080039DB241F20C61C2F200014B
:1008700003464FEA43031B184FEA83031B18224623
:100880004FEA0212121B9B189B194FEA4303CB1825
:100890002A465A807AE04FF00A03BB756BE097F95D
:1008A00017303A68D3181A7897F9161045F684432A
:1008B000C0F600035B5C9A4259D197F9162045F6C1
:1008C0008443C0F600039B18DB7FBB733B695B88E6
:1008D0001C463B691B8818467E7D3B695B881D462C
:1008E0003B691B881A4697F815E041F20C61C2F289
:1008F000000113464FEA43039B184FEA83039B18FA
:100900002A464FEA0212521B9B1873444FEA4303D4
:10091000CB185B889AB2BB7B99B27B7DA3F10403B1
:100920009BB24FEA03239BB29BB241EA03039BB203
:1009300042EA03039BB29DB241F20C61C2F2000194
:1009400003464FEA43031B184FEA83031B18224652
:100950004FEA0212121B9B189B194FEA4303CB1854
:100960002A465A807B7D03F101037B7507E0BB7D3E
:1009700003F10103BB7597F916301E2B8FDD7A7DCD
:100980003B69DB8803F105039A420BDCFB7D03F135
:100990000103FB7597F9172097F914309A42FFF677
:1009A000EEAD00E000BF41F2F863C2F200031B6845
:1009B00018464FF000014FF000024FF0000303F023
:1009C00071FD7B7D184607F11C07BD46F0BD00BFD9
:1009D00080B586B004AF4FF002004FF0010100F087
:1009E00009FD4FF004033B604FF000037B714FF0B3
:1009F00001033B714FF00003BB714FF00003FB712B
:100A00003B464FF48060C4F20200194603F092F9AD
:100A10004FF48063C4F202034FF004025A8345F698
:100A2000C443C0F600034FF00102009241F2F452B9
:100A3000C2F2000201924FF0000202924FF0000257
:100A4000039240F68120C0F6000019464FF04002A4
:100A50004FF0000300F048FF41F2F453C2F20003EC
:100A60001B68184601F05EF841F27463C2F200039D
:100A70004FF0010283F82C2007F10807BD4680BD26
:100A800080B582B000AF786041F2F053C2F200034B
:100A90001B78012B40F0CC8041F2F053C2F20003EE
:100AA0005B78042B00F2C08001A252F823F000BF53
:100AB000C50A0008F90A0008590B0008E50B0008F0
:100AC000F50B00084FF48063C4F202034FF00402F8
:100AD0001A834FF0C80000F0F7FF4FF48063C4F2B0
:100AE00002034FF004025A8341F2F053C2F20003B2
:100AF0004FF000021A709BE04FF48063C4F20203CF
:100B00004FF004021A834FF0640000F0DDFF4FF451
:100B10008063C4F202034FF004025A834FF0640072
:100B200000F0D2FF4FF48063C4F202034FF00402DE
:100B30001A834FF0640000F0C7FF4FF48063C4F2E3
:100B400002034FF004025A8341F2F053C2F2000351
:100B50004FF000021A706BE04FF48063C4F202039E
:100B60004FF004021A834FF0320000F0ADFF4FF453
:100B70008063C4F202034FF004025A834FF0320044
:100B800000F0A2FF4FF48063C4F202034FF00402AE
:100B90001A834FF0320000F097FF4FF48063C4F2E5
:100BA00002034FF004025A834FF0320000F08CFF32
:100BB0004FF48063C4F202034FF004021A834FF033
:100BC000320000F081FF4FF48063C4F202034FF063
:100BD00004025A8341F2F053C2F200034FF00002C4
:100BE0001A7025E04FF48063C4F202034FF0040250
:100BF0001A831DE04FF48063C4F202034FF0040235
:100C00001A834FF47A7000F05FFF4FF48063C4F2F0
:100C100002034FF004025A8341F2F053C2F2000380
:100C20004FF000021A7003E04FF4FA7000F04CFF2E
:100C300041F27463C2F200039B6A03F1010241F2C4
:100C40007463C2F200039A6241F2F453C2F20003E9
:100C50001B68184600F066FF41F27463C2F200039D
:100C60004FF0010283F82C200EE700BF80B582B060
:100C700000AF02460B46FA71BB71BB7903F001036A
:100C8000DBB2002B1ED041F2F053C2F200031B78FE
:100C9000002B0ED141F2F453C2F200031B68184638
:100CA00000F0D0FF41F2F053C2F200034FF0010216
:100CB0001A7041F27463C2F200034FF0000283F82D
:100CC0002C2024E041F2F053C2F200031B78012BE8
:100CD0000ED141F2F453C2F200031B68184600F033
:100CE00021FF41F2F053C2F200034FF000021A70EC
:100CF00041F27463C2F200034FF0010283F82C202A
:100D00004FF48063C4F202034FF004025A83FB796C
:100D100003F00703DAB241F2F053C2F200035A7053
:100D200007F10807BD4680BD80B586B000AF4FF023
:100D300001004FF0010100F05DFB4FF480404FF0E7
:100D4000010100F0B3FB4FF0C1033B614FF0000322
:100D50003B754FF00103FB7507F110034FF00000E6
:100D6000C4F20200194602F0E5FF4FF000004FF018
:100D70000001FFF709FA4FF00103BB604FF00003D9
:100D80003B734FF00C037B734FF00103BB7307F110
:100D90000803184603F0E6FF4FF000004FF006018D
:100DA000FFF7F2F94FF04003BB604FF000033B73D5
:100DB0004FF00C037B734FF00103BB7307F1080383
:100DC000184603F0CFFF4FF000004FF00701FFF788
:100DD000DBF94FF08003BB604FF000033B734FF033
:100DE0000C037B734FF00103BB7307F10803184634
:100DF00003F0B8FF4FF006033B714FF001037B7126
:100E00004FF00103BB714FF00103FB7107F10403C5
:100E1000184604F075FB4FF017033B714FF00103C8
:100E20007B714FF00103BB714FF00103FB7107F1C0
:100E30000403184604F064FB07F11807BD4680BDA3
:100E400080B500AF4FF0010004F038F80346002BE6
:100E500007D04FF0010004F061F84FF0040000F0FB
:100E600003F980BD80B500AF4FF0400004F026F8D4
:100E70000346002B07D04FF0400004F04FF84FF02E
:100E8000020000F0F1F84FF0800004F017F803467C
:100E9000002B07D04FF0800004F040F84FF0030023
:100EA00000F0E2F880BD00BF80B483B000AF03461D
:100EB000FB714FF02003C4F20E23FA791A6007F198
:100EC0000C07BD4680BC704780B483B000AF0346BA
:100ED000FB714FF0A403C4F20E23FA791A6007F1F4
:100EE0000C07BD4680BC704780B582B000AF4FF0A4
:100EF00005004FF0010100F07DFA4FF00F033B6059
:100F00004FF000037B714FF001033B714FF0010381
:100F1000BB714FF00003FB713B464FF40060C4F21D
:100F20000200194602F006FF4FF001033B604FF04C
:100F300000037B714FF000033B714FF00103FB7125
:100F40003B464FF00000C4F20200194602F0F2FEE8
:100F50004FF40063C4F202034FF00F025A8341F2D0
:100F6000F853C2F200034FF48042C4F202021A6046
:100F700041F2F853C2F200034FF000021A7441F23A
:100F8000F853C2F200034FF000029A7441F2F85392
:100F9000C2F200034FF000025A7441F2F853C2F259
:100FA00000031B681A6A41F2F853C2F200035A6048
:100FB00007F10807BD4680BD80B483B000AF03468B
:100FC000FB71FB79002B02D0012B0AD013E04FF408
:100FD0000063C4F202034FF008025A834FF000038B
:100FE0000BE04FF40063C4F202034FF008021A83CF
:100FF0004FF0000301E04FF00203184607F10C0721
:10100000BD4680BC704700BF80B483B000AF0346CC
:10101000FB71FB79002B02D0012B0FD01DE04FF4A8
:101020000063C4F202034FF001021A834FF400631D
:10103000C4F202034FF002025A830EE04FF4006341
:10104000C4F202034FF001025A834FF40063C4F26A
:1010500002034FF002021A8300BF184607F10C0783
:10106000BD4680BC704700BF80B483B000AF03466C
:10107000FB714FF40063C4F202034FF00B025A837A
:1010800041F2F853C2F20003FA799A7441F2F8532C
:10109000C2F200034FF000021A74184607F10C0761
:1010A000BD4680BC704700BF80B582B000AF45F63A
:1010B0001C53C0F600037B6040F20003C2F2000341
:1010C0003B600BE07B681A683B681A603B6803F181
:1010D00004033B607B6803F104037B603A6840F2E1
:1010E000C803C2F200039A42ECD3074807494FF005
:1010F00000028842B8BF40F8042BFADB00F058F930
:1011000007F10807BD4680BDC8000020FC1600207E
:1011100080B400AFFEE700BF80B500AF4FF4802081
:101120004FF0010100F066F94FF080504FF00101DF
:1011300000F08EF980BD00BF80B586B000AFF860CA
:10114000B9601346FB714FF00003FB754FF00100CF
:10115000FFF7AAFE4FF00100FFF7B6FE4FF00003C5
:10116000FB750BE0FA68FB7DD318B968FA7D8A1825
:1011700012781A70FB7D03F10103FB75FA7DFB7990
:101180009A42EFD34FF00000FFF78EFE07F11807E9
:10119000BD4680BD80B483B000AF4FF00003FB714B
:1011A0004FF00003BB7140F2C803C2F200031B788A
:1011B00003F10103DAB240F2C803C2F200031A706D
:1011C00040F2C803C2F200031B78022B1AD84FF07A
:1011D0000003FB7112E0FA7941F20C63C2F20003E2
:1011E0004FF0160101FB02F29B1803F148034FF088
:1011F00000021A72FB7903F10103FB71FB79012BE9
:10120000E9D9A6E040F2C803C2F200031B78052B1F
:1012100006D940F2C803C2F200034FF000021A7070
:1012200040F2C803C2F200031B78032B40F0908009
:101230004FF00003FB7186E0FA7941F20C63C2F2D1
:1012400000034FF0160101FB02F29B1803F1480363
:10125000DB79002B0ED0FA7941F20C63C2F2000365
:101260004FF0160101FB02F29B1803F148035B7A71
:10127000002B1ED1FA7941F20C63C2F200034FF049
:10128000160101FB02F29B1803F148034FF0000224
:101290005A72FA7941F20C63C2F200034FF0160160
:1012A00001FB02F29B1803F148034FF000021A728F
:1012B00045E0FA7941F20C63C2F200034FF01601E7
:1012C00001FB02F29B1803F148035B7AFF2B1CD051
:1012D000FA7941F20C63C2F200034FF0160101FBF0
:1012E00002F15B1803F148035B7A03F1FF33D9B2D3
:1012F00041F20C63C2F200034FF0160000FB02F251
:101300009B1803F148030A465A72F979FA7941F2B7
:101310000C63C2F200034FF0160000FB02F29B18B0
:1013200003F14803DA7941F20C63C2F200034FF093
:10133000160000FB01F15B1803F148031A72FB79F8
:1013400003F10103FB71FB79012B7FF675AF00E020
:1013500000BF07F10C07BD4680BC704780B483B066
:1013600000AF13460246FA710A46BA717B71FA79E8
:1013700041F20C63C2F200034FF0160101FB02F2CE
:101380009B1803F14803BA79DA71FA7941F20C63D8
:10139000C2F200034FF0160101FB02F29B1803F1A9
:1013A00048037A795A7207F10C07BD4680BC704732
:1013B00080B500AF02F084FEFFF7AEFEFFF794FDAC
:1013C00000F0F8F9FFF7B0FC00F088F901F0D6FA68
:1013D000FFF7FEFA01F032FE00F092FCFEE700BFDC
:1013E00080B400AFFEE700BF80B483B000AF786088
:1013F0003960FEE780B483B000AF78600B46FB70C5
:10140000FB78002B0ED04FF46053C4F202034FF46C
:101410006052C4F20202126B11467A6841EA02027B
:101420001A630FE04FF46053C4F202034FF46052AA
:10143000C4F20202126B11467A686FEA020201EAF4
:1014400002021A6307F10C07BD4680BC704700BF5B
:1014500080B483B000AF78600B46FB70FB78002B44
:101460000ED04FF46053C4F202034FF46052C4F242
:101470000202126C11467A6841EA02021A640FE015
:101480004FF46053C4F202034FF46052C4F20202FC
:10149000126C11467A686FEA020201EA02021A64CB
:1014A00007F10C07BD4680BC704700BF80B483B015
:1014B00000AF78600B46FB70FB78002B0ED04FF42A
:1014C0006053C4F202034FF46052C4F20202526C41
:1014D00011467A6841EA02025A640FE04FF4605301
:1014E000C4F202034FF46052C4F20202526C11467D
:1014F0007A686FEA020201EA02025A6407F10C07F5
:10150000BD4680BC704700BF80B400AF41F20C63A1
:10151000C2F200034FF002021A7041F20C63C2F2F1
:1015200000034FF00002DA8741F20C63C2F20003BD
:101530004FF000029A8741F20C63C2F200034FF0B1
:101540000102A3F8402041F20C63C2F200034FF005
:101550000502A3F8422041F20C63C2F2000340F6F8
:101560000922A3F8442041F20C63C2F200034FF4B5
:101570001062A3F8462041F20C63C2F20003B3F8F4
:10158000423003F1FF339BB29BB243F430639BB212
:101590009AB241F20C63C2F20003A3F8482041F270
:1015A0000C63C2F2000340F60142A3F84A2041F264
:1015B0000C63C2F200034FF47062A3F84C2041F2B6
:1015C0000C63C2F200034FF0000283F84F2041F297
:1015D0000C63C2F2000393F84F2041F20C63C2F295
:1015E000000383F8502041F20C63C2F200034FF075
:1015F000000283F8512041F20C63C2F200034FF065
:101600000102A3F8542041F20C63C2F200034FF030
:101610000002A3F8522041F20C63C2F200034FF023
:101620000102A3F8562041F20C63C2F200034FF00E
:101630000502A3F8582041F20C63C2F2000340F601
:101640000922A3F85A2041F20C63C2F200034FF4BE
:101650001062A3F85C2041F20C63C2F20003B3F8FD
:10166000583003F1FF339BB29BB243F430639BB21B
:101670009AB241F20C63C2F20003A3F85E2041F279
:101680000C63C2F2000340F60142A3F8602041F26D
:101690000C63C2F200034FF47062A3F8622041F2BF
:1016A0000C63C2F200034FF0000283F8652041F2A0
:1016B0000C63C2F2000393F8652041F20C63C2F29E
:1016C000000383F8662041F20C63C2F200034FF07E
:1016D000000283F86720BD4680BC704780B500AF2C
:1016E000FFF712FF03F02AFC4FF00003184680BDFD
:1016F00080B500AF4FF00003C4F201034FF6FE7255
:101700001A824FF00003C4F201031B889BB203F05E
:101710001003002B0CD041F2F853C2F200035B68B7
:1017200003F1FF3241F2F853C2F200035A600BE0BA
:1017300041F2F853C2F200035B6803F1010241F287
:10174000F853C2F200035A6041F2F853C2F20003A8
:101750005B7C002B2DD141F2F853C2F200039B7C3D
:10176000002B26D141F2F853C2F200031B7C002B60
:101770001FD041F2F853C2F200035A6841F2F85305
:10178000C2F20003DB689A4203D14FF00000FFF77A
:1017900013FC41F2F853C2F200035A6841F2F853C5
:1017A000C2F200039B689A4203D14FF00500FFF795
:1017B0005BFC80BD80B586B000AF4FF001004FF0FC
:1017C0000101FFF717FE4FF001004FF00101FFF795
:1017D0006DFE07F10C03184603F0DEFF4FF0010326
:1017E0003B614FF00003BB814FF00003BB824FF021
:1017F0001003FB8107F10C034FF00000C4F201005D
:10180000194603F04DFF4FF00000C4F201004FF005
:1018100003014FF000024FF0000304F021F84FF0F5
:101820000000C4F201004FF001014FF0010203F08B
:10183000F1FF4FF00000C4F201004FF0010103F08E
:10184000C9FF4FF4407003F047FE4FF01D033B7299
:101850004FF00F037B724FF00E03BB724FF001038A
:10186000FB7207F10803184603F04AFE4FF0190314
:101870003B7207F10803184603F042FE4FF4407331
:101880003B604FF002033B714FF00003FB714FF0E0
:101890000003BB714FF000037B713B464FF000002B
:1018A000C4F20200194602F045FA4FF00000C4F2FB
:1018B00002004FF008014FF0010202F0E7FA4FF08A
:1018C0000000C4F202004FF009014FF0010202F0E3
:1018D000DDFA4FF00003C4F201034FF000025A6238
:1018E00007F11807BD4680BD80B58AB002AFF86029
:1018F000B9603B601346FB80FB68002B04D14FF0BE
:10190000500080F31188FEE7BB6A042B04D94FF026
:10191000500080F31188FEE7FB881846396B00F011
:1019200005FFB861BB69002B00F0B080BB691A6B82
:10193000FB8803F1FF334FEA8303D3187B617B6994
:1019400023F007037B617B6903F00703002B04D0BE
:101950004FF0500080F31188FEE7FB880093B869D0
:10196000B968BA6A7B6B00F0BFFD7869F9683A68BC
:1019700003F044F803461A46BB691A60FB6A002B61
:1019800002D0FB6ABA691A6003F0CCF840F2A413E3
:10199000C2F200031B6803F1010240F2A413C2F279
:1019A00000031A6040F2CC03C2F200031B68002B54
:1019B0000FD140F2CC03C2F20003BA691A6040F2C0
:1019C000A413C2F200031B68012B18D100F0CAFD5A
:1019D00015E040F2B413C2F200031B68002B0ED1D5
:1019E00040F2CC03C2F200031B68DA6ABB6A9A4277
:1019F00005D840F2CC03C2F20003BA691A60BB6991
:101A0000DA6A40F2AC13C2F200031B689A4206D9AC
:101A1000BB69DA6A40F2AC13C2F200031A6040F20A
:101A2000C813C2F200031B6803F1010240F2C8139D
:101A3000C2F200031A60BB69DA6A40F2B013C2F264
:101A400000031B689A4206D9BB69DA6A40F2B013F8
:101A5000C2F200031A60BB69DA6A13464FEA8303D5
:101A60009B184FEA83031A4640F2D003C2F20003E8
:101A7000D218BB6903F104031046194602F090FA2C
:101A80004FF00103FB6103F063F802E04FF0FF3316
:101A9000FB61FB69012B11D140F2B413C2F20003C8
:101AA0001B68002B0AD040F2CC03C2F200031B6873
:101AB000DA6ABB6A9A4201D203F028F8FB69184639
:101AC00007F12007BD4680BD80B584B000AF7860C7
:101AD0004FF00003FB607B68002B19D000F052F937
:101AE00040F2A813C2F200031A687B68D318BB60E7
:101AF00040F2CC03C2F200031B6803F10403184652
:101B000002F0B4FAB86800F0CBFD00F04DF9F860CF
:101B1000FB68002B01D102F0F9FF07F11007BD4669
:101B200080BD00BF80B584B000AF786002F0FAFFDE
:101B300040F2CC03C2F200031B687A689A4202D1D9
:101B40004FF000037B607B68002B05D140F2CC0393
:101B5000C2F200031B6800E07B68FB60FB6803F1D6
:101B60000403184602F082FAFB689B6A002B05D03A
:101B7000FB6803F11803184602F078FAFB6803F1DA
:101B8000040340F29010C2F20000194602F008FA75
:101B900002F0DEFF7B68002B20D140F2B413C2F2CA
:101BA00000031B68002B02D002F0B0FF16E040F2E9
:101BB0009013C2F200031B681A4640F2A413C2F24B
:101BC00000031B689A4207D140F2CC03C2F2000323
:101BD0004FF000021A6001E000F084FA07F11007EC
:101BE000BD4680BD80B485B000AF78604FF0000383
:101BF000FB607B68BB607B68002B04D14FF050001A
:101C000080F31188FEE7BB685A6940F29013C2F274
:101C100000039A420ED1BB689A6A40F26413C2F282
:101C200000039A4206D0BB689B6A002B02D14FF09A
:101C30000103FB60FB68184607F11407BD4680BC32
:101C4000704700BF80B584B000AF78607B68002B20
:101C500004D14FF0500080F31188FEE77B68FB60F1
:101C6000FB68002B48D040F2CC03C2F200031B6893
:101C7000FA689A4240D002F055FFF868FFF7B2FFC9
:101C80000346012B36D1FB6803F10403184602F02A
:101C9000EDF9FB68DA6A40F2B013C2F200031B6888
:101CA0009A4206D9FB68DA6A40F2B013C2F2000326
:101CB0001A60FB68DA6A13464FEA83039B184FEAFF
:101CC00083031A4640F2D003C2F20003D218FB6825
:101CD00003F104031046194602F062F9FB68DA6A60
:101CE00040F2CC03C2F200031B68DB6A9A4201D3C4
:101CF00002F00CFF02F02CFF07F11007BD4680BD7B
:101D000080B586B004AF45F6CC43C0F600034FF073
:101D1000000200924FF0000201924FF00002029286
:101D20004FF00002039242F2C540C0F6000019468F
:101D30004FF046024FF00003FFF7D6FD78607B6856
:101D4000012B13D14FF0500080F3118840F2B413EF
:101D5000C2F200034FF001021A6040F2A813C2F26F
:101D600000034FF000021A6002F098FE7B68002B1F
:101D700004D14FF0500080F31188FEE707F1080707
:101D8000BD4680BD80B400AF40F2B813C2F200037C
:101D90001B6803F1010240F2B813C2F200031A609B
:101DA000BD4680BC704700BF90B583B000AF4FF018
:101DB00000037B6040F2B813C2F200031B68002BE3
:101DC00004D14FF0500080F31188FEE702F0AAFE24
:101DD00040F2B813C2F200031B6803F1FF3240F275
:101DE000B813C2F200031A6040F2B813C2F2000343
:101DF0001B68002B40F0868040F2A413C2F200035F
:101E00001B68002B7ED04FF000033B603DE040F2AA
:101E10006413C2F20003DB68DB681C4604F118039C
:101E2000184602F023F904F10403184602F01EF9E3
:101E3000E26A40F2B013C2F200031B689A4205D96D
:101E4000E26A40F2B013C2F200031A60E26A13467B
:101E50004FEA83039B184FEA83031A4640F2D003EC
:101E6000C2F20003D21804F104031046194602F02E
:101E700097F8E26A40F2CC03C2F200031B68DB6A07
:101E80009A4202D34FF001033B6040F26413C2F266
:101E900000031B68002BBAD140F2BC13C2F200034E
:101EA0001B68002B18D00DE000F034F840F2BC1392
:101EB000C2F200031B6803F1FF3240F2BC13C2F20E
:101EC00000031A6040F2BC13C2F200031B68002B2F
:101ED000EAD14FF001033B603B68012B06D040F292
:101EE000C013C2F200031B68012B0BD14FF001039A
:101EF0007B6040F2C013C2F200034FF000021A6090
:101F000002F004FE02F024FE7B68184607F10C077D
:101F1000BD4690BD80B584B000AF40F2B813C2F2A8
:101F200000031B68002B40F0CD8040F2A813C2F2E2
:101F300000031B6803F1010240F2A813C2F2000380
:101F40001A6040F2A813C2F200031B68002B4DD1A7
:101F500040F25C13C2F200031B681B68002B04D024
:101F60004FF0500080F31188FEE740F25C13C2F29C
:101F700000031B68FB6040F26013C2F200031A68A2
:101F800040F25C13C2F200031A6040F26013C2F226
:101F90000003FA681A6040F2C413C2F200031B681F
:101FA00003F1010240F2C413C2F200031A6040F2CE
:101FB0005C13C2F200031B681B68002B07D140F2C0
:101FC0000003C2F200034FF0FF321A600EE040F24D
:101FD0005C13C2F200031B68DB68DB68BB60BB6894
:101FE0005A6840F20003C2F200031A6040F2A813DC
:101FF000C2F200031A6840F20003C2F200031B6839
:102000009A426BD340F25C13C2F200031B681B6858
:10201000002B07D140F20003C2F200034FF0FF3261
:102020001A605BE040F25C13C2F200031B68DB68DD
:10203000DB68BB60BB685B687B6040F2A813C2F2E0
:1020400000031A687B689A4206D240F20003C2F28B
:1020500000037A681A6041E0BB6803F10403184684
:1020600002F004F8BB689B6A002B05D0BB6803F143
:102070001803184601F0FAFFBB68DA6A40F2B013A1
:10208000C2F200031B689A4206D9BB68DA6A40F2C2
:10209000B013C2F200031A60BB68DA6A13464FEA53
:1020A00083039B184FEA83031A4640F2D003C2F21F
:1020B0000003D218BB6803F104031046194601F06F
:1020C0006FFF9FE740F2BC13C2F200031B6803F1ED
:1020D000010240F2BC13C2F200031A6007F11007BC
:1020E000BD4680BD80B582B000AF40F2B813C2F2E9
:1020F00000031B68002B07D040F2C013C2F200039C
:102100004FF001021A609CE040F2CC03C2F20003DF
:102110001B681A6840F2CC03C2F200031B681B6BF9
:102120009A420FD840F2CC03C2F200031A6840F280
:10213000CC03C2F200031B6803F1340310461946B6
:10214000FFF752F940F2CC03C2F200031B681B6B8D
:10215000184645F6D441C0F600014FF0140203F0D2
:10216000F5FB0346002B29D040F2CC03C2F200035A
:102170001A6840F2CC03C2F200031B6803F1340377
:1021800010461946FFF730F919E040F2B013C2F2D9
:1021900000031B68002B04D14FF0500080F311881E
:1021A000FEE740F2B013C2F200031B6803F1FF32F6
:1021B00040F2B013C2F200031A6000E000BF40F228
:1021C000B013C2F200031A6813464FEA83039B1848
:1021D0004FEA83031A4640F2D003C2F20003D31839
:1021E0001B68002BD1D040F2B013C2F200031A6872
:1021F00013464FEA83039B184FEA83031A4640F2C3
:10220000D003C2F20003D3187B607B685B685B6815
:102210001A467B685A607B685A687B6803F108033A
:102220009A4205D17B685B685B681A467B685A6096
:102230007B685B68DB681A4640F2CC03C2F200039D
:102240001A6007F10807BD4680BD00BF80B584B0A5
:1022500000AF786039607B68002B04D14FF05000EC
:1022600080F31188FEE740F2CC03C2F200031B6842
:1022700003F118037868194601F0BCFE40F2CC0364
:10228000C2F200031B6803F10403184601F0EEFEDE
:102290003B68B3F1FF3F0ED140F2CC03C2F2000322
:1022A0001B6803F1040340F29010C2F200001946CB
:1022B00001F076FE0AE040F2A813C2F200031A68A9
:1022C0003B68D318FB60F86800F0EAF907F11007E3
:1022D000BD4680BD80B584B000AF78607B68DB68A8
:1022E000DB68BB60BB68002B04D14FF0500080F36B
:1022F0001188FEE7BB6803F11803184601F0B6FE2B
:1023000040F2B813C2F200031B68002B2BD1BB684C
:1023100003F10403184601F0A9FEBB68DA6A40F233
:10232000B013C2F200031B689A4206D9BB68DA6A8E
:1023300040F2B013C2F200031A60BB68DA6A1346B7
:102340004FEA83039B184FEA83031A4640F2D003F7
:10235000C2F20003D218BB6803F104031046194609
:1023600001F01EFE09E0BB6803F1180340F264109F
:10237000C2F20000194601F013FEBB68DA6A40F2AF
:10238000CC03C2F200031B68DB6A9A4203D34FF00E
:102390000103FB6002E04FF00003FB60FB6818469E
:1023A00007F11007BD4680BD80B483B000AF7860F0
:1023B0007B68002B04D14FF0500080F31188FEE7BA
:1023C00040F2C413C2F200031A687B681A6040F23C
:1023D000A813C2F200031A687B685A6007F10C0761
:1023E000BD4680BC704700BF80B584B000AF786048
:1023F00039607B68002B04D14FF0500080F31188C6
:10240000FEE73B68002B04D14FF0500080F31188A9
:10241000FEE702F087FB3B681B68B3F1FF3F03D187
:102420004FF00003FB6038E07B681A6840F2C41389
:10243000C2F200031B689A420CD07B685A6840F2D3
:10244000A813C2F200031B689A4203D84FF001039D
:10245000FB6022E040F2A813C2F200031A687B6816
:102460005B68D21A3B681B689A4213D23B681A68B1
:102470007B68596840F2A813C2F200031B68CB1AAC
:10248000D2183B681A607868FFF78EFF4FF00003A0
:10249000FB6002E04FF00103FB6002F059FBFB68B8
:1024A000184607F11007BD4680BD00BF80B400AFDD
:1024B00040F2C013C2F200034FF001021A60BD46A1
:1024C00080BC704780B582B000AF786000E000BF8C
:1024D00000F09AF840F2D003C2F200031B68012B0F
:1024E000F5D902F013FBF3E780B584B000AFF860D4
:1024F000B9607A603B60FB6803F134031A46BB683D
:10250000104619464FF00A0203F07EFBFB684FF0BD
:10251000000283F83D207B68042B02D94FF00403AE
:102520007B60FB687A68DA62FB687A681A64FB6829
:1025300003F10403184601F025FDFB6803F11803BD
:10254000184601F01FFDFB68FA681A617B68C3F149
:102550000502FB689A61FB68FA685A6207F1100786
:10256000BD4680BD80B582B000AF4FF000037B60F8
:1025700013E07A6813464FEA83039B184FEA8303FC
:102580001A4640F2D003C2F20003D318184601F0F5
:10259000D5FC7B6803F101037B607B68042BE8D9E1
:1025A00040F23410C2F2000001F0C8FC40F24810C2
:1025B000C2F2000001F0C2FC40F26410C2F200005E
:1025C00001F0BCFC40F27810C2F2000001F0B6FC51
:1025D00040F29010C2F2000001F0B0FC40F25C1337
:1025E000C2F2000340F23412C2F200021A6040F25A
:1025F0006013C2F2000340F24812C2F200021A60F5
:1026000007F10807BD4680BD80B582B000AF40F23B
:102610008C13C2F200031B68002B3CD0FFF7B2FB07
:1026200040F27813C2F200031B68002B14BF002392
:1026300001237B60FFF7B8FB7B68002B2BD102F0F6
:1026400071FA40F27813C2F20003DB68DB683B608A
:102650003B6803F10403184601F008FD40F2A4139F
:10266000C2F200031B6803F1FF3240F2A413C2F26E
:1026700000031A6040F28C13C2F200031B6803F1DE
:10268000FF3240F28C13C2F200031A6002F060FACB
:10269000386800F085F807F10807BD4680BD00BF27
:1026A00080B582B000AF786040F2CC03C2F2000384
:1026B0001B687A685A6040F2A813C2F200031B68D4
:1026C0007A689A4210D240F26013C2F200031A688C
:1026D00040F2CC03C2F200031B6803F1040310466E
:1026E000194601F087FC1DE040F25C13C2F20003C2
:1026F0001A6840F2CC03C2F200031B6803F1040322
:102700001046194601F076FC40F20003C2F20003C5
:102710001B687A689A4205D240F20003C2F20003B5
:102720007A681A6007F10807BD4680BD80B584B09D
:1027300000AF03463960FB804FF0440002F054FFC5
:102740000346FB60FB68002B23D03B68002B07D1BE
:10275000FB884FEA8303184602F046FF034600E079
:102760003B68FA681363FB681B6B002B06D1F868A3
:1027700002F08CFF4FF00003FB600AE0FB681A6B6D
:10278000FB884FEA830310464FF0A5011A4603F079
:10279000B1F9FB68184607F11007BD4680BD00BFC0
:1027A00080B582B000AF78607B681B6B184602F082
:1027B0006DFF786802F06AFF07F10807BD4680BD2B
:1027C00080B483B000AF40F2CC03C2F200031B68B8
:1027D0007B607B68184607F10C07BD4680BC7047DC
:1027E00080B584B000AF78607B68FB607B68002BAD
:1027F00004D14FF0500080F31188FEE7FB68DA6ADD
:1028000040F2CC03C2F200031B68DB6A9A4257D243
:1028100040F2CC03C2F200031B68DB6AC3F105027D
:10282000FB689A61FB685969FB68DA6A13464FEAEC
:1028300083039B184FEA83031A4640F2D003C2F287
:102840000003D318994233D1FB6803F104031846FF
:1028500001F00CFC40F2CC03C2F200031B68DA6A00
:10286000FB68DA62FB68DA6A40F2B013C2F2000376
:102870001B689A4206D9FB68DA6A40F2B013C2F2CA
:1028800000031A60FB68DA6A13464FEA83039B1859
:102890004FEA83031A4640F2D003C2F20003D21873
:1028A000FB6803F104031046194601F079FB07E0C9
:1028B00040F2CC03C2F200031B68DA6AFB68DA62FA
:1028C00007F11007BD4680BD80B584B000AF7860C9
:1028D0007B68FB607B68002B3AD0FB68DA6AFB6898
:1028E0001B6C9A4234D0FB6803F10403184601F0D4
:1028F000BDFBFB681A6CFB68DA62FB68DB6AC3F13C
:102900000502FB689A61FB68DA6A40F2B013C2F212
:1029100000031B689A4206D9FB68DA6A40F2B013DA
:10292000C2F200031A60FB68DA6A13464FEA8303B7
:102930009B184FEA83031A4640F2D003C2F2000309
:10294000D218FB6803F104031046194601F028FB76
:1029500007F11007BD4680BD80B483B000AF0346C9
:10296000FB8003E0FB8803F1FF33FB80FB88002B37
:10297000F8D107F10C07BD4680BC704780B586B022
:1029800004AF4FF005004FF00101FEF733FD4FF4A7
:1029900070633B604FF000037B714FF001033B71AC
:1029A0004FF00103BB714FF00003FB713B464FF446
:1029B0000060C4F20200194601F0BCF94FF41C4358
:1029C0003B604FF000037B714FF000033B714FF011
:1029D0000103FB713B464FF00000C4F202001946B0
:1029E00001F0A8F94FF40063C4F202034FF47062DF
:1029F0001A834FF002004FF001014FF0000201F086
:102A0000B3FC024641F2A463C2F200031A6045F629
:102A1000E843C0F600034FF0010200924FF00002BD
:102A200001924FF0000202924FF00002039242F630
:102A30004D20C0F6000019464FF040024FF0000351
:102A4000FEF752FF07F10807BD4680BD80B586B08E
:102A500000AF78604FF00003BB754FF000037B754B
:102A60004FF00003FB754FF000037B824FF41C43D3
:102A70007B8200F085F80346FB734FF00A00FFF7F6
:102A800023F800F07DF803467B74FB7BFF2B30D0EE
:102A9000FB7B7A7C9A426DD1FB7BBB73FB7D132B56
:102AA00004D8FB7D03F10103FB7563E0FB7D142B70
:102AB00060D1FB7D03F10103FB75FB7B03F1100388
:102AC000DBB2FB7341F2A463C2F200031B68002B6C
:102AD00050D041F2A463C2F200031A6807F10F0359
:102AE000104619464FF000024FF0000301F0DAFCE7
:102AF00040E0FB7D002B19D0FB7D132B16D841F253
:102B0000A463C2F200031B68002B2DD041F2A46322
:102B1000C2F200031A6807F10E03104619464FF07F
:102B200000024FF0000301F0BDFC1DE0FB7D152B02
:102B30001AD1FB7B03F12003DBB2FB7341F2A463E8
:102B4000C2F200031B68002B0ED041F2A463C2F254
:102B500000031A6807F10F03104619464FF00002F0
:102B60004FF0000301F09EFC4FF0FF033B744FF069
:102B70000003FB754FF03200FEF7A6FF79E700BFB8
:102B800080B582B000AF4FF00003FB714FF000033F
:102B9000BB804FF41C43BB804FF40063C4F20203BC
:102BA0004FF470621A834FF00003FB71FEE0FB7973
:102BB000032B00F2F78001A252F823F0CD2B00087E
:102BC000432C0008B92C00082F2D00084FF4006397
:102BD000C4F202034FF480725A834FF00A00FFF7E9
:102BE000BBFE4FF00003C4F202031B697B804FF46D
:102BF0000063C4F202034FF470621A837B886FEAA9
:102C00000302BB8802EA0303B3F5006F10D0B3F5EB
:102C1000006F03DCB3F5806F07D0C3E0B3F5805FCE
:102C200009D0B3F5004F09D0BCE04FF00103C3E079
:102C30004FF00203C0E04FF00303BDE04FF00A0382
:102C4000BAE04FF40063C4F202034FF400725A83F7
:102C50004FF00A00FFF780FE4FF00003C4F20203BA
:102C60001B697B804FF40063C4F202034FF470626F
:102C70001A837B886FEA0302BB8802EA0303B3F579
:102C8000006F10D0B3F5006F03DCB3F5806F07D091
:102C900088E0B3F5805F09D0B3F5004F09D081E03B
:102CA0004FF0040388E04FF0050385E04FF0060382
:102CB00082E04FF00B037FE04FF40063C4F20203A5
:102CC0004FF480625A834FF00A00FFF745FE4FF041
:102CD0000003C4F202031B697B804FF40063C4F25B
:102CE00002034FF470621A837B886FEA0302BB8889
:102CF00002EA0303B3F5006F10D0B3F5006F03DCF5
:102D0000B3F5806F07D04DE0B3F5805F09D0B3F520
:102D1000004F09D046E04FF007034DE04FF00803A5
:102D20004AE04FF0090347E04FF00C0344E04FF452
:102D30000063C4F202034FF400625A834FF00A00AA
:102D4000FFF70AFE4FF00003C4F202031B697B8009
:102D50004FF40063C4F202034FF470621A837B885D
:102D60006FEA0302BB8802EA0303B3F5006F10D0D9
:102D7000B3F5006F03DCB3F5806F07D012E0B3F555
:102D8000805F09D0B3F5004F09D00BE04FF00D0381
:102D900012E04FF000030FE04FF00F030CE04FF094
:102DA0000E0309E0FB7903F10103FB71FB79032BAF
:102DB0007FF6FDAE4FF0FF03184607F10807BD464A
:102DC00080BD00BF80B483B000AF78607A6840F205
:102DD000D013C2F200039A4206D041F2F463C2F269
:102DE00000037A681A6000E000BF07F10C07BD46D7
:102DF00080BC704780B582B000AF41F2F463C2F28C
:102E000000031B689B687B607A6840F2D013C2F2B3
:102E100000039A420ED14FF0000045F6F441C0F68F
:102E20000001FDF70BFA41F2E860C2F2000000F089
:102E3000B1FCDBE041F2F463C2F200031B6803F172
:102E400011034FF000001946FDF7F8F941F2F46361
:102E5000C2F200031B681B7CA3F10203052B00F2E6
:102E6000BE8001A252F823F0812E00088F2E0008A8
:102E70009D2E0008AB2E0008132F0008792F0008A4
:102E800041F2E860C2F2000000F084FCAEE041F2E2
:102E9000E860C2F2000000F07DFCA7E041F2E860CB
:102EA000C2F2000000F076FCA0E041F2F853C2F25A
:102EB00000031B681B8B9BB21BB2184641F2E861F2
:102EC000C2F200014FF0000241F2707300F068FDA1
:102ED0000346012B40F0858041F2E860C2F2000019
:102EE00000F058FC4FF001004FF0FF014FF00202DC
:102EF000FEF734FA4FF002004FF00101FDF7B6FE85
:102F00004FF001004FF0FF014FF00202FEF726FAEA
:102F10006CE041F2F853C2F200031B685B8B9BB27A
:102F20001BB2184641F2E861C2F200014FF0000204
:102F300041F2707300F034FD0346012B53D141F28E
:102F4000E860C2F2000000F025FC4FF001004FF0F5
:102F5000FF014FF00202FEF701FA4FF002004FF0BE
:102F60000101FDF783FE4FF001004FF0FF014FF02C
:102F70000202FEF7F3F939E041F2F853C2F200031E
:102F80001B689B8B9BB21BB2184641F2E861C2F2F0
:102F900000014FF0000241F2707300F001FD0346A2
:102FA000012B22D141F2E860C2F2000000F0F2FBF6
:102FB0004FF001004FF0FF014FF00202FEF7CEF993
:102FC0004FF002004FF00101FDF750FE4FF00100FD
:102FD0004FF0FF014FF00202FEF7C0F906E000BF1C
:102FE00004E000BF02E000BF00E000BF4FF00003BC
:102FF000184607F10807BD4680BD00BF80B500AF89
:1030000041F2F463C2F2000340F20402C2F2000291
:103010001A6041F2E863C2F200034FF000021A7234
:1030200041F2E863C2F200034FF020025A72FFF748
:10303000E1FE4FF00003184680BD00BF80B584B0AC
:1030400004AF45F6F843C0F600034FF001020092CA
:103050004FF0000201924FF0000202924FF0000286
:10306000039243F22170C0F6000019464FF080022F
:103070004FF00003FEF738FCBD4680BD80B500AFC1
:1030800041F2F463C2F200031B689B681846FFF725
:1030900099FEFFF7AFFE80BD80B500AF41F2F4634B
:1030A000C2F200031B68DB681846FFF78BFEFFF7D0
:1030B000A1FE80BD80B500AF41F2F463C2F200030F
:1030C0001B681B681846FFF77DFEFFF793FE80BD67
:1030D00080B588B002AF78600B46FB7041F2F853C0
:1030E000C2F200031B7C002B0ED0FB780C2B40F0AF
:1030F00012834FF00100FDF7B7FF4FF004004FF0CF
:103100000101FDF7B3FD06E37B681B7C03F1FF3390
:10311000062B00F2008301A252F823F03931000897
:103120005332000825330008F9330008C53400087D
:103130008535000845360008FB78A3F10B03242BE6
:1031400074D801A252F823F0F33100082D320008A0
:103150002D320008EF3100082D3200082D32000812
:103160002D3200082D3200082D3200082D320008C3
:103170002D3200082D3200082D3200082D320008B3
:103180002D320008DD3100082D3200082D320008F4
:10319000F5310008F1310008073200082D3200082F
:1031A0002D3200082D3200082D3200082D32000883
:1031B0002D3200082D3200082D3200082D32000873
:1031C0002D3200082D3200082D3200082D32000863
:1031D000193200082D32000823320008FFF75CFF87
:1031E0004FF004004FF00101FDF740FD30E02FE00B
:1031F0002EE02DE04FF00100FDF7DEFE4FF0010064
:10320000FDF702FF24E04FF00100FDF7D5FE4FF07F
:103210000000FDF7F9FE1BE04FF00100FDF724FF71
:1032200016E04FF00100FDF71FFF11E0FB7841F2BF
:103230007072009218464FF0030141F2E862C2F248
:1032400000024EF69003CFF6FF7300F021FC00BFA2
:1032500061E2FB781C2B04D01E2B14D00A2B09D062
:103260004DE0FFF70BFF4FF004004FF00101FDF7B9
:10327000FDFC56E0FFF71EFF4FF000004FF001018C
:10328000FDF7F4FC4DE007F1100341F2E860C2F2F3
:10329000000019464EF69002CFF6FF7241F27073AD
:1032A00000F00CFB0346002B1AD141F2F853C2F296
:1032B00000035B687B6141F2F853C2F200031B68B4
:1032C0001A4607F11003104619464FF00802FDF7A1
:1032D00033FF4FF001004FF00101FDF7C7FC0DE097
:1032E0004FF002004FF00101FDF7C0FC4FF001006C
:1032F0004FF0FF014FF00202FEF730F811E0FB78CB
:1033000041F27072009218464FF0010141F2E862FA
:10331000C2F200024EF69003CFF6FF7300F0B8FB46
:1033200000BFF8E1FB781C2B04D01E2B14D00A2B15
:1033300009D04EE0FFF7A2FE4FF004004FF001016C
:10334000FDF794FC57E0FFF7B5FE4FF000004FF09B
:103350000101FDF78BFC4EE007F1100341F2E8603C
:10336000C2F2000019464EF69002CFF6FF7241F20B
:10337000707300F0A3FA0346002B1BD141F2F853FF
:10338000C2F200035B687B6141F2F853C2F20003B2
:103390001B6803F1080207F11003104619464FF0AD
:1033A0000802FDF7C9FE4FF001004FF00101FDF7E3
:1033B0005DFC0DE04FF002004FF00101FDF756FCFF
:1033C0004FF001004FF0FF014FF00202FDF7C6FF82
:1033D00011E0FB7841F27072009218464FF0010143
:1033E00041F2E862C2F200024EF69003CFF6FF739C
:1033F00000F04EFB00BF8EE1FB781C2B04D01E2B8F
:1034000014D00A2B09D04CE0FFF738FE4FF004002F
:103410004FF00101FDF72AFC53E0FFF74BFE4FF0A0
:1034200000004FF00101FDF721FC4AE007F1100315
:1034300041F2E860C2F2000019464FF0000241F28A
:10344000707300F03BFA0346002B1BD141F2F85396
:10345000C2F200035B687B6141F2F853C2F20003E1
:103460001B6803F1100207F11003104619464FF0D4
:103470000802FDF761FE4FF001004FF00101FDF77A
:10348000F5FB0DE04FF002004FF00101FDF7EEFB00
:103490004FF001004FF0FF014FF00202FDF75EFF19
:1034A0000FE0FB7841F27072009218464FF0010174
:1034B00041F2E862C2F200024FF0000300F0E8FAC5
:1034C00000BF28E1FB781C2B04D01E2B14D00A2B44
:1034D00009D046E0FFF7D2FD4FF004004FF00101A4
:1034E000FDF7C4FB4DE0FFF7E5FD4FF000004FF0A6
:1034F0000101FDF7BBFB44E007F10E0341F2E86078
:10350000C2F2000019464FF0000241F2707300F061
:10351000D5F90346002B15D141F2F853C2F200034E
:103520001B6803F1180207F10E03104619464FF00D
:103530000202FDF701FE4FF001004FF00101FDF71F
:1035400095FB0DE04FF002004FF00101FDF78EFBFF
:103550004FF001004FF0FF014FF00202FDF7FEFEB9
:103560000FE0FB7841F27072009218464FF00101B3
:1035700041F2E862C2F200024FF0000300F088FA64
:1035800000BFC8E0FB781C2B04D01E2B14D00A2BE4
:1035900009D046E0FFF772FD4FF004004FF0010143
:1035A000FDF764FB4DE0FFF785FD4FF000004FF0A5
:1035B0000101FDF75BFB44E007F10E0341F2E86017
:1035C000C2F2000019464FF0000241F2707300F0A1
:1035D00075F90346002B15D141F2F853C2F20003EE
:1035E0001B6803F11A0207F10E03104619464FF04B
:1035F0000202FDF7A1FD4FF001004FF00101FDF7C0
:1036000035FB0DE04FF002004FF00101FDF72EFBFE
:103610004FF001004FF0FF014FF00202FDF79EFE58
:103620000FE0FB7841F27072009218464FF00101F2
:1036300041F2E862C2F200024FF0000300F028FA03
:1036400000BF68E0FB781C2B04D01E2B1DD00A2B7A
:1036500009D04FE0FFF712FD4FF004004FF00101D9
:10366000FDF704FB56E041F2F463C2F2000340F2BE
:103670001C02C2F200021A60FFF7BCFB4FF0000010
:103680004FF00101FDF7F2FA44E007F10C0341F2BB
:10369000E860C2F2000019464FF0000241F2707378
:1036A00000F00CF90346002B15D141F2F853C2F299
:1036B00000031B6803F11C0207F10C0310461946B6
:1036C0004FF00202FDF738FD4FF001004FF001010D
:1036D000FDF7CCFA1EE04FF002004FF00101FDF7BC
:1036E000C5FA4FF001004FF0FF014FF00202FDF765
:1036F00035FE0FE0FB7841F27072009218464FF0F1
:10370000010141F2E862C2F200024FF0000300F052
:10371000BFF900BF00BF07F11807BD4680BD00BF5D
:1037200080B584B000AF7860FFF768FC41F2A46315
:10373000C2F200031B68002B27D041F2A463C2F23F
:1037400000031B68184601F037F80346002B1CD015
:1037500041F2A463C2F200031A6807F10E03104697
:1037600019464FF00A024FF0000300F047FF0346EE
:10377000002B0AD041F2F463C2F200031A68FB89FD
:10378000DBB210461946FFF7A3FC4FF00A00FEF724
:103790009BF9CBE780B582B000AF78607B684FF0D3
:1037A00000021A727B684FF020025A72786800F0AB
:1037B00005F807F10807BD4680BD00BF80B586B09B
:1037C00000AF786045F60852C0F6000207F10C031E
:1037D00092E80300186003F10403198003F1020367
:1037E0004FEA11421A704FF00003FB744FF00003D0
:1037F000FB754FF00003BB757B681B7A002B17D15C
:103800007B685B7A2D2B08D14FF0010045F6005103
:10381000C0F60001FCF712FD07E04FF0010045F68D
:103820000851C0F60001FCF709FD4FF000033FE02E
:103830007B681B7A042B39D84FF00503BB757B6876
:103840001B7A03F1FF33DBB2FB751AE097F91630F0
:1038500097F9172079688A5C07F11801CB1803F8EB
:103860000C2CBB7D03F1FF33BB7597F91630042B8D
:1038700003D1BB7D03F1FF33BB75FB7D03F1FF3348
:10388000FB7597F91730002BE0DA7B685B7A2D2BFC
:1038900002D14FF02D033B7307F10C034FF00100F1
:1038A0001946FCF7CBFC4FF0000301E04FF0010399
:1038B000184607F11807BD4680BD00BF80B487B029
:1038C00000AFF860B960FA80BB804FF00003FB8264
:1038D0004FF000037B754FF001037B82FB681B7A7E
:1038E000002B06D1BB684FF000021A804FF0000396
:1038F00050E0FB681B7A03F1FF33DBB27B7529E0F4
:1039000097F91530FA68D35C2F2B05D997F9153044
:10391000FA68D35C392B02D94FF001033AE097F9EA
:103920001530FA68D35CA3F130039BB27A8A02FBAC
:1039300003F39AB2FB8AD3189BB2FB827B8A1A46A6
:103940004FEA8202D3184FEA43037B827B7D03F167
:10395000FF337B7597F91530002BD1DAFB685B7A62
:103960002D2B03D1FB8AC3F10003FB82BB68FA8ACB
:103970001A80B7F91620B7F906309A4205DBB7F975
:103980001620B7F904309A4202DD4FF0010301E03E
:103990004FF00003184607F11C07BD4680BC704776
:1039A00080B586B000AFB9600146F981FA80BB806E
:1039B000B7F90E20B7F904309A4205DCB7F90E20AA
:1039C000B7F906309A4205DAB868FFF7E3FE4FF020
:1039D000010357E0B7F90E30002B08DABB684FF04F
:1039E0002D025A72FB89C3F10003FB8103E0BB681F
:1039F0004FF020025A72BB684FF000021A724FF467
:103A00007A73FB824FF000037B7533E0B7F90E2029
:103A1000FB8A92FBF3F33B753B7D092B17D83B7D6B
:103A2000002B02D17B7D002B11D0BB681B7A3A7D25
:103A300002F13002D1B2BA68D154BB681B7A03F1EB
:103A40000103DAB2BB681A724FF001037B75B7F954
:103A50000E30FA8A93FBF2F102FB01F29B1AFB8112
:103A6000FA8A4CF6CD43CCF6CC43A3FB02134FEAC3
:103A7000D303FB82FB8A002BC8D1B868FFF79EFEF8
:103A80004FF00003184607F11807BD4680BD00BF80
:103A900080B586B000AFBA600246FA730A46BA73C0
:103AA000FB80FB7B092B09D9FB7B0C2B06D0FB7B16
:103AB0000D2B03D0FB7B0F2B40F02E81FB7B0C2BBF
:103AC00019D1BB681B7A002B00F02881BB681B7AD8
:103AD000002B06D0BB681B7A03F1FF33DAB2BB6858
:103AE0001A72B868FFF76AFE4FF000004FF001014C
:103AF000FDF7BCF819E1FB7B0D2B02D00F2B14D086
:103B000027E0BB7B03F00203002B00F00981BB68B8
:103B10004FF02D025A72B868FFF750FE4FF00000C8
:103B20004FF00101FDF7A2F8FFE0BB7B03F00203B9
:103B3000002B00F0F780BB684FF020025A72B86883
:103B4000FFF73CFE4FF000004FF00101FDF78EF84B
:103B5000EBE0BB681B7A032B0ED94FF002004FF04D
:103B60000101FDF783F84FF001004FF0FF014FF026
:103B70000202FDF7F3FBD8E0FB7B092B00F29F80EC
:103B800001A252F823F000BFB13B0008D53B00086A
:103B9000EF3B0008093C0008233C00083D3C0008BE
:103BA000573C0008713C00088B3C0008A53C00080D
:103BB000BB681B7A002B00F0B780BB681B7ABA6821
:103BC0004FF03001D1544FF000004FF00101FDF7EC
:103BD0004DF875E0BB681B7ABA684FF03101D154DB
:103BE0004FF000004FF00101FDF740F868E0BB68BE
:103BF0001B7ABA684FF03201D1544FF000004FF0F9
:103C00000101FDF733F85BE0BB681B7ABA684FF03F
:103C10003301D1544FF000004FF00101FDF726F8B9
:103C20004EE0BB681B7ABA684FF03401D1544FF0B4
:103C300000004FF00101FDF719F841E0BB681B7A65
:103C4000BA684FF03501D1544FF000004FF0010138
:103C5000FDF70CF834E0BB681B7ABA684FF0360108
:103C6000D1544FF000004FF00101FCF7FFFF27E0B7
:103C7000BB681B7ABA684FF03701D1544FF000008F
:103C80004FF00101FCF7F2FF1AE0BB681B7ABA683B
:103C90004FF03801D1544FF000004FF00101FCF714
:103CA000E5FF0DE0BB681B7ABA684FF03901D154CB
:103CB0004FF000004FF00101FCF7D8FF00E000BF1B
:103CC000BB681B7A03F10103DAB2BB681A7207F111
:103CD0001601B7F90620B7F92030B868FFF7EEFDF6
:103CE0000346012B14D1BB681B7A03F1FF33DAB210
:103CF000BB681A724FF002004FF00101FCF7B6FFEB
:103D00004FF001004FF0FF014FF00202FDF726FBDC
:103D1000B868FFF753FD08E000BF06E000BF04E00D
:103D200000BF02E000BF00E000BF07F11807BD467A
:103D300080BD00BF80B487B000AF786039604FF0BD
:103D400000037B614FF000033B614FF00003FB6019
:103D50004FF000037B618FE07B694FF0010202FAB4
:103D600003F33B613B681A683B6902EA0303FB60AB
:103D7000FA683B699A427BD17B681B681A467B696B
:103D80004FEA43034FF0030101FA03F36FEA030321
:103D90001A407B681A607B681B681A463B681B796F
:103DA00019467B694FEA430301FA03F31A437B6820
:103DB0001A603B681B79012B03D03B681B79022BEF
:103DC00038D17B689B681A467B694FEA43034FF002
:103DD000030101FA03F36FEA03031A407B689A6058
:103DE0007B689B681A463B685B7919467B694FEA9A
:103DF000430301FA03F31A437B689A607B685B68AC
:103E00001A467B699BB24FF0010101FA03F36FEA96
:103E100003031A407B685A607B685B681A463B68FC
:103E20009B7919467B699BB201FA03F39BB21A4353
:103E30007B685A607B68DB681A467B699BB24FEAF5
:103E400043034FF0030101FA03F36FEA03031A403F
:103E50007B68DA607B68DB681A463B68DB79194669
:103E60007B694FEA430301FA03F31A437B68DA6084
:103E70007B6903F101037B617B690F2B7FF66CAFDC
:103E800007F11C07BD4680BC704700BF80B485B0F9
:103E900000AF786013460A467A807B704FF00003CB
:103EA000FB604FF00003BB607A787B8803F0070368
:103EB0004FEA830302FA03F3FB607B884FEAD303E4
:103EC0009BB21A467B884FEAD3039BB219467B68A4
:103ED00001F1080153F8213019467B8803F00703EC
:103EE0004FEA83034FF00F0000FA03F36FEA030376
:103EF00019407B6802F1080243F822107B884FEAE0
:103F0000D3039BB21A467B6802F1080253F82230B1
:103F10001A46FB6842EA0303BB607B884FEAD3037F
:103F20009BB21A467B6802F10802B96843F8221076
:103F300007F11407BD4680BC704700BF80B483B052
:103F400000AF78607B6803F108031A467B685A600B
:103F50007B684FF0FF329A607B6803F108031A46D2
:103F60007B68DA607B6803F108031A467B681A6194
:103F70007B684FF000021A6007F10C07BD4680BC59
:103F8000704700BF80B483B000AF78607B684FF0AB
:103F900000021A6107F10C07BD4680BC704700BFE4
:103FA00080B485B000AF786039607B685B68FB6087
:103FB000FB685B681A463B685A607B685A683B68D6
:103FC0009A60FB685B683A689A603A68FB685A6076
:103FD0003A687B685A603B687A681A617B681B683C
:103FE00003F101027B681A6007F11407BD4680BC2B
:103FF000704700BF80B485B000AF786039603B681F
:104000001B68BB60BB68B3F1FF3F03D17B681B69D2
:10401000FB600EE07B6803F10803FB6002E0FB68D5
:104020005B68FB60FB685B681B681A46BB689A426A
:10403000F5D9FB685B681A463B685A603B685B6869
:104040003A689A603B68FA689A603A68FB685A6016
:104050003B687A681A617B681B6803F101027B6820
:104060001A6007F11407BD4680BC704780B485B064
:1040700000AF78607B685B687A6892689A607B685A
:104080009B687A6852685A607B681B69FB60FB68B2
:104090005A687B689A4203D17B689A68FB685A60C9
:1040A0007B684FF000021A61FB681B6803F1FF3266
:1040B000FB681A6007F11407BD4680BC704700BF5B
:1040C00080B500AF4FF46053C4F202034FF4605266
:1040D000C4F20202126842F001021A604FF4605307
:1040E000C4F202034FF000029A604FF46053C4F22E
:1040F00002034FF46052C4F20202126822F084728A
:1041000022F480321A604FF46053C4F2020343F287
:104110001002C2F200425A604FF46053C4F202032C
:104120004FF46052C4F20202126822F480221A6034
:104130004FF46053C4F202034FF00002DA6000F063
:1041400009F84FF46D43CEF200034FF000629A601D
:1041500080BD00BF80B483B000AF4FF000037B6030
:104160004FF000033B604FF46053C4F202034FF47E
:104170006052C4F20202126842F480321A604FF4B4
:104180006053C4F202031B6803F400333B607B6896
:1041900003F101037B603B68002B03D17B68B3F51F
:1041A000A06FECD14FF46053C4F202031B6803F418
:1041B0000033002B03D04FF001033B6002E04FF0CF
:1041C00000033B603B68012B69D14FF46053C4F29C
:1041D00002034FF46052C4F2020292689A604FF4F4
:1041E0006053C4F202034FF46052C4F202029268B8
:1041F00042F400429A604FF46053C4F202034FF459
:104200006052C4F20202926842F4A0529A604FF4E3
:104210006053C4F2020343F20402C0F643025A6040
:104220004FF46053C4F202034FF46052C4F202022E
:10423000126842F080721A6000BF4FF46053C4F2FB
:1042400002031B6803F00073002BF6D04FF4705389
:10425000C4F2020340F201721A604FF46053C4F2D8
:1042600002034FF46052C4F20202926822F0030289
:104270009A604FF46053C4F202034FF46052C4F2E8
:104280000202926842F002029A6000BF4FF460534B
:10429000C4F202039B6803F00C03082BF6D107F16C
:1042A0000C07BD4680BC704780B582B000AF786017
:1042B00039607B68002B04D14FF0500080F31188E7
:1042C000FEE700F02FFC7B681A687B68DB6B79687F
:1042D000096C01FB03F3D2187B685A607B684FF0CE
:1042E00000029A637B681A687B689A607B681A6828
:1042F0007B68DB6B03F1FF337968096C01FB03F327
:10430000D2187B68DA607B684FF0FF325A647B68B2
:104310004FF0FF329A643B68002B0FD17B681B691A
:10432000002B17D07B6803F110031846FDF7D2FF6E
:104330000346012B0ED100F0E9FB0BE07B6803F193
:1043400010031846FFF7FAFD7B6803F124031846B3
:10435000FFF7F4FD00F0FCFB4FF00103184607F1F6
:104360000807BD4680BD00BF80B588B000AFF860CB
:10437000B9601346FB714FF00003FB61FB68002B33
:104380002BD04FF04C0001F02FF90346BB61BB6905
:10439000002B22D0FB68BA6802FB03F303F1010390
:1043A0007B61786901F020F903461A46BB691A60FF
:1043B000BB691B68002B0DD0BB69FA68DA63BB6967
:1043C000BA681A64B8694FF00101FFF76DFFBB6965
:1043D000FB6102E0B86901F059F9FB69002B04D1D7
:1043E0004FF0500080F31188FEE7FB69184607F193
:1043F0002007BD4680BD00BF80B584B000AF034636
:10440000FB714FF04C0001F0EFF80346FB60FB68D6
:10441000002B38D0FB684FF000025A60FB684FF069
:1044200000021A60FB684FF000029A60FB684FF0D0
:104430000002DA60FB684FF000029A63FB684FF0FD
:104440000102DA63FB684FF000021A64FB684FF068
:10445000FF325A64FB684FF0FF329A64FB6803F145
:1044600010031846FFF76AFDFB6803F124031846A2
:10447000FFF764FDF8684FF000014FF000024FF0C5
:10448000000300F00FF8FB68002B04D14FF0500040
:1044900080F31188FEE7FB68184607F11007BD4658
:1044A00080BD00BF80B588B000AFF860B9607A60A9
:1044B0003B604FF00003FB61FB68002B04D14FF021
:1044C000500080F31188FEE7BB68002B03D1FB6826
:1044D0001B6C002B02D14FF0010301E04FF00003F1
:1044E000002B05D14FF0500080F31188FEE700BF8C
:1044F00000F018FBFB689B6B1A46FB68DB6B9A426B
:1045000018D2F868B9683A6800F070F9FB685B6A1D
:10451000002B0AD0FB6803F124031846FDF7DAFEEE
:104520000346012B01D100F0F1FA00F011FB4FF02E
:1045300001035DE07B68002B04D100F009FB4FF024
:10454000000355E0FB69002B07D107F1140318465F
:10455000FDF72AFF4FF00103FB6100F0F9FAFDF7C8
:1045600011FC00F0DFFAFB685B6CB3F1FF3F03D195
:10457000FB684FF000025A64FB689B6CB3F1FF3F8D
:1045800003D1FB684FF000029A6400F0E1FA07F1F2
:10459000140207F1040310461946FDF725FF0346F0
:1045A000002B1ED1F86800F011FA0346002B12D040
:1045B000FB6803F110027B6810461946FDF746FEC2
:1045C000F86800F09DF9FDF7EFFB0346002B8ED154
:1045D00000F09CFA8CE7F86800F092F9FDF7E4FB34
:1045E00086E7F86800F08CF9FDF7DEFB4FF000037A
:1045F000184607F12007BD4680BD00BF80B588B0D2
:1046000000AFF860B9607A603B604FF00003FB6177
:10461000FB68002B04D14FF0500080F31188FEE7B7
:10462000BB68002B03D1FB681B6C002B02D14FF041
:10463000010301E04FF00003002B05D14FF05000C3
:1046400080F31188FEE700BF00F06CFAFB689B6BFB
:10465000002B40D0FB68DB68BB61F868B96800F0EC
:1046600027F93B68002B1FD1FB689B6B03F1FF32DE
:10467000FB689A63FB681B68002B05D1FEF7A0F866
:1046800003461A46FB685A60FB681B69002B1DD065
:10469000FB6803F110031846FDF71CFE0346012BCF
:1046A00014D100F033FA11E0FB68BA69DA60FB68F4
:1046B0005B6A002B0AD0FB6803F124031846FDF760
:1046C00009FE0346002B01D000F020FA00F040FA6A
:1046D0004FF001036BE07B68002B04D100F038FA47
:1046E0004FF0000363E0FB69002B07D107F11003D3
:1046F0001846FDF759FE4FF00103FB6100F028FA60
:10470000FDF740FB00F00EFAFB685B6CB3F1FF3F76
:1047100003D1FB684FF000025A64FB689B6CB3F155
:10472000FF3F03D1FB684FF000029A6400F010FADB
:1047300007F1100207F1040310461946FDF754FE75
:104740000346002B2CD1F86800F02AF90346002B11
:1047500020D0FB681B68002B08D100F0E3F9FB6850
:104760005B681846FEF73CF800F0F2F9FB6803F1CD
:1047700024027B6810461946FDF768FDF86800F0D2
:10478000BFF8FDF711FB0346002B7FF45CAF00F090
:10479000BDF959E7F86800F0B3F8FDF705FB53E7FA
:1047A000F86800F0ADF8FDF7FFFA4FF00003184687
:1047B00007F12007BD4680BD80B584B000AF7860AA
:1047C0007B68002B04D14FF0500080F31188FEE786
:1047D00000F0A8F97B689B6BFB6000F0B9F9FB68FF
:1047E000184607F11007BD4680BD00BF80B584B0F4
:1047F00000AFF860B9607A60FB681B6C002B0DD1CC
:10480000FB681B68002B48D1FB685B681846FEF705
:104810005BF8FB684FF000025A603EE07B68002BBB
:104820001AD1FB689A68FB681B6C1046B9681A4677
:1048300001F0B8F8FB689A68FB681B6CD218FB683B
:104840009A60FB689A68FB685B689A4225D3FB68AC
:104850001A68FB689A6020E0FB68DA68FB681B6CEA
:104860001046B9681A4601F09DF8FB68DA68FB68E3
:104870001B6CC3F10003D218FB68DA60FB68DA68CE
:10488000FB681B689A4208D2FB685A68FB681B6C7D
:10489000C3F10003D218FB68DA60FB689B6B03F17D
:1048A0000102FB689A6307F11007BD4680BD00BF97
:1048B00080B582B000AF786039607B681B68002BE0
:1048C00019D07B68DA687B681B6CD2187B68DA6069
:1048D0007B68DA687B685B689A4203D37B681A68F6
:1048E0007B68DA607B68DA687B681B6C3868114625
:1048F0001A4601F057F807F10807BD4680BD00BF12
:1049000080B582B000AF786000F00CF914E07B68ED
:104910005B6A002B15D07B6803F124031846FDF772
:10492000D9FC0346002B01D0FDF7C0FD7B689B6CD2
:1049300003F1FF327B689A647B689B6C002BE6DC9A
:1049400000E000BF7B684FF0FF329A6400F000F98E
:1049500000F0E8F814E07B681B69002B15D07B6839
:1049600003F110031846FDF7B5FC0346002B01D0F8
:10497000FDF79CFD7B685B6C03F1FF327B685A643A
:104980007B685B6C002BE6DC00E000BF7B684FF0CF
:10499000FF325A6400F0DCF807F10807BD4680BD1D
:1049A00080B584B000AF786000F0BCF87B689B6B8A
:1049B000002B14BF00230123FB6000F0C9F8FB6843
:1049C000184607F11007BD4680BD00BF80B584B012
:1049D00000AF786000F0A6F87B689B6B1A467B6896
:1049E000DB6B9A4214BF00230123FB6000F0B0F898
:1049F000FB68184607F11007BD4680BD80B485B03E
:104A000000AFF860B9607A60FB68A3F10403FB6053
:104A1000FB684FF080721A60FB68A3F10403FB602F
:104A2000BA68FB681A60FB68A3F10403FB60FB68CB
:104A30004FF000021A60FB68A3F11403FB607A6870
:104A4000FB681A60FB68A3F10403FB60FB686FF06E
:104A500002021A60FB68A3F12003FB60FB681846A2
:104A600007F11407BD4680BC704700BF054B1968AD
:104A70000868B0E8F04F80F309884FF0000080F339
:104A800011887047CC00002003480068006880F35C
:104A9000088862B600DF00BF08ED00E080B500AF17
:104AA0004EF62053CEF200034EF62052CEF2000214
:104AB000126842F470021A604EF62053CEF20003E0
:104AC0004EF62052CEF20002126842F070421A6096
:104AD00000F09EF840F2C403C2F200034FF000025F
:104AE0001A6000F0A9F84EF63473CEF200034EF6C9
:104AF0003472CEF20002126842F040421A60FFF7B0
:104B0000C3FF4FF00003184680BD00BF80B400AF64
:104B10004EF60453CEF200034FF080521A60BD46A9
:104B200080BC704780B400AF4FF0500080F3118814
:104B300040F2C403C2F200031B6803F1010240F219
:104B4000C403C2F200031A60BD4680BC704700BFB8
:104B500080B400AF40F2C403C2F200031B6803F14B
:104B6000FF3240F2C403C2F200031A6040F2C403F1
:104B7000C2F200031B68002B03D14FF0000080F34A
:104B80001188BD4680BC7047EFF30980114B1A684D
:104B90001EF0100F08BF20ED108A20E9F04F1060C2
:104BA0002DE908404FF0500080F31188FDF79AFA84
:104BB0004FF0000080F31188BDE8084019680868CC
:104BC000B0E8F04F1EF0100F08BFB0EC108A80F371
:104BD00009887047CC00002080B582B000AF4EF647
:104BE0000453CEF200034FF080521A604FF00003DE
:104BF0007B604FF0500080F31188FDF78BF94FF088
:104C0000000080F3118807F10807BD4680BD00BF92
:104C100080B400AF4EF21403CEF200034BF67F32A5
:104C20001A604EF21003CEF200034FF007021A6032
:104C3000BD4680BC704700BFDFF80C00016841F43E
:104C4000700101607047000088ED00E080B485B01D
:104C500000AF786039604FF00003FB817B681B88F0
:104C6000FB81FB8903F44153FB813B681A883B6855
:104C70005B8842EA03039AB23B689B8842EA0303DB
:104C80009AB23B68DB8842EA03039AB23B681B890D
:104C900042EA03039AB23B685B8942EA03039AB291
:104CA0003B689B8942EA03039AB23B68DB8942EA8C
:104CB00003039AB2FB8942EA0303FB817B68FA890A
:104CC0001A807B689B8B9BB223F400639AB27B684B
:104CD0009A833B681A8A7B681A8207F11407BD46DB
:104CE00080BC704780B483B000AF78600B46FB7027
:104CF000FB78002B08D07B681B889BB243F04003F5
:104D00009AB27B681A8007E07B681B889BB223F00D
:104D100040039AB27B681A8007F10C07BD4680BC3D
:104D2000704700BF80B483B000AF78600B46FB7063
:104D3000FB78002B08D07B681B889BB243F40053A0
:104D40009AB27B681A8007E07B681B889BB223F4C9
:104D500000539AB27B681A8007F10C07BD4680BCED
:104D6000704700BF80B485B000AF78604FF000039B
:104D7000FB604FF47053C4F20103FB607B689B79C6
:104D8000002B00F087804FF47053C4F201034FF4FE
:104D90007052C4F20102126811467A6812686FEA12
:104DA000020201EA02021A604FF47053C4F20103D6
:104DB0004FF47052C4F20102526811467A681268C8
:104DC0006FEA020201EA02025A607B681B79FA6804
:104DD000D318FB60FB68FA6811687A68126841EAC8
:104DE00002021A604FF47053C4F201034FF4705280
:104DF000C4F20102926811467A6812686FEA0202F0
:104E000001EA02029A604FF47053C4F201034FF4B6
:104E10007052C4F20102D26811467A6812686FEAD1
:104E2000020201EA0202DA607B685B79102B1ED174
:104E30004FF47053C4F201034FF47052C4F20102F4
:104E4000926811467A68126841EA02029A604FF449
:104E50007053C4F201034FF47052C4F20102D268DD
:104E600011467A68126841EA0202DA6021E04FF4E2
:104E70007053C4F20103FB607B685B79FA68D31856
:104E8000FB60FB68FA6811687A68126841EA0202FE
:104E90001A600EE07B681B79FA68D318FB60FB6828
:104EA000FA6811687A6812686FEA020201EA02027F
:104EB0001A6007F11407BD4680BC704780B485B006
:104EC00000AF78604FF00003FB734FF00003BB604E
:104ED0004FF47053C4F201031B681A467B6802EA60
:104EE0000303BB604FF47053C4F201035B691A46BD
:104EF0007B6802EA0303002B06D0BB68002B03D0BB
:104F00004FF00103FB7302E04FF00003FB73FB7BE8
:104F1000184607F11407BD4680BC704780B483B0C3
:104F200000AF78604FF47053C4F201037A685A619D
:104F300007F10C07BD4680BC704700BF80B584B048
:104F400004AF00F033F800F0D1F845F61053C0F686
:104F500000034FF0010200924FF0000201924FF067
:104F6000000202924FF00002039245F25D20C0F66B
:104F7000000019464FF080024FF00003FCF7B4FC2C
:104F800041F27463C2F200034FF000021A714FF055
:104F90000100FFF731FA024641F2F863C2F2000362
:104FA0001A604FF000031846BD4680BD80B588B03A
:104FB00000AF4FF002004FF00101FCF71BFA4FF475
:104FC00080504FF00101FCF771FA4FF03803BB61DC
:104FD0004FF002037B774FF002033B774FF0000363
:104FE000BB774FF00003FB7707F118034FF48060A5
:104FF000C4F202001946FEF79DFE4FF04003BB616C
:105000004FF001033B774FF00003BB774FF00003F5
:10501000FB774FF002037B7707F118034FF48060B2
:10502000C4F202001946FEF785FE4FF48060C4F218
:1050300002004FF003014FF00502FEF727FF4FF487
:105040008060C4F202004FF004014FF00502FEF749
:105050001DFF4FF48060C4F202004FF005014FF0D5
:105060000502FEF713FF4FF00003BB804FF482737D
:10507000FB804FF400633B814FF000037B814FF0D6
:105080000003BB814FF40073FB814FF020033B8290
:105090004FF000037B8207F104034FF44050C4F249
:1050A00001001946FFF7D2FD4FF44050C4F2010051
:1050B0004FF00001FFF736FE4FF44050C4F20100FC
:1050C0004FF00101FFF70EFE4FF48063C4F20203BC
:1050D0004FF48062C4F20202528B92B242F040025C
:1050E00092B25A8307F12007BD4680BD80B588B0D3
:1050F00000AF4FF006004FF00101FCF77BF94FF4D1
:1051000080404FF00101FCF7A3F94FF42043BB614D
:105110004FF002037B774FF002033B774FF0000321
:10512000BB774FF00003FB7707F118034FF4806063
:10513000C4F202001946FEF7FDFD4FF48043BB6147
:105140004FF002037B774FF002033B774FF00003F1
:10515000BB774FF00003FB7707F118034FF4806033
:10516000C4F202001946FEF7E5FD4FF04003BB61B3
:105170004FF001033B774FF00003BB774FF0000384
:10518000FB774FF002037B7707F118034FF40060C1
:10519000C4F202001946FEF7CDFD4FF48060C4F260
:1051A00002004FF00D014FF00502FEF76FFE4FF4C5
:1051B0008060C4F202004FF00E014FF00502FEF7CE
:1051C00065FE4FF48060C4F202004FF00F014FF013
:1051D0000502FEF75BFE4FF00003BB804FF48273C5
:1051E000FB804FF400633B814FF000037B814FF065
:1051F0000003BB814FF40073FB814FF020033B821F
:105200004FF000037B8207F104034FF46050C4F2B7
:1052100000001946FFF71AFD4FF46050C4F2000079
:105220004FF00001FFF77EFD4FF46050C4F2000024
:105230004FF00101FFF756FD4FF40063C4F2020383
:105240004FF40062C4F20202528B92B242F040026A
:1052500092B25A8307F12007BD4680BD80B584B065
:1052600000AF78604FF00003FB73FBF793FF41F250
:10527000F863C2F200031B6818464FF000014FF0BC
:10528000FF324FF00003FFF7B9F90346012B40F05E
:1052900011814FF00003FB73FAE04FF48063C4F216
:1052A00002034FF48062C4F20202528B92B242F0C7
:1052B000400292B25A834FF40063C4F202034FF4E7
:1052C0000062C4F20202528B92B242F0400292B2E9
:1052D0005A83FB7B042B66D941F20C63C2F20003B4
:1052E00093F850301A46FB7BA3F1050342FA03F30F
:1052F00003F00103DBB2002B11D04FF44053C4F292
:105300000103FA7B41F20C61C2F200014FEA420252
:105310008A18528822F0FF0292B29A810DE04FF46F
:105320004053C4F20103FA7B41F20C61C2F2000166
:105330004FEA42028A1852889A8141F20C63C2F203
:10534000000393F866301A46FB7BA3F1050342FA8B
:1053500003F303F00103DBB2002B13D04FF46053CF
:10536000C4F20003FA7B41F20C61C2F2000102F1C7
:105370000F024FEA42028A18528822F0FF0292B2CC
:105380009A8131E04FF46053C4F20003FA7B41F29A
:105390000C61C2F2000102F10F024FEA42028A18C8
:1053A00052889A8120E04FF44053C4F20103FA7B03
:1053B00041F20C61C2F200014FEA42028A1852889F
:1053C0009A814FF46053C4F20003FA7B41F20C61FE
:1053D000C2F2000102F10F024FEA42028A1852881B
:1053E0009A8101E0FFF792FB4FF44053C4F20103AE
:1053F0001B899BB203F08003002BF3D14FF4605361
:10540000C4F200031B899BB203F08003002BE9D197
:10541000FFF77CFB4FF48063C4F202034FF4806219
:10542000C4F20202128B92B242F0400292B21A838C
:105430004FF40063C4F202034FF40062C4F20202AC
:10544000128B92B242F0400292B21A83FFF75EFBD7
:105450004FF48063C4F202034FF48062C4F202028C
:10546000528B92B242F0400292B25A834FF40063E0
:10547000C4F202034FF40062C4F20202528B92B2F1
:1054800042F0400292B25A83FB7B03F10103FB73AB
:10549000FB7B0C2B7FF601AF41F2F863C2F20003F5
:1054A0001B6818464FF000014FF000024FF0000358
:1054B000FEF7F8FF41F27463C2F200031B6803F1C8
:1054C000010241F27463C2F200031A604FF06400FB
:1054D000FCF7FAFAC9E600BF80B483B000AF786089
:1054E0004FF46D43CEF200037A6842F0BE6242F49C
:1054F0002022DA6007F10C07BD4680BC704700BF70
:1055000080B485B000AF78604FF00003FB734FF0BC
:105510000003BB734FF00F037B737B68DB78002BBA
:1055200047D04FF46D43CEF20003DB686FEA03030C
:1055300003F4E0634FEA1323FB73FB7BC3F1040323
:10554000BB737A7BFB7B42FA03F37B737B685B78EC
:105550001A46BB7B02FA03F3FB737B689A787B7B6A
:1055600002EA0303DAB2FB7B42EA0303FB73FB7B31
:105570004FEA0313FB734FF46143CEF200037A68E2
:1055800012789B18FA7B83F800234FF46143CEF224
:1055900000037A6812784FEA5212D2B27968097819
:1055A00001F01F014FF0010000FA01F143F8221051
:1055B00014E04FF46143CEF200037A6812784FEAA8
:1055C0005212D2B27968097801F01F014FF0010040
:1055D00000FA01F102F1200243F8221007F114074A
:1055E000BD4680BC704700BF80B584B000AF786016
:1055F0004FF00003FB607B6803F00703002B05D02E
:105600007B6823F0070303F108037B60FCF7BAFB18
:1056100041F2E853C2F200031A687B68D21841F2E3
:10562000FF339A4224D841F2E853C2F200031A68C9
:105630007B68D21841F2E853C2F200031B689A4219
:1056400016D941F2E853C2F200031A6840F2E81397
:10565000C2F20003D318FB6041F2E853C2F2000328
:105660001A687B68D21841F2E853C2F200031A604C
:10567000FCF79AFBFB68002B01D1FBF7B1FEFB683E
:10568000184607F11007BD4680BD00BF80B483B047
:1056900000AF786007F10C07BD4680BC704700BFC3
:1056A00080B485B000AF786039604FF00003FB81B3
:1056B0007B681B88FB817A684FF00003C4F201030A
:1056C0009A421FD07A684FF48063C4F201039A4271
:1056D00018D07B68B3F1804F14D07A684FF48063A0
:1056E000C4F200039A420DD07A684FF40063C4F20A
:1056F00000039A4206D07A684FF44063C4F2000374
:105700009A4209D1FB8923F07003FB813B685A88D8
:10571000FB8942EA0303FB817A684FF48053C4F2A9
:1057200000039A4210D07A684FF4A053C4F20003E9
:105730009A4209D0FB8923F44073FB813B681A89A4
:10574000FB8942EA0303FB817B68FA891A803B6884
:105750005A687B68DA623B681A887B681A857A68BF
:105760004FF00003C4F201039A4206D07A684FF466
:105770008063C4F201039A4204D13B689B7A1A46C3
:105780007B681A867B684FF001029A8207F1140742
:10579000BD4680BC704700BF80B483B000AF786066
:1057A0007B684FF0FF325A607B684FF000021A802E
:1057B0007B684FF000021A817B684FF000025A802C
:1057C0007B684FF000029A7207F10C07BD4680BC5F
:1057D000704700BF80B483B000AF78600B46FB70A9
:1057E000FB78002B08D07B681B889BB243F0010339
:1057F0009AB27B681A8007E07B681B889BB223F013
:1058000001039AB27B681A8007F10C07BD4680BC81
:10581000704700BF80B483B000AF786013460A467B
:105820007A807B707B78002B09D07B689B899AB249
:105830007B8842EA03039AB27B689A810BE07B681B
:105840009B899AB27B886FEA03039BB202EA030347
:105850009AB27B689A8107F10C07BD4680BC7047FD
:1058600080B487B000AFF86079813A81FB804FF057
:105870000003FB824FF00003BB824FF000037B82EA
:10588000FB681B89FB82FB681B8BBB82FB681B8C44
:105890007B82FB8A23F00703FB82FA8A7B8942EA38
:1058A0000303FB82BB8A23F4407323F00303BB8210
:1058B000BB8A43F4807343F00103BB827B8A23F0ED
:1058C00022037B82FB884FEA03139AB23B8942EAA8
:1058D00003039AB27B8A42EA03037B82FB68FA8A5B
:1058E0001A81FB68BA8A1A83FB687A8A1A8407F1DC
:1058F0001C07BD4680BC704780B400AFBFF34F8F1C
:105900004FF46D42CEF200024FF46D43CEF200032D
:10591000DB6803F4E0614FF00403C0F2FA5341EA9C
:105920000303D360BFF34F8FFEE700BF80B500AF26
:105930004FF48030FFF7C2FA0346002B05D0FFF783
:10594000DBFF4FF48030FFF7E9FA80BD032A70B423
:1059500004460D4612D941EA000313F0030F0FD19C
:105960000B46044651F8045B50F8046BAE4204D178
:10597000043A0446032A0B46F2D81D46104672B17B
:1059800021782B78994209D1501E2A4638B114F853
:10599000011F013812F8013F9942F7D0C81A70BCB4
:1059A000704700BF032A2DE9F00109D82AB100236E
:1059B000CC5CC45401339342FAD1BDE8F001704786
:1059C0000B468218014603E02478013301F8014BAD
:1059D00011F0030F1C46F7D113F003055DD06E42A2
:1059E000C5F1040CED009B594FEACC0C08E00434DF
:1059F000A7593B4607FA0CF748EA070741F8047B2A
:105A0000571A23FA05F8032FF1DC03E014F8013BE1
:105A100001F8013B8A42F9D8CFE753F8404C41F8EE
:105A2000404C53F83C4C41F83C4C53F8384C41F84E
:105A3000384C53F8344C41F8344C53F8304C41F85E
:105A4000304C53F82C4C41F82C4C53F8284C41F86E
:105A5000284C53F8244C41F8244C53F8204C41F87E
:105A6000204C53F81C4C41F81C4C53F8184C41F88E
:105A7000184C53F8144C41F8144C53F8104C41F89E
:105A8000104C53F80C4C41F80C4C53F8084C41F8AE
:105A9000084C53F8044C41F8044C561A1D460C4669
:105AA000403340313F2EB8DC2B460FE053F8101C3A
:105AB00044F8101C53F80C1C44F80C1C53F8081C38
:105AC00044F8081C53F8041C44F8041C161B1D461B
:105AD00010330F2E214604F11004E7DC2B4602E0C0
