:020000040800F2
:10000000141F0020D9190008411A0008411A0008DD
:10001000411A0008411A0008411A000800000000B7
:10002000000000000000000000000000C55C0008A7
:10003000411A000800000000E15D0008315E000880
:10004000411A0008856B0008411A0008411A00088F
:10005000411A0008411A0008290F0008411A000837
:10006000411A0008411A0008411A0008411A000804
:10007000411A0008411A0008411A0008411A0008F4
:10008000411A0008411A0008411A0008411A0008E4
:10009000411A0008411A0008411A0008690F0008B7
:1000A000411A000821200008411A0008411A0008DE
:1000B000411A0008411A0008411A0008411A0008B4
:1000C000411A0008411A0008411A0008411A0008A4
:1000D000411A0008411A0008411A0008411A000894
:1000E000411A0008411A0008411A0008411A000884
:1000F000411A0008411A0008411A0008411A000874
:10010000411A0008411A0008411A0008411A000863
:10011000411A0008411A0008411A0008411A000853
:10012000411A0008411A0008411A0008411A000843
:10013000411A0008411A0008411A0008411A000833
:10014000411A0008411A0008411A0008411A000823
:10015000411A0008411A0008411A0008411A000813
:10016000411A0008411A0008411A0008411A000803
:10017000411A0008411A0008411A0008411A0008F3
:10018000411A0008411A000890B484B000AF02463A
:100190000B46FA71BB714FF00003FB60BB7903F0B3
:1001A00003034FEA83034FF00F0202FA03F3FB60ED
:1001B0004FF46053C4F20103BA794FEA9202D2B20B
:1001C00010464FF46052C4F20102B9794FEA91012E
:1001D000C9B201F1020152F821201146FA686FEA12
:1001E0000202114000F1020243F822104FF4605362
:1001F000C4F20103BA794FEA9202D2B210464FF428
:100200006052C4F20102B9794FEA9101C9B201F119
:10021000020152F821201146FC79BA7902F003025A
:100220004FEA820204FA02F2114300F1020243F89B
:10023000221007F11007BD4690BC7047F0B587B09B
:1002400000AF03463960FB714FF00003FB754FF0C0
:100250000003BB754FF000037B754FF000033B7547
:10026000FB794FF0160202FB03F2054BD3183B61FA
:100270003B691B88022B05D94FF00003A2E300BFA6
:1002800050160020386806F0BBFD03463B7541F26E
:100290001073C2F200031B6818464FF000014FF0C4
:1002A000FF324FF0000305F0D5FA0346012B40F072
:1002B00088833B695B8819463B691B883A69D0890A
:1002C00041F21462C2F200024FF01A0404FB03F47C
:1002D0000B464FEA03135B1A4FEA4303E318D318A4
:1002E00003F1020302461A803B695B8819463B69A9
:1002F0001B883A69108A41F21462C2F200024FF080
:100300001A0404FB03F40B464FEA03135B1A4FEA8B
:100310004303E318D31803F1040302461A803B6930
:100320005B8819463B691B883A69908941F21462DF
:10033000C2F200024FF01A0404FB03F40B464FEA2A
:1003400003135B1A4FEA4303E318D31803F10603C0
:1003500002461A803B695B8819463B691B883A69EB
:10036000108941F21462C2F200024FF01A0404FB39
:1003700003F40B464FEA03135B1A4FEA4303E318F7
:10038000D31803F1080302461A803B695B881946BB
:100390003B691B883A69508941F21462C2F200023B
:1003A0004FF01A0404FB03F40B464FEA03135B1AE5
:1003B0004FEA4303E318D31803F10A0302461A80F5
:1003C0003B695B8819463B691B8841F21462C2F2A3
:1003D00000024FF01A0000FB03F00B464FEA031334
:1003E0005B1A4FEA4303C318D31803F10C034FF40D
:1003F00080721A803B695B8819463B691B8841F211
:100400001462C2F200024FF01A0000FB03F00B4628
:100410004FEA03135B1A4FEA4303C318D31803F1DF
:100420000E034FF400721A803B695B8819463B69E2
:100430001B8841F21462C2F200024FF01A0000FB66
:1004400003F00B464FEA03135B1A4FEA4303C3184A
:10045000D31803F110034FF440721A803B695B8894
:1004600019463B691B8841F21462C2F200024FF048
:100470001A0000FB03F00B464FEA03135B1A4FEA26
:100480004303C318D31803F112034FF480621A8098
:100490003B695B8819463B691B8841F21462C2F2D2
:1004A00000024FF01A0000FB03F00B464FEA031363
:1004B0005B1A4FEA4303C318D31803F114034FF434
:1004C000A0621A803B695B8819463B691B8841F230
:1004D0001462C2F200024FF01A0000FB03F00B4658
:1004E0004FEA03135B1A4FEA4303C318D31803F10F
:1004F00016034FF4C0621A803B695B8819463B695A
:100500001B8841F21462C2F200024FF01A0000FB95
:1005100003F00B464FEA03135B1A4FEA4303C31879
:10052000D31803F118034FF4E0621A803B695B882B
:1005300019463B691B8841F21462C2F200024FF077
:100540001A0000FB03F00B464FEA03135B1A4FEA55
:100550004303C318D31803F11A034FF400621A803F
:100560007B7D03F105037B7597F914300A2B02DDBF
:100570004FF00A033B754FF00003FB750AE297F951
:1005800017303A68D3181B782F2B65D997F9173095
:100590003A68D3181B78392B5ED897F917303A6828
:1005A000D3181B78A3F1300246F6DC63C0F60003D3
:1005B0009B18DB7FFB733B695B881C463B691B8890
:1005C00018467E7D3B695B881D463B691B881A4641
:1005D00097F815E041F21461C2F2000113464FEAA8
:1005E00043039B184FEA83039B182A464FEA0212E3
:1005F000521B9B1873444FEA4303CB185B889AB293
:10060000FB7B99B27B7DA3F104039BB24FEA0323EA
:100610009BB29BB241EA03039BB242EA03039BB243
:100620009DB241F21461C2F2000103464FEA430356
:100630001B184FEA83031B1822464FEA0212121BB3
:100640009B189B194FEA4303CB182A465A807B7D9F
:1006500003F101037B7599E197F917303A68D318D4
:100660001B782E2B40F0178197F9172097F914303B
:1006700003F1FF339A4280F2CD8097F9173003F1EE
:1006800001033A68D3181B782E2B40F082803B6917
:100690005B881C463B691B8818467E7D3B695B88EE
:1006A0001D463B691B881A4697F815E041F2146114
:1006B000C2F2000113464FEA43039B184FEA83033B
:1006C0009B182A464FEA0212521B9B1873444FEAAA
:1006D0004303CB185B8843F080039DB241F2146161
:1006E000C2F2000103464FEA43031B184FEA83039B
:1006F0001B1822464FEA0212121B9B189B194FEA45
:100700004303CB182A465A803B695B881C463B69E9
:100710001B8818467B7D03F1FF363B695B881D46CD
:100720003B691B881A467B7D03F1FF3E41F2146151
:10073000C2F2000113464FEA43039B184FEA8303BA
:100740009B182A464FEA0212521B9B1873444FEA29
:100750004303CB185B8843F080039DB241F21461E0
:10076000C2F2000103464FEA43031B184FEA83031A
:100770001B1822464FEA0212121B9B189B194FEAC4
:100780004303CB182A465A807B7D03F101037B7516
:10079000FCE03B695B881C463B691B8818467B7DF7
:1007A00003F1FF363B695B881D463B691B881A468F
:1007B0007B7D03F1FF3E41F21461C2F2000113465A
:1007C0004FEA43039B184FEA83039B182A464FEADC
:1007D0000212521B9B1873444FEA4303CB185B88E9
:1007E00043F080039DB241F21461C2F2000103465E
:1007F0004FEA43031B184FEA83031B1822464FEAB4
:100800000212121B9B189B194FEA4303CB182A466E
:100810005A80BBE03B695B881C463B691B881846D5
:100820007B7D03F1FF363B695B881D463B691B8876
:100830001A467B7D03F1FF3E41F21461C2F20001D2
:1008400013464FEA43039B184FEA83039B182A463B
:100850004FEA0212521B9B1873444FEA4303CB1812
:100860005B8843F080039DB241F21461C2F2000143
:1008700003464FEA43031B184FEA83031B18224623
:100880004FEA0212121B9B189B194FEA4303CB1825
:100890002A465A807AE04FF00A03BB756BE097F95D
:1008A00017303A68D3181A7897F9161046F6DC63B1
:1008B000C0F600035B5C9A4259D197F9162046F6C0
:1008C000DC63C0F600039B18DB7FBB733B695B886E
:1008D0001C463B691B8818467E7D3B695B881D462C
:1008E0003B691B881A4697F815E041F21461C2F281
:1008F000000113464FEA43039B184FEA83039B18FA
:100900002A464FEA0212521B9B1873444FEA4303D4
:10091000CB185B889AB2BB7B99B27B7DA3F10403B1
:100920009BB24FEA03239BB29BB241EA03039BB203
:1009300042EA03039BB29DB241F21461C2F200018C
:1009400003464FEA43031B184FEA83031B18224652
:100950004FEA0212121B9B189B194FEA4303CB1854
:100960002A465A807B7D03F101037B7507E0BB7D3E
:1009700003F10103BB7597F916301E2B8FDD7A7DCD
:100980003B69DB8803F105039A420BDCFB7D03F135
:100990000103FB7597F9172097F914309A42FFF677
:1009A000EEAD00E000BF41F21073C2F200031B681D
:1009B00018464FF000014FF000024FF0000304F022
:1009C00037FE7B7D184607F11C07BD46F0BD00BF12
:1009D00080B586B004AF4FF002004FF0010101F086
:1009E000A1F94FF004033B604FF000037B714FF01F
:1009F00001033B714FF00003BB714FF00003FB712B
:100A00003B464FF48060C4F20200194604F038FA05
:100A10004FF48063C4F202034FF004025A8346F697
:100A20001C73C0F600034FF00102009241F2F45231
:100A3000C2F2000201924FF0000202924FF0000257
:100A4000039240F68120C0F6000019464FF04002A4
:100A50004FF0000301F0EAFB41F2F453C2F200034D
:100A60001B68184601F000FD41F27C63C2F20003EE
:100A70004FF0010283F82C2007F10807BD4680BD26
:100A800080B582B000AF786041F2F053C2F200034B
:100A90001B78012B40F0CC8041F2F053C2F20003EE
:100AA0005B78042B00F2C08001A252F823F000BF53
:100AB000C50A0008F90A0008590B0008E50B0008F0
:100AC000F50B00084FF48063C4F202034FF00402F8
:100AD0001A834FF0C80001F099FC4FF48063C4F210
:100AE00002034FF004025A8341F2F053C2F20003B2
:100AF0004FF000021A709BE04FF48063C4F20203CF
:100B00004FF004021A834FF0640001F07FFC4FF4B1
:100B10008063C4F202034FF004025A834FF0640072
:100B200001F074FC4FF48063C4F202034FF004023E
:100B30001A834FF0640001F069FC4FF48063C4F243
:100B400002034FF004025A8341F2F053C2F2000351
:100B50004FF000021A706BE04FF48063C4F202039E
:100B60004FF004021A834FF0320001F04FFC4FF4B3
:100B70008063C4F202034FF004025A834FF0320044
:100B800001F044FC4FF48063C4F202034FF004020E
:100B90001A834FF0320001F039FC4FF48063C4F245
:100BA00002034FF004025A834FF0320001F02EFC92
:100BB0004FF48063C4F202034FF004021A834FF033
:100BC000320001F023FC4FF48063C4F202034FF0C3
:100BD00004025A8341F2F053C2F200034FF00002C4
:100BE0001A7025E04FF48063C4F202034FF0040250
:100BF0001A831DE04FF48063C4F202034FF0040235
:100C00001A834FF47A7001F001FC4FF48063C4F250
:100C100002034FF004025A8341F2F053C2F2000380
:100C20004FF000021A7003E04FF4FA7001F0EEFB8F
:100C300041F27C63C2F200039B6A03F1010241F2BC
:100C40007C63C2F200039A6241F2F453C2F20003E1
:100C50001B68184601F008FC41F27C63C2F20003F5
:100C60004FF0010283F82C200EE700BF80B582B060
:100C700000AF13460246FA710A46BA717B71BB791E
:100C800003F00103DBB2002B2AD041F2F053C2F291
:100C900000031B78002B1AD17B79002B08D141F27D
:100CA000F453C2F200031B68184601F06DFC07E024
:100CB00041F2F453C2F200031B68184601F0C2FC73
:100CC00041F2F053C2F200034FF001021A7041F2F8
:100CD0007C63C2F200034FF0000283F82C2024E072
:100CE00041F2F053C2F200031B78012B0ED141F206
:100CF000F453C2F200031B68184601F0B5FB41F241
:100D0000F053C2F200034FF000021A7041F27C630C
:100D1000C2F200034FF0010283F82C204FF48063ED
:100D2000C4F202034FF004025A83FB7903F0070375
:100D3000DAB241F2F053C2F200035A7007F1080729
:100D4000BD4680BD80B58AB004AF4FF001004FF0C2
:100D5000010100F0E7FF4FF480404FF0010101F086
:100D60003DF84FF0C1033B614FF000033B754FF07E
:100D70000103FB7507F110034FF00000C4F20200FD
:100D8000194604F07DF84FF000004FF00001FFF726
:100D9000FBF94FF00103BB604FF000033B734FF0D2
:100DA0000C037B734FF00103BB7307F10803184674
:100DB00005F004F94FF000004FF00601FFF7E4F9E9
:100DC0004FF04003BB604FF000033B734FF00C0348
:100DD0007B734FF00103BB7307F10803184605F05E
:100DE000EDF84FF000004FF00701FFF7CDF94FF09D
:100DF0008003BB604FF000033B734FF00C037B7329
:100E00004FF00103BB7307F10803184605F0D6F84D
:100E10004FF006033B714FF001037B714FF001036C
:100E2000BB714FF00103FB7107F10403184605F095
:100E300093FC4FF017033B714FF001037B714FF0B0
:100E40000103BB714FF00103FB7107F10403184666
:100E500005F082FC46F62473C0F600034FF0010251
:100E600000924FF0000201924FF0000202924FF008
:100E70000002039240F69560C0F6000019464FF05C
:100E800040024FF0000301F0D1F907F11807BD4609
:100E900080BD00BF80B582B000AF78604FF0000029
:100EA000C4F202004FF0010104F096F84FF0000088
:100EB000C4F202004FF0400104F08EF80346002B0C
:100EC00007D141F2F853C2F200034FF00202DA7682
:100ED00025E04FF00000C4F202004FF0800104F062
:100EE0007BF80346002B07D141F2F853C2F200030E
:100EF0004FF00102DA7612E041F2F853C2F2000339
:100F00004FF00002DA764FF47053C4F201034FF44D
:100F10007052C4F20102126842F0C0021A604FF02F
:100F2000640001F073FAB9E780B500AF4FF001003B
:100F300005F0F0F80346002B15D04FF0010005F046
:100F400019F94FF004004FF0010100F08FFB4FF44E
:100F50007053C4F201034FF47052C4F201021268DC
:100F600022F001021A6080BD80B500AF4FF0400052
:100F700005F0D0F80346002B15D04FF0400005F0E7
:100F8000F9F84FF002004FF0010100F06FFB4FF451
:100F90007053C4F201034FF47052C4F2010212689C
:100FA00022F040021A604FF0800005F0B3F80346CB
:100FB000002B15D04FF0800005F0DCF84FF0030057
:100FC0004FF0010100F052FB4FF47053C4F20103E3
:100FD0004FF47052C4F20102126822F080021A60CB
:100FE00080BD00BF80B483B000AF0346FB714FF0FB
:100FF0002003C4F20E23FA791A6007F10C07BD46EC
:1010000080BC704780B483B000AF0346FB714FF0E3
:10101000A403C4F20E23FA791A6007F10C07BD4647
:1010200080BC704780B582B000AF4FF004004FF035
:10103000010100F077FE4FF00F033B604FF000031B
:101040007B714FF001033B714FF00103BB714FF017
:101050000003FB713B464FF40060C4F202001946E6
:1010600003F00EFF4FF40063C4F202034FF00F02CF
:101070005A8341F2F853C2F200034FF48042C4F2A3
:1010800002021A6041F2F853C2F200034FF000026C
:101090001A7641F2F853C2F200034FF000029A763A
:1010A00041F2F853C2F200034FF000025A7641F2C7
:1010B000F853C2F200031B681A6A41F2F853C2F2F5
:1010C00000035A6041F2F853C2F200034FF40042A9
:1010D000C8F200025A6041F2F853C2F200034FF026
:1010E00000021A7441F2F853C2F200034FF00002FA
:1010F0005A6141F2F853C2F200034FF00002DA766F
:1011000007F10807BD4680BD80B582B000AF7860AA
:101110004FF0000000F052FA41F2F853C2F200031F
:101120001B7E002B40F0858041F2F853C2F2000391
:101130005B7E002B7DD14FF0010000F03FFA41F2C1
:10114000F853C2F200035A687B689A4230D941F2E0
:10115000F853C2F20003DB7E022B02D14FF00203F0
:1011600069E041F2F853C2F200031B689B8B1846FA
:1011700000F068FB03467A68D21A41F2F853C2F2D3
:1011800000039A6041F2F853C2F200031B685B8BC4
:10119000184600F057FB03467A68D21A41F2F8531A
:1011A000C2F20003DA604FF0000000F02FFA2FE0E7
:1011B00041F2F853C2F20003DB7E012B02D14FF063
:1011C000020338E041F2F853C2F200031B689B8B24
:1011D000184600F037FB02467B68D21841F2F853FC
:1011E000C2F200039A6041F2F853C2F200031B6896
:1011F0005B8B184600F026FB02467B68D21841F252
:10120000F853C2F20003DA604FF0010000F0FEF97B
:1012100041F2F853C2F200034FF000029A7641F215
:10122000F853C2F200034FF003021A764FF00003A6
:1012300001E04FF00103184607F10807BD4680BDE5
:1012400090B585B000AF02460B46FA71BB804FF0F7
:10125000000000F0B3F941F2F853C2F200031B7E24
:10126000002B40F0A38141F2F853C2F200035B7EF1
:10127000002B40F09B81FB79032B00F2948101A2AB
:1012800052F823F0951200089B1200084D13000835
:101290000F1400084FF000038AE141F2F853C2F244
:1012A0000003DB7E022B02D14FF0020380E141F20A
:1012B000F853C2F200035C68BB88184600F0C2FA1B
:1012C0000346E41841F2F853C2F200031B689B8BFB
:1012D000184600F0B7FA0346E21A41F2F853C2F298
:1012E00000039A6041F2F853C2F200035C68BB88C5
:1012F000184600F0A7FA0346E41841F2F853C2F288
:1013000000031B685B8B184600F09CFA0346E21A48
:1013100041F2F853C2F20003DA6041F2F853C2F22C
:1013200000034FF000029A7641F2F853C2F2000334
:101330004FF001021A764FF0010000F03FF94FF034
:10134000000000F063F94FF0000331E141F2F8537F
:10135000C2F20003DB7E012B02D14FF0020327E132
:10136000B7F90430002B03DABB88C3F10003BB805C
:1013700041F2F853C2F200035C68BB88184600F0E3
:1013800061FA0346E41A41F2F853C2F200031B6803
:101390009B8B184600F056FA0346E21841F2F853C8
:1013A000C2F200039A6041F2F853C2F200035C6893
:1013B000BB88184600F046FA0346E41A41F2F85397
:1013C000C2F200031B685B8B184600F03BFA034631
:1013D000E21841F2F853C2F20003DA6041F2F85326
:1013E000C2F200034FF000029A7641F2F853C2F2C3
:1013F00000034FF002021A764FF0010000F0DEF811
:101400004FF0010000F002F94FF00003D0E0BA887D
:1014100041F2F853C2F200031B681B8AD31A9BB235
:10142000FB814FF0010000F0C9F8B7F90E30002B36
:101430001BDB41F2F853C2F20003DB7E022B02D128
:101440004FF00203B4E041F2F853C2F200031B680C
:101450005C69FB89184600F0F5F90346E21841F291
:10146000F853C2F200039A601EE041F2F853C2F250
:101470000003DB7E012B02D14FF0020398E041F222
:10148000F853C2F200031B685C69FB89C3F10003D7
:101490009BB29BB2184600F0D5F90346E21A41F21E
:1014A000F853C2F200039A6041F2F853C2F200030B
:1014B0009A6841F2F853C2F200035B689A4215D36E
:1014C00041F2F853C2F200039C6841F2F853C2F2B1
:1014D00000031B685B8B184600F0B4F90346E21A60
:1014E00041F2F853C2F20003DA6014E041F2F8531B
:1014F000C2F200039C6841F2F853C2F200031B6879
:101500005B8B184600F09EF90346E21841F2F8534F
:10151000C2F20003DA60B7F90E30002B19DB41F29A
:10152000F853C2F200039C6841F2F853C2F2000380
:101530001B689B8B184600F085F90346E21A41F2BE
:10154000F853C2F200039A604FF0000000F05EF81A
:1015500018E041F2F853C2F200039C6841F2F853DC
:10156000C2F200031B689B8B184600F06BF9034620
:10157000E21841F2F853C2F200039A604FF0010002
:1015800000F044F841F2F853C2F200034FF00002B9
:101590009A7641F2F853C2F200034FF003021A7632
:1015A0004FF0000304E04FF0020301E04FF00103AD
:1015B000184607F11407BD4690BD00BF80B483B044
:1015C00000AF0346FB71FB79002B02D0012B0AD040
:1015D00013E04FF40063C4F202034FF008025A8391
:1015E0004FF000030BE04FF40063C4F202034FF02E
:1015F00008021A834FF0000301E04FF0020318467F
:1016000007F10C07BD4680BC704700BF80B483B0B3
:1016100000AF0346FB71FB79002B02D0012B0FD0EA
:101620001DE04FF40063C4F202034FF001021A837D
:101630004FF40063C4F202034FF002025A830EE03B
:101640004FF40063C4F202034FF001025A834FF4D7
:101650000063C4F202034FF002021A8300BF18466F
:1016600007F10C07BD4680BC704700BF80B584B051
:1016700000AF02460B46FA71BB714FF40063C4F22F
:1016800002034FF00B025A83FB7903F1FF33052B62
:101690006ED801A252F823F051170008D1160008A5
:1016A000F116000811170008B116000831170008DC
:1016B000BB794FF002004FF001011A46FFF7D6FA4E
:1016C00041F2F853C2F200034FF000025A7657E09D
:1016D000BB794FF004004FF001011A46FFF7C6FA3C
:1016E00041F2F853C2F200034FF002025A7647E08B
:1016F000BB794FF004004FF001011A46FFF7B6FA2C
:1017000041F2F853C2F200034FF002025A7637E07A
:10171000BB794FF004004FF001011A46FFF7A6FA1B
:1017200041F2F853C2F200034FF002025A7627E06A
:10173000BB794FF004004FF001011A46FFF796FA0B
:1017400041F2F853C2F200034FF002025A7617E05A
:10175000BB794FF004004FF001011A46FFF786FAFB
:1017600041F2F853C2F200034FF002025A7607E04A
:1017700041F2F853C2F200034FF002025A7600BF62
:101780004FF00103FB73BB79002B0FD141F20C73B7
:10179000C2F200031A6807F10F03104619464FF012
:1017A00000024FF0000303F043FF12E04FF000038C
:1017B000BB6041F20C73C2F20003196807F1080321
:1017C00007F10F02084611461A464FF0000303F0D6
:1017D000DBFF41F2F853C2F20003FA799A7641F244
:1017E000F853C2F200034FF000021A76184607F1D0
:1017F0001007BD4680BD00BF80B483B000AF42F289
:1018000010737B604FF40063C4F202034FF00402D4
:101810001A8300BF7B68002B0CBF00230123DBB2BF
:101820007A6802F1FF327A60002BF3D14FF4006343
:10183000C4F202034FF004025A8307F10C07BD46BD
:1018400080BC704780B483B000AF0346FB80FA8849
:1018500041F2F853C2F200031B68596841F2F85391
:10186000C2F200031B68DB68CB1A03FB02F241F2F1
:10187000F853C2F200031B681B88194641F2F85363
:10188000C2F200031B681B89CB1AB2FBF3F31846A4
:1018900007F10C07BD4680BC704700BF80B483B021
:1018A00000AF786041F2F853C2F200031B681B8856
:1018B0001A4641F2F853C2F200031B681B89D31A7F
:1018C0007A6802FB03F241F2F853C2F200031B688C
:1018D000596841F2F853C2F200031B68DB68CB1A67
:1018E000B2FBF3F39BB2184607F10C07BD4680BC70
:1018F000704700BF90B583B000AF786041F2F853F5
:10190000C2F200031B685A697B689A4214D841F2FC
:10191000F853C2F200031B681C8A41F2F853C2F26A
:1019200000031B685B697A68D31A1846FFF7B6FF95
:101930000346E3189BB213E041F2F853C2F20003EE
:101940001B681C8A41F2F853C2F200031B685A69F3
:101950007B68D31A1846FFF7A1FF0346E31A9BB230
:10196000184607F10C07BD4690BD00BF90B585B085
:1019700000AF0346FB8041F2F853C2F200031B683C
:101980001B8AFA88D31A9BB2FB81B7F90E30002B61
:101990000CDB41F2F853C2F200031B685C69FB895F
:1019A0001846FFF74FFF0346E3180FE041F2F853E4
:1019B000C2F200031B685C69FB89C3F100039BB2A0
:1019C0009BB21846FFF73EFF0346E31A184607F19D
:1019D0001407BD4690BD00BF80B582B000AF46F68B
:1019E0008473C0F600037B6040F20003C2F2000380
:1019F0003B600BE07B681A683B681A603B6803F148
:101A000004033B607B6803F104037B603A6840F2A7
:101A1000C803C2F200039A42ECD3074807494FF0CB
:101A200000028842B8BF40F8042BFADB00F058F9F6
:101A300007F10807BD4680BDC8000020141700202C
:101A400080B400AFFEE700BF80B500AF4FF4802048
:101A50004FF0010100F066F94FF080504FF00101A6
:101A600000F08EF980BD00BF80B586B000AFF86091
:101A7000B9601346FB714FF00003FB754FF0010096
:101A8000FFF7B0FA4FF00100FFF7BCFA4FF0000388
:101A9000FB750BE0FA68FB7DD318B968FA7D8A18EC
:101AA00012781A70FB7D03F10103FB75FA7DFB7957
:101AB0009A42EFD34FF00000FFF794FA07F11807AE
:101AC000BD4680BD80B483B000AF4FF00003FB7112
:101AD0004FF00003BB7140F2C803C2F200031B7851
:101AE00003F10103DAB240F2C803C2F200031A7034
:101AF00040F2C803C2F200031B78022B1AD84FF041
:101B00000003FB7112E0FA7941F21463C2F20003A0
:101B10004FF0160101FB02F29B1803F148034FF04E
:101B200000021A72FB7903F10103FB71FB79012BAF
:101B3000E9D9A6E040F2C803C2F200031B78052BE6
:101B400006D940F2C803C2F200034FF000021A7037
:101B500040F2C803C2F200031B78032B40F09080D0
:101B60004FF00003FB7186E0FA7941F21463C2F290
:101B700000034FF0160101FB02F29B1803F148032A
:101B8000DB79002B0ED0FA7941F21463C2F2000324
:101B90004FF0160101FB02F29B1803F148035B7A38
:101BA000002B1ED1FA7941F21463C2F200034FF008
:101BB000160101FB02F29B1803F148034FF00002EB
:101BC0005A72FA7941F21463C2F200034FF016011F
:101BD00001FB02F29B1803F148034FF000021A7256
:101BE00045E0FA7941F21463C2F200034FF01601A6
:101BF00001FB02F29B1803F148035B7AFF2B1CD018
:101C0000FA7941F21463C2F200034FF0160101FBAE
:101C100002F15B1803F148035B7A03F1FF33D9B299
:101C200041F21463C2F200034FF0160000FB02F20F
:101C30009B1803F148030A465A72F979FA7941F27E
:101C40001463C2F200034FF0160000FB02F29B186F
:101C500003F14803DA7941F21463C2F200034FF052
:101C6000160000FB01F15B1803F148031A72FB79BF
:101C700003F10103FB71FB79012B7FF675AF00E0E7
:101C800000BF07F10C07BD4680BC704780B483B02D
:101C900000AF13460246FA710A46BA717B71FA79AF
:101CA00041F21463C2F200034FF0160101FB02F28D
:101CB0009B1803F14803BA79DA71FA7941F2146397
:101CC000C2F200034FF0160101FB02F29B1803F170
:101CD00048037A795A7207F10C07BD4680BC7047F9
:101CE00080B500AF03F0B2FAFFF7AEFEFFF79AF946
:101CF00000F0FAF9FFF726F800F088F901F052FB3E
:101D0000FEF766FE01F0BEFE00F00EFDFEE700BF2E
:101D100080B400AFFEE700BF80B483B000AF78604E
:101D20003960FEE780B483B000AF78600B46FB708B
:101D3000FB78002B0ED04FF46053C4F202034FF433
:101D40006052C4F20202126B11467A6841EA020242
:101D50001A630FE04FF46053C4F202034FF4605271
:101D6000C4F20202126B11467A686FEA020201EABB
:101D700002021A6307F10C07BD4680BC704700BF22
:101D800080B483B000AF78600B46FB70FB78002B0B
:101D90000ED04FF46053C4F202034FF46052C4F209
:101DA0000202126C11467A6841EA02021A640FE0DC
:101DB0004FF46053C4F202034FF46052C4F20202C3
:101DC000126C11467A686FEA020201EA02021A6492
:101DD00007F10C07BD4680BC704700BF80B483B0DC
:101DE00000AF78600B46FB70FB78002B0ED04FF4F1
:101DF0006053C4F202034FF46052C4F20202526C08
:101E000011467A6841EA02025A640FE04FF46053C7
:101E1000C4F202034FF46052C4F20202526C114643
:101E20007A686FEA020201EA02025A6407F10C07BB
:101E3000BD4680BC704700BF80B400AF41F2146360
:101E4000C2F200034FF002021A7041F21463C2F2B0
:101E500000034FF00002DA8741F21463C2F200037C
:101E60004FF000029A8741F21463C2F200034FF070
:101E70000102A3F8402041F21463C2F200034FF0C4
:101E80000502A3F8422041F21463C2F2000340F6B7
:101E90000922A3F8442041F21463C2F200034FF474
:101EA0001062A3F8462041F21463C2F20003B3F8B3
:101EB000423003F1FF339BB29BB243F430639BB2D9
:101EC0009AB241F21463C2F20003A3F8482041F22F
:101ED0001463C2F2000340F60142A3F84A2041F223
:101EE0001463C2F200034FF47062A3F84C2041F275
:101EF0001463C2F200034FF0000283F84F2041F256
:101F00001463C2F2000393F84F2041F21463C2F24B
:101F1000000383F8502041F21463C2F200034FF033
:101F2000000283F8512041F21463C2F200034FF023
:101F30000102A3F8542041F21463C2F200034FF0EF
:101F40000002A3F8522041F21463C2F200034FF0E2
:101F50000102A3F8562041F21463C2F200034FF0CD
:101F60000502A3F8582041F21463C2F2000340F6C0
:101F70000922A3F85A2041F21463C2F200034FF47D
:101F80001062A3F85C2041F21463C2F20003B3F8BC
:101F9000583003F1FF339BB29BB243F430639BB2E2
:101FA0009AB241F21463C2F20003A3F85E2041F238
:101FB0001463C2F2000340F60142A3F8602041F22C
:101FC0001463C2F200034FF47062A3F8622041F27E
:101FD0001463C2F200034FF0000283F8652041F25F
:101FE0001463C2F2000393F8652041F21463C2F255
:101FF000000383F8662041F21463C2F200034FF03D
:10200000000283F86720BD4680BC704780B500AFF2
:10201000FFF712FF04F0BEF84FF00003184680BD32
:1020200080B500AF4FF00003C4F201034FF6FE721B
:102030001A824FF00003C4F201031B889BB203F025
:102040001003002B0CD041F2F853C2F200035B687E
:1020500003F1FF3241F2F853C2F200035A600BE081
:1020600041F2F853C2F200035B6803F1010241F24E
:10207000F853C2F200035A6041F2F853C2F200036F
:102080005B7E002B2FD141F2F853C2F200039B7EFE
:10209000002B28D141F2F853C2F200031B7E002B23
:1020A00021D041F2F853C2F200035A6841F2F853CA
:1020B000C2F20003DB689A4203D14FF00000FFF741
:1020C0007DFA41F2F853C2F200035A6841F2F85324
:1020D000C2F200039B689A4205D14FF005004FF011
:1020E0000101FFF7C3FA80BD80B586B000AF4FF0A5
:1020F00001004FF00101FFF715FE4FF001004FF016
:102100000101FFF76BFE07F10C03184604F070FCA9
:102110004FF001033B614FF00003BB814FF0000320
:10212000BB824FF01003FB8107F10C034FF000005E
:10213000C4F20100194604F0DFFB4FF00000C4F2C6
:1021400001004FF003014FF00A024FF00A0304F0C0
:10215000B3FC4FF00003C4F201034FF022021A84D3
:102160004FF00000C4F201004FF001014FF00102F6
:1021700004F07CFC4FF00000C4F201004FF00101BC
:1021800004F054FC4FF4407004F0D2FA4FF01D03F9
:102190003B724FF00F037B724FF00E03BB724FF098
:1021A0000103FB7207F10803184604F0D5FA4FF05B
:1021B00019033B7207F10803184604F0CDFA4FF4F7
:1021C00040733B604FF002033B714FF00103FB7122
:1021D0004FF00003BB714FF000037B713B464FF0A3
:1021E0000000C4F20200194602F04AFE4FF000005F
:1021F000C4F202004FF008014FF0010202F00CFFA0
:102200004FF00000C4F202004FF009014FF001024C
:1022100002F002FF4FF00003C4F201034FF000028E
:102220005A6207F11807BD4680BD00BF80B58AB06D
:1022300002AFF860B9603B601346FB80FB68002B7F
:1022400004D14FF0500080F31188FEE7BB6A042BE5
:1022500004D94FF0500080F31188FEE7FB88184640
:10226000396B00F077FFB861BB69002B00F0B080DC
:10227000BB691A6BFB8803F1FF334FEA8303D31862
:102280007B617B6923F007037B617B6903F00703B4
:10229000002B04D04FF0500080F31188FEE7FB883C
:1022A0000093B869B968BA6A7B6B00F031FE78694F
:1022B000F9683A6803F0CEFC03461A46BB691A6017
:1022C000FB6A002B02D0FB6ABA691A6003F056FD64
:1022D00040F2A413C2F200031B6803F1010240F2B2
:1022E000A413C2F200031A6040F2CC03C2F200034E
:1022F0001B68002B0FD140F2CC03C2F20003BA6975
:102300001A6040F2A413C2F200031B68012B18D11B
:1023100000F03CFE15E040F2B413C2F200031B686B
:10232000002B0ED140F2CC03C2F200031B68DA6A24
:10233000BB6A9A4205D840F2CC03C2F20003BA69E4
:102340001A60BB69DA6A40F2AC13C2F200031B6880
:102350009A4206D9BB69DA6A40F2AC13C2F20003B2
:102360001A6040F2C813C2F200031B6803F10102B5
:1023700040F2C813C2F200031A60BB69DA6A40F285
:10238000B013C2F200031B689A4206D9BB69DA6A2D
:1023900040F2B013C2F200031A60BB69DA6A134656
:1023A0004FEA83039B184FEA83031A4640F2D00397
:1023B000C2F20003D218BB6903F1040310461946A8
:1023C00002F0B4FE4FF00103FB6103F0EDFC02E00C
:1023D0004FF0FF33FB61FB69012B11D140F2B413C5
:1023E000C2F200031B68002B0AD040F2CC03C2F2F9
:1023F00000031B68DA6ABB6A9A4201D203F0B2FC9E
:10240000FB69184607F12007BD4680BD80B584B042
:1024100000AF78604FF00003FB607B68002B19D0A1
:1024200000F0C4F940F2A813C2F200031A687B68F6
:10243000D318BB6040F2CC03C2F200031B6803F167
:102440000403184602F0D8FEB86800F03DFE00F024
:10245000BFF9F860FB68002B01D103F083FC07F1A2
:102460001007BD4680BD00BF80B584B000AF786066
:1024700003F084FC40F2CC03C2F200031B687A68CC
:102480009A4202D14FF000037B607B68002B05D19C
:1024900040F2CC03C2F200031B6800E07B68FB60E3
:1024A000FB6803F10403184602F0A6FEFB689B6A72
:1024B000002B05D0FB6803F11803184602F09CFEC0
:1024C000FB6803F1040340F29010C2F200001946C9
:1024D00002F02CFE03F068FC7B68002B20D140F258
:1024E000B413C2F200031B68002B02D003F03AFCC5
:1024F00016E040F29013C2F200031B681A4640F245
:10250000A413C2F200031B689A4207D140F2CC0325
:10251000C2F200034FF000021A6001E000F0F6FA88
:1025200007F11007BD4680BD80B485B000AF78606C
:102530004FF00003FB607B68BB607B68002B04D11D
:102540004FF0500080F31188FEE7BB685A6940F2F3
:102550009013C2F200039A420ED1BB689A6A40F20D
:102560006413C2F200039A4206D0BB689B6A002B38
:1025700002D14FF00103FB60FB68184607F1140716
:10258000BD4680BC704700BF80B584B000AF7860A6
:102590007B68002B04D14FF0500080F31188FEE7D8
:1025A0007B68FB60FB68002B48D040F2CC03C2F292
:1025B00000031B68FA689A4240D003F0DFFBF8681A
:1025C000FFF7B2FF0346012B36D1FB6803F104038A
:1025D000184602F011FEFB68DA6A40F2B013C2F24C
:1025E00000031B689A4206D9FB68DA6A40F2B0130E
:1025F000C2F200031A60FB68DA6A13464FEA8303EB
:102600009B184FEA83031A4640F2D003C2F200033C
:10261000D218FB6803F104031046194602F086FD48
:10262000FB68DA6A40F2CC03C2F200031B68DB6A83
:102630009A4201D303F096FB03F0B6FB07F11007B3
:10264000BD4680BD80B586B000AF78604FF0000316
:102650007B617B68002B04D14FF0500080F3118820
:10266000FEE77B683B614FF00003FB604FF05000DA
:1026700080F311883869FFF757FF0346012B49D1D2
:1026800040F2B813C2F200031B68002B38D13B693B
:10269000DA6A40F2CC03C2F200031B68DB6A9A429A
:1026A00034BF002301237B613B6903F10403184617
:1026B00002F0A2FD3B69DA6A40F2B013C2F20003F5
:1026C0001B689A4206D93B69DA6A40F2B013C2F23B
:1026D00000031A603B69DA6A13464FEA83039B18CA
:1026E0004FEA83031A4640F2D003C2F20003D21825
:1026F0003B6903F104031046194602F017FD09E097
:102700003B6903F1180340F26410C2F2000019465D
:1027100002F00CFD4FF0000080F311887B69184631
:1027200007F11807BD4680BD80B586B004AF46F6F8
:102730003073C0F600034FF0000200924FF0000229
:1027400001924FF0000202924FF00002039242F613
:10275000ED60C0F6000019464FF046024FF000034E
:10276000FFF764FD78607B68012B13D14FF05000B8
:1027700080F3118840F2B413C2F200034FF001025B
:102780001A6040F2A813C2F200034FF000021A6070
:1027900003F0B0FA7B68002B04D14FF0500080F3B7
:1027A0001188FEE707F10807BD4680BD80B400AF81
:1027B00040F2B813C2F200031B6803F1010240F2B9
:1027C000B813C2F200031A60BD4680BC704700BF58
:1027D00090B583B000AF4FF000037B6040F2B813B8
:1027E000C2F200031B68002B04D14FF0500080F3AD
:1027F0001188FEE703F0C2FA40F2B813C2F20003F8
:102800001B6803F1FF3240F2B813C2F200031A60F2
:1028100040F2B813C2F200031B68002B40F0868020
:1028200040F2A413C2F200031B68002B7ED04FF0CD
:1028300000033B603DE040F26413C2F20003DB683A
:10284000DB681C4604F11803184602F0D5FC04F1BD
:102850000403184602F0D0FCE26A40F2B013C2F260
:1028600000031B689A4205D9E26A40F2B013C2F233
:1028700000031A60E26A13464FEA83039B184FEA8B
:1028800083031A4640F2D003C2F20003D21804F1C7
:1028900004031046194602F049FCE26A40F2CC03F8
:1028A000C2F200031B68DB6A9A4202D34FF00103B5
:1028B0003B6040F26413C2F200031B68002BBAD1E4
:1028C00040F2BC13C2F200031B68002B18D00DE0CD
:1028D00000F034F840F2BC13C2F200031B6803F1AD
:1028E000FF3240F2BC13C2F200031A6040F2BC1384
:1028F000C2F200031B68002BEAD14FF001033B60DA
:102900003B68012B06D040F2C013C2F200031B68E3
:10291000012B0BD14FF001037B6040F2C013C2F2D8
:1029200000034FF000021A6003F01CFA03F03CFAB7
:102930007B68184607F10C07BD4690BD80B584B092
:1029400000AF40F2B813C2F200031B68002B40F046
:10295000CD8040F2A813C2F200031B6803F101020C
:1029600040F2A813C2F200031A6040F2A813C2F2A8
:1029700000031B68002B4DD140F25C13C2F2000330
:102980001B681B68002B04D04FF0500080F31188A7
:10299000FEE740F25C13C2F200031B68FB6040F2EA
:1029A0006013C2F200031A6840F25C13C2F2000323
:1029B0001A6040F26013C2F20003FA681A6040F233
:1029C000C413C2F200031B6803F1010240F2C413F6
:1029D000C2F200031A6040F25C13C2F200031B68EB
:1029E0001B68002B07D140F20003C2F200034FF036
:1029F000FF321A600EE040F25C13C2F200031B6863
:102A0000DB68DB68BB60BB685A6840F20003C2F257
:102A100000031A6040F2A813C2F200031A6840F2E1
:102A20000003C2F200031B689A426BD340F25C13AE
:102A3000C2F200031B681B68002B07D140F20003A1
:102A4000C2F200034FF0FF321A605BE040F25C1309
:102A5000C2F200031B68DB68DB68BB60BB685B68B5
:102A60007B6040F2A813C2F200031A687B689A42A6
:102A700006D240F20003C2F200037A681A6041E015
:102A8000BB6803F10403184602F0B6FBBB689B6AFF
:102A9000002B05D0BB6803F11803184602F0ACFB0D
:102AA000BB68DA6A40F2B013C2F200031B689A42B4
:102AB00006D9BB68DA6A40F2B013C2F200031A60AA
:102AC000BB68DA6A13464FEA83039B184FEA830315
:102AD0001A4640F2D003C2F20003D218BB6803F1D9
:102AE00004031046194602F021FB9FE740F2BC1395
:102AF000C2F200031B6803F1010240F2BC13C2F2F0
:102B000000031A6007F11007BD4680BD80B582B092
:102B100000AF40F2B813C2F200031B68002B07D0CD
:102B200040F2C013C2F200034FF001021A609CE0B1
:102B300040F2CC03C2F200031B681A6840F2CC03D7
:102B4000C2F200031B681B6B9A420FD840F2CC0301
:102B5000C2F200031A6840F2CC03C2F200031B6801
:102B600003F1340310461946FFF7D6F840F2CC03C0
:102B7000C2F200031B681B6B184646F63871C0F69C
:102B800000014FF0140204F00DF80346002B29D089
:102B900040F2CC03C2F200031A6840F2CC03C2F246
:102BA00000031B6803F1340310461946FFF7B4F81D
:102BB00019E040F2B013C2F200031B68002B04D1ED
:102BC0004FF0500080F31188FEE740F2B013C2F2DC
:102BD00000031B6803F1FF3240F2B013C2F200039E
:102BE0001A6000E000BF40F2B013C2F200031A689E
:102BF00013464FEA83039B184FEA83031A4640F2B9
:102C0000D003C2F20003D3181B68002BD1D040F2CE
:102C1000B013C2F200031A6813464FEA83039B18ED
:102C20004FEA83031A4640F2D003C2F20003D318DE
:102C30007B607B685B685B681A467B685A607B6870
:102C40005A687B6803F108039A4205D17B685B6888
:102C50005B681A467B685A607B685B68DB681A466B
:102C600040F2CC03C2F200031A6007F10807BD4628
:102C700080BD00BF80B584B000AF786039607B68EC
:102C8000002B04D14FF0500080F31188FEE740F292
:102C9000CC03C2F200031B6803F1180378681946DD
:102CA00002F06EFA40F2CC03C2F200031B6803F19B
:102CB0000403184602F0A0FA3B68B3F1FF3F0ED1BF
:102CC00040F2CC03C2F200031B6803F1040340F29C
:102CD0009010C2F20000194602F028FA0AE040F211
:102CE000A813C2F200031A683B68D318FB60F868A7
:102CF00000F0EAF907F11007BD4680BD80B584B049
:102D000000AF78607B68DB68DB68BB60BB68002B6A
:102D100004D14FF0500080F31188FEE7BB6803F147
:102D20001803184602F068FA40F2B813C2F2000322
:102D30001B68002B2BD1BB6803F10403184602F07B
:102D40005BFABB68DA6A40F2B013C2F200031B6898
:102D50009A4206D9BB68DA6A40F2B013C2F20003A5
:102D60001A60BB68DA6A13464FEA83039B184FEA7E
:102D700083031A4640F2D003C2F20003D218BB68A4
:102D800003F104031046194602F0D0F909E0BB68CC
:102D900003F1180340F26410C2F20000194602F079
:102DA000C5F9BB68DA6A40F2CC03C2F200031B68C3
:102DB000DB6A9A4203D34FF00103FB6002E04FF05D
:102DC0000003FB60FB68184607F11007BD4680BD95
:102DD00080B483B000AF78607B68002B04D14FF0E3
:102DE000500080F31188FEE740F2C413C2F20003E2
:102DF0001A687B681A6040F2A813C2F200031A68CE
:102E00007B685A6007F10C07BD4680BC704700BF65
:102E100080B584B000AF786039607B68002B04D146
:102E20004FF0500080F31188FEE73B68002B04D17F
:102E30004FF0500080F31188FEE702F09FFF3B68DF
:102E40001B68B3F1FF3F03D14FF00003FB6038E094
:102E50007B681A6840F2C413C2F200031B689A42EE
:102E60000CD07B685A6840F2A813C2F200031B68BA
:102E70009A4203D84FF00103FB6022E040F2A8130E
:102E8000C2F200031A687B685B68D21A3B681B6851
:102E90009A4213D23B681A687B68596840F2A813BB
:102EA000C2F200031B68CB1AD2183B681A6078681C
:102EB000FFF78EFF4FF00003FB6002E04FF00103CD
:102EC000FB6002F071FFFB68184607F11007BD4672
:102ED00080BD00BF80B400AF40F2C013C2F2000357
:102EE0004FF001021A60BD4680BC704780B582B0C9
:102EF00000AF786000E000BF00F09AF840F2D00325
:102F0000C2F200031B68012BF5D902F02BFFF3E797
:102F100080B584B000AFF860B9607A603B60FB6850
:102F200003F134031A46BB68104619464FF00A02F3
:102F300003F096FFFB684FF0000283F83D207B68AA
:102F4000042B02D94FF004037B60FB687A68DA62D5
:102F5000FB687A681A64FB6803F10403184602F000
:102F6000D7F8FB6803F11803184602F0D1F8FB68A4
:102F7000FA681A617B68C3F10502FB689A61FB6815
:102F8000FA685A6207F11007BD4680BD80B582B06D
:102F900000AF4FF000037B6013E07A6813464FEAFE
:102FA00083039B184FEA83031A4640F2D003C2F210
:102FB0000003D318184602F087F87B6803F1010379
:102FC0007B607B68042BE8D940F23410C2F2000029
:102FD00002F07AF840F24810C2F2000002F074F8F1
:102FE00040F26410C2F2000002F06EF840F2781075
:102FF000C2F2000002F068F840F29010C2F2000045
:1030000002F062F840F25C13C2F2000340F23412A4
:10301000C2F200021A6040F26013C2F2000340F2F2
:103020004812C2F200021A6007F10807BD4680BDCF
:1030300080B582B000AF40F28C13C2F200031B686F
:10304000002B3CD0FFF7B2FB40F27813C2F2000332
:103050001B68002B14BF002301237B60FFF7B8FB24
:103060007B68002B2BD102F089FE40F27813C2F26C
:103070000003DB68DB683B603B6803F10403184630
:1030800002F0BAF840F2A413C2F200031B6803F185
:10309000FF3240F2A413C2F200031A6040F28C1314
:1030A000C2F200031B6803F1FF3240F28C13C2F23C
:1030B00000031A6002F078FE386800F085F807F126
:1030C0000807BD4680BD00BF80B582B000AF786004
:1030D00040F2CC03C2F200031B687A685A6040F2E7
:1030E000A813C2F200031B687A689A4210D240F219
:1030F0006013C2F200031A6840F2CC03C2F200036C
:103100001B6803F104031046194602F039F81DE06C
:1031100040F25C13C2F200031A6840F2CC03C2F220
:1031200000031B6803F104031046194602F028F857
:1031300040F20003C2F200031B687A689A4205D28B
:1031400040F20003C2F200037A681A6007F1080730
:10315000BD4680BD80B584B000AF03463960FB80BA
:103160004FF0440003F06CFB0346FB60FB68002B50
:1031700023D03B68002B07D1FB884FEA8303184616
:1031800003F05EFB034600E03B68FA681363FB68EC
:103190001B6B002B06D1F86803F0A4FB4FF0000373
:1031A000FB600AE0FB681A6BFB884FEA830310465A
:1031B0004FF0A5011A4603F0C9FDFB68184607F158
:1031C0001007BD4680BD00BF80B582B000AF7860FB
:1031D0007B681B6B184603F085FB786803F082FB65
:1031E00007F10807BD4680BD80B483B000AF40F250
:1031F000CC03C2F200031B687B607B68184607F1B2
:103200000C07BD4680BC704780B584B000AF7860C5
:103210007B68FB607B68002B04D14FF0500080F38B
:103220001188FEE7FB68DA6A40F2CC03C2F20003C1
:103230001B68DB6A9A4257D240F2CC03C2F2000309
:103240001B68DB6AC3F10502FB689A61FB68596978
:10325000FB68DA6A13464FEA83039B184FEA83033D
:103260001A4640F2D003C2F20003D318994233D178
:10327000FB6803F10403184601F0BEFF40F2CC03E3
:10328000C2F200031B68DA6AFB68DA62FB68DA6A7A
:1032900040F2B013C2F200031B689A4206D9FB68E1
:1032A000DA6A40F2B013C2F200031A60FB68DA6A0D
:1032B00013464FEA83039B184FEA83031A4640F2F2
:1032C000D003C2F20003D218FB6803F104031046D6
:1032D000194601F02BFF07E040F2CC03C2F20003D5
:1032E0001B68DA6AFB68DA6207F11007BD4680BD29
:1032F00080B584B000AF78607B68FB607B68002B92
:103300003AD0FB68DA6AFB681B6C9A4234D0FB68DF
:1033100003F10403184601F06FFFFB681A6CFB68A9
:10332000DA62FB68DB6AC3F10502FB689A61FB683D
:10333000DA6A40F2B013C2F200031B689A4206D95F
:10334000FB68DA6A40F2B013C2F200031A60FB684D
:10335000DA6A13464FEA83039B184FEA83031A463F
:1033600040F2D003C2F20003D218FB6803F1040359
:103370001046194601F0DAFE07F11007BD4680BD80
:1033800080B483B000AF0346FB8003E0FB8803F109
:10339000FF33FB80FB88002BF8D107F10C07BD46FB
:1033A00080BC704780B586B004AF4FF005004FF089
:1033B0000101FEF7B7FC4FF470633B604FF0000370
:1033C0007B714FF001033B714FF00103BB714FF074
:1033D0000003FB713B464FF40060C4F20200194643
:1033E00001F04EFD4FF41C433B604FF000037B7136
:1033F0004FF000033B714FF00103FB713B464FF070
:103400000000C4F20200194601F03AFD4FF40063D7
:10341000C4F202034FF470621A834FF002004FF0BF
:1034200001014FF0000202F065F8024641F2AC6380
:10343000C2F200031A6046F64C73C0F600034FF068
:10344000010200924FF0000201924FF0000202923E
:103450004FF00002039243F27540C0F60000194697
:103460004FF040024FF00003FEF7E0FE07F10807BF
:10347000BD4680BD80B586B000AF78604FF00003D8
:10348000BB754FF000037B754FF00003FB754FF0E9
:1034900000037B824FF41C437B8200F083F80346D9
:1034A000FB734FF00A00FEF7B1FF00F07BF8034614
:1034B0007B74FB7BFF2B2FD0FB7B7A7C9A426CD1F9
:1034C000FB7BBB73FB7D132B04D8FB7D03F1010356
:1034D000FB7562E0FB7D142B5FD14FF01503FB758C
:1034E000FB7B03F11003DBB2FB7341F2AC63C2F26E
:1034F00000031B68002B50D041F2AC63C2F2000302
:103500001A6807F10F03104619464FF000024FF0FA
:10351000000302F08DF840E0FB7D002B19D0FB7D0D
:10352000132B16D841F2AC63C2F200031B68002BC8
:103530002DD041F2AC63C2F200031A6807F10E030A
:10354000104619464FF000024FF0000302F070F8E9
:103550001DE0FB7D152B1AD1BB7B03F12003DBB2F1
:10356000BB7341F2AC63C2F200031B68002B0ED0A8
:1035700041F2AC63C2F200031A6807F10E03104671
:1035800019464FF000024FF0000302F051F84FF0DF
:10359000FF033B744FF00003FB754FF03200FEF762
:1035A00035FF7AE780B582B000AF4FF00003FB71C2
:1035B0004FF00003BB804FF41C43BB804FF400630B
:1035C000C4F202034FF470621A834FF00003FB71E0
:1035D000FEE0FB79032B00F2F78001A252F823F002
:1035E000F135000867360008DD360008533700085B
:1035F0004FF40063C4F202034FF480725A834FF019
:103600000A00FFF7BDFE4FF00003C4F202031B697E
:103610007B804FF40063C4F202034FF470621A839C
:103620007B886FEA0302BB8802EA0303B3F5006FED
:1036300010D0B3F5006F03DCB3F5806F07D0C3E0A3
:10364000B3F5805F09D0B3F5004F09D0BCE04FF06F
:103650000103C3E04FF00203C0E04FF00303BDE0FD
:103660004FF00A03BAE04FF40063C4F202034FF4D0
:1036700000725A834FF00A00FFF782FE4FF00003FA
:10368000C4F202031B697B804FF40063C4F202039F
:103690004FF470621A837B886FEA0302BB8802EAE8
:1036A0000303B3F5006F10D0B3F5006F03DCB3F57F
:1036B000806F07D088E0B3F5805F09D0B3F5004F85
:1036C00009D081E04FF0040388E04FF0050385E066
:1036D0004FF0060382E04FF00B037FE04FF40063EE
:1036E000C4F202034FF480625A834FF00A00FFF7DE
:1036F00047FE4FF00003C4F202031B697B804FF4C6
:103700000063C4F202034FF470621A837B886FEA8D
:103710000302BB8802EA0303B3F5006F10D0B3F5D0
:10372000006F03DCB3F5806F07D04DE0B3F5805F29
:1037300009D0B3F5004F09D046E04FF007034DE044
:103740004FF008034AE04FF0090347E04FF00C0345
:1037500044E04FF40063C4F202034FF400625A8362
:103760004FF00A00FFF70CFE4FF00003C4F2020313
:103770001B697B804FF40063C4F202034FF4706254
:103780001A837B886FEA0302BB8802EA0303B3F55E
:10379000006F10D0B3F5006F03DCB3F5806F07D076
:1037A00012E0B3F5805F09D0B3F5004F09D00BE00C
:1037B0004FF00D0312E04FF000030FE04FF00F0346
:1037C0000CE04FF00E0309E0FB7903F10103FB71FC
:1037D000FB79032B7FF6FDAE4FF0FF03184607F190
:1037E0000807BD4680BD00BF80B483B000AF7860DD
:1037F0007A6840F2D013C2F200039A4206D041F236
:103800000873C2F200037A681A6000E000BF07F193
:103810000C07BD4680BC704780B582B000AF41F256
:103820000873C2F200031B689B687B607A6840F2F1
:10383000D013C2F200039A4206D141F2F060C2F204
:10384000000001F015F8F5E041F20873C2F2000340
:103850001B6803F111034FF000001946FCF7EEFC62
:1038600041F20873C2F200031B681B7CA3F1020340
:10387000052B00F2DE8001A252F823F095380008F3
:10388000A3380008B1380008BF3800083B390008E9
:10389000B739000841F2F060C2F2000000F0E8FF22
:1038A000C8E041F2F060C2F2000000F0E1FFC1E0C8
:1038B00041F2F060C2F2000000F0DAFFBAE041F23B
:1038C000F853C2F200031B681B8B9BB21BB2184655
:1038D00041F2F061C2F200014FF0000241F2707358
:1038E00001F0D0F80346012B1ED141F2F060C2F284
:1038F000000000F0BDFF4FF001004FF0FF014FF05E
:103900000202FEF7C3F94FF002004FF001014FF041
:103910000002FDF7ABF94FF001004FF0FF014FF04F
:103920000202FEF7B3F985E041F2F060C2F2000056
:103930004FF0010100F0B2FF7CE041F2F853C2F217
:1039400000031B685B8B9BB21BB2184641F2F0610F
:10395000C2F200014FF0000241F2707301F092F8E0
:103960000346012B1ED141F2F060C2F2000000F0CC
:103970007FFF4FF001004FF0FF014FF00202FEF712
:1039800085F94FF002004FF001014FF00002FDF702
:103990006DF94FF001004FF0FF014FF00202FEF70A
:1039A00075F947E041F2F060C2F200004FF001010A
:1039B00000F074FF3EE041F2F853C2F200031B68CE
:1039C0009B8B9BB21BB2184641F2F061C2F2000120
:1039D0004FF0000241F2707301F054F80346012BDE
:1039E0001ED141F2F060C2F2000000F041FF4FF042
:1039F00001004FF0FF014FF00202FEF747F94FF0D0
:103A000002004FF001014FF00002FDF72FF94FF0D7
:103A100001004FF0FF014FF00202FEF737F909E015
:103A200041F2F060C2F200004FF0010100F036FFF9
:103A300000E000BF4FF00003184607F10807BD463D
:103A400080BD00BF80B500AF41F20873C2F2000331
:103A500040F20402C2F200021A6041F2F063C2F2C4
:103A600000034FF000021A7241F2F063C2F2000349
:103A70004FF020025A72FFF7CFFE4FF000031846B6
:103A800080BD00BF80B584B004AF4FF002004FF09E
:103A900001014FF0000201F02DFD024641F20C73CE
:103AA000C2F200031A6046F65873C0F600034FF0E6
:103AB000010200924FF0000201924FF000020292C8
:103AC0004FF00002039244F29D50C0F600001946E8
:103AD0004FF080024FF00003FEF7A8FBBD4680BD0B
:103AE00080B500AF41F20873C2F200031B689B6807
:103AF0001846FFF779FEFFF78FFE80BD80B500AF57
:103B000041F20873C2F200031B68DB681846FFF736
:103B10006BFEFFF781FE80BD80B500AF41F20873F8
:103B2000C2F200031B681B681846FFF75DFEFFF733
:103B300073FE80BD80B58AB002AF78600B46FB7023
:103B400041F2F853C2F200031B7E002B13D0FB7826
:103B50000C2B40F01F854FF001004FF00001FDF7E6
:103B600085FD4FF004004FF001014FF00002FDF71A
:103B70007DF800F00FBD7B681B7C03F1FF33062B43
:103B800000F2088501A252F823F000BFA93B00080B
:103B900071400008534100083742000813430008F1
:103BA000E3430008B3440008FB78A3F10B03242B84
:103BB00000F24B8201A252F823F000BFAB3E000896
:103BC0004B4000084B4000084B4000084B400008A9
:103BD0004B4000084B4000084B4000084B40000899
:103BE0004B4000084B4000084B4000084B40000889
:103BF0004B4000084B400008513C00084B40000877
:103C0000673C0008AF3F0008D53C0008DF3F0008D4
:103C10004B4000084B4000084B4000084B40000858
:103C20004B4000084B4000084B4000084B40000848
:103C30004B4000084B4000084B4000084B40000838
:103C40004B4000080F4000084B4000082D40000882
:103C5000FFF754FF4FF004004FF001014FF0000256
:103C6000FDF704F803E241F2F060C2F2000000F058
:103C7000FFFD41F2F853C2F200035B7E022B19D123
:103C800041F2F853C2F200039B7EA3F10203042B1E
:103C90000FD801A252F823F0B33C0008B33C00084F
:103CA000AD3C0008B33C0008B33C0008FDF7A4FDA0
:103CB00000E000BF41F2F853C2F200034FF00002EF
:103CC0005A764FF000004FF001014FF00002FCF770
:103CD000CDFFCCE14FF000033B8241F2F063C2F232
:103CE00000035B7A2B2B05D02D2B5AD0202B00F014
:103CF000A680D9E007F1100341F2F060C2F20000A3
:103D000019464EF69002CFF6FF7241F2707300F042
:103D100047FE0346002B3BD141F2F853C2F20003A9
:103D20005B681846FDF7E6FD03461A463B8A1BB260
:103D3000D21841F270739A4208DD4FF002004FF042
:103D400001014FF00002FCF791FFADE03B8A1BB28E
:103D50004FF001001946FDF773FA0346002B0ED011
:103D60004FF006004FF00001FDF780FC4FF002001D
:103D70004FF001014FF00002FCF778FF10E04FF028
:103D800000004FF001014FF00002FCF76FFF07E069
:103D90004FF002004FF001014FF00002FCF766FF08
:103DA00082E007F1100341F2F060C2F20000194610
:103DB0004EF69002CFF6FF7241F2707300F0F0FD04
:103DC0000346002B32D141F2F853C2F200035B6884
:103DD0001846FDF78FFD03469BB21AB23B8A1BB211
:103DE000D318002B08DA4FF002004FF001014FF01A
:103DF0000002FCF73BFF57E03B8A1BB24FF002008A
:103E00001946FDF71DFA0346002B06D04FF00600B9
:103E10004FF00001FDF72AFC10E04FF000004FF0DA
:103E200001014FF00002FCF721FF07E04FF0020014
:103E30004FF001014FF00002FCF718FF34E007F1EA
:103E4000100341F2F060C2F2000019464EF69002F3
:103E5000CFF6FF7241F2707300F0A2FD0346002B13
:103E600019D13B8A1BB24FF003001946FDF7E8F960
:103E70000346002B06D04FF006004FF00001FDF77F
:103E8000F5FB10E04FF000004FF001014FF0000291
:103E9000FCF7ECFE07E04FF002004FF001014FF09D
:103EA0000002FCF7E3FE00BFE1E041F2F853C2F28A
:103EB00000031B7C002B02D0012B4BD06EE041F2A3
:103EC000F853C2F200031B681B8B1846FDF74EFD2A
:103ED000F86141F2F853C2F200035A68FB699A4252
:103EE00008D94FF002004FF001014FF00002FCF73B
:103EF000BDFE2EE041F2F853C2F200034FF0010282
:103F00001A7441F2F853C2F200035A6841F2F853AE
:103F1000C2F200035A61F869FDF7F6F80346002B78
:103F20000FD04FF002004FF001014FF00002FCF7FC
:103F30009DFE41F2F853C2F200034FF000021A74E2
:103F400007E04FF000004FF001014FF00002FCF7D6
:103F50008DFE2BE041F2F853C2F200034FF0000255
:103F60001A7441F2F853C2F200035B691846FDF778
:103F7000CBF80346002B08D04FF002004FF00101B0
:103F80004FF00002FCF772FE07E04FF000004FF028
:103F900001014FF00002FCF769FE07E041F2F8531F
:103FA000C2F200034FF000021A7400BF5FE041F25A
:103FB000F853C2F20003DB7E012B0FD04FF001005B
:103FC000FDF7FCFA4FF00100FDF720FB4FF0000079
:103FD0004FF001014FF00002FCF748FE47E041F2CC
:103FE000F853C2F20003DB7E022B0FD04FF001002A
:103FF000FDF7E4FA4FF00000FDF708FB4FF000007A
:104000004FF001014FF00002FCF730FE2FE04FF0BF
:1040100005004FF00001FDF729FB4FF001004FF0C4
:1040200001014FF00002FCF721FE20E04FF00500F7
:104030004FF00001FDF71AFB4FF001004FF00101B6
:104040004FF00002FCF712FE11E0FB7841F27072B3
:10405000009218464FF0030141F2F062C2F20002F2
:104060004EF69003CFF6FF7300F092FD00BF91E291
:10407000FB781C2B04D01E2B18D00A2B0BD055E03C
:10408000FFF72EFD4FF004004FF001014FF000024A
:10409000FCF7ECFD5CE0FFF73FFD4FF000004FF058
:1040A00001014FF00002FCF7E1FD51E007F11403BC
:1040B00041F2F060C2F2000019464EF69002CFF6CF
:1040C000FF7241F2707300F06BFC0346002B1CD1B1
:1040D00041F2F853C2F200035B68BB6141F2F8534E
:1040E000C2F200031B681A4607F114031046194672
:1040F0004FF00802FDF7B8FC4FF001004FF001014E
:104100004FF00002FCF7B2FD0FE04FF002004FF05D
:1041100001014FF00002FCF7A9FD4FF001004FF044
:10412000FF014FF00202FDF7B1FD11E0FB7841F213
:104130007072009218464FF0010141F2F062C2F233
:1041400000024EF69003CFF6FF7300F021FD00BF92
:1041500020E2FB781C2B04D01E2B18D00A2B0BD08E
:1041600056E0FFF7BDFC4FF004004FF001014FF0A7
:104170000002FCF77BFD5DE0FFF7CEFC4FF0000096
:104180004FF001014FF00002FCF770FD52E007F123
:10419000140341F2F060C2F2000019464EF690029C
:1041A000CFF6FF7241F2707300F0FAFB0346002B6A
:1041B0001DD141F2F853C2F200035B68BB6141F2CA
:1041C000F853C2F200031B6803F1080207F114035D
:1041D000104619464FF00802FDF746FC4FF001006B
:1041E0004FF001014FF00002FCF740FD0FE04FF0EF
:1041F00002004FF001014FF00002FCF737FD4FF0D5
:1042000001004FF0FF014FF00202FDF73FFD11E00A
:10421000FB7841F27072009218464FF0010141F2B2
:10422000F062C2F200024EF69003CFF6FF7300F088
:10423000AFFC00BFAEE1FB781C2B04D01E2B18D0C6
:104240000A2B0BD054E0FFF74BFC4FF004004FF06B
:1042500001014FF00002FCF709FD59E0FFF75CFC9B
:104260004FF000004FF001014FF00002FCF7FEFCA0
:104270004EE007F1140341F2F060C2F2000019466B
:104280004FF0000241F2707300F08AFB0346002BEE
:104290001DD141F2F853C2F200035B68BB6141F2E9
:1042A000F853C2F200031B6803F1100207F1140374
:1042B000104619464FF00802FDF7D6FB4FF00100FB
:1042C0004FF001014FF00002FCF7D0FC0FE04FF07F
:1042D00002004FF001014FF00002FCF7C7FC4FF065
:1042E00001004FF0FF014FF00202FDF7CFFC0FE09D
:1042F000FB7841F27072009218464FF0010141F2D2
:10430000F062C2F200024FF0000300F041FC00BF77
:1043100040E1FB781C2B04D01E2B18D00A2B0BD0AD
:104320004EE0FFF7DDFB4FF004004FF001014FF0CE
:104330000002FCF79BFC53E0FFF7EEFB4FF00000A0
:104340004FF001014FF00002FCF790FC48E007F14C
:10435000120341F2F060C2F2000019464FF0000271
:1043600041F2707300F01CFB0346002B17D141F2A1
:10437000F853C2F200031B6803F1180207F112039D
:10438000104619464FF00202FDF76EFB4FF0010098
:104390004FF001014FF00002FCF768FC0FE04FF016
:1043A00002004FF001014FF00002FCF75FFC4FF0FC
:1043B00001004FF0FF014FF00202FDF767FC0FE034
:1043C000FB7841F27072009218464FF0010141F201
:1043D000F062C2F200024FF0000300F0D9FB00BF10
:1043E000D8E0FB781C2B04D01E2B18D00A2B0BD046
:1043F0004EE0FFF775FB4FF004004FF001014FF066
:104400000002FCF733FC53E0FFF786FB4FF000009F
:104410004FF001014FF00002FCF728FC48E007F1E3
:10442000120341F2F060C2F2000019464FF00002A0
:1044300041F2707300F0B4FA0346002B17D141F239
:10444000F853C2F200031B6803F11A0207F11203CA
:10445000104619464FF00202FDF706FB4FF001002F
:104460004FF001014FF00002FCF700FC0FE04FF0AD
:1044700002004FF001014FF00002FCF7F7FB4FF094
:1044800001004FF0FF014FF00202FDF7FFFB0FE0CC
:10449000FB7841F27072009218464FF0010141F230
:1044A000F062C2F200024FF0000300F071FB00BFA7
:1044B00070E0FB781C2B04D01E2B21D00A2B0BD0D4
:1044C00057E0FFF70DFB4FF004004FF001014FF0F4
:1044D0000002FCF7CBFB5CE041F20873C2F2000380
:1044E00040F21C02C2F200021A60FFF795F94FF089
:1044F00000004FF001014FF00002FCF7B7FB48E06D
:1045000007F10E0341F2F060C2F2000019464FF0CD
:10451000000241F2707300F043FA0346002B17D1FA
:1045200041F2F853C2F200031B6803F11C0207F1C9
:104530000E03104619464FF00202FDF795FA4FF0B0
:1045400001004FF001014FF00002FCF78FFB20E06B
:104550004FF002004FF001014FF00002FCF786FB24
:104560004FF001004FF0FF014FF00202FDF78EFB0C
:104570000FE0FB7841F27072009218464FF0010193
:1045800041F2F062C2F200024FF0000300F000FBC3
:1045900000BF00BF07F12007BD4680BD80B584B0D5
:1045A00000AF78604FF00003FB73FFF74BFA41F266
:1045B000AC63C2F200031B68002B27D041F2AC634E
:1045C000C2F200031B68184601F022FA0346002BD2
:1045D0001CD041F2AC63C2F200031A6807F10C036D
:1045E000104619464FF00A024FF0000301F032F96D
:1045F0000346002B0AD041F20873C2F200031A6886
:10460000BB89DBB210461946FFF794FA41F20C73EE
:10461000C2F200031B68002B25D041F20C73C2F2DA
:1046200000031B68184601F0F3F90346002B1AD06B
:1046300041F20C73C2F200031A6807F10B03104633
:1046400019464FF00A024FF0000301F003F9034648
:10465000002B08D0FB7A012B05D141F2F060C2F2A9
:10466000000000F005F9FB7B03F10103FB7341F24D
:104670000873C2F200031B681B7C012B40F0F28020
:10468000FB7B092B40F2EE804FF00003FB7341F2FD
:10469000F853C2F200035B7E002B40F0D98041F258
:1046A000F853C2F200035B681846FDF723F903468E
:1046B0009BB21BB2184641F2FC61C2F200014FF0FE
:1046C000000241F2707300F0DDF941F2FC60C2F2C9
:1046D00000004FF0000100F0E1F841F2F853C2F29F
:1046E00000031B7E022B29D0032B54D0012B40F05A
:1046F000B88041F2F853C2F200039A6841F2F853CD
:10470000C2F200035B68D31A1846FDF7C7F80346E8
:104710009BB21BB2184641F2FC61C2F200014FF09D
:10472000000241F2707300F0ADF941F2FC60C2F298
:1047300000004FF0010100F0B1F893E041F2F853AE
:10474000C2F200035A6841F2F853C2F200039B68B8
:10475000D31A1846FDF7A2F803469BB21BB21846BF
:1047600041F2FC61C2F200014FF0000241F27073AD
:1047700000F088F941F2FC63C2F200034FF02D0211
:104780005A7241F2FC60C2F200004FF0010100F0E9
:1047900085F800BF66E041F2F853C2F200039A6860
:1047A00041F2F853C2F200035B689A4224D341F20B
:1047B000F853C2F200039A6841F2F853C2F20003C0
:1047C0005B68D31A1846FDF769F803469BB21BB223
:1047D000184641F2FC61C2F200014FF0000241F2C2
:1047E000707300F04FF941F2FC60C2F200004FF02C
:1047F000010100F053F835E041F2F853C2F2000332
:104800005A6841F2F853C2F200039B68D31A184663
:10481000FDF744F803469BB21BB2184641F2FC6117
:10482000C2F200014FF0000241F2707300F02AF969
:1048300041F2FC63C2F200034FF02D025A7241F2C2
:10484000FC60C2F200004FF0010100F027F809E01F
:104850004FF0000046F66071C0F60001FBF7EEFC79
:1048600000E000BF4FF00A00FDF7D0FD9FE600BF5B
:1048700080B582B000AF78607B684FF000021A729A
:104880007B684FF020025A7278684FF0010100F007
:1048900005F807F10807BD4680BD00BF80B586B0AA
:1048A00000AF78600B46FB7046F67072C0F60002EF
:1048B00007F10C0392E80300186003F10403198068
:1048C00003F102034FEA11421A704FF00003FB7428
:1048D0004FF00003FB754FF00003BB757B681B7A3C
:1048E000002B17D17B685B7A2D2B08D1FB781846FB
:1048F00046F66871C0F60001FBF7A0FC07E0FB7804
:10490000184646F67071C0F60001FBF797FC4FF0B1
:1049100000033FE07B681B7A042B39D84FF0050376
:10492000BB757B681B7A03F1FF33DBB2FB751AE0C2
:1049300097F9163097F9172079688A5C07F1180102
:10494000CB1803F80C2CBB7D03F1FF33BB7597F933
:104950001630042B03D1BB7D03F1FF33BB75FB7D08
:1049600003F1FF33FB7597F91730002BE0DA7B6812
:104970005B7A2D2B02D14FF02D033B73FA7807F1B0
:104980000C0310461946FBF759FC4FF0000301E0F9
:104990004FF00103184607F11807BD4680BD00BF60
:1049A00080B487B000AFF860B960FA80BB804FF088
:1049B0000003FB824FF000037B754FF001037B8205
:1049C000FB681B7A002B06D1BB684FF000021A80EF
:1049D0004FF0000350E0FB681B7A03F1FF33DBB2BA
:1049E0007B7529E097F91530FA68D35C2F2B05D930
:1049F00097F91530FA68D35C392B02D94FF00103CF
:104A00003AE097F91530FA68D35CA3F130039BB212
:104A10007A8A02FB03F39AB2FB8AD3189BB2FB8219
:104A20007B8A1A464FEA8202D3184FEA43037B82FD
:104A30007B7D03F1FF337B7597F91530002BD1DABD
:104A4000FB685B7A2D2B03D1FB8AC3F10003FB8249
:104A5000BB68FA8A1A80B7F91620B7F906309A426D
:104A600005DBB7F91620B7F904309A4202DD4FF0A2
:104A7000010301E04FF00003184607F11C07BD4693
:104A800080BC704780B487B000AFB9600146F9813F
:104A9000FA80BB804FF00003FB75B7F90E20B7F921
:104AA00004309A4205DCB7F90E20B7F906309A4275
:104AB0000DDAB7F90E20B7F904309A4202DDBB884F
:104AC000FB8101E0FB88FB814FF00103FB75B7F927
:104AD0000E30002B08DABB684FF02D025A72FB89AA
:104AE000C3F10003FB8103E0BB684FF020025A7260
:104AF000BB684FF000021A724FF47A73BB824FF01A
:104B00000003FB7433E0B7F90E20BB8A92FBF3F38A
:104B1000BB74BB7C092B17D8BB7C002B02D1FB7C60
:104B2000002B11D0BB681B7ABA7C02F13002D1B2E3
:104B3000BA68D154BB681B7A03F10103DAB2BB68CF
:104B40001A724FF00103FB74B7F90E30BA8A93FB67
:104B5000F2F102FB01F29B1AFB81BA8A4CF6CD43BB
:104B6000CCF6CC43A3FB02134FEAD303BB82BB8A30
:104B7000002BC8D1FB7D002B02D04FF0010301E0D8
:104B80004FF00003184607F11C07BD4680BC704774
:104B900080B586B000AFBA600246FA730A46BA73AF
:104BA000FB80FB7B092B09D9FB7B0C2B06D0FB7B05
:104BB0000D2B03D0FB7B0F2B40F05481FB7B0C2B88
:104BC0001DD1BB681B7A002B00F04E81BB681B7A9D
:104BD000002B06D0BB681B7A03F1FF33DAB2BB6847
:104BE0001A72B8684FF00101FFF758FE4FF000004D
:104BF0004FF001014FF00002FCF738F83BE1FB7B7E
:104C00000D2B02D00F2B18D02FE0BB7B03F002033B
:104C1000002B00F02B81BB684FF02D025A72B86850
:104C20004FF00101FFF73AFE4FF000004FF0010195
:104C30004FF00002FCF71AF81DE1BB7B03F0020302
:104C4000002B00F01581BB684FF02B025A72B86838
:104C50004FF00101FFF722FE4FF000004FF001017D
:104C60004FF00002FCF702F805E1BB681B7A032B4A
:104C700010D94FF002004FF001014FF00002FBF796
:104C8000F5FF4FF001004FF0FF014FF00202FCF77B
:104C9000FDFFF0E0FB7B092B00F2B38001A252F88C
:104CA00023F000BFCD4C0008F54C0008134D000860
:104CB000314D00084F4D00086D4D00088B4D000828
:104CC000A94D0008C74D0008E54D0008BB681B7AD8
:104CD000002B00F0CF80BB681B7ABA684FF0300120
:104CE000D1544FF000004FF001014FF00002FBF7EC
:104CF000BDFF87E0BB681B7ABA684FF03101D15421
:104D00004FF000004FF001014FF00002FBF7AEFF43
:104D100078E0BB681B7ABA684FF03201D1544FF08B
:104D200000004FF001014FF00002FBF79FFF69E028
:104D3000BB681B7ABA684FF03301D1544FF00000C2
:104D40004FF001014FF00002FBF790FF5AE0BB6803
:104D50001B7ABA684FF03401D1544FF000004FF085
:104D600001014FF00002FBF781FF4BE0BB681B7AAB
:104D7000BA684FF03501D1544FF000004FF00101F7
:104D80004FF00002FBF772FF3CE0BB681B7ABA6889
:104D90004FF03601D1544FF000004FF001014FF0B9
:104DA0000002FBF763FF2DE0BB681B7ABA684FF087
:104DB0003701D1544FF000004FF001014FF00002D5
:104DC000FBF754FF1EE0BB681B7ABA684FF038014E
:104DD000D1544FF000004FF001014FF00002FBF7FB
:104DE00045FF0FE0BB681B7ABA684FF03901D15418
:104DF0004FF000004FF001014FF00002FBF736FFCB
:104E000000E000BFBB681B7A03F10103DAB2BB68A4
:104E10001A7207F11601B7F90620B7F92030B86801
:104E2000FFF7BEFD0346012B16D1BB681B7A03F1C9
:104E3000FF33DAB2BB681A724FF002004FF0010183
:104E40004FF00002FBF712FF4FF001004FF0FF019F
:104E50004FF00202FCF71AFFB8684FF00101FFF7AC
:104E60001DFD08E000BF06E000BF04E000BF02E057
:104E700000BF00E000BF07F11807BD4680BD00BFBE
:104E800080B487B000AF786039604FF000037B6179
:104E90004FF000033B614FF00003FB604FF0000355
:104EA0007B618FE07B694FF0010202FA03F33B6103
:104EB0003B681A683B6902EA0303FB60FA683B69D6
:104EC0009A427BD17B681B681A467B694FEA430391
:104ED0004FF0030101FA03F36FEA03031A407B6802
:104EE0001A607B681B681A463B681B7919467B6908
:104EF0004FEA430301FA03F31A437B681A603B68E5
:104F00001B79012B03D03B681B79022B38D17B68BE
:104F10009B681A467B694FEA43034FF0030101FA8D
:104F200003F36FEA03031A407B689A607B689B680F
:104F30001A463B685B7919467B694FEA430301FADD
:104F400003F31A437B689A607B685B681A467B6947
:104F50009BB24FF0010101FA03F36FEA03031A4019
:104F60007B685A607B685B681A463B689B79194688
:104F70007B699BB201FA03F39BB21A437B685A60C8
:104F80007B68DB681A467B699BB24FEA43034FF0AC
:104F9000030101FA03F36FEA03031A407B68DA6046
:104FA0007B68DB681A463B68DB7919467B694FEA08
:104FB000430301FA03F31A437B68DA607B6903F168
:104FC00001037B617B690F2B7FF66CAF07F11C0738
:104FD000BD4680BC704700BF80B485B000AF78602C
:104FE0000B467B804FF00003FB737B681B691A46FE
:104FF0007B8802EA0303002B03D04FF00103FB730D
:1050000002E04FF00003FB73FB7B184607F1140727
:10501000BD4680BC704700BF80B485B000AF7860EB
:1050200013460A467A807B704FF00003FB604FF016
:105030000003BB607A787B8803F007034FEA8303A1
:1050400002FA03F3FB607B884FEAD3039BB21A4654
:105050007B884FEAD3039BB219467B6801F10801B4
:1050600053F8213019467B8803F007034FEA830386
:105070004FF00F0000FA03F36FEA030319407B6857
:1050800002F1080243F822107B884FEAD3039BB257
:105090001A467B6802F1080253F822301A46FB6870
:1050A00042EA0303BB607B884FEAD3039BB21A46F4
:1050B0007B6802F10802B96843F8221007F114076F
:1050C000BD4680BC704700BF80B483B000AF78603D
:1050D0007B6803F108031A467B685A607B684FF0CF
:1050E000FF329A607B6803F108031A467B68DA6036
:1050F0007B6803F108031A467B681A617B684FF0EE
:1051000000021A6007F10C07BD4680BC704700BF63
:1051100080B483B000AF78607B684FF000021A6102
:1051200007F10C07BD4680BC704700BF80B485B056
:1051300000AF786039607B685B68FB60FB685B6828
:105140001A463B685A607B685A683B689A60FB68FD
:105150005B683A689A603A68FB685A603A687B68AC
:105160005A603B687A681A617B681B6803F1010228
:105170007B681A6007F11407BD4680BC704700BF0A
:1051800080B485B000AF786039603B681B68BB6055
:10519000BB68B3F1FF3F03D17B681B69FB600EE086
:1051A0007B6803F10803FB6002E0FB685B68FB605F
:1051B000FB685B681B681A46BB689A42F5D9FB68B6
:1051C0005B681A463B685A603B685B683A689A605D
:1051D0003B68FA689A603A68FB685A603B687A688C
:1051E0001A617B681B6803F101027B681A6007F192
:1051F0001407BD4680BC704780B485B000AF7860AE
:105200007B685B687A6892689A607B689B687A685A
:1052100052685A607B681B69FB60FB685A687B6850
:105220009A4203D17B689A68FB685A607B684FF0AA
:1052300000021A61FB681B6803F1FF32FB681A6009
:1052400007F11407BD4680BC704700BF80B500AFB2
:105250004FF46053C4F202034FF46052C4F20202EE
:10526000126842F001021A604FF46053C4F2020364
:105270004FF000029A604FF46053C4F202034FF4FF
:105280006052C4F20202126822F0847222F4803268
:105290001A604FF46053C4F2020343F21002C2F2E8
:1052A00000425A604FF46053C4F202034FF460525C
:1052B000C4F20202126822F480221A604FF4605392
:1052C000C4F202034FF00002DA6000F009F84FF474
:1052D0006D43CEF200034FF000629A6080BD00BFC4
:1052E00080B483B000AF4FF000037B604FF0000349
:1052F0003B604FF46053C4F202034FF46052C4F2B7
:105300000202126842F480321A604FF46053C4F211
:1053100002031B6803F400333B607B6803F1010365
:105320007B603B68002B03D17B68B3F5A06FECD1A9
:105330004FF46053C4F202031B6803F40033002BE4
:1053400003D04FF001033B6002E04FF000033B60ED
:105350003B68012B69D14FF46053C4F202034FF450
:105360006052C4F2020292689A604FF46053C4F231
:1053700002034FF46052C4F20202926842F4004207
:105380009A604FF46053C4F202034FF46052C4F2C7
:105390000202926842F4A0529A604FF46053C4F241
:1053A000020343F20402C0F643025A604FF4605312
:1053B000C4F202034FF46052C4F20202126842F0D7
:1053C00080721A6000BF4FF46053C4F202031B687E
:1053D00003F00073002BF6D04FF47053C4F20203B5
:1053E00040F201721A604FF46053C4F202034FF4AA
:1053F0006052C4F20202926822F003029A604FF4F3
:105400006053C4F202034FF46052C4F20202926885
:1054100042F002029A6000BF4FF46053C4F20203EC
:105420009B6803F00C03082BF6D107F10C07BD466F
:1054300080BC704780B582B000AF786039607B680F
:10544000002B04D14FF0500080F31188FEE700F0EC
:1054500095FC7B681A687B68DB6B7968096C01FBDB
:1054600003F3D2187B685A607B684FF000029A639E
:105470007B681A687B689A607B681A687B68DB6B5C
:1054800003F1FF337968096C01FB03F3D2187B68E1
:10549000DA607B684FF0FF325A647B684FF0FF326E
:1054A0009A643B68002B0FD17B681B69002B17D0D7
:1054B0007B6803F110031846FDF720FC0346012B1F
:1054C0000ED100F04FFC0BE07B6803F1100318468F
:1054D000FFF7FAFD7B6803F124031846FFF7F4FD9C
:1054E00000F062FC4FF00103184607F10807BD46C3
:1054F00080BD00BF80B588B000AFF860B9601346CA
:10550000FB714FF00003FB61FB68002B2BD04FF0C9
:105510004C0001F095F90346BB61BB69002B22D01A
:10552000FB68BA6802FB03F303F101037B6178694E
:1055300001F086F903461A46BB691A60BB691B680D
:10554000002B0DD0BB69FA68DA63BB69BA681A64CC
:10555000B8694FF00101FFF76DFFBB69FB6102E025
:10556000B86901F0BFF9FB69002B04D14FF050007E
:1055700080F31188FEE7FB69184607F12007BD4656
:1055800080BD00BF80B584B000AF0346FB714FF013
:105590004C0001F055F90346FB60FB68002B38D046
:1055A000FB684FF000025A60FB684FF000021A607F
:1055B000FB684FF000029A60FB684FF00002DA606F
:1055C000FB684FF000029A63FB684FF00102DA6358
:1055D000FB684FF000021A64FB684FF0FF325A6418
:1055E000FB684FF0FF329A64FB6803F11003184622
:1055F000FFF76AFDFB6803F124031846FFF764FD1B
:10560000F8684FF000014FF000024FF0000300F087
:105610000FF8FB68002B04D14FF0500080F3118885
:10562000FEE7FB68184607F11007BD4680BD00BFC6
:1056300080B588B000AFF860B9607A603B604FF029
:105640000003FB61FB68002B04D14FF0500080F396
:105650001188FEE7BB68002B03D1FB681B6C002B95
:1056600002D14FF0010301E04FF00003002B05D100
:105670004FF0500080F31188FEE700BF00F07EFB82
:10568000FB689B6B1A46FB68DB6B9A4218D2F86882
:10569000B9683A6800F0D6F9FB685B6A002B0AD05B
:1056A000FB6803F124031846FDF728FB0346012B92
:1056B00001D100F057FB00F077FB4FF001035DE0F4
:1056C0007B68002B04D100F06FFB4FF0000355E026
:1056D000FB69002B07D107F114031846FDF778FB8F
:1056E0004FF00103FB6100F05FFBFDF75FF800F096
:1056F00045FBFB685B6CB3F1FF3F03D1FB684FF0E8
:1057000000025A64FB689B6CB3F1FF3F03D1FB6856
:105710004FF000029A6400F047FB07F1140207F112
:10572000040310461946FDF773FB0346002B1ED1F8
:10573000F86800F077FA0346002B12D0FB6803F1FB
:1057400010027B6810461946FDF794FAF86800F0DD
:1057500003FAFDF73DF80346002B8ED100F002FB63
:105760008CE7F86800F0F8F9FDF732F886E7F8689A
:1057700000F0F2F9FDF72CF84FF00003184607F19E
:105780002007BD4680BD00BF80B586B000AFF86081
:10579000B9607A603B60FB68002B04D14FF0500089
:1057A00080F31188FEE7BB68002B03D1FB681B6CFC
:1057B000002B02D14FF0010301E04FF00003002B5A
:1057C00004D14FF0500080F31188FEE74FF0000342
:1057D0003B614FF0500080F31188FB689B6B1A46C9
:1057E000FB68DB6B9A4228D2F868B9683A6800F027
:1057F00029F9FB689B6CB3F1FF3F14D1FB685B6A2E
:10580000002B16D0FB6803F124031846FDF776FA47
:105810000346002B0DD07B68002B0AD07B684FF02D
:1058200001021A6005E0FB689B6C03F10102FB6852
:105830009A644FF001037B6102E04FF000037B614B
:105840004FF0000080F311887B69184607F11807B4
:10585000BD4680BD80B588B000AFF860B9607A60A1
:105860003B604FF00003FB61FB68002B04D14FF05D
:10587000500080F31188FEE7BB68002B03D1FB6862
:105880001B6C002B02D14FF0010301E04FF000032D
:10589000002B05D14FF0500080F31188FEE700BFC8
:1058A00000F06CFAFB689B6B002B40D0FB68DB6858
:1058B000BB61F868B96800F027F93B68002B1FD17D
:1058C000FB689B6B03F1FF32FB689A63FB681B6804
:1058D000002B05D1FDF788FC03461A46FB685A6089
:1058E000FB681B69002B1DD0FB6803F110031846F1
:1058F000FDF704FA0346012B14D100F033FA11E04E
:10590000FB68BA69DA60FB685B6A002B0AD0FB6847
:1059100003F124031846FDF7F1F90346002B01D0EB
:1059200000F020FA00F040FA4FF001036BE07B68D2
:10593000002B04D100F038FA4FF0000363E0FB695C
:10594000002B07D107F110031846FDF741FA4FF07D
:105950000103FB6100F028FAFCF728FF00F00EFAC3
:10596000FB685B6CB3F1FF3F03D1FB684FF00002B3
:105970005A64FB689B6CB3F1FF3F03D1FB684FF0A7
:1059800000029A6400F010FA07F1100207F1040314
:1059900010461946FDF73CFA0346002B2CD1F86857
:1059A00000F02AF90346002B20D0FB681B68002B6F
:1059B00008D100F0E3F9FB685B681846FDF724FCAA
:1059C00000F0F2F9FB6803F124027B6810461946E7
:1059D000FDF750F9F86800F0BFF8FCF7F9FE034650
:1059E000002B7FF45CAF00F0BDF959E7F86800F0D8
:1059F000B3F8FCF7EDFE53E7F86800F0ADF8FCF7FC
:105A0000E7FE4FF00003184607F12007BD4680BDB2
:105A100080B584B000AF78607B68002B04D14FF074
:105A2000500080F31188FEE700F0A8F97B689B6BBB
:105A3000FB6000F0B9F9FB68184607F11007BD4696
:105A400080BD00BF80B584B000AFF860B9607A60F7
:105A5000FB681B6C002B0DD1FB681B68002B48D129
:105A6000FB685B681846FDF743FCFB684FF00002DB
:105A70005A603EE07B68002B1AD1FB689A68FB688D
:105A80001B6C1046B9681A4601F0B8F8FB689A68B2
:105A9000FB681B6CD218FB689A60FB689A68FB680D
:105AA0005B689A4225D3FB681A68FB689A6020E01D
:105AB000FB68DA68FB681B6C1046B9681A4601F08F
:105AC0009DF8FB68DA68FB681B6CC3F10003D21811
:105AD000FB68DA60FB68DA68FB681B689A4208D2E8
