:020000040800F2
:10000000CC290020F90800087109000871090008CE
:10001000710900087109000871090008000000005A
:10002000000000000000000000000000C9260008D9
:100030007109000800000000E527000835280008C5
:10004000710900080D3200087109000871090008E3
:100050007109000871090008710900087109000898
:100060007109000871090008710900087109000888
:100070007109000871090008710900087109000878
:100080007109000871090008710900087109000868
:100090007109000871090008710900087109000858
:1000A00071090008990B000871090008710900081E
:1000B00071090008250B0008710900087109000882
:1000C0007109000871090008710900087109000828
:1000D000710900086503000871090008710900082A
:1000E0007109000871090008710900087109000808
:1000F00071090008710900087109000871090008F8
:1001000071090008710900087109000871090008E7
:1001100071090008710900087109000871090008D7
:1001200071090008710900087109000871090008C7
:1001300071090008710900087109000871090008B7
:1001400071090008710900087109000871090008A7
:100150007109000871090008710900087109000897
:100160007109000871090008710900087109000887
:100170007109000871090008710900087109000877
:10018000710900087109000880B483B000AF78607D
:100190007B689B889BB24FEAC3534FEAD3539BB211
:1001A000184607F10C07BD4680BC704780B487B085
:1001B00000AF786013460A467A807B704FF00003E8
:1001C0003B614FF00003FB604FF00003BB604FF05A
:1001D00000037B617B687B617B88DBB24FEA531352
:1001E000DBB23B617B8803F01F03FB60FB684FF0D1
:1001F000010202FA03F3BB603B69012B04D17B6966
:1002000003F10C037B610BE03B69022B04D17B699A
:1002100003F110037B6103E07B6903F114037B614D
:100220007B78002B07D07B697A691168BA6841EA4C
:1002300002021A6008E07B697A691168BA686FEA9D
:10024000020201EA02021A6007F11C07BD4680BCE7
:10025000704700BF80B487B000AF78600B467B80EA
:100260004FF00003FB604FF000037B614FF0000391
:10027000BB604FF00003FB747B88DBB24FEA531383
:10028000DBB2BB607B8803F01F037B617B694FF0AF
:10029000010202FA03F37B61BB68012B07D17B6883
:1002A0009B899BB27A6902EA03037B6111E0BB6818
:1002B000022B07D17B681B8A9BB27A6902EA03038F
:1002C0007B6106E07B689B8A9BB27A6902EA030342
:1002D0007B617B884FEA13239BB2FB60FB684FF086
:1002E000010202FA03F3FB607B681B889BB2FA6889
:1002F00002EA0303FB607B69002B06D0FB68002B3E
:1003000003D04FF00103FB7402E04FF00003FB74D5
:10031000FB7C184607F11C07BD4680BC704700BF38
:1003200080B485B000AF78600B467B804FF000034F
:10033000FB814FF00003BB817B884FEA1323FB81D5
:10034000FB894FF0010202FA03F3BB81BB896FEA1C
:1003500003039AB27B681A8007F11407BD4680BC7C
:10036000704700BF80B500AF40F26403C2F20003E3
:100370004FF000021A604FF48050C4F2010040F2C6
:100380002551FFF767FF0346002B00F0E7814FF48C
:100390008050C4F2010040F22551FFF7C1FF4FF435
:1003A0008050C4F20100FFF7EFFE0346DAB240F2DC
:1003B0004703C2F200031A7040F24803C2F200037E
:1003C0001B78002B02D0012B73D0C7E140F247030A
:1003D000C2F200031B783A2B06D141F67D53C2F2DC
:1003E00000034FF000021A7041F67D53C2F2000381
:1003F0001B78194640F24703C2F200031A7841F60F
:100400009453C2F200035B1883F8462341F67D53F0
:10041000C2F200031B7803F10103DAB241F67D5307
:10042000C2F200031A7041F67D53C2F200031B783A
:10043000012B40F28C8141F69453C2F2000393F8F1
:1004400047331A4641F67D53C2F200031B78A3F1ED
:1004500002039A4240F07D814FF48050C4F20100C3
:1004600040F225514FF00002FFF7A0FE41F68C53F9
:10047000C2F200031B6818464FF0000140F264020C
:10048000C2F200024FF0000301F0B6FF40F2640335
:10049000C2F200031B68002B00F05D8140F2640390
:1004A000C2F200031B68002B00F0578102F05CF9D8
:1004B00054E140F24703C2F200031B78292B2AD0F3
:1004C000D72B02D0002B7ED0ABE041F67853C2F29E
:1004D00000031A6841F67D53C2F200031B78D2185C
:1004E00040F24703C2F200031B78137041F67D53BC
:1004F000C2F200031B7803F10103DAB241F67D5327
:10050000C2F200031A7041F69153C2F200034FF099
:1005100001021A70B1E041F69153C2F200031B7858
:10052000012B2AD141F67853C2F200031B684FF029
:1005300000021A7041F67853C2F200031B6803F1FF
:1005400001034FF0D7021A7041F67853C2F200034C
:100550001B6803F102034FF029021A7041F692530F
:10056000C2F200034FF001021A7041F67D53C2F24D
:1005700000034FF003021A701DE041F67853C2F2F7
:1005800000031A6841F67D53C2F200031B78D218AB
:1005900040F24703C2F200031B78137041F67D530B
:1005A000C2F200031B7803F10103DAB241F67D5376
:1005B000C2F200031A7041F69153C2F200034FF0E9
:1005C00000021A7059E041F69153C2F200031B7801
:1005D000012B07D141F69153C2F200034FF0000204
:1005E0001A704AE041F67853C2F200031A6841F6E5
:1005F0007D53C2F200031B78D21840F24703C2F2C7
:1006000000031B78137041F67D53C2F200031B7880
:1006100003F10103DAB241F67D53C2F200031A700E
:100620002BE041F69253C2F200031B78002B24D03A
:1006300041F67853C2F200031A6841F67D53C2F2C4
:1006400000031B78D21840F24703C2F200031B7864
:10065000137041F67D53C2F200031B7803F10103CE
:10066000DAB241F67D53C2F200031A7041F691539B
:10067000C2F200034FF000021A7041F67D53C2F23D
:1006800000031B78062B47D941F67D53C2F20003C5
:100690001B781A4640F26003C2F200031B7803F194
:1006A00006039A425AD14FF48050C4F2010040F23E
:1006B00025514FF00002FFF779FD41F68C53C2F24D
:1006C00000031B6818464FF0000140F26402C2F2BA
:1006D00000024FF0000301F08FFE40F26403C2F20B
:1006E00000031B68002B08D040F26403C2F2000331
:1006F0001B68002B01D002F037F841F69153C2F28B
:1007000000034FF000021A7041F69253C2F2000348
:100710004FF000021A7021E041F67D53C2F200034F
:100720001B78062B1AD141F67853C2F200031A68DF
:1007300041F67D53C2F200031B7803F1FF33D31857
:100740001A7840F26003C2F200031A7006E000BF9C
:1007500004E000BF02E000BF00E000BF4FF48050A3
:10076000C4F2010040F22661FFF774FD0346002B3E
:1007700000F0B7804FF48050C4F2010040F22661CF
:10078000FFF7CEFD41F67C53C2F200031A7841F622
:100790008553C2F200031B789A426FD241F67C5314
:1007A000C2F200031B78022B1ED84FF48053C4F210
:1007B000010341F68852C2F20002116841F67C52F0
:1007C000C2F2000212788A1812789A8041F67C539D
:1007D000C2F200031B7803F10103DAB241F67C5345
:1007E000C2F200031A707CE041F69153C2F200039A
:1007F0001B78002B33D141F68853C2F200031A68EC
:1008000041F67C53C2F200031B78D3181B78D72B18
:1008100006D141F69153C2F200034FF001021A7063
:100820004FF48053C4F2010341F68852C2F2000231
:10083000116841F67C52C2F2000212788A181278CE
:100840009A8041F67C53C2F200031B7803F1010346
:10085000DAB241F67C53C2F200031A7041E04FF461
:100860008053C4F201034FF000029A8041F6915385
:10087000C2F200034FF000021A7032E041F67C53DE
:10088000C2F200034FF000021A7041F67D53C2F22B
:1008900000034FF000021A7041F69153C2F20003B8
:1008A0004FF000021A704FF48050C4F2010040F281
:1008B00025514FF00102FFF779FC4FF00000C4F220
:1008C00002004FF480714FF0000201F06DFA4FF01A
:1008D0000000C4F202004FF400614FF0000201F08A
:1008E00063FA40F26403C2F200031B68002B01D0DC
:1008F00001F03AFF80BD00BF80B582B000AF43F287
:100900004853C0F600037B6040F20003C2F20003CC
:100910003B600BE07B681A683B681A603B6803F138
:1009200004033B607B6803F104037B603A6840F298
:100930005C03C2F200039A42ECD30A480A494FF022
:1009400000028842B8BF40F8042BFADBDFF81C0035
:10095000016841F47001016000F020F807F1080718
:10096000BD4680BD60000020D021002088ED00E061
:1009700080B400AFFEE700BF80B582B000AF786002
:1009800002F0ACF802F06AF800F04AF94FF000000B
:1009900000F028FB07F10807BD4680BD80B584B094
:1009A00004AF01F033FB43F20453C0F600034FF0F1
:1009B000010200924FF0000201924FF000020292F9
:1009C0004FF00002039240F67910C0F6000019467D
:1009D0004FF080024FF0000300F014FA00F090FB9B
:1009E000FEE700BF80B400AFFEE700BF80B483B075
:1009F00000AF78603960FEE780B582B000AF02F0EA
:100A00006DFA03467B607B6807F10807BD4680BD31
:100A100080B483B000AF78600B46FB70FB78002B8E
:100A20000ED04FF46053C4F202034FF46052C4F28C
:100A30000202126B11467A6841EA02021A630FE061
:100A40004FF46053C4F202034FF46052C4F2020246
:100A5000126B11467A686FEA020201EA02021A6317
:100A600007F10C07BD4680BC704700BF80B483B05F
:100A700000AF78600B46FB70FB78002B0ED04FF474
:100A80006053C4F202034FF46052C4F20202126CCB
:100A900011467A6841EA02021A640FE04FF460538B
:100AA000C4F202034FF46052C4F20202126C114607
:100AB0007A686FEA020201EA02021A6407F10C077F
:100AC000BD4680BC704700BF80B483B000AF786083
:100AD0000B46FB70FB78002B0ED04FF46053C4F232
:100AE00002034FF46052C4F20202526C11467A685B
:100AF00041EA02025A640FE04FF46053C4F2020369
:100B00004FF46052C4F20202526C11467A686FEAE6
:100B1000020201EA02025A6407F10C07BD4680BCDA
:100B2000704700BF80B500AF4FF48060C4F2000092
:100B30004FF0010102F0C0FA0346002B2AD04FF417
:100B40008060C4F200004FF0010102F0E7FA4FF4B8
:100B50008063C4F200031B889BB203F01003002BD8
:100B60000CD040F24C03C2F200031B68A3F58032A4
:100B700040F24C03C2F200031A600BE040F24C0357
:100B8000C2F200031B6803F5803240F24C03C2F24C
:100B900000031A6080BD00BF80B500AF4FF00000B9
:100BA000C4F201004FF0010102F086FA0346002B67
:100BB00035D04FF00000C4F201004FF0010102F007
:100BC000ADFA4FF00003C4F201031B889BB203F09F
:100BD0001003002B0CD040F25003C2F200031B683C
:100BE00003F1FF3240F25003C2F200031A600BE03F
:100BF00040F25003C2F200031B6803F1010240F20D
:100C00005003C2F200031A604FF00003C4F2010364
:100C10005B6A1A4640F26803C2F200031A6080BDA4
:100C200080B586B000AF4FF001004FF00101FFF733
:100C3000EFFE4FF002004FF00101FFF717FF4FF0FA
:100C400001004FF00101FFF73FFF07F10C031846C9
:100C500002F0CEF94FF001033B614FF00003BB817E
:100C60004FF00003BB824FF01003FB8107F10C0330
:100C70004FF48060C4F20000194602F03DF907F11C
:100C80000C034FF00000C4F20100194602F034F9E1
:100C90004FF48060C4F200004FF003014FF00A02ED
:100CA0004FF00A0302F04CFA4FF48060C4F20000E7
:100CB0004FF001014FF0010202F0D8F94FF48060CB
:100CC000C4F200004FF0010102F0B0F94FF0000053
:100CD000C4F201004FF003014FF00A024FF00A0383
:100CE00002F02EFA4FF00000C4F201004FF00101B3
:100CF0004FF0010202F0BAF94FF00000C4F2010017
:100D00004FF0010102F092F94FF4407002F002F846
:100D10004FF01D033B724FF00F037B724FF00E0339
:100D2000BB724FF00103FB7207F10803184602F093
:100D300005F84FF019033B7207F10803184601F05C
:100D4000FDFF4FF0C0033B604FF002033B714FF0DB
:100D50000003FB714FF00003BB714FF000037B7188
:100D60003B464FF00000C4F20200194600F070FF4D
:100D70004FF00000C4F202004FF006014FF00202F3
:100D800001F02AF84FF00000C4F202004FF0070112
:100D90004FF0020201F020F84FF440733B604FF037
:100DA00002033B714FF00003FB714FF00003BB7176
:100DB0004FF000037B713B464FF00000C4F202008D
:100DC000194600F045FF4FF00000C4F202004FF05A
:100DD00008014FF0010200F0FFFF4FF00000C4F2E5
:100DE00002004FF009014FF0010200F0F5FF4FF053
:100DF0000003C4F201034FF000025A6207F1180722
:100E0000BD4680BD80B58AB002AFF860B9603B6076
:100E10001346FB80FB68002B04D14FF0500080F399
:100E20001188FEE7BB6A042B04D94FF0500080F311
:100E30001188FEE7FB881846396B00F077FEB86131
:100E4000BB69002B00F0B080BB691A6BFB8803F113
:100E5000FF334FEA8303D3187B617B6923F00703D9
:100E60007B617B6903F00703002B04D04FF0500037
:100E700080F31188FEE7FB880093B869B968BA6A05
:100E80007B6B00F031FD7869F9683A6801F0E4FBAA
:100E900003461A46BB691A60FB6A002B02D0FB6A44
:100EA000BA691A6001F06CFC40F24413C2F200030C
:100EB0001B6803F1010240F24413C2F200031A60FE
:100EC00040F26C03C2F200031B68002B0FD140F20A
:100ED0006C03C2F20003BA691A6040F24413C2F212
:100EE00000031B68012B18D100F03CFD15E040F217
:100EF0005413C2F200031B68002B0ED140F26C03A6
:100F0000C2F200031B68DA6ABB6A9A4205D840F253
:100F10006C03C2F20003BA691A60BB69DA6A40F274
:100F20004C13C2F200031B689A4206D9BB69DA6A05
:100F300040F24C13C2F200031A6040F26813C2F28E
:100F400000031B6803F1010240F26813C2F20003C0
:100F50001A60BB69DA6A40F25013C2F200031B68E0
:100F60009A4206D9BB69DA6A40F25013C2F2000312
:100F70001A60BB69DA6A13464FEA83039B184FEA8B
:100F800083031A4640F27003C2F20003D218BB6911
:100F900003F104031046194600F0A8FF4FF00103C7
:100FA000FB6101F003FC02E04FF0FF33FB61FB69E2
:100FB000012B11D140F25413C2F200031B68002B25
:100FC0000AD040F26C03C2F200031B68DA6ABB6A03
:100FD0009A4201D201F0C8FBFB69184607F12007CD
:100FE000BD4680BD80B584B000AF786001F0C8FB1D
:100FF00040F26C03C2F200031B687A689A4202D185
:101000004FF000037B607B68002B05D140F26C033E
:10101000C2F200031B6800E07B68FB60FB6803F121
:101020000403184600F0C8FFFB689B6A002B05D03C
:10103000FB6803F11803184600F0BEFFFB6803F1DC
:10104000040340F21810C2F20000194600F04EFFEF
:1010500040F22C13C2F200031B6803F1010240F2BC
:101060002C13C2F200031A6040F26813C2F20003AC
:101070001B6803F1010240F26813C2F200031A6018
:1010800001F094FB40F25413C2F200031B68002BE2
:1010900004D07B68002B01D101F066FB07F110073B
:1010A000BD4680BD80B584B000AF78604FF00003CE
:1010B000FB607B68002B19D000F064F840F2481305
:1010C000C2F200031A687B68D318BB6040F26C035D
:1010D000C2F200031B6803F10403184600F06CFF22
:1010E000B86800F0DDFC00F05FF8F860FB68002BEA
:1010F00001D101F039FB07F11007BD4680BD00BFEB
:1011000080B586B004AF43F20C53C0F600034FF035
:10111000000200924FF0000201924FF00002029292
:101120004FF00002039241F6C500C0F600001946D8
:101130004FF046024FF00003FFF764FE78607B68D3
:10114000012B13D14FF0500080F3118840F254135B
:10115000C2F200034FF001021A6040F24813C2F2DB
:1011600000034FF000021A6001F0C6FA7B68002B02
:1011700004D14FF0500080F31188FEE707F1080713
:10118000BD4680BD80B400AF40F25813C2F20003E8
:101190001B6803F1010240F25813C2F200031A6007
:1011A000BD4680BC704700BF90B583B000AF4FF024
:1011B00000037B6040F25813C2F200031B68002B4F
:1011C00004D14FF0500080F31188FEE701F0D8FA07
:1011D00040F25813C2F200031B6803F1FF3240F2E1
:1011E0005813C2F200031A6040F25813C2F200030F
:1011F0001B68002B40F0868040F24413C2F20003CB
:101200001B68002B7ED04FF000033B603DE040F2B6
:101210000413C2F20003DB68DB681C4604F1180308
:10122000184600F0C9FE04F10403184600F0C4FE9D
:10123000E26A40F25013C2F200031B689A4205D9D9
:10124000E26A40F25013C2F200031A60E26A1346E7
:101250004FEA83039B184FEA83031A4640F2700358
:10126000C2F20003D21804F104031046194600F03C
:101270003DFEE26A40F26C03C2F200031B68DB6AC7
:101280009A4202D34FF001033B6040F20413C2F2D2
:1012900000031B68002BBAD140F25C13C2F20003BA
:1012A0001B68002B18D00DE000F034F840F25C13FE
:1012B000C2F200031B6803F1FF3240F25C13C2F27A
:1012C00000031A6040F25C13C2F200031B68002B9B
:1012D000EAD14FF001033B603B68012B06D040F29E
:1012E0006013C2F200031B68012B0BD14FF0010306
:1012F0007B6040F26013C2F200034FF000021A60FC
:1013000001F032FA01F052FA7B68184607F10C0737
:10131000BD4690BD80B584B000AF40F25813C2F214
:1013200000031B68002B40F0CD8040F24813C2F24E
:1013300000031B6803F1010240F24813C2F20003EC
:101340001A6040F24813C2F200031B68002B4DD113
:1013500040F2FC03C2F200031B681B68002B04D0A0
:101360004FF0500080F31188FEE740F2FC03C2F218
:1013700000031B68FB6040F20013C2F200031A680E
:1013800040F2FC03C2F200031A6040F20013C2F202
:101390000003FA681A6040F26413C2F200031B688B
:1013A00003F1010240F26413C2F200031A6040F23A
:1013B000FC03C2F200031B681B68002B07D140F23C
:1013C0005403C2F200034FF0FF321A600EE040F205
:1013D000FC03C2F200031B68DB68DB68BB60BB6810
:1013E0005A6840F25403C2F200031A6040F24813F4
:1013F000C2F200031A6840F25403C2F200031B68F1
:101400009A426BD340F2FC03C2F200031B681B68D4
:10141000002B07D140F25403C2F200034FF0FF3219
:101420001A605BE040F2FC03C2F200031B68DB6859
:10143000DB68BB60BB685B687B6040F24813C2F24C
:1014400000031A687B689A4206D240F25403C2F243
:1014500000037A681A6041E0BB6803F10403184690
:1014600000F0AAFDBB689B6A002B05D0BB6803F1A6
:101470001803184600F0A0FDBB68DA6A40F250136A
:10148000C2F200031B689A4206D9BB68DA6A40F2CE
:101490005013C2F200031A60BB68DA6A13464FEABF
:1014A00083039B184FEA83031A4640F27003C2F28B
:1014B0000003D218BB6803F104031046194600F07C
:1014C00015FD9FE740F25C13C2F200031B6803F1B5
:1014D000010240F25C13C2F200031A6007F1100728
:1014E000BD4680BD80B582B000AF40F25813C2F255
:1014F00000031B68002B07D040F26013C2F2000308
:101500004FF001021A609CE040F26C03C2F200034B
:101510001B681A6840F26C03C2F200031B681B6B65
:101520009A420FD840F26C03C2F200031A6840F2EC
:101530006C03C2F200031B6803F134031046194622
:10154000FFF754FA40F26C03C2F200031B681B6BF6
:10155000184643F21451C0F600014FF0140201F096
:1015600065FE0346002B29D040F26C03C2F2000353
:101570001A6840F26C03C2F200031B6803F13403E3
:1015800010461946FFF732FA19E040F25013C2F242
:1015900000031B68002B04D14FF0500080F311882A
:1015A000FEE740F25013C2F200031B6803F1FF3262
:1015B00040F25013C2F200031A6000E000BF40F294
:1015C0005013C2F200031A6813464FEA83039B18B4
:1015D0004FEA83031A4640F27003C2F20003D318A5
:1015E0001B68002BD1D040F25013C2F200031A68DE
:1015F00013464FEA83039B184FEA83031A4640F2CF
:101600007003C2F20003D3187B607B685B685B6881
:101610001A467B685A607B685A687B6803F1080346
:101620009A4205D17B685B685B681A467B685A60A2
:101630007B685B68DB681A4640F26C03C2F2000309
:101640001A6007F10807BD4680BD00BF80B584B0B1
:1016500000AF786039607B68002B04D14FF05000F8
:1016600080F31188FEE740F26C03C2F200031B68AE
:1016700003F118037868194600F062FC40F26C032D
:10168000C2F200031B6803F10403184600F094FC47
:101690003B68B3F1FF3F0ED140F26C03C2F200038E
:1016A0001B6803F1040340F23010C2F20000194637
:1016B00000F01CFC0AE040F24813C2F200031A6872
:1016C0003B68D318FB60F86800F0EAF907F11007EF
:1016D000BD4680BD80B584B000AF78607B68DB68B4
:1016E000DB68BB60BB68002B04D14FF0500080F377
:1016F0001188FEE7BB6803F11803184600F05CFC94
:1017000040F25813C2F200031B68002B2BD1BB68B8
:1017100003F10403184600F04FFCBB68DA6A40F29C
:101720005013C2F200031B689A4206D9BB68DA6AFA
:1017300040F25013C2F200031A60BB68DA6A134623
:101740004FEA83039B184FEA83031A4640F2700363
:10175000C2F20003D218BB6803F104031046194615
:1017600000F0C4FB09E0BB6803F1180340F2041069
:10177000C2F20000194600F0B9FBBB68DA6A40F219
:101780006C03C2F200031B68DB6A9A4203D34FF07A
:101790000103FB6002E04FF00003FB60FB681846AA
:1017A00007F11007BD4680BD80B483B000AF7860FC
:1017B0007B68002B04D14FF0500080F31188FEE7C6
:1017C00040F26413C2F200031A687B681A6040F2A8
:1017D0004813C2F200031A687B685A6007F10C07CD
:1017E000BD4680BC704700BF80B584B000AF786054
:1017F00039607B68002B04D14FF0500080F31188D2
:10180000FEE73B68002B04D14FF0500080F31188B5
:10181000FEE700F0B5FF3B681B68B3F1FF3F03D163
:101820004FF00003FB6038E07B681A6840F26413F5
:10183000C2F200031B689A420CD07B685A6840F2DF
:101840004813C2F200031B689A4203D84FF0010309
:10185000FB6022E040F24813C2F200031A687B6882
:101860005B68D21A3B681B689A4213D23B681A68BD
:101870007B68596840F24813C2F200031B68CB1A18
:10188000D2183B681A607868FFF78EFF4FF00003AC
:10189000FB6002E04FF00103FB6000F087FFFB6894
:1018A000184607F11007BD4680BD00BF80B400AFE9
:1018B00040F26013C2F200034FF001021A60BD460D
:1018C00080BC704780B582B000AF786000F09CF8B3
:1018D00040F27003C2F200031B68012B01D900F033
:1018E00043FFFFF789F8F1E780B584B000AFF860F7
:1018F000B9607A603B60FB6803F134031A46BB6849
:10190000104619464FF00A0201F0BEFDFB684FF089
:10191000000283F83D207B68042B02D94FF00403BA
:101920007B60FB687A68DA62FB687A681A64FB6835
:1019300003F10403184600F0CBFAFB6803F1180327
:10194000184600F0C5FAFB68FA681A617B68C3F1B3
:101950000502FB689A61FB68FA685A6207F1100792
:10196000BD4680BD80B582B000AF4FF000037B6004
:1019700013E07A6813464FEA83039B184FEA830308
:101980001A4640F27003C2F20003D318184600F062
:101990007BFA7B6803F101037B607B68042BE8D949
:1019A00040F2D400C2F2000000F06EFA40F2E8000B
:1019B000C2F2000000F068FA40F20410C2F2000027
:1019C00000F062FA40F21810C2F2000000F05CFA77
:1019D00040F23010C2F2000000F056FA40F2FC0370
:1019E000C2F2000340F2D402C2F200021A6040F2D6
:1019F0000013C2F2000340F2E802C2F200021A60D1
:101A000007F10807BD4680BD80B582B000AF40F247
:101A10002C13C2F200031B68002B3CD0FFF7B2FB73
:101A200040F21813C2F200031B68002B14BF0023FE
:101A300001237B60FFF7B8FB7B68002B2BD100F004
:101A40009FFE40F21813C2F20003DB68DB683B60C4
:101A50003B6803F10403184600F0AEFA40F2441369
:101A6000C2F200031B6803F1FF3240F24413C2F2DA
:101A700000031A6040F22C13C2F200031B6803F14A
:101A8000FF3240F22C13C2F200031A6000F08EFE07
:101A9000386800F085F807F10807BD4680BD00BF33
:101AA00080B582B000AF786040F26C03C2F20003F0
:101AB0001B687A685A6040F24813C2F200031B6840
:101AC0007A689A4210D240F20013C2F200031A68F8
:101AD00040F26C03C2F200031B6803F104031046DA
:101AE000194600F02DFA1DE040F2FC03C2F200039B
:101AF0001A6840F26C03C2F200031B6803F104038E
:101B00001046194600F01CFA40F25403C2F20003DA
:101B10001B687A689A4205D240F25403C2F200036D
:101B20007A681A6007F10807BD4680BD80B584B0A9
:101B300000AF03463960FB804FF0440001F072F9BA
:101B40000346FB60FB68002B23D03B68002B07D1CA
:101B5000FB884FEA8303184601F064F9034600E06E
:101B60003B68FA681363FB681B6B002B06D1F868AF
:101B700001F0AAF94FF00003FB600AE0FB681A6B62
:101B8000FB884FEA830310464FF0A5011A4601F087
:101B900021FCFB68184607F11007BD4680BD00BF59
:101BA00080B582B000AF78607B681B6B184601F08F
:101BB0008BF9786801F088F907F10807BD4680BD08
:101BC00080B584B000AF78607B68FB607B68002BD9
:101BD0003AD0FB68DA6AFB681B6C9A4234D0FB6827
:101BE00003F10403184600F0E7F9FB681A6CFB6880
:101BF000DA62FB68DB6AC3F10502FB689A61FB6885
:101C0000DA6A40F25013C2F200031B689A4206D906
:101C1000FB68DA6A40F25013C2F200031A60FB68F4
:101C2000DA6A13464FEA83039B184FEA83031A4686
:101C300040F27003C2F20003D218FB6803F1040300
:101C40001046194600F052F907F11007BD4680BD55
:101C500080B487B000AF786039604FF000037B61DB
:101C60004FF000033B614FF00003FB604FF00003B7
:101C70007B618FE07B694FF0010202FA03F33B6165
:101C80003B681A683B6902EA0303FB60FA683B6938
:101C90009A427BD17B681B681A467B694FEA4303F3
:101CA0004FF0030101FA03F36FEA03031A407B6864
:101CB0001A607B681B681A463B681B7919467B696A
:101CC0004FEA430301FA03F31A437B681A603B6847
:101CD0001B79012B03D03B681B79022B38D17B6821
:101CE0009B681A467B694FEA43034FF0030101FAF0
:101CF00003F36FEA03031A407B689A607B689B6872
:101D00001A463B685B7919467B694FEA430301FA3F
:101D100003F31A437B689A607B685B681A467B69A9
:101D20009BB24FF0010101FA03F36FEA03031A407B
:101D30007B685A607B685B681A463B689B791946EA
:101D40007B699BB201FA03F39BB21A437B685A602A
:101D50007B68DB681A467B699BB24FEA43034FF00E
:101D6000030101FA03F36FEA03031A407B68DA60A8
:101D70007B68DB681A463B68DB7919467B694FEA6A
:101D8000430301FA03F31A437B68DA607B6903F1CA
:101D900001037B617B690F2B7FF66CAF07F11C079A
:101DA000BD4680BC704700BF80B483B000AF786090
:101DB00013460A467A807B707B78002B03D07B68C1
:101DC0007A881A8302E07B687A885A8307F10C07C5
:101DD000BD4680BC704700BF80B485B000AF78605E
:101DE00013460A467A807B704FF00003FB604FF089
:101DF0000003BB607A787B8803F007034FEA830314
:101E000002FA03F3FB607B884FEAD3039BB21A46C6
:101E10007B884FEAD3039BB219467B6801F1080126
:101E200053F8213019467B8803F007034FEA8303F8
:101E30004FF00F0000FA03F36FEA030319407B68C9
:101E400002F1080243F822107B884FEAD3039BB2C9
:101E50001A467B6802F1080253F822301A46FB68E2
:101E600042EA0303BB607B884FEAD3039BB21A4666
:101E70007B6802F10802B96843F8221007F11407E1
:101E8000BD4680BC704700BF80B483B000AF7860AF
:101E90007B6803F108031A467B685A607B684FF041
:101EA000FF329A607B6803F108031A467B68DA60A8
:101EB0007B6803F108031A467B681A617B684FF060
:101EC00000021A6007F10C07BD4680BC704700BFD6
:101ED00080B483B000AF78607B684FF000021A6175
:101EE00007F10C07BD4680BC704700BF80B485B0C9
:101EF00000AF786039607B685B68FB60FB685B689B
:101F00001A463B685A607B685A683B689A60FB686F
:101F10005B683A689A603A68FB685A603A687B681E
:101F20005A603B687A681A617B681B6803F101029A
:101F30007B681A6007F11407BD4680BC704700BF7C
:101F400080B485B000AF786039603B681B68BB60C7
:101F5000BB68B3F1FF3F03D17B681B69FB600EE0F8
:101F60007B6803F10803FB6002E0FB685B68FB60D1
:101F7000FB685B681B681A46BB689A42F5D9FB6828
:101F80005B681A463B685A603B685B683A689A60CF
:101F90003B68FA689A603A68FB685A603B687A68FE
:101FA0001A617B681B6803F101027B681A6007F104
:101FB0001407BD4680BC704780B485B000AF786020
:101FC0007B685B687A6892689A607B689B687A68CD
:101FD00052685A607B681B69FB60FB685A687B68C3
:101FE0009A4203D17B689A68FB685A607B684FF01D
:101FF00000021A61FB681B6803F1FF32FB681A607C
:1020000007F11407BD4680BC704700BF80B500AF24
:102010004FF46053C4F202034FF46052C4F2020260
:10202000126842F001021A604FF46053C4F20203D6
:102030004FF000029A604FF46053C4F202034FF471
:102040006052C4F20202126822F0847222F48032DA
:102050001A604FF46053C4F2020343F21002C2F25A
:1020600000425A604FF46053C4F202034FF46052CE
:10207000C4F20202126822F480221A604FF4605304
:10208000C4F202034FF00002DA6000F009F84FF4E6
:102090006D43CEF200034FF000629A6080BD00BF36
:1020A00080B483B000AF4FF000037B604FF00003BB
:1020B0003B604FF46053C4F202034FF46052C4F229
:1020C0000202126842F480321A604FF46053C4F284
:1020D00002031B6803F400333B607B6803F10103D8
:1020E0007B603B68002B03D17B68B3F5A06FECD11C
:1020F0004FF46053C4F202031B6803F40033002B57
:1021000003D04FF001033B6002E04FF000033B605F
:102110003B68012B69D14FF46053C4F202034FF4C2
:102120006052C4F2020292689A604FF46053C4F2A3
:1021300002034FF46052C4F20202926842F4004279
:102140009A604FF46053C4F202034FF46052C4F239
:102150000202926842F4A0529A604FF46053C4F2B3
:10216000020343F20402C0F643025A604FF4605384
:10217000C4F202034FF46052C4F20202126842F049
:1021800080721A6000BF4FF46053C4F202031B68F0
:1021900003F00073002BF6D04FF47053C4F2020327
:1021A00040F201721A604FF46053C4F202034FF41C
:1021B0006052C4F20202926822F003029A604FF465
:1021C0006053C4F202034FF46052C4F202029268F8
:1021D00042F002029A6000BF4FF46053C4F202035F
:1021E0009B6803F00C03082BF6D107F10C07BD46E2
:1021F00080BC704780B584B000AF0346FB714FF0E0
:102200004C0000F00FFE0346FB60FB68002B38D04B
:10221000FB684FF000025A60FB684FF000021A6042
:10222000FB684FF000029A60FB684FF00002DA6032
:10223000FB684FF000029A63FB684FF00102DA631B
:10224000FB684FF000021A64FB684FF0FF325A64DB
:10225000FB684FF0FF329A64FB6803F110031846E5
:10226000FFF712FEFB6803F124031846FFF70CFE8C
:10227000F8684FF000014FF000024FF0000300F04B
:102280000FF8FB68002B04D14FF0500080F3118849
:10229000FEE7FB68184607F11007BD4680BD00BF8A
:1022A00080B588B000AFF860B9607A603B604FF0ED
:1022B0000003FB61FB68002B04D14FF0500080F35A
:1022C0001188FEE7BB68002B03D1FB681B6C002B59
:1022D00002D14FF0010301E04FF00003002B05D1C4
:1022E0004FF0500080F31188FEE700BF00F048FA7D
:1022F000FB689B6B1A46FB68DB6B9A4218D2F86846
:10230000B9683A6800F0DEF8FB685B6A002B0AD017
:10231000FB6803F124031846FFF7DCF90346012BA1
:1023200001D100F021FA00F041FA4FF001035DE025
:102330007B68002B04D100F039FA4FF0000355E020
:10234000FB69002B07D107F114031846FFF72CFA9D
:102350004FF00103FB6100F029FAFEF713FF00F0D4
:102360000FFAFB685B6CB3F1FF3F03D1FB684FF0E2
:1023700000025A64FB689B6CB3F1FF3F03D1FB681A
:102380004FF000029A6400F011FA07F1140207F10D
:10239000040310461946FFF727FA0346002B1ED107
:1023A000F86800F041F90346002B12D0FB6803F1F6
:1023B00010027B6810461946FFF748F9F86800F0EC
:1023C000E3F8FEF7F1FE0346002B8ED100F0CCF9C6
:1023D0008CE7F86800F0D8F8FEF7E6FE86E7F868C4
:1023E00000F0D2F8FEF7E0FE4FF00003184607F1C8
:1023F0002007BD4680BD00BF80B586B000AFF86045
:10240000B9607A603B60FB68002B04D14FF050004C
:1024100080F31188FEE7BB68002B03D1FB681B6CBF
:10242000002B02D14FF0010301E04FF00003002B1D
:1024300004D14FF0500080F31188FEE74FF0000305
:102440003B614FF0500080F31188FB689B6B1A468C
:10245000FB68DB6B9A4228D2F868B9683A6800F0EA
:1024600031F8FB689B6CB3F1FF3F14D1FB685B6AEA
:10247000002B16D0FB6803F124031846FFF72AF956
:102480000346002B0DD07B68002B0AD07B684FF0F1
:1024900001021A6005E0FB689B6C03F10102FB6816
:1024A0009A644FF001037B6102E04FF000037B610F
:1024B0004FF0000080F311887B69184607F1180778
:1024C000BD4680BD80B584B000AFF860B9607A6069
:1024D000FB681B6C002B0DD1FB681B68002B48D1DF
:1024E000FB685B681846FFF76BFBFB684FF0000268
:1024F0005A603EE07B68002B1AD1FB689A68FB6843
:102500001B6C1046B9681A4600F0BCFEFB689A685E
:10251000FB681B6CD218FB689A60FB689A68FB68C2
:102520005B689A4225D3FB681A68FB689A6020E0D2
:10253000FB68DA68FB681B6C1046B9681A4600F045
:10254000A1FEFB68DA68FB681B6CC3F10003D218BC
:10255000FB68DA60FB68DA68FB681B689A4208D29D
:10256000FB685A68FB681B6CC3F10003D218FB6858
:10257000DA60FB689B6B03F10102FB689A6307F169
:102580001007BD4680BD00BF80B582B000AF786047
:1025900000F0F6F814E07B685B6A002B15D07B68CE
:1025A00003F124031846FFF795F80346002B01D0EA
:1025B000FFF77CF97B689B6C03F1FF327B689A64C0
:1025C0007B689B6C002BE6DC00E000BF7B684FF073
:1025D000FF329A6400F0EAF800F0D2F814E07B6869
:1025E0001B69002B15D07B6803F110031846FFF719
:1025F00071F80346002B01D0FFF758F97B685B6C3C
:1026000003F1FF327B685A647B685B6C002BE6DC6D
:1026100000E000BF7B684FF0FF325A6400F0C6F85C
:1026200007F10807BD4680BD80B584B000AF786073
:1026300000F0A6F87B689B6B1A467B68DB6B9A42BE
:1026400014BF00230123FB6000F0B0F8FB681846BC
:1026500007F11007BD4680BD80B485B000AFF860BB
:10266000B9607A60FB68A3F10403FB60FB684FF07C
:1026700080721A60FB68A3F10403FB60BA68FB6810
:102680001A60FB68A3F10403FB60FB684FF00002D3
:102690001A60FB68A3F11403FB607A68FB681A6098
:1026A000FB68A3F10403FB60FB686FF002021A6091
:1026B000FB68A3F12003FB60FB68184607F11407D1
:1026C000BD4680BC704700BF054B19680868B0E87C
:1026D000F04F80F309884FF0000080F311887047B5
:1026E0006C00002003480068006880F3088862B628
:1026F00000DF00BF08ED00E080B500AF4EF62053CC
:10270000CEF200034EF62052CEF20002126842F4DE
:1027100070021A604EF62053CEF200034EF620529D
:10272000CEF20002126842F070421A6000F09EF889
:1027300040F25803C2F200034FF000021A6000F0AA
:10274000A9F84EF63473CEF200034EF63472CEF290
:102750000002126842F040421A60FFF7C3FF4FF0D8
:102760000003184680BD00BF80B400AF4EF604538E
:10277000CEF200034FF080521A60BD4680BC704715
:1027800080B400AF4FF0500080F3118840F258033E
:10279000C2F200031B6803F1010240F25803C2F2C7
:1027A00000031A60BD4680BC704700BF80B400AF14
:1027B00040F25803C2F200031B6803F1FF3240F2FB
:1027C0005803C2F200031A6040F25803C2F2000339
:1027D0001B68002B03D14FF0000080F31188BD4629
:1027E00080BC7047EFF30980114B1A681EF0100F80
:1027F00008BF20ED108A20E9F04F10602DE9084055
:102800004FF0500080F31188FEF76CFE4FF000008F
:1028100080F31188BDE8084019680868B0E8F04FF7
:102820001EF0100F08BFB0EC108A80F309887047C3
:102830006C00002080B582B000AF4EF60453CEF29B
:1028400000034FF080521A604FF000037B604FF09E
:10285000500080F31188FEF75DFD4FF0000080F31B
:10286000118807F10807BD4680BD00BF80B400AFE6
:102870004EF21403CEF200034BF67F321A604EF292
:102880001003CEF200034FF007021A60BD4680BC71
:10289000704700BFDFF80C00016841F4700101606F
:1028A0007047000088ED00E080B485B000AF78602C
:1028B00039604FF00003FB817B681B88FB81FB893B
:1028C00003F44153FB813B681A883B685B8842EA0A
:1028D00003039AB23B689B8842EA03039AB23B68BF
:1028E000DB8842EA03039AB23B681B8942EA03038E
:1028F0009AB23B685B8942EA03039AB23B689B89C0
:1029000042EA03039AB23B68DB8942EA03039AB2C4
:10291000FB8942EA0303FB817B68FA891A807B68A2
:102920009B8B9BB223F400639AB27B689A833B68CB
:102930001A8A7B681A8207F11407BD4680BC70476B
:1029400080B483B000AF78600B46FB70FB78002B3F
:1029500008D07B681B889BB243F040039AB27B6827
:102960001A8007E07B681B889BB223F040039AB271
:102970007B681A8007F10C07BD4680BC704700BF1A
:1029800080B483B000AF78600B467B807B687A8828
:102990009A8107F10C07BD4680BC704780B483B0B4
:1029A00000AF78600B46FB70FB78002B08D07B688B
:1029B0001B889BB243F400539AB27B681A8007E0ED
:1029C0007B681B889BB223F400539AB27B681A8001
:1029D00007F10C07BD4680BC704700BF80B485B0CE
:1029E00000AF78604FF00003FB734FF00003BB6053
:1029F0004FF47053C4F201031B681A467B6802EA65
:102A00000303BB604FF47053C4F201035B691A46C1
:102A10007B6802EA0303002B06D0BB68002B03D0BF
:102A20004FF00103FB7302E04FF00003FB73FB7BED
:102A3000184607F11407BD4680BC704780B483B0C8
:102A400000AF78604FF47053C4F201037A685A61A2
:102A500007F10C07BD4680BC704700BF80B586B04B
:102A600004AF4FF00003FB7141F69453C2F2000330
:102A700093F89E30002B21D143F22853C0F6000377
:102A80004FF0010200924FF0000201924FF000025D
:102A900002924FF00002039242F61D40C0F6000081
:102AA00019464FF080024FF00003FEF7ABF942F2F7
:102AB0009C13C2F200034FF000021A714FF00100A4
:102AC000FFF798FB024642F2CC13C2F200031A60F1
:102AD000FB79184607F10807BD4680BD80B588B070
:102AE00000AF4FF002004FF00101FDF791FF4FF4EE
:102AF00080504FF00101FDF7E7FF4FF03803BB6155
:102B00004FF002037B774FF002033B774FF0000357
:102B1000BB774FF00003FB7707F118034FF4806099
:102B2000C4F202001946FFF793F84FF04003BB616F
:102B30004FF001033B774FF00003BB774FF00003EA
:102B4000FB774FF002037B7707F118034FF48060A7
:102B5000C4F202001946FFF77BF84FF48060C4F21C
:102B600002004FF003014FF00502FFF735F94FF473
:102B70008060C4F202004FF004014FF00502FFF73D
:102B80002BF94FF48060C4F202004FF005014FF0C2
:102B90000502FFF721F94FF00003BB804FF4827369
:102BA000FB804FF400633B814FF000037B814FF0CB
:102BB0000003BB814FF40073FB814FF020033B8285
:102BC0004FF000037B8207F104034FF44050C4F23E
:102BD00001001946FFF768FE4FF44050C4F20100AF
:102BE0004FF00001FFF7DAFE4FF44050C4F201004D
:102BF0004FF00101FFF7A4FE4FF48063C4F202031B
:102C00004FF48062C4F20202528B92B242F0400250
:102C100092B25A8307F12007BD4680BDB0B588B097
:102C200000AF78604FF00003FB7743F23453C0F6F7
:102C3000000307F108041D460FCD0FC42B68236065
:102C40004FF00003BB774FF00003FB774DE04FF4EC
:102C50008063C4F202034FF48062C4F20202528B1A
:102C600092B242F0400292B25A83FB7F4FEA430392
:102C700007F12002D31833F8183C4FF44050C4F247
:102C800001001946FFF77CFE01E0FFF76DFD4FF4F0
:102C90004053C4F201031B899BB203F08003002B55
:102CA000F3D1FFF761FD4FF48063C4F202034FF4E8
:102CB0008062C4F20202128B92B242F0400292B2DF
:102CC0001A83FFF751FD4FF48063C4F202034FF4FF
:102CD0008062C4F20202528B92B242F0400292B27F
:102CE0005A83FB7F03F10103FB77FB7F092BAED9EE
:102CF00042F29C13C2F200031B6803F1010242F28C
:102D00009C13C2F200031A604FF03200FEF7CAF9BA
:102D100099E700BF80B483B000AF78604FF46D4393
:102D2000CEF200037A6842F0BE6242F42022DA60FA
:102D300007F10C07BD4680BC704700BF80B485B06A
:102D400000AF78604FF00003FB734FF00003BB73DC
:102D50004FF00F037B737B68DB78002B47D04FF479
:102D60006D43CEF20003DB686FEA030303F4E06314
:102D70004FEA1323FB73FB7BC3F10403BB737A7B22
:102D8000FB7B42FA03F37B737B685B781A46BB7B61
:102D900002FA03F3FB737B689A787B7B02EA0303F6
:102DA000DAB2FB7B42EA0303FB73FB7B4FEA0313BC
:102DB000FB734FF46143CEF200037A6812789B18DC
:102DC000FA7B83F800234FF46143CEF200037A6864
:102DD00012784FEA5212D2B27968097801F01F01D5
:102DE0004FF0010000FA01F143F8221014E04FF413
:102DF0006143CEF200037A6812784FEA5212D2B2DF
:102E00007968097801F01F014FF0010000FA01F123
:102E100002F1200243F8221007F11407BD4680BCDE
:102E2000704700BF80B584B000AF78604FF00003FA
:102E3000FB607B6803F00703002B05D07B6823F061
:102E4000070303F108037B60FEF79CF941F670531A
:102E5000C2F200031A687B68D21841F6FF339A4227
:102E600024D841F67053C2F200031A687B68D21866
:102E700041F67053C2F200031B689A4216D941F61C
:102E80007053C2F200031A6840F27013C2F20003DA
:102E9000D318FB6041F67053C2F200031A687B68D6
:102EA000D21841F67053C2F200031A60FEF77CF9A3
:102EB000FB68002B01D1FDF795FDFB68184607F173
:102EC0001007BD4680BD00BF80B483B000AF7860FE
:102ED00007F10C07BD4680BC704700BF80B400AF4F
:102EE00041F67053C2F200031B68C3F5E053184665
:102EF000BD4680BC704700BF80B485B000AF78602D
:102F000039604FF00003FB817B681B88FB817A6886
:102F10004FF00003C4F201039A421FD07A684FF4C5
:102F20008063C4F201039A4218D07B68B3F1804FEA
:102F300014D07A684FF48063C4F200039A420DD033
:102F40007A684FF40063C4F200039A4206D07A68AC
:102F50004FF44063C4F200039A4209D1FB8923F085
:102F60007003FB813B685A88FB8942EA0303FB81BB
:102F70007A684FF48053C4F200039A4210D07A6802
:102F80004FF4A053C4F200039A4209D0FB8923F402
:102F90004073FB813B681A89FB8942EA0303FB818A
:102FA0007B68FA891A803B685A687B68DA623B68FA
:102FB0001A887B681A857A684FF00003C4F201030F
:102FC0009A4206D07A684FF48063C4F201039A42B1
:102FD00004D13B689B7A1A467B681A867B684FF05F
:102FE00001029A8207F11407BD4680BC704700BFFA
:102FF00080B483B000AF78607B684FF0FF325A60D6
:103000007B684FF000021A807B684FF000021A8143
:103010007B684FF000025A807B684FF000029A7282
:1030200007F10C07BD4680BC704700BF80B483B079
:1030300000AF78600B46FB70FB78002B08D07B68F4
:103040001B889BB243F001039AB27B681A8007E0A9
:103050007B681B889BB223F001039AB27B681A80BD
:1030600007F10C07BD4680BC704700BF80B483B039
:1030700000AF786013460A467A807B707B78002B1D
:1030800009D07B689B899AB27B8842EA03039AB293
:103090007B689A810BE07B689B899AB27B886FEA98
:1030A00003039BB202EA03039AB27B689A8107F199
:1030B0000C07BD4680BC704780B485B000AF786017
:1030C0000B467B804FF00003FB734FF00003BB8186
:1030D0004FF000037B817B681B8A9AB27B8802EAEF
:1030E0000303BB817B689B899AB27B8802EA030356
:1030F0007B81BB89002B06D07B89002B03D04FF04E
:103100000103FB7302E04FF00003FB73FB7B1846E7
:1031100007F11407BD4680BC704700BF80B483B080
:1031200000AF78600B467B807B886FEA03039AB21E
:103130007B681A8207F10C07BD4680BC704700BF50
:1031400080B487B000AFF86079813A81FB804FF09E
:103150000003FB824FF00003BB824FF000037B8231
:10316000FB681B89FB82FB681B8BBB82FB681B8C8B
:103170007B82FB8A23F00703FB82FA8A7B8942EA7F
:103180000303FB82BB8A23F4407323F00303BB8257
:10319000BB8A43F4807343F00103BB827B8A23F034
:1031A00022037B82FB884FEA03139AB23B8942EAEF
:1031B00003039AB27B8A42EA03037B82FB68FA8AA2
:1031C0001A81FB68BA8A1A83FB687A8A1A8407F123
:1031D0001C07BD4680BC704780B400AFBFF34F8F63
:1031E0004FF46D42CEF200024FF46D43CEF2000375
:1031F000DB6803F4E0614FF00403C0F2FA5341EAE4
:103200000303D360BFF34F8FFEE700BF80B500AF6D
:103210004FF48030FFF7E2FB0346002B05D0FFF7A9
:10322000DBFF4FF48030FFF709FC80BD032A70B448
:1032300004460D4612D941EA000313F0030F0FD1E3
:103240000B46044651F8045B50F8046BAE4204D1BF
:10325000043A0446032A0B46F2D81D46104672B1C2
:1032600021782B78994209D1501E2A4638B114F89A
:10327000011F013812F8013F9942F7D0C81A70BCFB
:10328000704700BF032A2DE9F00109D82AB10023B5
:10329000CC5CC45401339342FAD1BDE8F0017047CD
:1032A0000B468218014603E02478013301F8014BF4
:1032B00011F0030F1C46F7D113F003055DD06E42E9
:1032C000C5F1040CED009B594FEACC0C08E0043426
:1032D000A7593B4607FA0CF748EA070741F8047B71
:1032E000571A23FA05F8032FF1DC03E014F8013B29
:1032F00001F8013B8A42F9D8CFE753F8404C41F836
:10330000404C53F83C4C41F83C4C53F8384C41F895
:10331000384C53F8344C41F8344C53F8304C41F8A5
:10332000304C53F82C4C41F82C4C53F8284C41F8B5
:10333000284C53F8244C41F8244C53F8204C41F8C5
:10334000204C53F81C4C41F81C4C53F8184C41F8D5
:10335000184C53F8144C41F8144C53F8104C41F8E5
:10336000104C53F80C4C41F80C4C53F8084C41F8F5
:10337000084C53F8044C41F8044C561A1D460C46B0
:10338000403340313F2EB8DC2B460FE053F8101C81
:1033900044F8101C53F80C1C44F80C1C53F8081C7F
:1033A00044F8081C53F8041C44F8041C161B1D4662
:1033B00010330F2E214604F11004E7DC2B4602E007
:1033C000246841F8044B551A1C46032D03F10403ED
:1033D000F6DC8FE7032AC9B270B408D82AB10346D5
:1033E000121803F8011B9342FBD170BC704782187E
:1033F000044601E004F8011B14F0030FFAD14FF06A
:10340000013303FB01F31FE044F8403C44F83C3C2B
:1034100044F8383C44F8343C44F8303C44F82C3C04
:1034200044F8283C44F8243C44F8203C44F81C3C34
:1034300044F8183C44F8143C44F8103C44F80C3C64
:1034400044F8083C44F8043C161B254640343F2E03
:10345000DADC2C4607E044F8103C44F80C3C44F815
:10346000083C44F8043C161B254610340F2EF2DCB1
:1034700001E045F8043B541B032CFADC01E005F89D
:10348000011B9542FBD3B0E741EA000313F0030FA1
:10349000034670B414BF00250125032A94BF0025FC
:1034A00005F001050C460646CDB9B2B10D7834469B
:1034B000531E04F8015B55B1B21C73B111F8015FE2
:1034C0001446013B02F8015C0132002DF5D123B115
:1034D0000022013B04F8012BFBD170BC7047214650
:1034E00054F8045BA5F1013626EA050616F0803F84
:1034F00005D1043A43F8045B032A2146EFD81E465F
:10350000D3E700BF494E49540000000049444C45F0
:1035100000000000A5A5A5A5A5A5A5A5A5A5A5A5EF
:10352000A5A5A5A5A5A5A5A55350495F315F544103
:10353000534B0000010CFF09000F0F0A050B01019E
:0835400002020303040400056C
:103548003C3C5441424C4F3E3E000000000000000D
:10355800000000003C2D2D2047454F535048455250
:10356800415F32303133202D2D3E00000000000035
:103578000000000000000000000000003030303083
:10358800310000000F14C0FF01000000008000801F
:0C35980000800080FFFFFFFFAAAAAAAA83
:0400000508000000EF
:00000001FF
