:020000040800F2
:100000002C1F0020FD1C0008651D0008651D000850
:10001000651D0008651D0008651D00080000000042
:100020000000000000000000000000004D64000817
:10003000651D00080000000069650008B96500083A
:10004000651D000899770008651D0008651D0008FA
:10005000651D0008651D0008651D0008651D000878
:10006000651D0008651D0008651D0008651D000868
:10007000651D0008651D0008651D0008651D000858
:10008000651D0008651D0008651D0008651D000848
:10009000651D0008651D0008651D00082110000889
:1000A000651D0008DD230008651D0008651D0008AA
:1000B000651D0008651D0008651D0008651D000818
:1000C000651D0008651D0008651D0008651D000808
:1000D000651D0008651D0008651D0008651D0008F8
:1000E000651D0008651D0008651D0008651D0008E8
:1000F000651D0008651D0008651D0008651D0008D8
:10010000651D0008651D0008651D0008651D0008C7
:10011000651D0008651D0008651D0008651D0008B7
:10012000651D0008651D0008651D0008651D0008A7
:10013000651D0008651D0008651D0008651D000897
:10014000651D0008651D0008651D0008651D000887
:10015000651D0008651D0008651D0008651D000877
:10016000651D0008651D0008651D0008651D000867
:10017000651D0008651D0008651D0008651D000857
:10018000651D0008651D000890B484B000AF0246EC
:100190000B46FA71BB714FF00003FB60BB7903F0B3
:1001A00003034FEA83034FF00F0202FA03F3FB60ED
:1001B0004FF46053C4F20103BA794FEA9202D2B20B
:1001C00010464FF46052C4F20102B9794FEA91012E
:1001D000C9B201F1020152F821201146FA686FEA12
:1001E0000202114000F1020243F822104FF4605362
:1001F000C4F20103BA794FEA9202D2B210464FF428
:100200006052C4F20102B9794FEA9101C9B201F119
:10021000020152F821201146FC79BA7902F003025A
:100220004FEA820204FA02F2114300F1020243F89B
:10023000221007F11007BD4690BC7047F0B587B09B
:1002400000AF03463960FB714FF00003FB754FF0C0
:100250000003BB754FF000037B754FF000033B7547
:10026000FB794FF0160202FB03F2054BD3183B61FA
:100270003B691B88022B05D94FF00003E8E300BF60
:100280007C160020386808F085F803463B7541F27B
:100290002C73C2F200031B6818464FF000014FF0A8
:1002A000FF324FF0000305F099FE0346012B40F0AA
:1002B000CE833B695B8819463B691B883A69D089C4
:1002C00041F24062C2F200024FF01A0404FB03F450
:1002D0000B464FEA03135B1A4FEA4303E318D318A4
:1002E00003F1020302461A803B695B8819463B69A9
:1002F0001B883A69108A41F24062C2F200024FF054
:100300001A0404FB03F40B464FEA03135B1A4FEA8B
:100310004303E318D31803F1040302461A803B6930
:100320005B8819463B691B883A69908941F24062B3
:10033000C2F200024FF01A0404FB03F40B464FEA2A
:1003400003135B1A4FEA4303E318D31803F10603C0
:1003500002461A803B695B8819463B691B883A69EB
:10036000108941F24062C2F200024FF01A0404FB0D
:1003700003F40B464FEA03135B1A4FEA4303E318F7
:10038000D31803F1080302461A803B695B881946BB
:100390003B691B883A69508941F24062C2F200020F
:1003A0004FF01A0404FB03F40B464FEA03135B1AE5
:1003B0004FEA4303E318D31803F10A0302461A80F5
:1003C0003B695B8819463B691B8841F24062C2F277
:1003D00000024FF01A0000FB03F00B464FEA031334
:1003E0005B1A4FEA4303C318D31803F10C034FF40D
:1003F00080721A803B695B8819463B691B8841F211
:100400004062C2F200024FF01A0000FB03F00B46FC
:100410004FEA03135B1A4FEA4303C318D31803F1DF
:100420000E034FF400721A803B695B8819463B69E2
:100430001B8841F24062C2F200024FF01A0000FB3A
:1004400003F00B464FEA03135B1A4FEA4303C3184A
:10045000D31803F110034FF440721A803B695B8894
:1004600019463B691B8841F24062C2F200024FF01C
:100470001A0000FB03F00B464FEA03135B1A4FEA26
:100480004303C318D31803F112034FF480621A8098
:100490003B695B8819463B691B8841F24062C2F2A6
:1004A00000024FF01A0000FB03F00B464FEA031363
:1004B0005B1A4FEA4303C318D31803F114034FF434
:1004C000A0621A803B695B8819463B691B8841F230
:1004D0004062C2F200024FF01A0000FB03F00B462C
:1004E0004FEA03135B1A4FEA4303C318D31803F10F
:1004F00016034FF4C0621A803B695B8819463B695A
:100500001B8841F24062C2F200024FF01A0000FB69
:1005100003F00B464FEA03135B1A4FEA4303C31879
:10052000D31803F118034FF4E0621A803B695B882B
:1005300019463B691B8841F24062C2F200024FF04B
:100540001A0000FB03F00B464FEA03135B1A4FEA55
:100550004303C318D31803F11A034FF400621A803F
:100560007B7D03F105037B7597F914300A2B02DDBF
:100570004FF00A033B754FF00003FB7550E297F90B
:1005800017303A68D3181B782F2B65D997F9173095
:100590003A68D3181B78392B5ED897F917303A6828
:1005A000D3181B78A3F1300248F27043C0F6000361
:1005B0009B18DB7FFB733B695B881C463B691B8890
:1005C00018467E7D3B695B881D463B691B881A4641
:1005D00097F815E041F24061C2F2000113464FEA7C
:1005E00043039B184FEA83039B182A464FEA0212E3
:1005F000521B9B1873444FEA4303CB185B889AB293
:10060000FB7B99B27B7DA3F104039BB24FEA0323EA
:100610009BB29BB241EA03039BB242EA03039BB243
:100620009DB241F24061C2F2000103464FEA43032A
:100630001B184FEA83031B1822464FEA0212121BB3
:100640009B189B194FEA4303CB182A465A807B7D9F
:1006500003F101037B75DFE197F917303A68D3188E
:100660001B782E2B40F05D8197F91730002B41D17C
:100670003B695B881C463B691B8818467E7D3B694D
:100680005B881D463B691B881A4697F815E041F2C6
:100690004061C2F2000113464FEA43039B184FEA40
:1006A00083039B182A464FEA0212521B9B1873447D
:1006B0004FEA4303CB185B8843F080039DB241F2BD
:1006C0004061C2F2000103464FEA43031B184FEAA0
:1006D00083031B1822464FEA0212121B9B189B1918
:1006E0004FEA4303CB182A465A807B7D03F101036E
:1006F0007B7591E197F9172097F9143003F1FF33D7
:100700009A4280F2CD8097F9173003F101033A68DD
:10071000D3181B782E2B40F082803B695B881C46E7
:100720003B691B8818467E7D3B695B881D463B699B
:100730001B881A4697F815E041F24061C2F20001A9
:1007400013464FEA43039B184FEA83039B182A463C
:100750004FEA0212521B9B1873444FEA4303CB1813
:100760005B8843F080039DB241F24061C2F2000118
:1007700003464FEA43031B184FEA83031B18224624
:100780004FEA0212121B9B189B194FEA4303CB1826
:100790002A465A803B695B881C463B691B88184681
:1007A0007B7D03F1FF363B695B881D463B691B88F7
:1007B0001A467B7D03F1FF3E41F24061C2F2000127
:1007C00013464FEA43039B184FEA83039B182A46BC
:1007D0004FEA0212521B9B1873444FEA4303CB1893
:1007E0005B8843F080039DB241F24061C2F2000198
:1007F00003464FEA43031B184FEA83031B182246A4
:100800004FEA0212121B9B189B194FEA4303CB18A5
:100810002A465A807B7D03F101037B75FCE03B692E
:100820005B881C463B691B8818467B7D03F1FF36BD
:100830003B695B881D463B691B881A467B7D03F13B
:10084000FF3E41F24061C2F2000113464FEA43030A
:100850009B184FEA83039B182A464FEA0212521B49
:100860009B1873444FEA4303CB185B8843F0800323
:100870009DB241F24061C2F2000103464FEA4303D8
:100880001B184FEA83031B1822464FEA0212121B61
:100890009B189B194FEA4303CB182A465A80BBE0AA
:1008A0003B695B881C463B691B8818467B7D03F1CE
:1008B000FF363B695B881D463B691B881A467B7D7A
:1008C00003F1FF3E41F24061C2F2000113464FEADC
:1008D00043039B184FEA83039B182A464FEA0212F0
:1008E000521B9B1873444FEA4303CB185B8843F0B9
:1008F00080039DB241F24061C2F2000103464FEA1B
:1009000043031B184FEA83031B1822464FEA0212C7
:10091000121B9B189B194FEA4303CB182A465A8097
:100920007AE04FF00A03BB756BE097F917303A682D
:10093000D3181A7897F9161048F27043C0F60003DE
:100940005B5C9A4259D197F9162048F27043C0F681
:1009500000039B18DB7FBB733B695B881C463B69CC
:100960001B8818467E7D3B695B881D463B691B885A
:100970001A4697F815E041F24061C2F200011346B1
:100980004FEA43039B184FEA83039B182A464FEA1A
:100990000212521B9B1873444FEA4303CB185B8827
:1009A0009AB2BB7B99B27B7DA3F104039BB24FEA61
:1009B00003239BB29BB241EA03039BB242EA0303C7
:1009C0009BB29DB241F24061C2F2000103464FEA80
:1009D00043031B184FEA83031B1822464FEA0212F7
:1009E000121B9B189B194FEA4303CB182A465A80C7
:1009F0007B7D03F101037B7507E0BB7D03F1010300
:100A0000BB7597F916301E2B8FDD7A7D3B69DB882D
:100A100003F105039A420BDCFB7D03F10103FB7537
:100A200097F9172097F914309A42FFF6A8AD00E025
:100A300000BF41F22C73C2F200031B6818464FF04E
:100A400000014FF000024FF0000305F0B5F97B7D87
:100A5000184607F11C07BD46F0BD00BF80B586B043
:100A600004AF4FF002004FF0010101F039FB4FF0ED
:100A700004033B604FF000037B714FF001033B71B7
:100A80004FF00003BB714FF00003FB713B464FF486
:100A90008060C4F20200194604F0B6FD4FF4806392
:100AA000C4F202034FF004025A834FF001004FF0EA
:100AB00000014FF0030205F0E1F8024641F2206325
:100AC000C2F200031A6041F22063C2F200031B6805
:100AD000002B0DD041F22063C2F200031B681846C0
:100AE0004FF000014FF000024FF0000305F064F9F1
:100AF00048F2B043C0F600034FF00102009241F209
:100B00001C62C2F2000201924FF0000202924FF00A
:100B10000002039240F64130C0F6000019464FF043
:100B200040024FF0000301F04FFE41F2A863C2F211
:100B300000034FF001021A7707F10807BD4680BD98
:100B400080B582B000AF786041F22063C2F200034A
:100B50001B6818464FF000014FF0FF324FF00003C2
:100B600005F03CFA41F21863C2F200031B78012B36
:100B700040F0CC8041F21863C2F200035B78042B92
:100B800000F2C08001A252F823F000BFA10B0008C0
:100B9000D50B0008350C0008C10C0008D10C00086A
:100BA0004FF48063C4F202034FF004021A834FF043
:100BB000C80001F0F9FE4FF48063C4F202034FF065
:100BC00004025A8341F21863C2F200034FF000029C
:100BD0001A709BE04FF48063C4F202034FF00402EA
:100BE0001A834FF0640001F0DFFE4FF48063C4F21B
:100BF00002034FF004025A834FF0640001F0D4FE68
:100C00004FF48063C4F202034FF004021A834FF0E2
:100C1000640001F0C9FE4FF48063C4F202034FF098
:100C200004025A8341F21863C2F200034FF000023B
:100C30001A706BE04FF48063C4F202034FF00402B9
:100C40001A834FF0320001F0AFFE4FF48063C4F21C
:100C500002034FF004025A834FF0320001F0A4FE69
:100C60004FF48063C4F202034FF004021A834FF082
:100C7000320001F099FE4FF48063C4F202034FF09A
:100C800004025A834FF0320001F08EFE4FF480636D
:100C9000C4F202034FF004021A834FF0320001F055
:100CA00083FE4FF48063C4F202034FF004025A83C0
:100CB00041F21863C2F200034FF000021A7025E0FF
:100CC0004FF48063C4F202034FF004021A831DE064
:100CD0004FF48063C4F202034FF004021A834FF40E
:100CE0007A7001F061FE4FF48063C4F202034FF0AA
:100CF00004025A8341F21863C2F200034FF000026B
:100D00001A7003E04FF4FA7001F04EFE41F2A8634E
:100D1000C2F200039B6903F1010241F2A863C2F22F
:100D200000039A6141F2A863C2F200034FF001028E
:100D30001A7709E780B582B000AF13460246FA7110
:100D40000A46BA717B71BB7903F00103DBB2002B59
:100D500047D041F21863C2F200031B78002B5CD12C
:100D60007B79002B0ED141F22063C2F200031B6895
:100D700018464FF000014FF000024FF0000305F05D
:100D80001BF826E040F2E803C2F200034FF0000235
:100D90001A6041F22063C2F200031B6818464FF04C
:100DA000000140F2E802C2F200024FF0000305F039
:100DB000AFF840F2E803C2F200031B68012B08D130
:100DC00040F2E803C2F200031B68002B01D005F0DB
:100DD0008DFB41F21863C2F200034FF001021A705A
:100DE0001BE041F21863C2F200031B78012B06D10D
:100DF00041F21863C2F200034FF000021A7041F290
:100E0000A863C2F200034FF001021A774FF4806327
:100E1000C4F202034FF004025A83FB7903F0070384
:100E2000DAB241F21863C2F200035A7007F1080700
:100E3000BD4680BD80B58AB004AF4FF001004FF0D1
:100E4000010101F04DF94FF480404FF0010101F034
:100E5000A3F94FF0C1033B614FF000033B754FF026
:100E60000103FB7507F110034FF00000C4F202000C
:100E7000194604F0C9FB4FF000004FF00001FFF7E6
:100E800083F94FF00103BB604FF000033B734FF059
:100E90000C037B734FF00103BB7307F10803184683
:100EA00005F050FC4FF000004FF00601FFF76CF921
:100EB0004FF04003BB604FF000033B734FF00C0357
:100EC0007B734FF00103BB7307F10803184605F06D
:100ED00039FC4FF000004FF00701FFF755F94FF0D4
:100EE0008003BB604FF000033B734FF00C037B7338
:100EF0004FF00103BB7307F10803184605F022FC0D
:100F00004FF017033B714FF001037B714FF001036A
:100F1000BB714FF00103FB7107F10403184605F0A4
:100F2000E5FF48F2B843C0F600034FF0010200921B
:100F30004FF0000201924FF0000202924FF00002C7
:100F4000039240F66170C0F6000019464FF040026F
:100F50004FF0000301F038FC07F11807BD4680BDD3
:100F600080B582B000AF78604FF00000C4F202009C
:100F70004FF0010104F0F4FB0346002B06D14FF0C3
:100F800004004FF0000100F08DFC0BE04FF47053B3
:100F9000C4F201034FF47052C4F20102126842F02D
:100FA00001021A604FF00000C4F202004FF040014D
:100FB00004F0D6FB0346002B07D141F22463C2F2B2
:100FC00000034FF00202DA7625E04FF00000C4F291
:100FD00002004FF0800104F0C3FB0346002B07D151
:100FE00041F22463C2F200034FF00102DA7612E00C
:100FF00041F22463C2F200034FF00002DA764FF4AC
:101000007053C4F201034FF47052C4F2010212682B
:1010100042F0C0021A604FF0640001F0C5FCA3E783
:1010200080B500AF4FF0400005F038FC0346002BC0
:1010300015D04FF0400005F061FC4FF002004FF07A
:10104000010100F02FFC4FF47053C4F201034FF480
:101050007052C4F20102126822F040021A604FF08E
:10106000800005F01BFC0346002B15D04FF08000DC
:1010700005F044FC4FF003004FF0010100F012FCBA
:101080004FF47053C4F201034FF47052C4F20102E2
:10109000126822F080021A6080BD00BF80B483B065
:1010A00000AF0346FB714FF02003C4F20E23FA7920
:1010B0001A6007F10C07BD4680BC704780B485B04C
:1010C00000AF78604FF00003FB604FF4E043C4F2E0
:1010D00000031B68FB60FB6823F0E003FB60FA6819
:1010E0007B6842EA0303FB604FF4E043C4F2000371
:1010F000FA681A6007F11407BD4680BC704700BF4C
:1011000080B483B000AF0346FB714FF01003C4F20C
:101110000E23FA791A6007F10C07BD4680BC7047B0
:1011200080B483B000AF0346FB714FF0A403C4F258
:101130000E23FA791A6007F10C07BD4680BC704790
:1011400080B582B000AF4FF004004FF0010100F015
:10115000C7FF4FF00F033B604FF000037B714FF070
:1011600001033B714FF00003BB714FF00203FB71B1
:101170003B464FF40060C4F20200194604F044FA02
:101180004FF40063C4F202034FF00F025A8341F29E
:101190002463C2F200034FF48042C4F202021A60D8
:1011A00041F22463C2F200034FF000021A7641F2CA
:1011B0002463C2F200034FF000029A7641F22463E6
:1011C000C2F200034FF000025A7641F22463C2F2E9
:1011D00000031B681A6A41F22463C2F200035A60DA
:1011E00041F22463C2F200034FF000021A7541F28B
:1011F0002463C2F200034FF00002DA8241F224635A
:10120000C2F200034FF00002DA7607F10807BD468C
:1012100080BD00BF80B584B000AF78604FF00000A3
:1012200000F0E8FA41F22463C2F200031B7E002BB7
:1012300040F0D98041F22463C2F200035B7E002BB0
:1012400040F0D18041F22463C2F200035B687A6807
:10125000D31AFB60FB68002B10DDFB68184600F01A
:1012600091FC03461A4641F22463C2F200031B6854
:10127000DB8B9A4213D84FF00203B6E0FB681846A6
:1012800000F080FC03461A4641F22463C2F20003D8
:101290001B689B8B9A4202D84FF00203A5E0FB68C3
:1012A000002B03DAFB68C3F10003FB60FB68184600
:1012B00000F068FC03461A4641F22463C2F20003C0
:1012C0001B685B8B9A4204D94FF0010000F092FA40
:1012D00003E04FF0000000F08DFA41F22463C2F207
:1012E00000035A687B689A4236D941F22463C2F2FD
:1012F0000003DB7E022B02D14FF0020375E041F2C6
:101300002463C2F200037A689A6041F22463C2F255
:1013100000031B689B8B184600F0EEFB02467B68BF
:10132000D21841F22463C2F200031A6141F224632D
:10133000C2F200031B685B8B184600F0DDFB02461F
:101340007B68D21841F22463C2F20003DA604FF0E6
:10135000010000F077FA35E041F22463C2F20003A5
:10136000DB7E012B02D14FF002033EE041F2246309
:10137000C2F200037A689A6041F22463C2F2000369
:101380001B68DB8B184600F0B7FB03467A68D21A5D
:1013900041F22463C2F200031A6141F22463C2F2F3
:1013A00000031B685B8B184600F0A6FB03467A68B7
:1013B000D21A41F22463C2F20003DA604FF0000057
:1013C00000F040FA41F22463C2F200034FF0000241
:1013D0009A7641F22463C2F200034FF003021A76B8
:1013E0004FF0000301E04FF00103184607F110072A
:1013F000BD4680BD90B585B000AF02460B46FA7180
:10140000BB804FF0000000F0F5F941F22463C2F216
:1014100000031B7E002B40F0E58141F22463C2F201
:1014200000035B7E002B40F0DD81FB79032B00F293
:10143000D68101A252F823F0491400084F14000885
:101440004D150008411600084FF00003CCE141F2B1
:101450002463C2F20003DB7E022B02D14FF00203B1
:10146000C2E141F22463C2F200035B68184600F057
:10147000CFFB03461A46BB88D318FB8141F2246395
:10148000C2F200035B68184600F0C2FB03461A462E
:10149000BB88D3189BB2184600F0FAFB024641F213
:1014A0002463C2F200039A6041F22463C2F2000393
:1014B0009C6841F22463C2F200031B68DB8B184670
:1014C00000F01AFB0346E21A41F22463C2F2000361
:1014D0001A6141F22463C2F200039C6841F2246362
:1014E000C2F200031B685B8B184600F005FB034645
:1014F000E21A41F22463C2F20003DA6041F224638B
:10150000C2F200034FF000029A7641F22463C2F265
:1015100000034FF001021A76B7F9042041F2246368
:10152000C2F200031B685B8B9A4204DD4FF001009E
:1015300000F060F903E04FF0000000F05BF94FF0BD
:10154000000000F07FF94FF000034DE141F2246309
:10155000C2F20003DB7E012B02D14FF0020343E114
:10156000B7F90430002B03DABB88C3F10003BB805A
:1015700041F22463C2F200035B68184600F048FBA6
:1015800003461A46BB88D31A9BB2184600F080FB6C
:10159000024641F22463C2F200039A6041F22463DE
:1015A000C2F200039C6841F22463C2F200031B688C
:1015B0009B8B184600F0A0FA0346E21841F2246320
:1015C000C2F200031A6141F22463C2F200039C6874
:1015D00041F22463C2F200031B685B8B184600F0E3
:1015E0008BFA0346E21841F22463C2F20003DA6088
:1015F00041F22463C2F200034FF000029A7641F2F6
:101600002463C2F200034FF002021A76B7F90420F5
:1016100041F22463C2F200031B685B8B9A4204DD33
:101620004FF0010000F0E6F803E04FF0000000F09A
:10163000E1F84FF0010000F005F94FF00003D3E0AE
:10164000BC8841F22463C2F200035B68184600F0D4
:10165000DFFA0346E31A9BB2BB81B7F90C30002BCB
:1016600055DB41F22463C2F20003DB7E022B02D180
:101670004FF00203B8E0BB88184600F009FB0246B1
:1016800041F22463C2F200039A6041F22463C2F281
:1016900000039C6841F22463C2F200031B68DB8BE9
:1016A000184600F029FA0346E21A41F22463C2F216
:1016B00000031A6141F22463C2F200039C6841F204
:1016C0002463C2F200031B685B8B184600F014FA17
:1016D0000346E21A41F22463C2F20003DA60B7F96A
:1016E0000C2041F22463C2F200031B685B8B9A4218
:1016F00004DD4FF0010000F07DF803E04FF0000042
:1017000000F078F84FF0000000F09CF856E041F24D
:101710002463C2F20003DB7E012B02D14FF00203EF
:1017200062E0BB88184600F0B3FA024641F2246337
:10173000C2F200039A6041F22463C2F200039C6883
:1017400041F22463C2F200031B689B8B184600F031
:10175000D3F90346E21841F22463C2F200031A618E
:1017600041F22463C2F200039C6841F22463C2F296
:1017700000031B685B8B184600F0BEF90346E218B5
:1017800041F22463C2F20003DA60B7F90C30C3F10E
:10179000000241F22463C2F200031B685B8B9A4291
:1017A00004DD4FF0010000F025F803E04FF00000E9
:1017B00000F020F84FF0010000F044F841F22463FB
:1017C000C2F200034FF000029A7641F22463C2F2A3
:1017D00000034FF003021A764FF0000304E04FF0CD
:1017E000020301E04FF00103184607F11407BD465C
:1017F00090BD00BF80B483B000AF0346FB71FB799E
:10180000002B02D0012B0AD013E04FF40063C4F286
:1018100002034FF008021A834FF000030BE04FF46D
:101820000063C4F202034FF008025A834FF0000332
:1018300001E04FF00203184607F10C07BD4680BCDB
:10184000704700BF80B483B000AF0346FB71FB79E3
:10185000002B02D0012B0FD01DE04FF40063C4F227
:1018600002034FF002025A834FF40063C4F20203F2
:101870004FF001021A830EE04FF40063C4F202033A
:101880004FF002021A834FF40063C4F202034FF0D8
:1018900001025A8300BF184607F10C07BD4680BC01
:1018A000704700BF80B584B000AF02460B46FA71A6
:1018B000BB71FB7903F1FF33062B00F2AA8001A272
:1018C00052F823F0C71900080F1900083D19000845
:1018D0006B190008E118000899190008F5190008AB
:1018E0004FF40063C4F202034FF003025A83BB7942
:1018F0004FF002004FF001011A46FFF71BFA41F2C8
:101900002463C2F200034FF000025A7690E04FF4D5
:101910000063C4F202034FF00B025A83BB794FF00D
:1019200004004FF001011A46FFF704FA41F2246364
:10193000C2F200034FF002025A7679E04FF40063DE
:10194000C4F202034FF00B025A83BB794FF004003C
:101950004FF001011A46FFF7EDF941F22463C2F29C
:1019600000034FF002025A7662E04FF40063C4F2C3
:1019700002034FF00B025A83BB794FF004004FF083
:1019800001011A46FFF7D6F941F22463C2F20003BF
:101990004FF002025A764BE04FF40063C4F20203A8
:1019A0004FF00B025A83BB794FF004004FF0010156
:1019B0001A46FFF7BFF941F22463C2F200034FF069
:1019C00002025A7634E04FF40063C4F202034FF08F
:1019D0000B025A83BB794FF004004FF001011A4605
:1019E000FFF7A8F941F22463C2F200034FF00202AC
:1019F0005A761DE04FF40063C4F202034FF00B026D
:101A00005A8341F22463C2F200034FF000025A7677
:101A10000EE04FF40063C4F202034FF00B025A834E
:101A200041F22463C2F200034FF002025A7600BF73
:101A30004FF00103FB73BB79002B0FD141F22873E8
:101A4000C2F200031A6807F10F03104619464FF05F
:101A500000024FF0000304F0AFF912E04FF0000372
:101A6000BB6041F22873C2F20003196807F1080352
:101A700007F10F02084611461A464FF0000304F022
:101A800047FA41F22463C2F20003FA799A7641F2EE
:101A90002463C2F200034FF000021A76184607F1E1
:101AA0001007BD4680BD00BF80B483B000AF44F2D4
:101AB0004023C0F20F037B604FF40063C4F20203C3
:101AC0004FF004021A8300BF7B68002B0CBF002379
:101AD0000123DBB27A6802F1FF327A60002BF3D186
:101AE0004FF40063C4F202034FF004025A8307F17B
:101AF0000C07BD4680BC7047B0B582B000AF03464E
:101B0000FB80FB8818464FF0000141F22463C2F2CB
:101B100000031B68DB681C464FF0000541F224639C
:101B2000C2F200031B685B681A464FF00003A21A5A
:101B300065EB030302FB01F400FB03F56419A0FB52
:101B40000223E418234641F22461C2F2000109682D
:101B50000989084641F22461C2F200010968098836
:101B6000411A0C464FEAE1751046194622462B46AB
:101B700005F022FE02460B461346184607F10807F9
:101B8000BD46B0BDF0B583B000AF78607B68184645
:101B90004FF0000141F22463C2F200031B681B896D
:101BA0001C464FF0000541F22463C2F200031B689B
:101BB0001E8833461A464FF00003A21A65EB030352
:101BC00002FB01F400FB03F56419A0FB0223E418F7
:101BD000234641F22461C2F200010968C86841F25B
:101BE0002461C2F2000109684968411A0C464FF0AD
:101BF00000051046194622462B4605F0DDFD02463B
:101C00000B4693B2184607F10C07BD46F0BD00BF66
:101C100090B583B000AF786041F22463C2F2000354
:101C20001B685A697B689A4216D841F22463C2F253
:101C300000031B681C8A41F22463C2F200031B6884
:101C40005B697A68D31A03F101031846FFF79AFF1C
:101C50000346E3189BB216E041F22463C2F200038C
:101C60001B681C8A41F22463C2F200031B685A6994
:101C70007B68D31A1846FFF785FF0346E31A9BB229
:101C800003F1FF339BB2184607F10C07BD4690BD28
:101C900090B585B000AF0346FB8041F22463C2F2E9
:101CA00000031B681B8AFA88D31A9BB2FB81B7F921
:101CB0000E30002B0CDB41F22463C2F200031B68E0
:101CC0005C69FB891846FFF717FF0346E3180FE02E
:101CD00041F22463C2F200031B685C69FB89C3F113
:101CE00000039BB29BB21846FFF706FF0346E31AB8
:101CF000184607F11407BD4690BD00BF80B582B0FD
:101D000000AF48F23853C0F600037B6040F2000396
:101D1000C2F200033B600BE07B681A683B681A6004
:101D20003B6803F104033B607B6803F104037B60C1
:101D30003A6840F2E403C2F200039A42ECD3074847
:101D400007494FF000028842B8BF40F8042BFADB85
:101D500000F0A0F907F10807BD4680BDE8000020AB
:101D60003017002080B400AFFEE700BF80B500AFA1
:101D70004FF480204FF0010100F0B2F94FF0805095
:101D80004FF0010100F0DAF980BD00BF80B586B0E8
:101D900000AFF860B9601346FB714FF00003FB75AC
:101DA0004FF00100FFF77AF94FF00100FFF7B8F9A3
:101DB0004FF00003FB750BE0FA68FB7DD318B968A0
:101DC000FA7D8A1812781A70FB7D03F10103FB7506
:101DD000FA7DFB799A42EFD34FF00000FFF75EF9EE
:101DE00007F11807BD4680BD80B483B000AF03463D
:101DF000FB804FF44053C4F20003FA881A6007F1E5
:101E00000C07BD4680BC704780B483B000AF03466A
:101E1000FB714FF44053C4F20003FA795A6007F1A2
:101E20000C07BD4680BC704780B483B000AF03464A
:101E3000FB804FF44053C4F20003FA889A6007F124
:101E40000C07BD4680BC704780B400AF4FF44053D0
:101E5000C4F200034AF6AA221A60BD4680BC70474D
:101E600080B400AF4FF44053C4F200034CF6CC42B0
:101E70001A60BD4680BC704780B483B000AF4FF09D
:101E80000003FB714FF00003BB7140F2EC03C2F2A0
:101E900000031B7803F10103DAB240F2EC03C2F253
:101EA00000031A7040F2EC03C2F200031B78022B0D
:101EB0001AD84FF00003FB7112E0FA7941F2406347
:101EC000C2F200034FF0160101FB02F29B1803F16E
:101ED00048034FF000021A72FB7903F10103FB7112
:101EE000FB79012BE9D9A6E040F2EC03C2F2000332
:101EF0001B78052B06D940F2EC03C2F200034FF029
:101F000000021A7040F2EC03C2F200031B78032BAC
:101F100040F090804FF00003FB7186E0FA7941F2C7
:101F20004063C2F200034FF0160101FB02F29B185E
:101F300003F14803DB79002B0ED0FA7941F24063BC
:101F4000C2F200034FF0160101FB02F29B1803F1ED
:101F500048035B7A002B1ED1FA7941F24063C2F24A
:101F600000034FF0160101FB02F29B1803F1480336
:101F70004FF000025A72FA7941F24063C2F2000354
:101F80004FF0160101FB02F29B1803F148034FF0DA
:101F900000021A7245E0FA7941F24063C2F200038E
:101FA0004FF0160101FB02F29B1803F148035B7A24
:101FB000FF2B1CD0FA7941F24063C2F200034FF0CC
:101FC000160101FB02F15B1803F148035B7A03F190
:101FD000FF33D9B241F24063C2F200034FF0160062
:101FE00000FB02F29B1803F148030A465A72F97982
:101FF000FA7941F24063C2F200034FF0160000FB91
:1020000002F29B1803F14803DA7941F24063C2F20D
:1020100000034FF0160000FB01F15B1803F14803C9
:102020001A72FB7903F10103FB71FB79012B7FF637
:1020300075AF00E000BF07F10C07BD4680BC7047DC
:1020400080B483B000AF13460246FA710A46BA71F3
:102050007B71FA7941F24063C2F200034FF016013E
:1020600001FB02F29B1803F14803BA79DA71FA799D
:1020700041F24063C2F200034FF0160101FB02F28D
:102080009B1803F148037A795A7207F10C07BD4691
:1020900080BC704780B500AF03F09CFC05F03CFBB2
:1020A000FFF764FEFFF74CF800F01CFAFEF7C2FEE3
:1020B00000F08AF901F0E4FAFEF7D0FC01F0ACFE82
:1020C00000F0DAFA00F09EFCFEE700BF80B400AF3B
:1020D000FEE700BF80B483B000AF78603960FEE7F0
:1020E00080B483B000AF78600B46FB70FB78002BA8
:1020F0000ED04FF46053C4F202034FF46052C4F2A6
:102100000202126B11467A6841EA02021A630FE07A
:102110004FF46053C4F202034FF46052C4F202025F
:10212000126B11467A686FEA020201EA02021A6330
:1021300007F10C07BD4680BC704700BF80B483B078
:1021400000AF78600B46FB70FB78002B0ED04FF48D
:102150006053C4F202034FF46052C4F20202126CE4
:1021600011467A6841EA02021A640FE04FF46053A4
:10217000C4F202034FF46052C4F20202126C114620
:102180007A686FEA020201EA02021A6407F10C0798
:10219000BD4680BC704700BF80B483B000AF78609C
:1021A0000B46FB70FB78002B0ED04FF46053C4F24B
:1021B00002034FF46052C4F20202526C11467A6874
:1021C00041EA02025A640FE04FF46053C4F2020382
:1021D0004FF46052C4F20202526C11467A686FEA00
:1021E000020201EA02025A6407F10C07BD4680BCF4
:1021F000704700BF80B400AF41F24063C2F20003F9
:102200004FF002021A7041F24063C2F200034FF035
:102210000002DA8741F24063C2F200034FF000028D
:102220009A8741F24063C2F200034FF00102A3F823
:10223000402041F24063C2F200034FF00502A3F8D0
:10224000422041F24063C2F2000340F60922A3F8A3
:10225000442041F24063C2F200034FF41062A3F83D
:10226000462041F24063C2F20003B3F8423003F16A
:10227000FF339BB29BB243F430639BB29AB241F2FC
:102280004063C2F20003A3F8482041F24063C2F267
:10229000000340F60142A3F84A2041F24063C2F233
:1022A00000034FF47062A3F84C2041F24063C2F285
:1022B00000034FF0000283F84F2041F24063C2F266
:1022C000000393F84F2041F24063C2F2000383F809
:1022D000502041F24063C2F200034FF0000283F845
:1022E000512041F24063C2F200034FF00102A3F813
:1022F000542041F24063C2F200034FF00002A3F801
:10230000522041F24063C2F200034FF00102A3F8F1
:10231000562041F24063C2F200034FF00502A3F8D9
:10232000582041F24063C2F2000340F60922A3F8AC
:102330005A2041F24063C2F200034FF41062A3F846
:102340005C2041F24063C2F20003B3F8583003F15D
:10235000FF339BB29BB243F430639BB29AB241F21B
:102360004063C2F20003A3F85E2041F24063C2F270
:10237000000340F60142A3F8602041F24063C2F23C
:1023800000034FF47062A3F8622041F24063C2F28E
:1023900000034FF0000283F8652041F24063C2F26F
:1023A000000393F8652041F24063C2F2000383F812
:1023B000662041F24063C2F200034FF0000283F84E
:1023C0006720BD4680BC704780B500AFFFF712FFA5
:1023D00004F0A4FA4FF00003184680BD80B582B027
:1023E00000AF4FF00003C4F201034FF6FE721A82F1
:1023F0004FF00003C4F201031B889BB203F01003EB
:10240000002B0CD041F22463C2F200035B6803F19D
:10241000FF3241F22463C2F200035A600BE041F242
:102420002463C2F200035B6803F1010241F22463FA
:10243000C2F200035A6041F22463C2F200035B7EE1
:10244000002B4BD141F22463C2F200039B7E002B90
:1024500044D141F22463C2F200031B7E002B3DD025
:1024600041F22463C2F200035A6841F22463C2F2CB
:102470000003DB689A4203D14FF00000FFF7BAF97E
:1024800041F22463C2F200035A6841F22463C2F2AB
:1024900000031B699A4221D14FF40063C4F2020386
:1024A0004FF003025A834FF005004FF00101FFF790
:1024B000F9F941F22463C2F200035B687B6041F2E8
:1024C0002463C2F200031B6803F1200207F1040336
:1024D000104619464FF00402FFF758FC07F10807B1
:1024E000BD4680BD80B58AB000AF4FF001004FF00F
:1024F0000101FFF7F5FD4FF001004FF00101FFF77B
:102500004BFE07F11C03184604F03CFE4FF001039C
:102510003B624FF00003BB834FF00003BB844FF0DE
:102520001003FB8307F11C034FF00000C4F201000D
:10253000194604F0ABFD4FF00000C4F201004FF06B
:1025400003014FF00A024FF00A0304F04BFF4FF073
:102550000003C4F201034FF022021A844FF000007E
:10256000C4F201004FF001014FF0010204F014FF2A
:102570004FF00000C4F201004FF0010104F020FE12
:102580004FF4407004F09EFC4FF01D033B764FF07B
:102590000F037B764FF00E03BB764FF00103FB7603
:1025A00007F11803184604F0A1FC4FF019033B761D
:1025B00007F11803184604F099FC4FF00003BB81A3
:1025C0004FF00F03BB8207F10C034FF00000C4F281
:1025D0000100194604F014FE07F10C034FF480606B
:1025E000C4F20000194604F00BFE4FF00403BB8157
:1025F0004FF00F03BB8207F10C034FF00000C4F251
:102600000100194604F0FCFD4FF440737B604FF06D
:1026100002033B724FF00103FB724FF00003BB72E9
:102620004FF000037B7207F104034FF00000C4F287
:102630000200194602F0E8FF4FF00000C4F2020069
:102640004FF008014FF0010203F0AAF84FF000002C
:10265000C4F202004FF009014FF0010203F0A0F8AC
:102660004FF00003C4F201034FF000025A6207F179
:102670002807BD4680BD00BF80B586B004AF4FF0CF
:102680000003FB710EE0FB7941F2A862C2F2000286
:102690004FEAC303D3184FF001021A71FB7903F11B
:1026A0000103FB71FB79032BEDD945F25550FFF780
:1026B0009BFB4FF00600FFF7A7FB40F27120FFF7EE
:1026C000B3FBFFF7C1FBFFF7CBFB48F2C443C0F6F7
:1026D00000034FF0010200924FF0000201924FF010
:1026E000000202924FF00002039242F20970C0F61B
:1026F000000019464FF040024FF0000300F064F86C
:1027000007F10807BD4680BD80B582B000AF786094
:1027100041F2A863C2F200031B68002B06D141F20C
:10272000A863C2F200031B79012B2BD141F2A863ED
:10273000C2F200039B68002B06D141F2A863C2F2EB
:1027400000031B7B012B1DD141F2A863C2F20003E1
:102750001B69002B06D141F2A863C2F200031B7D66
:10276000012B0FD141F2A863C2F200039B69002B39
:1027700006D141F2A863C2F200031B7F012B01D1F5
:10278000FFF762FB41F2A863C2F200034FF00002C0
:102790001A6041F2A863C2F200034FF000029A608F
:1027A00041F2A863C2F200034FF000021A6141F245
:1027B000A863C2F200034FF000029A614FF4FA706E
:1027C00000F0F2F8A4E700BF80B58AB002AFF8606D
:1027D000B9603B601346FB80FB68002B04D14FF0CF
:1027E000500080F31188FEE7BB6A042B04D94FF038
:1027F000500080F31188FEE7FB881846396B00F023
:1028000017FEB861BB69002B00F0B080BB691A6B82
:10281000FB8803F1FF334FEA8303D3187B617B69A5
:1028200023F007037B617B6903F00703002B04D0CF
:102830004FF0500080F31188FEE7FB880093B869E1
:10284000B968BA6A7B6B00F0D1FC7869F9683A68BC
:1028500003F0C4FD03461A46BB691A60FB6A002BED
:1028600002D0FB6ABA691A6003F04CFE40F2C8134A
:10287000C2F200031B6803F1010240F2C813C2F266
:1028800000031A6040F2F003C2F200031B68002B41
:102890000FD140F2F003C2F20003BA691A6040F2AD
:1028A000C813C2F200031B68012B18D100F0DCFC36
:1028B00015E040F2D813C2F200031B68002B0ED1C2
:1028C00040F2F003C2F200031B68DA6ABB6A9A4264
:1028D00005D840F2F003C2F20003BA691A60BB697E
:1028E000DA6A40F2D013C2F200031B689A4206D99A
:1028F000BB69DA6A40F2D013C2F200031A6040F2F8
:10290000EC13C2F200031B6803F1010240F2EC1366
:10291000C2F200031A60BB69DA6A40F2D413C2F251
:1029200000031B689A4206D9BB69DA6A40F2D413E5
:10293000C2F200031A60BB69DA6A13464FEA8303E6
:102940009B184FEA83031A4640F2F403C2F20003D5
:10295000D218BB6903F104031046194602F0AAFF1E
:102960004FF00103FB6103F0E3FD02E04FF0FF33A2
:10297000FB61FB69012B11D140F2D813C2F20003B5
:102980001B68002B0AD040F2F003C2F200031B6860
:10299000DA6ABB6A9A4201D203F0A8FDFB691846C5
:1029A00007F12007BD4680BD80B584B000AF7860D8
:1029B0004FF00003FB607B68002B19D000F064F837
:1029C00040F2CC13C2F200031A687B68D318BB60D4
:1029D00040F2F003C2F200031B6803F1040318463F
:1029E00002F0CEFFB86800F0DDFC00F05FF8F860A0
:1029F000FB68002B01D103F079FD07F11007BD46FC
:102A000080BD00BF80B586B004AF48F2CC43C0F6AD
:102A100000034FF0000200924FF0000201924FF0CD
:102A2000000202924FF00002039243F2C910C0F676
:102A3000000019464FF046024FF00003FFF7C4FEB6
:102A400078607B68012B13D14FF0500080F3118820
:102A500040F2D813C2F200034FF001021A6040F2B4
:102A6000CC13C2F200034FF000021A6003F006FD1F
:102A70007B68002B04D14FF0500080F31188FEE7F3
:102A800007F10807BD4680BD80B400AF40F2DC13FB
:102A9000C2F200031B6803F1010240F2DC13C2F230
:102AA00000031A60BD4680BC704700BF90B583B07C
:102AB00000AF4FF000037B6040F2DC13C2F2000372
:102AC0001B68002B04D14FF0500080F31188FEE703
:102AD00003F018FD40F2DC13C2F200031B6803F19F
:102AE000FF3240F2DC13C2F200031A6040F2DC1342
:102AF000C2F200031B68002B40F0868040F2C8132E
:102B0000C2F200031B68002B7ED04FF000033B6035
:102B10003DE040F28813C2F20003DB68DB681C462C
:102B200004F11803184602F02BFF04F104031846C1
:102B300002F026FFE26A40F2D413C2F200031B68DF
:102B40009A4205D9E26A40F2D413C2F200031A6035
:102B5000E26A13464FEA83039B184FEA83031A463F
:102B600040F2F403C2F20003D21804F10403104649
:102B7000194602F09FFEE26A40F2F003C2F200033F
:102B80001B68DB6A9A4202D34FF001033B6040F2BC
:102B90008813C2F200031B68002BBAD140F2E01385
:102BA000C2F200031B68002B18D00DE000F034F8CF
:102BB00040F2E013C2F200031B6803F1FF3240F25F
:102BC000E013C2F200031A6040F2E013C2F2000305
:102BD0001B68002BEAD14FF001033B603B68012BDF
:102BE00006D040F2E413C2F200031B68012B0BD1A4
:102BF0004FF001037B6040F2E413C2F200034FF098
:102C000000021A6003F072FC03F092FC7B68184625
:102C100007F10C07BD4690BD80B584B000AF40F20F
:102C2000DC13C2F200031B68002B40F0CD8040F2A1
:102C3000CC13C2F200031B6803F1010240F2CC1373
:102C4000C2F200031A6040F2CC13C2F200031B6808
:102C5000002B4DD140F28013C2F200031B681B68A9
:102C6000002B04D04FF0500080F31188FEE740F2B3
:102C70008013C2F200031B68FB6040F28413C2F2AF
:102C800000031A6840F28013C2F200031A6040F297
:102C90008413C2F20003FA681A6040F2E813C2F229
:102CA00000031B6803F1010240F2E813C2F20003C3
:102CB0001A6040F28013C2F200031B681B68002BED
:102CC00007D140F20003C2F200034FF0FF321A6056
:102CD0000EE040F28013C2F200031B68DB68DB6881
:102CE000BB60BB685A6840F20003C2F200031A607E
:102CF00040F2CC13C2F200031A6840F20003C2F2A1
:102D000000031B689A426BD340F28013C2F20003A7
:102D10001B681B68002B07D140F20003C2F20003BE
:102D20004FF0FF321A605BE040F28013C2F2000302
:102D30001B68DB68DB68BB60BB685B687B6040F27C
:102D4000CC13C2F200031A687B689A4206D240F2A2
:102D50000003C2F200037A681A6041E0BB6803F125
:102D60000403184602F00CFEBB689B6A002B05D0DA
:102D7000BB6803F11803184602F002FEBB68DA6A6A
:102D800040F2D413C2F200031B689A4206D9BB6812
:102D9000DA6A40F2D413C2F200031A60BB68DA6A3E
:102DA00013464FEA83039B184FEA83031A4640F207
:102DB000F403C2F20003D218BB6803F10403104607
:102DC000194602F077FD9FE740F2E013C2F20003DC
:102DD0001B6803F1010240F2E013C2F200031A6023
:102DE00007F11007BD4680BD80B582B000AF40F24C
:102DF000DC13C2F200031B68002B07D040F2E4137F
:102E0000C2F200034FF001021A609CE040F2F003AE
:102E1000C2F200031B681A6840F2F003C2F200031A
:102E20001B681B6B9A420FD840F2F003C2F20003FA
:102E30001A6840F2F003C2F200031B6803F1340386
:102E400010461946FFF746F940F2F003C2F20003BC
:102E50001B681B6B184648F2D441C0F600014FF0C6
:102E6000140205F069F90346002B29D040F2F00363
:102E7000C2F200031A6840F2F003C2F200031B68BA
:102E800003F1340310461946FFF724F919E040F224
:102E9000D413C2F200031B68002B04D14FF0500082
:102EA00080F31188FEE740F2D413C2F200031B68DE
:102EB00003F1FF3240F2D413C2F200031A6000E0C3
:102EC00000BF40F2D413C2F200031A6813464FEA5F
:102ED00083039B184FEA83031A4640F2F403C2F2BD
:102EE0000003D3181B68002BD1D040F2D413C2F2D8
:102EF00000031A6813464FEA83039B184FEA8303C3
:102F00001A4640F2F403C2F20003D3187B607B68D8
:102F10005B685B681A467B685A607B685A687B68A6
:102F200003F108039A4205D17B685B685B681A4627
:102F30007B685A607B685B68DB681A4640F2F00386
:102F4000C2F200031A6007F10807BD4680BD00BF4A
:102F500080B584B000AF786039607B68002B04D105
:102F60004FF0500080F31188FEE740F2F003C2F208
:102F700000031B6803F118037868194602F0C4FCCB
:102F800040F2F003C2F200031B6803F10403184689
:102F900002F0F6FC3B68B3F1FF3F0ED140F2F003C4
:102FA000C2F200031B6803F1040340F2B410C2F242
:102FB0000000194602F07EFC0AE040F2CC13C2F297
:102FC00000031A683B68D318FB60F86800F0EAF960
:102FD00007F11007BD4680BD80B584B000AF7860B2
:102FE0007B68DB68DB68BB60BB68002B04D14FF0FB
:102FF000500080F31188FEE7BB6803F11803184600
:1030000002F0BEFC40F2DC13C2F200031B68002B8E
:103010002BD1BB6803F10403184602F0B1FCBB6876
:10302000DA6A40F2D413C2F200031B689A4206D94E
:10303000BB68DA6A40F2D413C2F200031A60BB68BC
:10304000DA6A13464FEA83039B184FEA83031A4652
:1030500040F2F403C2F20003D218BB6803F1040388
:103060001046194602F026FC09E0BB6803F118037C
:1030700040F28810C2F20000194602F01BFCBB6847
:10308000DA6A40F2F003C2F200031B68DB6A9A427C
:1030900003D34FF00103FB6002E04FF00003FB603D
:1030A000FB68184607F11007BD4680BD80B483B0A9
:1030B00000AF78607B68002B04D14FF0500080F3A4
:1030C0001188FEE740F2E813C2F200031A687B6839
:1030D0001A6040F2CC13C2F200031A687B685A608F
:1030E00007F10C07BD4680BC704700BF80B584B0B7
:1030F00000AF786039607B68002B04D14FF050003E
:1031000080F31188FEE73B68002B04D14FF050009C
:1031100080F31188FEE703F0F5F93B681B68B3F113
:10312000FF3F03D14FF00003FB6038E07B681A6873
:1031300040F2E813C2F200031B689A420CD07B688D
:103140005A6840F2CC13C2F200031B689A4203D8BB
:103150004FF00103FB6022E040F2CC13C2F2000307
:103160001A687B685B68D21A3B681B689A4213D264
:103170003B681A687B68596840F2CC13C2F20003BE
:103180001B68CB1AD2183B681A607868FFF78EFF6D
:103190004FF00003FB6002E04FF00103FB6003F01F
:1031A000C7F9FB68184607F11007BD4680BD00BF90
:1031B00080B400AF40F2E413C2F200034FF001020A
:1031C0001A60BD4680BC704780B582B000AF7860A1
:1031D00000E000BF00F09AF840F2F403C2F20003EE
:1031E0001B68012BF5D903F081F9F3E780B584B0B2
:1031F00000AFF860B9607A603B60FB6803F13403AC
:103200001A46BB68104619464FF00A0205F0F2F85C
:10321000FB684FF0000283F83D207B68042B02D945
:103220004FF004037B60FB687A68DA62FB687A68B7
:103230001A64FB6803F10403184602F02DFBFB68D7
:1032400003F11803184602F027FBFB68FA681A61BD
:103250007B68C3F10502FB689A61FB68FA685A62F1
:1032600007F11007BD4680BD80B582B000AF4FF0BA
:1032700000037B6013E07A6813464FEA83039B18D0
:103280004FEA83031A4640F2F403C2F20003D31854
:10329000184602F0DDFA7B6803F101037B607B686E
:1032A000042BE8D940F25810C2F2000002F0D0FA24
:1032B00040F26C10C2F2000002F0CAFA40F288102C
:1032C000C2F2000002F0C4FA40F29C10C2F2000008
:1032D00002F0BEFA40F2B410C2F2000002F0B8FAF6
:1032E00040F28013C2F2000340F25812C2F2000210
:1032F0001A6040F28413C2F2000340F26C12C2F270
:1033000000021A6007F10807BD4680BD80B582B093
:1033100000AF40F2B013C2F200031B68002B3CD098
:10332000FFF7B2FB40F29C13C2F200031B68002BB4
:1033300014BF002301237B60FFF7B8FB7B68002BE1
:103340002BD103F0DFF840F29C13C2F20003DB68DC
:10335000DB683B603B6803F10403184602F010FB96
:1033600040F2C813C2F200031B6803F1FF3240F2BF
:10337000C813C2F200031A6040F2B013C2F2000395
:103380001B6803F1FF3240F2B013C2F200031A606F
:1033900003F0CEF8386800F085F807F10807BD465D
:1033A00080BD00BF80B582B000AF786040F2F0030E
:1033B000C2F200031B687A685A6040F2CC13C2F272
:1033C00000031B687A689A4210D240F28413C2F25A
:1033D00000031A6840F2F003C2F200031B6803F115
:1033E00004031046194602F08FFA1DE040F28013E4
:1033F000C2F200031A6840F2F003C2F200031B6835
:1034000003F104031046194602F07EFA40F200036D
:10341000C2F200031B687A689A4205D240F20003A8
:10342000C2F200037A681A6007F10807BD4680BD42
:1034300080B584B000AF03463960FB804FF0440094
:1034400003F0C8FD0346FB60FB68002B23D03B68FC
:10345000002B07D1FB884FEA8303184603F0BAFD1F
:10346000034600E03B68FA681363FB681B6B002BA4
:1034700006D1F86803F000FE4FF00003FB600AE09D
:10348000FB681A6BFB884FEA830310464FF0A501D7
:103490001A4604F025FFFB68184607F11007BD46E1
:1034A00080BD00BF80B582B000AF78607B681B6BC9
:1034B000184603F0E1FD786803F0DEFD07F1080728
:1034C000BD4680BD80B483B000AF40F2F003C2F2CD
:1034D00000031B687B607B68184607F10C07BD463C
:1034E00080BC704780B584B000AF78607B68FB60BB
:1034F0007B68002B04D14FF0500080F31188FEE769
:10350000FB68DA6A40F2F003C2F200031B68DB6A70
:103510009A4257D240F2F003C2F200031B68DB6A02
:10352000C3F10502FB689A61FB685969FB68DA6AB6
:1035300013464FEA83039B184FEA83031A4640F26F
:10354000F403C2F20003D318994233D1FB6803F1AC
:103550000403184602F014FA40F2F003C2F200032A
:103560001B68DA6AFB68DA62FB68DA6A40F2D41335
:10357000C2F200031B689A4206D9FB68DA6A40F27D
:10358000D413C2F200031A60FB68DA6A13464FEAEA
:1035900083039B184FEA83031A4640F2F403C2F2F6
:1035A0000003D218FB6803F104031046194602F029
:1035B00081F907E040F2F003C2F200031B68DA6A07
:1035C000FB68DA6207F11007BD4680BD80B584B0A4
:1035D00000AF78607B68FB607B68002B3AD0FB68AB
:1035E000DA6AFB681B6C9A4234D0FB6803F104036F
:1035F000184602F0C5F9FB681A6CFB68DA62FB68D2
:10360000DB6AC3F10502FB689A61FB68DA6A40F283
:10361000D413C2F200031B689A4206D9FB68DA6A27
:1036200040F2D413C2F200031A60FB68DA6A134650
:103630004FEA83039B184FEA83031A4640F2F403D0
:10364000C2F20003D218FB6803F1040310461946C6
:1036500002F030F907F11007BD4680BD80B483B099
:1036600000AF0346FB8003E0FB8803F1FF33FB80E0
:10367000FB88002BF8D107F10C07BD4680BC7047D2
:1036800080B586B004AF4FF005004FF00101FEF7A2
:1036900027FD4FF470633B604FF000037B714FF0E8
:1036A00001033B714FF00103BB714FF00003FB714D
:1036B0003B464FF40060C4F20200194601F0A4FF3B
:1036C0004FF41C433B604FF000037B714FF000034D
:1036D0003B714FF00103FB713B464FF00000C4F219
:1036E0000200194601F090FF4FF40063C4F2020398
:1036F0004FF470621A8341F2A863C2F200034FF0E4
:1037000001021A754FF002004FF001014FF0000264
:1037100002F0B4FA024641F2C863C2F200031A6032
:1037200048F2E843C0F600034FF0010200924FF068
:10373000000201924FF0000202924FF00002039249
:1037400043F26170C0F6000019464FF040024FF09E
:103750000003FFF739F807F10807BD4680BD00BF39
:1037600080B586B000AF78604FF00003BB754FF0B6
:1037700000037B754FF00003FB754FF000037B8265
:103780004FF41C437B8241F2A863C2F200034FF066
:1037900000021A7500F090F80346FB734FF00A0020
:1037A000FFF702F900F088F803467B74FB7BFF2BE0
:1037B0002FD0FB7B7A7C9A426CD1FB7BBB73FB7D69
:1037C000132B04D8FB7D03F10103FB7562E0FB7D45
:1037D000142B5FD14FF01503FB75FB7B03F1100336
:1037E000DBB2FB7341F2C863C2F200031B68002B1B
:1037F00050D041F2C863C2F200031A6807F10F0308
:10380000104619464FF000024FF0000302F0D4FAC0
:1038100040E0FB7D002B19D0FB7D132B16D841F225
:10382000C863C2F200031B68002B2DD041F2C863AD
:10383000C2F200031A6807F10E03104619464FF052
:1038400000024FF0000302F0B7FA1DE0FB7D152BDC
:103850001AD1BB7B03F12003DBB2BB7341F2C86317
:10386000C2F200031B68002B0ED041F2C863C2F203
:1038700000031A6807F10E03104619464FF00002C4
:103880004FF0000302F098FA4FF0FF033B744FF043
:103890000003FB7541F2A863C2F200031B6903F148
:1038A000010241F2A863C2F200031A614FF0320034
:1038B000FFF77AF86EE700BF80B582B000AF4FF037
:1038C0000003FB714FF00003BB804FF41C43BB802F
:1038D0004FF40063C4F202034FF470621A834FF096
:1038E0000003FB71FEE0FB79032B00F2F78001A2DD
:1038F00052F823F0053900087B390008F139000837
:10390000673A00084FF40063C4F202034FF4807278
:103910005A834FF00A00FFF7A1FE4FF00003C4F2F4
:1039200002031B697B804FF40063C4F202034FF46F
:1039300070621A837B886FEA0302BB8802EA030382
:10394000B3F5006F10D0B3F5006F03DCB3F5806FF3
:1039500007D0C3E0B3F5805F09D0B3F5004F09D0BD
:10396000BCE04FF00103C3E04FF00203C0E04FF0B2
:103970000303BDE04FF00A03BAE04FF40063C4F262
:1039800002034FF400725A834FF00A00FFF766FEFD
:103990004FF00003C4F202031B697B804FF4006305
:1039A000C4F202034FF470621A837B886FEA030249
:1039B000BB8802EA0303B3F5006F10D0B3F5006FC4
:1039C00003DCB3F5806F07D088E0B3F5805F09D0E2
:1039D000B3F5004F09D081E04FF0040388E04FF0C9
:1039E000050385E04FF0060382E04FF00B037FE014
:1039F0004FF40063C4F202034FF480625A834FF025
:103A00000A00FFF72BFE4FF00003C4F202031B690C
:103A10007B804FF40063C4F202034FF470621A8398
:103A20007B886FEA0302BB8802EA0303B3F5006FE9
:103A300010D0B3F5006F03DCB3F5806F07D04DE015
:103A4000B3F5805F09D0B3F5004F09D046E04FF0E1
:103A500007034DE04FF008034AE04FF0090347E049
:103A60004FF00C0344E04FF40063C4F202034FF440
:103A700000625A834FF00A00FFF7F0FD4FF0000399
:103A8000C4F202031B697B804FF40063C4F202039B
:103A90004FF470621A837B886FEA0302BB8802EAE4
:103AA0000303B3F5006F10D0B3F5006F03DCB3F57B
:103AB000806F07D012E0B3F5805F09D0B3F5004FF7
:103AC00009D00BE04FF00D0312E04FF000030FE0C0
:103AD0004FF00F030CE04FF00E0309E0FB7903F108
:103AE0000103FB71FB79032B7FF6FDAE4FF0FF0363
:103AF000184607F10807BD4680BD00BF80B483B0FB
:103B000000AF78607A6840F2F413C2F200039A4280
:103B100006D041F22473C2F200037A681A6000E012
:103B200000BF07F10C07BD4680BC704780B582B06E
:103B300000AF41F22473C2F200031B689B687B60F4
:103B40007A6840F2F413C2F200039A4206D141F2BD
:103B50000C70C2F2000001F03BFA35E141F224732F
:103B6000C2F200031B6803F111034FF00000194675
:103B7000FCF764FB41F22473C2F200031B681B7C58
:103B8000A3F10203062B00F21E8101A252F823F0DA
:103B9000AD3B0008BB3B0008C93B0008D73B000811
:103BA000533C0008CF3C00084B3D000841F20C702C
:103BB000C2F2000001F00CFA06E141F20C70C2F210
:103BC000000001F005FAFFE041F20C70C2F20000C3
:103BD00001F0FEF9F8E041F22463C2F200031B6831
:103BE0001B8B9BB21BB2184641F20C71C2F2000152
:103BF0004FF0000241F2707301F008FB0346012B05
:103C00001ED141F20C70C2F2000001F0E1F94FF058
:103C100001004FF0FF014FF00202FEF711FA4FF0E2
:103C200002004FF001014FF00002FDF783F84FF062
:103C300001004FF0FF014FF00202FEF701FAC3E06E
:103C400041F20C70C2F200004FF0010101F0D6F910
:103C5000BAE041F22463C2F200031B685B8B9BB2A3
:103C60001BB2184641F20C71C2F200014FF0000283
:103C700041F2707301F0CAFA0346012B1ED141F2E2
:103C80000C70C2F2000001F0A3F94FF001004FF0F8
:103C9000FF014FF00202FEF7D3F94FF002004FF0A0
:103CA00001014FF00002FDF745F84FF001004FF021
:103CB000FF014FF00202FEF7C3F985E041F20C70FC
:103CC000C2F200004FF0010101F098F97CE041F2EE
:103CD0002463C2F200031B689B8B9BB21BB2184685
:103CE00041F20C71C2F200014FF0000241F2707318
:103CF00001F08CFA0346012B1ED141F20C70C2F286
:103D0000000001F065F94FF001004FF0FF014FF0A6
:103D10000202FEF795F94FF002004FF001014FF05B
:103D20000002FDF707F84FF001004FF0FF014FF0E0
:103D30000202FEF785F947E041F20C70C2F2000082
:103D40004FF0010101F05AF93EE041F22463C2F262
:103D500000031B68DB8B9BB21BB2184641F20C714F
:103D6000C2F200014FF0000241F2707301F04EFA0E
:103D70000346012B1ED141F20C70C2F2000001F08B
:103D800027F94FF001004FF0FF014FF00202FEF75C
:103D900057F94FF002004FF001014FF00002FCF71D
:103DA000C9FF4FF001004FF0FF014FF00202FEF794
:103DB00047F909E041F20C70C2F200004FF0010136
:103DC00001F01CF900E000BF4FF00003184607F1B6
:103DD0000807BD4680BD00BF80B500AF41F2247327
:103DE000C2F2000340F20402C2F200021A6041F281
:103DF0000C73C2F200034FF000021A7241F20C730E
:103E0000C2F200034FF020025A72FFF78FFE4FF00C
:103E10000003184680BD00BF80B584B004AF4FF0EA
:103E200002004FF001014FF0000201F027FF0246AF
:103E300041F22873C2F200031A6048F2F443C0F65C
:103E400000034FF0010200924FF0000201924FF088
:103E5000000202924FF00002039244F69D40C0F629
:103E6000000019464FF080024FF00003FEF7ACFC53
:103E700041F2A863C2F200034FF001021A73BD467B
:103E800080BD00BF80B500AF41F22473C2F20003D1
:103E90001B689B681846FFF731FEFFF747FE80BDA1
:103EA00080B500AF41F22473C2F200031B68DB68E7
:103EB0001846FFF723FEFFF739FE80BD80B500AF3F
:103EC00041F22473C2F200031B681B681846FFF717
:103ED00015FEFFF72BFE80BD90B58DB002AF786068
:103EE0000B46FB7041F22463C2F200031B7E002BE1
:103EF00016D0FB780C2B03D0FB781C2B40F0C5862A
:103F00004FF001004FF00001FDF7CCFC4FF0040032
:103F10004FF001014FF00002FCF70CFF00F0BABEB9
:103F200041F22463C2F200035B7E022B35D1FB78A1
:103F30001C2B40F0AC8641F20C70C2F2000001F084
:103F400047F841F22463C2F200039B7EA3F102030F
:103F5000042B10D801A252F823F000BF773F0008CD
:103F6000773F0008713F0008773F0008773F00085F
:103F7000FDF79AFD00E000BF41F22463C2F20003A6
:103F80004FF000025A764FF000004FF001014FF061
:103F90000002FCF7CFFE00F07DBE41F22463C2F2C6
:103FA00000031B7D012B4BD1FB780B2B26D141F25B
:103FB0002463C2F200034FF000021A7541F2246339
:103FC000C2F20003DB8A9BB21BB24FF0030019461A
:103FD000FDF710FA0346002B08D04FF002004FF017
:103FE00001014FF00002FCF7A5FE07E04FF00000D2
:103FF0004FF001014FF00002FCF79CFEFB781C2BF8
:1040000040F0478641F20C70C2F2000000F0E0FF81
:1040100041F22463C2F200034FF000025A7641F2EB
:104020002463C2F200034FF000021A754FF0010042
:104030004FF001014FF00002FCF77CFE00F02ABEB9
:104040007B681B7C03F1FF33072B00F2238601A260
:1040500052F823F07540000895460008774700089D
:104060005B48000837490008074A0008D74A00089B
:10407000A74B0008FB78A3F10B03242B00F2F78277
:1040800001A252F823F000BFA34400086F460008C5
:104090006F4600086F4600086F4600086F4600082C
:1040A0006F4600086F4600086F4600086F4600081C
:1040B0006F4600086F4600086F4600086F4600080C
:1040C0006F4600081D410008FF4500083341000805
:1040D00063450008A1410008934500086F460008A9
:1040E0006F4600086F4600086F4600086F460008DC
:1040F0006F4600086F4600086F4600086F460008CC
:104100006F4600086F4600086F4600086F460008BB
:10411000C34500086F460008E1450008FFF7C0FEF0
:104120004FF004004FF001014FF00002FCF702FED7
:10413000AFE241F20C70C2F2000000F049FF41F220
:104140002463C2F200035B7E022B19D141F2246387
:10415000C2F200039B7EA3F10203042B0FD801A23D
:1041600052F823F07F4100087F41000879410008A0
:104170007F4100087F410008FDF796FC00E000BF8A
:1041800041F22463C2F200034FF000025A764FF06E
:1041900000004FF001014FF00002FCF7CBFD78E288
:1041A0004FF00003BB8241F20C73C2F200035B7A52
:1041B0002B2B05D02D2B7ED0202B00F0F0806FE133
:1041C00007F1140341F20C70C2F2000019464EF6DA
:1041D0009002CFF6FF7241F2707300F0A5FF034624
:1041E000002B5FD141F22463C2F200035B681846E2
:1041F000FDF70EFD03461A46BB8A1BB2D21841F2E8
:1042000070739A4210DD4FF002004FF001014FF041
:104210000002FCF78FFD4FF001004FF0FF014FF05F
:104220000202FDF70DFF3BE141F22463C2F20003FD
:104230001B68DB8B1A46BB8A1BB29A4210DB4FF01D
:1042400002004FF001014FF00002FCF773FD4FF048
:1042500001004FF0FF014FF00202FDF7F1FE1FE1F8
:10426000BB8A1BB24FF001001946FDF7C3F80346A5
:10427000002B0ED04FF006004FF00001FDF712FBAF
:104280004FF002004FF001014FF00002FCF752FD29
:1042900010E04FF000004FF001014FF00002FCF77A
:1042A00049FD07E04FF002004FF001014FF000021E
:1042B000FCF740FDF4E007F1140341F20C70C2F288
:1042C000000019464EF69002CFF6FF7241F270736D
:1042D00000F02AFF0346002B58D141F22463C2F2BA
:1042E00000035B681846FDF793FC03469BB21AB2C5
:1042F000BB8A1BB2D318002B10DA4FF002004FF02C
:1043000001014FF00002FCF715FD4FF001004FF0E6
:10431000FF014FF00202FDF793FEC1E041F224637A
:10432000C2F200031B689B8B1A46BB8A1BB2C3F107
:1043300000039A4210DB4FF002004FF001014FF0F2
:104340000002FCF7F7FC4FF001004FF0FF014FF0C7
:104350000202FDF775FEA3E0BB8A1BB24FF002001C
:104360001946FDF747F80346002B06D04FF006002C
:104370004FF00001FDF796FA10E04FF000004FF00B
:1043800001014FF00002FCF7D5FC07E04FF00200FE
:104390004FF001014FF00002FCF7CCFC80E007F188
:1043A000140341F20C70C2F2000019464EF690025E
:1043B000CFF6FF7241F2707300F0B6FE0346002B99
:1043C00065D1BB8A9CB241F22463C2F200035B68F0
:1043D0001846FDF71DFC0346E31A9BB2FB84B7F9B0
:1043E0002630002B1BDB41F22463C2F200031B6862
:1043F000DB8B1A46B7F926309A422EDB4FF00200CB
:104400004FF001014FF00002FCF794FC4FF0010067
:104410004FF0FF014FF00202FDF712FE40E041F2C3
:104420002463C2F200031B689B8B1A46B7F926303F
:10443000C3F100039A4210DB4FF002004FF001017C
:104440004FF00002FCF776FC4FF001004FF0FF0147
:104450004FF00202FDF7F4FD22E0BB8A1BB24FF0E1
:1044600003001946FCF7C6FF0346002B06D04FF0A9
:1044700006004FF00001FDF715FA10E04FF00000C4
:104480004FF001014FF00002FCF754FC07E04FF041
:1044900002004FF001014FF00002FCF74BFC00BF9F
:1044A000F7E041F22463C2F200031B7D002B4FD1E1
:1044B00041F22463C2F200031B681B8B1846FDF710
:1044C000E7FB386241F22463C2F200035A683B6A98
:1044D0009A4208D34FF002004FF001014FF0000262
:1044E000FCF728FC33E041F22463C2F200034FF0F2
:1044F00001021A7541F22463C2F200035B68184698
:10450000FDF786FB03461A4641F22463C2F200031C
:10451000DA82386AFCF77EFE0346002B0FD04FF09C
:1045200002004FF001014FF00002FCF703FC41F2E2
:104530002463C2F200034FF000021A7507E04FF047
:1045400000004FF001014FF00002FCF7F3FB07E021
:1045500041F22463C2F200034FF000021A7500BF5B
:1045600097E041F22463C2F20003DB7E012B0FD0FF
:104570004FF00100FDF73EF94FF00100FDF762F941
:104580004FF000004FF001014FF00002FCF7D2FBAA
:104590007FE041F22463C2F20003DB7E022B0FD0E6
:1045A0004FF00100FDF726F94FF00000FDF74AF942
:1045B0004FF000004FF001014FF00002FCF7BAFB92
:1045C00067E04FF007004FF00001FDF76BF94FF087
:1045D00001004FF001014FF00002FCF7ABFB58E087
:1045E0004FF007004FF00001FDF75CF94FF00100BC
:1045F0004FF001014FF00002FCF79CFB49E041F253
:104600002463C2F200035B681846FDF701FB034612
:104610007B827A8A41F270739A4217D841F22463FE
:10462000C2F200031B6803F1180207F112031046DF
:1046300019464FF00202FDF7A9FB4FF001004FF0C1
:1046400001014FF00002FCF775FB0FE04FF0020094
:104650004FF001014FF00002FCF76CFB4FF001003E
:104660004FF0FF014FF00202FDF7EAFC11E0FB788A
:1046700041F27072009218464FF0030141F20C7241
:10468000C2F200024EF69003CFF6FF7300F044FE34
:1046900000BFFFE2FB781C2B04D01E2B18D00A2B86
:1046A0000BD055E0FFF7EEFB4FF004004FF0010197
:1046B0004FF00002FCF73EFB5CE0FFF7FFFB4FF022
:1046C00000004FF001014FF00002FCF733FB51E016
:1046D00007F1180341F20C70C2F2000019464EF6C1
:1046E0009002CFF6FF7241F2707300F01DFD034699
:1046F000002B1CD141F22463C2F200035B68FB6112
:1047000041F22463C2F200031B681A4607F1180342
:10471000104619464FF00802FDF738FB4FF0010034
:104720004FF001014FF00002FCF704FB0FE04FF0E7
:1047300002004FF001014FF00002FCF7FBFA4FF0CE
:1047400001004FF0FF014FF00202FDF779FC11E08C
:10475000FB7841F27072009218464FF0010141F26D
:104760000C72C2F200024EF69003CFF6FF7300F017
:10477000D3FD00BF8EE2FB781C2B04D01E2B18D07B
:104780000A2B0BD056E0FFF77DFB4FF004004FF0F3
:1047900001014FF00002FCF7CDFA5DE0FFF78EFB60
:1047A0004FF000004FF001014FF00002FCF7C2FA99
:1047B00052E007F1180341F20C70C2F200001946F2
:1047C0004EF69002CFF6FF7241F2707300F0ACFC2F
:1047D0000346002B1DD141F22463C2F200035B6843
:1047E000FB6141F22463C2F200031B6803F108027B
:1047F00007F11803104619464FF00802FDF7C6FAF4
:104800004FF001004FF001014FF00002FCF792FA67
:104810000FE04FF002004FF001014FF00002FCF7F3
:1048200089FA4FF001004FF0FF014FF00202FDF74F
:1048300007FC11E0FB7841F27072009218464FF0CD
:10484000010141F20C72C2F200024EF69003CFF663
:10485000FF7300F061FD00BF1CE2FB781C2B04D04D
:104860001E2B18D00A2B0BD054E0FFF70BFB4FF098
:1048700004004FF001014FF00002FCF75BFA59E031
:10488000FFF71CFB4FF000004FF001014FF000025A
:10489000FCF750FA4EE007F1180341F20C70C2F237
:1048A000000019464FF0000241F2707300F03CFC2A
:1048B0000346002B1DD141F22463C2F200035B6862
:1048C000FB6141F22463C2F200031B6803F1100292
:1048D00007F11803104619464FF00802FDF756FA83
:1048E0004FF001004FF001014FF00002FCF722FAF7
:1048F0000FE04FF002004FF001014FF00002FCF713
:1049000019FA4FF001004FF0FF014FF00202FDF7DE
:1049100097FB0FE0FB7841F27072009218464FF05F
:10492000010141F20C72C2F200024FF0000300F0EC
:10493000F3FC00BFAEE1FB781C2B04D01E2B18D07B
:104940000A2B0BD04EE0FFF79DFA4FF004004FF01A
:1049500001014FF00002FCF7EDF953E0FFF7AEFA6A
:104960004FF000004FF001014FF00002FCF7E2F9B8
:1049700048E007F1160341F20C70C2F2000019463C
:104980004FF0000241F2707300F0CEFB0346002BA3
:1049900017D141F22463C2F200031B6803F118022D
:1049A00007F11603104619464FF00202FDF7EEF923
:1049B0004FF001004FF001014FF00002FCF7BAF98F
:1049C0000FE04FF002004FF001014FF00002FCF742
:1049D000B1F94FF001004FF0FF014FF00202FDF777
:1049E0002FFB0FE0FB7841F27072009218464FF0F7
:1049F000010141F20C72C2F200024FF0000300F01C
:104A00008BFC00BF46E1FB781C2B04D01E2B18D07A
:104A10000A2B0BD04EE0FFF735FA4FF004004FF0B1
:104A200001014FF00002FCF785F953E0FFF746FA69
:104A30004FF000004FF001014FF00002FCF77AF94F
:104A400048E007F1160341F20C70C2F2000019466B
:104A50004FF0000241F2707300F066FB0346002B3A
:104A600017D141F22463C2F200031B6803F11A025A
:104A700007F11603104619464FF00202FDF786F9BA
:104A80004FF001004FF001014FF00002FCF752F926
:104A90000FE04FF002004FF001014FF00002FCF771
:104AA00049F94FF001004FF0FF014FF00202FDF70E
:104AB000C7FA0FE0FB7841F27072009218464FF08F
:104AC000010141F20C72C2F200024FF0000300F04B
:104AD00023FC00BFDEE0FB781C2B04D01E2B18D07B
:104AE0000A2B0BD04EE0FFF7CDF94FF004004FF04A
:104AF00001014FF00002FCF71DF953E0FFF7DEF96A
:104B00004FF000004FF001014FF00002FCF712F9E6
:104B100048E007F1100341F20C70C2F200001946A0
:104B20004FF0000241F2707300F0FEFA0346002BD2
:104B300017D141F22463C2F200031B6803F11C0287
:104B400007F11003104619464FF00202FDF71EF957
:104B50004FF001004FF001014FF00002FCF7EAF8BE
:104B60000FE04FF002004FF001014FF00002FCF7A0
:104B7000E1F84FF001004FF0FF014FF00202FDF7A6
:104B80005FFA0FE0FB7841F27072009218464FF026
:104B9000010141F20C72C2F200024FF0000300F07A
:104BA000BBFB00BF76E0FB781C2B04D01E2B21D072
:104BB0000A2B0BD057E0FFF765F94FF004004FF0D8
:104BC00001014FF00002FCF7B5F85CE041F22473FC
:104BD000C2F2000340F21C02C2F200021A60FEF7A9
:104BE000A5FF4FF000004FF001014FF00002FCF76D
:104BF000A1F848E007F10E0341F20C70C2F2000088
:104C000019464FF0000241F2707300F08DFA03462E
:104C1000002B17D141F22463C2F200031B6803F199
:104C20001E0207F10E03104619464FF00202FDF76F
:104C3000ADF84FF001004FF001014FF00002FCF71A
:104C400079F820E04FF002004FF001014FF0000230
:104C5000FCF770F84FF001004FF0FF014FF0020237
:104C6000FDF7EEF90FE0FB7841F270720092184602
:104C70004FF0010141F20C72C2F200024FF000034A
:104C800000F04AFB00BF00BF04E000BF02E000BF2D
:104C900000E000BF07F12C07BD4690BD80B584B091
:104CA00000AF78604FF00003FB73FFF795F841F217
:104CB000A863C2F200034FF000021A7341F2C86306
:104CC000C2F200031B68002B27D041F2C863C2F276
:104CD00000031B68184601F05FFA0346002B1CD046
:104CE00041F2C863C2F200031A6807F10C031046D0
:104CF00019464FF00A024FF0000301F06FF9034626
:104D0000002B0AD041F22473C2F200031A68BB8957
:104D1000DBB210461946FFF7DFF841F22873C2F202
:104D200000031B68002B25D041F22873C2F2000358
:104D30001B68184601F030FA0346002B1AD041F2E6
:104D40002873C2F200031A6807F10B0310461946D4
:104D50004FF00A024FF0000301F040F90346002B28
:104D600008D0FB7A012B05D141F20C70C2F2000091
:104D700000F02EF9FB7B03F10103FB7341F2247376
:104D8000C2F200031B681B7C012B40F01081FB7BEF
:104D9000092B40F20C814FF00003FB7341F22463B6
:104DA000C2F200035B7E002B40F0D98041F2246305
:104DB000C2F200035B681846FCF72AFF03469BB269
:104DC0001BB2184641F21871C2F200014FF0000206
:104DD00041F2707300F01AFA41F21870C2F200004A
:104DE0004FF0000100F00AF941F22463C2F200031F
:104DF0001B7E022B29D0032B54D0012B40F0D680F0
:104E000041F22463C2F200039A6841F22463C2F2C1
:104E100000035B68D31A1846FCF7B4FE03469BB246
:104E20001BB2184641F21871C2F200014FF00002A5
:104E300041F2707300F0EAF941F21870C2F200001A
:104E40004FF0010100F0DAF8B1E041F22463C2F260
:104E500000035A6841F22463C2F200039B68D31A2C
:104E60001846FCF78FFE03469BB21BB2184641F270
:104E70001871C2F200014FF0000241F2707300F0AD
:104E8000C5F941F21873C2F200034FF02D025A72B5
:104E900041F21870C2F200004FF0010100F0AEF8CC
:104EA00000BF84E041F22463C2F200039A6841F239
:104EB0002463C2F200035B689A4224D341F2246364
:104EC000C2F200039A6841F22463C2F200035B68F5
:104ED000D31A1846FCF756FE03469BB21BB218467F
:104EE00041F21871C2F200014FF0000241F27073FA
:104EF00000F08CF941F21870C2F200004FF001018D
:104F000000F07CF853E041F22463C2F200035A68D7
:104F100041F22463C2F200039B68D31A1846FCF7DF
:104F200031FE03469BB21BB2184641F21871C2F221
:104F300000014FF0000241F2707300F067F941F296
:104F40001873C2F200034FF02D025A7241F218702A
:104F5000C2F200004FF0010100F050F827E041F2EA
:104F60002463C2F200035B7E022B20D141F2246352
:104F7000C2F200039B7E022B06D041F22463C2F2F0
:104F800000039B7E032B08D14FF0000048F2FC4148
:104F9000C0F60001FBF752F909E04FF0000048F2BB
:104FA0000451C0F60001FBF749F900E000BF41F2EF
:104FB000A863C2F200039B6803F1010241F2A863F7
:104FC000C2F200039A604FF00A00FDF7EDFC75E6AF
:104FD00080B582B000AF78607B684FF000021A7233
:104FE0007B684FF020025A7278684FF0010100F0A0
:104FF00005F807F10807BD4680BD00BF80B586B043
:1050000000AF78600B46FB7048F21C52C0F60002FD
:1050100007F10C0392E80300186003F10403198000
:1050200003F102034FEA11421A704FF00003FB74C0
:105030004FF00003FB754FF00003BB757B681B7AD4
:10504000002B24D17B685B7A2D2B08D1FB78184686
:1050500048F20C51C0F60001FBF7F0F814E07B6851
:105060005B7A2B2B08D1FB78184648F21451C0F616
:105070000001FBF7E3F807E0FB78184648F21C5103
:10508000C0F60001FBF7DAF84FF0000347E07B6859
:105090001B7A042B41D84FF00503BB757B681B7A44
:1050A00003F1FF33DBB2FB751AE097F9163097F97D
:1050B000172079688A5C07F11801CB1803F80C2CCB
:1050C000BB7D03F1FF33BB7597F91630042B03D179
:1050D000BB7D03F1FF33BB75FB7D03F1FF33FB7534
:1050E00097F91730002BE0DA7B685B7A2D2B03D120
:1050F0004FF02D033B7306E07B685B7A2B2B02D1CC
:105100004FF02E033B73FA7807F10C031046194653
:10511000FBF794F84FF0000301E04FF0010318464D
:1051200007F11807BD4680BD80B487B000AFF860B6
:10513000B960FA80BB804FF00003FB824FF00003A0
:105140007B754FF001037B82FB681B7A002B06D135
:10515000BB684FF000021A804FF0000350E0FB687C
:105160001B7A03F1FF33DBB27B7529E097F9153029
:10517000FA68D35C2F2B05D997F91530FA68D35C00
:10518000392B02D94FF001033AE097F91530FA684C
:10519000D35CA3F130039BB27A8A02FB03F39AB289
:1051A000FB8AD3189BB2FB827B8A1A464FEA8202A3
:1051B000D3184FEA43037B827B7D03F1FF337B757A
:1051C00097F91530002BD1DAFB685B7A2D2B03D1D0
:1051D000FB8AC3F10003FB82BB68FA8A1A80B7F925
:1051E0001620B7F906309A4205DBB7F91620B7F951
:1051F00004309A4202DD4FF0010301E04FF000035A
:10520000184607F11C07BD4680BC704780B487B0C4
:1052100000AFB9600146F981FA80BB804FF000030E
:10522000FB75B7F90E20B7F904309A4205DCB7F9DF
:105230000E20B7F906309A420DDAB7F90E20B7F909
:1052400004309A4202DDBB88FB8101E0FB88FB81D0
:105250004FF00103FB75B7F90E30002B08DABB687D
:105260004FF02D025A72FB89C3F10003FB8103E06A
:10527000BB684FF020025A72BB684FF000021A72EE
:105280004FF47A73BB824FF00003FB7433E0B7F93D
:105290000E20BB8A92FBF3F3BB74BB7C092B17D89F
:1052A000BB7C002B02D1FB7C002B11D0BB681B7A8E
:1052B000BA7C02F13002D1B2BA68D154BB681B7A11
:1052C00003F10103DAB2BB681A724FF00103FB74F9
:1052D000B7F90E30BA8A93FBF2F102FB01F29B1A86
:1052E000FB81BA8A4CF6CD43CCF6CC43A3FB021328
:1052F0004FEAD303BB82BB8A002BC8D1FB7D002BB6
:1053000002D04FF0010301E04FF00003184607F10F
:105310001C07BD4680BC704780B586B000AFBA6040
:105320000246FA730A46BA73FB80FB7B092B09D944
:10533000FB7B0C2B06D0FB7B0D2B03D0FB7B0F2BB9
:1053400040F05481FB7B0C2B1DD1BB681B7A002BDA
:1053500000F04E81BB681B7A002B06D0BB681B7A1D
:1053600003F1FF33DAB2BB681A72B8684FF001017B
:10537000FFF744FE4FF000004FF001014FF0000234
:10538000FBF7D8FC3BE1FB7B0D2B02D00F2B18D099
:105390002FE0BB7B03F00203002B00F02B81BB68E6
:1053A0004FF02D025A72B8684FF00101FFF726FE48
:1053B0004FF000004FF001014FF00002FBF7BAFC84
:1053C0001DE1BB7B03F00203002B00F01581BB68DD
:1053D0004FF02B025A72B8684FF00101FFF70EFE32
:1053E0004FF000004FF001014FF00002FBF7A2FC6C
:1053F00005E1BB681B7A032B10D94FF002004FF078
:1054000001014FF00002FBF795FC4FF001004FF057
:10541000FF014FF00202FCF713FEF0E0FB7B092BCB
:1054200000F2B38001A252F823F000BF55540008E7
:105430007D5400089B540008B9540008D754000854
:10544000F554000813550008315500084F55000861
:105450006D550008BB681B7A002B00F0CF80BB683D
:105460001B7ABA684FF03001D1544FF000004FF072
:1054700001014FF00002FBF75DFC87E0BB681B7A7F
:10548000BA684FF03101D1544FF000004FF00101E4
:105490004FF00002FBF74EFC78E0BB681B7ABA685D
:1054A0004FF03201D1544FF000004FF001014FF0A6
:1054B0000002FBF73FFC69E0BB681B7ABA684FF05B
:1054C0003301D1544FF000004FF001014FF00002C2
:1054D000FBF730FC5AE0BB681B7ABA684FF0340126
:1054E000D1544FF000004FF001014FF00002FBF7E4
:1054F00021FC4BE0BB681B7ABA684FF03501D154F0
:105500004FF000004FF001014FF00002FBF712FCDA
:105510003CE0BB681B7ABA684FF03601D1544FF0BB
:1055200000004FF001014FF00002FBF703FC2DE0FB
:10553000BB681B7ABA684FF03701D1544FF00000B6
:105540004FF001014FF00002FBF7F4FB1EE0BB68D7
:105550001B7ABA684FF03801D1544FF000004FF079
:1055600001014FF00002FBF7E5FB0FE0BB681B7A7F
:10557000BA684FF03901D1544FF000004FF00101EB
:105580004FF00002FBF7D6FB00E000BFBB681B7AC0
:1055900003F10103DAB2BB681A7207F11601B7F919
:1055A0000620B7F92030B868FFF7BEFD0346012B8F
:1055B00016D1BB681B7A03F1FF33DAB2BB681A72EB
:1055C0004FF002004FF001014FF00002FBF7B2FB79
:1055D0004FF001004FF0FF014FF00202FCF730FDE9
:1055E000B8684FF00101FFF709FD08E000BF06E0D1
:1055F00000BF04E000BF02E000BF00E000BF07F111
:105600001807BD4680BD00BF80B487B000AF78608A
:1056100039604FF000037B614FF000033B614FF0B6
:105620000003FB604FF000037B618FE07B694FF06C
:10563000010202FA03F33B613B681A683B6902EA24
:105640000303FB60FA683B699A427BD17B681B6865
:105650001A467B694FEA43034FF0030101FA03F353
:105660006FEA03031A407B681A607B681B681A465E
:105670003B681B7919467B694FEA430301FA03F340
:105680001A437B681A603B681B79012B03D03B6887
:105690001B79022B38D17B689B681A467B694FEADD
:1056A00043034FF0030101FA03F36FEA03031A40C7
:1056B0007B689A607B689B681A463B685B791946F1
:1056C0007B694FEA430301FA03F31A437B689A604C
:1056D0007B685B681A467B699BB24FF0010101FA57
:1056E00003F36FEA03031A407B685A607B685B68C8
:1056F0001A463B689B7919467B699BB201FA03F312
:105700009BB21A437B685A607B68DB681A467B69E8
:105710009BB24FEA43034FF0030101FA03F36FEA30
:1057200003031A407B68DA607B68DB681A463B68D3
:10573000DB7919467B694FEA430301FA03F31A4305
:105740007B68DA607B6903F101037B617B690F2B66
:105750007FF66CAF07F11C07BD4680BC704700BFE9
:1057600080B485B000AF78600B467B804FF00003BB
:10577000FB737B681B691A467B8802EA0303002BD4
:1057800003D04FF00103FB7302E04FF00003FB7303
:10579000FB7B184607F11407BD4680BC704700BF6D
:1057A00080B485B000AF786013460A467A807B707B
:1057B0004FF00003FB604FF00003BB607A787B88FA
:1057C00003F007034FEA830302FA03F3FB607B88CD
:1057D0004FEAD3039BB21A467B884FEAD3039BB2AE
:1057E00019467B6801F1080153F8213019467B887E
:1057F00003F007034FEA83034FF00F0000FA03F3AF
:105800006FEA030319407B6802F1080243F8221093
:105810007B884FEAD3039BB21A467B6802F10802E9
:1058200053F822301A46FB6842EA0303BB607B88C8
:105830004FEAD3039BB21A467B6802F10802B968AB
:1058400043F8221007F11407BD4680BC704700BF23
:1058500080B483B000AF78607B6803F108031A4618
:105860007B685A607B684FF0FF329A607B6803F177
:1058700008031A467B68DA607B6803F108031A465E
:105880007B681A617B684FF000021A6007F10C0711
:10589000BD4680BC704700BF80B483B000AF786065
:1058A0007B684FF000021A6107F10C07BD4680BC0F
:1058B000704700BF80B485B000AF786039607B6806
:1058C0005B68FB60FB685B681A463B685A607B68F4
:1058D0005A683B689A60FB685B683A689A603A6805
:1058E000FB685A603A687B685A603B687A681A615C
:1058F0007B681B6803F101027B681A6007F11407DB
:10590000BD4680BC704700BF80B485B000AF7860F2
:1059100039603B681B68BB60BB68B3F1FF3F03D1D4
:105920007B681B69FB600EE07B6803F10803FB608A
:1059300002E0FB685B68FB60FB685B681B681A46FB
:10594000BB689A42F5D9FB685B681A463B685A60A7
:105950003B685B683A689A603B68FA689A603A68A4
:10596000FB685A603B687A681A617B681B6803F1C0
:1059700001027B681A6007F11407BD4680BC7047BE
:1059800080B485B000AF78607B685B687A689268A5
:105990009A607B689B687A6852685A607B681B696A
:1059A000FB60FB685A687B689A4203D17B689A68FF
:1059B000FB685A607B684FF000021A61FB681B6845
:1059C00003F1FF32FB681A6007F11407BD4680BC83
:1059D000704700BF80B500AF4FF46053C4F20203BC
:1059E0004FF46052C4F20202126842F001021A60DF
:1059F0004FF46053C4F202034FF000029A604FF478
:105A00006053C4F202034FF46052C4F202021268FF
:105A100022F0847222F480321A604FF46053C4F290
:105A2000020343F21002C2F200425A604FF4605384
:105A3000C4F202034FF46052C4F20202126822F46C
:105A400080221A604FF46053C4F202034FF0000248
:105A5000DA6000F009F84FF46D43CEF200034FF026
:105A600000629A6080BD00BF80B483B000AF4FF089
:105A700000037B604FF000033B604FF46053C4F2BF
:105A800002034FF46052C4F20202126842F4803200
:105A90001A604FF46053C4F202031B6803F400332E
:105AA0003B607B6803F101037B603B68002B03D103
:105AB0007B68B3F5A06FECD14FF46053C4F20203DE
:105AC0001B6803F40033002B03D04FF001033B604D
:105AD00002E04FF000033B603B68012B69D14FF4BB
