:020000040800F2
:10000000341F0020A91B0008111C0008111C000847
:10001000111C0008111C0008111C00080000000041
:1000200000000000000000000000000081620008E5
:10003000111C0008000000009D630008ED6300082B
:10004000111C000841750008111C0008111C000853
:10005000111C0008111C0008111C0008111C0008CC
:10006000111C0008111C0008111C0008111C0008BC
:10007000111C0008111C0008111C0008111C0008AC
:10008000111C0008111C0008111C0008111C00089C
:10009000111C0008111C0008111C0008BD0F0008ED
:1000A000111C0008F1210008111C0008111C000897
:1000B000111C0008111C0008111C0008111C00086C
:1000C000111C0008111C0008111C0008111C00085C
:1000D000111C0008111C0008111C0008111C00084C
:1000E000111C0008111C0008111C0008111C00083C
:1000F000111C0008111C0008111C0008111C00082C
:10010000111C0008111C0008111C0008111C00081B
:10011000111C0008111C0008111C0008111C00080B
:10012000111C0008111C0008111C0008111C0008FB
:10013000111C0008111C0008111C0008111C0008EB
:10014000111C0008111C0008111C0008111C0008DB
:10015000111C0008111C0008111C0008111C0008CB
:10016000111C0008111C0008111C0008111C0008BB
:10017000111C0008111C0008111C0008111C0008AB
:10018000111C0008111C000890B484B000AF024696
:100190000B46FA71BB714FF00003FB60BB7903F0B3
:1001A00003034FEA83034FF00F0202FA03F3FB60ED
:1001B0004FF46053C4F20103BA794FEA9202D2B20B
:1001C00010464FF46052C4F20102B9794FEA91012E
:1001D000C9B201F1020152F821201146FA686FEA12
:1001E0000202114000F1020243F822104FF4605362
:1001F000C4F20103BA794FEA9202D2B210464FF428
:100200006052C4F20102B9794FEA9101C9B201F119
:10021000020152F821201146FC79BA7902F003025A
:100220004FEA820204FA02F2114300F1020243F89B
:10023000221007F11007BD4690BC7047F0B587B09B
:1002400000AF03463960FB714FF00003FB754FF0C0
:100250000003BB754FF000037B754FF000033B7547
:10026000FB794FF0160202FB03F2054BD3183B61FA
:100270003B691B88022B05D94FF00003E8E300BF60
:1002800074160020386807F099FA03463B7541F26E
:100290003473C2F200031B6818464FF000014FF0A0
:1002A000FF324FF0000305F0B3FD0346012B40F091
:1002B000CE833B695B8819463B691B883A69D089C4
:1002C00041F23862C2F200024FF01A0404FB03F458
:1002D0000B464FEA03135B1A4FEA4303E318D318A4
:1002E00003F1020302461A803B695B8819463B69A9
:1002F0001B883A69108A41F23862C2F200024FF05C
:100300001A0404FB03F40B464FEA03135B1A4FEA8B
:100310004303E318D31803F1040302461A803B6930
:100320005B8819463B691B883A69908941F23862BB
:10033000C2F200024FF01A0404FB03F40B464FEA2A
:1003400003135B1A4FEA4303E318D31803F10603C0
:1003500002461A803B695B8819463B691B883A69EB
:10036000108941F23862C2F200024FF01A0404FB15
:1003700003F40B464FEA03135B1A4FEA4303E318F7
:10038000D31803F1080302461A803B695B881946BB
:100390003B691B883A69508941F23862C2F2000217
:1003A0004FF01A0404FB03F40B464FEA03135B1AE5
:1003B0004FEA4303E318D31803F10A0302461A80F5
:1003C0003B695B8819463B691B8841F23862C2F27F
:1003D00000024FF01A0000FB03F00B464FEA031334
:1003E0005B1A4FEA4303C318D31803F10C034FF40D
:1003F00080721A803B695B8819463B691B8841F211
:100400003862C2F200024FF01A0000FB03F00B4604
:100410004FEA03135B1A4FEA4303C318D31803F1DF
:100420000E034FF400721A803B695B8819463B69E2
:100430001B8841F23862C2F200024FF01A0000FB42
:1004400003F00B464FEA03135B1A4FEA4303C3184A
:10045000D31803F110034FF440721A803B695B8894
:1004600019463B691B8841F23862C2F200024FF024
:100470001A0000FB03F00B464FEA03135B1A4FEA26
:100480004303C318D31803F112034FF480621A8098
:100490003B695B8819463B691B8841F23862C2F2AE
:1004A00000024FF01A0000FB03F00B464FEA031363
:1004B0005B1A4FEA4303C318D31803F114034FF434
:1004C000A0621A803B695B8819463B691B8841F230
:1004D0003862C2F200024FF01A0000FB03F00B4634
:1004E0004FEA03135B1A4FEA4303C318D31803F10F
:1004F00016034FF4C0621A803B695B8819463B695A
:100500001B8841F23862C2F200024FF01A0000FB71
:1005100003F00B464FEA03135B1A4FEA4303C31879
:10052000D31803F118034FF4E0621A803B695B882B
:1005300019463B691B8841F23862C2F200024FF053
:100540001A0000FB03F00B464FEA03135B1A4FEA55
:100550004303C318D31803F11A034FF400621A803F
:100560007B7D03F105037B7597F914300A2B02DDBF
:100570004FF00A033B754FF00003FB7550E297F90B
:1005800017303A68D3181B782F2B65D997F9173095
:100590003A68D3181B78392B5ED897F917303A6828
:1005A000D3181B78A3F1300247F69803C0F6000376
:1005B0009B18DB7FFB733B695B881C463B691B8890
:1005C00018467E7D3B695B881D463B691B881A4641
:1005D00097F815E041F23861C2F2000113464FEA84
:1005E00043039B184FEA83039B182A464FEA0212E3
:1005F000521B9B1873444FEA4303CB185B889AB293
:10060000FB7B99B27B7DA3F104039BB24FEA0323EA
:100610009BB29BB241EA03039BB242EA03039BB243
:100620009DB241F23861C2F2000103464FEA430332
:100630001B184FEA83031B1822464FEA0212121BB3
:100640009B189B194FEA4303CB182A465A807B7D9F
:1006500003F101037B75DFE197F917303A68D3188E
:100660001B782E2B40F05D8197F91730002B41D17C
:100670003B695B881C463B691B8818467E7D3B694D
:100680005B881D463B691B881A4697F815E041F2C6
:100690003861C2F2000113464FEA43039B184FEA48
:1006A00083039B182A464FEA0212521B9B1873447D
:1006B0004FEA4303CB185B8843F080039DB241F2BD
:1006C0003861C2F2000103464FEA43031B184FEAA8
:1006D00083031B1822464FEA0212121B9B189B1918
:1006E0004FEA4303CB182A465A807B7D03F101036E
:1006F0007B7591E197F9172097F9143003F1FF33D7
:100700009A4280F2CD8097F9173003F101033A68DD
:10071000D3181B782E2B40F082803B695B881C46E7
:100720003B691B8818467E7D3B695B881D463B699B
:100730001B881A4697F815E041F23861C2F20001B1
:1007400013464FEA43039B184FEA83039B182A463C
:100750004FEA0212521B9B1873444FEA4303CB1813
:100760005B8843F080039DB241F23861C2F2000120
:1007700003464FEA43031B184FEA83031B18224624
:100780004FEA0212121B9B189B194FEA4303CB1826
:100790002A465A803B695B881C463B691B88184681
:1007A0007B7D03F1FF363B695B881D463B691B88F7
:1007B0001A467B7D03F1FF3E41F23861C2F200012F
:1007C00013464FEA43039B184FEA83039B182A46BC
:1007D0004FEA0212521B9B1873444FEA4303CB1893
:1007E0005B8843F080039DB241F23861C2F20001A0
:1007F00003464FEA43031B184FEA83031B182246A4
:100800004FEA0212121B9B189B194FEA4303CB18A5
:100810002A465A807B7D03F101037B75FCE03B692E
:100820005B881C463B691B8818467B7D03F1FF36BD
:100830003B695B881D463B691B881A467B7D03F13B
:10084000FF3E41F23861C2F2000113464FEA430312
:100850009B184FEA83039B182A464FEA0212521B49
:100860009B1873444FEA4303CB185B8843F0800323
:100870009DB241F23861C2F2000103464FEA4303E0
:100880001B184FEA83031B1822464FEA0212121B61
:100890009B189B194FEA4303CB182A465A80BBE0AA
:1008A0003B695B881C463B691B8818467B7D03F1CE
:1008B000FF363B695B881D463B691B881A467B7D7A
:1008C00003F1FF3E41F23861C2F2000113464FEAE4
:1008D00043039B184FEA83039B182A464FEA0212F0
:1008E000521B9B1873444FEA4303CB185B8843F0B9
:1008F00080039DB241F23861C2F2000103464FEA23
:1009000043031B184FEA83031B1822464FEA0212C7
:10091000121B9B189B194FEA4303CB182A465A8097
:100920007AE04FF00A03BB756BE097F917303A682D
:10093000D3181A7897F9161047F69803C0F60003F3
:100940005B5C9A4259D197F9162047F69803C0F696
:1009500000039B18DB7FBB733B695B881C463B69CC
:100960001B8818467E7D3B695B881D463B691B885A
:100970001A4697F815E041F23861C2F200011346B9
:100980004FEA43039B184FEA83039B182A464FEA1A
:100990000212521B9B1873444FEA4303CB185B8827
:1009A0009AB2BB7B99B27B7DA3F104039BB24FEA61
:1009B00003239BB29BB241EA03039BB242EA0303C7
:1009C0009BB29DB241F23861C2F2000103464FEA88
:1009D00043031B184FEA83031B1822464FEA0212F7
:1009E000121B9B189B194FEA4303CB182A465A80C7
:1009F0007B7D03F101037B7507E0BB7D03F1010300
:100A0000BB7597F916301E2B8FDD7A7D3B69DB882D
:100A100003F105039A420BDCFB7D03F10103FB7537
:100A200097F9172097F914309A42FFF6A8AD00E025
:100A300000BF41F23473C2F200031B6818464FF046
:100A400000014FF000024FF0000305F0CFF87B7D6E
:100A5000184607F11C07BD46F0BD00BF80B586B043
:100A600004AF4FF002004FF0010101F043FA4FF0E4
:100A700004033B604FF000037B714FF001033B71B7
:100A80004FF00003BB714FF00003FB713B464FF486
:100A90008060C4F20200194604F0D0FC4FF4806379
:100AA000C4F202034FF004025A8347F6D803C0F69B
:100AB00000034FF00102009241F21462C2F2000200
:100AC00001924FF0000202924FF00002039240F6B2
:100AD0000D30C0F6000019464FF040024FF0000301
:100AE00001F0D6FC41F21463C2F200031B68184601
:100AF00001F0ECFD41F2A063C2F200034FF00102ED
:100B000083F82C2007F10807BD4680BD80B582B070
:100B100000AF786041F21063C2F200031B78012B32
:100B200040F0CC8041F21063C2F200035B78042BEA
:100B300000F2C08001A252F823F000BF510B000860
:100B4000850B0008E50B0008710C0008810C0008FB
:100B50004FF48063C4F202034FF004021A834FF093
:100B6000C80001F085FD4FF48063C4F202034FF02A
:100B700004025A8341F21063C2F200034FF00002F4
:100B80001A709BE04FF48063C4F202034FF004023A
:100B90001A834FF0640001F06BFD4FF48063C4F2E0
:100BA00002034FF004025A834FF0640001F060FD2D
:100BB0004FF48063C4F202034FF004021A834FF033
:100BC000640001F055FD4FF48063C4F202034FF05E
:100BD00004025A8341F21063C2F200034FF0000294
:100BE0001A706BE04FF48063C4F202034FF004020A
:100BF0001A834FF0320001F03BFD4FF48063C4F2E2
:100C000002034FF004025A834FF0320001F030FD2E
:100C10004FF48063C4F202034FF004021A834FF0D2
:100C2000320001F025FD4FF48063C4F202034FF05F
:100C300004025A834FF0320001F01AFD4FF4806332
:100C4000C4F202034FF004021A834FF0320001F0A5
:100C50000FFD4FF48063C4F202034FF004025A8385
:100C600041F21063C2F200034FF000021A7025E057
:100C70004FF48063C4F202034FF004021A831DE0B4
:100C80004FF48063C4F202034FF004021A834FF45E
:100C90007A7001F0EDFC4FF48063C4F202034FF070
:100CA00004025A8341F21063C2F200034FF00002C3
:100CB0001A7003E04FF4FA7001F0DAFC41F2A0631D
:100CC000C2F200039B6A03F1010241F2A063C2F287
:100CD00000039A6241F21463C2F200031B681846D3
:100CE00001F0F4FC41F2A063C2F200034FF00102F4
:100CF00083F82C200EE700BF80B582B000AF13460A
:100D00000246FA710A46BA717B71BB7903F001039E
:100D1000DBB2002B2AD041F21063C2F200031B7831
:100D2000002B1AD17B79002B08D141F21463C2F257
:100D300000031B68184601F059FD07E041F21463F7
:100D4000C2F200031B68184601F0AEFD41F21063C9
:100D5000C2F200034FF001021A7041F2A063C2F226
:100D600000034FF0000283F82C2024E041F21063CE
:100D7000C2F200031B78012B0ED141F21463C2F2C0
:100D800000031B68184601F0A1FC41F21063C2F297
:100D900000034FF000021A7041F2A063C2F2000398
:100DA0004FF0010283F82C204FF48063C4F2020359
:100DB0004FF004025A83FB7903F00703DAB241F2E1
:100DC0001063C2F200035A7007F10807BD4680BDE8
:100DD00080B58AB004AF4FF001004FF0010101F07F
:100DE00089F84FF480404FF0010101F0DFF84FF037
:100DF000C1033B614FF000033B754FF00103FB75EE
:100E000007F110034FF00000C4F20200194604F08D
:100E100015FB4FF000004FF00001FFF7B5F94FF060
:100E20000103BB604FF000033B734FF00C037B7377
:100E30004FF00103BB7307F10803184605F09CFB54
:100E40004FF000004FF00601FFF79EF94FF040030E
:100E5000BB604FF000033B734FF00C037B734FF00C
:100E60000103BB7307F10803184605F085FB4FF03B
:100E700000004FF00701FFF787F94FF08003BB60D8
:100E80004FF000033B734FF00C037B734FF00103F3
:100E9000BB7307F10803184605F06EFB4FF017030C
:100EA0003B714FF001037B714FF00103BB714FF0B9
:100EB0000103FB7107F10403184605F02BFF47F609
:100EC000E003C0F600034FF0010200924FF0000271
:100ED00001924FF0000202924FF00002039240F69E
:100EE000FD60C0F6000019464FF040024FF00003CD
:100EF00001F0CEFA07F11807BD4680BD80B582B07B
:100F000000AF78604FF00000C4F202004FF0010122
:100F100004F040FB0346002B06D14FF004004FF0D5
:100F2000000100F04DFC0BE04FF47053C4F20103DC
:100F30004FF47052C4F20102126842F001021A60CA
:100F40004FF00000C4F202004FF0400104F022FB19
:100F50000346002B07D141F21863C2F200034FF0A1
:100F60000202DA7725E04FF00000C4F202004FF0F1
:100F7000800104F00FFB0346002B07D141F21863F8
:100F8000C2F200034FF00102DA7712E041F2186377
:100F9000C2F200034FF00002DA774FF47053C4F24C
:100FA00001034FF47052C4F20102126842F0C00211
:100FB0001A604FF0640001F05BFBA3E780B500AF5F
:100FC0004FF0400005F084FB0346002B15D04FF096
:100FD000400005F0ADFB4FF002004FF0010100F0C2
:100FE000EFFB4FF47053C4F201034FF47052C4F29C
:100FF0000102126822F040021A604FF0800005F0F2
:1010000067FB0346002B15D04FF0800005F090FBE6
:101010004FF003004FF0010100F0D2FB4FF470538A
:10102000C4F201034FF47052C4F20102126822F0BC
:1010300080021A6080BD00BF80B483B000AF034659
:10104000FB714FF02003C4F20E23FA791A6007F106
:101050000C07BD4680BC704780B483B000AF034628
:10106000FB714FF0A403C4F20E23FA791A6007F162
:101070000C07BD4680BC704780B582B000AF4FF012
:1010800004004FF0010100F035FF4FF00F033B600B
:101090004FF000037B714FF001033B714FF00003F1
:1010A000BB714FF00203FB713B464FF40060C4F28A
:1010B0000200194604F0C2F94FF40063C4F20203BF
:1010C0004FF00F025A8341F21863C2F200034FF44B
:1010D0008042C4F202021A6041F21863C2F20003B5
:1010E0004FF000021A7741F21863C2F200034FF08A
:1010F00000029A7741F21863C2F200034FF0000237
:101100005A7741F21863C2F200031B681A6A41F26F
:101110001863C2F200035A6041F21863C2F200037E
:101120004FF000021A7541F21863C2F200034FF04B
:1011300000029A6141F21863C2F200034FF000020C
:10114000DA7707F10807BD4680BD00BF80B584B0DF
:1011500000AF78604FF0000000F0DAFA41F2186357
:10116000C2F200031B7F002B40F0D98041F21863CC
:10117000C2F200035B7F002B40F0D18041F2186384
:10118000C2F200035B687A68D31AFB60FB68002B2D
:1011900010DDFB68184600F069FC03461A4641F270
:1011A0001863C2F200031B68DB8B9A4213D84FF01E
:1011B0000203B6E0FB68184600F058FC03461A46E6
:1011C00041F21863C2F200031B689B8B9A4202D85B
:1011D0004FF00203A5E0FB68002B03DAFB68C3F1C4
:1011E0000003FB60FB68184600F040FC03461A460B
:1011F00041F21863C2F200031B685B8B9A4204D968
:101200004FF0010000F084FA03E04FF0000000F01E
:101210007FFA41F21863C2F200035A687B689A426F
:1012200036D941F21863C2F20003DB7F022B02D1F0
:101230004FF0020375E041F21863C2F200037A68CE
:101240009A6041F21863C2F200031B68DB8B1846F8
:1012500000F0E0FB02467B68D21841F21863C2F24C
:1012600000031A6141F21863C2F200031B685B8B32
:10127000184600F0CFFB02467B68D21841F2186393
:10128000C2F20003DA604FF0010000F069FA35E0C5
:1012900041F21863C2F20003DB7F012B02D14FF051
:1012A00002033EE041F21863C2F200037A689A60DA
:1012B00041F21863C2F200031B689B8B184600F0D2
:1012C000A9FB03467A68D21A41F21863C2F20003FE
:1012D0001A6141F21863C2F200031B685B8B184667
:1012E00000F098FB03467A68D21A41F21863C2F202
:1012F0000003DA604FF0000000F032FA41F21863A8
:10130000C2F200034FF000029A7741F21863C2F272
:1013100000034FF003021A774FF0000301E04FF093
:101320000103184607F11007BD4680BD90B585B092
:1013300000AF02460B46FA71BB804FF0000000F090
:10134000E7F941F21863C2F200031B7F002B40F063
:10135000D88141F21863C2F200035B7F002B40F09A
:10136000D081FB79032B00F2C98101A252F823F04E
:1013700081130008871300086B1400085F1500082C
:101380004FF00003BFE141F21863C2F20003DB7FBC
:10139000022B02D14FF00203B5E141F21863C2F211
:1013A00000035B68184600F08DFB03461A46BB88B5
:1013B000D3189BB2184600F0C1FB024641F21863F5
:1013C000C2F200039A6041F21863C2F200039C6803
:1013D00041F21863C2F200031B68DB8B184600F071
:1013E00019FB0346E21A41F21863C2F200031A61C4
:1013F00041F21863C2F200039C6841F21863C2F222
:1014000000031B685B8B184600F004FB0346E21ADE
:1014100041F21863C2F20003DA6041F21863C2F2CB
:1014200000034FF000029A7741F21863C2F2000302
:101430004FF001021A77B7F9042041F21863C2F2A3
:1014400000031B685B8B9A4204DD4FF0010000F043
:101450005FF903E04FF0000000F05AF94FF0000090
:1014600000F07EF94FF000034DE141F21863C2F243
:101470000003DB7F012B02D14FF0020343E1B7F9F8
:101480000430002B03DABB88C3F10003BB8041F2B8
:101490001863C2F200035B68184600F013FB0346B2
:1014A0001A46BB88D31A9BB2184600F047FB024687
:1014B00041F21863C2F200039A6041F21863C2F26B
:1014C00000039C6841F21863C2F200031B689B8B07
:1014D000184600F09FFA0346E21841F21863C2F280
:1014E00000031A6141F21863C2F200039C6841F2E2
:1014F0001863C2F200031B685B8B184600F08AFA7F
:101500000346E21841F21863C2F20003DA6041F2C6
:101510001863C2F200034FF000029A7741F2186399
:10152000C2F200034FF002021A77B7F9042041F229
:101530001863C2F200031B685B8B9A4204DD4FF014
:10154000010000F0E5F803E04FF0000000F0E0F8E3
:101550004FF0010000F004F94FF00003D3E0BC8825
:1015600041F21863C2F200035B68184600F0AAFA61
:101570000346E31A9BB2FB81B7F90E30002B55DB13
:1015800041F21863C2F20003DB7F022B02D14FF05D
:101590000203B8E0BB88184600F0D0FA024641F2D8
:1015A0001863C2F200039A6041F21863C2F20003AA
:1015B0009C6841F21863C2F200031B68DB8B18467B
:1015C00000F028FA0346E21A41F21863C2F200035F
:1015D0001A6141F21863C2F200039C6841F2186379
:1015E000C2F200031B685B8B184600F013FA034637
:1015F000E21A41F21863C2F20003DA60B7F90E2072
:1016000041F21863C2F200031B685B8B9A4204DD4F
:101610004FF0010000F07CF803E04FF0000000F014
:1016200077F84FF0000000F09BF856E041F21863A5
:10163000C2F20003DB7F012B02D14FF0020362E014
:10164000BB88184600F07AFA024641F21863C2F2EB
:1016500000039A6041F21863C2F200039C6841F2F1
:101660001863C2F200031B689B8B184600F0D2F986
:101670000346E21841F21863C2F200031A6141F214
:101680001863C2F200039C6841F21863C2F20003BF
:101690001B685B8B184600F0BDF90346E21841F267
:1016A0001863C2F20003DA60B7F90E30C3F100022A
:1016B00041F21863C2F200031B685B8B9A4204DD9F
:1016C0004FF0010000F024F803E04FF0000000F0BC
:1016D0001FF84FF0010000F043F841F21863C2F226
:1016E00000034FF000029A7741F21863C2F2000340
:1016F0004FF003021A774FF0000304E04FF00203AB
:1017000001E04FF00103184607F11407BD4690BDF4
:1017100080B483B000AF0346FB71FB79002B02D08D
:10172000012B0AD013E04FF40063C4F202034FF020
:1017300008021A834FF000030BE04FF40063C4F279
:1017400002034FF008025A834FF0000301E04FF00C
:101750000203184607F10C07BD4680BC704700BF66
:1017600080B483B000AF0346FB71FB79002B02D03D
:10177000012B0FD01DE04FF40063C4F202034FF0C1
:1017800002025A834FF40063C4F202034FF00102D5
:101790001A830EE04FF40063C4F202034FF002021A
:1017A0001A834FF40063C4F202034FF001025A831C
:1017B00000BF184607F10C07BD4680BC704700BF4C
:1017C00080B584B000AF02460B46FA71BB71FB795D
:1017D00003F1FF33062B00F2AA8001A252F823F096
:1017E000E31800082B18000859180008871800088B
:1017F000FD170008B5180008111900084FF4006320
:10180000C4F202034FF003025A83BB794FF0020087
:101810004FF001011A46FFF76FFA41F21863C2F266
:1018200000034FF000025A7790E04FF40063C4F2D7
:1018300002034FF00B025A83BB794FF004004FF0C4
:1018400001011A46FFF758FA41F21863C2F2000389
:101850004FF002025A7779E04FF40063C4F20203BA
:101860004FF00B025A83BB794FF004004FF0010197
:101870001A46FFF741FA41F21863C2F200034FF033
:1018800002025A7762E04FF40063C4F202034FF0A1
:101890000B025A83BB794FF004004FF001011A4646
:1018A000FFF72AFA41F21863C2F200034FF0020276
:1018B0005A774BE04FF40063C4F202034FF00B027F
:1018C0005A83BB794FF004004FF001011A46FFF72D
:1018D00013FA41F21863C2F200034FF002025A7782
:1018E00034E04FF40063C4F202034FF00B025A835A
:1018F000BB794FF004004FF001011A46FFF7FCF9E5
:1019000041F21863C2F200034FF002025A771DE061
:101910004FF40063C4F202034FF00B025A8341F20A
:101920001863C2F200034FF000025A770EE04FF442
:101930000063C4F202034FF00B025A8341F21863B2
:10194000C2F200034FF002025A7700BF4FF00103CA
:10195000FB73BB79002B0FD141F23073C2F200034D
:101960001A6807F10F03104619464FF000024FF0B6
:10197000000304F03BF912E04FF00003BB6041F2BA
:101980003073C2F20003196807F1080307F10F0270
:10199000084611461A464FF0000304F0D3F941F20D
:1019A0001863C2F20003FA799A7741F21863C2F21F
:1019B00000034FF000021A77184607F11007BD46E2
:1019C00080BD00BF80B483B000AF44F24023C0F2BA
:1019D0000F037B604FF40063C4F202034FF0040274
:1019E0001A8300BF7B68002B0CBF00230123DBB2EE
:1019F0007A6802F1FF327A60002BF3D14FF4006372
:101A0000C4F202034FF004025A8307F10C07BD46EB
:101A100080BC704780B483B000AF0346FB80FA8877
:101A200041F21863C2F200031B68D96841F21863DF
:101A3000C2F200031B685B68CB1A03FB02F241F29F
:101A40001863C2F200031B681B89194641F2186330
:101A5000C2F200031B681B88CB1AB2FBF3F31846D3
:101A600007F10C07BD4680BC704700BF80B483B04F
:101A700000AF786041F21863C2F200031B681B8953
:101A80001A4641F21863C2F200031B681B88D31A7E
:101A90007A6802FB03F241F21863C2F200031B688A
:101AA000D96841F21863C2F200031B685B68CB1A65
:101AB000B2FBF3F39BB2184607F10C07BD4680BC9E
:101AC000704700BF90B583B000AF786041F21863F3
:101AD000C2F200031B685A697B689A4214D841F22B
:101AE0001863C2F200031B681C8A41F21863C2F239
:101AF00000031B685B697A68D31A1846FFF7B6FFC4
:101B00000346E3189BB213E041F21863C2F20003EC
:101B10001B681C8A41F21863C2F200031B685A69F1
:101B20007B68D31A1846FFF7A1FF0346E31A9BB25E
:101B3000184607F10C07BD4690BD00BF90B585B0B3
:101B400000AF0346FB8041F21863C2F200031B683A
:101B50001B8AFA88D31A9BB2FB81B7F90E30002B8F
:101B60000CDB41F21863C2F200031B685C69FB895D
:101B70001846FFF74FFF0346E3180FE041F21863E2
:101B8000C2F200031B685C69FB89C3F100039BB2CE
:101B90009BB21846FFF73EFF0346E31A184607F1CB
:101BA0001407BD4690BD00BF80B582B000AF47F6B8
:101BB0005013C0F600037B6040F20003C2F2000342
:101BC0003B600BE07B681A683B681A603B6803F176
:101BD00004033B607B6803F104037B603A6840F2D6
:101BE000E403C2F200039A42ECD3074807494FF0DE
:101BF00000028842B8BF40F8042BFADB00F058F925
:101C000007F10807BD4680BDE80000203817002016
:101C100080B400AFFEE700BF80B500AF4FF4802076
:101C20004FF0010100F066F94FF080504FF00101D4
:101C300000F08EF980BD00BF80B586B000AFF860BF
:101C4000B9601346FB714FF00003FB754FF00100C4
:101C5000FFF7F2F94FF00100FFF7FEF94FF0000334
:101C6000FB750BE0FA68FB7DD318B968FA7D8A181A
:101C700012781A70FB7D03F10103FB75FA7DFB7985
:101C80009A42EFD34FF00000FFF7D6F907F118079B
:101C9000BD4680BD80B483B000AF4FF00003FB7140
:101CA0004FF00003BB7140F2E803C2F200031B785F
:101CB00003F10103DAB240F2E803C2F200031A7042
:101CC00040F2E803C2F200031B78022B1AD84FF04F
:101CD0000003FB7112E0FA7941F23863C2F20003AB
:101CE0004FF0160101FB02F29B1803F148034FF07D
:101CF00000021A72FB7903F10103FB71FB79012BDE
:101D0000E9D9A6E040F2E803C2F200031B78052BF4
:101D100006D940F2E803C2F200034FF000021A7045
:101D200040F2E803C2F200031B78032B40F09080DE
:101D30004FF00003FB7186E0FA7941F23863C2F29A
:101D400000034FF0160101FB02F29B1803F1480358
:101D5000DB79002B0ED0FA7941F23863C2F200032E
:101D60004FF0160101FB02F29B1803F148035B7A66
:101D7000002B1ED1FA7941F23863C2F200034FF012
:101D8000160101FB02F29B1803F148034FF0000219
:101D90005A72FA7941F23863C2F200034FF0160129
:101DA00001FB02F29B1803F148034FF000021A7284
:101DB00045E0FA7941F23863C2F200034FF01601B0
:101DC00001FB02F29B1803F148035B7AFF2B1CD046
:101DD000FA7941F23863C2F200034FF0160101FBB9
:101DE00002F15B1803F148035B7A03F1FF33D9B2C8
:101DF00041F23863C2F200034FF0160000FB02F21A
:101E00009B1803F148030A465A72F979FA7941F2AC
:101E10003863C2F200034FF0160000FB02F29B1879
:101E200003F14803DA7941F23863C2F200034FF05C
:101E3000160000FB01F15B1803F148031A72FB79ED
:101E400003F10103FB71FB79012B7FF675AF00E015
:101E500000BF07F10C07BD4680BC704780B483B05B
:101E600000AF13460246FA710A46BA717B71FA79DD
:101E700041F23863C2F200034FF0160101FB02F297
:101E80009B1803F14803BA79DA71FA7941F23863A1
:101E9000C2F200034FF0160101FB02F29B1803F19E
:101EA00048037A795A7207F10C07BD4680BC704727
:101EB00080B500AF03F0A8FCFFF7AEFEFFF7DCF83B
:101EC00000F01CFAFEF784FF00F088F901F09CFB9B
:101ED000FEF7C4FD01F048FF00F058FDFEE700BF2B
:101EE00080B400AFFEE700BF80B483B000AF78607D
:101EF0003960FEE780B483B000AF78600B46FB70BA
:101F0000FB78002B0ED04FF46053C4F202034FF461
:101F10006052C4F20202126B11467A6841EA020270
:101F20001A630FE04FF46053C4F202034FF460529F
:101F3000C4F20202126B11467A686FEA020201EAE9
:101F400002021A6307F10C07BD4680BC704700BF50
:101F500080B483B000AF78600B46FB70FB78002B39
:101F60000ED04FF46053C4F202034FF46052C4F237
:101F70000202126C11467A6841EA02021A640FE00A
:101F80004FF46053C4F202034FF46052C4F20202F1
:101F9000126C11467A686FEA020201EA02021A64C0
:101FA00007F10C07BD4680BC704700BF80B483B00A
:101FB00000AF78600B46FB70FB78002B0ED04FF41F
:101FC0006053C4F202034FF46052C4F20202526C36
:101FD00011467A6841EA02025A640FE04FF46053F6
:101FE000C4F202034FF46052C4F20202526C114672
:101FF0007A686FEA020201EA02025A6407F10C07EA
:10200000BD4680BC704700BF80B400AF41F238636A
:10201000C2F200034FF002021A7041F23863C2F2BA
:1020200000034FF00002DA8741F23863C2F2000386
:102030004FF000029A8741F23863C2F200034FF07A
:102040000102A3F8402041F23863C2F200034FF0CE
:102050000502A3F8422041F23863C2F2000340F6C1
:102060000922A3F8442041F23863C2F200034FF47E
:102070001062A3F8462041F23863C2F20003B3F8BD
:10208000423003F1FF339BB29BB243F430639BB207
:102090009AB241F23863C2F20003A3F8482041F239
:1020A0003863C2F2000340F60142A3F84A2041F22D
:1020B0003863C2F200034FF47062A3F84C2041F27F
:1020C0003863C2F200034FF0000283F84F2041F260
:1020D0003863C2F2000393F84F2041F23863C2F232
:1020E000000383F8502041F23863C2F200034FF03E
:1020F000000283F8512041F23863C2F200034FF02E
:102100000102A3F8542041F23863C2F200034FF0F9
:102110000002A3F8522041F23863C2F200034FF0EC
:102120000102A3F8562041F23863C2F200034FF0D7
:102130000502A3F8582041F23863C2F2000340F6CA
:102140000922A3F85A2041F23863C2F200034FF487
:102150001062A3F85C2041F23863C2F20003B3F8C6
:10216000583003F1FF339BB29BB243F430639BB210
:102170009AB241F23863C2F20003A3F85E2041F242
:102180003863C2F2000340F60142A3F8602041F236
:102190003863C2F200034FF47062A3F8622041F288
:1021A0003863C2F200034FF0000283F8652041F269
:1021B0003863C2F2000393F8652041F23863C2F23B
:1021C000000383F8662041F23863C2F200034FF047
:1021D000000283F86720BD4680BC704780B500AF21
:1021E000FFF712FF04F0B4FA4FF00003184680BD69
:1021F00080B500AF4FF00003C4F201034FF6FE724A
:102200001A824FF00003C4F201031B889BB203F053
:102210001003002B0CD041F21863C2F200035B687C
:1022200003F1FF3241F21863C2F200035A600BE07F
:1022300041F21863C2F200035B6803F1010241F24C
:102240001863C2F200035A6041F21863C2F200033D
:102250005B7F002B4FD141F21863C2F200039B7FDA
:10226000002B48D141F21863C2F200031B7F002B00
:1022700041D041F21863C2F200035A6841F2186378
:10228000C2F20003DB689A4203D14FF00000FFF76F
:102290003FFA41F21863C2F200035A6841F2186330
:1022A000C2F200031B699A4206D14FF40063C4F2E4
:1022B00002034FF003025A8341F21863C2F2000393
:1022C0005A6841F21863C2F200039B689A4212D125
:1022D0004FF005004FF00101FFF772FA41F2186369
:1022E000C2F200031B6803F12003184602494FF0B5
:1022F0000402FFF7A1FC80BD1C16002080B58AB047
:1023000000AF4FF001004FF00101FFF7F3FD4FF078
:1023100001004FF00101FFF749FE07F11C031846C9
:1023200004F044FE4FF001033B624FF00003BB8317
:102330004FF00003BB844FF01003FB8307F11C0335
:102340004FF00000C4F20100194604F0B3FD4FF055
:102350000000C4F201004FF003014FF00A024FF0F9
:102360000A0304F053FF4FF00003C4F201034FF0DF
:1023700022021A844FF00000C4F201004FF0010164
:102380004FF0010204F01CFF4FF00000C4F2010006
:102390004FF0010104F028FE4FF4407004F0A6FC59
:1023A0004FF01D033B764FF00F037B764FF00E038B
:1023B000BB764FF00103FB7607F11803184604F0D3
:1023C000A9FC4FF019033B7607F11803184604F0F7
:1023D000A1FC4FF00003BB814FF00703BB8207F164
:1023E0000C034FF00000C4F20100194604F01CFE7B
:1023F00007F10C034FF48060C4F20000194604F0AA
:1024000013FE4FF00403BB814FF00703BB8207F1BB
:102410000C034FF00000C4F20100194604F004FE62
:102420004FF440737B604FF002033B724FF00103A7
:10243000FB724FF00003BB724FF000037B7207F199
:1024400004034FF00000C4F20200194602F0F6FF48
:102450004FF00000C4F202004FF008014FF00102FB
:1024600003F0B8F84FF00000C4F202004FF0090189
:102470004FF0010203F0AEF84FF00003C4F2010385
:102480004FF000025A6207F12807BD4680BD00BF29
:1024900080B58AB002AFF860B9603B601346FB803C
:1024A000FB68002B04D14FF0500080F31188FEE749
:1024B000BB6A042B04D94FF0500080F31188FEE76B
:1024C000FB881846396B00F077FFB861BB69002BB9
:1024D00000F0B080BB691A6BFB8803F1FF334FEA51
:1024E0008303D3187B617B6923F007037B617B69DE
:1024F00003F00703002B04D04FF0500080F3118845
:10250000FEE7FB880093B869B968BA6A7B6B00F094
:1025100031FE7869F9683A6803F07AFE03461A4694
:10252000BB691A60FB6A002B02D0FB6ABA691A60A9
:1025300003F002FF40F2C413C2F200031B6803F170
:10254000010240F2C413C2F200031A6040F2EC032D
:10255000C2F200031B68002B0FD140F2EC03C2F261
:102560000003BA691A6040F2C413C2F200031B6888
:10257000012B18D100F03CFE15E040F2D413C2F25A
:1025800000031B68002B0ED140F2EC03C2F20003E3
:102590001B68DA6ABB6A9A4205D840F2EC03C2F2C1
:1025A0000003BA691A60BB69DA6A40F2CC13C2F25E
:1025B00000031B689A4206D9BB69DA6A40F2CC1361
:1025C000C2F200031A6040F2E813C2F200031B6873
:1025D00003F1010240F2E813C2F200031A60BB6982
:1025E000DA6A40F2D013C2F200031B689A4206D99D
:1025F000BB69DA6A40F2D013C2F200031A60BB6909
:10260000DA6A13464FEA83039B184FEA83031A469C
:1026100040F2F003C2F20003D218BB6903F10403D5
:102620001046194603F060F84FF00103FB6103F018
:1026300099FE02E04FF0FF33FB61FB69012B11D1E2
:1026400040F2D413C2F200031B68002B0AD040F200
:10265000EC03C2F200031B68DA6ABB6A9A4201D239
:1026600003F05EFEFB69184607F12007BD4680BDFA
:1026700080B584B000AF78604FF00003FB607B68EA
:10268000002B19D000F0C4F940F2C813C2F20003C5
:102690001A687B68D318BB6040F2EC03C2F20003F7
:1026A0001B6803F10403184603F084F8B86800F0CF
:1026B0003DFE00F0BFF9F860FB68002B01D103F08C
:1026C0002FFE07F11007BD4680BD00BF80B584B066
:1026D00000AF786003F030FE40F2EC03C2F200037A
:1026E0001B687A689A4202D14FF000037B607B68D6
:1026F000002B05D140F2EC03C2F200031B6800E09E
:102700007B68FB60FB6803F10403184603F052F892
:10271000FB689B6A002B05D0FB6803F11803184681
:1027200003F048F8FB6803F1040340F2B010C2F272
:102730000000194602F0D8FF03F014FE7B68002B5E
:1027400020D140F2D413C2F200031B68002B02D048
:1027500003F0E6FD16E040F2B013C2F200031B687E
:102760001A4640F2C413C2F200031B689A4207D112
:1027700040F2EC03C2F200034FF000021A6001E0E5
:1027800000F0F6FA07F11007BD4680BD80B485B0B1
:1027900000AF78604FF00003FB607B68BB607B6834
:1027A000002B04D14FF0500080F31188FEE7BB6886
:1027B0005A6940F2B013C2F200039A420ED1BB68CC
:1027C0009A6A40F28413C2F200039A4206D0BB68B0
:1027D0009B6A002B02D14FF00103FB60FB68184697
:1027E00007F11407BD4680BC704700BF80B584B0B8
:1027F00000AF78607B68002B04D14FF0500080F36D
:102800001188FEE77B68FB60FB68002B48D040F234
:10281000EC03C2F200031B68FA689A4240D003F04E
:102820008BFDF868FFF7B2FF0346012B36D1FB683A
:1028300003F10403184602F0BDFFFB68DA6A40F2B8
:10284000D013C2F200031B689A4206D9FB68DA6A09
:1028500040F2D013C2F200031A60FB68DA6A134632
:102860004FEA83039B184FEA83031A4640F2F003B2
:10287000C2F20003D218FB6803F1040310461946A4
:1028800002F032FFFB68DA6A40F2EC03C2F20003A6
:102890001B68DB6A9A4201D303F042FD03F062FD3C
:1028A00007F11007BD4680BD80B586B000AF7860E7
:1028B0004FF000037B617B68002B04D14FF0500088
:1028C00080F31188FEE77B683B614FF00003FB60FB
:1028D0004FF0500080F311883869FFF757FF034627
:1028E000012B49D140F2D813C2F200031B68002B20
:1028F00038D13B69DA6A40F2EC03C2F200031B688C
:10290000DB6A9A4234BF002301237B613B6903F1F8
:102910000403184602F04EFF3B69DA6A40F2D01316
:10292000C2F200031B689A4206D93B69DA6A40F298
:10293000D013C2F200031A603B69DA6A13464FEA09
:1029400083039B184FEA83031A4640F2F003C2F256
:102950000003D2183B6903F104031046194602F044
:10296000C3FE09E03B6903F1180340F28410C2F290
:102970000000194602F0B8FE4FF0000080F3118805
:102980007B69184607F11807BD4680BD80B586B043
:1029900004AF47F6EC03C0F600034FF000020092CC
:1029A0004FF0000201924FF0000202924FF000023D
:1029B000039243F25110C0F6000019464FF0460250
:1029C0004FF00003FFF764FD78607B68012B13D1A3
:1029D0004FF0500080F3118840F2D413C2F200038C
:1029E0004FF001021A6040F2C813C2F200034FF028
:1029F00000021A6003F05CFC7B68002B04D14FF0EE
:102A0000500080F31188FEE707F10807BD4680BD3E
:102A100080B400AF40F2D813C2F200031B6803F188
:102A2000010240F2D813C2F200031A60BD4680BC16
:102A3000704700BF90B583B000AF4FF000037B60DC
:102A400040F2D813C2F200031B68002B04D14FF0F0
:102A5000500080F31188FEE703F06EFC40F2D813BB
:102A6000C2F200031B6803F1FF3240F2D813C2F236
:102A700000031A6040F2D813C2F200031B68002B57
:102A800040F0868040F2C413C2F200031B68002BA2
:102A90007ED04FF000033B603DE040F28413C2F271
:102AA0000003DB68DB681C4604F11803184602F0DB
:102AB00081FE04F10403184602F07CFEE26A40F253
:102AC000D013C2F200031B689A4205D9E26A40F2B1
:102AD000D013C2F200031A60E26A13464FEA83037E
:102AE0009B184FEA83031A4640F2F003C2F2000338
:102AF000D21804F104031046194602F0F5FDE26A0B
:102B000040F2EC03C2F200031B68DB6A9A4202D374
:102B10004FF001033B6040F28413C2F200031B68D4
:102B2000002BBAD140F2DC13C2F200031B68002B69
:102B300018D00DE000F034F840F2DC13C2F20003CC
:102B40001B6803F1FF3240F2DC13C2F200031A608B
:102B500040F2DC13C2F200031B68002BEAD14FF0F5
:102B600001033B603B68012B06D040F2E013C2F248
:102B700000031B68012B0BD14FF001037B6040F277
:102B8000E013C2F200034FF000021A6003F0C8FB2A
:102B900003F0E8FB7B68184607F10C07BD4690BDC3
:102BA00080B584B000AF40F2D813C2F200031B68B6
:102BB000002B40F0CD8040F2C813C2F200031B6826
:102BC00003F1010240F2C813C2F200031A6040F29E
:102BD000C813C2F200031B68002B4DD140F27C13D6
:102BE000C2F200031B681B68002B04D04FF050009A
:102BF00080F31188FEE740F27C13C2F200031B68E9
:102C0000FB6040F28013C2F200031A6840F27C13AA
:102C1000C2F200031A6040F28013C2F20003FA68A5
:102C20001A6040F2E413C2F200031B6803F10102D0
:102C300040F2E413C2F200031A6040F27C13C2F2C5
:102C400000031B681B68002B07D140F20003C2F28F
:102C500000034FF0FF321A600EE040F27C13C2F224
:102C600000031B68DB68DB68BB60BB685A6840F226
:102C70000003C2F200031A6040F2C813C2F200035C
:102C80001A6840F20003C2F200031B689A426BD339
:102C900040F27C13C2F200031B681B68002B07D1B3
:102CA00040F20003C2F200034FF0FF321A605BE013
:102CB00040F27C13C2F200031B68DB68DB68BB6078
:102CC000BB685B687B6040F2C813C2F200031A68FD
:102CD0007B689A4206D240F20003C2F200037A688F
:102CE0001A6041E0BB6803F10403184602F062FD7C
:102CF000BB689B6A002B05D0BB6803F1180318461C
:102D000002F058FDBB68DA6A40F2D013C2F2000349
:102D10001B689A4206D9BB68DA6A40F2D013C2F245
:102D200000031A60BB68DA6A13464FEA83039B18F4
:102D30004FEA83031A4640F2F003C2F20003D218AE
:102D4000BB6803F104031046194602F0CDFC9FE76F
:102D500040F2DC13C2F200031B6803F1010240F2EF
:102D6000DC13C2F200031A6007F11007BD4680BDF4
:102D700080B582B000AF40F2D813C2F200031B68E6
:102D8000002B07D040F2E013C2F200034FF0010223
:102D90001A609CE040F2EC03C2F200031B681A6860
:102DA00040F2EC03C2F200031B681B6B9A420FD87F
:102DB00040F2EC03C2F200031A6840F2EC03C2F2E4
:102DC00000031B6803F1340310461946FFF78CF823
:102DD00040F2EC03C2F200031B681B6B184647F677
:102DE000F401C0F600014FF0140204F0B9FB0346F1
:102DF000002B29D040F2EC03C2F200031A6840F223
:102E0000EC03C2F200031B6803F1340310461946B9
:102E1000FFF76AF819E040F2D013C2F200031B6812
:102E2000002B04D14FF0500080F31188FEE740F2F0
:102E3000D013C2F200031B6803F1FF3240F2D0133B
:102E4000C2F200031A6000E000BF40F2D013C2F2E9
:102E500000031A6813464FEA83039B184FEA830363
:102E60001A4640F2F003C2F20003D3181B68002B8D
:102E7000D1D040F2D013C2F200031A6813464FEAD1
:102E800083039B184FEA83031A4640F2F003C2F211
:102E90000003D3187B607B685B685B681A467B68BD
:102EA0005A607B685A687B6803F108039A4205D12F
:102EB0007B685B685B681A467B685A607B685B6806
:102EC000DB681A4640F2EC03C2F200031A6007F115
:102ED0000807BD4680BD00BF80B584B000AF7860F4
:102EE00039607B68002B04D14FF0500080F31188CB
:102EF000FEE740F2EC03C2F200031B6803F1180383
:102F00007868194602F01AFC40F2EC03C2F20003A2
:102F10001B6803F10403184602F04CFC3B68B3F154
:102F2000FF3F0ED140F2EC03C2F200031B6803F135
:102F3000040340F2B010C2F20000194602F0D4FBC4
:102F40000AE040F2C813C2F200031A683B68D318C3
:102F5000FB60F86800F0EAF907F11007BD4680BD94
:102F600080B584B000AF78607B68DB68DB68BB60ED
:102F7000BB68002B04D14FF0500080F31188FEE7AE
:102F8000BB6803F11803184602F014FC40F2D81392
:102F9000C2F200031B68002B2BD1BB6803F10403B2
:102FA000184602F007FCBB68DA6A40F2D013C2F29E
:102FB00000031B689A4206D9BB68DA6A40F2D01354
:102FC000C2F200031A60BB68DA6A13464FEA830351
:102FD0009B184FEA83031A4640F2F003C2F2000343
:102FE000D218BB6803F104031046194602F07CFBBB
:102FF00009E0BB6803F1180340F28410C2F200003C
:10300000194602F071FBBB68DA6A40F2EC03C2F2C7
:1030100000031B68DB6A9A4203D34FF00103FB6095
:1030200002E04FF00003FB60FB68184607F1100751
:10303000BD4680BD80B483B000AF78607B68002B54
:1030400004D14FF0500080F31188FEE740F2E41302
:10305000C2F200031A687B681A6040F2C813C2F219
:1030600000031A687B685A6007F10C07BD4680BCF4
:10307000704700BF80B584B000AF786039607B686E
:10308000002B04D14FF0500080F31188FEE73B681D
:10309000002B04D14FF0500080F31188FEE703F0BD
:1030A0004BF93B681B68B3F1FF3F03D14FF00003BE
:1030B000FB6038E07B681A6840F2E413C2F2000358
:1030C0001B689A420CD07B685A6840F2C813C2F25F
:1030D00000031B689A4203D84FF00103FB6022E013
:1030E00040F2C813C2F200031A687B685B68D21A08
:1030F0003B681B689A4213D23B681A687B68596820
:1031000040F2C813C2F200031B68CB1AD2183B6806
:103110001A607868FFF78EFF4FF00003FB6002E053
:103120004FF00103FB6003F01DF9FB68184607F13F
:103130001007BD4680BD00BF80B400AF40F2E01371
:10314000C2F200034FF001021A60BD4680BC704716
:1031500080B582B000AF786000E000BF00F09AF860
:1031600040F2F003C2F200031B68012BF5D903F013
:10317000D7F8F3E780B584B000AFF860B9607A6043
:103180003B60FB6803F134031A46BB6810461946DE
:103190004FF00A0204F042FBFB684FF0000283F894
:1031A0003D207B68042B02D94FF004037B60FB6851
:1031B0007A68DA62FB687A681A64FB6803F10403D0
:1031C000184602F083FAFB6803F11803184602F070
:1031D0007DFAFB68FA681A617B68C3F10502FB6837
:1031E0009A61FB68FA685A6207F11007BD4680BD14
:1031F00080B582B000AF4FF000037B6013E07A68C7
:1032000013464FEA83039B184FEA83031A4640F2A2
:10321000F003C2F20003D318184602F033FA7B68B9
:1032200003F101037B607B68042BE8D940F2541062
:10323000C2F2000002F026FA40F26810C2F200006A
:1032400002F020FA40F28410C2F2000002F01AFAF2
:1032500040F29810C2F2000002F014FA40F2B010EE
:10326000C2F2000002F00EFA40F27C13C2F2000338
:1032700040F25412C2F200021A6040F28013C2F20D
:10328000000340F26812C2F200021A6007F1080758
:10329000BD4680BD80B582B000AF40F2AC13C2F233
:1032A00000031B68002B3CD0FFF7B2FB40F29813E1
:1032B000C2F200031B68002B14BF002301237B60B4
:1032C000FFF7B8FB7B68002B2BD103F035F840F2F9
:1032D0009813C2F20003DB68DB683B603B6803F1D4
:1032E0000403184602F066FA40F2C413C2F2000367
:1032F0001B6803F1FF3240F2C413C2F200031A60EC
:1033000040F2AC13C2F200031B6803F1FF3240F23B
:10331000AC13C2F200031A6003F024F8386800F01E
:1033200085F807F10807BD4680BD00BF80B582B0B3
:1033300000AF786040F2EC03C2F200031B687A68C9
:103340005A6040F2C813C2F200031B687A689A42BE
:1033500010D240F28013C2F200031A6840F2EC036C
:10336000C2F200031B6803F104031046194602F081
:10337000E5F91DE040F27C13C2F200031A6840F246
:10338000EC03C2F200031B6803F104031046194664
:1033900002F0D4F940F20003C2F200031B687A681D
:1033A0009A4205D240F20003C2F200037A681A6022
:1033B00007F10807BD4680BD80B584B000AF034665
:1033C0003960FB804FF0440003F018FD0346FB60BA
:1033D000FB68002B23D03B68002B07D1FB884FEA0A
:1033E0008303184603F00AFD034600E03B68FA68D1
:1033F0001363FB681B6B002B06D1F86803F050FDCC
:103400004FF00003FB600AE0FB681A6BFB884FEA91
:10341000830310464FF0A5011A4604F075F9FB68C6
:10342000184607F11007BD4680BD00BF80B582B0C9
:1034300000AF78607B681B6B184603F031FD78683D
:1034400003F02EFD07F10807BD4680BD80B483B0B0
:1034500000AF40F2EC03C2F200031B687B607B68A4
:10346000184607F10C07BD4680BC704780B584B094
:1034700000AF78607B68FB607B68002B04D14FF065
:10348000500080F31188FEE7FB68DA6A40F2EC0333
:10349000C2F200031B68DB6A9A4257D240F2EC0387
:1034A000C2F200031B68DB6AC3F10502FB689A6184
:1034B000FB685969FB68DA6A13464FEA83039B1875
:1034C0004FEA83031A4640F2F003C2F20003D31816
:1034D000994233D1FB6803F10403184602F06AF9FC
:1034E00040F2EC03C2F200031B68DA6AFB68DA629E
:1034F000FB68DA6A40F2D013C2F200031B689A42FA
:1035000006D9FB68DA6A40F2D013C2F200031A60EF
:10351000FB68DA6A13464FEA83039B184FEA83037A
:103520001A4640F2F003C2F20003D218FB6803F11E
:1035300004031046194602F0D7F807E040F2EC0306
:10354000C2F200031B68DA6AFB68DA6207F110074F
:10355000BD4680BD80B584B000AF78607B68FB60FD
:103560007B68002B3AD0FB68DA6AFB681B6C9A42D6
:1035700034D0FB6803F10403184602F01BF9FB6822
:103580001A6CFB68DA62FB68DB6AC3F10502FB6850
:103590009A61FB68DA6A40F2D013C2F200031B683A
:1035A0009A4206D9FB68DA6A40F2D013C2F20003ED
:1035B0001A60FB68DA6A13464FEA83039B184FEAE6
:1035C00083031A4640F2F003C2F20003D218FB68EC
:1035D00003F104031046194602F086F807F11007BC
:1035E000BD4680BD80B483B000AF0346FB8003E0DE
:1035F000FB8803F1FF33FB80FB88002BF8D107F138
:103600000C07BD4680BC704780B586B004AF4FF054
:1036100005004FF00101FEF76DFC4FF470633B6055
:103620004FF000037B714FF001033B714FF001033A
:10363000BB714FF00003FB713B464FF40060C4F2D6
:103640000200194601F0FAFE4FF41C433B604FF0B4
:1036500000037B714FF000033B714FF00103FB71DE
:103660003B464FF00000C4F20200194601F0E6FEAE
:103670004FF40063C4F202034FF470621A834FF0F8
:1036800002004FF001014FF0000202F011FA024671
:1036900041F2D063C2F200031A6047F60813C0F685
:1036A00000034FF0010200924FF0000201924FF030
:1036B000000202924FF00002039243F2D960C0F67A
:1036C000000019464FF040024FF00003FEF7E0FE05
:1036D00007F10807BD4680BD80B586B000AF7860B1
:1036E0004FF00003BB754FF000037B754FF00003F4
:1036F000FB754FF000037B824FF41C437B8200F08C
:1037000083F80346FB734FF00A00FEF7B1FF00F0A9
:103710007BF803467B74FB7BFF2B2FD0FB7B7A7CF3
:103720009A426CD1FB7BBB73FB7D132B04D8FB7DD2
:1037300003F10103FB7562E0FB7D142B5FD14FF0B9
:103740001503FB75FB7B03F11003DBB2FB7341F246
:10375000D063C2F200031B68002B50D041F2D0634B
:10376000C2F200031A6807F10F03104619464FF022
:1037700000024FF0000302F039FA40E0FB7D002B1D
:1037800019D0FB7D132B16D841F2D063C2F200038F
:103790001B68002B2DD041F2D063C2F200031A68DF
:1037A00007F10E03104619464FF000024FF00003D8
:1037B00002F01CFA1DE0FB7D152B1AD1BB7B03F137
:1037C0002003DBB2BB7341F2D063C2F200031B687B
:1037D000002B0ED041F2D063C2F200031A6807F149
:1037E0000E03104619464FF000024FF0000302F09E
:1037F000FDF94FF0FF033B744FF00003FB754FF0F2
:103800003200FEF735FF7AE780B582B000AF4FF0A7
:103810000003FB714FF00003BB804FF41C43BB80DF
:103820004FF40063C4F202034FF470621A834FF046
:103830000003FB71FEE0FB79032B00F2F78001A28D
:1038400052F823F055380008CB38000841390008F9
:10385000B73900084FF40063C4F202034FF48072DA
:103860005A834FF00A00FFF7BDFE4FF00003C4F289
:1038700002031B697B804FF40063C4F202034FF420
:1038800070621A837B886FEA0302BB8802EA030333
:10389000B3F5006F10D0B3F5006F03DCB3F5806FA4
:1038A00007D0C3E0B3F5805F09D0B3F5004F09D06E
:1038B000BCE04FF00103C3E04FF00203C0E04FF063
:1038C0000303BDE04FF00A03BAE04FF40063C4F213
:1038D00002034FF400725A834FF00A00FFF782FE92
:1038E0004FF00003C4F202031B697B804FF40063B6
:1038F000C4F202034FF470621A837B886FEA0302FA
:10390000BB8802EA0303B3F5006F10D0B3F5006F74
:1039100003DCB3F5806F07D088E0B3F5805F09D092
:10392000B3F5004F09D081E04FF0040388E04FF079
:10393000050385E04FF0060382E04FF00B037FE0C4
:103940004FF40063C4F202034FF480625A834FF0D5
:103950000A00FFF747FE4FF00003C4F202031B69A1
:103960007B804FF40063C4F202034FF470621A8349
:103970007B886FEA0302BB8802EA0303B3F5006F9A
:1039800010D0B3F5006F03DCB3F5806F07D04DE0C6
:10399000B3F5805F09D0B3F5004F09D046E04FF092
:1039A00007034DE04FF008034AE04FF0090347E0FA
:1039B0004FF00C0344E04FF40063C4F202034FF4F1
:1039C00000625A834FF00A00FFF70CFE4FF000032D
:1039D000C4F202031B697B804FF40063C4F202034C
:1039E0004FF470621A837B886FEA0302BB8802EA95
:1039F0000303B3F5006F10D0B3F5006F03DCB3F52C
:103A0000806F07D012E0B3F5805F09D0B3F5004FA7
:103A100009D00BE04FF00D0312E04FF000030FE070
:103A20004FF00F030CE04FF00E0309E0FB7903F1B8
:103A30000103FB71FB79032B7FF6FDAE4FF0FF0313
:103A4000184607F10807BD4680BD00BF80B483B0AB
:103A500000AF78607A6840F2F013C2F200039A4235
:103A600006D041F22C73C2F200037A681A6000E0BB
:103A700000BF07F10C07BD4680BC704780B582B01F
:103A800000AF41F22C73C2F200031B689B687B609D
:103A90007A6840F2F013C2F200039A4206D141F272
:103AA0001470C2F2000001F0ADF935E141F22C735F
:103AB000C2F200031B6803F111034FF00000194626
:103AC000FCF7BCFB41F22C73C2F200031B681B7CA9
:103AD000A3F10203062B00F21E8101A252F823F08B
:103AE000FD3A00080B3B0008193B0008273B000883
:103AF000A33B00081F3C00089B3C000841F21470E7
:103B0000C2F2000001F07EF906E141F21470C2F247
:103B1000000001F077F9FFE041F21470C2F20000FA
:103B200001F070F9F8E041F21863C2F200031B687B
:103B30001B8B9BB21BB2184641F21471C2F20001FA
:103B40004FF0000241F2707301F07AFA0346012B44
:103B50001ED141F21470C2F2000001F053F94FF08F
:103B600001004FF0FF014FF00202FEF777F94FF02E
:103B700002004FF001014FF00002FDF7BDF84FF0D9
:103B800001004FF0FF014FF00202FEF767F9C3E0BA
:103B900041F21470C2F200004FF0010101F048F947
:103BA000BAE041F21863C2F200031B685B8B9BB260
:103BB0001BB2184641F21471C2F200014FF000022C
:103BC00041F2707301F03CFA0346012B1ED141F221
:103BD0001470C2F2000001F015F94FF001004FF02F
:103BE000FF014FF00202FEF739F94FF002004FF0EB
:103BF00001014FF00002FDF77FF84FF001004FF098
:103C0000FF014FF00202FEF729F985E041F214703E
:103C1000C2F200004FF0010101F00AF97CE041F22C
:103C20001863C2F200031B689B8B9BB21BB2184641
:103C300041F21471C2F200014FF0000241F27073C0
:103C400001F0FEF90346012B1ED141F21470C2F2BD
:103C5000000001F0D7F84FF001004FF0FF014FF0E6
:103C60000202FEF7FBF84FF002004FF001014FF0A7
:103C70000002FDF741F84FF001004FF0FF014FF057
:103C80000202FEF7EBF847E041F21470C2F20000C6
:103C90004FF0010101F0CCF83EE041F21863C2F2AE
:103CA00000031B68DB8B9BB21BB2184641F21471F8
:103CB000C2F200014FF0000241F2707301F0C0F94E
:103CC0000346012B1ED141F21470C2F2000001F034
:103CD00099F84FF001004FF0FF014FF00202FEF79C
:103CE000BDF84FF002004FF001014FF00002FDF768
:103CF00003F84FF001004FF0FF014FF00202FEF712
:103D0000ADF809E041F21470C2F200004FF0010179
:103D100001F08EF800E000BF4FF00003184607F1F5
:103D20000807BD4680BD00BF80B500AF41F22C73CF
:103D3000C2F2000340F20402C2F200021A6041F231
:103D40001473C2F200034FF000021A7241F21473AE
:103D5000C2F200034FF020025A72FFF78FFE4FF0BD
:103D60000003184680BD00BF80B584B004AF4FF09B
:103D700002004FF001014FF0000201F099FE0246EF
:103D800041F23073C2F200031A6047F61413C0F612
:103D900000034FF0010200924FF0000201924FF039
:103DA000000202924FF00002039244F6F520C0F6A2
:103DB000000019464FF080024FF00003FEF768FB49
:103DC000BD4680BD80B500AF41F22C73C2F2000346
:103DD0001B689B681846FFF739FEFFF74FFE80BD52
:103DE00080B500AF41F22C73C2F200031B68DB68A0
:103DF0001846FFF72BFEFFF741FE80BD80B500AFF0
:103E000041F22C73C2F200031B681B681846FFF7CF
:103E10001DFEFFF733FE80BD90B58DB002AF786018
:103E20000B46FB7041F21863C2F200031B7F002BAC
:103E300016D0FB780C2B03D0FB781C2B40F0568659
:103E40004FF001004FF00001FDF7BAFC4FF0040005
:103E50004FF001014FF00002FCF74EFF00F046BEAC
:103E60007B681B7C03F1FF33072B00F23F8601A226
:103E700052F823F0953E0008F9440008DB4500089D
:103E8000BF4600089B4700086B4800083B490008F4
:103E90000B4A0008FB78A3F10B03242B00F21983D3
:103EA00001A252F823F000BFC3420008D344000827
:103EB000D3440008D3440008D3440008D344000886
:103EC000D3440008D3440008D3440008D344000876
:103ED000D3440008D3440008D3440008D344000866
:103EE000D34400083D3F000863440008533F0008E6
:103EF000C7430008C13F0008F7430008D344000847
:103F0000D3440008D3440008D3440008D344000835
:103F1000D3440008D3440008D3440008D344000825
:103F2000D3440008D3440008D3440008D344000815
:103F300027440008D344000845440008FFF750FF19
:103F40004FF004004FF001014FF00002FCF7D4FEE7
:103F5000D1E241F21470C2F2000000F053FF41F2CE
:103F60001863C2F200035B7F022B19D141F2186380
:103F7000C2F200039B7FA3F10203042B0FD801A21E
:103F800052F823F09F3F00089F3F0008993F000828
:103F90009F3F00089F3F0008FDF714FD00E000BFB1
:103FA00041F21863C2F200034FF000025A774FF05B
:103FB00000004FF001014FF00002FCF79DFE9AE275
:103FC0004FF00003BB8241F21473C2F200035B7A2C
:103FD0002B2B05D02D2B7ED0202B00F0F0806FE115
:103FE00007F1140341F21470C2F2000019464EF6B4
:103FF0009002CFF6FF7241F2707300F0AFFF0346FC
:10400000002B5FD141F21863C2F200035B681846CF
:10401000FDF758FD03461A46BB8A1BB2D21841F27F
:1040200070739A4210DD4FF002004FF001014FF023
:104030000002FCF761FE4FF001004FF0FF014FF06E
:104040000202FDF70BFF3BE141F21863C2F20003ED
:104050001B68DB8B1A46BB8A1BB29A4210DB4FF0FF
:1040600002004FF001014FF00002FCF745FE4FF057
:1040700001004FF0FF014FF00202FDF7EFFE1FE1DC
:10408000BB8A1BB24FF001001946FDF74FF90346FA
:10409000002B0ED04FF006004FF00001FDF790FB13
:1040A0004FF002004FF001014FF00002FCF724FE38
:1040B00010E04FF000004FF001014FF00002FCF75C
:1040C0001BFE07E04FF002004FF001014FF000022D
:1040D000FCF712FEF4E007F1140341F21470C2F28F
:1040E000000019464EF69002CFF6FF7241F270734F
:1040F00000F034FF0346002B58D141F21863C2F29E
:1041000000035B681846FDF7DDFC03469BB21AB25C
:10411000BB8A1BB2D318002B10DA4FF002004FF00D
:1041200001014FF00002FCF7E7FD4FF001004FF0F6
:10413000FF014FF00202FDF791FEC1E041F218636A
:10414000C2F200031B689B8B1A46BB8A1BB2C3F1E9
:1041500000039A4210DB4FF002004FF001014FF0D4
:104160000002FCF7C9FD4FF001004FF0FF014FF0D6
:104170000202FDF773FEA3E0BB8A1BB24FF0020000
:104180001946FDF7D3F80346002B06D04FF0060082
:104190004FF00001FDF714FB10E04FF000004FF06E
:1041A00001014FF00002FCF7A7FD07E04FF002000D
:1041B0004FF001014FF00002FCF79EFD80E007F197
:1041C000140341F21470C2F2000019464EF6900238
:1041D000CFF6FF7241F2707300F0C0FE0346002B71
:1041E00065D1BB8A9CB241F21863C2F200035B68DE
:1041F0001846FDF767FC0346E31A9BB2FB84B7F948
:104200002630002B1BDB41F21863C2F200031B684F
:10421000DB8B1A46B7F926309A422EDB4FF00200AC
:104220004FF001014FF00002FCF766FD4FF0010076
:104230004FF0FF014FF00202FDF710FE40E041F2A7
:104240001863C2F200031B689B8B1A46B7F926302D
:10425000C3F100039A4210DB4FF002004FF001015E
:104260004FF00002FCF748FD4FF001004FF0FF0156
:104270004FF00202FDF7F2FD22E0BB8A1BB24FF0C5
:1042800003001946FDF752F80346002B06D04FF005
:1042900006004FF00001FDF793FA10E04FF0000028
:1042A0004FF001014FF00002FCF726FD07E04FF050
:1042B00002004FF001014FF00002FCF71DFD00BFAE
:1042C00019E141F21863C2F200031B7D002B02D0FA
:1042D000012B4BD06EE041F21863C2F200031B6861
:1042E0001B8B1846FDF72AFC386241F21863C2F2B4
:1042F00000035A683B6A9A4208D34FF002004FF01D
:1043000001014FF00002FCF7F7FC2EE041F21863C8
:10431000C2F200034FF001021A7541F21863C2F2B3
:1043200000035A6841F21863C2F200039A61386AC6
:10433000FCF70CFF0346002B0FD04FF002004FF0AC
:1043400001014FF00002FCF7D7FC41F21863C2F202
:1043500000034FF000021A7507E04FF000004FF025
:1043600001014FF00002FCF7C7FC2BE041F218639B
:10437000C2F200034FF000021A7541F21863C2F254
:1043800000039B691846FCF7E1FE0346002B08D0AA
:104390004FF002004FF001014FF00002FCF7ACFCBF
:1043A00007E04FF000004FF001014FF00002FCF772
:1043B000A3FC07E041F21863C2F200034FF00002D1
:1043C0001A7500BF97E041F21863C2F20003DB7F69
:1043D000012B0FD04FF00100FDF79AF94FF00100CB
:1043E000FDF7BEF94FF000004FF001014FF0000261
:1043F000FCF782FC7FE041F21863C2F20003DB7F2E
:10440000022B0FD04FF00100FDF782F94FF00000B2
:10441000FDF7A6F94FF000004FF001014FF0000248
:10442000FCF76AFC67E04FF007004FF00001FDF772
:10443000C7F94FF001004FF001014FF00002FCF707
:104440005BFC58E04FF007004FF00001FDF7B8F9B2
:104450004FF001004FF001014FF00002FCF74CFC5F
:1044600049E041F21863C2F200035B681846FDF7A9
:1044700029FB03467B827A8A41F270739A4217D8ED
:1044800041F21863C2F200031B6803F1180207F13E
:104490001203104619464FF00202FDF7CDFB4FF014
:1044A00001004FF001014FF00002FCF725FC0FE086
:1044B0004FF002004FF001014FF00002FCF71CFC2E
:1044C0004FF001004FF0FF014FF00202FDF7C6FC74
:1044D00011E0FB7841F27072009218464FF0030130
:1044E00041F21472C2F200024EF69003CFF6FF734F
:1044F00000F02CFE00BFF9E2FB781C2B04D01E2B31
:1045000018D00A2B0BD055E0FFF75CFC4FF00400ED
:104510004FF001014FF00002FCF7EEFB5CE0FFF70B
:104520006DFC4FF000004FF001014FF00002FCF76E
:10453000E3FB51E007F1180341F21470C2F20000EE
:1045400019464EF69002CFF6FF7241F2707300F0FA
:1045500005FD0346002B1CD141F21863C2F2000393
:104560005B68FB6141F21863C2F200031B681A46E4
:1045700007F11803104619464FF00802FDF75CFBDF
:104580004FF001004FF001014FF00002FCF7B4FBC7
:104590000FE04FF002004FF001014FF00002FCF776
:1045A000ABFB4FF001004FF0FF014FF00202FDF7AF
:1045B00055FC11E0FB7841F27072009218464FF002
:1045C000010141F21472C2F200024EF69003CFF6DE
:1045D000FF7300F0BBFD00BF88E2FB781C2B04D00A
:1045E0001E2B18D00A2B0BD056E0FFF7EBFB4FF039
:1045F00004004FF001014FF00002FCF77DFB5DE08D
:10460000FFF7FCFB4FF000004FF001014FF00002FC
:10461000FCF772FB52E007F1180341F21470C2F28A
:10462000000019464EF69002CFF6FF7241F2707309
:1046300000F094FC0346002B1DD141F21863C2F236
:1046400000035B68FB6141F21863C2F200031B6860
:1046500003F1080207F11803104619464FF008024B
:10466000FDF7EAFA4FF001004FF001014FF00002B0
:10467000FCF742FB0FE04FF002004FF001014FF05A
:104680000002FCF739FB4FF001004FF0FF014FF043
:104690000202FDF7E3FB11E0FB7841F27072009239
:1046A00018464FF0010141F21472C2F200024EF6B8
:1046B0009003CFF6FF7300F049FD00BF16E2FB78D0
:1046C0001C2B04D01E2B18D00A2B0BD054E0FFF764
:1046D00079FB4FF004004FF001014FF00002FCF7AE
:1046E0000BFB59E0FFF78AFB4FF000004FF0010190
:1046F0004FF00002FCF700FB4EE007F1180341F217
:104700001470C2F2000019464FF0000241F27073BB
:1047100000F024FC0346002B1DD141F21863C2F2C5
:1047200000035B68FB6141F21863C2F200031B687F
:1047300003F1100207F11803104619464FF0080262
:10474000FDF77AFA4FF001004FF001014FF000023F
:10475000FCF7D2FA0FE04FF002004FF001014FF0EA
:104760000002FCF7C9FA4FF001004FF0FF014FF0D3
:104770000202FDF773FB0FE0FB7841F270720092CA
:1047800018464FF0010141F21472C2F200024FF0DC
:10479000000300F0DBFC00BFA8E1FB781C2B04D079
:1047A0001E2B18D00A2B0BD04EE0FFF70BFB4FF05F
:1047B00004004FF001014FF00002FCF79DFA53E0B6
:1047C000FFF71CFB4FF000004FF001014FF000021B
:1047D000FCF792FA48E007F1160341F21470C2F2B6
:1047E000000019464FF0000241F2707300F0B6FB72
:1047F0000346002B17D141F21863C2F200031B6875
:1048000003F1180207F11603104619464FF0020291
:10481000FDF712FA4FF001004FF001014FF00002D6
:10482000FCF76AFA0FE04FF002004FF001014FF081
:104830000002FCF761FA4FF001004FF0FF014FF06A
:104840000202FDF70BFB0FE0FB7841F27072009261
:1048500018464FF0010141F21472C2F200024FF00B
:10486000000300F073FC00BF40E1FB781C2B04D078
:104870001E2B18D00A2B0BD04EE0FFF7A3FA4FF0F7
:1048800004004FF001014FF00002FCF735FA53E04D
:10489000FFF7B4FA4FF000004FF001014FF00002B3
:1048A000FCF72AFA48E007F1160341F21470C2F24D
:1048B000000019464FF0000241F2707300F04EFB09
:1048C0000346002B17D141F21863C2F200031B68A4
:1048D00003F11A0207F11603104619464FF00202BF
:1048E000FDF7AAF94FF001004FF001014FF000026F
:1048F000FCF702FA0FE04FF002004FF001014FF019
:104900000002FCF7F9F94FF001004FF0FF014FF002
:104910000202FDF7A3FA0FE0FB7841F270720092F9
:1049200018464FF0010141F21472C2F200024FF03A
:10493000000300F00BFC00BFD8E0FB781C2B04D078
:104940001E2B18D00A2B0BD04EE0FFF73BFA4FF08E
:1049500004004FF001014FF00002FCF7CDF953E0E5
:10496000FFF74CFA4FF000004FF001014FF000024A
:10497000FCF7C2F948E007F1100341F21470C2F2EB
:10498000000019464FF0000241F2707300F0E6FAA1
:104990000346002B17D141F21863C2F200031B68D3
:1049A00003F11C0207F11003104619464FF00202F2
:1049B000FDF742F94FF001004FF001014FF0000206
:1049C000FCF79AF90FE04FF002004FF001014FF0B1
:1049D0000002FCF791F94FF001004FF0FF014FF09A
:1049E0000202FDF73BFA0FE0FB7841F27072009291
:1049F00018464FF0010141F21472C2F200024FF06A
:104A0000000300F0A3FB00BF70E0FB781C2B04D078
:104A10001E2B21D00A2B0BD057E0FFF7D3F94FF014
:104A200004004FF001014FF00002FCF765F95CE073
:104A300041F22C73C2F2000340F21C02C2F20002E7
:104A40001A60FFF71BF84FF000004FF001014FF024
:104A50000002FCF751F948E007F10E0341F214702F
:104A6000C2F2000019464FF0000241F2707300F0EC
:104A700075FA0346002B17D141F21863C2F2000306
:104A80001B6803F11E0207F10E03104619464FF092
:104A90000202FDF7D1F84FF001004FF001014FF095
:104AA0000002FCF729F920E04FF002004FF001016D
:104AB0004FF00002FCF720F94FF001004FF0FF012A
:104AC0004FF00202FDF7CAF90FE0FB7841F2707275
:104AD000009218464FF0010141F21472C2F2000236
:104AE0004FF0000300F032FB00BF00BF07F12C07BE
:104AF000BD4690BD80B584B000AF78604FF0000334
:104B0000FB73FFF711F941F2D063C2F200031B6897
:104B1000002B27D041F2D063C2F200031B68184675
:104B200001F054FA0346002B1CD041F2D063C2F2CC
:104B300000031A6807F10C03104619464FF00A02E9
:104B40004FF0000301F064F90346002B0AD041F254
:104B50002C73C2F200031A68BB89DBB210461946F7
:104B6000FFF75AF941F23073C2F200031B68002BC1
:104B700025D041F23073C2F200031B68184601F0E1
:104B800025FA0346002B1AD041F23073C2F200031B
:104B90001A6807F10B03104619464FF00A024FF04E
:104BA000000301F035F90346002B08D0FB7A012BF6
:104BB00005D141F21470C2F2000000F023F9FB7B32
:104BC00003F10103FB7341F22C73C2F200031B6873
:104BD0001B7C012B40F01081FB7B092B40F20C81E8
:104BE0004FF00003FB7341F21863C2F200035B7FD6
:104BF000002B40F0D98041F21863C2F200035B68D9
:104C00001846FCF75FFF03469BB21BB2184641F201
:104C10002071C2F200014FF0000241F2707300F007
:104C20000FFA41F22070C2F200004FF0000100F0D4
:104C3000FFF841F21863C2F200031B7F022B29D058
:104C4000032B54D0012B40F0D68041F21863C2F2FE
:104C500000039A6841F21863C2F200035B68D31A3A
:104C60001846FCF703FF03469BB21BB2184641F2FD
:104C70002071C2F200014FF0000241F2707300F0A7
:104C8000DFF941F22070C2F200004FF0010100F0A4
:104C9000CFF8B1E041F21863C2F200035A6841F262
:104CA0001863C2F200039B68D31A1846FCF7DEFEB5
:104CB00003469BB21BB2184641F22071C2F20001BA
:104CC0004FF0000241F2707300F0BAF941F2207324
:104CD000C2F200034FF02D025A7241F22070C2F26C
:104CE00000004FF0010100F0A3F800BF84E041F2A2
:104CF0001863C2F200039A6841F21863C2F200031B
:104D00005B689A4224D341F21863C2F200039A68A6
:104D100041F21863C2F200035B68D31A1846FCF72D
:104D2000A5FE03469BB21BB2184641F22071C2F2A7
:104D300000014FF0000241F2707300F081F941F27E
:104D40002070C2F200004FF0010100F071F853E052
:104D500041F21863C2F200035A6841F21863C2F2CA
:104D600000039B68D31A1846FCF780FE03469BB2EB
:104D70001BB2184641F22071C2F200014FF000024E
:104D800041F2707300F05CF941F22073C2F200034B
:104D90004FF02D025A7241F22070C2F200004FF023
:104DA000010100F045F827E041F21863C2F2000368
:104DB0005B7F022B20D141F21863C2F200039B7F7C
:104DC000022B06D041F21863C2F200039B7F032B33
:104DD00008D14FF0000047F61C11C0F60001FBF7A8
:104DE0002DFA09E04FF0000047F62411C0F600014B
:104DF000FBF724FA00E000BF4FF00A00FDF738FC93
:104E000081E600BF80B582B000AF78607B684FF06C
:104E100000021A727B684FF020025A7278684FF0D5
:104E2000010100F005F807F10807BD4680BD00BF8D
:104E300080B586B000AF78600B46FB7047F63C1239
:104E4000C0F6000207F10C0392E80300186003F1BA
:104E50000403198003F102034FEA11421A704FF064
:104E60000003FB744FF00003FB754FF00003BB75AC
:104E70007B681B7A002B24D17B685B7A2D2B08D1B1
:104E8000FB78184647F62C11C0F60001FBF7D6F95F
:104E900014E07B685B7A2B2B08D1FB78184647F629
:104EA0003411C0F60001FBF7C9F907E0FB7818469A
:104EB00047F63C11C0F60001FBF7C0F94FF00003C4
:104EC00047E07B681B7A042B41D84FF00503BB7584
:104ED0007B681B7A03F1FF33DBB2FB751AE097F9AD
:104EE000163097F9172079688A5C07F11801CB18FA
:104EF00003F80C2CBB7D03F1FF33BB7597F916301B
:104F0000042B03D1BB7D03F1FF33BB75FB7D03F1A4
:104F1000FF33FB7597F91730002BE0DA7B685B7A7B
:104F20002D2B03D14FF02D033B7306E07B685B7A9A
:104F30002B2B02D14FF02E033B73FA7807F10C03B1
:104F400010461946FBF77AF94FF0000301E04FF0E5
:104F50000103184607F11807BD4680BD80B487B02D
:104F600000AFF860B960FA80BB804FF00003FB82AD
:104F70004FF000037B754FF001037B82FB681B7AC7
:104F8000002B06D1BB684FF000021A804FF00003DF
:104F900050E0FB681B7A03F1FF33DBB27B7529E03D
:104FA00097F91530FA68D35C2F2B05D997F915308E
:104FB000FA68D35C392B02D94FF001033AE097F934
:104FC0001530FA68D35CA3F130039BB27A8A02FBF6
:104FD00003F39AB2FB8AD3189BB2FB827B8A1A46F0
:104FE0004FEA8202D3184FEA43037B827B7D03F1B1
:104FF000FF337B7597F91530002BD1DAFB685B7AAC
:105000002D2B03D1FB8AC3F10003FB82BB68FA8A14
:105010001A80B7F91620B7F906309A4205DBB7F9BE
:105020001620B7F904309A4202DD4FF0010301E087
:105030004FF00003184607F11C07BD4680BC7047BF
:1050400080B487B000AFB9600146F981FA80BB80B7
:105050004FF00003FB75B7F90E20B7F904309A4200
:1050600005DCB7F90E20B7F906309A420DDAB7F928
:105070000E20B7F904309A4202DDBB88FB8101E0C3
:10508000FB88FB814FF00103FB75B7F90E30002B55
:1050900008DABB684FF02D025A72FB89C3F1000396
:1050A000FB8103E0BB684FF020025A72BB684FF0EF
:1050B00000021A724FF47A73BB824FF00003FB7444
:1050C00033E0B7F90E20BB8A92FBF3F3BB74BB7CD1
:1050D000092B17D8BB7C002B02D1FB7C002B11D0F5
:1050E000BB681B7ABA7C02F13002D1B2BA68D154E3
:1050F000BB681B7A03F10103DAB2BB681A724FF086
:105100000103FB74B7F90E30BA8A93FBF2F102FB8C
:1051100001F29B1AFB81BA8A4CF6CD43CCF6CC4304
:10512000A3FB02134FEAD303BB82BB8A002BC8D177
:10513000FB7D002B02D04FF0010301E04FF0000394
:10514000184607F11C07BD4680BC704780B586B085
:1051500000AFBA600246FA730A46BA73FB80FB7B63
:10516000092B09D9FB7B0C2B06D0FB7B0D2B03D025
:10517000FB7B0F2B40F05481FB7B0C2B1DD1BB68BC
:105180001B7A002B00F04E81BB681B7A002B06D0E7
:10519000BB681B7A03F1FF33DAB2BB681A72B868D6
:1051A0004FF00101FFF744FE4FF000004FF0010106
:1051B0004FF00002FBF7A0FD3BE1FB7B0D2B02D083
:1051C0000F2B18D02FE0BB7B03F00203002B00F065
:1051D0002B81BB684FF02D025A72B8684FF0010165
:1051E000FFF726FE4FF000004FF001014FF00002E4
:1051F000FBF782FD1DE1BB7B03F00203002B00F0F7
:105200001581BB684FF02B025A72B8684FF001014C
:10521000FFF70EFE4FF000004FF001014FF00002CB
:10522000FBF76AFD05E1BB681B7A032B10D94FF031
:1052300002004FF001014FF00002FBF75DFD4FF05F
:1052400001004FF0FF014FF00202FCF707FEF0E013
:10525000FB7B092B00F2B38001A252F823F000BFC0
:1052600089520008B1520008CF520008ED520008E0
:105270000B530008295300084753000865530008E2
:1052800083530008A1530008BB681B7A002B00F071
:10529000CF80BB681B7ABA684FF03001D1544FF011
:1052A00000004FF001014FF00002FBF725FD87E001
:1052B000BB681B7ABA684FF03101D1544FF000003F
:1052C0004FF001014FF00002FBF716FD78E0BB68DC
:1052D0001B7ABA684FF03201D1544FF000004FF002
:1052E00001014FF00002FBF707FD69E0BB681B7A84
:1052F000BA684FF03301D1544FF000004FF0010174
:105300004FF00002FBF7F8FC5AE0BB681B7ABA6862
:105310004FF03401D1544FF000004FF001014FF035
:105320000002FBF7E9FC4BE0BB681B7ABA684FF060
:105330003501D1544FF000004FF001014FF0000251
:10534000FBF7DAFC3CE0BB681B7ABA684FF0360129
:10535000D1544FF000004FF001014FF00002FBF775
:10536000CBFC2DE0BB681B7ABA684FF03701D154F3
:105370004FF000004FF001014FF00002FBF7BCFCC2
:105380001EE0BB681B7ABA684FF03801D1544FF069
:1053900000004FF001014FF00002FBF7ADFC0FE001
:1053A000BB681B7ABA684FF03901D1544FF0000046
:1053B0004FF001014FF00002FBF79EFC00E000BF40
:1053C000BB681B7A03F10103DAB2BB681A7207F1FA
:1053D0001601B7F90620B7F92030B868FFF7BEFD0F
:1053E0000346012B16D1BB681B7A03F1FF33DAB2F7
:1053F000BB681A724FF002004FF001014FF000023B
:10540000FBF77AFC4FF001004FF0FF014FF0020272
:10541000FCF724FDB8684FF00101FFF709FD08E033
:1054200000BF06E000BF04E000BF02E000BF00E0F4
:1054300000BF07F11807BD4680BD00BF80B487B02C
:1054400000AF786039604FF000037B614FF00003DC
:105450003B614FF00003FB604FF000037B618FE086
:105460007B694FF0010202FA03F33B613B681A6863
:105470003B6902EA0303FB60FA683B699A427BD10D
:105480007B681B681A467B694FEA43034FF00301B0
:1054900001FA03F36FEA03031A407B681A607B6822
:1054A0001B681A463B681B7919467B694FEA430320
:1054B00001FA03F31A437B681A603B681B79012BDE
:1054C00003D03B681B79022B38D17B689B681A4656
:1054D0007B694FEA43034FF0030101FA03F36FEADC
:1054E00003031A407B689A607B689B681A463B6896
:1054F0005B7919467B694FEA430301FA03F31A43C8
:105500007B689A607B685B681A467B699BB24FF048
:10551000010101FA03F36FEA03031A407B685A6042
:105520007B685B681A463B689B7919467B699BB22E
:1055300001FA03F39BB21A437B685A607B68DB680D
:105540001A467B699BB24FEA43034FF0030101FA0D
:1055500003F36FEA03031A407B68DA607B68DB6859
:105560001A463B68DB7919467B694FEA430301FA27
:1055700003F31A437B68DA607B6903F101037B6103
:105580007B690F2B7FF66CAF07F11C07BD4680BC13
:10559000704700BF80B485B000AF78600B467B8059
:1055A0004FF00003FB737B681B691A467B8802EA95
:1055B0000303002B03D04FF00103FB7302E04FF015
:1055C0000003FB73FB7B184607F11407BD4680BC44
:1055D000704700BF80B485B000AF786013460A46BC
:1055E0007A807B704FF00003FB604FF00003BB60DC
:1055F0007A787B8803F007034FEA830302FA03F308
:10560000FB607B884FEAD3039BB21A467B884FEA44
:10561000D3039BB219467B6801F1080153F821308E
:1056200019467B8803F007034FEA83034FF00F000E
:1056300000FA03F36FEA030319407B6802F10802E2
:1056400043F822107B884FEAD3039BB21A467B684B
:1056500002F1080253F822301A46FB6842EA0303BB
:10566000BB607B884FEAD3039BB21A467B6802F18A
:105670000802B96843F8221007F11407BD4680BC40
:10568000704700BF80B483B000AF78607B6803F1DF
:1056900008031A467B685A607B684FF0FF329A60B5
:1056A0007B6803F108031A467B68DA607B6803F1C4
:1056B00008031A467B681A617B684FF000021A6083
:1056C00007F10C07BD4680BC704700BF80B483B0B3
:1056D00000AF78607B684FF000021A6107F10C0799
:1056E000BD4680BC704700BF80B485B000AF786015
:1056F00039607B685B68FB60FB685B681A463B68E7
:105700005A607B685A683B689A60FB685B683A68D5
:105710009A603A68FB685A603A687B685A603B68EE
:105720007A681A617B681B6803F101027B681A6062
:1057300007F11407BD4680BC704700BF80B485B038
:1057400000AF786039603B681B68BB60BB68B3F131
:10575000FF3F03D17B681B69FB600EE07B6803F1B0
:105760000803FB6002E0FB685B68FB60FB685B684A
:105770001B681A46BB689A42F5D9FB685B681A46F3
:105780003B685A603B685B683A689A603B68FA68B5
:105790009A603A68FB685A603B687A681A617B686D
:1057A0001B6803F101027B681A6007F11407BD460C
:1057B00080BC704780B485B000AF78607B685B6860
:1057C0007A6892689A607B689B687A6852685A60C7
:1057D0007B681B69FB60FB685A687B689A4203D14F
:1057E0007B689A68FB685A607B684FF000021A6118
:1057F000FB681B6803F1FF32FB681A6007F11407AE
:10580000BD4680BC704700BF80B500AF4FF4605309
:10581000C4F202034FF46052C4F20202126842F072
:1058200001021A604FF46053C4F202034FF0000209
:105830009A604FF46053C4F202034FF46052C4F212
:105840000202126822F0847222F480321A604FF44D
:105850006053C4F2020343F21002C2F200425A60E3
:105860004FF46053C4F202034FF46052C4F20202D8
:10587000126822F480221A604FF46053C4F20203CB
:105880004FF00002DA6000F009F84FF46D43CEF2F9
:1058900000034FF000629A6080BD00BF80B483B007
:1058A00000AF4FF000037B604FF000033B604FF40C
:1058B0006053C4F202034FF46052C4F20202126851
:1058C00042F480321A604FF46053C4F202031B6842
:1058D00003F400333B607B6803F101037B603B68AA
:1058E000002B03D17B68B3F5A06FECD14FF460536C
:1058F000C4F202031B6803F40033002B03D04FF003
:1059000001033B6002E04FF000033B603B68012B6A
:1059100069D14FF46053C4F202034FF46052C4F2F1
:10592000020292689A604FF46053C4F202034FF48B
:105930006052C4F20202926842F400429A604FF44C
:105940006053C4F202034FF46052C4F20202926840
:1059500042F4A0529A604FF46053C4F2020343F23F
:105960000402C0F643025A604FF46053C4F20203CB
:105970004FF46052C4F20202126842F080721A6060
:1059800000BF4FF46053C4F202031B6803F00073BE
:10599000002BF6D04FF47053C4F2020340F20172B0
:1059A0001A604FF46053C4F202034FF46052C4F221
:1059B0000202926822F003029A604FF46053C4F22C
:1059C00002034FF46052C4F20202926842F00202F3
:1059D0009A6000BF4FF46053C4F202039B6803F067
:1059E0000C03082BF6D107F10C07BD4680BC7047AD
:1059F00080B582B000AF786039607B68002B04D13D
:105A00004FF0500080F31188FEE700F095FC7B68B2
:105A10001A687B68DB6B7968096C01FB03F3D218A9
:105A20007B685A607B684FF000029A637B681A6853
:105A30007B689A607B681A687B68DB6B03F1FF33D5
:105A40007968096C01FB03F3D2187B68DA607B6824
:105A50004FF0FF325A647B684FF0FF329A643B6824
:105A6000002B0FD17B681B69002B17D07B6803F1DB
:105A700010031846FDF774FA0346012B0ED100F00F
:105A80004FFC0BE07B6803F110031846FFF7FAFDAB
:105A90007B6803F124031846FFF7F4FD00F062FC75
:105AA0004FF00103184607F10807BD4680BD00BF4F
:105AB00080B588B000AFF860B9601346FB714FF055
:105AC0000003FB61FB68002B2BD04FF04C0001F072
:105AD00095F90346BB61BB69002B22D0FB68BA680D
