:020000040800F2
:100000000428002049340008C1340008C134000825
:10001000C1340008C1340008C134000800000000E9
:1000200000000000000000000000000081600008E7
:10003000C1340008000000009D610008ED61000867
:10004000C1340008896E0008C1340008C1340008BA
:10005000C1340008C1340008C1340008C1340008AC
:10006000C1340008C1340008C1340008C13400089C
:10007000C1340008C1340008C1340008C13400088C
:10008000C1340008C1340008C1340008C13400087C
:10009000C1340008C1340008C1340008C13400086C
:1000A000C134000899400008C1340008C134000878
:1000B000C134000825400008C1340008C1340008DC
:1000C000C1340008C1340008C1340008C13400083C
:1000D000C1340008C1340008C134000841190008C7
:1000E000C1340008C1340008C1340008C13400081C
:1000F000C1340008C1340008C1340008C13400080C
:10010000C1340008C1340008C1340008C1340008FB
:10011000C1340008C1340008C1340008C1340008EB
:10012000C1340008C1340008C1340008C1340008DB
:10013000C1340008C1340008C1340008C1340008CB
:10014000C1340008C1340008C1340008C1340008BB
:10015000C1340008C1340008C1340008C1340008AB
:10016000C1340008C1340008C1340008C13400089B
:10017000C1340008C1340008C1340008C13400088B
:10018000C1340008C134000890B58DB000AF78606C
:100190004FF0000387F82F304FF0000387F82E3020
:1001A0004FF0000387F82D304FF0000387F82A3016
:1001B0004FF0000387F82C304FF0000387F82B3006
:1001C00007F108034FF000021A6003F104034FF037
:1001D00000021A6003F104034FF000021A6003F1F9
:1001E00004034FF000021A6003F104034FF0000211
:1001F0001A6003F104034FF000021A6003F10403D4
:100200004FF000021A6003F104034FF000021A607D
:1002100003F104037B681B783A2B40F0A8847B68C9
:1002200003F101031B7887F82A3097F82A30962BC0
:1002300000F29F844FF0000387F82F3017E097F803
:100240002F1041F6AC52C2F200020B464FEA4303B4
:100250005B184FEAC303D31803F148034FF00002C1
:100260009A7097F82F3003F1010387F82F3097F831
:100270002F30012BE3D905F05FFF4FF0020387F821
:100280002F3036E197F82F307A68D3181B785B2B24
:1002900002D05D2B05D04EE04FF0010387F82D30E2
:1002A00021E197F82C1041F6AC52C2F200020B4645
:1002B0004FEA43035B184FEAC303D31803F13C032F
:1002C0001B88012B1AD197F82B3007F13001CB187E
:1002D0004FF0000203F8282C97F82C2013464FEA21
:1002E00043039B184FEAC3031A46884BD21807F101
:1002F00008031046194600F041FC13E097F82C2043
:1003000013464FEA43039B184FEAC3031A467F4B39
:10031000D11807F1080297F82B30084611461A4603
:1003200000F0F2FF4FF0000387F82D304FF000038C
:1003300087F82B30D7E097F82D30012B40F0D38091
:1003400097F82F3003F1FF337A68D3181B785B2BB3
:1003500040F0B58097F82F307A68D3181B782A2B95
:1003600040F08F804FF0000387F82E307AE097F846
:100370002E1097F82F3003F101037A68D3181B78F9
:1003800003F00F039BB243F420639BB298B241F693
:10039000AC52C2F200020B464FEA43035B184FEA2D
:1003A000C303D31803F1400302461A8097F82E10B6
:1003B00041F6AC52C2F200020B464FEA43035B180F
:1003C0004FEAC303D31803F138031B88012B43D82A
:1003D00097F82E1041F6AC52C2F200020B464FEADB
:1003E00043035B184FEAC303D31803F13A031B8896
:1003F000194697F82E0041F6AC52C2F200020346AD
:100400004FEA43031B184FEAC303D31803F1380321
:100410001B881C4697F82E0041F6AC52C2F200022F
:1004200003464FEA43031B184FEAC303D31803F1F3
:100430004003188841F6AC52C2F200020B464FEA64
:10044000C3035B1A4FEA83031B1903F127034FEA27
:100450004303D31802465A8097F82E3003F1010364
:1004600087F82E3097F82E30012B80D997F82F304F
:1004700003F1020387F82F304FF0000387F82D3087
:1004800031E097F82F307A68D3181B7887F82C3032
:1004900097F82C30012B25D897F82C1041F6AC5248
:1004A000C2F200020B464FEA43035B184FEAC30354
:1004B000D31803F148034FF001029A7013E097F844
:1004C0002B3097F82F2079688A18127807F13001BD
:1004D000CB1803F8282C97F82B3003F1010387F889
:1004E0002B3000E000BF97F82F3003F1010387F8AD
:1004F0002F3097F82F2097F82A309A42FFF4C2AE97
:100500004FF0000387F82F3028E300BFE41D0020E0
:1005100097F82F1041F6AC52C2F200020B464FEA98
:1005200043035B184FEAC303D31803F148039B78D6
:10053000002B40F00D8397F82F1041F6AC52C2F219
:1005400000020B464FEA43035B184FEAC303D3187C
:1005500003F138031B88012B00F2FA8297F82F1061
:1005600041F6AC52C2F200020B464FEA43035B185D
:100570004FEAC303D31803F13A031B88194697F8CF
:100580002F0041F6AC52C2F2000203464FEA430389
:100590001B184FEAC303D31803F138031B881C460A
:1005A00097F82F0041F6AC52C2F2000203464FEA20
:1005B00043031B184FEAC303D31803F146031888FB
:1005C00041F6AC52C2F200020B464FEAC3035B1A7B
:1005D0004FEA83031B194FEA4303D31802465A809C
:1005E00097F82F1041F6AC52C2F200020B464FEAC8
:1005F00043035B184FEAC303D31803F13A031B8884
:10060000194697F82F0041F6AC52C2F20002034699
:100610004FEA43031B184FEAC303D31803F138030F
:100620001B881C4697F82F0041F6AC52C2F200021C
:1006300003464FEA43031B184FEAC303D31803F1E1
:100640004803188841F6AC52C2F200020B464FEA4A
:10065000C3035B1A4FEA83031B1903F10D034FEA2F
:100660004303D31802465A8097F82F1041F6AC5234
:10067000C2F200020B464FEA43035B184FEAC30382
:10068000D31803F13A031B88194697F82F0041F657
:10069000AC52C2F2000203464FEA43031B184FEA72
:1006A000C303D31803F138031B881C4697F82F00A7
:1006B00041F6AC52C2F2000203464FEA43031B1854
:1006C0004FEAC303D31803F14403188841F6AC5230
:1006D000C2F200020B464FEAC3035B1A4FEA8303E0
:1006E0001B1903F11A034FEA4303D31802465A8039
:1006F00097F82F1041F6AC52C2F200020B464FEAB7
:1007000043035B184FEAC303D31803F13A031B8872
:10071000194697F82F0041F6AC52C2F20002034688
:100720004FEA43031B184FEAC303D31803F13803FE
:100730001B881C4697F82F0041F6AC52C2F200020B
:1007400003464FEA43031B184FEAC303D31803F1D0
:100750004003188841F6AC52C2F200020B464FEA41
:10076000C3035B1A4FEA83031B1903F127034FEA04
:100770004303D31802465A8097F82F1041F6AC5223
:10078000C2F200020B464FEA43035B184FEAC30371
:10079000D31803F13A031B88194697F82F0041F646
:1007A000AC52C2F2000203464FEA43031B184FEA61
:1007B000C303D31803F138031B881C4697F82F0096
:1007C00041F6AC52C2F2000203464FEA43031B1843
:1007D0004FEAC303D31803F14203188841F6AC5221
:1007E000C2F200020B464FEAC3035B1A4FEA8303CF
:1007F0001B1903F134034FEA4303D31802465A800E
:1008000097F82F1041F6AC52C2F200020B464FEAA5
:1008100043035B184FEAC303D31803F13A031B8861
:10082000194697F82F0041F6AC52C2F20002034677
:100830004FEA43031B184FEAC303D31803F13803ED
:100840001B88184641F6AC52C2F200020B464FEA32
:10085000C3035B1A4FEA83031B1803F141034FEAFA
:100860004303D3184FF480725A8097F82F1041F643
:10087000AC52C2F200020B464FEA43035B184FEA48
:10088000C303D31803F13A031B88194697F82F00C6
:1008900041F6AC52C2F2000203464FEA43031B1872
:1008A0004FEAC303D31803F138031B88184641F6F7
:1008B000AC52C2F200020B464FEAC3035B1A4FEA86
:1008C00083031B1803F14E034FEA4303D3184FF47D
:1008D00000725A8097F82F1041F6AC52C2F2000213
:1008E0000B464FEA43035B184FEAC303D31803F1E7
:1008F0003A031B88194697F82F0041F6AC52C2F212
:10090000000203464FEA43031B184FEAC303D31800
:1009100003F138031B88184641F6AC52C2F20002BC
:100920000B464FEAC3035B1A4FEA83031B1803F11C
:100930005B034FEA4303D3184FF440725A8097F891
:100940002F1041F6AC52C2F200020B464FEA4303AD
:100950005B184FEAC303D31803F13A031B88194607
:1009600097F82F0041F6AC52C2F2000203464FEA5C
:1009700043031B184FEAC303D31803F138031B8842
:10098000184641F6AC52C2F200020B464FEAC303CE
:100990005B1A4FEA83031B1803F168034FEA430312
:1009A000D3184FF480625A8097F82F1041F6AC525A
:1009B000C2F200020B464FEA43035B184FEAC3033F
:1009C000D31803F13A031B88194697F82F0041F614
:1009D000AC52C2F2000203464FEA43031B184FEA2F
:1009E000C303D31803F138031B88184641F6AC52F1
:1009F000C2F200020B464FEAC3035B1A4FEA8303BD
:100A00001B1803F175034FEA4303D3184FF4A06298
:100A10005A8097F82F1041F6AC52C2F200020B46F2
:100A20004FEA43035B184FEAC303D31803F13A03B9
:100A30001B88194697F82F0041F6AC52C2F200020B
:100A400003464FEA43031B184FEAC303D31803F1CD
:100A500038031B88184641F6AC52C2F200020B461E
:100A60004FEAC3035B1A4FEA83031B1803F18203A7
:100A70004FEA4303D3184FF4C0625A8097F82F10FF
:100A800041F6AC52C2F200020B464FEA43035B1838
:100A90004FEAC303D31803F13A031B88194697F8AA
:100AA0002F0041F6AC52C2F2000203464FEA430364
:100AB0001B184FEAC303D31803F138031B881846E9
:100AC00041F6AC52C2F200020B464FEAC3035B1A76
:100AD0004FEA83031B1803F18F034FEA4303D31834
:100AE0004FF4E0625A8097F82F1041F6AC52C2F2F0
:100AF00000020B464FEA43035B184FEAC303D318C7
:100B000003F13A031B88194697F82F0041F6AC52BF
:100B1000C2F2000203464FEA43031B184FEAC30325
:100B2000D31803F138031B88184641F6AC52C2F2C1
:100B300000020B464FEAC3035B1A4FEA83031B18FC
:100B400003F19C034FEA4303D3184FF400625A8029
:100B500097F82F3003F1010387F82F3097F82F30E3
:100B6000012B7FF6D5AC05F0FDFA00BF02E000BF17
:100B700000E000BF07F13407BD4690BDF0B585B079
:100B800000AF786039604FF00003FB734FF0000353
:100B9000BB734FF000037B734FF000033B737B6824
:100BA0001B88022B02D94FF00003A8E3386806F037
:100BB000A9FA03463B737B685B8819467B681B88F0
:100BC0001C467B68D88941F6AC52C2F200020B4643
:100BD0004FEAC3035B1A4FEA83031B194FEA43032F
:100BE000D31802465A807B685B8819467B681B884D
:100BF0001C467B68188A41F6AC52C2F200020B46D2
:100C00004FEAC3035B1A4FEA83031B1903F10D0379
:100C10004FEA4303D31802465A807B685B88194623
:100C20007B681B881C467B68988941F6AC52C2F2EF
:100C300000020B464FEAC3035B1A4FEA83031B19FA
:100C400003F11A034FEA4303D31802465A807B6824
:100C50005B8819467B681B881C467B68188941F6AF
:100C6000AC52C2F200020B464FEAC3035B1A4FEAD2
:100C700083031B1903F127034FEA4303D3180246EA
:100C80005A807B685B8819467B681B881C467B689A
:100C9000588941F6AC52C2F200020B464FEAC30338
:100CA0005B1A4FEA83031B1903F134034FEA430332
:100CB000D31802465A807B685B8819467B681B887C
:100CC000184641F6AC52C2F200020B464FEAC3038B
:100CD0005B1A4FEA83031B1803F141034FEA4303F6
:100CE000D3184FF480725A807B685B8819467B6802
:100CF0001B88184641F6AC52C2F200020B464FEA7E
:100D0000C3035B1A4FEA83031B1803F14E034FEA38
:100D10004303D3184FF400725A807B685B881946EE
:100D20007B681B88184641F6AC52C2F200020B46A3
:100D30004FEAC3035B1A4FEA83031B1803F15B03FB
:100D40004FEA4303D3184FF440725A807B685B88A4
:100D500019467B681B88184641F6AC52C2F2000265
:100D60000B464FEAC3035B1A4FEA83031B1803F1D8
:100D700068034FEA4303D3184FF480625A807B68BC
:100D80005B8819467B681B88184641F6AC52C2F254
:100D900000020B464FEAC3035B1A4FEA83031B189A
:100DA00003F175034FEA4303D3184FF4A0625A804E
:100DB0007B685B8819467B681B88184641F6AC52F5
:100DC000C2F200020B464FEAC3035B1A4FEA8303E9
:100DD0001B1803F182034FEA4303D3184FF4C06298
:100DE0005A807B685B8819467B681B88184641F6E9
:100DF000AC52C2F200020B464FEAC3035B1A4FEA41
:100E000083031B1803F18F034FEA4303D3184FF4F6
:100E1000E0625A807B685B8819467B681B881846AD
:100E200041F6AC52C2F200020B464FEAC3035B1A12
:100E30004FEA83031B1803F19C034FEA4303D318C3
:100E40004FF400625A807B7B03F105037B7397F9B3
:100E50000C300A2B02DD4FF00A033B733B7B03F19E
:100E6000FF33DBB2FB7342E297F90F303A68D318D5
:100E70001B782F2B40F2A38097F90F303A68D318D4
:100E80001B78392B00F29B8097F90F303A68D31802
:100E90001B78A3F1300247F2E013C0F600039B1861
:100EA000DB7FFB72FB7A23F06003FB7297F90F3054
:100EB0003A68D3181B78A3F1300247F2E013C0F66A
:100EC00000039B18DB7F4FEA4313DBB203F06003A0
:100ED000DAB2FB7A42EA0303DBB2FB72FB7A23F05D
:100EE0000303FB7297F90F303A68D3181B78A3F10C
:100EF000300247F2E013C0F600039B18DB7F4FEA95
:100F00005313DBB2DBB203F00303DAB2FB7A42EA3B
:100F10000303DBB2FB727B685B881C46787B7B68D3
:100F20001B881E467B685B881D467A7B7B681B8816
:100F30009C4641F6AC51C2F2000113464FEA43030E
:100F40009B184FEA83039B182A464FEAC202521BA2
:100F50004FEA82029B1863444FEA4303CB185B8835
:100F60009AB2FB7A99B27B7BA3F104039BB24FEA5E
:100F700003239BB29BB241EA03039BB242EA030301
:100F80009BB29DB241F6AC51C2F2000103464FEA5A
:100F900043031B184FEA83031B1822464FEAC20281
:100FA000121B4FEA82029B189B194FEA4303CB188E
:100FB0002A465A807B7B03F101037B7393E197F907
:100FC0000F303A68D3181B782E2B40F0DD8097F94C
:100FD0000F2097F90C3003F1FF339A4280F293808F
:100FE00097F90F3003F101033A68D3181B782E2BC1
:100FF00048D17B685B881C467B7B03F101007B68E2
:101000001B881E467B685B881D467B7B03F10102C3
:101010007B681B889C4641F6AC51C2F20001134626
:101020004FEA43039B184FEA83039B182A464FEA73
:10103000C202521B4FEA82029B1863444FEA4303E9
:10104000CB185B8843F080039DB241F6AC51C2F2ED
:10105000000103464FEA43031B184FEA83031B18A2
:1010600022464FEAC202121B4FEA82029B189B19CA
:101070004FEA4303CB182A465A807B7B03F10103D6
:101080007B7330E17B685B881C46787B7B681B88C0
:101090001E467B685B881D467A7B7B681B889C4666
:1010A00041F6AC51C2F2000113464FEA43039B18CC
:1010B0004FEA83039B182A464FEAC202521B4FEAAB
:1010C00082029B1863444FEA4303CB185B8843F0CA
:1010D00080039DB241F6AC51C2F2000103464FEAD3
:1010E00043031B184FEA83031B1822464FEAC20230
:1010F000121B4FEA82029B189B194FEA4303CB183D
:101100002A465A80EFE07B685B881C46787B7B68C8
:101110001B881E467B685B881D467A7B7B681B8824
:101120009C4641F6AC51C2F2000113464FEA43031C
:101130009B184FEA83039B182A464FEAC202521BB0
:101140004FEA82029B1863444FEA4303CB185B8843
:1011500043F080039DB241F6AC51C2F20001034658
:101160004FEA43031B184FEA83031B1822464FEA3A
:10117000C202121B4FEA82029B189B194FEA4303DB
:10118000CB182A465A80AEE04FF00A03BB739EE0AC
:1011900097F90F303A68D3181A7897F90E1047F27A
:1011A000E013C0F600035B5C9A4240F08C8097F934
:1011B0000E2047F2E013C0F600039B18DB7FBB72E2
:1011C000BB7A23F06003BB7297F90E2047F2E0135D
:1011D000C0F600039B18DB7F4FEA4313DBB203F03A
:1011E0006003DAB2BB7A42EA0303DBB2BB72BB7ABA
:1011F00023F00303BB7297F90E2047F2E013C0F609
:1012000000039B18DB7F4FEA5313DBB2DBB203F022
:101210000303DAB2BB7A42EA0303DBB2BB727B6838
:101220005B881C46787B7B681B881E467B685B88D6
:101230001D467A7B7B681B889C4641F6AC51C2F206
:10124000000113464FEA43039B184FEA83039B18A0
:101250002A464FEAC202521B4FEA82029B1863449D
:101260004FEA4303CB185B889AB2BB7A99B27B7B77
:10127000A3F104039BB24FEA03239BB29BB241EA62
:1012800003039BB242EA03039BB29DB241F6AC5109
:10129000C2F2000103464FEA43031B184FEA8303DF
:1012A0001B1822464FEAC202121B4FEA82029B1809
:1012B0009B194FEA4303CB182A465A807B7B03F1E4
:1012C00001037B7308E0BB7B03F10103BB7397F958
:1012D0000E301E2B7FF75CAF7A7B7B68DB8803F1D7
:1012E00005039A4209DCFB7B03F1FF33FB7397F99B
:1012F0000F30002BBFF6B8AD00E000BF7B7B184677
:1013000007F11407BD46F0BD80B487B000AFF860A8
:10131000B9601346FB714FF00003FB75FB681B8837
:10132000022B68D8BB681A78FB681A75BB6803F192
:1013300001031A78FB685A75BB6803F102031A7837
:10134000FB689A75BB6803F103031A78FB68DA75CA
:10135000FB79042B51D1FB685B7D1F2B07D9FB6800
:101360005B7DFF2B03D0FB684FF01F025A75FB68B3
:101370009B7D1F2B07D9FB689B7DFF2B03D0FB6850
:101380004FF01F029A75FB68DB7D1F2B07D9FB68A6
:10139000DB7DFF2B03D0FB684FF01F02DA75FB6883
:1013A0001B7D022B03D9FB684FF002021A75FB6804
:1013B0001B7D012B0CD0022B13D0002B1ED1FB6800
:1013C0004FF00002DA74FB684FF000021A7515E066
:1013D000FB684FF00102DA74FB684FF000021A75E7
:1013E0000CE0FB684FF00002DA74FB684FF001027A
:1013F0001A7500BF02E000BF00E000BF07F11C0744
:10140000BD4680BC704700BF80B58AB000AF786031
:1014100039604FF000037B624FF000033B624FF0F6
:101420000003FB614FF00003BB617B681B8A9BB22A
:101430007B627B6A23F440537B623B68DB887A6A79
:1014400042EA03037B627B6A9AB27B681A827B68FA
:101450009B899BB27B627B6A23F4B05323F00C031D
:101460007B623B689A883B681B8942EA03039AB215
:101470003B685B8942EA03039BB27A6A42EA030350
:101480007B627B6A9AB27B689A817B689B8A9BB2FB
:101490007B627B6A23F440737B623B689B897A6A38
:1014A00042EA03037B627B6A9AB27B689A8207F105
:1014B0000803184602F090F87A684FF48053C4F29B
:1014C00001039A4206D07A684FF4A053C4F2010394
:1014D0009A4202D17B693B6201E03B693B627B68D7
:1014E0009B899BB29BB21BB2002B0FDA3A6A134660
:1014F0004FEA83039B184FEA83029A183B681B68E4
:101500004FEA4303B2FBF3F3FB610EE03A6A134682
:101510004FEA83039B184FEA83029A183B681B68C3
:101520004FEA8303B2FBF3F3FB61FA6948F21F53FE
:10153000C5F2EB13A3FB02134FEA53134FEA031355
:101540007B627B6A4FEA13134FF0640202FB03F3E2
:10155000FA69D31ABB617B689B899BB29BB21BB2B1
:10156000002B13DABB694FEAC30303F1320248F2DE
:101570001F53C5F2EB13A3FB02134FEA531303F0FF
:1015800007037A6A42EA03037B6212E0BB694FEA0F
:10159000031303F1320248F21F53C5F2EB13A3FB0E
:1015A00002134FEA531303F00F037A6A42EA03036C
:1015B0007B627B6A9AB27B681A8107F12807BD4675
:1015C00080BD00BF80B483B000AF78600B46FB7075
:1015D000FB78002B08D07B689B899BB243F40053B7
:1015E0009AB27B689A8107E07B689B899BB223F45F
:1015F00000539AB27B689A8107F10C07BD4680BC04
:10160000704700BF80B487B000AF786013460A46C9
:101610007A807B704FF000033B614FF00003FB606A
:101620004FF00003BB604FF000037B617B687B6180
:101630007B88DBB24FEA5313DBB23B617B8803F05C
:101640001F03FB60FB684FF0010202FA03F3BB606B
:101650003B69012B04D17B6903F10C037B610BE037
:101660003B69022B04D17B6903F110037B6103E02A
:101670007B6903F114037B617B78002B07D07B69C6
:101680007A691168BA6841EA02021A6008E07B6967
:101690007A691168BA686FEA020201EA02021A6006
:1016A00007F11C07BD4680BC704700BF80B483B003
:1016B00000AF78600B467B807B886FEA03039AB2A9
:1016C0007B681A8007F10C07BD4680BC704700BFDD
:1016D00080B487B000AF78600B467B804FF000038A
:1016E000FB604FF000037B614FF00003BB604FF0E5
:1016F0000003FB747B88DBB24FEA5313DBB2BB60A1
:101700007B8803F01F037B617B694FF0010202FAC3
:1017100003F37B61BB68012B07D17B689B899BB27C
:101720007A6902EA03037B6111E0BB68022B07D1EF
:101730007B681B8A9BB27A6902EA03037B6106E03D
:101740007B689B8A9BB27A6902EA03037B617B8890
:101750004FEA13239BB2FB60FB684FF0010202FAD1
:1017600003F3FB607B681B889BB2FA6802EA030301
:10177000FB607B69002B06D0FB68002B03D04FF089
:101780000103FB7402E04FF00003FB74FB7C18467E
:1017900007F11C07BD4680BC704700BF80B485B010
:1017A00000AF78600B467B804FF00003FB814FF069
:1017B0000003BB817B884FEA1323FB81FB894FF039
:1017C000010202FA03F3BB81BB896FEA03039AB2F9
:1017D0007B681A8007F11407BD4680BC704700BFC4
:1017E00080B483B000AF0346FB714FF02003C4F216
:1017F0000E23FA791A6007F10C07BD4680BC7047CA
:1018000080B58AB004AF4FF080504FF0010102F074
:1018100049F84FF00100FFF7E3FF4FF0010001F03E
:10182000ADFE00BF4FF0410002F0C6F80346002BAA
:10183000F8D04FF4807001F0B9FF40F27403C2F2A7
:1018400000034FF0FF021A6040F27003C2F200037F
:101850004FF07F021A604FF0010001F0E5FF05F044
:1018600077F94FF0000043F2F22105F073FA07F127
:101870000403184605F0FAF840F27003C2F20003C0
:101880001B68BB6040F27403C2F200031B68FB607C
:101890004FF000037B6007F10403184605F082F85F
:1018A00047F22C23C0F600034FF0010200924FF0E4
:1018B000000201924FF0000202924FF000020392E8
:1018C00041F6E100C0F6000019464FF080024FF0EB
:1018D000000302F061FC07F11807BD4680BD00BFA0
:1018E00080B584B000AF786007F10C034FF00000C2
:1018F000194605F085F907F108034FF00000194675
:1019000005F0D4F9F0E700BF80B483B000AF034620
:10191000FB714FF46143CEF2000397F907204FEAC1
:101920005212F97901F01F014FF0010000FA01F1A4
:1019300043F8221007F10C07BD4680BC704700BF7A
:1019400080B500AF40F27C03C2F200034FF000020A
:101950001A604FF49040C4F2000040F22551FFF7A6
:10196000B7FE0346002B00F0E6814FF49040C4F22E
:10197000000040F22551FFF711FF4FF49043C4F2ED
:1019800000039B889BB2DAB240F24703C2F2000325
:101990001A7040F24803C2F200031B78002B02D0F9
:1019A000012B73D0C7E140F24703C2F200031B785A
:1019B0003A2B06D141F69553C2F200034FF00002D4
:1019C0001A7041F69553C2F200031B78194640F293
:1019D0004703C2F200031A7841F6AC53C2F2000387
:1019E0005B1883F82E2141F69553C2F200031B7851
:1019F00003F10103DAB241F69553C2F200031A7003
:101A000041F69553C2F200031B78012B40F28C8102
:101A100041F6AC53C2F2000393F82F311A4641F657
:101A20009553C2F200031B78A3F102039A4240F0DF
:101A30007D814FF49040C4F2000040F225514FF0F8
:101A40000002FFF7DFFD41F6A453C2F200031B685A
:101A500018464FF0000140F27C02C2F200024FF043
:101A6000000304F089F840F27C03C2F200031B6813
:101A7000002B00F05D8140F27C03C2F200031B6882
:101A8000002B00F0578104F04BFB54E140F2470378
:101A9000C2F200031B78292B2AD0D72B02D0002BAF
:101AA0007ED0ABE041F69053C2F200031A6841F6D3
:101AB0009553C2F200031B78D21840F24703C2F2DA
:101AC00000031B78137041F69553C2F200031B7894
:101AD00003F10103DAB241F69553C2F200031A7022
:101AE00041F6A953C2F200034FF001021A70B1E0AF
:101AF00041F6A953C2F200031B78012B2AD141F60B
:101B00009053C2F200031B684FF000021A7041F6B6
:101B10009053C2F200031B6803F101034FF0D70298
:101B20001A7041F69053C2F200031B6803F10203DE
:101B30004FF029021A7041F6AA53C2F200034FF087
:101B400001021A7041F69553C2F200034FF00302EE
:101B50001A701DE041F69053C2F200031A6841F674
:101B60009553C2F200031B78D21840F24703C2F229
:101B700000031B78137041F69553C2F200031B78E3
:101B800003F10103DAB241F69553C2F200031A7071
:101B900041F6A953C2F200034FF000021A7059E057
:101BA00041F6A953C2F200031B78012B07D141F67D
:101BB000A953C2F200034FF000021A704AE041F646
:101BC0009053C2F200031A6841F69553C2F2000323
:101BD0001B78D21840F24703C2F200031B7813703F
:101BE00041F69553C2F200031B7803F10103DAB208
:101BF00041F69553C2F200031A702BE041F6AA5346
:101C0000C2F200031B78002B24D041F69053C2F29D
:101C100000031A6841F69553C2F200031B78D218EC
:101C200040F24703C2F200031B78137041F695534C
:101C3000C2F200031B7803F10103DAB241F69553B7
:101C4000C2F200031A7041F6A953C2F200034FF02A
:101C500000021A7041F69553C2F200031B78062B5E
:101C600047D941F69553C2F200031B781A4640F259
:101C70007803C2F200031B7803F106039A425AD19B
:101C80004FF49040C4F2000040F225514FF00002A2
:101C9000FFF7B8FC41F6A453C2F200031B681846D4
:101CA0004FF0000140F27C02C2F200024FF000034C
:101CB00003F062FF40F27C03C2F200031B68002BBA
:101CC00008D040F27C03C2F200031B68002B01D055
:101CD00004F026FA41F6A953C2F200034FF00002C5
:101CE0001A7041F6AA53C2F200034FF000021A70B4
:101CF00021E041F69553C2F200031B78062B1AD15E
:101D000041F69053C2F200031A6841F69553C2F2AD
:101D100000031B7803F1FF33D3181A7840F27803DD
:101D2000C2F200031A7006E000BF04E000BF02E048
:101D300000BF00E000BF4FF49040C4F2000040F24A
:101D40002661FFF7C5FC0346002B00F0BF804FF46F
:101D50009040C4F2000040F22661FFF71FFD41F6FB
:101D60009453C2F200031A7841F69D53C2F2000365
:101D70001B789A426FD241F69453C2F200031B784B
:101D8000022B1ED84FF49043C4F2000341F6A05238
:101D9000C2F20002116841F69452C2F200021278B7
:101DA0008A1812789A8041F69453C2F200031B7885
:101DB00003F10103DAB241F69453C2F200031A7040
:101DC00084E041F6A953C2F200031B78002B33D103
:101DD00041F6A053C2F200031A6841F69453C2F2CE
:101DE00000031B78D3181B78D72B06D141F6A953D3
:101DF000C2F200034FF001021A704FF49043C4F294
:101E0000000341F6A052C2F20002116841F694525A
:101E1000C2F2000212788A1812789A8041F694531E
:101E2000C2F200031B7803F10103DAB241F69453C6
:101E3000C2F200031A7049E04FF49043C4F2000369
:101E40004FF000029A8041F6A953C2F200034FF00E
:101E500000021A703AE041F69453C2F200034FF0C8
:101E600000021A7041F69553C2F200034FF00002CF
:101E70001A7041F6A953C2F200034FF000021A7023
:101E80004FF49040C4F2000040F225514FF001029F
:101E9000FFF7B8FB4FF48063C4F202034FF4806293
:101EA000C4F20202528B92B242F0020292B25A8300
:101EB0004FF48063C4F202034FF48062C4F2020262
:101EC000528B92B242F0040292B25A8340F27C03E7
:101ED000C2F200031B68002B01D004F021F980BD81
:101EE00080B58EB004AF0346FB714FF480204FF0F5
:101EF000010101F0D7FC4FF002004FF0010101F0A9
:101F0000A3FC4FF440633B624FF0020387F8243098
:101F10004FF0020387F825304FF0000387F8263092
:101F20004FF0010387F8273007F120034FF480605A
:101F3000C4F20200194603F0D9F84FF48060C4F2ED
:101F400002004FF00A014FF0070203F099F94FF435
:101F50008060C4F202004FF00B014FF0070203F063
:101F60008FF94FF461433B614FF00003BB824FF0A8
:101F70000003FB824FF000033B834FF00003BB8361
:101F80004FF00C037B8307F110034FF49040C4F231
:101F900000001946FFF738FA4FF006033B624FF096
:101FA000010387F824304FF0000387F826304FF004
:101FB000000387F827304FF0020387F8253007F138
:101FC00020034FF48060C4F20200194603F08EF83B
:101FD0004FF49040C4F200004FF45871FFF766FBD5
:101FE0004FF49040C4F2000040F226614FF001022D
:101FF000FFF708FB4FF49040C4F2000040F2255177
:102000004FF00102FFF7FEFA4FF49040C4F20000D7
:102010004FF00101FFF7D6FA4FF4407004F0D0FB07
:102020004FF027033B734FF00E037B734FF0000319
:10203000BB734FF00103FB7307F10C03184604F068
:10204000D3FB4FF02700FFF75FFC4FF48063C4F22F
:1020500002034FF48062C4F20202528B92B242F049
:10206000020292B25A834FF48063C4F202034FF427
:102070008062C4F20202528B92B242F0040292B227
:102080005A8341F6A853C2F200034FF000021A70BF
:1020900041F69C53C2F200034FF000021A7041F661
:1020A000A053C2F200033C4A1A6041F69053C2F2B8
:1020B0000003394A1A6004F06DF941F69553C2F2F3
:1020C00000034FF000021A7041F69453C2F200036D
:1020D0004FF000021A7041F69D53C2F200034FF018
:1020E00000021A7041F6A953C2F200034FF0000239
:1020F0001A7041F6AA53C2F200034FF000021A70A0
:10210000FB79002B44D147F23043C0F600034FF077
:10211000010200924FF0000201924FF00002029281
:102120004FF00002039243F26D00C0F60000194622
:102130004FF080024FF0000302F02EF841F69C733E
:10214000C2F200034FF000021A774FF001004FF087
:1021500000014FF0030203F0C5FB024641F6A45311
:10216000C2F200031A6041F6A453C2F200031B68D6
:10217000002B0DD041F6A453C2F200031B68184691
:102180004FF000014FF000024FF0000303F048FC55
:1021900007F12807BD4680BD1A1E002090B583B008
:1021A00000AF4FF00003FB7141F6A053C2F20003F1
:1021B0001B684FF000021A7041F6A053C2F20003F0
:1021C0001B6803F101034FF0D7021A7041F6A053C8
:1021D000C2F200031B6803F102034FF029021A70D8
:1021E00041F6A053C2F200031B6803F1030240F260
:1021F0004403C2F200031B78137041F6A053C2F2ED
:1022000000031B6803F104034FF002021A7041F649
:10221000A053C2F200031B6803F1060240F246031A
:10222000C2F200031B7813704FF00003FB7123E030
:10223000FB79132B10D841F6A053C2F200031A68A1
:10224000FB7903F10703D218F97940F20003C2F2D7
:1022500000035B5C13700BE041F6A053C2F2000375
:102260001A68FB7903F10703D3184FF000021A70C4
:10227000FB7903F10103FB71FB79132BD8D94FF0E4
:102280000003FB7116E0FB79072B0FD841F6A05332
:10229000C2F200031A68FB7903F11B03D218F97923
:1022A00040F23C03C2F200035B5C1370FB7903F164
:1022B0000103FB71FB79042BE5D941F6A053C2F26F
:1022C00000031B6803F120034FF002021A704FF065
:1022D0000003FB7140E041F6A053C2F200031A680C
:1022E000FB794FEA430303F12103D018F97941F652
:1022F000CC72C2F200020B464FEAC3035B1A4FEAEC
:102300008303D3181B794FEA0313DCB2F97941F642
:10231000CC72C2F200020B464FEAC3035B1A4FEACB
:102320008303D3185B79DBB2224642EA0303DBB2B4
:10233000DBB2037041F6A053C2F200031A68FB79C6
:1023400003F111034FEA4303D3184FF000021A7050
:10235000FB7903F10103FB71FB79012BBBD94FF032
:102360000003FB7113E041F6A053C2F200031A68A8
:10237000FB7903F12503D218F97940F21403C2F274
:1023800000035B5C1370FB7903F10103FB7140F206
:102390004503C2F200031B78FA799A42E3D341F66F
:1023A000A053C2F200031B6803F1050240F245038B
:1023B000C2F200031B7803F12003DBB2137041F675
:1023C000A053C2F200031A6840F24503C2F20003B0
:1023D0001B7803F12503D41841F6A053C2F2000381
:1023E0001B6803F1010240F24503C2F200031B78AF
:1023F00003F12403DBB21046194600F053FF0346F5
:10240000237040F24503C2F200031B7803F1260358
:10241000DBB2184607F10C07BD4690BD80B400AF93
:102420004FF000031846BD4680BC704780B400AF33
:102430004FF000031846BD4680BC704780B400AF23
:102440004FF000031846BD4680BC704780B582B08F
:1024500000AF4FF00003FB714FF000037B714FF0B2
:1024600000033B714FF00003BB7181E041F69053D4
:10247000C2F200031A68FB7903F10603D3181B7834
:10248000012B6FD841F69053C2F200031A68FB7912
:1024900003F10703D3181B784FEA1313DBB203F0E1
:1024A0000F03042B02D0082B1DD061E041F690539E
:1024B000C2F200031A68FB7903F10703D3181B78F3
:1024C00003F00F03012B04D0022B07D0002B07D001
:1024D0004EE0FB7903F10303FB7102E000BF00E073
:1024E00000BF00BF44E04FF00003BB7119E0B979B1
:1024F00041F69053C2F200031A68FB7903F1080019
:10250000BB79C31803F10103D3181A7841F6AC5311
:10251000C2F200035B1883F82E21BB7903F101039B
:10252000BB7141F69053C2F200031A68FB7903F1C4
:102530000803D3181B78BA799A42D8D31848FDF704
:1025400023FE41F69053C2F200031A68FB7903F1AF
:102550000803D3181A78FB79D318DBB203F103030D
:10256000FB7105E04FF0010000F042FC034612E071
:10257000FA7941F69053C2F200031B6803F1050398
:102580001B7803F1FF339A42FFF670AF4FF0000063
:1025900000F02EFC0346184607F10807BD4680BD33
:1025A000DA1E002080B400AF4FF000031846BD468D
:1025B00080BC704780B400AF4FF000031846BD46A2
:1025C00080BC704780B400AF4FF000031846BD4692
:1025D00080BC704780B400AF4FF000031846BD4682
:1025E00080BC704780B500AF40F24603C2F20003E2
:1025F0004FF040021A704FF0000000F0F9FB034664
:10260000184680BD90B583B000AF4FF00003FB715A
:102610004FF00003BB7141F6A053C2F200031B68E8
:102620004FF000021A7041F6A053C2F200031B687B
:1026300003F101034FF0D7021A7041F6A053C2F222
:1026400000031B6803F102034FF029021A7041F6E0
:10265000A053C2F200031B6803F1030240F24403DB
:10266000C2F200031B78137041F6A053C2F20003BC
:102670001B6803F104034FF015021A7041F6A053D2
:10268000C2F200031B6803F1060240F24603C2F2E5
:1026900000031B7813704FF00003BB7175E341F624
:1026A000A053C2F200031A68FB7903F10703D318A1
:1026B000BA791A70FB7903F10103FB7141F6A0535B
:1026C000C2F200031A68FB7903F10703D018B97945
:1026D00041F6CC72C2F200020B464FEAC3035B1A0A
:1026E0004FEA8303D3181B794FEA0313DCB2B9799D
:1026F00041F6CC72C2F200020B464FEAC3035B1AEA
:102700004FEA8303D3185B79DBB2224642EA030324
:10271000DBB2DBB20370FB7903F10103FB71B97922
:1027200041F6CC72C2F200020B464FEAC3035B1AB9
:102730004FEA8303D3181B79012B00F00282022B8E
:1027400000F0AE82002B40F01C83B97941F6CC72C8
:10275000C2F200020B464FEAC3035B1A4FEA83033F
:10276000D3185B79032B00F2078301A252F823F000
:1027700081270008232900082529000827290008A7
:10278000B97941F6CC72C2F200020B464FEAC3039C
:102790005B1A4FEA8303D31803F110031B78002B55
:1027A00044D041F6A053C2F200031A68FB7903F14A
:1027B0000703D018B97941F6CC72C2F200020B4679
:1027C0004FEAC3035B1A4FEA8303D31803F10C03E8
:1027D0001B6803F47F434FEA1323DBB20370FB79DA
:1027E00003F10103FB7141F6A053C2F200031A6822
:1027F000FB7903F10703D018B97941F6CC72C2F224
:1028000000020B464FEAC3035B1A4FEA8303D31857
:1028100003F10C031B6803F47F034FEA1343DBB29D
:102820000370FB7903F10103FB7143E041F6A05310
:10283000C2F200031A68FB7903F10703D018B979D3
:1028400041F6CC72C2F200020B464FEAC3035B1A98
:102850004FEA8303D31803F108031B6803F47F4393
:102860004FEA1323DBB20370FB7903F10103FB7121
:1028700041F6A053C2F200031A68FB7903F1070383
:10288000D018B97941F6CC72C2F200020B464FEA79
:10289000C3035B1A4FEA8303D31803F108031B68D1
:1028A00003F47F034FEA1343DBB20370FB7903F1B8
:1028B0000103FB7141F6A053C2F200031A68FB79D1
:1028C00003F10703D018B97941F6CC72C2F20002C5
:1028D0000B464FEAC3035B1A4FEA8303D3189B7975
:1028E0000370FB7903F10103FB7141F6A053C2F2BF
:1028F00000031A68FB7903F10703D018B97941F690
:10290000CC72C2F200020B464FEAC3035B1A4FEAD5
:102910008303D318DB790370FB7903F10103FB71A7
:102920000EE10DE10CE1B97941F6CC72C2F2000280
:102930000B464FEAC3035B1A4FEA8303D31803F134
:1029400010031B78002B62D041F6A053C2F20003A3
:102950001A68FB7903F10703D018B97941F6CC72F4
:10296000C2F200020B464FEAC3035B1A4FEA83032D
:10297000D31803F10C031B68DBB20370FB7903F17E
:102980000103FB7141F6A053C2F200031A68FB7900
:1029900003F10703D018B97941F6CC72C2F20002F4
:1029A0000B464FEAC3035B1A4FEA8303D31803F1C4
:1029B0000C031B6803F47F434FEA1323DBB203705D
:1029C000FB7903F10103FB7141F6A053C2F200034E
:1029D0001A68FB7903F10703D018B97941F6CC7274
:1029E000C2F200020B464FEAC3035B1A4FEA8303AD
:1029F000D31803F10C031B6803F47F034FEA13435E
:102A0000DBB20370FB7903F10103FB7161E041F676
:102A1000A053C2F200031A68FB7903F10703D01830
:102A2000B97941F6CC72C2F200020B464FEAC303F9
:102A30005B1A4FEA8303D31803F108031B68DBB268
:102A40000370FB7903F10103FB7141F6A053C2F25D
:102A500000031A68FB7903F10703D018B97941F62E
:102A6000CC72C2F200020B464FEAC3035B1A4FEA74
:102A70008303D31803F108031B6803F47F434FEA71
:102A80001323DBB20370FB7903F10103FB7141F601
:102A9000A053C2F200031A68FB7903F10703D018B0
:102AA000B97941F6CC72C2F200020B464FEAC30379
:102AB0005B1A4FEA8303D31803F108031B6803F47E
:102AC0007F034FEA1343DBB20370FB7903F1010389
:102AD000FB7141F6A053C2F200031A68FB7903F1BF
:102AE0000703D018B97941F6CC72C2F200020B4646
:102AF0004FEAC3035B1A4FEA8303D3189B79037031
:102B0000FB7903F10103FB7141F6A053C2F200030C
:102B10001A68FB7903F10703D018B97941F6CC7232
:102B2000C2F200020B464FEAC3035B1A4FEA83036B
:102B3000D318DB790370FB7903F10103FB7100BF4C
:102B40001FE1B97941F6CC72C2F200020B464FEA9E
:102B5000C3035B1A4FEA8303D3185B79002B40F061
:102B60000D8141F6A053C2F200031A68FB7903F10C
:102B70000703D018B97941F6CC72C2F200020B46B5
:102B80004FEAC3035B1A4FEA8303D31803F1080328
:102B90001B68DBB20370FB7903F10103FB7141F6A3
:102BA000A053C2F200031A68FB7903F10703D0189F
:102BB000B97941F6CC72C2F200020B464FEAC30368
:102BC0005B1A4FEA8303D31803F108031B6803F46D
:102BD0007F434FEA1323DBB20370FB7903F1010358
:102BE000FB7141F6A053C2F200031A68FB7903F1AE
:102BF0000703D018B97941F6CC72C2F200020B4635
:102C00004FEAC3035B1A4FEA8303D31803F10803A7
:102C10001B6803F47F034FEA1343DBB20370FB79B5
:102C200003F10103FB7141F6A053C2F200031A68DD
:102C3000FB7903F10703D018B97941F6CC72C2F2DF
:102C400000020B464FEAC3035B1A4FEA8303D31813
:102C500003F108031B684FEA1363DBB20370FB79CF
:102C600003F10103FB7141F6A053C2F200031A689D
:102C7000FB7903F10703D018B97941F6CC72C2F29F
:102C800000020B464FEAC3035B1A4FEA8303D318D3
:102C90009B790370FB7903F10103FB7100BF70E0C6
:102CA000B97941F6CC72C2F200020B464FEAC30377
:102CB0005B1A4FEA8303D3185B79012B60D141F68D
:102CC000A053C2F200031A68FB7903F10703D0187E
:102CD000B97941F6CC72C2F200020B464FEAC30347
:102CE0005B1A4FEA8303D31803F108031B68DBB2B6
:102CF0000370FB7903F10103FB7141F6A053C2F2AB
:102D000000031A68FB7903F10703D018B97941F67B
:102D1000CC72C2F200020B464FEAC3035B1A4FEAC1
:102D20008303D31803F108031B6803F47F434FEABE
:102D30001323DBB20370FB7903F10103FB7141F64E
:102D4000A053C2F200031A68FB7903F10703D018FD
:102D5000B97941F6CC72C2F200020B464FEAC303C6
:102D60005B1A4FEA8303D3189B790370FB7903F155
:102D70000103FB7100BF04E000BF02E000BF00E000
:102D800000BFBB7903F10103BB71BB79012B7FF657
:102D900086AC41F6A053C2F200031B6803F10503A1
:102DA000FA7902F10202D2B21A7041F6A053C2F2CD
:102DB00000031A68FB7903F10703D41841F6A05306
:102DC000C2F200031B6803F10102FB7903F1060361
:102DD000DBB21046194600F065FA03462370FB7912
:102DE00003F10803DBB2184607F10C07BD4690BD9E
:102DF00090B583B000AF0346FB7141F6A053C2F219
:102E000000031B684FF000021A7041F6A053C2F293
:102E100000031B6803F101034FF0D7021A7041F65B
:102E2000A053C2F200031B6803F102034FF0290212
:102E30001A7041F6A053C2F200031B6803F10302AB
:102E400040F24403C2F200031B78137041F6A05312
:102E5000C2F200031B6803F1070241F69053C2F26D
:102E600000031B6803F104031B78137041F6A053A1
:102E7000C2F200031B6803F104034FF0FF021A7053
:102E800041F6A053C2F200031B6803F1060240F2B0
:102E90004603C2F200031B78137041F6A053C2F23E
:102EA00000031B6803F10803FA791A7041F6A05376
:102EB000C2F200031B6803F105034FF004021A700D
:102EC00041F6A053C2F200031B6803F1090441F666
:102ED000A053C2F200031B6818464FF0090100F02E
:102EE000E1F9034623704FF00A03184607F10C0777
:102EF000BD4690BD80B500AF41F69053C2F20003CD
:102F00001B6803F104031B7803F1FF33132B00F25A
:102F1000998001A252F823F0692F0008453000087B
:102F20007D2F000845300008912F0008453000082B
:102F3000A52F000845300008B92F0008CD2F000844
:102F400045300008E12F000845300008F52F000843
:102F50004530000809300008453000081D300008E1
:102F60004530000831300008FFF718F903461A46CB
:102F700041F69D53C2F200031A7075E0FFF74EFA56
:102F800003461A4641F69D53C2F200031A706BE0E5
:102F9000FFF74CFA03461A4641F69D53C2F200036E
:102FA0001A7061E0FFF74AFA03461A4641F69D534C
:102FB000C2F200031A7057E0FFF748FA03461A46B8
:102FC00041F69D53C2F200031A704DE0FFF7EAFA92
:102FD00003461A4641F69D53C2F200031A7043E0BD
:102FE000FFF7E8FA03461A4641F69D53C2F2000382
:102FF0001A7039E0FFF7E6FA03461A4641F69D5388
:10300000C2F200031A702FE0FFF7E4FA03461A46F3
:1030100041F69D53C2F200031A7025E0FFF7E2FA71
:1030200003461A4641F69D53C2F200031A701BE094
:10303000FFF7E8FA03461A4641F69D53C2F2000331
:103040001A7011E041F69C53C2F200034FF00102E6
:103050001A704FF00600FFF7CBFE03461A4641F602
:103060009D53C2F200031A7080BD00BF80B584B0CA
:1030700000AF786041F69C73C2F200034FF001028A
:103080001A7741F69C73C2F200034FF001021A77DF
:1030900041F6A453C2F200031B68002B00F0F78036
:1030A00041F6A453C2F200031B6818464FF000011A
:1030B00042F210724FF0000302F0C4FD0346012BF0
:1030C00040F0D18041F69C73C2F200034FF0000241
:1030D0001A7740F24803C2F200031B78002B02D09B
:1030E000012B15D0B2E06E48FDF74EF841F695532E
:1030F000C2F200034FF000021A704FF49040C4F285
:10310000000040F225514FF00102FEF77BFA9DE0EE
:1031100041F69053C2F200031A6841F69553C2F289
:1031200000031B7803F1FF33D3181B78FB7341F6C0
:103130009453C2F200034FF000021A7041F690530C
:10314000C2F200031A6841F69553C2F200031B78DD
:1031500003F1FF33DBB21046194600F0A3F8034633
:10316000FA7B9A4260D141F69053C2F200031B6889
:1031700003F103031A7840F24403C2F200031B7800
:103180009A4251D1FFF7B6FE41F69453C2F20003C2
:103190004FF000021A7041F69553C2F200034FF04F
:1031A00000021A7041F6A953C2F200034FF0000268
:1031B0001A704FF48063C4F202034FF48062C4F2C9
:1031C0000202128B92B242F0020292B21A834FF4C0
:1031D0008063C4F202034FF48062C4F20202128BD5
:1031E00092B242F0040292B21A834FF49043C4F2B6
:1031F000000341F6A052C2F20002116841F6945257
:10320000C2F2000212788A1812789A8041F694531A
:10321000C2F200031B7803F10103DAB241F69453C2
:10322000C2F200031A7011E041F6A853C2F2000383
:103230004FF001021A704FF49040C4F2000040F2C7
:1032400025514FF00102FEF7DDF900BF41F69C73F6
:10325000C2F200039B6903F1010241F69C73C2F2C2
:1032600000039A6113E047F23030C0F60000FCF72B
:103270008BFF4FF0C80001F0DFF847F23020C0F6B6
:103280000000FCF781FF4FF00100FEF729FE41F638
:103290009C73C2F200034FF001021A77F1E600BFFF
:1032A000DA1E002080B487B000AF78600B46FB7058
:1032B0004FF00003FB757B683B61FB78FB732BE0F1
:1032C0003B691A78FB7D82EA0303FB753B6903F1D6
:1032D00001033B61FB7D03F00103DBB2002B02D055
:1032E0004FF0800301E04FF00003FA7D4FEA5202F5
:1032F000D2B2D1B21A460B4642EA0303DBB2FB75E7
:10330000FB7D5BB2002B03DAFB7D83F03C03FB7596
:10331000FB7B03F1FF33FB73FB7B002BD0D1FB7DE9
:10332000184607F11C07BD4680BC704780B485B0C5
:1033300000AF786039604FF00003FB604FF000038E
:10334000BB604FF4E843C4F200031B68FB607B687A
:1033500040F6FE7202FA03F36FEA0303FA6802EA28
:103360000303FB603B681A683B685B681A433B6871
:103370009B681A433B68DB6842EA0303BB607B68D7
:10338000BA6802FA03F3FA6842EA0303FB604FF4F7
:10339000E843C4F20003FA681A6007F11407BD4657
:1033A00080BC704780B483B000AF78600B46FB7080
:1033B000FB78002B12D04FF4E843C4F200034FF423
:1033C000E842C4F20002126811467A684FF0010028
:1033D00000FA02F241EA02021A6013E04FF4E843F5
:1033E000C4F200034FF4E842C4F20002126811462E
:1033F0007A684FF0010000FA02F26FEA020201EA75
:1034000002021A6007F10C07BD4680BC704700BF7E
:1034100080B485B000AF78600B467B804FF000032E
:10342000FB604FF4E843C4F20003FB60FA687B687A
:10343000D31803F11403FB60FB687A881A6007F164
:103440001407BD4680BC704780B582B000AF47F21C
:103450008043C0F600037B6040F20003C2F2000329
:103460003B600BE07B681A683B681A603B6803F1BD
:1034700004033B607B6803F104037B603A6840F21D
:103480006C03C2F200039A42ECD30A480A494FF097
:1034900000028842B8BF40F8042BFADBDFF81C00BA
:1034A000016841F47001016000F02EF807F108078F
:1034B000BD4680BD700000200820002088ED00E09F
:1034C00080B400AFFEE700BF80B582B000AF786087
:1034D00003F05AF800F078FB4FF00000FEF700FD13
:1034E00000F01EFE4FF0000040F2FF71FFF790FF6A
:1034F000FEF786F902F0D2F84FF0000000F03CFF32
:1035000007F10807BD4680BD80B584B004AF01F067
:10351000D1FF47F23843C0F600034FF0010200929A
:103520004FF0000201924FF0000202924FF00002B1
:10353000039243F2C940C0F6000019464FF08002E2
:103540004FF0000300F028FE00F0A4FFFEE700BFEC
:1035500080B400AFFEE700BF80B483B000AF7860F6
:103560003960FEE780B582B000AF03F00DFA034684
:103570007B607B6807F10807BD4680BD80B483B0DF
:1035800000AF0346FB7143F67003C4F202034FF031
:1035900000021A7043F67003C4F202034FF00002F7
:1035A0001A70FB79012B02D0042B08D00FE043F6F0
:1035B0007003C4F202034FF001021A7007E043F6F1
:1035C0007003C4F202034FF005021A7000BF07F146
:1035D0000C07BD4680BC704780B489B000AF7860EE
:1035E0004FF00003BB614FF000037B614FF000031D
:1035F000FB614FF002033B614FF00003FB604FF0B3
:103600000203BB604FF46053C4F202039B6803F0F3
:103610000C03BB61BB69042B0AD0082B0FD0002B15
:1036200064D17A684FF41053C0F2F403136064E07D
:103630007A684FF49053C0F27A0313605DE04FF460
:103640006053C4F202035B6803F480034FEA9353B0
:10365000FB604FF46053C4F202035B6803F03F0366
:10366000BB60FB68002B16D04FF49053C0F27A0376
:10367000BA68B3FBF2F24FF46053C4F202035B6822
:10368000194647F6C07301EA03034FEA931303FB9D
:1036900002F3FB6115E04FF41053C0F2F403BA6873
:1036A000B3FBF2F24FF46053C4F202035B681946B5
:1036B00047F6C07301EA03034FEA931303FB02F3D7
:1036C000FB614FF46053C4F202035B6803F44033C0
:1036D0004FEA134303F101034FEA43033B61FA69E5
:1036E0003B69B2FBF3F27B681A6006E07A684FF43C
:1036F0001053C0F2F403136000BF4FF46053C4F2E0
:1037000002039B6803F0F003BB61BB694FEA13132C
:10371000BB6140F24C03C2F20003BA699B181B78EC
:10372000DBB27B617B681A687B6922FA03F27B68F3
:103730005A604FF46053C4F202039B6803F4E053F1
:10374000BB61BB694FEA9323BB6140F24C03C2F2F9
:103750000003BA699B181B78DBB27B617B685A68EF
:103760007B6922FA03F27B689A604FF46053C4F2DB
:1037700002039B6803F46043BB61BB694FEA5333A8
:10378000BB6140F24C03C2F20003BA699B181B787C
:10379000DBB27B617B685A687B6922FA03F27B6843
:1037A000DA6007F12407BD4680BC704780B485B05D
:1037B00000AF78604FF00003FB607B6803F4407358
:1037C000B3F5407F18D14FF46053C4F202039B68F5
:1037D000FB60FB6823F4F813FB607B6823F0704305
:1037E00023F44073FA6842EA0303FB604FF460532A
:1037F000C4F20203FA689A604FF46053C4F2020301
:103800004FF46052C4F20202126F11467A684FEA16
:1038100002524FEA125241EA02021A6707F11407F4
:10382000BD4680BC704700BF80B483B000AF034684
:10383000FB7140F63C63C4F24723FA791A6007F142
:103840000C07BD4680BC704780B483B000AF786081
:103850000B46FB70FB78002B0ED04FF46053C4F284
:1038600002034FF46052C4F20202126B11467A68EE
:1038700041EA02021A630FE04FF46053C4F20203FC
:103880004FF46052C4F20202126B11467A686FEA7A
:10389000020201EA02021A6307F10C07BD4680BC6E
:1038A000704700BF80B483B000AF78600B46FB70F8
:1038B000FB78002B0ED04FF46053C4F202034FF498
:1038C0006052C4F20202126C11467A6841EA0202A6
:1038D0001A640FE04FF46053C4F202034FF46052D5
:1038E000C4F20202126C11467A686FEA020201EA1F
:1038F00002021A6407F10C07BD4680BC704700BF86
:1039000080B483B000AF78600B46FB70FB78002B6F
:103910000ED04FF46053C4F202034FF46052C4F26D
:103920000202526C11467A6841EA02025A640FE0C0
:103930004FF46053C4F202034FF46052C4F2020227
:10394000526C11467A686FEA020201EA02025A6476
:1039500007F10C07BD4680BC704700BF80B483B040
:1039600000AF78600B46FB70FB78002B0ED04FF455
:103970006053C4F202034FF46052C4F20202526A6E
:1039800011467A6841EA02025A620FE04FF460532E
:10399000C4F202034FF46052C4F20202526A1146AA
:1039A0007A686FEA020201EA02025A6207F10C0722
:1039B000BD4680BC704700BF80B487B000AF0346EF
:1039C000FB714FF00003FB604FF000037B614FF091
:1039D0000003FB74FB794FEA5313DBB2FB60FB6817
:1039E000012B06D14FF46053C4F202031B687B61C4
:1039F0000FE0FB68022B06D14FF46053C4F20203C0
:103A00001B6F7B6105E04FF46053C4F202035B6FF0
:103A10007B61FB7903F01F03FB60FB687A6922FA84
:103A200003F303F00103DBB2002B03D04FF00103DB
:103A3000FB7402E04FF00003FB74FB7C184607F1B7
:103A40001C07BD4680BC704780B400AF41F6AC5344
:103A5000C2F200034FF002021A7041F6AC53C2F2F8
:103A600000034FF000025A8741F6AC53C2F2000344
:103A70004FF000021A8741F6AC53C2F200034FF038
:103A800001029A8741F6AC53C2F200034FF00402E0
:103A9000DA8741F6AC53C2F2000340F60922A3F8DC
:103AA000402041F6AC53C2F200034FF41062A3F879
:103AB000422041F6AC53C2F20003DB8F03F1FF3327
:103AC0009BB29BB243F430639BB29AB241F6AC53C3
:103AD000C2F20003A3F8442041F6AC53C2F2000343
:103AE00040F60142A3F8462041F6AC53C2F200036F
:103AF0004FF47062A3F8482041F6AC53C2F20003C1
:103B00004FF0000283F84B2041F6AC53C2F20003A1
:103B10004FF00002A3F8522041F6AC53C2F200036A
:103B20004FF00102A3F8502041F6AC53C2F200035B
:103B30004FF00102A3F8542041F6AC53C2F2000347
:103B40004FF00402A3F8562041F6AC53C2F2000332
:103B500040F60922A3F8582041F6AC53C2F2000304
:103B60004FF41062A3F85A2041F6AC53C2F200039E
:103B7000B3F8563003F1FF339BB29BB243F430638A
:103B80009BB29AB241F6AC53C2F20003A3F85C2098
:103B900041F6AC53C2F2000340F60142A3F85E20A6
:103BA00041F6AC53C2F200034FF47062A3F86020F8
:103BB00041F6AC53C2F200034FF0000283F86320D9
:103BC000BD4680BC704700BF80B500AFFFF73CFF2B
:103BD00002F09AFC4FF00003184680BD80B500AF9C
:103BE0004FF480704FF00101FFF7B8FE4FF4807082
:103BF0004FF00001FFF7B2FE80BD00BF80B485B07A
:103C000000AF786039604FF00003FB604FF00003B5
:103C1000FB727B685B68FB60FB6823F0407323F4F6
:103C20008073FB603B681B794FEA03223B681B688B
:103C300042EA0303FA6842EA0303FB607B68FA681E
:103C40005A607B689B68FB60FA684FF2FD73CCF2A8
:103C5000FF0302EA0303FB603B681A693B68DB6809
:103C60001A433B689B681A433B685B794FEA4303FE
:103C700042EA0303FA6842EA0303FB607B68FA68DE
:103C80009A607B68DB6AFB60FB6823F47003FB606F
:103C90003B681B7D03F1FF33DAB2FB7A42EA030390
:103CA000FB72FB7A4FEA0353FA6842EA0303FB60B4
:103CB0007B68FA68DA6207F11407BD4680BC70477A
:103CC00080B483B000AF78607B684FF000021A6068
:103CD0007B684FF000021A717B684FF000025A7146
:103CE0007B684FF000029A607B684FF00002DA6058
:103CF0007B684FF000021A617B684FF001021A7571
:103D000007F10C07BD4680BC704700BF80B485B08A
:103D100000AF78604FF00003FB604FF40C53C4F227
:103D200001035B68FB60FA6843F2E003CFF6FC73C3
:103D300002EA0303FB607B681A687B685B681A43CE
:103D40007B689B681A437B68DB6842EA0303FA6876
:103D500042EA0303FB604FF40C53C4F20103FA6818
:103D60005A6007F11407BD4680BC704780B483B029
:103D700000AF78607B684FF000021A607B684FF0FC
:103D800000025A607B684FF000029A607B684FF037
:103D90000002DA6007F10C07BD4680BC704700BF27
:103DA00080B483B000AF78600B46FB70FB78002BCB
:103DB00006D07B689B6843F001027B689A6005E04F
:103DC0007B689B6823F001027B689A6007F10C070F
:103DD000BD4680BC704700BF80B485B000AF78603E
:103DE000F970BA707B704FF00003FB604FF0000376
:103DF000BB60FB78092B29D97B68DB68FB60FA780C
:103E000013464FEA43039B18A3F11E034FF007022A
:103E100002FA03F3BB60BB686FEA0303FA6802EAC5
:103E20000303FB607978FA7813464FEA43039B1843
:103E3000A3F11E0301FA03F3BB60FA68BB6842EA10
:103E40000303FB607B68FA68DA6024E07B681B6927
:103E5000FB60FA7813464FEA43039B184FF00702C2
:103E600002FA03F3BB60BB686FEA0303FA6802EA75
:103E70000303FB607978FA7813464FEA43039B18F3
:103E800001FA03F3BB60FA68BB6842EA0303FB6014
:103E90007B68FA681A61BB78062B29D87B685B6B54
:103EA000FB60BB7803F1FF3213464FEA83039B1894
:103EB0004FF01F0202FA03F3BB60BB686FEA030313
:103EC000FA6802EA0303FB60F978BB7803F1FF327A
:103ED00013464FEA83039B1801FA03F3BB60FA68A9
:103EE000BB6842EA0303FB607B68FA685A6355E0EB
:103EF000BB780C2B29D87B681B6BFB60BA78134608
:103F00004FEA83039B18A3F123034FF01F0202FA29
:103F100003F3BB60BB686FEA0303FA6802EA0303BA
:103F2000FB60F978BA7813464FEA83039B18A3F134
:103F3000230301FA03F3BB60FA68BB6842EA030398
:103F4000FB607B68FA681A6328E07B68DB6AFB60C9
:103F5000BA7813464FEA83039B18A3F141034FF04D
:103F60001F0202FA03F3BB60BB686FEA0303FA683F
:103F700002EA0303FB60F978BA7813464FEA830339
:103F80009B18A3F1410301FA03F3BB60FA68BB6815
:103F900042EA0303FB607B68FA68DA6207F1140700
:103FA000BD4680BC704700BF80B483B000AF78606E
:103FB0007B689B6843F080427B689A6007F10C073E
:103FC000BD4680BC704700BF80B483B000AF78604E
:103FD0007B68DB6C9BB2184607F10C07BD4680BCC2
:103FE000704700BF80B485B000AF78600B46FB70AF
:103FF0004FF00003FB737B681B681A46FB7802EAEC
:104000000303002B03D04FF00103FB7302E04FF0DA
:104010000003FB73FB7B184607F11407BD4680BC09
:10402000704700BF80B500AF4FF48060C4F200005D
:104030004FF0010102F0CAFE0346002B2AD04FF4D4
:104040008060C4F200004FF0010102F0F1FE4FF475
:104050008063C4F200031B889BB203F01003002BA3
:104060000CD040F25C03C2F200031B68A3F580325F
:1040700040F25C03C2F200031A600BE040F25C0302
:10408000C2F200031B6803F5803240F25C03C2F207
:1040900000031A6080BD00BF80B500AF4FF0000084
:1040A000C4F201004FF0010102F090FE0346002B24
:1040B00035D04FF00000C4F201004FF0010102F0D2
:1040C000B7FE4FF00003C4F201031B889BB203F05C
:1040D0001003002B0CD040F26003C2F200031B68F7
:1040E00003F1FF3240F26003C2F200031A600BE0FA
:1040F00040F26003C2F200031B6803F1010240F2C8
:104100006003C2F200031A604FF00003C4F201031F
:104110005B6A1A4640F28003C2F200031A6080BD57
:1041200080B586B000AF4FF00100C0F220004FF024
:104130000101FFF789FB4FF000504FF00101FFF73D
:10414000B1FB4FF030033B614FF003033B754FF081
:104150000003FB7507F110034FF00000C4F20200EA
:10416000194600F0C3FF4FF000033B604FF000031F
:104170007B604FF00203FB603B464FF01000194696
:10418000FFF7D4F84FF010004FF00101FFF70AF9E4
:1041900007F11807BD4680BD80B58AB002AFF86050
:1041A000B9603B601346FB80FB68002B04D14FF0E5
:1041B000500080F31188FEE7BB6A042B04D94FF04E
:1041C000500080F31188FEE7FB881846396B00F039
:1041D00077FEB861BB69002B00F0B080BB691A6B39
:1041E000FB8803F1FF334FEA8303D3187B617B69BC
:1041F00023F007037B617B6903F00703002B04D0E6
:104200004FF0500080F31188FEE7FB880093B869F7
:10421000B968BA6A7B6B00F031FD7869F9683A6871
:1042200001F0F6FE03461A46BB691A60FB6A002BD2
:1042300002D0FB6ABA691A6001F07EFF40F25C139B
:10424000C2F200031B6803F1010240F25C13C2F2E8
:1042500000031A6040F28403C2F200031B68002BC3
:104260000FD140F28403C2F20003BA691A6040F22F
:104270005C13C2F200031B68012B18D100F03CFD57
:1042800015E040F26C13C2F200031B68002B0ED144
:1042900040F28403C2F200031B68DA6ABB6A9A42E6
:1042A00005D840F28403C2F20003BA691A60BB6900
:1042B000DA6A40F26413C2F200031B689A4206D91C
:1042C000BB69DA6A40F26413C2F200031A6040F27A
:1042D0008013C2F200031B6803F1010240F2801355
:1042E000C2F200031A60BB69DA6A40F26813C2F2D4
:1042F00000031B689A4206D9BB69DA6A40F2681368
:10430000C2F200031A60BB69DA6A13464FEA8303FC
:104310009B184FEA83031A4640F28803C2F2000357
:10432000D218BB6903F104031046194601F032F8B4
:104330004FF00103FB6101F015FF02E04FF0FF3386
:10434000FB61FB69012B11D140F26C13C2F2000337
:104350001B68002B0AD040F28403C2F200031B68E2
:10436000DA6ABB6A9A4201D201F0DAFEFB691846AA
:1043700007F12007BD4680BD80B584B000AF7860EE
:1043800001F0DAFE40F28403C2F200031B687A688F
:104390009A4202D14FF000037B607B68002B05D16D
:1043A00040F28403C2F200031B6800E07B68FB60FC
:1043B000FB6803F10403184601F052F8FB689B6A9E
:1043C000002B05D0FB6803F11803184601F048F8EC
:1043D000FB6803F1040340F23010C2F200001946FA
:1043E00000F0D8FF40F24413C2F200031B6803F14F
:1043F000010240F24413C2F200031A6040F280133B
:10440000C2F200031B6803F1010240F28013C2F202
:1044100000031A6001F0A6FE40F26C13C2F2000322
:104420001B68002B04D07B68002B01D101F078FEC3
:1044300007F11007BD4680BD80B584B000AF78603D
:104440004FF00003FB607B68002B19D000F064F88C
:1044500040F26013C2F200031A687B68D318BB6095
:1044600040F28403C2F200031B6803F10403184600
:1044700000F0F6FFB86800F0DDFC00F05FF8F860CF
:10448000FB68002B01D101F04BFE07F11007BD4680
:1044900080BD00BF80B586B004AF47F24043C0F690
:1044A00000034FF0000200924FF0000201924FF023
:1044B000000202924FF00002039244F65940C0F607
:1044C000000019464FF046024FF00003FFF764FE6C
:1044D00078607B68012B13D14FF0500080F3118876
:1044E00040F26C13C2F200034FF001021A6040F276
:1044F0006013C2F200034FF000021A6001F0D8FD11
:104500007B68002B04D14FF0500080F31188FEE748
:1045100007F10807BD4680BD80B400AF40F27013BC
:10452000C2F200031B6803F1010240F27013C2F2F1
:1045300000031A60BD4680BC704700BF90B583B0D1
:1045400000AF4FF000037B6040F27013C2F2000333
:104550001B68002B04D14FF0500080F31188FEE758
:1045600001F0EAFD40F27013C2F200031B6803F190
:10457000FF3240F27013C2F200031A6040F270136F
:10458000C2F200031B68002B40F0868040F25C13EF
:10459000C2F200031B68002B7ED04FF000033B608B
:1045A0003DE040F21C13C2F20003DB68DB681C46EE
:1045B00004F11803184600F053FF04F104031846F1
:1045C00000F04EFFE26A40F26813C2F200031B687B
:1045D0009A4205D9E26A40F26813C2F200031A60F7
:1045E000E26A13464FEA83039B184FEA83031A4695
:1045F00040F28803C2F20003D21804F1040310460B
:10460000194600F0C7FEE26A40F28403C2F20003DA
:104610001B68DB6A9A4202D34FF001033B6040F211
:104620001C13C2F200031B68002BBAD140F27413B2
:10463000C2F200031B68002B18D00DE000F034F824
:1046400040F27413C2F200031B6803F1FF3240F220
:104650007413C2F200031A6040F27413C2F2000332
:104660001B68002BEAD14FF001033B603B68012B34
:1046700006D040F27813C2F200031B68012B0BD165
:104680004FF001037B6040F27813C2F200034FF059
:1046900000021A6001F044FD01F064FD7B681846D9
:1046A00007F10C07BD4690BD80B584B000AF40F265
:1046B0007013C2F200031B68002B40F0CD8040F263
:1046C0006013C2F200031B6803F1010240F26013A1
:1046D000C2F200031A6040F26013C2F200031B68CA
:1046E000002B4DD140F21413C2F200031B681B686B
:1046F000002B04D04FF0500080F31188FEE740F209
:104700001413C2F200031B68FB6040F21813C2F2DC
:1047100000031A6840F21413C2F200031A6040F258
:104720001813C2F20003FA681A6040F27C13C2F256
:1047300000031B6803F1010240F27C13C2F2000384
:104740001A6040F21413C2F200031B681B68002BAE
:1047500007D140F26403C2F200034FF0FF321A6047
:104760000EE040F21413C2F200031B68DB68DB6842
:10477000BB60BB685A6840F26403C2F200031A606F
:1047800040F26013C2F200031A6840F26403C2F2FE
:1047900000031B689A426BD340F21413C2F2000369
:1047A0001B681B68002B07D140F26403C2F20003B0
:1047B0004FF0FF321A605BE040F21413C2F20003C4
:1047C0001B68DB68DB68BB60BB685B687B6040F2D2
:1047D0006013C2F200031A687B689A4206D240F264
:1047E0006403C2F200037A681A6041E0BB6803F117
:1047F0000403184600F034FEBB689B6A002B05D00A
:10480000BB6803F11803184600F02AFEBB68DA6A99
:1048100040F26813C2F200031B689A4206D9BB68D3
:10482000DA6A40F26813C2F200031A60BB68DA6AFF
:1048300013464FEA83039B184FEA83031A4640F25C
:104840008803C2F20003D218BB6803F104031046C8
:10485000194600F09FFD9FE740F27413C2F2000377
:104860001B6803F1010240F27413C2F200031A60E4
:1048700007F11007BD4680BD80B582B000AF40F2A1
:104880007013C2F200031B68002B07D040F27813AC
:10489000C2F200034FF001021A609CE040F2840370
:1048A000C2F200031B681A6840F28403C2F20003DC
:1048B0001B681B6B9A420FD840F28403C2F20003BC
:1048C0001A6840F28403C2F200031B6803F1340348
:1048D00010461946FEF740FE40F28403C2F2000380
:1048E0001B681B6B184647F24841C0F600014FF0A9
:1048F000140202F0D9FA0346002B29D040F28403B7
:10490000C2F200031A6840F28403C2F200031B687B
:1049100003F1340310461946FEF71EFE19E040F27B
:104920006813C2F200031B68002B04D14FF0500043
:1049300080F31188FEE740F26813C2F200031B689F
:1049400003F1FF3240F26813C2F200031A6000E084
:1049500000BF40F26813C2F200031A6813464FEA20
:1049600083039B184FEA83031A4640F28803C2F27E
:104970000003D3181B68002BD1D040F26813C2F299
:1049800000031A6813464FEA83039B184FEA830318
:104990001A4640F28803C2F20003D3187B607B689A
:1049A0005B685B681A467B685A607B685A687B68FC
:1049B00003F108039A4205D17B685B685B681A467D
:1049C0007B685A607B685B68DB681A4640F2840348
:1049D000C2F200031A6007F10807BD4680BD00BFA0
:1049E00080B584B000AF786039607B68002B04D15B
:1049F0004FF0500080F31188FEE740F28403C2F2CA
:104A000000031B6803F118037868194600F0ECFCFA
:104A100040F28403C2F200031B6803F1040318464A
:104A200000F01EFD3B68B3F1FF3F0ED140F284035E
:104A3000C2F200031B6803F1040340F24810C2F203
:104A40000000194600F0A6FC0AE040F26013C2F232
:104A500000031A683B68D318FB60F86800F0EAF9B5
:104A600007F11007BD4680BD80B584B000AF786007
:104A70007B68DB68DB68BB60BB68002B04D14FF050
:104A8000500080F31188FEE7BB6803F11803184655
:104A900000F0E6FC40F27013C2F200031B68002B2A
:104AA0002BD1BB6803F10403184600F0D9FCBB68A6
:104AB000DA6A40F26813C2F200031B689A4206D910
:104AC000BB68DA6A40F26813C2F200031A60BB687E
:104AD000DA6A13464FEA83039B184FEA83031A46A8
:104AE00040F28803C2F20003D218BB6803F104034A
:104AF0001046194600F04EFC09E0BB6803F11803AC
:104B000040F21C10C2F20000194600F043FCBB68E2
:104B1000DA6A40F28403C2F200031B68DB6A9A423D
:104B200003D34FF00103FB6002E04FF00003FB6092
:104B3000FB68184607F11007BD4680BD80B483B0FE
:104B400000AF78607B68002B04D14FF0500080F3F9
:104B50001188FEE740F27C13C2F200031A687B68FA
:104B60001A6040F26013C2F200031A687B685A6050
:104B700007F10C07BD4680BC704700BF80B584B00C
:104B800000AF786039607B68002B04D14FF0500093
:104B900080F31188FEE73B68002B04D14FF05000F2
:104BA00080F31188FEE701F0C7FA3B681B68B3F198
:104BB000FF3F03D14FF00003FB6038E07B681A68C9
:104BC00040F27C13C2F200031B689A420CD07B684F
:104BD0005A6840F26013C2F200031B689A4203D87D
:104BE0004FF00103FB6022E040F26013C2F20003C9
:104BF0001A687B685B68D21A3B681B689A4213D2BA
:104C00003B681A687B68596840F26013C2F200037F
:104C10001B68CB1AD2183B681A607868FFF78EFFC2
:104C20004FF00003FB6002E04FF00103FB6001F076
:104C300099FAFB68184607F11007BD4680BD00BF12
:104C400080B400AF40F27813C2F200034FF00102CB
:104C50001A60BD4680BC704780B582B000AF7860F6
:104C600000F09CF840F28803C2F200031B68012B9D
:104C700001D901F055FAFEF775FCF1E780B584B073
:104C800000AFF860B9607A603B60FB6803F1340301
:104C90001A46BB68104619464FF00A0202F062FA43
:104CA000FB684FF0000283F83D207B68042B02D99B
:104CB0004FF004037B60FB687A68DA62FB687A680D
:104CC0001A64FB6803F10403184600F055FBFB6807
:104CD00003F11803184600F04FFBFB68FA681A61ED
:104CE0007B68C3F10502FB689A61FB68FA685A6247
:104CF00007F11007BD4680BD80B582B000AF4FF010
:104D000000037B6013E07A6813464FEA83039B1825
:104D10004FEA83031A4640F28803C2F20003D31815
:104D2000184600F005FB7B6803F101037B607B689C
:104D3000042BE8D940F2EC00C2F2000000F0F8FACF
:104D400040F20010C2F2000000F0F2FA40F21C1033
:104D5000C2F2000000F0ECFA40F23010C2F20000A3
:104D600000F0E6FA40F24810C2F2000000F0E0FA6B
:104D700040F21413C2F2000340F2EC02C2F200024D
:104D80001A6040F21813C2F2000340F20012C2F29D
:104D900000021A6007F10807BD4680BD80B582B0E9
:104DA00000AF40F24413C2F200031B68002B3CD05A
:104DB000FFF7B2FB40F23013C2F200031B68002B76
:104DC00014BF002301237B60FFF7B8FB7B68002B37
:104DD0002BD101F0B1F940F23013C2F20003DB68CD
:104DE000DB683B603B6803F10403184600F038FBC6
:104DF00040F25C13C2F200031B6803F1FF3240F281
:104E00005C13C2F200031A6040F24413C2F20003C2
:104E10001B6803F1FF3240F24413C2F200031A6030
:104E200001F0A0F9386800F085F807F10807BD46E1
:104E300080BD00BF80B582B000AF786040F28403CF
:104E4000C2F200031B687A685A6040F26013C2F233
:104E500000031B687A689A4210D240F21813C2F21B
:104E600000031A6840F28403C2F200031B6803F1D6
:104E700004031046194600F0B7FA1DE040F214137F
:104E8000C2F200031A6840F28403C2F200031B68F6
:104E900003F104031046194600F0A6FA40F2640339
:104EA000C2F200031B687A689A4205D240F264039A
:104EB000C2F200037A681A6007F10807BD4680BD98
:104EC00080B584B000AF03463960FB804FF04400EA
:104ED00001F0FEFC0346FB60FB68002B23D03B681F
:104EE000002B07D1FB884FEA8303184601F0F0FC42
:104EF000034600E03B68FA681363FB681B6B002BFA
:104F000006D1F86801F036FD4FF00003FB600AE0BF
:104F1000FB681A6BFB884FEA830310464FF0A5012C
:104F20001A4602F095F8FB68184607F11007BD46CF
:104F300080BD00BF80B582B000AF78607B681B6B1E
:104F4000184601F017FD786801F014FD07F1080715
:104F5000BD4680BD80B483B000AF40F28403C2F28E
:104F600000031B687B607B68184607F10C07BD4691
:104F700080BC704780B584B000AF78607B68FB6010
:104F80007B68002B04D14FF0500080F31188FEE7BE
:104F9000FB68DA6A40F28403C2F200031B68DB6A32
:104FA0009A4257D240F28403C2F200031B68DB6AC4
:104FB000C3F10502FB689A61FB685969FB68DA6A0C
:104FC00013464FEA83039B184FEA83031A4640F2C5
:104FD0008803C2F20003D318994233D1FB6803F16E
:104FE0000403184600F03CFA40F28403C2F20003C6
:104FF0001B68DA6AFB68DA62FB68DA6A40F26813F7
:10500000C2F200031B689A4206D9FB68DA6A40F2D2
:105010006813C2F200031A60FB68DA6A13464FEAAB
:1050200083039B184FEA83031A4640F28803C2F2B7
:105030000003D218FB6803F104031046194600F080
:10504000A9F907E040F28403C2F200031B68DA6AA0
:10505000FB68DA6207F11007BD4680BD80B584B0F9
:1050600000AF78607B68FB607B68002B3AD0FB6800
:10507000DA6AFB681B6C9A4234D0FB6803F10403C4
:10508000184600F0EDF9FB681A6CFB68DA62FB6801
:10509000DB6AC3F10502FB689A61FB68DA6A40F2D9
:1050A0006813C2F200031B689A4206D9FB68DA6AE9
:1050B00040F26813C2F200031A60FB68DA6A134612
:1050C0004FEA83039B184FEA83031A4640F2880392
:1050D000C2F20003D218FB6803F10403104619461C
:1050E00000F058F907F11007BD4680BD80B487B0C5
:1050F00000AF786039604FF000037B614FF0000330
:105100003B614FF00003FB604FF000037B618FE0D9
:105110007B694FF0010202FA03F33B613B681A68B6
:105120003B6902EA0303FB60FA683B699A427BD160
:105130007B681B681A467B694FEA43034FF0030103
:1051400001FA03F36FEA03031A407B681A607B6875
:105150001B681A463B681B7919467B694FEA430373
:1051600001FA03F31A437B681A603B681B79012B31
:1051700003D03B681B79022B38D17B689B681A46A9
:105180007B694FEA43034FF0030101FA03F36FEA2F
:1051900003031A407B689A607B689B681A463B68E9
:1051A0005B7919467B694FEA430301FA03F31A431B
:1051B0007B689A607B685B681A467B699BB24FF09C
:1051C000010101FA03F36FEA03031A407B685A6096
:1051D0007B685B681A463B689B7919467B699BB282
:1051E00001FA03F39BB21A437B685A607B68DB6861
:1051F0001A467B699BB24FEA43034FF0030101FA61
:1052000003F36FEA03031A407B68DA607B68DB68AC
:105210001A463B68DB7919467B694FEA430301FA7A
:1052200003F31A437B68DA607B6903F101037B6156
:105230007B690F2B7FF66CAF07F11C07BD4680BC66
:10524000704700BF80B483B000AF78607B684FF6D2
:10525000FF721A607B684FF000021A717B684FF092
:1052600000025A717B684FF000029A717B684FF020
:105270000002DA7107F10C07BD4680BC704700BF21
:1052800080B485B000AF786013460A467A807B70A0
:105290004FF00003FB604FF00003BB607A787B881F
:1052A00003F007034FEA830302FA03F3FB607B88F2
:1052B0004FEAD3039BB21A467B884FEAD3039BB2D3
:1052C00019467B6801F1080153F8213019467B88A3
:1052D00003F007034FEA83034FF00F0000FA03F3D4
:1052E0006FEA030319407B6802F1080243F82210B9
:1052F0007B884FEAD3039BB21A467B6802F108020F
:1053000053F822301A46FB6842EA0303BB607B88ED
:105310004FEAD3039BB21A467B6802F10802B968D0
:1053200043F8221007F11407BD4680BC704700BF48
:1053300080B483B000AF78607B6803F108031A463D
:105340007B685A607B684FF0FF329A607B6803F19C
:1053500008031A467B68DA607B6803F108031A4683
:105360007B681A617B684FF000021A6007F10C0736
:10537000BD4680BC704700BF80B483B000AF78608A
:105380007B684FF000021A6107F10C07BD4680BC34
:10539000704700BF80B485B000AF786039607B682B
:1053A0005B68FB60FB685B681A463B685A607B6819
:1053B0005A683B689A60FB685B683A689A603A682A
:1053C000FB685A603A687B685A603B687A681A6181
:1053D0007B681B6803F101027B681A6007F1140700
:1053E000BD4680BC704700BF80B485B000AF786018
:1053F00039603B681B68BB60BB68B3F1FF3F03D1FA
:105400007B681B69FB600EE07B6803F10803FB60AF
:1054100002E0FB685B68FB60FB685B681B681A4620
:10542000BB689A42F5D9FB685B681A463B685A60CC
:105430003B685B683A689A603B68FA689A603A68C9
:10544000FB685A603B687A681A617B681B6803F1E5
:1054500001027B681A6007F11407BD4680BC7047E3
:1054600080B485B000AF78607B685B687A689268CA
:105470009A607B689B687A6852685A607B681B698F
:10548000FB60FB685A687B689A4203D17B689A6824
:10549000FB685A607B684FF000021A61FB681B686A
:1054A00003F1FF32FB681A6007F11407BD4680BCA8
:1054B000704700BF80B500AF4FF46053C4F20203E1
:1054C0004FF46052C4F20202126842F001021A6004
:1054D0004FF46053C4F202034FF000029A604FF49D
:1054E0006053C4F202034FF46052C4F20202126825
:1054F00022F0847222F480321A604FF46053C4F2B6
:10550000020343F21002C2F200425A604FF46053A9
:10551000C4F202034FF46052C4F20202126822F491
:1055200080221A604FF46053C4F202034FF000026D
:10553000DA6000F009F84FF46D43CEF200034FF04B
:1055400000629A6080BD00BF80B483B000AF4FF0AE
:1055500000037B604FF000033B604FF46053C4F2E4
:1055600002034FF46052C4F20202126842F4803225
:105570001A604FF46053C4F202031B6803F4003353
:105580003B607B6803F101037B603B68002B03D128
:105590007B68B3F5A06FECD14FF46053C4F2020303
:1055A0001B6803F40033002B03D04FF001033B6072
:1055B00002E04FF000033B603B68012B69D14FF4E0
:1055C0006053C4F202034FF46052C4F202029268C4
:1055D0009A604FF46053C4F202034FF46052C4F275
:1055E0000202926842F400429A604FF46053C4F29F
:1055F00002034FF46052C4F20202926842F4A052D5
:105600009A604FF46053C4F2020343F20402C0F6FE
:1056100043025A604FF46053C4F202034FF46052E5
:10562000C4F20202126842F080721A6000BF4FF4A6
:105630006053C4F202031B6803F00073002BF6D022
:105640004FF47053C4F2020340F201721A604FF437
:105650006053C4F202034FF46052C4F20202926833
:1056600022F003029A604FF46053C4F202034FF435
:105670006052C4F20202926842F002029A6000BFD5
:105680004FF46053C4F202039B6803F00C03082B31
:10569000F6D107F10C07BD4680BC704780B590B0CD
:1056A00004AF07F118031846FEF70AFB07F10803D9
:1056B0001846FEF75BFB4FF001004FF00101FEF7CB
:1056C000C3F83B461846FFF7BDFD4FF003033B719F
:1056D0004FF001033B603B464FF00000C4F2020074
:1056E0001946FFF703FD4FF480704FF00101FEF7FC
:1056F00007F9FEF773FA4FF00003BB604FF00003A9
:10570000FB6007F108031846FEF700FB4FF00003AB
:105710003B774FF000037B774FF000037B624FF045
:105720000003BB624FF0010387F82C3007F1180328
:105730004FF40050C4F201001946FEF75FFA4FF42F
:105740000050C4F201004FF000014FF001024FF091
:105750000403FEF741FB4FF40050C4F201004FF088
:105760000101FEF71DFB47F25C43C0F600034FF05A
:10577000010200924FF0000201924FF000020292EB
:105780004FF00002039245F2A570C0F600001946E2
:105790004FF080024FF00003FEF7FEFC07F13007E8
:1057A000BD4680BD80B584B000AF78604FF0000387
:1057B000FB604FF00003FB724FF00003FB604FF003
:1057C0000003FB7221E04FF40050C4F20100FEF729
:1057D000EBFB01E000F0A4FC4FF40050C4F2010028
:1057E0004FF00201FEF7FEFB0346002BF2D04FF410
:1057F0000050C4F20100FEF7E7FB0346FA68D31835
:10580000FB60FB7A03F10103FB72FB7A072BDAD909
:10581000FB684FEAD303FB604FF0C800FEF70CFEB5
:10582000CAE700BF80B582B000AF786039607B689E
:10583000002B04D14FF0500080F31188FEE700F0F8
:105840007BFC7B681A687B68DB6B7968096C01FB01
:1058500003F3D2187B685A607B684FF000029A63AA
:105860007B681A687B689A607B681A687B68DB6B68
:1058700003F1FF337968096C01FB03F3D2187B68ED
:10588000DA607B684FF0FF325A647B684FF0FF327A
:105890009A643B68002B0FD17B681B69002B17D0E3
:1058A0007B6803F110031846FFF7DEF80346012B6F
:1058B0000ED100F035FC0BE07B6803F110031846B5
:1058C000FFF736FD7B6803F124031846FFF730FD30
:1058D00000F048FC4FF00103184607F10807BD46E9
:1058E00080BD00BF80B588B000AFF860B9601346D6
:1058F000FB714FF00003FB61FB68002B2BD04FF0D6
:105900004C0000F0E5FF0346BB61BB69002B22D0D1
:10591000FB68BA6802FB03F303F101037B6178695A
:1059200000F0D6FF03461A46BB691A60BB691B68C4
:10593000002B0DD0BB69FA68DA63BB69BA681A64D8
:10594000B8694FF00101FFF76DFFBB69FB6102E031
:10595000B86901F00FF8FB69002B04D14FF050003B
:1059600080F31188FEE7FB69184607F12007BD4662
:1059700080BD00BF80B584B000AF0346FB714FF01F
:105980004C0000F0A5FF0346FB60FB68002B38D0FD
:10599000FB684FF000025A60FB684FF000021A608B
:1059A000FB684FF000029A60FB684FF00002DA607B
:1059B000FB684FF000029A63FB684FF00102DA6364
:1059C000FB684FF000021A64FB684FF0FF325A6424
:1059D000FB684FF0FF329A64FB6803F1100318462E
:1059E000FFF7A6FCFB6803F124031846FFF7A0FCB1
:1059F000F8684FF000014FF000024FF0000300F094
:105A00000FF8FB68002B04D14FF0500080F3118891
:105A1000FEE7FB68184607F11007BD4680BD00BFD2
:105A200080B588B000AFF860B9607A603B604FF035
:105A30000003FB61FB68002B04D14FF0500080F3A2
:105A40001188FEE7BB68002B03D1FB681B6C002BA1
:105A500002D14FF0010301E04FF00003002B05D10C
:105A60004FF0500080F31188FEE700BF00F064FBA8
:105A7000FB689B6B1A46FB68DB6B9A4218D2F8688E
:105A8000B9683A6800F0BCF9FB685B6A002B0AD081
:105A9000FB6803F124031846FEF7E6FF0346012BDB
:105AA00001D100F03DFB00F05DFB4FF001035DE034
:105AB0007B68002B04D100F055FB4FF0000355E04C
:105AC000FB69002B07D107F114031846FFF736F8DE
:105AD0004FF00103FB6100F045FBFEF71DFD00F0F8
