:020000040800F2
:10000000141F0020F51800085D1900085D1900088C
:100010005D1900085D1900085D1900080000000066
:10002000000000000000000000000000A5580008CB
:100030005D19000800000000C1590008115A0008AD
:100040005D190008656700085D1900085D19000862
:100050005D1900085D190008050F00085D1900080A
:100060005D1900085D1900085D1900085D19000898
:100070005D1900085D1900085D1900085D19000888
:100080005D1900085D1900085D1900085D19000878
:100090005D1900085D1900085D190008290F0008A6
:1000A0005D1900083D1F00085D1900085D19000872
:1000B0005D1900085D1900085D1900085D19000848
:1000C0005D1900085D1900085D1900085D19000838
:1000D0005D1900085D1900085D1900085D19000828
:1000E0005D1900085D1900085D1900085D19000818
:1000F0005D1900085D1900085D1900085D19000808
:100100005D1900085D1900085D1900085D190008F7
:100110005D1900085D1900085D1900085D190008E7
:100120005D1900085D1900085D1900085D190008D7
:100130005D1900085D1900085D1900085D190008C7
:100140005D1900085D1900085D1900085D190008B7
:100150005D1900085D1900085D1900085D190008A7
:100160005D1900085D1900085D1900085D19000897
:100170005D1900085D1900085D1900085D19000887
:100180005D1900085D19000890B484B000AF024604
:100190000B46FA71BB714FF00003FB60BB7903F0B3
:1001A00003034FEA83034FF00F0202FA03F3FB60ED
:1001B0004FF46053C4F20103BA794FEA9202D2B20B
:1001C00010464FF46052C4F20102B9794FEA91012E
:1001D000C9B201F1020152F821201146FA686FEA12
:1001E0000202114000F1020243F822104FF4605362
:1001F000C4F20103BA794FEA9202D2B210464FF428
:100200006052C4F20102B9794FEA9101C9B201F119
:10021000020152F821201146FC79BA7902F003025A
:100220004FEA820204FA02F2114300F1020243F89B
:10023000221007F11007BD4690BC7047F0B587B09B
:1002400000AF03463960FB714FF00003FB754FF0C0
:100250000003BB754FF000037B754FF000033B7547
:10026000FB794FF0160202FB03F2054BD3183B61FA
:100270003B691B88022B05D94FF00003A2E300BFA6
:1002800050160020386806F0ABFB03463B7541F280
:100290001073C2F200031B6818464FF000014FF0C4
:1002A000FF324FF0000305F0C5F80346012B40F084
:1002B00088833B695B8819463B691B883A69D0890A
:1002C00041F21462C2F200024FF01A0404FB03F47C
:1002D0000B464FEA03135B1A4FEA4303E318D318A4
:1002E00003F1020302461A803B695B8819463B69A9
:1002F0001B883A69108A41F21462C2F200024FF080
:100300001A0404FB03F40B464FEA03135B1A4FEA8B
:100310004303E318D31803F1040302461A803B6930
:100320005B8819463B691B883A69908941F21462DF
:10033000C2F200024FF01A0404FB03F40B464FEA2A
:1003400003135B1A4FEA4303E318D31803F10603C0
:1003500002461A803B695B8819463B691B883A69EB
:10036000108941F21462C2F200024FF01A0404FB39
:1003700003F40B464FEA03135B1A4FEA4303E318F7
:10038000D31803F1080302461A803B695B881946BB
:100390003B691B883A69508941F21462C2F200023B
:1003A0004FF01A0404FB03F40B464FEA03135B1AE5
:1003B0004FEA4303E318D31803F10A0302461A80F5
:1003C0003B695B8819463B691B8841F21462C2F2A3
:1003D00000024FF01A0000FB03F00B464FEA031334
:1003E0005B1A4FEA4303C318D31803F10C034FF40D
:1003F00080721A803B695B8819463B691B8841F211
:100400001462C2F200024FF01A0000FB03F00B4628
:100410004FEA03135B1A4FEA4303C318D31803F1DF
:100420000E034FF400721A803B695B8819463B69E2
:100430001B8841F21462C2F200024FF01A0000FB66
:1004400003F00B464FEA03135B1A4FEA4303C3184A
:10045000D31803F110034FF440721A803B695B8894
:1004600019463B691B8841F21462C2F200024FF048
:100470001A0000FB03F00B464FEA03135B1A4FEA26
:100480004303C318D31803F112034FF480621A8098
:100490003B695B8819463B691B8841F21462C2F2D2
:1004A00000024FF01A0000FB03F00B464FEA031363
:1004B0005B1A4FEA4303C318D31803F114034FF434
:1004C000A0621A803B695B8819463B691B8841F230
:1004D0001462C2F200024FF01A0000FB03F00B4658
:1004E0004FEA03135B1A4FEA4303C318D31803F10F
:1004F00016034FF4C0621A803B695B8819463B695A
:100500001B8841F21462C2F200024FF01A0000FB95
:1005100003F00B464FEA03135B1A4FEA4303C31879
:10052000D31803F118034FF4E0621A803B695B882B
:1005300019463B691B8841F21462C2F200024FF077
:100540001A0000FB03F00B464FEA03135B1A4FEA55
:100550004303C318D31803F11A034FF400621A803F
:100560007B7D03F105037B7597F914300A2B02DDBF
:100570004FF00A033B754FF00003FB750AE297F951
:1005800017303A68D3181B782F2B65D997F9173095
:100590003A68D3181B78392B5ED897F917303A6828
:1005A000D3181B78A3F1300246F6BC23C0F6000333
:1005B0009B18DB7FFB733B695B881C463B691B8890
:1005C00018467E7D3B695B881D463B691B881A4641
:1005D00097F815E041F21461C2F2000113464FEAA8
:1005E00043039B184FEA83039B182A464FEA0212E3
:1005F000521B9B1873444FEA4303CB185B889AB293
:10060000FB7B99B27B7DA3F104039BB24FEA0323EA
:100610009BB29BB241EA03039BB242EA03039BB243
:100620009DB241F21461C2F2000103464FEA430356
:100630001B184FEA83031B1822464FEA0212121BB3
:100640009B189B194FEA4303CB182A465A807B7D9F
:1006500003F101037B7599E197F917303A68D318D4
:100660001B782E2B40F0178197F9172097F914303B
:1006700003F1FF339A4280F2CD8097F9173003F1EE
:1006800001033A68D3181B782E2B40F082803B6917
:100690005B881C463B691B8818467E7D3B695B88EE
:1006A0001D463B691B881A4697F815E041F2146114
:1006B000C2F2000113464FEA43039B184FEA83033B
:1006C0009B182A464FEA0212521B9B1873444FEAAA
:1006D0004303CB185B8843F080039DB241F2146161
:1006E000C2F2000103464FEA43031B184FEA83039B
:1006F0001B1822464FEA0212121B9B189B194FEA45
:100700004303CB182A465A803B695B881C463B69E9
:100710001B8818467B7D03F1FF363B695B881D46CD
:100720003B691B881A467B7D03F1FF3E41F2146151
:10073000C2F2000113464FEA43039B184FEA8303BA
:100740009B182A464FEA0212521B9B1873444FEA29
:100750004303CB185B8843F080039DB241F21461E0
:10076000C2F2000103464FEA43031B184FEA83031A
:100770001B1822464FEA0212121B9B189B194FEAC4
:100780004303CB182A465A807B7D03F101037B7516
:10079000FCE03B695B881C463B691B8818467B7DF7
:1007A00003F1FF363B695B881D463B691B881A468F
:1007B0007B7D03F1FF3E41F21461C2F2000113465A
:1007C0004FEA43039B184FEA83039B182A464FEADC
:1007D0000212521B9B1873444FEA4303CB185B88E9
:1007E00043F080039DB241F21461C2F2000103465E
:1007F0004FEA43031B184FEA83031B1822464FEAB4
:100800000212121B9B189B194FEA4303CB182A466E
:100810005A80BBE03B695B881C463B691B881846D5
:100820007B7D03F1FF363B695B881D463B691B8876
:100830001A467B7D03F1FF3E41F21461C2F20001D2
:1008400013464FEA43039B184FEA83039B182A463B
:100850004FEA0212521B9B1873444FEA4303CB1812
:100860005B8843F080039DB241F21461C2F2000143
:1008700003464FEA43031B184FEA83031B18224623
:100880004FEA0212121B9B189B194FEA4303CB1825
:100890002A465A807AE04FF00A03BB756BE097F95D
:1008A00017303A68D3181A7897F9161046F6BC2311
:1008B000C0F600035B5C9A4259D197F9162046F6C0
:1008C000BC23C0F600039B18DB7FBB733B695B88CE
:1008D0001C463B691B8818467E7D3B695B881D462C
:1008E0003B691B881A4697F815E041F21461C2F281
:1008F000000113464FEA43039B184FEA83039B18FA
:100900002A464FEA0212521B9B1873444FEA4303D4
:10091000CB185B889AB2BB7B99B27B7DA3F10403B1
:100920009BB24FEA03239BB29BB241EA03039BB203
:1009300042EA03039BB29DB241F21461C2F200018C
:1009400003464FEA43031B184FEA83031B18224652
:100950004FEA0212121B9B189B194FEA4303CB1854
:100960002A465A807B7D03F101037B7507E0BB7D3E
:1009700003F10103BB7597F916301E2B8FDD7A7DCD
:100980003B69DB8803F105039A420BDCFB7D03F135
:100990000103FB7597F9172097F914309A42FFF677
:1009A000EEAD00E000BF41F21073C2F200031B681D
:1009B00018464FF000014FF000024FF0000304F022
:1009C0008DFC7B7D184607F11C07BD46F0BD00BFBE
:1009D00080B586B004AF4FF002004FF0010101F086
:1009E0002FF94FF004033B604FF000037B714FF091
:1009F00001033B714FF00003BB714FF00003FB712B
:100A00003B464FF48060C4F20200194604F08EF8B1
:100A10004FF48063C4F202034FF004025A8346F697
:100A2000FC23C0F600034FF00102009241F2F452A1
:100A3000C2F2000201924FF0000202924FF0000257
:100A4000039240F68120C0F6000019464FF04002A4
:100A50004FF0000301F076FB41F2F453C2F20003C1
:100A60001B68184601F08CFC41F27C63C2F2000363
:100A70004FF0010283F82C2007F10807BD4680BD26
:100A800080B582B000AF786041F2F053C2F200034B
:100A90001B78012B40F0CC8041F2F053C2F20003EE
:100AA0005B78042B00F2C08001A252F823F000BF53
:100AB000C50A0008F90A0008590B0008E50B0008F0
:100AC000F50B00084FF48063C4F202034FF00402F8
:100AD0001A834FF0C80001F025FC4FF48063C4F284
:100AE00002034FF004025A8341F2F053C2F20003B2
:100AF0004FF000021A709BE04FF48063C4F20203CF
:100B00004FF004021A834FF0640001F00BFC4FF425
:100B10008063C4F202034FF004025A834FF0640072
:100B200001F000FC4FF48063C4F202034FF00402B2
:100B30001A834FF0640001F0F5FB4FF48063C4F2B8
:100B400002034FF004025A8341F2F053C2F2000351
:100B50004FF000021A706BE04FF48063C4F202039E
:100B60004FF004021A834FF0320001F0DBFB4FF428
:100B70008063C4F202034FF004025A834FF0320044
:100B800001F0D0FB4FF48063C4F202034FF0040283
:100B90001A834FF0320001F0C5FB4FF48063C4F2BA
:100BA00002034FF004025A834FF0320001F0BAFB07
:100BB0004FF48063C4F202034FF004021A834FF033
:100BC000320001F0AFFB4FF48063C4F202034FF038
:100BD00004025A8341F2F053C2F200034FF00002C4
:100BE0001A7025E04FF48063C4F202034FF0040250
:100BF0001A831DE04FF48063C4F202034FF0040235
:100C00001A834FF47A7001F08DFB4FF48063C4F2C5
:100C100002034FF004025A8341F2F053C2F2000380
:100C20004FF000021A7003E04FF4FA7001F07AFB03
:100C300041F27C63C2F200039B6A03F1010241F2BC
:100C40007C63C2F200039A6241F2F453C2F20003E1
:100C50001B68184601F094FB41F27C63C2F200036A
:100C60004FF0010283F82C200EE700BF80B582B060
:100C700000AF02460B46FA71BB71BB7903F001036A
:100C8000DBB2002B1ED041F2F053C2F200031B78FE
:100C9000002B0ED141F2F453C2F200031B68184638
:100CA00001F0FEFB41F2F053C2F200034FF00102EB
:100CB0001A7041F27C63C2F200034FF0000283F825
:100CC0002C2024E041F2F053C2F200031B78012BE8
:100CD0000ED141F2F453C2F200031B68184601F032
:100CE0004FFB41F2F053C2F200034FF000021A70C2
:100CF00041F27C63C2F200034FF0010283F82C2022
:100D00004FF48063C4F202034FF004025A83FB796C
:100D100003F00703DAB241F2F053C2F200035A7053
:100D200007F10807BD4680BD80B58AB004AF4FF01B
:100D300001004FF0010100F083FF4FF480404FF0BD
:100D4000010100F0D9FF4FF0C1033B614FF00003F8
:100D50003B754FF00103FB7507F110034FF00000E6
:100D6000C4F20200194603F0E1FE4FF000004FF01C
:100D70000001FFF709FA4FF00103BB604FF00003D9
:100D80003B734FF00C037B734FF00103BB7307F110
:100D90000803184604F002FF4FF000004FF0060170
:100DA000FFF7F2F94FF04003BB604FF000033B73D5
:100DB0004FF00C037B734FF00103BB7307F1080383
:100DC000184604F0EBFE4FF000004FF00701FFF76C
:100DD000DBF94FF08003BB604FF000033B734FF033
:100DE0000C037B734FF00103BB7307F10803184634
:100DF00004F0D4FE4FF006033B714FF001037B710A
:100E00004FF00103BB714FF00103FB7107F10403C5
:100E1000184605F091FA4FF017033B714FF00103AC
:100E20007B714FF00103BB714FF00103FB7107F1C0
:100E30000403184605F080FA46F60433C0F60003B2
:100E40004FF0010200924FF0000201924FF00002B9
:100E500002924FF00002039240F67960C0F6000063
:100E600019464FF040024FF0000301F06BF907F113
:100E70001807BD4680BD00BF80B582B000AF786066
:100E80004FF00000C4F202004FF0010103F0FAFE3F
:100E90000346002B03D14FF0040000F0ABFB4FF0F2
:100EA0000000C4F202004FF0400103F0EBFE0346E5
:100EB000002B07D141F2F853C2F200034FF00202B7
:100EC000DA7619E04FF00000C4F202004FF0800122
:100ED00003F0D8FE0346002B07D141F2F853C2F2CB
:100EE00000034FF00102DA7606E041F2F853C2F255
:100EF00000034FF00002DA764FF0640001F012FABE
:100F0000BEE700BF80B500AF4FF0010004F0F2FE75
:100F10000346002B07D04FF0010004F01BFF4FF0F9
:100F2000040000F067FB80BD80B500AF4FF04000CB
:100F300004F0E0FE0346002B07D04FF0400004F021
:100F400009FF4FF0020000F055FB4FF0800004F065
:100F5000D1FE0346002B07D04FF0800004F0FAFECC
:100F60004FF0030000F046FB80BD00BF80B483B0AB
:100F700000AF0346FB714FF02003C4F20E23FA7951
:100F80001A6007F10C07BD4680BC704780B483B07F
:100F900000AF0346FB714FF0A403C4F20E23FA79AD
:100FA0001A6007F10C07BD4680BC704780B582B05F
:100FB00000AF4FF004004FF0010100F041FE4FF090
:100FC0000F033B604FF000037B714FF001033B7157
:100FD0004FF00103BB714FF00003FB713B464FF430
:100FE0000060C4F20200194603F0A0FD4FF4006354
:100FF000C4F202034FF00F025A8341F2F853C2F2D7
:1010000000034FF48042C4F202021A6041F2F85326
:10101000C2F200034FF000021A7641F2F853C2F216
:1010200000034FF000029A7641F2F853C2F2000337
:101030004FF000025A7641F2F853C2F200031B68E7
:101040001A6A41F2F853C2F200035A6041F2F853AF
:10105000C2F200034FF40042C8F200025A6041F2AB
:10106000F853C2F200034FF000021A7441F2F85331
:10107000C2F200034FF000025A6141F2F853C2F28B
:1010800000034FF00002DA7607F10807BD4680BD85
:1010900080B582B000AF78604FF0000000F052FAE7
:1010A00041F2F853C2F200031B7E002B40F0858012
:1010B00041F2F853C2F200035B7E002B7DD14FF06A
:1010C000010000F03FFA41F2F853C2F200035A68FF
:1010D0007B689A4230D941F2F853C2F20003DB7EBA
:1010E000022B02D14FF0020369E041F2F853C2F241
:1010F00000031B689B8B184600F032FB03467A689E
:10110000D21A41F2F853C2F200039A6041F2F85346
:10111000C2F200031B685B8B184600F021FB0346FC
:101120007A68D21A41F2F853C2F20003DA604FF043
:10113000000000F02FFA2FE041F2F853C2F2000352
:10114000DB7E012B02D14FF0020338E041F2F8536D
:10115000C2F200031B689B8B184600F001FB02469D
:101160007B68D21841F2F853C2F200039A6041F250
:10117000F853C2F200031B685B8B184600F0F0FACC
:1011800002467B68D21841F2F853C2F20003DA60DB
:101190004FF0010000F0FEF941F2F853C2F20003F3
:1011A0004FF000029A7641F2F853C2F200034FF07A
:1011B00003021A764FF0000301E04FF001031846D6
:1011C00007F10807BD4680BD90B585B000AF024667
:1011D0000B46FA71BB804FF0000000F0B3F941F20A
:1011E000F853C2F200031B7E002B40F0A38141F2B2
:1011F000F853C2F200035B7E002B40F09B81FB7929
:10120000032B00F2948101A252F823F01D12000872
:1012100023120008D5120008971300084FF00003AE
:101220008AE141F2F853C2F20003DB7E022B02D1C5
:101230004FF0020380E141F2F853C2F200035C6810
:10124000BB88184600F08CFA0346E41841F2F853C4
:10125000C2F200031B689B8B184600F081FA03461C
:10126000E21A41F2F853C2F200039A6041F2F853D5
:10127000C2F200035C68BB88184600F071FA0346AE
:10128000E41841F2F853C2F200031B685B8B184666
:1012900000F066FA0346E21A41F2F853C2F2000384
:1012A000DA6041F2F853C2F200034FF000029A767E
:1012B00041F2F853C2F200034FF001021A764FF0E8
:1012C000010000F03FF94FF0000000F063F94FF02B
:1012D000000331E141F2F853C2F20003DB7E012B3F
:1012E00002D14FF0020327E1B7F90430002B03DAF3
:1012F000BB88C3F10003BB8041F2F853C2F2000384
:101300005C68BB88184600F02BFA0346E41A41F2E9
:10131000F853C2F200031B689B8B184600F020FABA
:101320000346E21841F2F853C2F200039A6041F218
:10133000F853C2F200035C68BB88184600F010FA4C
:101340000346E41A41F2F853C2F200031B685B8BB8
:10135000184600F005FA0346E21841F2F853C2F2CB
:101360000003DA6041F2F853C2F200034FF00002CA
:101370009A7641F2F853C2F200034FF002021A7655
:101380004FF0010000F0DEF84FF0010000F002F92C
:101390004FF00003D0E0BA8841F2F853C2F20003E4
:1013A0001B681B8AD31A9BB2FB814FF0010000F02F
:1013B000C9F8B7F90E30002B1BDB41F2F853C2F22B
:1013C0000003DB7E022B02D14FF00203B4E041F2B6
:1013D000F853C2F200031B685C69FB89184600F0F1
:1013E000BFF90346E21841F2F853C2F200039A60D3
:1013F0001EE041F2F853C2F20003DB7E012B02D162
:101400004FF0020398E041F2F853C2F200031B6868
:101410005C69FB89C3F100039BB29BB2184600F0E4
:101420009FF90346E21A41F2F853C2F200039A60B0
:1014300041F2F853C2F200039A6841F2F853C2F243
:1014400000035B689A4215D341F2F853C2F20003DD
:101450009C6841F2F853C2F200031B685B8B18468C
:1014600000F07EF90346E21A41F2F853C2F200039B
:10147000DA6014E041F2F853C2F200039C6841F2D2
:10148000F853C2F200031B685B8B184600F068F942
:101490000346E21841F2F853C2F20003DA60B7F9EA
:1014A0000E30002B19DB41F2F853C2F200039C68A6
:1014B00041F2F853C2F200031B689B8B184600F000
:1014C0004FF90346E21A41F2F853C2F200039A6060
:1014D0004FF0000000F05EF818E041F2F853C2F25D
:1014E00000039C6841F2F853C2F200031B689B8B17
:1014F000184600F035F90346E21841F2F853C2F2FB
:1015000000039A604FF0010000F044F841F2F853F4
:10151000C2F200034FF000029A7641F2F853C2F291
:1015200000034FF003021A764FF0000304E04FF07F
:10153000020301E04FF00103184607F11407BD460E
:1015400090BD00BF80B483B000AF0346FB71FB7950
:10155000002B02D0012B0AD013E04FF40063C4F239
:1015600002034FF008025A834FF000030BE04FF4E0
:101570000063C4F202034FF008021A834FF0000325
:1015800001E04FF00203184607F10C07BD4680BC8E
:10159000704700BF80B483B000AF0346FB71FB7996
:1015A000002B02D0012B0FD01DE04FF40063C4F2DA
:1015B00002034FF001021A834FF40063C4F20203E6
:1015C0004FF002025A830EE04FF40063C4F20203AC
:1015D0004FF001025A834FF40063C4F202034FF04C
:1015E00002021A8300BF184607F10C07BD4680BCF3
:1015F000704700BF80B584B000AF0346FB714FF465
:101600000063C4F202034FF00B025A83FB79A3F18B
:101610000203042B52D801A252F823F04D16000801
:10162000691600088516000831160008A116000882
:101630004FF002004FF00101FFF718FB41F2F853A1
:10164000C2F200034FF000025A763FE04FF0040070
:101650004FF00101FFF70AFB41F2F853C2F2000319
:101660004FF002025A7631E04FF004004FF00101D2
:10167000FFF7FCFA41F2F853C2F200034FF0020206
:101680005A7623E04FF004004FF00101FFF7EEFA25
:1016900041F2F853C2F200034FF002025A7615E00D
:1016A0004FF004004FF00101FFF7E0FA41F2F85368
:1016B000C2F200034FF002025A7607E041F2F853FB
:1016C000C2F200034FF002025A7600BF4FF001034E
:1016D000FB7341F20C73C2F200031A6807F10F03A7
:1016E000104619464FF000024FF0000303F0F6FDDC
:1016F00041F2F853C2F20003FA799A7641F2F853B4
:10170000C2F200034FF000021A76184607F11007E4
:10171000BD4680BD80B483B000AF42F210737B60E1
:101720004FF40063C4F202034FF004021A8300BFB7
:101730007B68002B0CBF00230123DBB27A6802F127
:10174000FF327A60002BF3D14FF40063C4F202033E
:101750004FF004025A8307F10C07BD4680BC704766
:1017600080B483B000AF0346FB80FA8841F2F8539F
:10177000C2F200031B68596841F2F853C2F2000339
:101780001B68DB68CB1A03FB02F241F2F853C2F28A
:1017900000031B681B88194641F2F853C2F200038C
:1017A0001B681B89CB1AB2FBF3F3184607F10C0731
:1017B000BD4680BC704700BF80B483B000AF786086
:1017C00041F2F853C2F200031B681B881A4641F22B
:1017D000F853C2F200031B681B89D31A7A6802FB14
:1017E00003F241F2F853C2F200031B68596841F258
:1017F000F853C2F200031B68DB68CB1AB2FBF3F3A9
:101800009BB2184607F10C07BD4680BC704700BF6D
:1018100090B583B000AF786041F2F853C2F2000394
:101820001B685A697B689A4214D841F2F853C2F295
:1018300000031B681C8A41F2F853C2F200031B68C4
:101840005B697A68D31A1846FFF7B6FF0346E318B8
:101850009BB213E041F2F853C2F200031B681C8AEA
:1018600041F2F853C2F200031B685A697B68D31A2D
:101870001846FFF7A1FF0346E31A9BB2184607F18B
:101880000C07BD4690BD00BF90B585B000AF0346C4
:10189000FB8041F2F853C2F200031B681B8AFA88EE
:1018A000D31A9BB2FB81B7F90E30002B0CDB41F24F
:1018B000F853C2F200031B685C69FB891846FFF706
:1018C0004FFF0346E3180FE041F2F853C2F2000362
:1018D0001B685C69FB89C3F100039BB29BB218468D
:1018E000FFF73EFF0346E31A184607F11407BD460B
:1018F00090BD00BF80B582B000AF46F66433C0F63D
:1019000000037B6040F20003C2F200033B600BE087
:101910007B681A683B681A603B6803F104033B600C
:101920007B6803F104037B603A6840F2C803C2F2AB
:1019300000039A42ECD3074807494FF0000288425F
:10194000B8BF40F8042BFADB00F058F907F108079C
:10195000BD4680BDC80000201417002080B400AF31
:10196000FEE700BF80B500AF4FF480204FF00101CB
:1019700000F066F94FF080504FF0010100F08EF951
:1019800080BD00BF80B586B000AFF860B960134677
:10199000FB714FF00003FB754FF00100FFF7E6FA13
:1019A0004FF00100FFF7F2FA4FF00003FB750BE078
:1019B000FA68FB7DD318B968FA7D8A1812781A7014
:1019C000FB7D03F10103FB75FA7DFB799A42EFD3AE
:1019D0004FF00000FFF7CAFA07F11807BD4680BDB7
:1019E00080B483B000AF4FF00003FB714FF00003F1
:1019F000BB7140F2C803C2F200031B7803F101037C
:101A0000DAB240F2C803C2F200031A7040F2C8030F
:101A1000C2F200031B78022B1AD84FF00003FB71AF
:101A200012E0FA7941F21463C2F200034FF016019A
:101A300001FB02F29B1803F148034FF000021A72F7
:101A4000FB7903F10103FB71FB79012BE9D9A6E0D6
:101A500040F2C803C2F200031B78052B06D940F2FE
:101A6000C803C2F200034FF000021A7040F2C8032C
:101A7000C2F200031B78032B40F090804FF000036C
:101A8000FB7186E0FA7941F21463C2F200034FF071
:101A9000160101FB02F29B1803F14803DB79002BCE
:101AA0000ED0FA7941F21463C2F200034FF016012E
:101AB00001FB02F29B1803F148035B7A002B1ED155
:101AC000FA7941F21463C2F200034FF0160101FBF0
:101AD00002F29B1803F148034FF000025A72FA79A0
:101AE00041F21463C2F200034FF0160101FB02F24F
:101AF0009B1803F148034FF000021A7245E0FA798F
:101B000041F21463C2F200034FF0160101FB02F22E
:101B10009B1803F148035B7AFF2B1CD0FA7941F242
:101B20001463C2F200034FF0160101FB02F15B18CF
:101B300003F148035B7A03F1FF33D9B241F2146336
:101B4000C2F200034FF0160000FB02F29B1803F1F3
:101B500048030A465A72F979FA7941F21463C2F2DB
:101B600000034FF0160000FB02F29B1803F148033C
:101B7000DA7941F21463C2F200034FF0160000FB61
:101B800001F15B1803F148031A72FB7903F10103B9
:101B9000FB71FB79012B7FF675AF00E000BF07F109
:101BA0000C07BD4680BC704780B483B000AF1346BD
:101BB0000246FA710A46BA717B71FA7941F21463EE
:101BC000C2F200034FF0160101FB02F29B1803F171
:101BD0004803BA79DA71FA7941F21463C2F2000368
:101BE0004FF0160101FB02F29B1803F148037A79CA
:101BF0005A7207F10C07BD4680BC704780B500AF34
:101C000003F07AF9FFF7AEFEFFF7D0F900F0F8F92C
:101C1000FFF78AF800F088F901F0DEFAFEF7D8FE47
:101C200001F044FE00F09AFCFEE700BF80B400AF74
:101C3000FEE700BF80B483B000AF78603960FEE794
:101C400080B483B000AF78600B46FB70FB78002B4C
:101C50000ED04FF46053C4F202034FF46052C4F24A
:101C60000202126B11467A6841EA02021A630FE01F
:101C70004FF46053C4F202034FF46052C4F2020204
:101C8000126B11467A686FEA020201EA02021A63D5
:101C900007F10C07BD4680BC704700BF80B483B01D
:101CA00000AF78600B46FB70FB78002B0ED04FF432
:101CB0006053C4F202034FF46052C4F20202126C89
:101CC00011467A6841EA02021A640FE04FF4605349
:101CD000C4F202034FF46052C4F20202126C1146C5
:101CE0007A686FEA020201EA02021A6407F10C073D
:101CF000BD4680BC704700BF80B483B000AF786041
:101D00000B46FB70FB78002B0ED04FF46053C4F2EF
:101D100002034FF46052C4F20202526C11467A6818
:101D200041EA02025A640FE04FF46053C4F2020326
:101D30004FF46052C4F20202526C11467A686FEAA4
:101D4000020201EA02025A6407F10C07BD4680BC98
:101D5000704700BF80B400AF41F21463C2F20003C9
:101D60004FF002021A7041F21463C2F200034FF006
:101D70000002DA8741F21463C2F200034FF000025E
:101D80009A8741F21463C2F200034FF00102A3F8F4
:101D9000402041F21463C2F200034FF00502A3F8A1
:101DA000422041F21463C2F2000340F60922A3F874
:101DB000442041F21463C2F200034FF41062A3F80E
:101DC000462041F21463C2F20003B3F8423003F13B
:101DD000FF339BB29BB243F430639BB29AB241F2A1
:101DE0001463C2F20003A3F8482041F21463C2F264
:101DF000000340F60142A3F84A2041F21463C2F204
:101E000000034FF47062A3F84C2041F21463C2F255
:101E100000034FF0000283F84F2041F21463C2F236
:101E2000000393F84F2041F21463C2F2000383F8D9
:101E3000502041F21463C2F200034FF0000283F815
:101E4000512041F21463C2F200034FF00102A3F8E3
:101E5000542041F21463C2F200034FF00002A3F8D1
:101E6000522041F21463C2F200034FF00102A3F8C2
:101E7000562041F21463C2F200034FF00502A3F8AA
:101E8000582041F21463C2F2000340F60922A3F87D
:101E90005A2041F21463C2F200034FF41062A3F817
:101EA0005C2041F21463C2F20003B3F8583003F12E
:101EB000FF339BB29BB243F430639BB29AB241F2C0
:101EC0001463C2F20003A3F85E2041F21463C2F26D
:101ED000000340F60142A3F8602041F21463C2F20D
:101EE00000034FF47062A3F8622041F21463C2F25F
:101EF00000034FF0000283F8652041F21463C2F240
:101F0000000393F8652041F21463C2F2000383F8E2
:101F1000662041F21463C2F200034FF0000283F81E
:101F20006720BD4680BC704780B500AFFFF712FF49
:101F300003F020FF4FF00003184680BD80B500AFCE
:101F40004FF00003C4F201034FF6FE721A824FF005
:101F50000003C4F201031B889BB203F01003002BA3
:101F60000CD041F2F853C2F200035B6803F1FF3278
:101F700041F2F853C2F200035A600BE041F2F85309
:101F8000C2F200035B6803F1010241F2F853C2F2AE
:101F900000035A6041F2F853C2F200035B7E002B4B
:101FA0002DD141F2F853C2F200039B7E002B26D1C3
:101FB00041F2F853C2F200031B7E002B1FD041F206
:101FC000F853C2F200035A6841F2F853C2F2000318
:101FD000DB689A4203D14FF00000FFF7B3FA41F2F9
:101FE000F853C2F200035A6841F2F853C2F20003F8
:101FF0009B689A4203D14FF00500FFF7FBFA80BDC2
:1020000080B586B000AF4FF001004FF00101FFF73F
:1020100017FE4FF001004FF00101FFF76DFE07F1D1
:102020000C03184604F0D4FA4FF001033B614FF063
:102030000003BB814FF00003BB824FF01003FB8114
:1020400007F10C034FF00000C4F20100194604F040
:1020500043FA4FF00000C4F201004FF003014FF0CB
:102060000A024FF00A0304F017FB4FF00003C4F21A
:1020700001034FF022021A844FF00000C4F2010065
:102080004FF001014FF0010204F0E0FA4FF00000C0
:10209000C4F201004FF0010104F0B8FA4FF44070AF
:1020A00004F036F94FF01D033B724FF00F037B72C3
:1020B0004FF00E03BB724FF00103FB7207F10803F0
:1020C000184604F039F94FF019033B7207F1080381
:1020D000184604F031F94FF440733B604FF00203AF
:1020E0003B714FF00103FB714FF00003BB714FF0E8
:1020F00000037B713B464FF00000C4F2020019461A
:1021000002F014FD4FF00000C4F202004FF008018D
:102110004FF0010202F0D6FD4FF00000C4F20200C1
:102120004FF009014FF0010202F0CCFD4FF0000327
:10213000C4F201034FF000025A6207F11807BD46CE
:1021400080BD00BF80B58AB002AFF860B9603B6067
:102150001346FB80FB68002B04D14FF0500080F346
:102160001188FEE7BB6A042B04D94FF0500080F3BE
:102170001188FEE7FB881846396B00F005FFB8614F
:10218000BB69002B00F0B080BB691A6BFB8803F1C0
:10219000FF334FEA8303D3187B617B6923F0070386
:1021A0007B617B6903F00703002B04D04FF05000E4
:1021B00080F31188FEE7FB880093B869B968BA6AB2
:1021C0007B6B00F0BFFD7869F9683A6803F032FB79
:1021D00003461A46BB691A60FB6A002B02D0FB6AF1
:1021E000BA691A6003F0BAFB40F2A413C2F200030A
:1021F0001B6803F1010240F2A413C2F200031A604B
:1022000040F2CC03C2F200031B68002B0FD140F256
:10221000CC03C2F20003BA691A6040F2A413C2F2FE
:1022200000031B68012B18D100F0CAFD15E040F235
:10223000B413C2F200031B68002B0ED140F2CC0392
:10224000C2F200031B68DA6ABB6A9A4205D840F200
:10225000CC03C2F20003BA691A60BB69DA6A40F2C1
:10226000AC13C2F200031B689A4206D9BB69DA6A52
:1022700040F2AC13C2F200031A6040F2C813C2F27B
:1022800000031B6803F1010240F2C813C2F200030D
:102290001A60BB69DA6A40F2B013C2F200031B682D
:1022A0009A4206D9BB69DA6A40F2B013C2F200035F
:1022B0001A60BB69DA6A13464FEA83039B184FEA38
:1022C00083031A4640F2D003C2F20003D218BB695E
:1022D00003F104031046194602F07EFD4FF001039E
:1022E000FB6103F051FB02E04FF0FF33FB61FB6940
:1022F000012B11D140F2B413C2F200031B68002B72
:102300000AD040F2CC03C2F200031B68DA6ABB6A4F
:102310009A4201D203F016FBFB69184607F1200729
:10232000BD4680BD80B584B000AF78604FF000033B
:10233000FB607B68002B19D000F052F940F2A81323
:10234000C2F200031A687B68D318BB6040F2CC036A
:10235000C2F200031B6803F10403184602F0A2FD59
:10236000B86800F0CBFD00F04DF9F860FB68002B79
:1023700001D103F0E7FA07F11007BD4680BD00BFA9
:1023800080B584B000AF786003F0E8FA40F2CC0387
:10239000C2F200031B687A689A4202D14FF0000330
:1023A0007B607B68002B05D140F2CC03C2F20003B6
:1023B0001B6800E07B68FB60FB6803F104031846C0
:1023C00002F070FDFB689B6A002B05D0FB6803F1EF
:1023D0001803184602F066FDFB6803F1040340F29F
:1023E0009010C2F20000194602F0F6FC03F0CCFA9D
:1023F0007B68002B20D140F2B413C2F200031B68AB
:10240000002B02D003F09EFA16E040F29013C2F2C5
:1024100000031B681A4640F2A413C2F200031B68B3
:102420009A4207D140F2CC03C2F200034FF00002FF
:102430001A6001E000F084FA07F11007BD4680BD84
:1024400080B485B000AF78604FF00003FB607B681C
:10245000BB607B68002B04D14FF0500080F31188E3
:10246000FEE7BB685A6940F29013C2F200039A4239
:102470000ED1BB689A6A40F26413C2F200039A421A
:1024800006D0BB689B6A002B02D14FF00103FB60B2
:10249000FB68184607F11407BD4680BC704700BFB3
:1024A00080B584B000AF78607B68002B04D14FF01A
:1024B000500080F31188FEE77B68FB60FB68002B0F
:1024C00048D040F2CC03C2F200031B68FA689A427B
:1024D00040D003F043FAF868FFF7B2FF0346012B40
:1024E00036D1FB6803F10403184602F0DBFCFB68FD
:1024F000DA6A40F2B013C2F200031B689A4206D9AE
:10250000FB68DA6A40F2B013C2F200031A60FB689B
:10251000DA6A13464FEA83039B184FEA83031A468D
:1025200040F2D003C2F20003D218FB6803F10403A7
:102530001046194602F050FCFB68DA6A40F2CC0300
:10254000C2F200031B68DB6A9A4201D303F0FAF976
:1025500003F01AFA07F11007BD4680BD80B586B0BA
:1025600004AF46F61033C0F600034FF000020092AD
:102570004FF0000201924FF0000202924FF0000271
:10258000039242F62150C0F6000019464FF0460271
:102590004FF00003FFF7D6FD78607B68012B13D165
:1025A0004FF0500080F3118840F2B413C2F20003E0
:1025B0004FF001021A6040F2A813C2F200034FF07C
:1025C00000021A6003F086F97B68002B04D14FF0FB
:1025D000500080F31188FEE707F10807BD4680BD73
:1025E00080B400AF40F2B813C2F200031B6803F1DD
:1025F000010240F2B813C2F200031A60BD4680BC6B
:10260000704700BF90B583B000AF4FF000037B6010
:1026100040F2B813C2F200031B68002B04D14FF044
:10262000500080F31188FEE703F098F940F2B813E8
:10263000C2F200031B6803F1FF3240F2B813C2F28A
:1026400000031A6040F2B813C2F200031B68002BAB
:1026500040F0868040F2A413C2F200031B68002BF6
:102660007ED04FF000033B603DE040F26413C2F2C5
:102670000003DB68DB681C4604F11803184602F00F
:1026800011FC04F10403184602F00CFCE26A40F26B
:10269000B013C2F200031B689A4205D9E26A40F205
:1026A000B013C2F200031A60E26A13464FEA8303D2
:1026B0009B184FEA83031A4640F2D003C2F200038C
:1026C000D21804F104031046194602F085FBE26AB1
:1026D00040F2CC03C2F200031B68DB6A9A4202D3C9
:1026E0004FF001033B6040F26413C2F200031B6829
:1026F000002BBAD140F2BC13C2F200031B68002BBE
:1027000018D00DE000F034F840F2BC13C2F2000320
:102710001B6803F1FF3240F2BC13C2F200031A60DF
:1027200040F2BC13C2F200031B68002BEAD14FF049
:1027300001033B603B68012B06D040F2C013C2F29C
:1027400000031B68012B0BD14FF001037B6040F2AB
:10275000C013C2F200034FF000021A6003F0F2F857
:1027600003F012F97B68184607F10C07BD4690BDCF
:1027700080B584B000AF40F2B813C2F200031B680A
:10278000002B40F0CD8040F2A813C2F200031B687A
:1027900003F1010240F2A813C2F200031A6040F2F2
:1027A000A813C2F200031B68002B4DD140F25C134A
:1027B000C2F200031B681B68002B04D04FF05000CE
:1027C00080F31188FEE740F25C13C2F200031B683D
:1027D000FB6040F26013C2F200031A6840F25C131F
:1027E000C2F200031A6040F26013C2F20003FA68FA
:1027F0001A6040F2C413C2F200031B6803F1010225
:1028000040F2C413C2F200031A6040F25C13C2F239
:1028100000031B681B68002B07D140F20003C2F2C3
:1028200000034FF0FF321A600EE040F25C13C2F278
:1028300000031B68DB68DB68BB60BB685A6840F25A
:102840000003C2F200031A6040F2A813C2F20003B0
:102850001A6840F20003C2F200031B689A426BD36D
:1028600040F25C13C2F200031B681B68002B07D107
:1028700040F20003C2F200034FF0FF321A605BE047
:1028800040F25C13C2F200031B68DB68DB68BB60CC
:10289000BB685B687B6040F2A813C2F200031A6851
:1028A0007B689A4206D240F20003C2F200037A68C3
:1028B0001A6041E0BB6803F10403184602F0F2FA23
:1028C000BB689B6A002B05D0BB6803F11803184650
:1028D00002F0E8FABB68DA6A40F2B013C2F2000311
:1028E0001B689A4206D9BB68DA6A40F2B013C2F29A
:1028F00000031A60BB68DA6A13464FEA83039B1829
:102900004FEA83031A4640F2D003C2F20003D21802
:10291000BB6803F104031046194602F05DFA9FE715
:1029200040F2BC13C2F200031B6803F1010240F243
:10293000BC13C2F200031A6007F11007BD4680BD48
:1029400080B582B000AF40F2B813C2F200031B683A
:10295000002B07D040F2C013C2F200034FF0010277
:102960001A609CE040F2CC03C2F200031B681A68B4
:1029700040F2CC03C2F200031B681B6B9A420FD8D3
:1029800040F2CC03C2F200031A6840F2CC03C2F258
:1029900000031B6803F1340310461946FFF74AF998
:1029A00040F2CC03C2F200031B681B6B184646F6CC
:1029B0001831C0F600014FF0140203F0E3FE0346A5
:1029C000002B29D040F2CC03C2F200031A6840F277
:1029D000CC03C2F200031B6803F13403104619460E
:1029E000FFF728F919E040F2B013C2F200031B68A8
:1029F000002B04D14FF0500080F31188FEE740F225
:102A0000B013C2F200031B6803F1FF3240F2B013AF
:102A1000C2F200031A6000E000BF40F2B013C2F23D
:102A200000031A6813464FEA83039B184FEA830397
:102A30001A4640F2D003C2F20003D3181B68002BE1
:102A4000D1D040F2B013C2F200031A6813464FEA25
:102A500083039B184FEA83031A4640F2D003C2F265
:102A60000003D3187B607B685B685B681A467B68F1
:102A70005A607B685A687B6803F108039A4205D163
:102A80007B685B685B681A467B685A607B685B683A
:102A9000DB681A4640F2CC03C2F200031A6007F169
:102AA0000807BD4680BD00BF80B584B000AF786028
:102AB00039607B68002B04D14FF0500080F31188FF
:102AC000FEE740F2CC03C2F200031B6803F11803D7
:102AD0007868194602F0AAF940F2CC03C2F200036A
:102AE0001B6803F10403184602F0DCF93B68B3F1FC
:102AF000FF3F0ED140F2CC03C2F200031B6803F18A
:102B0000040340F29010C2F20000194602F064F98A
:102B10000AE040F2A813C2F200031A683B68D31817
:102B2000FB60F86800F0EAF907F11007BD4680BDC8
:102B300080B584B000AF78607B68DB68DB68BB6021
:102B4000BB68002B04D14FF0500080F31188FEE7E2
:102B5000BB6803F11803184602F0A4F940F2B81359
:102B6000C2F200031B68002B2BD1BB6803F10403E6
:102B7000184602F097F9BB68DA6A40F2B013C2F265
:102B800000031B689A4206D9BB68DA6A40F2B013A8
:102B9000C2F200031A60BB68DA6A13464FEA830385
:102BA0009B184FEA83031A4640F2D003C2F2000397
:102BB000D218BB6803F104031046194602F00CF961
:102BC00009E0BB6803F1180340F26410C2F2000090
:102BD000194602F001F9BB68DA6A40F2CC03C2F28E
:102BE00000031B68DB6A9A4203D34FF00103FB60CA
:102BF00002E04FF00003FB60FB68184607F1100786
:102C0000BD4680BD80B483B000AF78607B68002B88
:102C100004D14FF0500080F31188FEE740F2C41356
:102C2000C2F200031A687B681A6040F2A813C2F26D
:102C300000031A687B685A6007F10C07BD4680BC28
:102C4000704700BF80B584B000AF786039607B68A2
:102C5000002B04D14FF0500080F31188FEE73B6851
:102C6000002B04D14FF0500080F31188FEE702F0F2
:102C700075FE3B681B68B3F1FF3F03D14FF00003C3
:102C8000FB6038E07B681A6840F2C413C2F20003AC
:102C90001B689A420CD07B685A6840F2A813C2F2B3
:102CA00000031B689A4203D84FF00103FB6022E047
:102CB00040F2A813C2F200031A687B685B68D21A5C
:102CC0003B681B689A4213D23B681A687B68596854
:102CD00040F2A813C2F200031B68CB1AD2183B685B
:102CE0001A607868FFF78EFF4FF00003FB6002E088
:102CF0004FF00103FB6002F047FEFB68184607F146
:102D00001007BD4680BD00BF80B400AF40F2C013C5
:102D1000C2F200034FF001021A60BD4680BC70474A
:102D200080B582B000AF786000E000BF00F09AF894
:102D300040F2D003C2F200031B68012BF5D902F068
:102D400001FEF3E780B584B000AFF860B9607A6047
:102D50003B60FB6803F134031A46BB681046194612
:102D60004FF00A0203F06CFEFB684FF0000283F89C
:102D70003D207B68042B02D94FF004037B60FB6885
:102D80007A68DA62FB687A681A64FB6803F1040304
:102D9000184602F013F8FB6803F11803184602F016
:102DA0000DF8FB68FA681A617B68C3F10502FB68DD
:102DB0009A61FB68FA685A6207F11007BD4680BD48
:102DC00080B582B000AF4FF000037B6013E07A68FB
:102DD00013464FEA83039B184FEA83031A4640F2D7
:102DE000D003C2F20003D318184601F0C3FF7B687A
:102DF00003F101037B607B68042BE8D940F23410B7
:102E0000C2F2000001F0B6FF40F24810C2F200002A
:102E100001F0B0FF40F26410C2F2000001F0AAFF1E
:102E200040F27810C2F2000001F0A4FF40F29010CE
:102E3000C2F2000001F09EFF40F25C13C2F20003F8
:102E400040F23412C2F200021A6040F26013C2F281
:102E5000000340F24812C2F200021A6007F10807AC
:102E6000BD4680BD80B582B000AF40F28C13C2F287
:102E700000031B68002B3CD0FFF7B2FB40F2781335
:102E8000C2F200031B68002B14BF002301237B60E8
:102E9000FFF7B8FB7B68002B2BD102F05FFD40F2FF
:102EA0007813C2F20003DB68DB683B603B6803F128
:102EB0000403184601F0F6FF40F2A413C2F2000327
:102EC0001B6803F1FF3240F2A413C2F200031A6040
:102ED00040F28C13C2F200031B6803F1FF3240F290
:102EE0008C13C2F200031A6002F04EFD386800F045
:102EF00085F807F10807BD4680BD00BF80B582B0E8
:102F000000AF786040F2CC03C2F200031B687A681D
:102F10005A6040F2A813C2F200031B687A689A4212
:102F200010D240F26013C2F200031A6840F2CC03E0
:102F3000C2F200031B6803F104031046194601F0B6
:102F400075FF1DE040F25C13C2F200031A6840F204
:102F5000CC03C2F200031B6803F1040310461946B8
:102F600001F064FF40F20003C2F200031B687A68BC
:102F70009A4205D240F20003C2F200037A681A6056
:102F800007F10807BD4680BD80B584B000AF034699
:102F90003960FB804FF0440003F042FA0346FB60C7
:102FA000FB68002B23D03B68002B07D1FB884FEA3E
:102FB0008303184603F034FA034600E03B68FA68DE
:102FC0001363FB681B6B002B06D1F86803F07AFAD9
:102FD0004FF00003FB600AE0FB681A6BFB884FEAC6
:102FE000830310464FF0A5011A4603F09FFCFB68CF
:102FF000184607F11007BD4680BD00BF80B582B0FE
:1030000000AF78607B681B6B184603F05BFA78684A
:1030100003F058FA07F10807BD4680BD80B483B0BD
:1030200000AF40F2CC03C2F200031B687B607B68F8
:10303000184607F10C07BD4680BC704780B584B0C8
:1030400000AF78607B68FB607B68002B04D14FF099
:10305000500080F31188FEE7FB68DA6A40F2CC0387
:10306000C2F200031B68DB6A9A4257D240F2CC03DB
:10307000C2F200031B68DB6AC3F10502FB689A61B8
:10308000FB685969FB68DA6A13464FEA83039B18A9
:103090004FEA83031A4640F2D003C2F20003D3186A
:1030A000994233D1FB6803F10403184601F0FAFE9C
:1030B00040F2CC03C2F200031B68DA6AFB68DA62F2
:1030C000FB68DA6A40F2B013C2F200031B689A424E
:1030D00006D9FB68DA6A40F2B013C2F200031A6044
:1030E000FB68DA6A13464FEA83039B184FEA8303AF
:1030F0001A4640F2D003C2F20003D218FB6803F173
:1031000004031046194601F067FE07E040F2CC03C5
:10311000C2F200031B68DA6AFB68DA6207F1100783
:10312000BD4680BD80B584B000AF78607B68FB6031
:103130007B68002B3AD0FB68DA6AFB681B6C9A420A
:1031400034D0FB6803F10403184601F0ABFEFB68C2
:103150001A6CFB68DA62FB68DB6AC3F10502FB6884
:103160009A61FB68DA6A40F2B013C2F200031B688E
:103170009A4206D9FB68DA6A40F2B013C2F2000341
:103180001A60FB68DA6A13464FEA83039B184FEA1A
:1031900083031A4640F2D003C2F20003D218FB6840
:1031A00003F104031046194601F016FE07F110075B
:1031B000BD4680BD80B483B000AF0346FB8003E012
:1031C000FB8803F1FF33FB80FB88002BF8D107F16C
:1031D0000C07BD4680BC704780B586B004AF4FF089
:1031E00005004FF00101FEF72BFD4FF470633B60CB
:1031F0004FF000037B714FF001033B714FF001036F
:10320000BB714FF00003FB713B464FF40060C4F20A
:103210000200194601F08AFC4FF41C433B604FF05A
:1032200000037B714FF000033B714FF00103FB7112
:103230003B464FF00000C4F20200194601F076FC54
:103240004FF40063C4F202034FF470621A834FF02C
:1032500002004FF001014FF0000201F0A1FF024611
:1032600041F2AC63C2F200031A6046F62C33C0F69A
:1032700000034FF0010200924FF0000201924FF064
:10328000000202924FF00002039243F2A920C0F61E
:10329000000019464FF040024FF00003FEF752FFC6
:1032A00007F10807BD4680BD80B586B000AF7860E5
:1032B0004FF00003BB754FF000037B754FF0000328
:1032C000FB754FF000037B824FF41C437B8200F0C0
:1032D00083F80346FB734FF00A00FFF723F800F072
:1032E0007BF803467B74FB7BFF2B2FD0FB7B7A7C28
:1032F0009A426CD1FB7BBB73FB7D132B04D8FB7D07
:1033000003F10103FB7562E0FB7D142B5FD14FF0ED
:103310001503FB75FB7B03F11003DBB2FB7341F27A
:10332000AC63C2F200031B68002B50D041F2AC63C7
:10333000C2F200031A6807F10F03104619464FF056
:1033400000024FF0000301F0C9FF40E0FB7D002BBD
:1033500019D0FB7D132B16D841F2AC63C2F20003E7
:103360001B68002B2DD041F2AC63C2F200031A6837
:1033700007F10E03104619464FF000024FF000030C
:1033800001F0ACFF1DE0FB7D152B1AD1BB7B03F1D7
:103390002003DBB2BB7341F2AC63C2F200031B68D3
:1033A000002B0ED041F2AC63C2F200031A6807F1A1
:1033B0000E03104619464FF000024FF0000301F0D3
:1033C0008DFF4FF0FF033B744FF00003FB754FF090
:1033D0003200FEF7A7FF7AE780B582B000AF4FF06A
:1033E0000003FB714FF00003BB804FF41C43BB8014
:1033F0004FF40063C4F202034FF470621A834FF07B
:103400000003FB71FEE0FB79032B00F2F78001A2C1
:1034100052F823F0253400089B34000811350008C9
:10342000873500084FF40063C4F202034FF4807242
:103430005A834FF00A00FFF7BDFE4FF00003C4F2BD
:1034400002031B697B804FF40063C4F202034FF454
:1034500070621A837B886FEA0302BB8802EA030367
:10346000B3F5006F10D0B3F5006F03DCB3F5806FD8
:1034700007D0C3E0B3F5805F09D0B3F5004F09D0A2
:10348000BCE04FF00103C3E04FF00203C0E04FF097
:103490000303BDE04FF00A03BAE04FF40063C4F247
:1034A00002034FF400725A834FF00A00FFF782FEC6
:1034B0004FF00003C4F202031B697B804FF40063EA
:1034C000C4F202034FF470621A837B886FEA03022E
:1034D000BB8802EA0303B3F5006F10D0B3F5006FA9
:1034E00003DCB3F5806F07D088E0B3F5805F09D0C7
:1034F000B3F5004F09D081E04FF0040388E04FF0AE
:10350000050385E04FF0060382E04FF00B037FE0F8
:103510004FF40063C4F202034FF480625A834FF009
:103520000A00FFF747FE4FF00003C4F202031B69D5
:103530007B804FF40063C4F202034FF470621A837D
:103540007B886FEA0302BB8802EA0303B3F5006FCE
:1035500010D0B3F5006F03DCB3F5806F07D04DE0FA
:10356000B3F5805F09D0B3F5004F09D046E04FF0C6
:1035700007034DE04FF008034AE04FF0090347E02E
:103580004FF00C0344E04FF40063C4F202034FF425
:1035900000625A834FF00A00FFF70CFE4FF0000361
:1035A000C4F202031B697B804FF40063C4F2020380
:1035B0004FF470621A837B886FEA0302BB8802EAC9
:1035C0000303B3F5006F10D0B3F5006F03DCB3F560
:1035D000806F07D012E0B3F5805F09D0B3F5004FDC
:1035E00009D00BE04FF00D0312E04FF000030FE0A5
:1035F0004FF00F030CE04FF00E0309E0FB7903F1ED
:103600000103FB71FB79032B7FF6FDAE4FF0FF0347
:10361000184607F10807BD4680BD00BF80B483B0DF
:1036200000AF78607A6840F2D013C2F200039A4289
:1036300006D041F20873C2F200037A681A6000E013
:1036400000BF07F10C07BD4680BC704780B582B053
:1036500000AF41F20873C2F200031B689B687B60F5
:103660007A6840F2D013C2F200039A4206D141F2C6
:10367000F060C2F2000000F081FFEFE041F2087359
:10368000C2F200031B6803F111034FF0000019465A
:10369000FCF7D4FD41F20873C2F200031B681B7CE7
:1036A000A3F10203052B00F2D88001A252F823F007
:1036B000C9360008D7360008E5360008F33600089A
:1036C0006B370008E337000841F2F060C2F20000F7
:1036D00000F054FFC2E041F2F060C2F2000000F0DE
:1036E0004DFFBBE041F2F060C2F2000000F046FF87
:1036F000B4E041F2F853C2F200031B681B8B9BB28B
:103700001BB2184641F2F061C2F200014FF0000214
:1037100041F2707301F03CF80346012B1CD141F2D9
:10372000F060C2F2000000F029FF4FF001004FF0FE
:10373000FF014FF00202FEF737FA4FF002004FF0A0
:103740000101FDF793FA4FF001004FF0FF014FF038
:103750000202FEF729FA81E041F2F060C2F20000B5
:103760004FF0010100F020FF78E041F2F853C2F27F
:1037700000031B685B8B9BB21BB2184641F2F061E1
:10378000C2F200014FF0000241F2707301F000F844
:103790000346012B1CD141F2F060C2F2000000F0A0
:1037A000EDFE4FF001004FF0FF014FF00202FEF777
:1037B000FBF94FF002004FF00101FDF757FA4FF00F
:1037C00001004FF0FF014FF00202FEF7EDF945E076
:1037D00041F2F060C2F200004FF0010100F0E4FE9F
:1037E0003CE041F2F853C2F200031B689B8B9BB292
:1037F0001BB2184641F2F061C2F200014FF0000224
:1038000041F2707300F0C4FF0346012B1CD141F25A
:10381000F060C2F2000000F0B1FE4FF001004FF086
:10382000FF014FF00202FEF7BFF94FF002004FF028
:103830000101FDF71BFA4FF001004FF0FF014FF0BF
:103840000202FEF7B1F909E041F2F060C2F20000B5
:103850004FF0010100F0A8FE00E000BF4FF00003B0
:10386000184607F10807BD4680BD00BF80B500AF10
:1038700041F20873C2F2000340F20402C2F20002F5
:103880001A6041F2F063C2F200034FF000021A72B4
:1038900041F2F063C2F200034FF020025A72FFF7C8
:1038A000D5FE4FF00003184680BD00BF80B584B040
:1038B00004AF4FF002004FF001014FF0000201F0A1
:1038C0006FFC024641F20C73C2F200031A6046F626
:1038D0003833C0F600034FF0010200924FF00002AF
:1038E00001924FF0000202924FF00002039244F264
:1038F0009920C0F6000019464FF080024FF00003F7
:10390000FEF720FCBD4680BD80B500AF41F20873D4
:10391000C2F200031B689B681846FFF77FFEFFF7A3
:1039200095FE80BD80B500AF41F20873C2F200037E
:103930001B68DB681846FFF771FEFFF787FE80BD46
:1039400080B500AF41F20873C2F200031B681B6828
:103950001846FFF763FEFFF779FE80BD80B58AB099
:1039600002AF78600B46FB7041F2F853C2F20003DD
:103970001B7E002B0FD0FB780C2B40F089844FF07E
:103980000100FDF737FE4FF004004FF00101FDF795
:103990006DF900F07DBC7B681B7C03F1FF33062BC7
:1039A00000F2768401A252F823F000BFC939000862
:1039B000CD3D00089F3E0008733F00083F400008CF
:1039C000FF400008BF410008FB78A3F10B03242B44
:1039D00000F2E98101A252F823F000BF333C000855
:1039E000A73D0008A73D0008A73D0008A73D000827
:1039F000A73D0008A73D0008A73D0008A73D000817
:103A0000A73D0008A73D0008A73D0008A73D000806
:103A1000A73D0008A73D0008713A0008A73D00082F
:103A2000833A0008233D0008ED3A00084F3D0008A6
:103A3000A73D0008A73D0008A73D0008A73D0008D6
:103A4000A73D0008A73D0008A73D0008A73D0008C6
:103A5000A73D0008A73D0008A73D0008A73D0008B6
:103A6000A73D00087B3D0008A73D0008913D0008E8
:103A7000FFF758FF4FF004004FF00101FDF7F6F893
:103A8000A3E141F2F060C2F2000000F077FD41F2E4
:103A9000F853C2F200035B7E022B19D141F2F853B6
:103AA000C2F200039B7EA3F10203042B0FD801A2F4
:103AB00052F823F0CF3A0008CF3A0008C93A00087C
:103AC000CF3A0008CF3A0008FDF724FE00E000BF1F
:103AD00041F2F853C2F200034FF000025A764FF061
:103AE00000004FF00101FDF7C1F86EE14FF0000357
:103AF0003B8241F2F063C2F200035B7A2B2B04D0CD
:103B00002D2B37D0202B64D092E007F1100341F227
:103B1000F060C2F2000019464EF69002CFF6FF7236
:103B200041F2707300F0C2FD0346002B1BD13B8AAB
:103B30001BB24FF001001946FDF746FB0346002B70
:103B40000AD04FF00600FDF755FD4FF002004FF090
:103B50000101FDF78BF80CE04FF000004FF0010180
:103B6000FDF784F805E04FF002004FF00101FDF78A
:103B70007DF85DE007F1100341F2F060C2F2000051
:103B800019464EF69002CFF6FF7241F2707300F0C4
:103B90008DFD0346002B15D13B8A1BB24FF002006E
:103BA0001946FDF711FB0346002B04D04FF0060029
:103BB000FDF720FD0CE04FF000004FF00101FDF794
:103BC00055F805E04FF002004FF00101FDF74EF807
:103BD0002EE007F1100341F2F060C2F20000194636
:103BE0004EF69002CFF6FF7241F2707300F05EFD68
:103BF0000346002B15D13B8A1BB24FF00300194638
:103C0000FDF7E2FA0346002B04D04FF00600FDF763
:103C1000F1FC0CE04FF000004FF00101FDF726F839
:103C200005E04FF002004FF00101FDF71FF800BF63
:103C3000CBE041F2F853C2F200031B7C002B02D010
:103C4000012B45D064E041F2F853C2F200031B6837
:103C50001B8B1846FDF718FEF86141F2F853C2F2CB
:103C600000035A68FB699A4206D94FF002004FF0F0
:103C70000101FCF7FBFF2AE041F2F853C2F2000316
:103C80004FF001021A7441F2F853C2F200035A686D
:103C900041F2F853C2F200035A61F869FDF7F8F9EE
:103CA0000346002B0DD04FF002004FF00101FCF74E
:103CB000DDFF41F2F853C2F200034FF000021A7424
:103CC00005E04FF000004FF00101FCF7CFFF27E0C7
:103CD00041F2F853C2F200034FF000021A7441F2AD
:103CE000F853C2F200035B691846FDF7D1F90346A9
:103CF000002B06D04FF002004FF00101FCF7B6FF99
:103D000005E04FF000004FF00101FCF7AFFF07E0C6
:103D100041F2F853C2F200034FF000021A7400BFE0
:103D200053E041F2F853C2F20003DB7E012B0DD0C9
:103D30004FF00100FDF706FC4FF00100FDF72AFCF3
:103D40004FF000004FF00101FCF790FF3DE041F221
:103D5000F853C2F20003DB7E022B0DD04FF00100BE
:103D6000FDF7F0FB4FF00000FDF714FC4FF00000F2
:103D70004FF00101FCF77AFF27E04FF00100FDF75B
:103D800039FC4FF001004FF00101FCF76FFF1CE020
:103D90004FF00100FDF72EFC4FF001004FF0010144
:103DA000FCF764FF11E0FB7841F270720092184654
:103DB0004FF0030141F2F062C2F200024EF69003AE
:103DC000CFF6FF7300F058FD00BF61E2FB781C2BBB
:103DD00004D01E2B14D00A2B09D04DE0FFF794FD20
:103DE0004FF004004FF00101FCF740FF56E0FFF7F1
:103DF000A7FD4FF000004FF00101FCF737FF4DE049
:103E000007F1140341F2F060C2F2000019464EF6C9
:103E10009002CFF6FF7241F2707300F047FC034648
:103E2000002B1AD141F2F853C2F200035B68BB6168
:103E300041F2F853C2F200031B681A4607F114035B
:103E4000104619464FF00802FDF79CFD4FF00100A7
:103E50004FF00101FCF70AFF0DE04FF002004FF0B8
:103E60000101FCF703FF4FF001004FF0FF014FF09D
:103E70000202FDF799FE11E0FB7841F270720092A8
:103E800018464FF0010141F2F062C2F200024EF614
:103E90009003CFF6FF7300F0EFFC00BFF8E1FB7872
:103EA0001C2B04D01E2B14D00A2B09D04EE0FFF798
:103EB0002BFD4FF004004FF00101FCF7D7FE57E057
:103EC000FFF73EFD4FF000004FF00101FCF7CEFE82
:103ED0004EE007F1140341F2F060C2F2000019460F
:103EE0004EF69002CFF6FF7241F2707300F0DEFBE7
:103EF0000346002B1BD141F2F853C2F200035B686A
:103F0000BB6141F2F853C2F200031B6803F10802DF
:103F100007F11403104619464FF00802FDF732FD71
:103F20004FF001004FF00101FCF7A0FE0DE04FF053
:103F300002004FF00101FCF799FE4FF001004FF035
:103F4000FF014FF00202FDF72FFE11E0FB7841F276
:103F50007072009218464FF0010141F2F062C2F215
:103F600000024EF69003CFF6FF7300F085FC00BF11
:103F70008EE1FB781C2B04D01E2B14D00A2B09D009
:103F80004CE0FFF7C1FC4FF004004FF00101FCF7DB
:103F90006DFE53E0FFF7D4FC4FF000004FF001013D
:103FA000FCF764FE4AE007F1140341F2F060C2F24C
:103FB000000019464FF0000241F2707300F076FBEA
:103FC0000346002B1BD141F2F853C2F200035B6899
:103FD000BB6141F2F853C2F200031B6803F1100207
:103FE00007F11403104619464FF00802FDF7CAFC0A
:103FF0004FF001004FF00101FCF738FE0DE04FF0EB
:1040000002004FF00101FCF731FE4FF001004FF0CC
:10401000FF014FF00202FDF7C7FD0FE0FB7841F210
:104020007072009218464FF0010141F2F062C2F244
:1040300000024FF0000300F01FFC00BF28E1FB78F6
:104040001C2B04D01E2B14D00A2B09D046E0FFF7FE
:104050005BFC4FF004004FF00101FCF707FE4DE060
:10406000FFF76EFC4FF000004FF00101FCF7FEFD82
:1040700044E007F1120341F2F060C2F20000194679
:104080004FF0000241F2707300F010FB0346002B6A
:1040900015D141F2F853C2F200031B6803F1180274
:1040A00007F11203104619464FF00202FDF76AFCB1
:1040B0004FF001004FF00101FCF7D8FD0DE04FF08B
:1040C00002004FF00101FCF7D1FD4FF001004FF06D
:1040D000FF014FF00202FDF767FD0FE0FB7841F2B0
:1040E0007072009218464FF0010141F2F062C2F284
:1040F00000024FF0000300F0BFFB00BFC8E0FB78F8
:104100001C2B04D01E2B14D00A2B09D046E0FFF73D
:10411000FBFB4FF004004FF00101FCF7A7FD4DE061
:10412000FFF70EFC4FF000004FF00101FCF79EFD81
:1041300044E007F1120341F2F060C2F200001946B8
:104140004FF0000241F2707300F0B0FA0346002B0A
:1041500015D141F2F853C2F200031B6803F11A02B1
:1041600007F11203104619464FF00202FDF70AFC50
:104170004FF001004FF00101FCF778FD0DE04FF02A
:1041800002004FF00101FCF771FD4FF001004FF00C
:10419000FF014FF00202FDF707FD0FE0FB7841F24F
:1041A0007072009218464FF0010141F2F062C2F2C3
:1041B00000024FF0000300F05FFB00BF68E0FB78F7
:1041C0001C2B04D01E2B1DD00A2B09D04FE0FFF76B
:1041D0009BFB4FF004004FF00101FCF747FD56E058
:1041E00041F20873C2F2000340F21C02C2F2000264
:1041F0001A60FFF72BFA4FF000004FF00101FCF7B7
:1042000035FD44E007F10E0341F2F060C2F2000018
:1042100019464FF0000241F2707300F047FA03466E
:10422000002B15D141F2F853C2F200031B6803F1D1
:104230001C0207F10E03104619464FF00202FDF76B
:10424000A1FB4FF001004FF00101FCF70FFD1EE054
:104250004FF002004FF00101FCF708FD4FF00100A4
:104260004FF0FF014FF00202FDF79EFC0FE0FB78DC
:1042700041F27072009218464FF0010141F2F06273
:10428000C2F200024FF0000300F0F6FA00BF00BFD8
:1042900007F12007BD4680BD80B584B000AF7860CF
:1042A000FFF7E4FA41F2AC63C2F200031B68002B93
:1042B00027D041F2AC63C2F200031B68184601F03C
:1042C00097F90346002B1CD041F2AC63C2F2000305
:1042D0001A6807F10E03104619464FF00A024FF014
:1042E000000301F0A7F80346002B0AD041F208733F
:1042F000C2F200031A68FB89DBB210461946FFF7C9
:104300002DFB41F20C73C2F200031B68002B25D079
:1043100041F20C73C2F200031B68184601F068F901
:104320000346002B1AD041F20C73C2F200031A6844
:1043300007F10D03104619464FF00A024FF0000333
:1043400001F078F80346002B08D07B7B012B05D1C8
:1043500041F2F060C2F2000000F010F941F208737F
:10436000C2F200031B681B7C012B40F0028141F26A
:10437000F853C2F200035B7E002B40F0E88041F26C
:10438000F853C2F200035B681846FDF741FA034692
:104390009BB21BB2184641F2FC61C2F200014FF021
:1043A000000241F2707300F0F3F90346012B07D0CD
:1043B00041F2FC60C2F200004FF0000100F0F4F89E
:1043C00041F2F853C2F200031B7E022B2DD0032BC7
:1043D0005AD0012B40F0C48041F2F853C2F20003DE
:1043E0009A6841F2F853C2F200035B68D31A184688
:1043F000FDF7E2F903469BB21BB2184641F2FC619D
:10440000C2F200014FF0000241F2707300F0C0F9F7
:104410000346012B00F0A68041F2FC60C2F20000CE
:104420004FF0010100F0C0F8A3E041F2F853C2F2EE
:1044300000035A6841F2F853C2F200039B68D31A92
:104440001846FDF7B9F903469BB21BB2184641F274
:10445000FC61C2F200014FF0000241F2707300F003
:1044600097F90346012B7FD041F2FC63C2F20003AF
:104470004FF02D025A7241F2FC60C2F200004FF080
:10448000010100F091F874E041F2F853C2F2000328
:104490009A6841F2F853C2F200035B689A4227D34C
:1044A00041F2F853C2F200039A6841F2F853C2F2A3
:1044B00000035B68D31A1846FDF77EF903469BB2EA
:1044C0001BB2184641F2FC61C2F200014FF000023B
:1044D00041F2707300F05CF90346012B46D041F2C3
:1044E000FC60C2F200004FF0010100F05DF840E016
:1044F00041F2F853C2F200035A6841F2F853C2F293
:1045000000039B68D31A1846FDF756F903469BB281
:104510001BB2184641F2FC61C2F200014FF00002EA
:1045200041F2707300F034F90346012B20D041F2C0
:10453000FC63C2F200034FF02D025A7241F2FC609C
:10454000C2F200004FF0010100F02EF811E04FF030
:10455000000046F64031C0F60001FBF76FFE08E0B0
:1045600000BF06E000BF04E000BF02E000BF00E0C3
:1045700000BF4FF00A00FDF7D5FE93E680B582B08C
:1045800000AF78607B684FF000021A727B684FF0D2
:1045900020025A7278684FF0010100F005F807F127
:1045A0000807BD4680BD00BF80B586B000AF78600B
:1045B0000B46FB7046F65032C0F6000207F10C03C2
:1045C00092E80300186003F10403198003F1020369
:1045D0004FEA11421A704FF00003FB744FF00003D2
:1045E000FB754FF00003BB757B681B7A002B17D15E
:1045F0007B685B7A2D2B08D1FB78184646F648314C
:10460000C0F60001FBF71AFE07E0FB78184646F6F5
:104610005031C0F60001FBF711FE4FF000033FE000
:104620007B681B7A042B39D84FF00503BB757B6878
:104630001B7A03F1FF33DBB2FB751AE097F91630F2
:1046400097F9172079688A5C07F11801CB1803F8ED
:104650000C2CBB7D03F1FF33BB7597F91630042B8F
:1046600003D1BB7D03F1FF33BB75FB7D03F1FF334A
:10467000FB7597F91730002BE0DA7B685B7A2D2BFE
:1046800002D14FF02D033B73FA7807F10C0310466B
:104690001946FBF7D3FD4FF0000301E04FF0010393
:1046A000184607F11807BD4680BD00BF80B487B02B
:1046B00000AFF860B960FA80BB804FF00003FB8266
:1046C0004FF000037B754FF001037B82FB681B7A80
:1046D000002B06D1BB684FF000021A804FF0000398
:1046E00050E0FB681B7A03F1FF33DBB27B7529E0F6
:1046F00097F91530FA68D35C2F2B05D997F9153047
:10470000FA68D35C392B02D94FF001033AE097F9EC
:104710001530FA68D35CA3F130039BB27A8A02FBAE
:1047200003F39AB2FB8AD3189BB2FB827B8A1A46A8
:104730004FEA8202D3184FEA43037B827B7D03F169
:10474000FF337B7597F91530002BD1DAFB685B7A64
:104750002D2B03D1FB8AC3F10003FB82BB68FA8ACD
:104760001A80B7F91620B7F906309A4205DBB7F977
:104770001620B7F904309A4202DD4FF0010301E040
:104780004FF00003184607F11C07BD4680BC704778
:1047900080B586B000AFB9600146F981FA80BB8070
:1047A000B7F90E20B7F904309A4205DCB7F90E20AC
:1047B000B7F906309A4205DAB868FFF7DFFE4FF026
:1047C000010354E0B7F90E30002B08DABB684FF054
:1047D0002D025A72FB89C3F10003FB8103E0BB6821
:1047E0004FF020025A72BB684FF000021A724FF469
:1047F0007A73FB824FF000037B7533E0B7F90E202C
:10480000FB8A92FBF3F33B753B7D092B17D83B7D6D
:10481000002B02D17B7D002B11D0BB681B7A3A7D27
:1048200002F13002D1B2BA68D154BB681B7A03F1ED
:104830000103DAB2BB681A724FF001037B75B7F956
:104840000E30FA8A93FBF2F102FB01F29B1AFB8114
:10485000FA8A4CF6CD43CCF6CC43A3FB02134FEAC5
:10486000D303FB82FB8A002BC8D14FF0000318460C
:1048700007F11807BD4680BD80B586B000AFBA60AD
:104880000246FA730A46BA73FB80FB7B092B09D9EF
:10489000FB7B0C2B06D0FB7B0D2B03D0FB7B0F2B64
:1048A00040F03681FB7B0C2B1BD1BB681B7A002BA5
:1048B00000F03081BB681B7A002B06D0BB681B7AE6
:1048C00003F1FF33DAB2BB681A72B8684FF0010126
:1048D000FFF76AFE4FF000004FF00101FCF7C6F948
:1048E0001FE1FB7B0D2B02D00F2B16D02BE0BB7BE7
:1048F00003F00203002B00F00F81BB684FF02D0284
:104900005A72B8684FF00101FFF74EFE4FF00000F9
:104910004FF00101FCF7AAF903E1BB7B03F00203AE
:10492000002B00F0FB80BB684FF02B025A72B86876
:104930004FF00101FFF738FE4FF000004FF001018A
:10494000FCF794F9EDE0BB681B7A032B0ED94FF00E
:1049500002004FF00101FCF789F94FF001004FF020
:10496000FF014FF00202FDF71FF9DAE0FB7B092B94
:1049700000F29F8001A252F823F000BFA549000871
:10498000C9490008E3490008FD490008174A000822
:10499000314A00084B4A0008654A00087F4A00086F
:1049A000994A0008BB681B7A002B00F0B980BB68ED
:1049B0001B7ABA684FF03001D1544FF000004FF02D
:1049C0000101FCF753F975E0BB681B7ABA684FF038
:1049D0003101D1544FF000004FF00101FCF746F9CE
:1049E00068E0BB681B7ABA684FF03201D1544FF0CF
:1049F00000004FF00101FCF739F95BE0BB681B7A5E
:104A0000BA684FF03301D1544FF000004FF001016C
:104A1000FCF72CF94EE0BB681B7ABA684FF0340102
:104A2000D1544FF000004FF00101FCF71FF941E0B5
:104A3000BB681B7ABA684FF03501D1544FF00000C3
:104A40004FF00101FCF712F934E0BB681B7ABA6839
:104A50004FF03601D1544FF000004FF00101FCF748
:104A600005F927E0BB681B7ABA684FF03701D154CB
:104A70004FF000004FF00101FCF7F8F81AE0BB68B6
:104A80001B7ABA684FF03801D1544FF000004FF054
:104A90000101FCF7EBF80DE0BB681B7ABA684FF038
:104AA0003901D1544FF000004FF00101FCF7DEF85E
:104AB00000E000BFBB681B7A03F10103DAB2BB68F8
:104AC0001A7207F11601B7F90620B7F92030B86855
:104AD000FFF7ECFD0346012B14D1BB681B7A03F1F1
:104AE000FF33DAB2BB681A724FF002004FF00101D7
:104AF000FCF7BCF84FF001004FF0FF014FF002024D
:104B0000FDF752F8B8684FF00101FFF74DFD08E0DE
:104B100000BF06E000BF04E000BF02E000BF00E00D
:104B200000BF07F11807BD4680BD00BF80B487B045
:104B300000AF786039604FF000037B614FF00003F5
:104B40003B614FF00003FB604FF000037B618FE09F
:104B50007B694FF0010202FA03F33B613B681A687C
:104B60003B6902EA0303FB60FA683B699A427BD126
:104B70007B681B681A467B694FEA43034FF00301C9
:104B800001FA03F36FEA03031A407B681A607B683B
:104B90001B681A463B681B7919467B694FEA430339
:104BA00001FA03F31A437B681A603B681B79012BF7
:104BB00003D03B681B79022B38D17B689B681A466F
:104BC0007B694FEA43034FF0030101FA03F36FEAF5
:104BD00003031A407B689A607B689B681A463B68AF
:104BE0005B7919467B694FEA430301FA03F31A43E1
:104BF0007B689A607B685B681A467B699BB24FF062
:104C0000010101FA03F36FEA03031A407B685A605B
:104C10007B685B681A463B689B7919467B699BB247
:104C200001FA03F39BB21A437B685A607B68DB6826
:104C30001A467B699BB24FEA43034FF0030101FA26
:104C400003F36FEA03031A407B68DA607B68DB6872
:104C50001A463B68DB7919467B694FEA430301FA40
:104C600003F31A437B68DA607B6903F101037B611C
:104C70007B690F2B7FF66CAF07F11C07BD4680BC2C
:104C8000704700BF80B485B000AF78600B467B8072
:104C90004FF00003FB737B681B691A467B8802EAAE
:104CA0000303002B03D04FF00103FB7302E04FF02E
:104CB0000003FB73FB7B184607F11407BD4680BC5D
:104CC000704700BF80B485B000AF786013460A46D5
:104CD0007A807B704FF00003FB604FF00003BB60F5
:104CE0007A787B8803F007034FEA830302FA03F321
:104CF000FB607B884FEAD3039BB21A467B884FEA5E
:104D0000D3039BB219467B6801F1080153F82130A7
:104D100019467B8803F007034FEA83034FF00F0027
:104D200000FA03F36FEA030319407B6802F10802FB
:104D300043F822107B884FEAD3039BB21A467B6864
:104D400002F1080253F822301A46FB6842EA0303D4
:104D5000BB607B884FEAD3039BB21A467B6802F1A3
:104D60000802B96843F8221007F11407BD4680BC59
:104D7000704700BF80B483B000AF78607B6803F1F8
:104D800008031A467B685A607B684FF0FF329A60CE
:104D90007B6803F108031A467B68DA607B6803F1DD
:104DA00008031A467B681A617B684FF000021A609C
:104DB00007F10C07BD4680BC704700BF80B483B0CC
:104DC00000AF78607B684FF000021A6107F10C07B2
:104DD000BD4680BC704700BF80B485B000AF78602E
:104DE00039607B685B68FB60FB685B681A463B6800
:104DF0005A607B685A683B689A60FB685B683A68EF
:104E00009A603A68FB685A603A687B685A603B6807
:104E10007A681A617B681B6803F101027B681A607B
:104E200007F11407BD4680BC704700BF80B485B051
:104E300000AF786039603B681B68BB60BB68B3F14A
:104E4000FF3F03D17B681B69FB600EE07B6803F1C9
:104E50000803FB6002E0FB685B68FB60FB685B6863
:104E60001B681A46BB689A42F5D9FB685B681A460C
:104E70003B685A603B685B683A689A603B68FA68CE
:104E80009A603A68FB685A603B687A681A617B6886
:104E90001B6803F101027B681A6007F11407BD4625
:104EA00080BC704780B485B000AF78607B685B6879
:104EB0007A6892689A607B689B687A6852685A60E0
:104EC0007B681B69FB60FB685A687B689A4203D168
:104ED0007B689A68FB685A607B684FF000021A6131
:104EE000FB681B6803F1FF32FB681A6007F11407C7
:104EF000BD4680BC704700BF80B500AF4FF4605323
:104F0000C4F202034FF46052C4F20202126842F08B
:104F100001021A604FF46053C4F202034FF0000222
:104F20009A604FF46053C4F202034FF46052C4F22B
:104F30000202126822F0847222F480321A604FF466
:104F40006053C4F2020343F21002C2F200425A60FC
:104F50004FF46053C4F202034FF46052C4F20202F1
:104F6000126822F480221A604FF46053C4F20203E4
:104F70004FF00002DA6000F009F84FF46D43CEF212
:104F800000034FF000629A6080BD00BF80B483B020
:104F900000AF4FF000037B604FF000033B604FF425
:104FA0006053C4F202034FF46052C4F2020212686A
:104FB00042F480321A604FF46053C4F202031B685B
:104FC00003F400333B607B6803F101037B603B68C3
:104FD000002B03D17B68B3F5A06FECD14FF4605385
:104FE000C4F202031B6803F40033002B03D04FF01C
:104FF00001033B6002E04FF000033B603B68012B84
:1050000069D14FF46053C4F202034FF46052C4F20A
:10501000020292689A604FF46053C4F202034FF4A4
:105020006052C4F20202926842F400429A604FF465
:105030006053C4F202034FF46052C4F20202926859
:1050400042F4A0529A604FF46053C4F2020343F258
:105050000402C0F643025A604FF46053C4F20203E4
:105060004FF46052C4F20202126842F080721A6079
:1050700000BF4FF46053C4F202031B6803F00073D7
:10508000002BF6D04FF47053C4F2020340F20172C9
:105090001A604FF46053C4F202034FF46052C4F23A
:1050A0000202926822F003029A604FF46053C4F245
:1050B00002034FF46052C4F20202926842F002020C
:1050C0009A6000BF4FF46053C4F202039B6803F080
:1050D0000C03082BF6D107F10C07BD4680BC7047C6
:1050E00080B582B000AF786039607B68002B04D156
:1050F0004FF0500080F31188FEE700F02FFC7B6832
:105100001A687B68DB6B7968096C01FB03F3D218C2
:105110007B685A607B684FF000029A637B681A686C
:105120007B689A607B681A687B68DB6B03F1FF33EE
:105130007968096C01FB03F3D2187B68DA607B683D
:105140004FF0FF325A647B684FF0FF329A643B683D
:10515000002B0FD17B681B69002B17D07B6803F1F4
:1051600010031846FDF7E4FC0346012B0ED100F0B6
:10517000E9FB0BE07B6803F110031846FFF7FAFD2B
:105180007B6803F124031846FFF7F4FD00F0FCFBF5
:105190004FF00103184607F10807BD4680BD00BF68
:1051A00080B588B000AFF860B9601346FB714FF06E
:1051B0000003FB61FB68002B2BD04FF04C0001F08B
:1051C0002FF90346BB61BB69002B22D0FB68BA688C
:1051D00002FB03F303F101037B61786901F020F91D
:1051E00003461A46BB691A60BB691B68002B0DD0C9
:1051F000BB69FA68DA63BB69BA681A64B8694FF0C8
:105200000101FFF76DFFBB69FB6102E0B86901F0C6
:1052100059F9FB69002B04D14FF0500080F311883D
:10522000FEE7FB69184607F12007BD4680BD00BFB9
:1052300080B584B000AF0346FB714FF04C0001F025
:10524000EFF80346FB60FB68002B38D0FB684FF09B
:1052500000025A60FB684FF000021A60FB684FF0D2
:1052600000029A60FB684FF00002DA60FB684FF0C2
:1052700000029A63FB684FF00102DA63FB684FF0AB
:1052800000021A64FB684FF0FF325A64FB684FF06B
:10529000FF329A64FB6803F110031846FFF76AFDBA
:1052A000FB6803F124031846FFF764FDF8684FF02C
:1052B00000014FF000024FF0000300F00FF8FB6810
:1052C000002B04D14FF0500080F31188FEE7FB68FB
:1052D000184607F11007BD4680BD00BF80B588B0F5
:1052E00000AFF860B9607A603B604FF00003FB618B
:1052F000FB68002B04D14FF0500080F31188FEE7CB
:10530000BB68002B03D1FB681B6C002B02D14FF054
:10531000010301E04FF00003002B05D14FF05000D6
:1053200080F31188FEE700BF00F018FBFB689B6B61
:105330001A46FB68DB6B9A4218D2F868B9683A687B
:1053400000F070F9FB685B6A002B0AD0FB6803F180
:1053500024031846FDF7ECFB0346012B01D100F0B6
:10536000F1FA00F011FB4FF001035DE07B68002BC8
:1053700004D100F009FB4FF0000355E0FB69002B5E
:1053800007D107F114031846FDF73CFC4FF0010369
:10539000FB6100F0F9FAFDF723F900F0DFFAFB6892
:1053A0005B6CB3F1FF3F03D1FB684FF000025A641E
:1053B000FB689B6CB3F1FF3F03D1FB684FF0000229
:1053C0009A6400F0E1FA07F1140207F104031046B1
:1053D0001946FDF737FC0346002B1ED1F86800F094
:1053E00011FA0346002B12D0FB6803F110027B6810
:1053F00010461946FDF758FBF86800F09DF9FDF7D7
:1054000001F90346002B8ED100F09CFA8CE7F86876
:1054100000F092F9FDF7F6F886E7F86800F08CF9ED
:10542000FDF7F0F84FF00003184607F12007BD46DE
:1054300080BD00BF80B588B000AFF860B9607A6009
:105440003B604FF00003FB61FB68002B04D14FF081
:10545000500080F31188FEE7BB68002B03D1FB6886
:105460001B6C002B02D14FF0010301E04FF0000351
:10547000002B05D14FF0500080F31188FEE700BFEC
:1054800000F06CFAFB689B6B002B40D0FB68DB687C
:10549000BB61F868B96800F027F93B68002B1FD1A1
:1054A000FB689B6B03F1FF32FB689A63FB681B6828
:1054B000002B05D1FDF7B2FD03461A46FB685A6082
:1054C000FB681B69002B1DD0FB6803F11003184615
:1054D000FDF72EFB0346012B14D100F033FA11E047
:1054E000FB68BA69DA60FB685B6A002B0AD0FB686C
:1054F00003F124031846FDF71BFB0346002B01D0E4
:1055000000F020FA00F040FA4FF001036BE07B68F6
:10551000002B04D100F038FA4FF0000363E0FB6980
:10552000002B07D107F110031846FDF76BFB4FF076
:105530000103FB6100F028FAFDF752F800F00EFAC3
:10554000FB685B6CB3F1FF3F03D1FB684FF00002D7
:105550005A64FB689B6CB3F1FF3F03D1FB684FF0CB
:1055600000029A6400F010FA07F1100207F1040338
:1055700010461946FDF766FB0346002B2CD1F86850
:1055800000F02AF90346002B20D0FB681B68002B93
:1055900008D100F0E3F9FB685B681846FDF74EFDA3
:1055A00000F0F2F9FB6803F124027B68104619460B
:1055B000FDF77AFAF86800F0BFF8FDF723F8034624
:1055C000002B7FF45CAF00F0BDF959E7F86800F0FC
:1055D000B3F8FDF717F853E7F86800F0ADF8FDF7FA
:1055E00011F84FF00003184607F12007BD4680BDB3
:1055F00080B584B000AF78607B68002B04D14FF099
:10560000500080F31188FEE700F0A8F97B689B6BDF
:10561000FB6000F0B9F9FB68184607F11007BD46BA
:1056200080BD00BF80B584B000AFF860B9607A601B
:10563000FB681B6C002B0DD1FB681B68002B48D14D
:10564000FB685B681846FDF76DFDFB684FF00002D4
:105650005A603EE07B68002B1AD1FB689A68FB68B1
:105660001B6C1046B9681A4601F0B8F8FB689A68D6
:10567000FB681B6CD218FB689A60FB689A68FB6831
:105680005B689A4225D3FB681A68FB689A6020E041
:10569000FB68DA68FB681B6C1046B9681A4601F0B3
:1056A0009DF8FB68DA68FB681B6CC3F10003D21835
:1056B000FB68DA60FB68DA68FB681B689A4208D20C
:1056C000FB685A68FB681B6CC3F10003D218FB68C7
:1056D000DA60FB689B6B03F10102FB689A6307F1D8
:1056E0001007BD4680BD00BF80B582B000AF7860B6
:1056F00039607B681B68002B19D07B68DA687B688F
:105700001B6CD2187B68DA607B68DA687B685B6840
:105710009A4203D37B681A687B68DA607B68DA6830
:105720007B681B6C386811461A4601F057F807F180
:105730000807BD4680BD00BF80B582B000AF78606D
:1057400000F00CF914E07B685B6A002B15D07B68D5
:1057500003F124031846FDF7EBF90346002B01D0B3
:10576000FDF7D2FA7B689B6C03F1FF327B689A6489
:105770007B689B6C002BE6DC00E000BF7B684FF091
:10578000FF329A6400F000F900F0E8F814E07B685A
:105790001B69002B15D07B6803F110031846FDF739
:1057A000C7F90346002B01D0FDF7AEFA7B685B6CAE
:1057B00003F1FF327B685A647B685B6C002BE6DC8C
:1057C00000E000BF7B684FF0FF325A6400F0DCF865
:1057D00007F10807BD4680BD80B584B000AF786092
:1057E00000F0BCF87B689B6B002B14BF00230123E7
:1057F000FB6000F0C9F8FB68184607F11007BD46CA
:1058000080BD00BF80B584B000AF786000F0A6F81E
:105810007B689B6B1A467B68DB6B9A4214BF002344
:105820000123FB6000F0B0F8FB68184607F1100791
:10583000BD4680BD80B485B000AFF860B9607A60C5
:10584000FB68A3F10403FB60FB684FF080721A60F1
:10585000FB68A3F10403FB60BA68FB681A60FB688D
:10586000A3F10403FB60FB684FF000021A60FB68C1
:10587000A3F11403FB607A68FB681A60FB68A3F16C
:105880000403FB60FB686FF002021A60FB68A3F17F
:105890002003FB60FB68184607F11407BD4680BC77
:1058A000704700BF054B19680868B0E8F04F80F3F7
:1058B00009884FF0000080F311887047CC00002069
:1058C00003480068006880F3088862B600DF00BF04
:1058D00008ED00E080B500AF4EF62053CEF2000395
:1058E0004EF62052CEF20002126842F470021A60A4
:1058F0004EF62053CEF200034EF62052CEF20002B6
:10590000126842F070421A6000F09EF840F2C40340
:10591000C2F200034FF000021A6000F0A9F84EF640
:105920003473CEF200034EF63472CEF200021268E7
:1059300042F040421A60FFF7C3FF4FF000031846E1
:1059400080BD00BF80B400AF4EF60453CEF200031A
:105950004FF080521A60BD4680BC704780B400AFE3
:105960004FF0500080F3118840F2C403C2F20003EC
:105970001B6803F1010240F2C403C2F200031A6083
:10598000BD4680BC704700BF80B400AF40F2C40386
:10599000C2F200031B6803F1FF3240F2C403C2F2FB
:1059A00000031A6040F2C403C2F200031B68002B1C
:1059B00003D14FF0000080F31188BD4680BC7047D2
:1059C000EFF30980114B1A681EF0100F08BF20ED8D
:1059D000108A20E9F04F10602DE908404FF0500088
:1059E00080F31188FCF7ACFF4FF0000080F31188C2
:1059F000BDE8084019680868B0E8F04F1EF0100FC5
:105A000008BFB0EC108A80F309887047CC000020F2
:105A100080B582B000AF4EF60453CEF200034FF0D3
:105A200080521A604FF000037B604FF0500080F30B
:105A30001188FCF79DFE4FF0000080F3118807F1FC
:105A40000807BD4680BD00BF80B400AF4EF214030E
:105A5000CEF200034BF67F321A604EF21003CEF204
:105A600000034FF007021A60BD4680BC704700BFBC
:105A7000DFF80C00016841F470010160704700001C
:105A800088ED00E080B485B000AF786039604FF0F9
:105A90000003FB817B681B88FB81FB8903F4415376
:105AA000FB813B681A883B685B8842EA03039AB231
:105AB0003B689B8842EA03039AB23B68DB8842EA70
:105AC00003039AB23B681B8942EA03039AB23B681C
:105AD0005B8942EA03039AB23B689B8942EA03036B
