:020000040800F2
:10000000C42500201D09000895090008950900086D
:1000100095090008950900089509000800000000EE
:10002000000000000000000000000000452F000854
:10003000950900080000000061300008B130000898
:1000400095090008293A0008950900089509000853
:100050009509000895090008950900089509000808
:1000600095090008950900089509000895090008F8
:1000700095090008950900089509000895090008E8
:1000800095090008950900089509000895090008D8
:1000900095090008950900089509000895090008C8
:1000A00095090008F90E000895090008950900084F
:1000B00095090008950900089509000895090008A8
:1000C0009509000895090008950900089509000898
:1000D0009509000895090008950900089509000888
:1000E0009509000895090008950900089509000878
:1000F0009509000895090008950900089509000868
:100100009509000895090008950900089509000857
:100110009509000895090008950900089509000847
:100120009509000895090008950900089509000837
:100130009509000895090008950900089509000827
:100140009509000895090008950900089509000817
:100150009509000895090008950900089509000807
:1001600095090008950900089509000895090008F7
:1001700095090008950900089509000895090008E7
:100180009509000895090008F0B587B000AF03464F
:100190003960FB714FF00003FB754FF00003BB7536
:1001A0004FF000037B754FF000033B75FB794FF078
:1001B000160202FB03F2054BD3183B613B691B8817
:1001C000022B05D94FF00003A2E300BF5C1D002005
:1001D000386803F067FD03463B7541F6C453C2F22D
:1001E00000031B6818464FF000014FF0FF324FF03C
:1001F000000302F089FC0346012B40F088833B6931
:100200005B8819463B691B883A69D08941F62052C0
:10021000C2F200024FF01A0404FB03F40B464FEA4B
:1002200003135B1A4FEA4303E318D31803F10203E5
:1002300002461A803B695B8819463B691B883A690C
:10024000108A41F62052C2F200024FF01A0404FB59
:1002500003F40B464FEA03135B1A4FEA4303E31818
:10026000D31803F1040302461A803B695B881946E0
:100270003B691B883A69908941F62052C2F200021C
:100280004FF01A0404FB03F40B464FEA03135B1A06
:100290004FEA4303E318D31803F1060302461A801A
:1002A0003B695B8819463B691B883A69108941F6AE
:1002B0002052C2F200024FF01A0404FB03F40B4672
:1002C0004FEA03135B1A4FEA4303E318D31803F111
:1002D000080302461A803B695B8819463B691B8804
:1002E0003A69508941F62052C2F200024FF01A04D6
:1002F00004FB03F40B464FEA03135B1A4FEA430374
:10030000E318D31803F10A0302461A803B695B889D
:1003100019463B691B8841F62052C2F200024FF099
:100320001A0000FB03F00B464FEA03135B1A4FEA77
:100330004303C318D31803F10C034FF480721A80DF
:100340003B695B8819463B691B8841F62052C2F223
:1003500000024FF01A0000FB03F00B464FEA0313B4
:100360005B1A4FEA4303C318D31803F10E034FF48B
:1003700000721A803B695B8819463B691B8841F60D
:100380002052C2F200024FF01A0000FB03F00B46AD
:100390004FEA03135B1A4FEA4303C318D31803F160
:1003A00010034FF440721A803B695B8819463B6921
:1003B0001B8841F62052C2F200024FF01A0000FBE7
:1003C00003F00B464FEA03135B1A4FEA4303C318CB
:1003D000D31803F112034FF480621A803B695B88E3
:1003E00019463B691B8841F62052C2F200024FF0C9
:1003F0001A0000FB03F00B464FEA03135B1A4FEAA7
:100400004303C318D31803F114034FF4A0621A80F6
:100410003B695B8819463B691B8841F62052C2F252
:1004200000024FF01A0000FB03F00B464FEA0313E3
:100430005B1A4FEA4303C318D31803F116034FF4B2
:10044000C0621A803B695B8819463B691B8841F68C
:100450002052C2F200024FF01A0000FB03F00B46DC
:100460004FEA03135B1A4FEA4303C318D31803F18F
:1004700018034FF4E0621A803B695B8819463B69B8
:100480001B8841F62052C2F200024FF01A0000FB16
:1004900003F00B464FEA03135B1A4FEA4303C318FA
:1004A000D31803F11A034FF400621A807B7D03F125
:1004B00005037B7597F914300A2B02DD4FF00A0310
:1004C0003B754FF00003FB750AE297F917303A6865
:1004D000D3181B782F2B65D997F917303A68D318A2
:1004E0001B78392B5ED897F917303A68D3181B78E8
:1004F000A3F1300243F68053C0F600039B18DB7F64
:10050000FB733B695B881C463B691B8818467E7DF4
:100510003B695B881D463B691B881A4697F815E0C6
:1005200041F62051C2F2000113464FEA43039B18E3
:100530004FEA83039B182A464FEA0212521B9B186C
:1005400073444FEA4303CB185B889AB2FB7B99B2A2
:100550007B7DA3F104039BB24FEA03239BB29BB2C2
:1005600041EA03039BB242EA03039BB29DB241F608
:100570002051C2F2000103464FEA43031B184FEA21
:1005800083031B1822464FEA0212121B9B189B1969
:100590004FEA4303CB182A465A807B7D03F10103BF
:1005A0007B7599E197F917303A68D3181B782E2B91
:1005B00040F0178197F9172097F9143003F1FF33B2
:1005C0009A4280F2CD8097F9173003F101033A681F
:1005D000D3181B782E2B40F082803B695B881C4629
:1005E0003B691B8818467E7D3B695B881D463B69DD
:1005F0001B881A4697F815E041F62051C2F2000117
:1006000013464FEA43039B184FEA83039B182A467D
:100610004FEA0212521B9B1873444FEA4303CB1854
:100620005B8843F080039DB241F62051C2F2000185
:1006300003464FEA43031B184FEA83031B18224665
:100640004FEA0212121B9B189B194FEA4303CB1867
:100650002A465A803B695B881C463B691B881846C2
:100660007B7D03F1FF363B695B881D463B691B8838
:100670001A467B7D03F1FF3E41F62051C2F2000194
:1006800013464FEA43039B184FEA83039B182A46FD
:100690004FEA0212521B9B1873444FEA4303CB18D4
:1006A0005B8843F080039DB241F62051C2F2000105
:1006B00003464FEA43031B184FEA83031B182246E5
:1006C0004FEA0212121B9B189B194FEA4303CB18E7
:1006D0002A465A807B7D03F101037B75FCE03B6970
:1006E0005B881C463B691B8818467B7D03F1FF36FF
:1006F0003B695B881D463B691B881A467B7D03F17D
:10070000FF3E41F62051C2F2000113464FEA430377
:100710009B184FEA83039B182A464FEA0212521B8A
:100720009B1873444FEA4303CB185B8843F0800364
:100730009DB241F62051C2F2000103464FEA430345
:100740001B184FEA83031B1822464FEA0212121BA2
:100750009B189B194FEA4303CB182A465A80BBE0EB
:100760003B695B881C463B691B8818467B7D03F10F
:10077000FF363B695B881D463B691B881A467B7DBB
:1007800003F1FF3E41F62051C2F2000113464FEA49
:1007900043039B184FEA83039B182A464FEA021231
:1007A000521B9B1873444FEA4303CB185B8843F0FA
:1007B00080039DB241F62051C2F2000103464FEA88
:1007C00043031B184FEA83031B1822464FEA021209
:1007D000121B9B189B194FEA4303CB182A465A80D9
:1007E0007AE04FF00A03BB756BE097F917303A686F
:1007F000D3181A7897F9161043F68053C0F6000301
:100800005B5C9A4259D197F9162043F68053C0F6A3
:1008100000039B18DB7FBB733B695B881C463B690D
:100820001B8818467E7D3B695B881D463B691B889B
:100830001A4697F815E041F62051C2F2000113461E
:100840004FEA43039B184FEA83039B182A464FEA5B
:100850000212521B9B1873444FEA4303CB185B8868
:100860009AB2BB7B99B27B7DA3F104039BB24FEAA2
:1008700003239BB29BB241EA03039BB242EA030308
:100880009BB29DB241F62051C2F2000103464FEAED
:1008900043031B184FEA83031B1822464FEA021238
:1008A000121B9B189B194FEA4303CB182A465A8008
:1008B0007B7D03F101037B7507E0BB7D03F1010341
:1008C000BB7597F916301E2B8FDD7A7D3B69DB886F
:1008D00003F105039A420BDCFB7D03F10103FB7579
:1008E00097F9172097F914309A42FFF6EEAD00E021
:1008F00000BF41F6C453C2F200031B6818464FF014
:1009000000014FF000024FF0000302F051F87B7D30
:10091000184607F11C07BD46F0BD00BF80B582B088
:1009200000AF43F60463C0F600037B6040F20003AF
:10093000C2F200033B600BE07B681A683B681A60F8
:100940003B6803F104033B607B6803F104037B60B5
:100950003A6840F20C03C2F200039A42ECD30A4810
:100960000A494FF000028842B8BF40F8042BFADB76
:10097000DFF81C00016841F47001016000F01CF90F
:1009800007F10807BD4680BD10000020C81D0020EB
:1009900088ED00E080B400AFFEE700BF80B483B014
:1009A00000AF4FF00003FB714FF00003BB7140F24A
:1009B0001003C2F200031B7803F10103DAB240F224
:1009C0001003C2F200031A7040F21003C2F20003D7
:1009D0001B78042B1AD84FF00003FB7112E0FA7950
:1009E00041F62053C2F200034FF0160101FB02F260
:1009F0009B1803F148034FF000021A72FB7903F1D0
:100A00000103FB71FB79012BE9D9A6E040F2100349
:100A1000C2F200031B78092B06D940F21003C2F280
:100A200000034FF000021A7040F21003C2F20003FC
:100A30001B78052B40F090804FF00003FB7186E09F
:100A4000FA7941F62053C2F200034FF0160101FB80
:100A500002F29B1803F14803DB79002B0ED0FA79E0
:100A600041F62053C2F200034FF0160101FB02F2DF
:100A70009B1803F148035B7A002B1ED1FA7941F6EB
:100A80002053C2F200034FF0160101FB02F29B1843
:100A900003F148034FF000025A72FA7941F62053ED
:100AA000C2F200034FF0160101FB02F29B1803F1A2
:100AB00048034FF000021A7245E0FA7941F62053DC
:100AC000C2F200034FF0160101FB02F29B1803F182
:100AD00048035B7AFF2B1CD0FA7941F62053C2F20F
:100AE00000034FF0160101FB02F15B1803F148030C
:100AF0005B7A03F1FF33D9B241F62053C2F200030F
:100B00004FF0160000FB02F29B1803F148030A465F
:100B10005A72F979FA7941F62053C2F200034FF084
:100B2000160000FB02F29B1803F14803DA7941F644
:100B30002053C2F200034FF0160000FB01F15B18D6
:100B400003F148031A72FB7903F10103FB71FB798E
:100B5000012B7FF675AF00E000BF07F10C07BD4623
:100B600080BC704780B483B000AF13460246FA7170
:100B70000A46BA717B71FA7941F62053C2F200033A
:100B80004FF0160101FB02F29B1803F14803BA79FA
:100B9000DA71FA7941F62053C2F200034FF01601E0
:100BA00001FB02F29B1803F148037A795A7207F1AC
:100BB0000C07BD4680BC704780B500AF01F006FD54
:100BC00000F090F901F038F900F0F8FAFEE700BF04
:100BD00080B400AFFEE700BF80B483B000AF7860A0
:100BE0003960FEE780B582B000AF02F0B1FE034687
:100BF0007B607B6807F10807BD4680BD80B483B089
:100C000000AF78600B46FB70FB78002B0ED04FF4E2
:100C10006053C4F202034FF46052C4F20202126B3A
:100C200011467A6841EA02021A630FE04FF46053FA
:100C3000C4F202034FF46052C4F20202126B114676
:100C40007A686FEA020201EA02021A6307F10C07EE
:100C5000BD4680BC704700BF80B483B000AF7860F1
:100C60000B46FB70FB78002B0ED04FF46053C4F2A0
:100C700002034FF46052C4F20202126C11467A6809
:100C800041EA02021A640FE04FF46053C4F2020317
:100C90004FF46052C4F20202126C11467A686FEA95
:100CA000020201EA02021A6407F10C07BD4680BC89
:100CB000704700BF80B483B000AF78600B46FB7014
:100CC000FB78002B0ED04FF46053C4F202034FF4B4
:100CD0006052C4F20202526C11467A6841EA020282
:100CE0005A640FE04FF46053C4F202034FF46052B1
:100CF000C4F20202526C11467A686FEA020201EAFB
:100D000002025A6407F10C07BD4680BC704700BF61
:100D100080B400AF41F62053C2F200034FF002024C
:100D20001A7041F62053C2F200034FF00002DA8736
:100D300041F62053C2F200034FF000029A8741F6B9
:100D40002053C2F200034FF00102A3F8402041F605
:100D50002053C2F200034FF00502A3F8422041F6EF
:100D60002053C2F2000340F60922A3F8442041F6C2
:100D70002053C2F200034FF41062A3F8462041F65C
:100D80002053C2F20003B3F8423003F1FF339BB2A9
:100D90009BB243F430639BB29AB241F62053C2F245
:100DA0000003A3F8482041F62053C2F2000340F6A6
:100DB0000142A3F84A2041F62053C2F200034FF447
:100DC0007062A3F84C2041F62053C2F200034FF0AA
:100DD000000283F84F2041F62053C2F2000393F83B
:100DE0004F2041F62053C2F2000383F8502041F611
:100DF0002053C2F200034FF0000283F8512041F665
:100E00002053C2F200034FF00102A3F8542041F630
:100E10002053C2F200034FF00002A3F8522041F623
:100E20002053C2F200034FF00102A3F8562041F60E
:100E30002053C2F200034FF00502A3F8582041F6F8
:100E40002053C2F2000340F60922A3F85A2041F6CB
:100E50002053C2F200034FF41062A3F85C2041F665
:100E60002053C2F20003B3F8583003F1FF339BB2B2
:100E70009BB243F430639BB29AB241F62053C2F264
:100E80000003A3F85E2041F62053C2F2000340F6AF
:100E90000142A3F8602041F62053C2F200034FF450
:100EA0007062A3F8622041F62053C2F200034FF0B3
:100EB000000283F8652041F62053C2F2000393F844
:100EC000652041F62053C2F2000383F8662041F604
:100ED0002053C2F200034FF0000283F86720BD46A2
:100EE00080BC704780B500AFFFF712FF02F0E6F953
:100EF0004FF00003184680BD80B500AF4FF00000F2
:100F0000C4F201004FF0010102F030FD0346002B56
:100F100035D04FF00000C4F201004FF0010102F0A3
:100F200057FD4FF00003C4F201031B889BB203F08E
:100F30001003002B0CD040F20003C2F200031B6828
:100F400003F1FF3240F20003C2F200031A600BE02B
:100F500040F20003C2F200031B6803F1010240F2F9
:100F60000003C2F200031A604FF00003C4F2010351
:100F70005B6A1A4640F21403C2F200031A6080BD95
:100F800080B58AB002AFF860B9603B601346FB8061
:100F9000FB68002B04D14FF0500080F31188FEE76E
:100FA000BB6A042B04D94FF0500080F31188FEE790
:100FB000FB881846396B00F017FEB861BB69002B3F
:100FC00000F0B080BB691A6BFB8803F1FF334FEA76
:100FD0008303D3187B617B6923F007037B617B6903
:100FE00003F00703002B04D04FF0500080F311886A
:100FF000FEE7FB880093B869B968BA6A7B6B00F0BA
:10100000D1FC7869F9683A6801F064FF03461A4632
:10101000BB691A60FB6A002B02D0FB6ABA691A60CE
:1010200001F0ECFF40F2F003C2F200031B6803F191
:10103000010240F2F003C2F200031A6040F218030A
:10104000C2F200031B68002B0FD140F21803C2F25A
:101050000003BA691A6040F2F003C2F200031B6891
:10106000012B18D100F0DCFC15E040F20013C2F2B5
:1010700000031B68002B0ED140F21803C2F20003DC
:101080001B68DA6ABB6A9A4205D840F21803C2F2BA
:101090000003BA691A60BB69DA6A40F2F803C2F267
:1010A00000031B689A4206D9BB69DA6A40F2F8036A
:1010B000C2F200031A6040F21413C2F200031B686C
:1010C00003F1010240F21413C2F200031A60BB697B
:1010D000DA6A40F2FC03C2F200031B689A4206D9A6
:1010E000BB69DA6A40F2FC03C2F200031A60BB6912
:1010F000DA6A13464FEA83039B184FEA83031A46C2
:1011000040F21C03C2F20003D218BB6903F10403CE
:101110001046194601F0CAF94FF00103FB6101F0D6
:1011200083FF02E04FF0FF33FB61FB69012B11D11C
:1011300040F20013C2F200031B68002B0AD040F2F9
:101140001803C2F200031B68DA6ABB6A9A4201D232
:1011500001F048FFFB69184607F12007BD4680BD36
:1011600080B584B000AF78604FF00003FB607B680F
:10117000002B19D000F064F840F2F403C2F200032F
:101180001A687B68D318BB6040F21803C2F20003F0
:101190001B6803F10403184601F0EEF9B86800F08B
:1011A000DDFC00F05FF8F860FB68002B01D101F076
:1011B00019FF07F11007BD4680BD00BF80B586B09E
:1011C00004AF43F6C053C0F600034FF00002009294
:1011D0004FF0000201924FF0000202924FF0000225
:1011E000039241F68110C0F6000019464FF0460206
:1011F0004FF00003FFF7C4FE78607B68012B13D12A
:101200004FF0500080F3118840F20013C2F2000347
:101210004FF001021A6040F2F403C2F200034FF0F3
:1012200000021A6001F0A6FE7B68002B04D14FF08B
:10123000500080F31188FEE707F10807BD4680BD26
:1012400080B400AF40F20413C2F200031B6803F144
:10125000010240F20413C2F200031A60BD4680BCD2
:10126000704700BF90B583B000AF4FF000037B60C4
:1012700040F20413C2F200031B68002B04D14FF0AC
:10128000500080F31188FEE701F0B8FE40F204132D
:10129000C2F200031B6803F1FF3240F20413C2F2F2
:1012A00000031A6040F20413C2F200031B68002B13
:1012B00040F0868040F2F003C2F200031B68002B6E
:1012C0007ED04FF000033B603DE040F2B003C2F23D
:1012D0000003DB68DB681C4604F11803184601F0C4
:1012E0004BF904F10403184601F046F9E26A40F2B2
:1012F000FC03C2F200031B689A4205D9E26A40F27D
:10130000FC03C2F200031A60E26A13464FEA830349
:101310009B184FEA83031A4640F21C03C2F20003F3
:10132000D21804F104031046194601F0BFF8E26A2E
:1013300040F21803C2F200031B68DB6A9A4202D330
:101340004FF001033B6040F2B003C2F200031B68A0
:10135000002BBAD140F20813C2F200031B68002B25
:1013600018D00DE000F034F840F20813C2F2000388
:101370001B6803F1FF3240F20813C2F200031A6047
:1013800040F20813C2F200031B68002BEAD14FF0B1
:1013900001033B603B68012B06D040F20C13C2F204
:1013A00000031B68012B0BD14FF001037B6040F25F
:1013B0000C13C2F200034FF000021A6001F012FE9B
:1013C00001F032FE7B68184607F10C07BD4690BD60
:1013D00080B584B000AF40F20413C2F200031B6872
:1013E000002B40F0CD8040F2F403C2F200031B68F2
:1013F00003F1010240F2F403C2F200031A6040F26A
:10140000F403C2F200031B68002B4DD140F2A80385
:10141000C2F200031B681B68002B04D04FF0500081
:1014200080F31188FEE740F2A803C2F200031B68B4
:10143000FB6040F2AC03C2F200031A6840F2A8035A
:10144000C2F200031A6040F2AC03C2F20003FA6871
:101450001A6040F21013C2F200031B6803F101028C
:1014600040F21013C2F200031A6040F2A803C2F265
:1014700000031B681B68002B07D140F20403C2F273
:1014800000034FF0FF321A600EE040F2A803C2F2F0
:1014900000031B68DB68DB68BB60BB685A6840F20E
:1014A0000403C2F200031A6040F2F403C2F2000324
:1014B0001A6840F20403C2F200031B689A426BD31D
:1014C00040F2A803C2F200031B681B68002B07D17F
:1014D00040F20403C2F200034FF0FF321A605BE0F7
:1014E00040F2A803C2F200031B68DB68DB68BB6044
:1014F000BB685B687B6040F2F403C2F200031A68C9
:101500007B689A4206D240F20403C2F200037A6872
:101510001A6041E0BB6803F10403184601F02CF89F
:10152000BB689B6A002B05D0BB6803F11803184603
:1015300001F022F8BB68DA6A40F2FC03C2F2000351
:101540001B689A4206D9BB68DA6A40F2FC03C2F211
:1015500000031A60BB68DA6A13464FEA83039B18DC
:101560004FEA83031A4640F21C03C2F20003D2186A
:10157000BB6803F104031046194600F097FF9FE78C
:1015800040F20813C2F200031B6803F1010240F2AB
:101590000813C2F200031A6007F11007BD4680BDB0
:1015A00080B582B000AF40F20413C2F200031B68A2
:1015B000002B07D040F20C13C2F200034FF00102DF
:1015C0001A609CE040F21803C2F200031B681A681C
:1015D00040F21803C2F200031B681B6B9A420FD83B
:1015E00040F21803C2F200031A6840F21803C2F274
:1015F00000031B6803F1340310461946FFF7ECFAA9
:1016000040F21803C2F200031B681B6B184643F636
:10161000C851C0F600014FF0140202F015FA03465B
:10162000002B29D040F21803C2F200031A6840F2DE
:101630001803C2F200031B6803F134031046194675
:10164000FFF7CAFA19E040F2FC03C2F200031B687C
:10165000002B04D14FF0500080F31188FEE740F2D8
:10166000FC03C2F200031B6803F1FF3240F2FC03EB
:10167000C2F200031A6000E000BF40F2FC03C2F2B5
:1016800000031A6813464FEA83039B184FEA83034B
:101690001A4640F21C03C2F20003D3181B68002B49
:1016A000D1D040F2FC03C2F200031A6813464FEA9D
:1016B00083039B184FEA83031A4640F21C03C2F2CD
:1016C0000003D3187B607B685B685B681A467B68A5
:1016D0005A607B685A687B6803F108039A4205D117
:1016E0007B685B685B681A467B685A607B685B68EE
:1016F000DB681A4640F21803C2F200031A6007F1D1
:101700000807BD4680BD00BF80B584B000AF7860DB
:1017100039607B68002B04D14FF0500080F31188B2
:10172000FEE740F21803C2F200031B6803F118033E
:101730007868194600F0E4FE40F21803C2F2000394
:101740001B6803F10403184600F016FF3B68B3F171
:10175000FF3F0ED140F21803C2F200031B6803F1F1
:10176000040340F2DC00C2F20000194600F09EFEC5
:101770000AE040F2F403C2F200031A683B68D3188F
:10178000FB60F86800F0EAF907F11007BD4680BD7C
:1017900080B584B000AF78607B68DB68DB68BB60D5
:1017A000BB68002B04D14FF0500080F31188FEE796
:1017B000BB6803F11803184600F0DEFE40F2041384
:1017C000C2F200031B68002B2BD1BB6803F104039A
:1017D000184600F0D1FEBB68DA6A40F2FC03C2F2A0
:1017E00000031B689A4206D9BB68DA6A40F2FC0320
:1017F000C2F200031A60BB68DA6A13464FEA830339
:101800009B184FEA83031A4640F21C03C2F20003FE
:10181000D218BB6803F104031046194600F046FED7
:1018200009E0BB6803F1180340F2B000C2F2000007
:10183000194600F03BFEBB68DA6A40F21803C2F2B8
:1018400000031B68DB6A9A4203D34FF00103FB607D
:1018500002E04FF00003FB60FB68184607F1100739
:10186000BD4680BD80B483B000AF78607B68002B3C
:1018700004D14FF0500080F31188FEE740F21013BE
:10188000C2F200031A687B681A6040F2F403C2F2E5
:1018900000031A687B685A6007F10C07BD4680BCDC
:1018A000704700BF80B584B000AF786039607B6856
:1018B000002B04D14FF0500080F31188FEE73B6805
:1018C000002B04D14FF0500080F31188FEE701F0A7
:1018D00095FB3B681B68B3F1FF3F03D14FF000035A
:1018E000FB6038E07B681A6840F21013C2F2000314
:1018F0001B689A420CD07B685A6840F2F403C2F22B
:1019000000031B689A4203D84FF00103FB6022E0FA
:1019100040F2F403C2F200031A687B685B68D21AD3
:101920003B681B689A4213D23B681A687B68596807
:1019300040F2F403C2F200031B68CB1AD2183B68D2
:101940001A607868FFF78EFF4FF00003FB6002E03B
:101950004FF00103FB6001F067FBFB68184607F1DD
:101960001007BD4680BD00BF80B400AF40F20C132D
:10197000C2F200034FF001021A60BD4680BC7047FE
:1019800080B582B000AF786000F09CF840F21C0394
:10199000C2F200031B68012B01D901F023FBFFF702
:1019A00021F9F1E780B584B000AFF860B9607A60E2
:1019B0003B60FB6803F134031A46BB6810461946C6
:1019C0004FF00A0202F09EF9FB684FF0000283F824
:1019D0003D207B68042B02D94FF004037B60FB6839
:1019E0007A68DA62FB687A681A64FB6803F10403B8
:1019F000184600F04DFDFB6803F11803184600F08F
:101A000047FDFB68FA681A617B68C3F10502FB6851
:101A10009A61FB68FA685A6207F11007BD4680BDFB
:101A200080B582B000AF4FF000037B6013E07A68AE
:101A300013464FEA83039B184FEA83031A4640F28A
:101A40001C03C2F20003D318184600F0FDFC7B68AB
:101A500003F101037B607B68042BE8D940F280002E
:101A6000C2F2000000F0F0FC40F29400C2F200006C
:101A700000F0EAFC40F2B000C2F2000000F0E4FC2A
:101A800040F2C400C2F2000000F0DEFC40F2DC00D4
:101A9000C2F2000000F0D8FC40F2A803C2F200033A
:101AA00040F28002C2F200021A6040F2AC03C2F2BD
:101AB000000340F29402C2F200021A6007F1080724
:101AC000BD4680BD80B582B000AF40F2D803C2F2FF
:101AD00000031B68002B3CD0FFF7B2FB40F2C403AD
:101AE000C2F200031B68002B14BF002301237B609C
:101AF000FFF7B8FB7B68002B2BD101F07FFA40F297
:101B0000C403C2F20003DB68DB683B603B6803F19F
:101B10000403184600F030FD40F2F003C2F2000367
:101B20001B6803F1FF3240F2F003C2F200031A60B7
:101B300040F2D803C2F200031B6803F1FF3240F207
:101B4000D803C2F200031A6001F06EFA386800F0A0
:101B500085F807F10807BD4680BD00BF80B582B09B
:101B600000AF786040F21803C2F200031B687A6885
:101B70005A6040F2F403C2F200031B687A689A428A
:101B800010D240F2AC03C2F200031A6840F218030C
:101B9000C2F200031B6803F104031046194600F06B
:101BA000AFFC1DE040F2A803C2F200031A6840F245
:101BB0001803C2F200031B6803F104031046194620
:101BC00000F09EFC40F20403C2F200031B687A6836
:101BD0009A4205D240F20403C2F200037A681A6006
:101BE00007F10807BD4680BD80B584B000AF03464D
:101BF0003960FB804FF0440001F04EFE0346FB606D
:101C0000FB68002B23D03B68002B07D1FB884FEAF1
:101C10008303184601F040FE034600E03B68FA6883
:101C20001363FB681B6B002B06D1F86801F086FE7E
:101C30004FF00003FB600AE0FB681A6BFB884FEA79
:101C4000830310464FF0A5011A4601F0D1FFFB684F
:101C5000184607F11007BD4680BD00BF80B582B0B1
:101C600000AF78607B681B6B184601F067FE7868F0
:101C700001F064FE07F10807BD4680BD80B483B063
:101C800000AF40F21803C2F200031B687B607B6860
:101C9000184607F10C07BD4680BC704780B584B07C
:101CA00000AF78607B68FB607B68002B04D14FF04D
:101CB000500080F31188FEE7FB68DA6A40F21803EF
:101CC000C2F200031B68DB6A9A4257D240F2180343
:101CD000C2F200031B68DB6AC3F10502FB689A616C
:101CE000FB685969FB68DA6A13464FEA83039B185D
:101CF0004FEA83031A4640F21C03C2F20003D318D2
:101D0000994233D1FB6803F10403184600F034FC18
:101D100040F21803C2F200031B68DA6AFB68DA6259
:101D2000FB68DA6A40F2FC03C2F200031B689A42C5
:101D300006D9FB68DA6A40F2FC03C2F200031A60BB
:101D4000FB68DA6A13464FEA83039B184FEA830362
:101D50001A4640F21C03C2F20003D218FB6803F1DA
:101D600004031046194600F0A1FB07E040F21803F7
:101D7000C2F200031B68DA6AFB68DA6207F1100737
:101D8000BD4680BD80B584B000AF78607B68FB60E5
:101D90007B68002B3AD0FB68DA6AFB681B6C9A42BE
:101DA00034D0FB6803F10403184600F0E5FBFB6840
:101DB0001A6CFB68DA62FB68DB6AC3F10502FB6838
:101DC0009A61FB68DA6A40F2FC03C2F200031B6806
:101DD0009A4206D9FB68DA6A40F2FC03C2F20003B9
:101DE0001A60FB68DA6A13464FEA83039B184FEACE
:101DF00083031A4640F21C03C2F20003D218FB68A8
:101E000003F104031046194600F050FB07F11007D8
:101E1000BD4680BD80B483B000AF0346FB8003E0C5
:101E2000FB8803F1FF33FB80FB88002BF8D107F11F
:101E30000C07BD4680BC704780B586B004AF4FF03C
:101E400005004FF00101FEF7D9FE4FF470633B60CF
:101E50004FF000037B714FF001033B714FF0010322
:101E6000BB714FF00003FB713B464FF40060C4F2BE
:101E70000200194600F0E4F94FF41C433B604FF0B8
:101E800000037B714FF000033B714FF00103FB71C6
:101E90003B464FF00000C4F20200194600F0D0F9B2
:101EA0004FF40063C4F202034FF470621A834FF0E0
:101EB00002004FF001014FF0000200F0DBFC02468F
:101EC00041F6C053C2F200031A6043F6DC53C0F679
:101ED00000034FF0010200924FF0000201924FF018
:101EE000000202924FF00002039241F60970C0F620
:101EF000000019464FF040024FF00003FFF740F892
:101F000007F10807BD4680BD80B586B000AF786098
:101F10004FF00003BB754FF000037B754FF00003DB
:101F2000FB754FF000037B824FF41C437B8200F073
:101F300065F80346FB734FF00A00FFF711F900F054
:101F40005DF803467B74FB7BFF2B30D0FB7B7A7CF8
:101F50009A424ED1FB7BBB73FB7D132B04D8FB7DD8
:101F600003F10103FB7544E0FB7D142B41D1FB7DA4
:101F700003F10103FB75FB7B03F11003DBB2FB7381
:101F800041F6C053C2F200031B68002B31D041F66A
:101F9000C053C2F200031A6807F10F031046194636
:101FA0004FF000024FF0000300F002FD21E0FB7D46
:101FB000002B18D0FB7D132B15D841F6C053C2F26D
:101FC00000031B68002B0ED041F6C053C2F2000381
:101FD0001A6807F10E03104619464FF000024FF041
:101FE000000300F0E5FC4FF0FF033B744FF00003EB
:101FF000FB754FF03200FFF7B3F898E780B582B079
:1020000000AF4FF00003FB714FF00003BB804FF4B3
:102010001C43BB804FF40063C4F202034FF47062B0
:102020001A834FF00003FB71FEE0FB79032B00F2F3
:10203000F78001A252F823F049200008BF200008D1
:1020400035210008AB2100084FF40063C4F20203FD
:102050004FF480725A834FF00A00FFF7DBFE4FF017
:102060000003C4F202031B697B804FF40063C4F2D7
:1020700002034FF470621A837B886FEA0302BB8805
:1020800002EA0303B3F5006F10D0B3F5006F03DC71
:10209000B3F5806F07D0C3E0B3F5805F09D0B3F527
:1020A000004F09D0BCE04FF00103C3E04FF0020342
:1020B000C0E04FF00303BDE04FF00A03BAE04FF475
:1020C0000063C4F202034FF400725A834FF00A0017
:1020D000FFF7A0FE4FF00003C4F202031B697B80F0
:1020E0004FF40063C4F202034FF470621A837B88DA
:1020F0006FEA0302BB8802EA0303B3F5006F10D056
:10210000B3F5006F03DCB3F5806F07D088E0B3F55B
:10211000805F09D0B3F5004F09D081E04FF0040390
:1021200088E04FF0050385E04FF0060382E04FF0B2
:102130000B037FE04FF40063C4F202034FF48062AC
:102140005A834FF00A00FFF765FE4FF00003C4F218
:1021500002031B697B804FF40063C4F202034FF457
:1021600070621A837B886FEA0302BB8802EA03036A
:10217000B3F5006F10D0B3F5006F03DCB3F5806FDB
:1021800007D04DE0B3F5805F09D0B3F5004F09D01B
:1021900046E04FF007034DE04FF008034AE04FF0F0
:1021A000090347E04FF00C0344E04FF40063C4F22E
:1021B00002034FF400625A834FF00A00FFF72AFE31
:1021C0004FF00003C4F202031B697B804FF40063ED
:1021D000C4F202034FF470621A837B886FEA030231
:1021E000BB8802EA0303B3F5006F10D0B3F5006FAC
:1021F00003DCB3F5806F07D012E0B3F5805F09D040
:10220000B3F5004F09D00BE04FF00D0312E04FF093
:1022100000030FE04FF00F030CE04FF00E0309E056
:10222000FB7903F10103FB71FB79032B7FF6FDAE14
:102230004FF0FF03184607F10807BD4680BD00BFF9
:1022400080B487B000AF786039604FF000037B61E5
:102250004FF000033B614FF00003FB604FF00003C1
:102260007B618FE07B694FF0010202FA03F33B616F
:102270003B681A683B6902EA0303FB60FA683B6942
:102280009A427BD17B681B681A467B694FEA4303FD
:102290004FF0030101FA03F36FEA03031A407B686E
:1022A0001A607B681B681A463B681B7919467B6974
:1022B0004FEA430301FA03F31A437B681A603B6851
:1022C0001B79012B03D03B681B79022B38D17B682B
:1022D0009B681A467B694FEA43034FF0030101FAFA
:1022E00003F36FEA03031A407B689A607B689B687C
:1022F0001A463B685B7919467B694FEA430301FA4A
:1023000003F31A437B689A607B685B681A467B69B3
:102310009BB24FF0010101FA03F36FEA03031A4085
:102320007B685A607B685B681A463B689B791946F4
:102330007B699BB201FA03F39BB21A437B685A6034
:102340007B68DB681A467B699BB24FEA43034FF018
:10235000030101FA03F36FEA03031A407B68DA60B2
:102360007B68DB681A463B68DB7919467B694FEA74
:10237000430301FA03F31A437B68DA607B6903F1D4
:1023800001037B617B690F2B7FF66CAF07F11C07A4
:10239000BD4680BC704700BF80B485B000AF786098
:1023A00013460A467A807B704FF00003FB604FF0C3
:1023B0000003BB607A787B8803F007034FEA83034E
:1023C00002FA03F3FB607B884FEAD3039BB21A4601
:1023D0007B884FEAD3039BB219467B6801F1080161
:1023E00053F8213019467B8803F007034FEA830333
:1023F0004FF00F0000FA03F36FEA030319407B6804
:1024000002F1080243F822107B884FEAD3039BB203
:102410001A467B6802F1080253F822301A46FB681C
:1024200042EA0303BB607B884FEAD3039BB21A46A0
:102430007B6802F10802B96843F8221007F114071B
:10244000BD4680BC704700BF80B483B000AF7860E9
:102450007B6803F108031A467B685A607B684FF07B
:10246000FF329A607B6803F108031A467B68DA60E2
:102470007B6803F108031A467B681A617B684FF09A
:1024800000021A6007F10C07BD4680BC704700BF10
:1024900080B483B000AF78607B684FF000021A61AF
:1024A00007F10C07BD4680BC704700BF80B485B003
:1024B00000AF786039607B685B68FB60FB685B68D5
:1024C0001A463B685A607B685A683B689A60FB68AA
:1024D0005B683A689A603A68FB685A603A687B6859
:1024E0005A603B687A681A617B681B6803F10102D5
:1024F0007B681A6007F11407BD4680BC704700BFB7
:1025000080B485B000AF786039603B681B68BB6001
:10251000BB68B3F1FF3F03D17B681B69FB600EE032
:102520007B6803F10803FB6002E0FB685B68FB600B
:10253000FB685B681B681A46BB689A42F5D9FB6862
:102540005B681A463B685A603B685B683A689A6009
:102550003B68FA689A603A68FB685A603B687A6838
:102560001A617B681B6803F101027B681A6007F13E
:102570001407BD4680BC704780B485B000AF78605A
:102580007B685B687A6892689A607B689B687A6807
:1025900052685A607B681B69FB60FB685A687B68FD
:1025A0009A4203D17B689A68FB685A607B684FF057
:1025B00000021A61FB681B6803F1FF32FB681A60B6
:1025C00007F11407BD4680BC704700BF80B500AF5F
:1025D0004FF46053C4F202034FF46052C4F202029B
:1025E000126842F001021A604FF46053C4F2020311
:1025F0004FF000029A604FF46053C4F202034FF4AC
:102600006052C4F20202126822F0847222F4803214
:102610001A604FF46053C4F2020343F21002C2F294
:1026200000425A604FF46053C4F202034FF4605208
:10263000C4F20202126822F480221A604FF460533E
:10264000C4F202034FF00002DA6000F009F84FF420
:102650006D43CEF200034FF000629A6080BD00BF70
:1026600080B483B000AF4FF000037B604FF00003F5
:102670003B604FF46053C4F202034FF46052C4F263
:102680000202126842F480321A604FF46053C4F2BE
:1026900002031B6803F400333B607B6803F1010312
:1026A0007B603B68002B03D17B68B3F5A06FECD156
:1026B0004FF46053C4F202031B6803F40033002B91
:1026C00003D04FF001033B6002E04FF000033B609A
:1026D0003B68012B69D14FF46053C4F202034FF4FD
:1026E0006052C4F2020292689A604FF46053C4F2DE
:1026F00002034FF46052C4F20202926842F40042B4
:102700009A604FF46053C4F202034FF46052C4F273
:102710000202926842F4A0529A604FF46053C4F2ED
:10272000020343F20402C0F643025A604FF46053BE
:10273000C4F202034FF46052C4F20202126842F083
:1027400080721A6000BF4FF46053C4F202031B682A
:1027500003F00073002BF6D04FF47053C4F2020361
:1027600040F201721A604FF46053C4F202034FF456
:102770006052C4F20202926822F003029A604FF49F
:102780006053C4F202034FF46052C4F20202926832
:1027900042F002029A6000BF4FF46053C4F2020399
:1027A0009B6803F00C03082BF6D107F10C07BD461C
:1027B00080BC704780B582B000AF786039607B68BC
:1027C000002B04D14FF0500080F31188FEE700F099
:1027D00015FC7B681A687B68DB6B7968096C01FB08
:1027E00003F3D2187B685A607B684FF000029A634B
:1027F0007B681A687B689A607B681A687B68DB6B09
:1028000003F1FF337968096C01FB03F3D2187B688D
:10281000DA607B684FF0FF325A647B684FF0FF321A
:102820009A643B68002B0FD17B681B69002B17D083
:102830007B6803F110031846FEF7AAFF0346012B3D
:102840000ED100F0CFFB0BE07B6803F110031846BC
:10285000FFF7FAFD7B6803F124031846FFF7F4FD48
:1028600000F0E2FB4FF00103184607F10807BD46F0
:1028700080BD00BF80B588B000AFF860B960134676
:10288000FB714FF00003FB61FB68002B2BD04FF076
:102890004C0001F001F80346BB61BB69002B22D05C
:1028A000FB68BA6802FB03F303F101037B617869FB
:1028B00000F0F2FF03461A46BB691A60BB691B6849
:1028C000002B0DD0BB69FA68DA63BB69BA681A6479
:1028D000B8694FF00101FFF76DFFBB69FB6102E0D2
:1028E000B86901F02BF8FB69002B04D14FF05000C0
:1028F00080F31188FEE7FB69184607F12007BD4603
:1029000080BD00BF80B584B000AF0346FB714FF0BF
:102910004C0000F0C1FF0346FB60FB68002B38D081
:10292000FB684FF000025A60FB684FF000021A602B
:10293000FB684FF000029A60FB684FF00002DA601B
:10294000FB684FF000029A63FB684FF00102DA6304
:10295000FB684FF000021A64FB684FF0FF325A64C4
:10296000FB684FF0FF329A64FB6803F110031846CE
:10297000FFF76AFDFB6803F124031846FFF764FDC7
:10298000F8684FF000014FF000024FF0000300F034
:102990000FF8FB68002B04D14FF0500080F3118832
:1029A000FEE7FB68184607F11007BD4680BD00BF73
:1029B00080B588B000AFF860B9607A603B604FF0D6
:1029C0000003FB61FB68002B04D14FF0500080F343
:1029D0001188FEE7BB68002B03D1FB681B6C002B42
:1029E00002D14FF0010301E04FF00003002B05D1AD
:1029F0004FF0500080F31188FEE700BF00F0FEFAB0
:102A0000FB689B6B1A46FB68DB6B9A4218D2F8682E
:102A1000B9683A6800F056F9FB685B6A002B0AD087
:102A2000FB6803F124031846FEF7B2FE0346012BB0
:102A300001D100F0D7FA00F0F7FA4FF001035DE0A2
:102A40007B68002B04D100F0EFFA4FF0000355E053
:102A5000FB69002B07D107F114031846FEF702FFAC
:102A60004FF00103FB6100F0DFFAFEF7E9FB00F035
:102A7000C5FAFB685B6CB3F1FF3F03D1FB684FF015
:102A800000025A64FB689B6CB3F1FF3F03D1FB6803
:102A90004FF000029A6400F0C7FA07F1140207F140
:102AA000040310461946FEF7FDFE0346002B1ED117
:102AB000F86800F0F7F90346002B12D0FB6803F129
:102AC00010027B6810461946FEF71EFEF86800F0FB
:102AD00083F9FEF7C7FB0346002B8ED100F082FA84
:102AE0008CE7F86800F078F9FEF7BCFB86E7F86839
:102AF00000F072F9FEF7B6FB4FF00003184607F13D
:102B00002007BD4680BD00BF80B588B000AFF8602B
:102B1000B9607A603B604FF00003FB61FB68002BFB
:102B200004D14FF0500080F31188FEE7BB68002B02
:102B300003D1FB681B6C002B02D14FF0010301E0B5
:102B40004FF00003002B05D14FF0500080F31188A7
:102B5000FEE700BF00F052FAFB689B6B002B40D0F1
:102B6000FB68DB68BB61F868B96800F00DF93B6889
:102B7000002B1FD1FB689B6B03F1FF32FB689A634C
:102B8000FB681B68002B05D1FFF778F803461A464F
:102B9000FB685A60FB681B69002B1DD0FB6803F1C2
:102BA00010031846FEF7F4FD0346012B14D100F084
:102BB00019FA11E0FB68BA69DA60FB685B6A002BFE
:102BC0000AD0FB6803F124031846FEF7E1FD034633
:102BD000002B01D000F006FA00F026FA4FF00103B6
:102BE0006BE07B68002B04D100F01EFA4FF000036D
:102BF00063E0FB69002B07D107F110031846FEF7CD
:102C000031FE4FF00103FB6100F00EFAFEF718FBF6
:102C100000F0F4F9FB685B6CB3F1FF3F03D1FB6894
:102C20004FF000025A64FB689B6CB3F1FF3F03D185
:102C3000FB684FF000029A6400F0F6F907F1100209
:102C400007F1040310461946FEF72CFE0346002B3D
:102C50002CD1F86800F010F90346002B20D0FB6857
:102C60001B68002B08D100F0C9F9FB685B681846A7
:102C7000FFF714F800F0D8F9FB6803F124027B6831
:102C800010461946FEF740FDF86800F0A5F8FEF77B
:102C9000E9FA0346002B7FF45CAF00F0A3F959E793
:102CA000F86800F099F8FEF7DDFA53E7F86800F0ED
:102CB00093F8FEF7D7FA4FF00003184607F1200704
:102CC000BD4680BD80B584B000AFF860B9607A6061
:102CD000FB681B6C002B0DD1FB681B68002B48D1D7
:102CE000FB685B681846FFF74DF8FB684FF0000281
:102CF0005A603EE07B68002B1AD1FB689A68FB683B
:102D00001B6C1046B9681A4600F0CAFEFB689A6848
:102D1000FB681B6CD218FB689A60FB689A68FB68BA
:102D20005B689A4225D3FB681A68FB689A6020E0CA
:102D3000FB68DA68FB681B6C1046B9681A4600F03D
:102D4000AFFEFB68DA68FB681B6CC3F10003D218A6
:102D5000FB68DA60FB68DA68FB681B689A4208D295
:102D6000FB685A68FB681B6CC3F10003D218FB6850
:102D7000DA60FB689B6B03F10102FB689A6307F161
:102D80001007BD4680BD00BF80B582B000AF78603F
:102D900039607B681B68002B19D07B68DA687B6818
:102DA0001B6CD2187B68DA607B68DA687B685B68CA
:102DB0009A4203D37B681A687B68DA607B68DA68BA
:102DC0007B681B6C386811461A4600F069FE07F1F3
:102DD0000807BD4680BD00BF80B582B000AF7860F7
:102DE00000F00CF914E07B685B6A002B15D07B685F
:102DF00003F124031846FEF7CBFC0346002B01D059
:102E0000FEF7B2FD7B689B6C03F1FF327B689A642E
:102E10007B689B6C002BE6DC00E000BF7B684FF01A
:102E2000FF329A6400F000F900F0E8F814E07B68E3
:102E30001B69002B15D07B6803F110031846FEF7C1
:102E4000A7FC0346002B01D0FEF78EFD7B685B6C70
:102E500003F1FF327B685A647B685B6C002BE6DC15
:102E600000E000BF7B684FF0FF325A6400F0DCF8EE
:102E700007F10807BD4680BD80B584B000AF78601B
:102E800000F0BCF87B689B6B002B14BF0023012370
:102E9000FB6000F0C9F8FB68184607F11007BD4653
:102EA00080BD00BF80B584B000AF786000F0A6F8A8
:102EB0007B689B6B1A467B68DB6B9A4214BF0023CE
:102EC0000123FB6000F0B0F8FB68184607F110071B
:102ED000BD4680BD80B485B000AFF860B9607A604F
:102EE000FB68A3F10403FB60FB684FF080721A607B
:102EF000FB68A3F10403FB60BA68FB681A60FB6817
:102F0000A3F10403FB60FB684FF000021A60FB684A
:102F1000A3F11403FB607A68FB681A60FB68A3F1F5
:102F20000403FB60FB686FF002021A60FB68A3F108
:102F30002003FB60FB68184607F11407BD4680BC00
:102F4000704700BF054B19680868B0E8F04F80F380
:102F500009884FF0000080F31188704718000020A6
:102F600003480068006880F3088862B600DF00BF8D
:102F700008ED00E080B500AF4EF62053CEF200031E
:102F80004EF62052CEF20002126842F470021A602D
:102F90004EF62053CEF200034EF62052CEF200023F
:102FA000126842F070421A6000F09EF840F2080386
:102FB000C2F200034FF000021A6000F0A9F84EF6CA
:102FC0003473CEF200034EF63472CEF20002126871
:102FD00042F040421A60FFF7C3FF4FF0000318466B
:102FE00080BD00BF80B400AF4EF60453CEF20003A4
:102FF0004FF080521A60BD4680BC704780B400AF6D
:103000004FF0500080F3118840F20803C2F2000331
:103010001B6803F1010240F20803C2F200031A60C8
:10302000BD4680BC704700BF80B400AF40F20803CB
:10303000C2F200031B6803F1FF3240F20803C2F240
:1030400000031A6040F20803C2F200031B68002B61
:1030500003D14FF0000080F31188BD4680BC70475B
:10306000EFF30980114B1A681EF0100F08BF20ED16
:10307000108A20E9F04F10602DE908404FF0500011
:1030800080F31188FEF78CFA4FF0000080F311886E
:10309000BDE8084019680868B0E8F04F1EF0100F4E
:1030A00008BFB0EC108A80F3098870471800002030
:1030B00080B582B000AF4EF60453CEF200034FF05D
:1030C00080521A604FF000037B604FF0500080F395
:1030D0001188FEF77DF94FF0000080F3118807F1A9
:1030E0000807BD4680BD00BF80B400AF4EF2140398
:1030F000CEF200034BF67F321A604EF21003CEF28E
:1031000000034FF007021A60BD4680BC704700BF45
:10311000DFF80C00016841F47001016070470000A5
:1031200088ED00E080B485B000AF786039604FF082
:103130000003FB817B681B88FB81FB8903F44153FF
:10314000FB813B681A883B685B8842EA03039AB2BA
:103150003B689B8842EA03039AB23B68DB8842EAF9
:1031600003039AB23B681B8942EA03039AB23B68A5
:103170005B8942EA03039AB23B689B8942EA0303F4
:103180009AB23B68DB8942EA03039AB2FB8942EABE
:103190000303FB817B68FA891A807B689B8B9BB257
:1031A00023F400639AB27B689A833B681A8A7B682F
:1031B0001A8207F11407BD4680BC704780B483B003
:1031C00000AF78600B46FB70FB78002B08D07B6863
:1031D0001B889BB243F040039AB27B681A8007E0D9
:1031E0007B681B889BB223F040039AB27B681A80ED
:1031F00007F10C07BD4680BC704700BF80B483B0A8
:1032000000AF78600B46FB70FB78002B08D07B6822
:103210001B889BB243F400539AB27B681A8007E084
:103220007B681B889BB223F400539AB27B681A8098
:1032300007F10C07BD4680BC704700BF80B485B065
:1032400000AF78604FF00003FB734FF00003BB60EA
:103250004FF47053C4F201031B681A467B6802EAFC
:103260000303BB604FF47053C4F201035B691A4659
:103270007B6802EA0303002B06D0BB68002B03D057
:103280004FF00103FB7302E04FF00003FB73FB7B85
:10329000184607F11407BD4680BC704780B483B060
:1032A00000AF78604FF47053C4F201037A685A613A
:1032B00007F10C07BD4680BC704700BF80B584B0E5
:1032C00004AF00F033F800F0D1F843F6E853C0F64D
:1032D00000034FF0010200924FF0000201924FF004
:1032E000000202924FF00002039243F2DD50C0F65A
:1032F000000019464FF080024FF00003FDF740FE3A
:1033000041F69053C2F200034FF000021A714FF0E1
:103310000100FFF7F7FA024641F6C453C2F2000378
:103320001A604FF000031846BD4680BD80B588B0D6
:1033300000AF4FF002004FF00101FDF75FFC4FF4CA
:1033400080504FF00101FDF7B5FC4FF03803BB6131
:103350004FF002037B774FF002033B774FF00003FF
:10336000BB774FF00003FB7707F118034FF4806041
:10337000C4F202001946FEF763FF4FF04003BB6141
:103380004FF001033B774FF00003BB774FF0000392
:10339000FB774FF002037B7707F118034FF480604F
:1033A000C4F202001946FEF74BFF4FF48060C4F2EE
:1033B00002004FF003014FF00502FEF7EDFF4FF45E
:1033C0008060C4F202004FF004014FF00502FEF7E6
:1033D000E3FF4FF48060C4F202004FF005014FF0AC
:1033E0000502FEF7D9FF4FF00003BB804FF4827354
:1033F000FB804FF400633B814FF000037B814FF073
:103400000003BB814FF40073FB814FF020033B822C
:103410004FF000037B8207F104034FF44050C4F2E5
:1034200001001946FFF77EFE4FF44050C4F2010040
:103430004FF00001FFF7E2FE4FF44050C4F20100EC
:103440004FF00101FFF7BAFE4FF48063C4F20203AC
:103450004FF48062C4F20202528B92B242F04002F8
:1034600092B25A8307F12007BD4680BD80B588B06F
:1034700000AF4FF006004FF00101FDF7BFFB4FF426
:1034800080404FF00101FDF7E7FB4FF42043BB61A3
:103490004FF002037B774FF002033B774FF00003BE
:1034A000BB774FF00003FB7707F118034FF4806000
:1034B000C4F202001946FEF7C3FE4FF48043BB611D
:1034C0004FF002037B774FF002033B774FF000038E
:1034D000BB774FF00003FB7707F118034FF48060D0
:1034E000C4F202001946FEF7ABFE4FF04003BB6189
:1034F0004FF001033B774FF00003BB774FF0000321
:10350000FB774FF002037B7707F118034FF400605D
:10351000C4F202001946FEF793FE4FF48060C4F235
:1035200002004FF00D014FF00502FEF735FF4FF49A
:103530008060C4F202004FF00E014FF00502FEF76A
:103540002BFF4FF48060C4F202004FF00F014FF0E8
:103550000502FEF721FF4FF00003BB804FF482739A
:10356000FB804FF400633B814FF000037B814FF001
:103570000003BB814FF40073FB814FF020033B82BB
:103580004FF000037B8207F104034FF46050C4F254
:1035900000001946FFF7C6FD4FF46050C4F200006A
:1035A0004FF00001FFF72AFE4FF46050C4F2000014
:1035B0004FF00101FFF702FE4FF40063C4F2020373
:1035C0004FF40062C4F20202528B92B242F0400207
:1035D00092B25A8307F12007BD4680BD80B584B002
:1035E00000AF78604FF00003FB734FF000004FF026
:1035F000FF014FF00502FDF7B5FA4FF001004FF063
:10360000FF014FF00202FDF7ADFA4FF0000043F664
:10361000F451C0F60001FCF7B7FD4FF0010043F68E
:10362000FC51C0F60001FCF7AFFDFDF7B7F941F61C
:10363000C453C2F200031B6818464FF000014FF05C
:10364000FF324FF00003FFF75FFA0346012B40F013
:1036500011814FF00003FB73FAE04FF48063C4F272
:1036600002034FF48062C4F20202528B92B242F023
:10367000400292B25A834FF40063C4F202034FF443
:103680000062C4F20202528B92B242F0400292B245
:103690005A83FB7B042B66D941F62053C2F2000308
:1036A00093F850301A46FB7BA3F1050342FA03F36B
:1036B00003F00103DBB2002B11D04FF44053C4F2EE
:1036C0000103FA7B41F62051C2F200014FEA4202A7
:1036D0008A18528822F0FF0292B29A810DE04FF4CC
:1036E0004053C4F20103FA7B41F62051C2F20001BB
:1036F0004FEA42028A1852889A8141F62053C2F258
:10370000000393F866301A46FB7BA3F1050342FAE7
:1037100003F303F00103DBB2002B13D04FF460532B
:10372000C4F20003FA7B41F62051C2F2000102F11B
:103730000F024FEA42028A18528822F0FF0292B228
:103740009A8131E04FF46053C4F20003FA7B41F6F2
:103750002051C2F2000102F10F024FEA42028A1820
:1037600052889A8120E04FF44053C4F20103FA7B5F
:1037700041F62051C2F200014FEA42028A185288F3
:103780009A814FF46053C4F20003FA7B41F6205152
:10379000C2F2000102F10F024FEA42028A18528877
:1037A0009A8101E0FFF71EFC4FF44053C4F201037D
:1037B0001B899BB203F08003002BF3D14FF46053BD
:1037C000C4F200031B899BB203F08003002BE9D1F4
:1037D000FFF708FC4FF48063C4F202034FF48062E9
:1037E000C4F20202128B92B242F0400292B21A83E9
:1037F0004FF40063C4F202034FF40062C4F2020209
:10380000128B92B242F0400292B21A83FFF7EAFBA7
:103810004FF48063C4F202034FF48062C4F20202E8
:10382000528B92B242F0400292B25A834FF400633C
:10383000C4F202034FF40062C4F20202528B92B24D
:1038400042F0400292B25A83FB7B03F10103FB7307
:10385000FB7B0C2B7FF601AF41F6C453C2F2000391
:103860001B6818464FF000014FF000024FF00003B4
:10387000FFF79EF841F69053C2F200031B6803F174
:10388000010241F69053C2F200031A604FF0640047
:10389000FDF766FCB9E600BF80B584B000AF786084
:1038A0004FF00003FB607B6803F00703002B05D09B
:1038B0007B6823F0070303F108037B60FDF7C0FC7E
:1038C00041F61853C2F200031A687B68D21841F619
:1038D000FF339A4224D841F61853C2F200031A6803
:1038E0007B68D21841F61853C2F200031B689A4253
:1038F00016D941F61853C2F200031A6840F21813A1
:10390000C2F20003D318FB6041F61853C2F2000361
:103910001A687B68D21841F61853C2F200031A6085
:10392000FDF7A0FCFB68002B01D1FDF751F9FB6806
:10393000184607F11007BD4680BD00BF80B483B0B4
:1039400000AF786007F10C07BD4680BC704700BF30
:1039500080B400AF41F61853C2F200031B68C3F5F0
:10396000E0531846BD4680BC704700BF80B485B0A8
:1039700000AF78600B467B804FF00003FB734FF085
:103980000003BB814FF000037B817B681B8A9AB2E6
:103990007B8802EA0303BB817B689B899AB27B88A0
:1039A00002EA03037B81BB89002B06D07B89002BB5
:1039B00003D04FF00103FB7302E04FF00003FB73F1
:1039C000FB7B184607F11407BD4680BC704700BF5B
:1039D00080B483B000AF78600B467B807B886FEA51
:1039E00003039AB27B681A8207F10C07BD4680BCBC
:1039F000704700BF80B400AFBFF34F8F4FF46D42EC
:103A0000CEF200024FF46D43CEF20003DB6803F404
:103A1000E0614FF00403C0F2FA5341EA0303D360BC
:103A2000BFF34F8FFEE700BF80B500AF4FF480308B
:103A3000FFF704FC0346002B05D0FFF7DBFF4FF434
:103A40008030FFF72BFC80BD032A70B404460D467E
:103A500012D941EA000313F0030F0FD10B460446BD
:103A600051F8045B50F8046BAE4204D1043A0446AA
:103A7000032A0B46F2D81D46104672B121782B78E6
:103A8000994209D1501E2A4638B114F8011F013855
:103A900012F8013F9942F7D0C81A70BC704700BFB6
:103AA000032A2DE9F00109D82AB10023CC5CC454C3
:103AB00001339342FAD1BDE8F00170470B468218FA
:103AC000014603E02478013301F8014B11F0030FA4
:103AD0001C46F7D113F003055DD06E42C5F1040C0E
:103AE000ED009B594FEACC0C08E00434A7593B4643
:103AF00007FA0CF748EA070741F8047B571A23FA3C
:103B000005F8032FF1DC03E014F8013B01F8013B59
:103B10008A42F9D8CFE753F8404C41F8404C53F86B
:103B20003C4C41F83C4C53F8384C41F8384C53F875
:103B3000344C41F8344C53F8304C41F8304C53F885
:103B40002C4C41F82C4C53F8284C41F8284C53F895
:103B5000244C41F8244C53F8204C41F8204C53F8A5
:103B60001C4C41F81C4C53F8184C41F8184C53F8B5
:103B7000144C41F8144C53F8104C41F8104C53F8C5
:103B80000C4C41F80C4C53F8084C41F8084C53F8D5
:103B9000044C41F8044C561A1D460C464033403143
:103BA0003F2EB8DC2B460FE053F8101C44F8101CD5
:103BB00053F80C1C44F80C1C53F8081C44F8081C5F
:103BC00053F8041C44F8041C161B1D4610330F2E1A
:103BD000214604F11004E7DC2B4602E0246841F89A
:103BE000044B551A1C46032D03F10403F6DC8FE742
:103BF000032AC9B270B408D82AB10346121803F8D0
:103C0000011B9342FBD170BC70478218044601E04F
:103C100004F8011B14F0030FFAD14FF0013303FB3A
:103C200001F31FE044F8403C44F83C3C44F8383C85
:103C300044F8343C44F8303C44F82C3C44F8283CEC
:103C400044F8243C44F8203C44F81C3C44F8183C1C
:103C500044F8143C44F8103C44F80C3C44F8083C4C
:103C600044F8043C161B254640343F2EDADC2C4633
:103C700007E044F8103C44F80C3C44F8083C44F895
:103C8000043C161B254610340F2EF2DC01E045F8EB
:103C9000043B541B032CFADC01E005F8011B9542A0
:103CA000FBD3B0E720F0030110F00300C0F10000E7
:103CB00051F8043B00F1040C4FEACC0C6FF0000209
:103CC0001CBF22FA0CF213434FF0010C4CEA0C2CEF
:103CD0004CEA0C4CA3EB0C0222EA030212EACC12CF
:103CE00004BF51F8043B0430F4D013F0FF0F1FBFA2
:103CF000013013F47F4F013013F47F0F18BF0130F0
:103D0000704700BF41EA000313F0030F034670B48D
:103D100014BF00250125032A94BF002505F00105E5
:103D20000C460646CDB9B2B10D783446531E04F8A0
:103D3000015B55B1B21C73B111F8015F1446013B30
:103D400002F8015C0132002DF5D123B10022013BC4
:103D500004F8012BFBD170BC7047214654F8045B7A
:103D6000A5F1013626EA050616F0803F05D1043A92
:103D700043F8045B032A2146EFD81E46D3E700BF71
:103D80003031323334353637383941624364454651
:103D90006849694A4C4F50727455752E2D5F207ECC
:103DA000306D79335B5F707F7B771F4E3D4F4717D8
:103DB00030103C0E7E67050F3E1C8001080000009D
:103DC00049444C4500000000A5A5A5A5A5A5A5A5AD
:103DD000A5A5A5A5A5A5A5A5A5A5A5A54B6579629C
:103DE0006F617264000000005350495F5441534BAF
:103DF00000000000462D303100000000412D353418
:043E000000000000BE
:0C3E040000800080FFFFFFFFAAAAAAAA0E
:0400000508000000EF
:00000001FF
